:020000040800F2
:1000000000000820D50D0008B1090008B709000854
:10001000BD090008C3090008C90900080000000064
:10002000000000000000000000000000CF090008F0
:10003000DD09000800000000EB090008F9090008CC
:10004000250E0008250E0008250E0008250E0008C4
:10005000250E0008250E0008250E0008250E0008B4
:10006000250E0008250E0008250E0008250E0008A4
:10007000050A0008250E0008250E0008250E0008B8
:10008000250E0008250E0008250E0008250E000884
:10009000250E0008250E0008250E0008250E000874
:1000A000250E0008250E0008250E0008250E000864
:1000B000250E0008250E0008250E0008250E000854
:1000C000250E0008250E0008250E0008250E000844
:1000D000250E0008250E0008250E0008190A000844
:1000E000250E0008250E0008250E0008250E000824
:1000F000250E0008250E0008250E0008250E000814
:10010000250E0008250E0008250E0008250E000803
:10011000250E0008250E0008250E0008250E0008F3
:10012000250E0008250E0008250E0008250E0008E3
:10013000250E0008250E0008250E0008250E0008D3
:10014000250E0008250E0008250E0008250E0008C3
:10015000250E0008250E0008250E0008250E0008B3
:10016000250E0008250E0008250E0008250E0008A3
:10017000250E0008250E0008250E000800000000CE
:10018000250E0008250E0008250E0008250E000883
:10019000250E0008250E0008250E0008250E000873
:1001A000250E0008250E0008250E0008250E000863
:1001B000250E0008250E0008250E0008250E000853
:1001C000250E0008250E000800000000250E00087E
:1001D000250E0008250E0008250E0008250E000833
:1001E000250E0008250E0008250E0008250E000823
:0801F000250E0008250E000891
:1001F80010B5054C237833B9044B13B10448AFF359
:1002080000800123237010BD1000002000000000B2
:100218004C57000808B5034B1BB103490348AFF31B
:10022800008008BD00000000140000204C570008A2
:1002380053B94AB9002908BF00281CBF4FF0FF3145
:100248004FF0FF3000F074B9ADF1080C6DE904CE41
:1002580000F006F8DDF804E0DDE9022304B0704799
:100268002DE9F047089D04468E46002B4DD18A4261
:10027800944669D9B2FA82F252B101FA02F3C2F194
:10028800200120FA01F10CFA02FC41EA030E944025
:100298004FEA1C48210CBEFBF8F61FFA8CF708FB46
:1002A80016E341EA034306FB07F199420AD91CEB1E
:1002B800030306F1FF3080F01F81994240F21C8150
:1002C800023E63445B1AA4B2B3FBF8F008FB103398
:1002D80044EA034400FB07F7A7420AD91CEB0404CD
:1002E80000F1FF3380F00A81A74240F2078164449D
:1002F800023840EA0640E41B00261DB1D440002322
:10030800C5E900433146BDE8F0878B4209D9002D85
:1003180000F0EF800026C5E9000130463146BDE80F
:10032800F087B3FA83F6002E4AD18B4202D3824279
:1003380000F2F980841A61EB030301209E46002D28
:10034800E0D0C5E9004EDDE702B9FFDEB2FA82F27D
:10035800002A40F09280A1EB0C014FEA1C471FFADB
:100368008CFE0126200CB1FBF7F307FB131140EAC2
:1003780001410EFB03F0884208D91CEB010103F18F
:10038800FF3802D2884200F2CB804346091AA4B251
:10039800B1FBF7F007FB101144EA01440EFB00FE25
:1003A800A64508D91CEB040400F1FF3102D2A6458A
:1003B80000F2BB800846A4EB0E0440EA03409CE729
:1003C800C6F12007B34022FA07FC4CEA030C20FAD6
:1003D80007F401FA06F31C43F9404FEA1C4900FAF6
:1003E80006F3B1FBF9F8200C1FFA8CFE09FB181173
:1003F80040EA014108FB0EF0884202FA06F20BD9E6
:100408001CEB010108F1FF3A80F08880884240F235
:100418008580A8F102086144091AA4B2B1FBF9F079
:1004280009FB101144EA014100FB0EFE8E4508D974
:100438001CEB010100F1FF346CD28E456AD90238F9
:10044800614440EA0840A0FB0294A1EB0E01A142DE
:10045800C846A64656D353D05DB1B3EB080261EB4C
:100468000E0101FA07F722FA06F3F1401F43C5E926
:10047800007100263146BDE8F087C2F12003D8405C
:100488000CFA02FC21FA03F3914001434FEA1C479E
:100498001FFA8CFEB3FBF7F007FB10360B0C43EA90
:1004A800064300FB0EF69E4204FA02F408D91CEB40
:1004B800030300F1FF382FD29E422DD9023863443E
:1004C8009B1B89B2B3FBF7F607FB163341EA0341DE
:1004D80006FB0EF38B4208D91CEB010106F1FF382D
:1004E80016D28B4214D9023E6144C91A46EA004624
:1004F80038E72E46284605E70646E3E61846F8E6B6
:100508004B45A9D2B9EB020864EB0C0E0138A3E7FE
:100518004646EAE7204694E74046D1E7D0467BE7DF
:10052800023B614432E7304609E76444023842E757
:10053800704700BF80B582B000AF0C4B1B6B0B4AF5
:1005480043F400131363094B1B6B03F400137B6024
:100558007B68002200210C2000F099FD0C2000F09F
:10056800B2FD00BF0837BD4680BD00BF003802405D
:1005780080B58EB000AF07F1240300221A605A60DC
:100588009A60DA601A616F4B1B6B6E4A43F0100376
:1005980013636C4B1B6B03F010033B623B6A694BA4
:1005A8001B6B684A43F004031363664B1B6B03F031
:1005B8000403FB61FB69634B1B6B624A43F0200336
:1005C8001363604B1B6B03F02003BB61BB695D4B7E
:1005D8001B6B5C4A43F0800313635A4B1B6B03F09D
:1005E80080037B617B69574B1B6B564A43F00103C1
:1005F8001363544B1B6B03F001033B613B69514B85
:100608001B6B504A43F0020313634E4B1B6B03F002
:100618000203FB60FB684B4B1B6B4A4A43F04003E9
:100628001363484B1B6B03F04003BB60BB68454B2F
:100638001B6B444A43F008031363424B1B6B03F0E4
:1006480008037B607B68002280213F4801F00CFB97
:100658004FF6FF737B620323BB620023FB6207F143
:1006680024031946394801F053F94FF6FF737B62AA
:100678000323BB620023FB6207F1240319463448B5
:1006880001F046F94FF6FF737B620323BB62002338
:10069800FB6207F1240319462E4801F039F90323B8
:1006A8007B620323BB620023FB6207F12403194624
:1006B800294801F02DF949F6FF737B620323BB62D9
:1006C8000023FB6207F124031946244801F020F9AE
:1006D8004FF67F737B620323BB620023FB6207F143
:1006E80024031946184801F013F94FF6FF737B628B
:1006F8000323BB620023FB6207F124031946184851
:1007080001F006F94FF6FF437B620323BB62002327
:10071800FB6207F124031946124801F0F9F8802317
:100728007B620123BB620023FB6200233B6307F16A
:1007380024031946044801F0EBF800BF3837BD46DA
:1007480080BD00BF00380240000402400010024093
:100758000008024000140240001C02400000024051
:1007680000180240000C024080B5A0B000AF00F0B5
:1007780056FB00F081F8FFF7FBFEFFF7DBFE00F009
:10078800FBF900F061F900F0CBF900F0C1FA0023A1
:1007980087F87F300023BB6729E0BB6F07EE903AEC
:1007A800B8EEE77B37EE077B9FED296B27EE066BEC
:1007B8009FED295B86EE057B87ED1C7B97ED1C0B77
:1007C80004F0CAF9B0EE407B9FED256B27EE067B5F
:1007D800FDEEC77BC7ED017A3B7959B207F10C02F0
:1007E800BB6F13440A461A70BB6F0133BB67BB6FFC
:1007F800632BD2DD1C491D4800F09CF90346002BF1
:1008080003D180211A4801F048FA42F210711948C0
:1008180000F090F90346002BECD100F0CBFA034628
:10082800002BE7D197F87F3007F10C021344012120
:10083800184600F07BFA97F87F30013387F87F304D
:1008480097F87F30632BD5D9002387F87F30D1E71D
:10085800182D4454FB2109400000000000005940B5
:100868000000000000C05F40A08601002C000020AE
:10087800000402403000002080B594B000AF07F1BA
:100888001C0334220021184604F05EF907F108031E
:1008980000221A605A609A60DA601A612B4B1B6C4E
:1008A8002A4A43F080531364284B1B6C03F080538F
:1008B8007B607B68264B1B68254A43F440431360E2
:1008C800234B1B6803F440433B603B680223FB61F6
:1008D8000123BB621023FB6202237B630023BB63FB
:1008E8000823FB63D8233B6402237B640223BB6495
:1008F8000223FB6407F11C03184601F039FA03468A
:10090800002B01D000F026F801F0E2F90346002B95
:1009180001D000F01FF80F23BB600223FB60002307
:100928003B614FF4A0537B614FF48053BB6107F1E7
:1009380008030721184601F0C9FC0346002B01D023
:1009480000F008F800BF5037BD4680BD00380240AF
:100958000070004080B400AF72B600BFFEE7000030
:1009680080B483B000AF0F4B1B6C0E4A43F080532A
:1009780013640C4B1B6C03F080537B607B68094B42
:100988005B6C084A43F480435364064B5B6C03F486
:1009980080433B603B6800BF0C37BD465DF8047B75
:1009A800704700BF0038024080B400AFFEE780B453
:1009B80000AFFEE780B400AFFEE780B400AFFEE70B
:1009C80080B400AFFEE780B400AF00BFBD465DF85D
:1009D800047B704780B400AF00BFBD465DF8047B60
:1009E800704780B400AF00BFBD465DF8047B704718
:1009F80080B500AF00F050FA00BF80BD80B500AFF1
:100A0800024800F01BFD00BF80BD00BF0C010020A4
:100A180080B500AF024802F0E9FE00BF80BD00BF0C
:100A28008400002080B400AF064BD3F88830054A14
:100A380043F47003C2F8883000BFBD465DF8047BFC
:100A4800704700BF00ED00E080B588B000AF07F147
:100A5800100300221A605A609A60DA603B1D002277
:100A68001A605A609A601E4B4FF080421A601C4B05
:100A78006B225A601A4B00229A60194B4FF0FF32D2
:100A8800DA60174B00221A61154B80229A611448CC
:100A980002F02AFA0346002B01D0FFF75BFF4FF460
:100AA80080533B6107F1100319460D4802F0E4FA40
:100AB8000346002B01D0FFF74DFF00237B60002386
:100AC800FB603B1D1946064802F0E6FC0346002B76
:100AD80001D0FFF73FFF00BF2037BD4680BD00BFF4
:100AE8003400002080B485B000AF78607B681B6854
:100AF800B3F1804F0BD1094B1B6C084A43F001033B
:100B08001364064B1B6C03F00103FB60FB6800BF1A
:100B18001437BD465DF8047B704700BF00380240BB
:100B280080B500AF024802F037FA00BF80BD00BFB1
:100B38003400002080B485B000AF786039600D4B78
:100B48001B685B6AFB607B681B68FA68D31ABB602A
:100B5800BA683B689A4204D37B68FA681A60002333
:100B680001E04FF0FF3318461437BD465DF8047BAB
:100B7800704700BF3400002080B500AF144B154A01
:100B88001A60134B4FF4E1325A60114B00229A60FD
:100B98000F4B0022DA600E4B00221A610C4B0C221C
:100BA8005A610B4B00229A61094B0022DA61084B0B
:100BB80000221A62064B00225A62054802F0FAFC2B
:100BC8000346002B01D0FFF7C5FE00BF80BD00BF64
:100BD800840000200048004080B5AEB000AF7860C7
:100BE80007F1A40300221A605A609A60DA601A6159
:100BF80007F1140390220021184603F0A5FF7B6833
:100C08001B683E4A934274D14FF480737B61002382
:100C18003B6607F11403184601F03EFD0346002B1E
:100C280001D0FFF797FE364B1B6C354A43F48023FF
:100C38001364334B1B6C03F480233B613B69304BDB
:100C48001B6B2F4A43F0080313632D4B1B6B03F0F8
:100C58000803FB60FB684FF44073C7F8A430022315
:100C6800C7F8A8300023C7F8AC300323C7F8B03062
:100C78000723C7F8B43007F1A4031946214800F048
:100C880047FE214B214A1A601F4B4FF000625A6001
:100C98001D4B00229A601C4B0022DA601A4B4FF45D
:100CA80080621A61184B00225A61174B00229A6120
:100CB800154B4FF48072DA61134B4FF440321A62CD
:100CC800114B00225A62104800F018FA0346002B14
:100CD80001D0FFF73FFE7B680B4A5A670A4A7B68D8
:100CE800936300220021272000F0D1F9272000F08B
:100CF800EAF900BFB837BD4680BD00BF00480040D4
:100D080000380240000C02400C010020286002401C
:100D180080B500AF01220349034802F022FD00BF5D
:100D280080BD00BF800000208400002080B582B014
:100D380000AF78600B467B807A884FF6FF7379683E
:100D4800034802F085FC00BF0837BD4680BD00BFE0
:100D58008400002080B483B000AF78607B68074AC5
:100D6800934204D1064B1B785AB2064B1A7000BF47
:100D78000C37BD465DF8047B704700BF8400002037
:100D8800800000200400002080B582B000AF7860A9
:100D98007B68064A934204D101220549034802F0C0
:100DA800E0FC00BF0837BD4680BD00BF84000020BE
:100DB8008000002080B400AF034B93F90030184640
:100DC800BD465DF8047B704704000020DFF834D08E
:100DD800FFF728FE0C480D490D4A002302E0D458BD
:100DE800C4500433C4188C42F9D30A4A0A4C00236D
:100DF80001E013600432A242FBD303F081FEFFF747
:100E0800B3FC7047000008200000002010000020FC
:100E1800705900081000002070010020FEE780B51E
:100E280000AF032000F028F90F2000F005F8FFF7C5
:100E380097FD0023184680BD80B582B000AF78606A
:100E4800124B1A68124B1B7819464FF47A73B3FB8E
:100E5800F1F3B2FBF3F3184600F043F90346002B15
:100E680001D001230EE07B680F2B0AD80022796895
:100E78004FF0FF3000F00BF9064A7B68136000233F
:100E880000E0012318460837BD4680BD0000002059
:100E98000C0000200800002080B400AF064B1B782F
:100EA8001A46064B1B681344044A136000BFBD462C
:100EB8005DF8047B704700BF0C0000206C01002027
:100EC80080B400AF034B1B681846BD465DF8047B31
:100ED800704700BF6C01002080B485B000AF786017
:100EE8007B6803F00703FB600B4BDB68BB60BA68E9
:100EF8004FF6FF031340BB60FB681A02BB681A4336
:100F0800064B1343BB60044ABB68D36000BF143769
:100F1800BD465DF8047B704700ED00E00000FA056F
:100F280080B400AF044BDB681B0A03F007031846C4
:100F3800BD465DF8047B704700ED00E080B483B0E7
:100F480000AF0346FB7197F90730002B0BDBFB79E9
:100F580003F01F02074997F907305B09012000FADF
:100F680002F241F8232000BF0C37BD465DF8047B30
:100F7800704700BF00E100E080B483B000AF0346D3
:100F88003960FB7197F90730002B0ADB3B68DAB24E
:100F98000C4997F907301201D2B20B4483F80023A9
:100FA8000AE03B68DAB20849FB7903F00F03043B17
:100FB8001201D2B20B441A7600BF0C37BD465DF859
:100FC800047B704700E100E000ED00E080B489B0E8
:100FD80000AFF860B9607A60FB6803F00703FB6153
:100FE800FB69C3F10703042B28BF0423BB61FB691A
:100FF8000433062B02D9FB69033B00E000237B6125
:101008004FF0FF32BB6902FA03F3DA43BB681A40B8
:101018007B699A404FF0FF317B6901FA03F3D943AA
:101028007B680B40134318462437BD465DF8047BA4
:101038007047000080B582B000AF78607B68013BE4
:10104800B3F1807F01D301230FE00A4A7B68013B9B
:1010580053600F214FF0FF30FFF78EFF054B002242
:101068009A60044B07221A60002318460837BD46C9
:1010780080BD00BF10E000E080B582B000AF7860AE
:101088007868FFF729FF00BF0837BD4680BD80B5E7
:1010980086B000AF0346B9607A60FB7300237B61BA
:1010A800FFF73EFF78617A68B9687869FFF78EFFC5
:1010B800024697F90F3011461846FFF75DFF00BF4B
:1010C8001837BD4680BD80B582B000AF0346FB71BE
:1010D80097F907301846FFF731FF00BF0837BD46BC
:1010E80080BD80B582B000AF78607868FFF7A2FF56
:1010F800034618460837BD4680BD000080B586B057
:1011080000AF786000237B61FFF7DAFE38617B6807
:10111800002B01D1012399E07B68022283F8352056
:101128007B68002283F834207B681B681A687B6818
:101138001B6822F001021A600FE0FFF7C1FE0246A9
:101148003B69D31A052B08D97B6820225A657B682E
:10115800032283F83520032378E07B681B681B682B
:1011680003F00103002BE8D17B681B681B687B61D7
:101178007A69384B13407B617B685A687B689B6847
:101188001A437B68DB681A437B681B691A437B68D0
:101198005B691A437B689B691A437B68DB691A435E
:1011A8007B681B6A13437A6913437B617B685B6ABC
:1011B800042B07D17B68DA6A7B681B6B13437A6957
:1011C80013437B617B681B687A691A607B681B68BC
:1011D8005B697B617B6923F007037B617B685B6AE2
:1011E8007A6913437B617B685B6A042B17D17B6840
:1011F8009B6A7A6913437B617B68DB6A002B0ED09C
:10120800786800F009FB0346002B08D07B68402271
:101218005A657B68002283F83520012316E07B6835
:101228001B687A695A61786800F0C0FA0346FB6067
:101238007B68DB6D3F229A40FB689A607B680022DE
:101248005A657B68012283F8352000231846183731
:10125800BD4680BD3F8010E080B586B000AFF86025
:10126800B9607A603B600023FB75FB689B6D3B614E
:10127800FB6893F83430012B01D1022348E0FB6866
:10128800012283F83420FB6893F83530DBB2012B58
:1012980037D1FB68022283F83520FB6800225A65A3
:1012A8003B687A68B968F86800F052FAFB68DB6D49
:1012B8003F229A403B699A60FB681B681A68FB6882
:1012C8001B6842F016021A60FB681B685A69FB68C3
:1012D8001B6842F080025A61FB681B6C002B07D028
:1012E800FB681B681A68FB681B6842F008021A60F2
:1012F800FB681B681A68FB681B6842F001021A60E9
:1013080005E0FB68002283F834200223FB75FB7D8F
:1013180018461837BD4680BD80B584B000AF7860E8
:101328007B689B6DFB60FFF7CBFDB8607B6893F82B
:101338003530DBB2022B08D07B6880225A657B6887
:10134800002283F83420012352E07B681B681A6866
:101358007B681B6822F016021A607B681B685A6952
:101368007B681B6822F080025A617B681B6C002B2B
:1013780003D17B689B6C002B07D07B681B681A68BD
:101388007B681B6822F008021A607B681B681A6871
:101398007B681B6822F001021A6013E0FFF790FDDA
:1013A8000246BB68D31A052B0CD97B6820225A65E4
:1013B8007B68032283F835207B68002283F8342079
:1013C800032315E07B681B681B6803F00103002BEF
:1013D800E4D17B68DB6D3F229A40FB689A607B68AA
:1013E800012283F835207B68002283F8342000230B
:1013F80018461037BD4680BD80B483B000AF786012
:101408007B6893F83530DBB2022B04D07B688022EE
:101418005A6501230CE07B68052283F835207B6838
:101428001B681A687B681B6822F001021A60002397
:1014380018460C37BD465DF8047B704780B586B00A
:1014480000AF78600023BB608E4B1B688E4AA2FBFE
:1014580003239B0A7B617B689B6D3B613B691B682F
:10146800FB607B68DB6D08229A40FB681340002B09
:101478001AD07B681B681B6803F00403002B13D089
:101488007B681B681A687B681B6822F004021A6074
:101498007B68DB6D08229A403B699A607B685B6DCC
:1014A80043F001027B685A657B68DB6D01229A4034
:1014B800FB681340002B12D07B681B685B6903F044
:1014C8008003002B0BD07B68DB6D01229A403B69BF
:1014D8009A607B685B6D43F002027B685A657B68A3
:1014E800DB6D04229A40FB681340002B12D07B6806
:1014F8001B681B6803F00203002B0BD07B68DB6DB5
:1015080004229A403B699A607B685B6D43F0040251
:101518007B685A657B68DB6D10229A40FB68134034
:10152800002B43D07B681B681B6803F00803002B63
:101538003CD07B68DB6D10229A403B699A607B68DF
:101548001B681B6803F48023002B18D07B681B687A
:101558001B6803F40023002B08D17B681B6C002B4D
:1015680024D07B681B6C786898471FE07B689B6C6D
:10157800002B1BD07B689B6C7868984716E07B68CB
:101588001B681B6803F48073002B07D17B681B68FA
:101598001A687B681B6822F008021A607B681B6C5B
:1015A800002B03D07B681B6C786898477B68DB6DE1
:1015B80020229A40FB681340002B00F08F807B6844
:1015C8001B681B6803F01003002B00F087807B6802
:1015D800DB6D20229A403B699A607B6893F835302E
:1015E800DBB2052B36D17B681B681A687B681B68E1
:1015F80022F016021A607B681B685A697B681B68B0
:1016080022F080025A617B681B6C002B03D17B6837
:101618009B6C002B07D07B681B681A687B681B686B
:1016280022F008021A607B68DB6D3F229A403B6912
:101638009A607B68012283F835207B68002283F852
:1016480034207B681B6D002B7ED07B681B6D78680F
:10165800984779E07B681B681B6803F48023002B9C
:101668001DD07B681B681B6803F40023002B0DD179
:101678007B685B6C002B31D07B685B6C7868984723
:101688002CE000BF00000020B5814E1B7B68DB6B9F
:10169800002B23D07B68DB6B786898471EE07B685B
:1016A8001B681B6803F48073002B0FD17B681B68D1
:1016B8001A687B681B6822F010021A607B68012296
:1016C80083F835207B68002283F834207B68DB6B45
:1016D800002B03D07B68DB6B786898477B685B6D71
:1016E800002B32D07B685B6D03F00103002B22D006
:1016F8007B68052283F835207B681B681A687B683D
:101708001B6822F001021A60BB680133BB607A696A
:101718009A4207D37B681B681B6803F00103002B00
:10172800F2D100E000BF7B68012283F835207B6896
:10173800002283F834207B68DB6C002B05D07B68A3
:10174800DB6C7868984700E000BF1837BD4680BD5D
:1017580080B485B000AFF860B9607A603B60FB6820
:101768001B681A68FB681B6822F480221A60FB68F1
:101778001B683A685A60FB689B68402B08D1FB6875
:101788001B687A689A60FB681B68BA68DA6007E0C9
:10179800FB681B68BA689A60FB681B687A68DA603D
:1017A80000BF1437BD465DF8047B704780B485B030
:1017B80000AF78607B681B68DBB2103B134AA2FB62
:1017C80003231B09FB60124AFB6813441B781A4663
:1017D8007B68DA65FB68032B08D97B681B681A46A7
:1017E8000C4B13401A1D7B689A6506E07B681B68E2
:1017F8001A46084B13407A6893657B689B6D1846B8
:101808001437BD465DF8047B704700BFABAAAAAA8F
:101818008057000800FCFFFF80B485B000AF7860F7
:101828000023FB737B689B6ABB607B689B69002B0A
:101838001FD1BB68032B56D801A252F823F000BF72
:10184800591800086B18000859180008EF18000804
:101858007B68DB6A03F08073002B46D00123FB739F
:1018680043E07B68DB6AB3F1C07F40D10123FB739F
:101878003DE07B689B69B3F5005F21D1BB68032B12
:1018880037D801A252F823F0A1180008A7180008B9
:10189800A1180008B91800080123FB7330E07B6821
:1018A800DB6A03F08073002B25D00123FB7322E051
:1018B8007B68DB6AB3F1C07F1FD10123FB731CE097
:1018C800BB68022B03D9BB68032B03D018E00123A4
:1018D800FB7315E07B68DB6A03F08073002B0ED086
:1018E8000123FB730BE000BF0AE000BF08E000BF64
:1018F80006E000BF04E000BF02E000BF00E000BF58
:10190800FB7B18461437BD465DF8047B704700BF63
:1019180080B489B000AF786039600023FB61002390
:101928007B6100233B610023BB610023FB6175E100
:101938000122FB6902FA03F37B613B681B687A6941
:1019480013403B613A697B699A4240F064813B6885
:101958005B6803F00303012B05D03B685B6803F069
:101968000303022B30D17B689B68BB61FB695B007A
:10197800032202FA03F3DB43BA691340BB613B68F5
:10198800DA68FB695B0002FA03F3BA691343BB61C7
:101998007B68BA699A607B685B68BB610122FB69F6
:1019A80002FA03F3DB43BA691340BB613B685B6827
:1019B8001B0903F00102FB6902FA03F3BA69134336
:1019C800BB617B68BA695A603B685B6803F00303D4
:1019D800032B17D07B68DB68BB61FB695B000322C4
:1019E80002FA03F3DB43BA691340BB613B689A68A8
:1019F800FB695B0002FA03F3BA691343BB617B68B6
:101A0800BA69DA603B685B6803F00303022B23D1F1
:101A1800FB69DA087B68083253F82230BB61FB693E
:101A280003F007039B000F2202FA03F3DB43BA69B2
:101A38001340BB613B681A69FB6903F007039B000D
:101A480002FA03F3BA691343BB61FB69DA087B68DE
:101A58000832B96943F822107B681B68BB61FB69CF
:101A68005B00032202FA03F3DB43BA691340BB614C
:101A78003B685B6803F00302FB695B0002FA03F34F
:101A8800BA691343BB617B68BA691A603B685B68D3
:101A980003F44033002B00F0BE80664B5B6C654A54
:101AA80043F480435364634B5B6C03F48043FB60F3
:101AB800FB68614AFB699B08023352F82330BB611B
:101AC800FB6903F003039B000F2202FA03F3DB43D5
:101AD800BA691340BB617B68584A934237D07B6828
:101AE800574A934231D07B68564A93422BD07B6841
:101AF800554A934225D07B68544A93421FD07B684D
:101B0800534A934219D07B68524A934213D07B6858
:101B1800514A93420DD07B68504A934207D07B6864
:101B28004F4A934201D1092312E00A2310E0082307
:101B38000EE007230CE006230AE0052308E004234F
:101B480006E0032304E0022302E0012300E000236F
:101B5800FA6902F0030292009340BA691343BB6129
:101B68003549FB699B080233BA6941F823203D4B8C
:101B78009B68BB613B69DB43BA691340BB613B6847
:101B88005B6803F48013002B03D0BA693B691343E5
:101B9800BB61344ABB699360324BDB68BB613B690C
:101BA800DB43BA691340BB613B685B6803F400130D
:101BB800002B03D0BA693B691343BB61294ABB694F
:101BC800D360284B5B68BB613B69DB43BA69134050
:101BD800BB613B685B6803F40033002B03D0BA6930
:101BE8003B691343BB611F4ABB6953601D4B1B68AC
:101BF800BB613B69DB43BA691340BB613B685B6807
:101C080003F48033002B03D0BA693B691343BB61EB
:101C1800144ABB691360FB690133FB61FB690F2B35
:101C28007FF686AE00BF00BF2437BD465DF8047B53
:101C3800704700BF003802400038014000000240F1
:101C48000004024000080240000C0240001002405C
:101C58000014024000180240001C0240002002400C
:101C680000240240003C014080B483B000AF78609B
:101C78000B467B8013467B707B78002B03D07A88D9
:101C88007B689A6103E07B881A047B689A6100BFCD
:101C98000C37BD465DF8047B704780B485B000AF53
:101CA80078600B467B807B685B69FB607A88FB68A1
:101CB80013401A04FB68D9437B880B401A437B689E
:101CC8009A6100BF1437BD465DF8047B7047000079
:101CD80080B582B000AF00237B60234B1B6C224A87
:101CE80043F080531364204B1B6C03F080533B601C
:101CF8003B681E4B1B681D4A43F480331360FFF793
:101D0800DFF8786009E0FFF7DBF802467B68D31A52
:101D1800B3F57A7F01D9032322E0144B5B6803F4FF
:101D28008033B3F5803FEED1104B1B680F4A43F464
:101D380000331360FFF7C4F8786009E0FFF7C0F8D4
:101D480002467B68D31AB3F57A7F01D9032307E0EB
:101D5800064B5B6803F40033B3F5003FEED1002374
:101D680018460837BD4680BD003802400070004064
:101D780080B586B000AF78600023FB757B68002BC8
:101D880001D101239BE27B681B6803F00103002B50
:101D980000F08780964B9B6803F00C03042B0CD053
:101DA800934B9B6803F00C03082B12D1904B5B6894
:101DB80003F48003B3F5800F0BD18D4B1B6803F43C
:101DC8000033002B6CD07B685B68002B68D1012343
:101DD80075E27B685B68B3F5803F06D1844B1B686E
:101DE800834A43F4803313602EE07B685B68002BE2
:101DF8000CD17F4B1B687E4A23F4803313607C4BE5
:101E08001B687B4A23F4802313601DE07B685B68B2
:101E1800B3F5A02F0CD1764B1B68754A43F4802389
:101E28001360734B1B68724A43F4803313600BE0F2
:101E38006F4B1B686E4A23F4803313606C4B1B682E
:101E48006B4A23F4802313607B685B68002B13D0F4
:101E5800FFF736F8386108E0FFF732F802463B69C9
:101E6800D31A642B01D9032329E2614B1B6803F4BD
:101E78000033002BF0D014E0FFF722F8386108E0B7
:101E8800FFF71EF802463B69D31A642B01D90323D6
:101E980015E2574B1B6803F40033002BF0D100E028
:101EA80000BF7B681B6803F00203002B69D0504B0E
:101EB8009B6803F00C03002B0BD04D4B9B6803F081
:101EC8000C03082B1CD14A4B5B6803F48003002BDE
:101ED80016D1474B1B6803F00203002B05D07B6823
:101EE800DB68012B01D00123E9E1414B1B6823F09A
:101EF800F8027B681B69DB003D4913430B6040E037
:101F08007B68DB68002B23D0394B1B68384A43F0C9
:101F180001031360FEF7D4FF386108E0FEF7D0FF35
:101F280002463B69D31A022B01D90323C7E1304B80
:101F38001B6803F00203002BF0D02D4B1B6823F025
:101F4800F8027B681B69DB00294913430B6018E022
:101F5800274B1B68264A23F001031360FEF7B0FFE6
:101F6800386108E0FEF7ACFF02463B69D31A022B42
:101F780001D90323A3E11E4B1B6803F00203002BC6
:101F8800F0D17B681B6803F00803002B38D07B680E
:101F98005B69002B19D0164B5B6F154A43F00103A0
:101FA8005367FEF78DFF386108E0FEF789FF0246A8
:101FB8003B69D31A022B01D9032380E10C4B5B6FD9
:101FC80003F00203002BF0D01AE0094B5B6F084ABC
:101FD80023F001035367FEF773FF38610AE0FEF749
:101FE8006FFF02463B69D31A022B03D9032366E12C
:101FF80000380240924B5B6F03F00203002BEED1D6
:102008007B681B6803F00403002B00F0A4808C4B52
:102018001B6C03F08053002B0DD1894B1B6C884A35
:1020280043F080531364864B1B6C03F08053BB60F2
:10203800BB680123FB75834B1B6803F48073002B7B
:1020480018D1804B1B687F4A43F480731360FEF7F6
:1020580037FF386108E0FEF733FF02463B69D31AC1
:10206800642B01D903232AE1764B1B6803F48073A0
:10207800002BF0D07B689B68012B06D1704B1B6F3F
:102088006F4A43F0010313672DE07B689B68002BC0
:102098000CD16B4B1B6F6A4A23F001031367684B23
:1020A8001B6F674A23F0040313671CE07B689B6877
:1020B800052B0CD1624B1B6F614A43F00403136775
:1020C8005F4B1B6F5E4A43F0010313670BE05C4BE9
:1020D8001B6F5B4A23F001031367594B1B6F584A68
:1020E80023F0040313677B689B68002B15D0FEF769
:1020F800E7FE38610AE0FEF7E3FE02463B69D31AC1
:1021080041F28832934201D90323D8E04C4B1B6F2C
:1021180003F00203002BEED014E0FEF7D1FE386185
:102128000AE0FEF7CDFE02463B69D31A41F2883237
:10213800934201D90323C2E0414B1B6F03F0020312
:10214800002BEED1FB7D012B05D13D4B1B6C3C4A8E
:1021580023F0805313647B689B69002B00F0AE80EA
:10216800374B9B6803F00C03082B6DD07B689B6989
:10217800022B4BD1324B1B68314A23F0807313601A
:10218800FEF79EFE386108E0FEF79AFE02463B69BC
:10219800D31A022B01D9032391E0294B1B6803F0C2
:1021A8000073002BF0D17B68DA697B681B6A1A43DD
:1021B8007B685B6A9B011A437B689B6A5B08013BEF
:1021C8001B041A437B68DB6A1B061A437B681B6B7C
:1021D8001B071B4913434B60194B1B68184A43F0F4
:1021E80080731360FEF76CFE386108E0FEF768FE46
:1021F80002463B69D31A022B01D903235FE0104B37
:102208001B6803F00073002BF0D057E00C4B1B68E1
:102218000B4A23F080731360FEF752FE386108E022
:10222800FEF74EFE02463B69D31A022B01D903235F
:1022380045E0034B1B6803F00073002BF0D13DE031
:1022480000380240007000401F4B5B68FB607B68F1
:102258009B69012B30D0FB6803F480027B68DB6943
:102268009A4229D1FB6803F03F027B681B6A9A42B5
:1022780022D1FA6847F6C07313407A68526A92010D
:10228800934219D1FB6803F440327B689B6A5B0870
:10229800013B1B049A420FD1FB6803F070627B6814
:1022A800DB6A1B069A4207D1FB6803F0E0427B68B1
:1022B8001B6B1B079A4201D0012300E0002318463C
:1022C8001837BD4680BD00BF0038024080B584B0D5
:1022D80000AF786039600023FB607B68002B01D178
:1022E8000123D0E06A4B1B6803F00F033A689A4257
:1022F80010D9674B1B6823F00F0265493B681343ED
:102308000B60634B1B6803F00F033A689A4201D0D5
:102318000123B8E07B681B6803F00203002B20D080
:102328007B681B6803F00403002B05D0594B9B689E
:10233800584A43F4E05393607B681B6803F0080332
:10234800002B05D0534B9B68524A43F4604393607B
:10235800504B9B6823F0F0027B689B684D49134300
:102368008B607B681B6803F00103002B40D07B68FF
:102378005B68012B07D1474B1B6803F40033002B24
:1023880015D101237FE07B685B68022B07D1414BA5
:102398001B6803F00073002B09D1012373E03D4B48
:1023A8001B6803F00203002B01D101236BE0394BBA
:1023B8009B6823F003027B685B68364913438B6094
:1023C800FEF77EFDF8600AE0FEF77AFD0246FB683C
:1023D800D31A41F28832934201D9032353E02D4B9B
:1023E8009B6803F00C027B685B689B009A42EBD108
:1023F800274B1B6803F00F033A689A4210D2244B0C
:102408001B6823F00F0222493B6813430B60204BE3
:102418001B6803F00F033A689A4201D0012332E0A7
:102428007B681B6803F00403002B08D0194B9B68DA
:1024380023F4E0527B68DB68164913438B607B68A2
:102448001B6803F00803002B09D0124B9B6823F488
:1024580060427B681B69DB000E4913438B6000F008
:1024680021F802460B4B9B681B0903F00F030A492E
:10247800CB5C22FA03F3094A1360094B1B68184620
:10248800FEF7DAFC002318461037BD4680BD00BFB2
:10249800003C024000380240685700080000002055
:1024A800080000202DE9B04F90B000AF00237B63F7
:1024B8000023FB6300233B630023BB63594B9B68EA
:1024C80003F00C03082B0DD0082B00F2A180002B81
:1024D80002D0042B03D09BE0534BBB639BE0534BD0
:1024E800BB6398E04F4B5B6803F03F037B634D4B46
:1024F8005B6803F48003002B28D04A4B5B689B0978
:1025080000223B627A623B6AC3F308000021474B12
:1025180003FB01F2002300FB03F31344434AA0FB2F
:102528000212FA620A46BA62FA6A1344FB627B6BC9
:102538000022BB61FA61D7E90623D7E90A01FDF752
:1025480077FE02460B461346FB6353E0354B5B6848
:102558009B0900223B617A613B69C3F3080A4FF08B
:10256800000B52465B464FF000004FF00001590146
:1025780041EAD261500102460B46B2EB0A0863EB0E
:102588000B094FF000024FF000034FEA891343EAAA
:1025980098634FEA8812B2EB080463EB09054FF021
:1025A80000024FF00003EB0043EA5473E2001446C4
:1025B8001D4614EB0A033B6045EB0B037B604FF0B1
:1025C80000024FF00003D7E9004529468B02214657
:1025D80043EA915321468A02104619467B6B002232
:1025E800BB60FA60D7E90223FDF722FE02460B46DC
:1025F8001346FB630B4B5B681B0C03F003030133AF
:102608005B003B63FA6B3B6BB2FBF3F3BB6302E02B
:10261800054BBB6300BFBB6B18464037BD46BDE8E2
:10262800B08F00BF003802400024F40040787D01DC
:1026380080B400AF034B1B681846BD465DF8047BA9
:10264800704700BF0000002080B500AFFFF7F0FF23
:102658000246054B9B689B0A03F007030349CB5CC2
:1026680022FA03F3184680BD003802407857000864
:1026780080B500AFFFF7DCFF0246054B9B685B0B9C
:1026880003F007030349CB5C22FA03F3184680BD25
:10269800003802407857000880B588B000AF7860ED
:1026A80000237B6100233B610023FB600023FB6167
:1026B8000023BB617B681B6803F00103002B12D069
:1026C800694B9B68684A23F400039360664B9A68D9
:1026D8007B685B6B644913438B607B685B6B002B87
:1026E80001D10123FB617B681B6803F40023002BE5
:1026F80017D05D4BD3F88C3023F440127B68DB6B2A
:1027080059491343C1F88C307B68DB6BB3F5801FE4
:1027180001D10123FB617B68DB6B002B01D1012315
:10272800BB617B681B6803F48013002B17D04E4BEA
:10273800D3F88C3023F440027B681B6C4A4913435E
:10274800C1F88C307B681B6CB3F5800F01D1012375
:10275800FB617B681B6C002B01D10123BB617B688B
:102768001B6803F08073002B01D00123FB617B6899
:102778001B6803F02003002B00F08B803A4B1B6C86
:10278800394A43F080531364374B1B6C03F0805372
:10279800BB60BB68354B1B68344A43F480731360D5
:1027A800FEF78EFB786108E0FEF78AFB02467B693C
:1027B800D31A642B01D903238FE32C4B1B6803F432
:1027C8008073002BF0D0284B1B6F03F440733B61E0
:1027D8003B69002B35D07B681B6B03F440733A6967
:1027E8009A422ED0204B1B6F23F440733B611E4B43
:1027F8001B6F1D4A43F4803313671B4B1B6F1A4A28
:1028080023F480331367184A3B691367164B1B6F11
:1028180003F00103012B14D1FEF752FB78610AE0A3
:10282800FEF74EFB02467B69D31A41F28832934287
:1028380001D9032351E30C4B1B6F03F00203002B58
:10284800EED07B681B6B03F44073B3F5407F11D166
:10285800054B9B6823F4F8127B68196B044B0B40FB
:10286800014913438B600BE00038024000700040C0
:10287800FFFCFF0FAC4B9B68AB4A23F4F813936043
:10288800A94B1A6F7B681B6BC3F30B03A649134351
:102898000B677B681B6803F01003002B10D0A24B5A
:1028A800D3F88C30A04A23F08073C2F88C309E4B4A
:1028B800D3F88C207B689B6B9B491343C1F88C3001
:1028C8007B681B6803F48043002B0AD0964BD3F82F
:1028D800903023F440327B685B6E93491343C1F810
:1028E80090307B681B6803F40043002B0AD08E4BA2
:1028F800D3F8903023F440227B689B6E8A491343B7
:10290800C1F890307B681B6803F48033002B0AD031
:10291800854BD3F8903023F440127B68DB6E8249F4
:102928001343C1F890307B681B6803F40033002B15
:102938000AD07D4BD3F8903023F440027B681B6F9C
:1029480079491343C1F890307B681B6803F0400352
:10295800002B0AD0744BD3F8903023F003027B6825
:102968005B6C71491343C1F890307B681B6803F0B6
:102978008003002B0AD06C4BD3F8903023F00C0264
:102988007B689B6C68491343C1F890307B681B686F
:1029980003F48073002B0AD0634BD3F8903023F0F4
:1029A80030027B68DB6C60491343C1F890307B6868
:1029B8001B6803F40073002B0AD05B4BD3F89030EC
:1029C80023F0C0027B681B6D57491343C1F8903050
:1029D8007B681B6803F48063002B0AD0524BD3F842
:1029E800903023F440727B685B6D4F491343C1F804
:1029F80090307B681B6803F40063002B0AD04A4BB5
:102A0800D3F8903023F440627B689B6D46491343AA
:102A1800C1F890307B681B6803F48053002B0AD000
:102A2800414BD3F8903023F440527B68DB6D3E492C
:102A38001343C1F890307B681B6803F40053002BE4
:102A48000AD0394BD3F8903023F440427B681B6E90
:102A580035491343C1F890307B681B6803F4800341
:102A6800002B0AD0304BD3F8903023F080627B687B
:102A78009B6F2D491343C1F890307B681B6803F4A2
:102A88000013002B11D0284BD3F8903023F00062AC
:102A98007B68DB6F24491343C1F890307B68DB6F98
:102AA800B3F1006F01D10123BB617B681B6803F0A0
:102AB8000803002B01D00123BB617B681B6803F46A
:102AC8008023002B0AD0184BD3F8903023F04072A3
:102AD8007B685B6F14491343C1F890307B681B68AF
:102AE80003F40003002B0BD00F4BD3F8903023F0E6
:102AF80080527B68D3F880300B491343C1F890307B
:102B08007B681B6803F08063002B0FD0064BD3F85B
:102B1800903023F000527B68D3F884300249134385
:102B2800C1F8903002E000BF003802407B681B68A3
:102B380003F00063002B0BD08A4BD3F88C3023F0C2
:102B480000727B68D3F8883086491343C1F88C300B
:102B58007B681B6803F08053002B0BD0814BD3F8A4
:102B68008C3023F080627B68D3F88C307D49134326
:102B7800C1F88C30FB69012B06D07B681B6803F019
:102B88000073002B00F0D680764B1B68754A23F043
:102B980080631360FEF794F9786108E0FEF790F916
:102BA80002467B69D31A642B01D9032395E16D4B47
:102BB8001B6803F00063002BF0D17B681B6803F0EF
:102BC8000103002B21D07B685B6B002B1DD1654B6B
:102BD800D3F884301B0C03F003033B61614BD3F83B
:102BE80084301B0E03F00F03FB607B685B689A015F
:102BF8003B691B041A43FB681B061A437B689B68E6
:102C08001B0758491343C1F884307B681B6803F4D9
:102C18000023002B04D07B68DB6BB3F5801F0AD040
:102C28007B681B6803F48013002B2ED07B681B6C19
:102C3800B3F5800F29D14B4BD3F884301B0C03F02C
:102C480003033B61474BD3F884301B0F03F00703A2
:102C5800FB607B685B689A013B691B041A437B68CD
:102C6800DB681B061A43FB681B073E491343C1F880
:102C780084303C4BD3F88C3023F01F027B685B6AAE
:102C8800013B38491343C1F88C307B681B6803F05B
:102C98008073002B1DD0334BD3F884301B0E03F008
:102CA8000F033B612F4BD3F884301B0F03F007034E
:102CB800FB607B685B689A017B681B691B041A438D
:102CC8003B691B061A43FB681B0726491343C1F8D7
:102CD80084307B681B6803F00073002B11D07B687D
:102CE8005B689A017B681B691B041A437B68DB6875
:102CF8001B061A437B689B681B071A491343C1F8D4
:102D08008430184B1B68174A43F080631360FEF742
:102D1800D7F8786108E0FEF7D3F802467B69D31A42
:102D2800642B01D90323D8E00E4B1B6803F0006322
:102D3800002BF0D0BB69012B40F0CE80094B1B68FB
:102D4800084A23F080531360FEF7BAF878610BE065
:102D5800FEF7B6F802467B69D31A642B04D903231D
:102D6800BBE000BF003802405E4B1B6803F0005315
:102D7800B3F1005FECD07B681B6803F40023002BE1
:102D880003D07B68DB6B002B09D07B681B6803F4DE
:102D98008013002B2ED07B681B6C002B2AD1514B43
:102DA800D3F888301B0C03F003033B614D4BD3F879
:102DB80088301B0F03F00703FB607B685B699A018F
:102DC8003B691B041A437B689B691B061A43FB6813
:102DD8001B0744491343C1F88830424BD3F88C3061
:102DE80023F4F8527B689B6A013B1B023D4913435D
:102DF800C1F88C307B681B6803F40013002B22D0C9
:102E08007B68DB6FB3F1006F1DD1364BD3F8883088
:102E18001B0E03F00F033B61324BD3F888301B0FB6
:102E280003F00703FB607B685B699A017B681B6A98
:102E38001B041A433B691B061A43FB681B072949F5
:102E48001343C1F888307B681B6803F00803002B24
:102E580028D0244BD3F888301B0E03F00F033B61B6
:102E6800204BD3F888301B0C03F00303FB607B680E
:102E78005B699A01FB681B041A433B691B061A43EA
:102E88007B68DB691B0717491343C1F88830154B6A
:102E9800D3F88C3023F440327B68DB6A1149134342
:102EA800C1F88C300F4B1B680E4A43F080531360F7
:102EB800FEF706F8786108E0FEF702F802467B693B
:102EC800D31A642B01D9032307E0064B1B6803F0D0
:102ED8000053B3F1005FEFD1002318462037BD46F9
:102EE80080BD00BF0038024080B582B000AF786076
:102EF8007B68002B01D1012349E07B6893F83D30C2
:102F0800DBB2002B06D17B68002283F83C2078686E
:102F1800FDF7E8FD7B68022283F83D207B681A688C
:102F28007B6804331946104600F070F97B6801226B
:102F380083F848207B68012283F83E207B680122C1
:102F480083F83F207B68012283F840207B680122B8
:102F580083F841207B68012283F842207B680122A4
:102F680083F843207B68012283F844207B68012290
:102F780083F845207B68012283F846207B6801227C
:102F880083F847207B68012283F83D2000231846F8
:102F98000837BD4680BD000080B485B000AF7860BA
:102FA8007B6893F83D30DBB2012B01D001234CE064
:102FB8007B68022283F83D207B681B68264A93427F
:102FC80022D07B681B68B3F1804F1DD07B681B68DB
:102FD800224A934218D07B681B68214A934213D037
:102FE8007B681B681F4A93420ED07B681B681E4A89
:102FF800934209D07B681B681C4A934204D07B68C3
:103008001B681B4A934215D17B681B689A68194B49
:103018001340FB60FB68062B15D0FB68B3F5803FB7
:1030280011D07B681B681A687B681B6842F0010234
:103038001A6008E07B681B681A687B681B6842F0A6
:1030480001021A6000E000BF002318461437BD468D
:103058005DF8047B704700BF000001400004004099
:1030680000080040000C00400004014000400140FE
:10307800001800400700010080B584B000AF7860F8
:1030880039600023FB737B6893F83C30012B01D136
:103098000223B4E07B68012283F83C207B6802228B
:1030A80083F83D207B681B689B68BB60BA68564BF9
:1030B8001340BB60BB6823F47F43BB607B681B681D
:1030C800BA689A603B681B68B3F5005F3ED0B3F5F9
:1030D800005F00F28780B3F5805F00F08680B3F56B
:1030E800805F7FD8702B1AD0702B7BD8602B50D084
:1030F800602B77D8502B3CD0502B73D8402B58D00E
:10310800402B6FD8302B64D0302B6BD8202B60D05D
:10311800202B67D8002B5CD0102B5AD062E07B683C
:1031280018683B6899683B685A683B68DB6800F038
:1031380093F97B681B689B68BB60BB6843F07703A7
:10314800BB607B681B68BA689A604FE07B68186848
:103158003B6899683B685A683B68DB6800F07CF913
:103168007B681B689A687B681B6842F480429A6097
:103178003CE07B6818683B6859683B68DB681A461E
:1031880000F0F0F87B681B685021184600F049F9F8
:103198002CE07B6818683B6859683B68DB681A460E
:1031A80000F00FF97B681B686021184600F039F9B8
:1031B8001CE07B6818683B6859683B68DB681A46FE
:1031C80000F0D0F87B681B684021184600F029F908
:1031D8000CE07B681A683B681B681946104600F0CB
:1031E80020F903E00123FB7300E000BF7B680122A4
:1031F80083F83D207B68002283F83C20FB7B18463F
:103208001037BD4680BD00BF88FFFEFF80B485B083
:1032180000AF786039607B681B68FB607B68464A52
:10322800934213D07B68B3F1804F0FD07B68434A39
:1032380093420BD07B68424A934207D07B68414A4D
:10324800934203D07B68404A934208D1FB6823F03D
:103258007003FB603B685B68FA681343FB607B683C
:10326800354A93422BD07B68B3F1804F27D07B68D7
:10327800324A934223D07B68314A93421FD07B68FD
:10328800304A93421BD07B682F4A934217D07B6801
:103298002E4A934213D07B682D4A93420FD07B6805
:1032A8002C4A93420BD07B682B4A934207D07B6809
:1032B8002A4A934203D07B68294A934208D1FB6883
:1032C80023F44073FB603B68DB68FA681343FB60D8
:1032D800FB6823F080023B685B691343FB607B68F3
:1032E800FA681A603B689A687B68DA623B681A6811
:1032F8007B689A627B68104A934203D07B68124AC3
:10330800934203D13B681A697B681A637B68012280
:103318005A617B681B6903F00103012B05D17B68A7
:103328001B6923F001027B681A6100BF1437BD4690
:103338005DF8047B704700BF0000014000040040B6
:1033480000080040000C004000040140004001401B
:10335800004401400048014000180040001C0040A3
:103368000020004080B487B000AFF860B9607A6090
:10337800FB681B6A7B61FB681B6A23F00102FB6820
:103388001A62FB689B693B613B6923F0F0033B6170
:103398007B681B013A6913433B617B6923F00A038D
:1033A8007B617A69BB6813437B61FB683A699A6100
:1033B800FB687A691A6200BF1C37BD465DF8047B5A
:1033C800704780B487B000AFF860B9607A60FB6876
:1033D8001B6A7B61FB681B6A23F01002FB681A6298
:1033E800FB689B693B613B6923F470433B617B68E5
:1033F8001B033A6913433B617B6923F0A0037B619C
:10340800BB681B017A6913437B61FB683A699A615F
:10341800FB687A691A6200BF1C37BD465DF8047BF9
:10342800704780B485B000AF786039607B689B686E
:10343800FB60FB6823F07003FB603A68FB6813438A
:1034480043F00703FB607B68FA689A6000BF143793
:10345800BD465DF8047B704780B487B000AFF86064
:10346800B9607A603B60FB689B687B617B6923F489
:103478007F437B613B681A027B681A43BB6813432E
:103488007A6913437B61FB687A699A6000BF1C37CD
:10349800BD465DF8047B704780B485B000AF7860A6
:1034A80039607B6893F83C30012B01D102236DE031
:1034B8007B68012283F83C207B68022283F83D2048
:1034C8007B681B685B68FB607B681B689B68BB60EC
:1034D8007B681B68304A934204D07B681B682F4A7C
:1034E800934208D1FB6823F47003FB603B685B6878
:1034F800FA681343FB60FB6823F07003FB603B68CA
:103508001B68FA681343FB607B681B68FA685A609B
:103518007B681B68204A934222D07B681B68B3F102
:10352800804F1DD07B681B681D4A934218D07B686A
:103538001B681C4A934213D07B681B681A4A934243
:103548000ED07B681B68154A934209D07B681B68BC
:10355800164A934204D07B681B68154A93420CD1E3
:10356800BB6823F08003BB603B689B68BA68134361
:10357800BB607B681B68BA689A607B68012283F825
:103588003D207B68002283F83C200023184614372E
:10359800BD465DF8047B704700000140000401400F
:1035A8000004004000080040000C004000400140BA
:1035B8000018004080B582B000AF78607B68002BAF
:1035C80001D1012340E07B68DB6F002B06D17B68CB
:1035D800002283F878207868FDF7FEFA7B682422B9
:1035E800DA677B681B681A687B681B6822F001022F
:1035F8001A607B685B6A002B02D0786800F06CFE6A
:10360800786800F005FC0346012B01D101231BE07B
:103618007B681B685A687B681B6822F490425A6072
:103628007B681B689A687B681B6822F02A029A608C
:103638007B681B681A687B681B6842F001021A6085
:10364800786800F0EBFE034618460837BD4680BD93
:1036580080B58AB002AFF860B9603B601346FB8062
:10366800FB68DB6F202B77D1BB68002B02D0FB886F
:10367800002B01D1012370E0FB680022C3F88420ED
:10368800FB682122DA67FDF71BFC7861FB68FA8882
:10369800A3F85020FB68FA88A3F85220FB689B68BF
:1036A800B3F5805F08D1FB681B69002B04D10023A8
:1036B800FB61BB68BB6103E0BB68FB610023BB61C6
:1036C8002FE03B6800937B6900228021F86800F0B6
:1036D8004DFF0346002B04D0FB682022DA67032342
:1036E8003BE0FB69002B0BD1BB691B881A46FB68C2
:1036F8001B68C2F308029A62BB690233BB6107E028
:10370800FB691A78FB681B689A62FB690133FB61E5
:10371800FB68B3F852309BB2013B9AB2FB68A3F83E
:103728005220FB68B3F852309BB2002BC9D13B68DA
:1037380000937B6900224021F86800F017FF0346D8
:10374800002B04D0FB682022DA67032305E0FB681E
:103758002022DA67002300E0022318462037BD46FE
:1037680080BD80B58AB000AFF860B9601346FB80B1
:10377800FB68D3F88030202B32D1BB68002B02D0F5
:10378800FB88002B01D101232BE0FB6800221A667D
:10379800FB681B685B6803F40003002B18D0FB6808
:1037A8001B687B617B6953E8003F3B613B6943F0E1
:1037B80080637B62FB681B681A467B6A3B62FA611E
:1037C800F9693A6A41E80023BB61BB69002BE6D17D
:1037D800FB881A46B968F86800F036FF034600E02F
:1037E800022318462837BD4680BD000080B5BAB010
:1037F80000AF78607B681B68DB69C7F8E4307B68DA
:103808001B681B68C7F8E0307B681B689B68C7F8B3
:10381800DC30D7F8E42040F60F031340C7F8D8305F
:10382800D7F8D830002B15D1D7F8E43003F02003AF
:10383800002B0FD0D7F8E03003F02003002B09D07D
:103848007B689B6E002B00F0AC827B689B6E78686F
:103858009847A6E2D7F8D830002B00F01781D7F8A0
:10386800DC3003F00103002B06D1D7F8E020854BAC
:103878001340002B00F00A81D7F8E43003F001036D
:10388800002B11D0D7F8E03003F48073002B0BD055
:103898007B681B6801221A627B68D3F8843043F086
:1038A80001027B68C3F88420D7F8E43003F00203F0
:1038B800002B11D0D7F8DC3003F00103002B0BD01C
:1038C8007B681B6802221A627B68D3F8843043F055
:1038D80004027B68C3F88420D7F8E43003F00403BB
:1038E800002B11D0D7F8DC3003F00103002B0BD0EC
:1038F8007B681B6804221A627B68D3F8843043F023
:1039080002027B68C3F88420D7F8E43003F0080388
:10391800002B17D0D7F8E03003F02003002B05D197
:10392800D7F8DC3003F00103002B0BD07B681B6851
:1039380008221A627B68D3F8843043F008027B6857
:10394800C3F88420D7F8E43003F40063002B12D0C6
:10395800D7F8E03003F08063002B0CD07B681B683D
:103968004FF400621A627B68D3F8843043F0200277
:103978007B68C3F884207B68D3F88430002B00F080
:103988001282D7F8E43003F02003002B0DD0D7F8CB
:10399800E03003F02003002B07D07B689B6E002BE0
:1039A80003D07B689B6E786898477B68D3F884302F
:1039B800C7F8D4307B681B689B6803F04003402B32
:1039C80005D0D7F8D43003F02803002B4FD07868FF
:1039D80000F000FF7B681B689B6803F04003402BE6
:1039E80041D17B681B680833C7F89C30D7F89C30F6
:1039F80053E8003FC7F89830D7F8983023F04003D1
:103A0800C7F8D0307B681B680833D7F8D020C7F8D0
:103A1800A820C7F8A430D7F8A410D7F8A82041E800
:103A28000023C7F8A030D7F8A030002BD9D17B6885
:103A38005B6F002B13D07B685B6F134A1A657B683A
:103A48005B6F1846FDF7D8FC0346002B17D07B6840
:103A58005B6F1B6D7A68526F104698470FE0786865
:103A6800FDF792F90BE07868FDF78EF907E07868C2
:103A7800FDF78AF97B680022C3F8842093E100BF30
:103A880091E100BF20010004894A00087B681B6E91
:103A9800012B40F04C81D7F8E43003F01003002BE1
:103AA80000F04581D7F8E03003F01003002B00F058
:103AB8003E817B681B6810221A627B681B689B68C2
:103AC80003F04003402B40F0B6807B685B6F1B68B7
:103AD8005B68A7F8BE30B7F8BE30002B00F06581F0
:103AE8007B68B3F85830B7F8BE209A4280F05D8101
:103AF8007B68B7F8BE20A3F85A207B685B6FDB6948
:103B0800B3F5807F00F086807B681B68C7F8883033
:103B1800D7F8883053E8003FC7F88430D7F88430A6
:103B280023F48073C7F8B8307B681B681A46D7F847
:103B3800B830C7F89430C7F89020D7F89010D7F865
:103B4800942041E80023C7F88C30D7F88C30002B3C
:103B5800DAD17B681B6808337B677B6F53E8003FCB
:103B68003B673B6F23F00103C7F8B4307B681B68E1
:103B78000833D7F8B420C7F88020FB67F96FD7F867
:103B8800802041E80023BB67BB6F002BE1D17B6835
:103B98001B6808333B663B6E53E8003FFB65FB6DD3
:103BA80023F04003C7F8B0307B681B680833D7F8A8
:103BB800B020FA66BB66B96EFA6E41E800237B66F0
:103BC8007B6E002BE3D17B682022C3F880207B68C2
:103BD80000221A667B681B68FB64FB6C53E8003F95
:103BE800BB64BB6C23F01003C7F8AC307B681B6860
:103BF8001A46D7F8AC30BB657A65796DBA6D41E87D
:103C080000233B653B6D002BE4D17B685B6F184656
:103C1800FDF782FB7B6802225A667B68B3F858205E
:103C28007B68B3F85A309BB2D31A9BB219467868AE
:103C380000F0D8F8B9E07B68B3F858207B68B3F88F
:103C48005A309BB2D31AA7F8CE307B68B3F85A30F3
:103C58009BB2002B00F0AB80B7F8CE30002B00F001
:103C6800A6807B681B68BB63BB6B53E8003F7B6324
:103C78007B6B23F49073C7F8C8307B681B681A46BF
:103C8800D7F8C8307B643A64396C7A6C41E8002311
:103C9800FB63FB6B002BE4D17B681B6808337B62FA
:103CA8007B6A53E8003F3B623B6A23F00103C7F895
:103CB800C4307B681B680833D7F8C4203A63FB62BA
:103CC800F96A3A6B41E80023BB62BB6A002BE3D177
:103CD8007B682022C3F880207B6800221A667B68F4
:103CE80000229A667B681B683B613B6953E8003F8A
:103CF800FB60FB6823F01003C7F8C0307B681B68C3
:103D08001A46D7F8C030FB61BA61B969FA6941E867
:103D180000237B617B69002BE4D17B6802225A6611
:103D2800B7F8CE301946786800F05CF83FE0D7F86D
:103D3800E43003F48013002B0ED0D7F8DC3003F402
:103D48008003002B08D07B681B684FF480121A622E
:103D5800786800F053F82DE0D7F8E43003F08003DA
:103D6800002B0ED0D7F8E03003F08003002B08D0EA
:103D78007B68DB6E002B1CD07B68DB6E786898470D
:103D880017E0D7F8E43003F04003002B12D0D7F83F
:103D9800E03003F04003002B0CD0786800F086FE7A
:103DA80008E000BF06E000BF04E000BF02E000BF7B
:103DB80000E000BFE837BD4680BD00BF80B483B0D7
:103DC80000AF786000BF0C37BD465DF8047B7047D4
:103DD80080B483B000AF786000BF0C37BD465DF893
:103DE800047B704780B483B000AF78600B467B805B
:103DF80000BF0C37BD465DF8047B704780B483B0C4
:103E080000AF786000BF0C37BD465DF8047B704793
:103E180080B588B000AF78600023BB777B689A686C
:103E28007B681B691A437B685B691A437B68DB699B
:103E380013437B617B681B681A68A64B13407A683A
:103E4800126879690B4313607B681B685B6823F40D
:103E580040517B68DA687B681B680A435A607B6854
:103E68009B697B617B681B6A7A6913437B617B680A
:103E78001B689B6823F430617B681B687A690A4376
:103E88009A607B681B68944A934220D1934BD3F87D
:103E9800903003F00303032B16D801A252F823F045
:103EA800B93E0008C53E0008BF3E0008CB3E0008EA
:103EB8000123FB7750E10223FB774DE10423FB77D5
:103EC8004AE10823FB7747E11023FB7744E17B684D
:103ED8001B68834A934232D1804BD3F8903003F069
:103EE8000C030C2B28D801A252F823F0293F000814
:103EF800413F0008413F0008413F0008353F0008A6
:103F0800413F0008413F0008413F00082F3F00089B
:103F1800413F0008413F0008413F00083B3F00087F
:103F28000023FB7718E10223FB7715E10423FB77D5
:103F380012E10823FB770FE11023FB770CE17B6884
:103F48001B68684A934220D1644BD3F8903003F041
:103F58003003302B13D0302B14D8202B09D0202B32
:103F680010D8002B02D0102B06D00BE00023FB77D3
:103F7800F2E00223FB77EFE00423FB77ECE0082371
:103F8800FB77E9E01023FB77E6E07B681B68564A7D
:103F9800934220D1514BD3F8903003F0C003C02B8B
:103FA80013D0C02B14D8802B09D0802B10D8002B0D
:103FB80002D0402B06D00BE00023FB77CCE0022395
:103FC800FB77C9E00423FB77C6E00823FB77C3E04F
:103FD8001023FB77C0E07B681B68444A934225D1D5
:103FE8003E4BD3F8903003F44073B3F5407F17D0BD
:103FF800B3F5407F17D8B3F5007F0BD0B3F5007F3A
:1040080011D8002B03D0B3F5807F06D00BE0002336
:10401800FB77A1E00223FB779EE00423FB779BE07C
:104028000823FB7798E01023FB7795E07B681B68F3
:104038002F4A934225D1294BD3F8903003F440639B
:10404800B3F5406F17D0B3F5406F17D8B3F5006FCD
:104058000BD0B3F5006F11D8002B03D0B3F5806FE8
:1040680006D00BE00123FB7776E00223FB7773E0B1
:104078000423FB7770E00823FB776DE01023FB77C0
:104088006AE07B681B681B4A934238D1134BD3F80C
:10409800903003F44053B3F5405F17D0B3F5405F59
:1040A8002AD8B3F5005F0BD0B3F5005F24D8002BF6
:1040B80003D0B3F5805F06D01EE00023FB774BE00A
:1040C8000223FB7748E00423FB7745E00823FB77CE
:1040D80042E000BFF369FFEF0010014000380240E2
:1040E8000044004000480040004C004000500040A0
:1040F80000140140007800401023FB772CE07B6817
:104108001B68724A934225D1714BD3F8903003F45F
:104118004043B3F5404F17D0B3F5404F17D8B3F528
:10412800004F0BD0B3F5004F11D8002B03D0B3F5D7
:10413800804F06D00BE00023FB770DE00223FB77CE
:104148000AE00423FB7707E00823FB7704E0102349
:10415800FB7701E01023FB777B68DB69B3F5004F41
:104168005BD1FB7F082B28D801A252F823F000BFAF
:104178009D410008A5410008AD410008C341000861
:10418800B3410008C3410008C3410008C341000807
:10419800BB410008FEF758FAB86113E0FEF768FA69
:1041A800B8610FE04B4BBB610CE0FEF77BF9B861DF
:1041B80008E04FF40043BB6104E00023BB61012326
:1041C800BB7700BFBB69002B74D0BB695A007B6802
:1041D8005B685B081A447B685B68B2FBF3F33B617E
:1041E8003B690F2B16D93B69B3F5803F12D23B6967
:1041F8009BB223F00F03FB813B695B089BB203F082
:1042080007039AB2FB891343FB817B681B68FA8911
:10421800DA604FE00123BB774CE0FB7F082B28D8FE
:1042280001A252F823F000BF554200085D42000881
:10423800654200087B4200086B4200087B42000888
:104248007B4200087B42000873420008FEF7FCF935
:10425800B86113E0FEF70CFAB8610FE01D4BBB61C3
:104268000CE0FEF71FF9B86108E04FF40043BB61AA
:1042780004E00023BB610123BB7700BFBB69002BAF
:1042880018D07B685B685A08BB691A447B685B680E
:10429800B2FBF3F33B613B690F2B09D93B69B3F5DB
:1042A800803F05D23B699AB27B681B68DA6001E0FF
:1042B8000123BB777B6800229A667B680022DA6656
:1042C800BB7F18462037BD4680BD00BF007C00403C
:1042D800003802400024F40080B483B000AF786056
:1042E8007B685B6A03F00803002B0AD07B681B68B5
:1042F8005B6823F400417B685A6B7B681B680A4340
:104308005A607B685B6A03F00103002B0AD07B6864
:104318001B685B6823F400317B689A6A7B681B68BA
:104328000A435A607B685B6A03F00203002B0AD0D9
:104338007B681B685B6823F480317B68DA6A7B687A
:104348001B680A435A607B685B6A03F00403002B0E
:104358000AD07B681B685B6823F480217B681A6B32
:104368007B681B680A435A607B685B6A03F010032A
:10437800002B0AD07B681B689B6823F480517B68FC
:104388009A6B7B681B680A439A607B685B6A03F0D8
:104398002003002B0AD07B681B689B6823F400511C
:1043A8007B68DA6B7B681B680A439A607B685B6A88
:1043B80003F04003002B1AD07B681B685B6823F46A
:1043C80080117B681A6C7B681B680A435A607B689B
:1043D8001B6CB3F5801F0AD17B681B685B6823F4EC
:1043E800C0017B685A6C7B681B680A435A607B680B
:1043F8005B6A03F08003002B0AD07B681B685B684C
:1044080023F400217B689A6C7B681B680A435A6016
:1044180000BF0C37BD465DF8047B704780B598B087
:1044280002AF78607B680022C3F88420FCF748FD5F
:1044380078657B681B681B6803F00803082B2ED17E
:104448006FF07E4300937B6D00224FF40011786873
:1044580000F08CF80346002B21D07B681B68BB63F7
:10446800BB6B53E8003F7B637B6B23F080033B65AA
:104478007B681B681A463B6D7B643A64396C7A6CBE
:1044880041E80023FB63FB6B002BE6D17B6820220D
:10449800DA677B68002283F87820032362E07B6870
:1044A8001B681B6803F00403042B49D16FF07E439B
:1044B80000937B6D00224FF48001786800F056F875
:1044C8000346002B3CD07B681B687B627B6A53E801
:1044D800003F3B623B6A23F49073FB647B681B6874
:1044E8001A46FB6C3B63FA62F96A3A6B41E80023AF
:1044F800BB62BB6A002BE6D17B681B6808333B6153
:104508003B6953E8003FFB60FB6823F00103BB6491
:104518007B681B680833BA6CFA61BB61B969FA69D0
:1045280041E800237B617B69002BE5D17B68202271
:10453800C3F880207B68002283F87820032311E0E9
:104548007B682022DA677B682022C3F880207B689A
:1045580000221A667B6800225A667B68002283F86C
:104568007820002318465837BD4680BD80B584B0F2
:1045780000AFF860B9603B601346FB714FE0BB6960
:10458800B3F1FF3F4BD0FCF79BFC02463B68D31AC4
:10459800BA699A4202D3BB69002B01D103234EE0CA
:1045A800FB681B681B6803F00403002B37D0BB684B
:1045B800802B34D0BB68402B31D0FB681B68DB698B
:1045C80003F00803082B10D1FB681B6808221A6245
:1045D800F86800F0FFF8FB680822C3F88420FB683D
:1045E800002283F87820012329E0FB681B68DB6937
:1045F80003F40063B3F5006F11D1FB681B684FF437
:1046080000621A62F86800F0E5F8FB682022C3F837
:104618008420FB68002283F8782003230FE0FB68DE
:104628001B68DA69BB681340BA689A420CBF012359
:104638000023DBB21A46FB799A42A0D00023184621
:104648001037BD4680BD000080B596B000AFF86059
:10465800B9601346FB80FB68BA685A65FB68FA883C
:10466800A3F85820FB680022C3F88420FB682222A4
:10467800C3F88020FB685B6F002B28D0FB685B6F5A
:104688003E4ADA63FB685B6F3D4A1A64FB685B6FFE
:104698003C4ADA64FB685B6F00221A65FB68586F56
:1046A800FB681B6824331946FB685B6D1A46FB8858
:1046B800FCF7D2FD0346002B09D0FB681022C3F893
:1046C8008420FB682022C3F88020012351E0FB6886
:1046D8001B69002B18D0FB681B68FB63FB6B53E856
:1046E800003FBB63BB6B43F480737B65FB681B684F
:1046F8001A467B6DBB647A64796CBA6C41E8002316
:104708003B643B6C002BE6D1FB681B680833BB623B
:10471800BB6A53E8003F7B627B6A43F001033B6559
:10472800FB681B6808333A6D7A633B63396B7A6BB5
:1047380041E80023FB62FB6A002BE5D1FB681B689C
:1047480008337B617B6953E8003F3B613B6943F079
:104758004003FB64FB681B680833FA6C3A62FB6130
:10476800F9693A6A41E80023BB61BB69002BE5D1CE
:10477800002318465837BD4680BD00BFA54800082D
:10478800CD4900080B4A000880B489B000AF7860B2
:104798007B681B68FB60FB6853E8003FBB60BB6835
:1047A80023F0C003FB617B681B681A46FB69BB6189
:1047B8007A617969BA6941E800233B613B69002B5A
:1047C800E6D17B682022DA6700BF2437BD465DF852
:1047D800047B704780B495B000AF78607B681B6835
:1047E8007B637B6B53E8003F3B633B6B23F4907325
:1047F800FB647B681B681A46FB6C3B64FA63F96BC5
:104808003A6C41E80023BB63BB6B002BE6D17B68A5
:104818001B6808333B623B6A53E8003FFB61FB6956
:1048280023F00103BB647B681B680833BA6CFA6227
:10483800BB62B96AFA6A41E800237B627B6A002B93
:10484800E5D17B681B6E012B18D17B681B68FB6068
:10485800FB6853E8003FBB60BB6823F010037B6430
:104868007B681B681A467B6CBB617A617969BA6997
:1048780041E800233B613B69002BE6D17B6820229D
:10488800C3F880207B6800221A667B6800229A663B
:1048980000BF5437BD465DF8047B704780B59CB0B7
:1048A80000AF78607B689B6BFB667B68DB69B3F560
:1048B800807F71D0FB6E0022A3F85A20FB6E1B6824
:1048C800FB64FB6C53E8003FBB64BB6C23F4807350
:1048D800BB66FB6E1B681A46BB6EBB657A65796D55
:1048E800BA6D41E800233B653B6D002BE6D1FB6EBA
:1048F8001B680833BB63BB6B53E8003F7B637B6B70
:1049080023F001037B66FB6E1B6808337A6E7A64BA
:104918003B64396C7A6C41E80023FB63FB6B002B2A
:10492800E5D1FB6E1B6808337B627B6A53E8003F66
:104938003B623B6A23F040033B66FB6E1B6808330F
:104948003A6E3A63FB62F96A3A6B41E80023BB624C
:10495800BB6A002BE5D1FB6E2022C3F88020FB6EDA
:104968001B6E012B18D1FB6E1B683B613B6953E83A
:10497800003FFB60FB6823F01003FB65FB6E1B68C0
:104988001A46FB6DFB61BA61B969FA6941E800230F
:104998007B617B69002BE6D1FB6E00225A66FB6EB9
:1049A8001B6E012B07D1FB6EB3F858301946F86E11
:1049B800FFF718FA02E0F86EFCF7CCF900BF703781
:1049C800BD4680BD80B584B000AF78607B689B6BC6
:1049D800FB60FB6801225A66FB681B6E012B09D13C
:1049E800FB68B3F858305B089BB21946F868FFF7C4
:1049F800F9F902E0F868FFF7EBF900BF1037BD4698
:104A080080BD80B586B000AF78607B689B6B7B61AA
:104A18007B69DB6F3B617B69D3F88030FB607B6926
:104A28001B689B6803F08003802B09D13B69212B0D
:104A380006D17B690022A3F852207869FFF7A4FE0B
:104A48007B691B689B6803F04003402B09D1FB6816
:104A5800222B06D17B690022A3F85A207869FFF738
:104A6800B9FE7B69D3F8843043F010027B69C3F840
:104A780084207869FCF788F900BF1837BD4680BDE7
:104A880080B584B000AF78607B689B6BFB60FB6887
:104A98000022A3F85A20FB680022A3F85220F868E5
:104AA800FCF772F900BF1037BD4680BD80B588B0ED
:104AB80000AF78607B681B68FB60FB6853E8003FC9
:104AC800BB60BB6823F04003FB617B681B681A4628
:104AD800FB69BB617A617969BA6941E800233B6186
:104AE8003B69002BE6D17B682022DA677B680022CD
:104AF800DA667868FFF762F900BF2037BD4680BDE7
:104B080070B50D4D0D4C641BA4100026A64209D1AA
:104B18000B4D0C4C00F016FE641BA4100026A64298
:104B280005D170BD55F8043B98470136EEE755F8B6
:104B3800043B98470136F2E76859000868590008AD
:104B4800685900086C59000802440346934200D192
:104B5800704703F8011BF9E71FB5B0EE407B17EE6D
:104B6800903A214A23F00043934207DC9FED1C1B37
:104B7800002005B05DF804EB00F082BC1B4A9342AC
:104B880004DD30EE400B05B05DF804FB684600F02C
:104B98002FF800F0030001280AD002280FD0C0B96E
:104BA8009DED021B9DED000B012000F069FCEAE77A
:104BB8009DED021B9DED000B00F05EF9E3E79DED16
:104BC800021B9DED000B012000F05AFCB1EE400BDA
:104BD800D9E79DED021B9DED000B00F04DF9F5E7BF
:104BE8000000000000000000FB21E93FFFFFEF7F0D
:104BF80070B5B0EE407B17EE905A994B25F0004601
:104C08009E4288B0044607DC0022002384ED000B96
:104C1800C0E9022300201BE0924B9E423BDCA3F537
:104C28001B23002D9FED7E6BA3F5F06319DD30EE9D
:104C3800467B9E420ED09FED7C6B37EE465B37EE8F
:104C4800457B84ED005B37EE467B84ED027B0120DB
:104C580008B070BD9FED766B37EE467B9FED766BA7
:104C6800EBE79E4230EE067B0ED09FED6F6B37EE82
:104C7800065B37EE457B84ED005B37EE067B4FF035
:104C8800FF3084ED027BE3E79FED696B37EE067B2F
:104C98009FED696BEBE7744B9E4270DC00F048FCBB
:104CA800B6EE007B9FED666BA0EE067BFDEEC77B44
:104CB800B8EEE75B17EE900AB1EE454B9FED587BD7
:104CC800A5EE470B9FED587B1F2825EE077B30EE9E
:104CD800476B08DC654B421E53F82230B34202D0C2
:104CE80084ED006B26E016EE903AC3F30A53C3EB4B
:104CF8001653102B4FEA2652F2DDB0EE406B9FEDB3
:104D08004C7B9FED4D3BA4EE076B30EE460BA4EEBB
:104D1800070BB0EE407B95EE037B36EE473B13EE78
:104D2800903AC3F30A53D31A312B17DCB0EE460B73
:104D380084ED003B94ED006B002D30EE460B30EE19
:104D4800470B84ED020B83DAB1EE466BB1EE400BF4
:104D580084ED006B84ED020B404279E79FED3A3B0E
:104D6800B0EE460BA4EE030B36EE407B9FED386B9E
:104D7800A4EE037B95EE067B30EE476BB0E73C4B29
:104D88009E4206DD30EE407B80ED027B80ED007BAD
:104D980040E7321510EE100AA2F21642A6EB0251B5
:104DA80041EC170BBDEEC76B9FED2B5BB8EEC66BE6
:104DB80037EE467B8DED026B27EE057BBDEEC76BAC
:104DC80002A9B8EEC66B37EE467B8DED046B27EE75
:104DD800057B8DED067B0326084691ED047BB5EE39
:104DE800407BF1EE10FA3346A1F1080106F1FF36D7
:104DF800F3D02049019102210091214600F0A8F842
:104E0800002DBFF625AF94ED007BB1EE477B84ED16
:104E1800007B94ED027BB1EE477B84ED027B9BE740
:104E280000004054FB21F93F3163621A61B4D03D60
:104E38000000601A61B4D03D7370032E8A19A33B39
:104E480083C8C96D305FE43F0000002E8A19A33B78
:104E5800C14920259A837B39000000000000704179
:104E6800FB21E93F7BD90240FB21394188570008E3
:104E7800FFFFEF7F0858000810EE901AB7EE004BBE
:104E880021F00041B1F1795F05DAFDEEC07B17EE44
:104E9800903A002B3DD020EE003B9FED1F7B9FED0D
:104EA800206BA3EE076B9FED207BA6EE037B9FEDA7
:104EB800206BA7EE036B9FED207B234BA6EE037BB5
:104EC8009FED1F6B9942A7EE036BB6EE007B26EEB3
:104ED800035B23EE077B21EE406BA3EE056B04DC3E
:104EE80037EE466B34EE460B7047184B99420DDC93
:104EF8000022A1F5001343EC152B34EE450B37EED9
:104F0800457B37EE467B30EE470B7047B5EE025BCC
:104F1800F3E7B0EE440B7047D43888BEE9FAA8BD71
:104F2800C4B1B4BD9EEE213EAD529C804F7E92BE70
:104F38009015CB19A001FA3E7751C1166CC156BF26
:104F48004C5555555555A53F3233D33F0000E93FE1
:104F58002DE9F04F2DED068BADF5137D0F46029030
:104F6800C549A298DDF88CE251F82090019312F11E
:104F7800140FA8BF182003F1FF31B8BF00206FF04D
:104F880017049FEDB76BA4BFA2F1030A9AFBF0F0D8
:104F980000FB0444461A144409EB010C1AAD0EEB4D
:104FA80086080022624510DD019A1AAB03EBC202A3
:104FB8000DF5D47A4FF0000CCC4526DC9FEDA87B8C
:104FC800DDF808801646002515E0D64209D458F8C1
:104FD800223007EE903AB8EEE77BA5EC027B01326F
:104FE800E0E7B0EE467BF8E7B8EC025B96ED006BC5
:104FF8000135A5EE067B8D42A6F10806F4DDAAEC84
:10500800027B0CF1010C0832D6E706AB9FED969BAC
:105018009FED97AB03EB890303930EEB800A4D4694
:10502800EB00049392AB03EBC5020DF1180B6AABCE
:1050380012ED280B5E4603EBC50228460028A2F1B4
:1050480008024CDC2046059100F0F2FAB0EE408BE5
:10505800B4EE000B28EE000B00F076FAB2EE007BFF
:10506800A0EE478BFDEEC87B002CB8EEE70B17EEE1
:10507800908A38EE408B059943DD681E06ABC4F173
:10508800180C53F8206046FA0CF2904402FA0CF21D
:10509800B61AC4F1170243F820601641002E3FDD0E
:1050A8004FF0000C08F1010860466FF07F4E65452F
:1050B8006EDC002C04DD012C7FD0022C00F08780F0
:1050C800022E2DD1B7EE000B30EE488B40B32046B0
:1050D800059100F0ADFA059938EE408B20E020EEFE
:1050E800097BBDEEC77B0138B8EEC77BA7EE4A0B3C
:1050F800BDEEC00BA6EC010A92ED000B37EE000BDB
:105108009CE705D16A1E06AB53F82260F615C5E781
:10511800B6EE007BB4EEC78BF1EE10FA36DA002655
:10512800B5EE408BF1EE10FA40F0AA8005F1FF3B96
:1051380058460022484552DA002A00F0818006AB22
:10514800183C53F82B30002B00F08780B7EE000B8B
:10515800204600F06DFA4FEACB039FED436B6AA936
:1051680003F1080288185946002980F2B780594689
:105178000029C0F2D5806AA800EBC1059FED387BF5
:10518800DFF8F8C00024ABEB0100BEE0022687E799
:10519800DBF8002058B922B1C2F18072CBF80020A8
:1051A80001220CF1010C0BF1040B10467FE7AEEB6A
:1051B8000202CBF800200246F3E705F1FF3C06ABFC
:1051C80053F82C20C2F3160243F82C2078E705F197
:1051D800FF3C06AB53F82C20C2F31502F4E706ABEC
:1051E80053F8203001381A43A4E70CF1010C52F8A7
:1051F800040D0028F9D0049B03F512730DEB03028C
:10520800019BE8181AAB6E1C983A03EBC000654482
:10521800B542FFF605AF5AF82630DDF808E007EE8C
:10522800903AB8EEE77B4FF0000CA0EC027B9FEDC4
:105238000C7B80468C4507DDA2EC027B0136E7E754
:10524800039A4FF0010CD2E7BEEC025B38ED026B1B
:105258000CF1010CA5EE067BECE70BF1FF3B6EE7CA
:105268000000000000000000000000000000703E88
:105278000000000000007041505900081059000853
:105288006042B0EE480B00F0D3F99FED776BB4EEB7
:10529800C60BF1EE10FA18DB9FED757B20EE077B4D
:1052A800BDEEC77B06AAB8EEC75BA5EE460BBDEE02
:1052B800C00B05F1010B10EE103A42F8253017EE3D
:1052C800103A183442F82B3040E7BDEEC00B06AA5E
:1052D80010EE103AAB4642F8253037E706AC54F8E2
:1052E8002140019407EE904A0139B8EEE77B27EE9A
:1052F800007B20EE060B20ED027B35E7BCEC025B61
:10530800B5EC026B0134A5EE067B4C4501DC84420A
:10531800F4DD42AC04EBC00080ED007B013927E7E7
:10532800A29902290ADC00292CDC45D008F00700E4
:105338000DF5137DBDEC068BBDE8F08FA29A032A0C
:10534800F4D142AA13441A46194658460028A1F136
:10535800080154DC59460129A2F108025FDC9FEDDF
:10536800467B0833BBF1010F69DC9DED425B9DED87
:10537800446B002E6AD187ED005B87ED026B87EDE9
:10538800047BD3E79FED3C6B42AB1A445B46002B92
:1053980026DA5EB3B1EE467B87ED007B9DED427B5E
:1053A80044AA012337EE467B9B4522DA0EB1B1EEC3
:1053B800477B87ED027BB9E79FED2F7B42AB1A4411
:1053C800BBF1000F05DA0EB1B1EE477B87ED007B2C
:1053D800ACE732ED026B0BF1FF3B37EE067BEFE7F4
:1053E80032ED027B013B36EE076BD0E7B0EE467B31
:1053F800D2E7B2EC026B013337EE067BD4E791EDCE
:10540800007B91ED025B013837EE056B37EE467B8A
:1054180081ED006B37EE057B81ED027B96E792ED1F
:10542800007B92ED025B013937EE056B37EE467B68
:1054380082ED006B37EE057B82ED027B8BE733ED67
:10544800026B0BF1FF3B37EE067B8BE7B1EE455B5A
:10545800B1EE466B87ED005BB1EE477B87ED026BE3
:105468008DE700BFAFF3008000000000000070412E
:10547800000000000000703E000000000000000076
:1054880010EE903A23F00043B3F1795F04DAFDEEB1
:10549800C07B17EE903A5BB320EE006B20EE065B04
:1054A8009FED157B9FED164BA6EE074B9FED167BE8
:1054B800A4EE067B9FED164BA7EE064B9FED167BE1
:1054C800A4EE067B30B99FED164BA6EE074BA4EE73
:1054D800050B704727EE457BB6EE004BA1EE047B2B
:1054E80097EE061B9FED107BA5EE071B30EE410BD8
:1054F800704700BFAFF300807CD5CF5A3AD9E53D5D
:10550800EB9C2B8AE6E55ABE7DFEB157E31DC73EEC
:10551800D561C119A0012ABFA6F810111111813F48
:10552800495555555555C5BF495555555555C53F07
:1055380051EC100B10EE102A21F0004343EC102B15
:10554800704700000000000010EE901AC1F30A52E4
:10555800A2F2FF33132B30B510EE100A10EE105ADA
:1055680031DC002B15DA9FED2E7B30EE070BB5EE04
:10557800C00BF1EE10FA07DD00294EDA21F00043E6
:10558800184301D0284900200B46024643EC102B53
:1055980020E0264A1A4101EA020404431AD09FED8A
:1055A800207B30EE070BB5EEC00BF1EE10FAEBDD09
:1055B8000029BEBF4FF4801040FA03F3C91821EA4E
:1055C80002010020E0E7332B05DDB3F5806F01D140
:1055D80030EE000B30BDA2F213444FF0FF32E24030
:1055E8000242F7D09FED0E7B30EE070BB5EEC00BF5
:1055F800F1EE10FAC8DD002902DA142B03D10131CB
:1056080020EA0200C0E70124C3F1340304FA03F3DB
:105618001844A84238BF0919F2E700200146B3E749
:105628009C7500883CE4377E0000F0BFFFFF0F0048
:1056380010EE901A10B5C1F30A548CB910EE103A56
:1056480021F000410B4311D09FED317B3C4B20EE04
:10565800070B98420BDA9FED307B20EE070B05E035
:1056680040F2FF739C4207D130EE000B10BD10EEE4
:10567800901AC1F30A54363C044440F2FE739C422B
:105688000DDD9FED277B9FED285BB0EE476B10EE9D
:10569800903A002B27FE057B27EE060BE6E7002C49
:1056A8000ADD21F0FF4153EC102B21F4E00141EA1F
:1056B800045343EC102BD9E714F1350F19DA4CF2E7
:1056C8005033984210EE903A03F0004309DD9FED05
:1056D800140B9FED156BB0EE407B002B00FE060B04
:1056E800BBE79FED0D0B9FED126BB0EE407B002BDF
:1056F800F4E721F0FF4153EC102B363421F4E0019C
:1057080041EA04539FED0C7B43EC102BA5E700BF47
:10571800000000000000504359F3F8C21F6EA501B5
:105728009C7500883CE4377E9C7500883CE437FE15
:1057380059F3F8C21F6EA581000000000000903CDC
:10574800B03CFFFFF8B500BFF8BC08BC9E467047E8
:0C575800F8B500BFF8BC08BC9E467047C6
:105768000000000000000000010203040607080909
:1057780000000000010203040006101600061016BF
:10578800FB21F93FFB2109407CD91240FB2119403C
:105798007A6A1F407CD92240BBFD2540FB21294065
:1057A8003A462C407A6A2F405C4731407CD93240D7
:1057B8009C6B3440BBFD3540DB8F3740FB213940C3
:1057C8001BB43A403A463C405AD83D407A6A3F407A
:1057D8004C7E40405C4741406C1042407CD942407E
:1057E8008CA243409C6B4440AC344540BBFD4540D3
:1057F800CBC64640DB8F4740EB584840FB21494029
:1058080083F9A200444E6E00FC291500D1572700E9
:10581800DD34F50062DBC0003C99950041904300FF
:105828006351FE00BBDEAB00B761C5003A6E2400D1
:10583800D24D42004906E00009EA2E001C92D10030
:10584800EB1DFE0029B11C00E83EA700F5358200DB
:1058580044BB2E009CE98400B4267000417E5F00A2
:10586800D6913900538339009CF439008B5F84004A
:1058780028F9BD00F81F3B00DEFF97000F980500D0
:10588800112FEF000A5A8B006D1F6D00CF7E360076
:1058980009CB2700464FB7009E663F002DEA5F0000
:1058A800BA277500E5EBC7003D7BF100F739070023
:1058B80092528A00FB6BEA001FB15F00085D8D0001
:1058C800300356007BFC4600F0AB6B0020BCCF00D9
:1058D80036F49A00E3A91D005E619100081BE600FA
:1058E80085996500A0145F008D40680080D8FF008E
:1058F80027734D0006063100CA561500C9A8730063
:105908007BE260006B8CC00000000040FB21F93F87
:10591800000000002D44743E000000809846F83CCA
:105928000000006051CC783B00000080831BF039F8
:105938000000004020257A38000000802282E336EB
:10594800000000001DF3693502000000030000009C
:0859580004000000060000003D
:0859600008A9FF7F010000000F
:045968001D02000814
:04596C00F901000835
:105970000024F400FF0000001000000001000000FF
:0400000508000DD50D
:00000001FF
