
uart.elf:     file format elf32-littlearm

Sections:
Idx Name          Size      VMA       LMA       File off  Algn
  0 .isr_vector   000001f8  08000000  08000000  00010000  2**0
                  CONTENTS, ALLOC, LOAD, READONLY, DATA
  1 .text         0000556c  080001f8  080001f8  000101f8  2**3
                  CONTENTS, ALLOC, LOAD, READONLY, CODE
  2 .rodata       000001f8  08005768  08005768  00015768  2**3
                  CONTENTS, ALLOC, LOAD, READONLY, DATA
  3 .ARM.extab    00000000  08005960  08005960  00020010  2**0
                  CONTENTS
  4 .ARM          00000008  08005960  08005960  00015960  2**2
                  CONTENTS, ALLOC, LOAD, READONLY, DATA
  5 .preinit_array 00000000  08005968  08005968  00020010  2**0
                  CONTENTS, ALLOC, LOAD, DATA
  6 .init_array   00000004  08005968  08005968  00015968  2**2
                  CONTENTS, ALLOC, LOAD, DATA
  7 .fini_array   00000004  0800596c  0800596c  0001596c  2**2
                  CONTENTS, ALLOC, LOAD, DATA
  8 .data         00000010  20000000  08005970  00020000  2**2
                  CONTENTS, ALLOC, LOAD, DATA
  9 .bss          00000160  20000010  08005980  00020010  2**2
                  ALLOC
 10 ._user_heap_stack 00000600  20000170  08005980  00020170  2**0
                  ALLOC
 11 .ARM.attributes 0000002e  00000000  00000000  00020010  2**0
                  CONTENTS, READONLY
 12 .debug_info   00010ac4  00000000  00000000  0002003e  2**0
                  CONTENTS, READONLY, DEBUGGING, OCTETS
 13 .debug_abbrev 00002378  00000000  00000000  00030b02  2**0
                  CONTENTS, READONLY, DEBUGGING, OCTETS
 14 .debug_aranges 00000df0  00000000  00000000  00032e80  2**3
                  CONTENTS, READONLY, DEBUGGING, OCTETS
 15 .debug_ranges 00000cf8  00000000  00000000  00033c70  2**3
                  CONTENTS, READONLY, DEBUGGING, OCTETS
 16 .debug_macro  00028137  00000000  00000000  00034968  2**0
                  CONTENTS, READONLY, DEBUGGING, OCTETS
 17 .debug_line   00012230  00000000  00000000  0005ca9f  2**0
                  CONTENTS, READONLY, DEBUGGING, OCTETS
 18 .debug_str    000fb0cc  00000000  00000000  0006eccf  2**0
                  CONTENTS, READONLY, DEBUGGING, OCTETS
 19 .comment      00000050  00000000  00000000  00169d9b  2**0
                  CONTENTS, READONLY
 20 .debug_frame  00003aec  00000000  00000000  00169dec  2**2
                  CONTENTS, READONLY, DEBUGGING, OCTETS

Disassembly of section .text:

080001f8 <__do_global_dtors_aux>:
 80001f8:	b510      	push	{r4, lr}
 80001fa:	4c05      	ldr	r4, [pc, #20]	; (8000210 <__do_global_dtors_aux+0x18>)
 80001fc:	7823      	ldrb	r3, [r4, #0]
 80001fe:	b933      	cbnz	r3, 800020e <__do_global_dtors_aux+0x16>
 8000200:	4b04      	ldr	r3, [pc, #16]	; (8000214 <__do_global_dtors_aux+0x1c>)
 8000202:	b113      	cbz	r3, 800020a <__do_global_dtors_aux+0x12>
 8000204:	4804      	ldr	r0, [pc, #16]	; (8000218 <__do_global_dtors_aux+0x20>)
 8000206:	f3af 8000 	nop.w
 800020a:	2301      	movs	r3, #1
 800020c:	7023      	strb	r3, [r4, #0]
 800020e:	bd10      	pop	{r4, pc}
 8000210:	20000010 	.word	0x20000010
 8000214:	00000000 	.word	0x00000000
 8000218:	0800574c 	.word	0x0800574c

0800021c <frame_dummy>:
 800021c:	b508      	push	{r3, lr}
 800021e:	4b03      	ldr	r3, [pc, #12]	; (800022c <frame_dummy+0x10>)
 8000220:	b11b      	cbz	r3, 800022a <frame_dummy+0xe>
 8000222:	4903      	ldr	r1, [pc, #12]	; (8000230 <frame_dummy+0x14>)
 8000224:	4803      	ldr	r0, [pc, #12]	; (8000234 <frame_dummy+0x18>)
 8000226:	f3af 8000 	nop.w
 800022a:	bd08      	pop	{r3, pc}
 800022c:	00000000 	.word	0x00000000
 8000230:	20000014 	.word	0x20000014
 8000234:	0800574c 	.word	0x0800574c

08000238 <__aeabi_uldivmod>:
 8000238:	b953      	cbnz	r3, 8000250 <__aeabi_uldivmod+0x18>
 800023a:	b94a      	cbnz	r2, 8000250 <__aeabi_uldivmod+0x18>
 800023c:	2900      	cmp	r1, #0
 800023e:	bf08      	it	eq
 8000240:	2800      	cmpeq	r0, #0
 8000242:	bf1c      	itt	ne
 8000244:	f04f 31ff 	movne.w	r1, #4294967295
 8000248:	f04f 30ff 	movne.w	r0, #4294967295
 800024c:	f000 b974 	b.w	8000538 <__aeabi_idiv0>
 8000250:	f1ad 0c08 	sub.w	ip, sp, #8
 8000254:	e96d ce04 	strd	ip, lr, [sp, #-16]!
 8000258:	f000 f806 	bl	8000268 <__udivmoddi4>
 800025c:	f8dd e004 	ldr.w	lr, [sp, #4]
 8000260:	e9dd 2302 	ldrd	r2, r3, [sp, #8]
 8000264:	b004      	add	sp, #16
 8000266:	4770      	bx	lr

08000268 <__udivmoddi4>:
 8000268:	e92d 47f0 	stmdb	sp!, {r4, r5, r6, r7, r8, r9, sl, lr}
 800026c:	9d08      	ldr	r5, [sp, #32]
 800026e:	4604      	mov	r4, r0
 8000270:	468e      	mov	lr, r1
 8000272:	2b00      	cmp	r3, #0
 8000274:	d14d      	bne.n	8000312 <__udivmoddi4+0xaa>
 8000276:	428a      	cmp	r2, r1
 8000278:	4694      	mov	ip, r2
 800027a:	d969      	bls.n	8000350 <__udivmoddi4+0xe8>
 800027c:	fab2 f282 	clz	r2, r2
 8000280:	b152      	cbz	r2, 8000298 <__udivmoddi4+0x30>
 8000282:	fa01 f302 	lsl.w	r3, r1, r2
 8000286:	f1c2 0120 	rsb	r1, r2, #32
 800028a:	fa20 f101 	lsr.w	r1, r0, r1
 800028e:	fa0c fc02 	lsl.w	ip, ip, r2
 8000292:	ea41 0e03 	orr.w	lr, r1, r3
 8000296:	4094      	lsls	r4, r2
 8000298:	ea4f 481c 	mov.w	r8, ip, lsr #16
 800029c:	0c21      	lsrs	r1, r4, #16
 800029e:	fbbe f6f8 	udiv	r6, lr, r8
 80002a2:	fa1f f78c 	uxth.w	r7, ip
 80002a6:	fb08 e316 	mls	r3, r8, r6, lr
 80002aa:	ea41 4303 	orr.w	r3, r1, r3, lsl #16
 80002ae:	fb06 f107 	mul.w	r1, r6, r7
 80002b2:	4299      	cmp	r1, r3
 80002b4:	d90a      	bls.n	80002cc <__udivmoddi4+0x64>
 80002b6:	eb1c 0303 	adds.w	r3, ip, r3
 80002ba:	f106 30ff 	add.w	r0, r6, #4294967295
 80002be:	f080 811f 	bcs.w	8000500 <__udivmoddi4+0x298>
 80002c2:	4299      	cmp	r1, r3
 80002c4:	f240 811c 	bls.w	8000500 <__udivmoddi4+0x298>
 80002c8:	3e02      	subs	r6, #2
 80002ca:	4463      	add	r3, ip
 80002cc:	1a5b      	subs	r3, r3, r1
 80002ce:	b2a4      	uxth	r4, r4
 80002d0:	fbb3 f0f8 	udiv	r0, r3, r8
 80002d4:	fb08 3310 	mls	r3, r8, r0, r3
 80002d8:	ea44 4403 	orr.w	r4, r4, r3, lsl #16
 80002dc:	fb00 f707 	mul.w	r7, r0, r7
 80002e0:	42a7      	cmp	r7, r4
 80002e2:	d90a      	bls.n	80002fa <__udivmoddi4+0x92>
 80002e4:	eb1c 0404 	adds.w	r4, ip, r4
 80002e8:	f100 33ff 	add.w	r3, r0, #4294967295
 80002ec:	f080 810a 	bcs.w	8000504 <__udivmoddi4+0x29c>
 80002f0:	42a7      	cmp	r7, r4
 80002f2:	f240 8107 	bls.w	8000504 <__udivmoddi4+0x29c>
 80002f6:	4464      	add	r4, ip
 80002f8:	3802      	subs	r0, #2
 80002fa:	ea40 4006 	orr.w	r0, r0, r6, lsl #16
 80002fe:	1be4      	subs	r4, r4, r7
 8000300:	2600      	movs	r6, #0
 8000302:	b11d      	cbz	r5, 800030c <__udivmoddi4+0xa4>
 8000304:	40d4      	lsrs	r4, r2
 8000306:	2300      	movs	r3, #0
 8000308:	e9c5 4300 	strd	r4, r3, [r5]
 800030c:	4631      	mov	r1, r6
 800030e:	e8bd 87f0 	ldmia.w	sp!, {r4, r5, r6, r7, r8, r9, sl, pc}
 8000312:	428b      	cmp	r3, r1
 8000314:	d909      	bls.n	800032a <__udivmoddi4+0xc2>
 8000316:	2d00      	cmp	r5, #0
 8000318:	f000 80ef 	beq.w	80004fa <__udivmoddi4+0x292>
 800031c:	2600      	movs	r6, #0
 800031e:	e9c5 0100 	strd	r0, r1, [r5]
 8000322:	4630      	mov	r0, r6
 8000324:	4631      	mov	r1, r6
 8000326:	e8bd 87f0 	ldmia.w	sp!, {r4, r5, r6, r7, r8, r9, sl, pc}
 800032a:	fab3 f683 	clz	r6, r3
 800032e:	2e00      	cmp	r6, #0
 8000330:	d14a      	bne.n	80003c8 <__udivmoddi4+0x160>
 8000332:	428b      	cmp	r3, r1
 8000334:	d302      	bcc.n	800033c <__udivmoddi4+0xd4>
 8000336:	4282      	cmp	r2, r0
 8000338:	f200 80f9 	bhi.w	800052e <__udivmoddi4+0x2c6>
 800033c:	1a84      	subs	r4, r0, r2
 800033e:	eb61 0303 	sbc.w	r3, r1, r3
 8000342:	2001      	movs	r0, #1
 8000344:	469e      	mov	lr, r3
 8000346:	2d00      	cmp	r5, #0
 8000348:	d0e0      	beq.n	800030c <__udivmoddi4+0xa4>
 800034a:	e9c5 4e00 	strd	r4, lr, [r5]
 800034e:	e7dd      	b.n	800030c <__udivmoddi4+0xa4>
 8000350:	b902      	cbnz	r2, 8000354 <__udivmoddi4+0xec>
 8000352:	deff      	udf	#255	; 0xff
 8000354:	fab2 f282 	clz	r2, r2
 8000358:	2a00      	cmp	r2, #0
 800035a:	f040 8092 	bne.w	8000482 <__udivmoddi4+0x21a>
 800035e:	eba1 010c 	sub.w	r1, r1, ip
 8000362:	ea4f 471c 	mov.w	r7, ip, lsr #16
 8000366:	fa1f fe8c 	uxth.w	lr, ip
 800036a:	2601      	movs	r6, #1
 800036c:	0c20      	lsrs	r0, r4, #16
 800036e:	fbb1 f3f7 	udiv	r3, r1, r7
 8000372:	fb07 1113 	mls	r1, r7, r3, r1
 8000376:	ea40 4101 	orr.w	r1, r0, r1, lsl #16
 800037a:	fb0e f003 	mul.w	r0, lr, r3
 800037e:	4288      	cmp	r0, r1
 8000380:	d908      	bls.n	8000394 <__udivmoddi4+0x12c>
 8000382:	eb1c 0101 	adds.w	r1, ip, r1
 8000386:	f103 38ff 	add.w	r8, r3, #4294967295
 800038a:	d202      	bcs.n	8000392 <__udivmoddi4+0x12a>
 800038c:	4288      	cmp	r0, r1
 800038e:	f200 80cb 	bhi.w	8000528 <__udivmoddi4+0x2c0>
 8000392:	4643      	mov	r3, r8
 8000394:	1a09      	subs	r1, r1, r0
 8000396:	b2a4      	uxth	r4, r4
 8000398:	fbb1 f0f7 	udiv	r0, r1, r7
 800039c:	fb07 1110 	mls	r1, r7, r0, r1
 80003a0:	ea44 4401 	orr.w	r4, r4, r1, lsl #16
 80003a4:	fb0e fe00 	mul.w	lr, lr, r0
 80003a8:	45a6      	cmp	lr, r4
 80003aa:	d908      	bls.n	80003be <__udivmoddi4+0x156>
 80003ac:	eb1c 0404 	adds.w	r4, ip, r4
 80003b0:	f100 31ff 	add.w	r1, r0, #4294967295
 80003b4:	d202      	bcs.n	80003bc <__udivmoddi4+0x154>
 80003b6:	45a6      	cmp	lr, r4
 80003b8:	f200 80bb 	bhi.w	8000532 <__udivmoddi4+0x2ca>
 80003bc:	4608      	mov	r0, r1
 80003be:	eba4 040e 	sub.w	r4, r4, lr
 80003c2:	ea40 4003 	orr.w	r0, r0, r3, lsl #16
 80003c6:	e79c      	b.n	8000302 <__udivmoddi4+0x9a>
 80003c8:	f1c6 0720 	rsb	r7, r6, #32
 80003cc:	40b3      	lsls	r3, r6
 80003ce:	fa22 fc07 	lsr.w	ip, r2, r7
 80003d2:	ea4c 0c03 	orr.w	ip, ip, r3
 80003d6:	fa20 f407 	lsr.w	r4, r0, r7
 80003da:	fa01 f306 	lsl.w	r3, r1, r6
 80003de:	431c      	orrs	r4, r3
 80003e0:	40f9      	lsrs	r1, r7
 80003e2:	ea4f 491c 	mov.w	r9, ip, lsr #16
 80003e6:	fa00 f306 	lsl.w	r3, r0, r6
 80003ea:	fbb1 f8f9 	udiv	r8, r1, r9
 80003ee:	0c20      	lsrs	r0, r4, #16
 80003f0:	fa1f fe8c 	uxth.w	lr, ip
 80003f4:	fb09 1118 	mls	r1, r9, r8, r1
 80003f8:	ea40 4101 	orr.w	r1, r0, r1, lsl #16
 80003fc:	fb08 f00e 	mul.w	r0, r8, lr
 8000400:	4288      	cmp	r0, r1
 8000402:	fa02 f206 	lsl.w	r2, r2, r6
 8000406:	d90b      	bls.n	8000420 <__udivmoddi4+0x1b8>
 8000408:	eb1c 0101 	adds.w	r1, ip, r1
 800040c:	f108 3aff 	add.w	sl, r8, #4294967295
 8000410:	f080 8088 	bcs.w	8000524 <__udivmoddi4+0x2bc>
 8000414:	4288      	cmp	r0, r1
 8000416:	f240 8085 	bls.w	8000524 <__udivmoddi4+0x2bc>
 800041a:	f1a8 0802 	sub.w	r8, r8, #2
 800041e:	4461      	add	r1, ip
 8000420:	1a09      	subs	r1, r1, r0
 8000422:	b2a4      	uxth	r4, r4
 8000424:	fbb1 f0f9 	udiv	r0, r1, r9
 8000428:	fb09 1110 	mls	r1, r9, r0, r1
 800042c:	ea44 4101 	orr.w	r1, r4, r1, lsl #16
 8000430:	fb00 fe0e 	mul.w	lr, r0, lr
 8000434:	458e      	cmp	lr, r1
 8000436:	d908      	bls.n	800044a <__udivmoddi4+0x1e2>
 8000438:	eb1c 0101 	adds.w	r1, ip, r1
 800043c:	f100 34ff 	add.w	r4, r0, #4294967295
 8000440:	d26c      	bcs.n	800051c <__udivmoddi4+0x2b4>
 8000442:	458e      	cmp	lr, r1
 8000444:	d96a      	bls.n	800051c <__udivmoddi4+0x2b4>
 8000446:	3802      	subs	r0, #2
 8000448:	4461      	add	r1, ip
 800044a:	ea40 4008 	orr.w	r0, r0, r8, lsl #16
 800044e:	fba0 9402 	umull	r9, r4, r0, r2
 8000452:	eba1 010e 	sub.w	r1, r1, lr
 8000456:	42a1      	cmp	r1, r4
 8000458:	46c8      	mov	r8, r9
 800045a:	46a6      	mov	lr, r4
 800045c:	d356      	bcc.n	800050c <__udivmoddi4+0x2a4>
 800045e:	d053      	beq.n	8000508 <__udivmoddi4+0x2a0>
 8000460:	b15d      	cbz	r5, 800047a <__udivmoddi4+0x212>
 8000462:	ebb3 0208 	subs.w	r2, r3, r8
 8000466:	eb61 010e 	sbc.w	r1, r1, lr
 800046a:	fa01 f707 	lsl.w	r7, r1, r7
 800046e:	fa22 f306 	lsr.w	r3, r2, r6
 8000472:	40f1      	lsrs	r1, r6
 8000474:	431f      	orrs	r7, r3
 8000476:	e9c5 7100 	strd	r7, r1, [r5]
 800047a:	2600      	movs	r6, #0
 800047c:	4631      	mov	r1, r6
 800047e:	e8bd 87f0 	ldmia.w	sp!, {r4, r5, r6, r7, r8, r9, sl, pc}
 8000482:	f1c2 0320 	rsb	r3, r2, #32
 8000486:	40d8      	lsrs	r0, r3
 8000488:	fa0c fc02 	lsl.w	ip, ip, r2
 800048c:	fa21 f303 	lsr.w	r3, r1, r3
 8000490:	4091      	lsls	r1, r2
 8000492:	4301      	orrs	r1, r0
 8000494:	ea4f 471c 	mov.w	r7, ip, lsr #16
 8000498:	fa1f fe8c 	uxth.w	lr, ip
 800049c:	fbb3 f0f7 	udiv	r0, r3, r7
 80004a0:	fb07 3610 	mls	r6, r7, r0, r3
 80004a4:	0c0b      	lsrs	r3, r1, #16
 80004a6:	ea43 4306 	orr.w	r3, r3, r6, lsl #16
 80004aa:	fb00 f60e 	mul.w	r6, r0, lr
 80004ae:	429e      	cmp	r6, r3
 80004b0:	fa04 f402 	lsl.w	r4, r4, r2
 80004b4:	d908      	bls.n	80004c8 <__udivmoddi4+0x260>
 80004b6:	eb1c 0303 	adds.w	r3, ip, r3
 80004ba:	f100 38ff 	add.w	r8, r0, #4294967295
 80004be:	d22f      	bcs.n	8000520 <__udivmoddi4+0x2b8>
 80004c0:	429e      	cmp	r6, r3
 80004c2:	d92d      	bls.n	8000520 <__udivmoddi4+0x2b8>
 80004c4:	3802      	subs	r0, #2
 80004c6:	4463      	add	r3, ip
 80004c8:	1b9b      	subs	r3, r3, r6
 80004ca:	b289      	uxth	r1, r1
 80004cc:	fbb3 f6f7 	udiv	r6, r3, r7
 80004d0:	fb07 3316 	mls	r3, r7, r6, r3
 80004d4:	ea41 4103 	orr.w	r1, r1, r3, lsl #16
 80004d8:	fb06 f30e 	mul.w	r3, r6, lr
 80004dc:	428b      	cmp	r3, r1
 80004de:	d908      	bls.n	80004f2 <__udivmoddi4+0x28a>
 80004e0:	eb1c 0101 	adds.w	r1, ip, r1
 80004e4:	f106 38ff 	add.w	r8, r6, #4294967295
 80004e8:	d216      	bcs.n	8000518 <__udivmoddi4+0x2b0>
 80004ea:	428b      	cmp	r3, r1
 80004ec:	d914      	bls.n	8000518 <__udivmoddi4+0x2b0>
 80004ee:	3e02      	subs	r6, #2
 80004f0:	4461      	add	r1, ip
 80004f2:	1ac9      	subs	r1, r1, r3
 80004f4:	ea46 4600 	orr.w	r6, r6, r0, lsl #16
 80004f8:	e738      	b.n	800036c <__udivmoddi4+0x104>
 80004fa:	462e      	mov	r6, r5
 80004fc:	4628      	mov	r0, r5
 80004fe:	e705      	b.n	800030c <__udivmoddi4+0xa4>
 8000500:	4606      	mov	r6, r0
 8000502:	e6e3      	b.n	80002cc <__udivmoddi4+0x64>
 8000504:	4618      	mov	r0, r3
 8000506:	e6f8      	b.n	80002fa <__udivmoddi4+0x92>
 8000508:	454b      	cmp	r3, r9
 800050a:	d2a9      	bcs.n	8000460 <__udivmoddi4+0x1f8>
 800050c:	ebb9 0802 	subs.w	r8, r9, r2
 8000510:	eb64 0e0c 	sbc.w	lr, r4, ip
 8000514:	3801      	subs	r0, #1
 8000516:	e7a3      	b.n	8000460 <__udivmoddi4+0x1f8>
 8000518:	4646      	mov	r6, r8
 800051a:	e7ea      	b.n	80004f2 <__udivmoddi4+0x28a>
 800051c:	4620      	mov	r0, r4
 800051e:	e794      	b.n	800044a <__udivmoddi4+0x1e2>
 8000520:	4640      	mov	r0, r8
 8000522:	e7d1      	b.n	80004c8 <__udivmoddi4+0x260>
 8000524:	46d0      	mov	r8, sl
 8000526:	e77b      	b.n	8000420 <__udivmoddi4+0x1b8>
 8000528:	3b02      	subs	r3, #2
 800052a:	4461      	add	r1, ip
 800052c:	e732      	b.n	8000394 <__udivmoddi4+0x12c>
 800052e:	4630      	mov	r0, r6
 8000530:	e709      	b.n	8000346 <__udivmoddi4+0xde>
 8000532:	4464      	add	r4, ip
 8000534:	3802      	subs	r0, #2
 8000536:	e742      	b.n	80003be <__udivmoddi4+0x156>

08000538 <__aeabi_idiv0>:
 8000538:	4770      	bx	lr
 800053a:	bf00      	nop

0800053c <MX_DMA_Init>:

/**
  * Enable DMA controller clock
  */
void MX_DMA_Init(void)
{
 800053c:	b580      	push	{r7, lr}
 800053e:	b082      	sub	sp, #8
 8000540:	af00      	add	r7, sp, #0

  /* DMA controller clock enable */
  __HAL_RCC_DMA1_CLK_ENABLE();
 8000542:	4b0c      	ldr	r3, [pc, #48]	; (8000574 <MX_DMA_Init+0x38>)
 8000544:	6b1b      	ldr	r3, [r3, #48]	; 0x30
 8000546:	4a0b      	ldr	r2, [pc, #44]	; (8000574 <MX_DMA_Init+0x38>)
 8000548:	f443 1300 	orr.w	r3, r3, #2097152	; 0x200000
 800054c:	6313      	str	r3, [r2, #48]	; 0x30
 800054e:	4b09      	ldr	r3, [pc, #36]	; (8000574 <MX_DMA_Init+0x38>)
 8000550:	6b1b      	ldr	r3, [r3, #48]	; 0x30
 8000552:	f403 1300 	and.w	r3, r3, #2097152	; 0x200000
 8000556:	607b      	str	r3, [r7, #4]
 8000558:	687b      	ldr	r3, [r7, #4]

  /* DMA interrupt init */
  /* DMA1_Stream1_IRQn interrupt configuration */
  HAL_NVIC_SetPriority(DMA1_Stream1_IRQn, 0, 0);
 800055a:	2200      	movs	r2, #0
 800055c:	2100      	movs	r1, #0
 800055e:	200c      	movs	r0, #12
 8000560:	f000 fd99 	bl	8001096 <HAL_NVIC_SetPriority>
  HAL_NVIC_EnableIRQ(DMA1_Stream1_IRQn);
 8000564:	200c      	movs	r0, #12
 8000566:	f000 fdb2 	bl	80010ce <HAL_NVIC_EnableIRQ>

}
 800056a:	bf00      	nop
 800056c:	3708      	adds	r7, #8
 800056e:	46bd      	mov	sp, r7
 8000570:	bd80      	pop	{r7, pc}
 8000572:	bf00      	nop
 8000574:	40023800 	.word	0x40023800

08000578 <MX_GPIO_Init>:
        * EXTI
        * Free pins are configured automatically as Analog (this feature is enabled through
        * the Code Generation settings)
*/
void MX_GPIO_Init(void)
{
 8000578:	b580      	push	{r7, lr}
 800057a:	b08e      	sub	sp, #56	; 0x38
 800057c:	af00      	add	r7, sp, #0

  GPIO_InitTypeDef GPIO_InitStruct = {0};
 800057e:	f107 0324 	add.w	r3, r7, #36	; 0x24
 8000582:	2200      	movs	r2, #0
 8000584:	601a      	str	r2, [r3, #0]
 8000586:	605a      	str	r2, [r3, #4]
 8000588:	609a      	str	r2, [r3, #8]
 800058a:	60da      	str	r2, [r3, #12]
 800058c:	611a      	str	r2, [r3, #16]

  /* GPIO Ports Clock Enable */
  __HAL_RCC_GPIOE_CLK_ENABLE();
 800058e:	4b6f      	ldr	r3, [pc, #444]	; (800074c <MX_GPIO_Init+0x1d4>)
 8000590:	6b1b      	ldr	r3, [r3, #48]	; 0x30
 8000592:	4a6e      	ldr	r2, [pc, #440]	; (800074c <MX_GPIO_Init+0x1d4>)
 8000594:	f043 0310 	orr.w	r3, r3, #16
 8000598:	6313      	str	r3, [r2, #48]	; 0x30
 800059a:	4b6c      	ldr	r3, [pc, #432]	; (800074c <MX_GPIO_Init+0x1d4>)
 800059c:	6b1b      	ldr	r3, [r3, #48]	; 0x30
 800059e:	f003 0310 	and.w	r3, r3, #16
 80005a2:	623b      	str	r3, [r7, #32]
 80005a4:	6a3b      	ldr	r3, [r7, #32]
  __HAL_RCC_GPIOC_CLK_ENABLE();
 80005a6:	4b69      	ldr	r3, [pc, #420]	; (800074c <MX_GPIO_Init+0x1d4>)
 80005a8:	6b1b      	ldr	r3, [r3, #48]	; 0x30
 80005aa:	4a68      	ldr	r2, [pc, #416]	; (800074c <MX_GPIO_Init+0x1d4>)
 80005ac:	f043 0304 	orr.w	r3, r3, #4
 80005b0:	6313      	str	r3, [r2, #48]	; 0x30
 80005b2:	4b66      	ldr	r3, [pc, #408]	; (800074c <MX_GPIO_Init+0x1d4>)
 80005b4:	6b1b      	ldr	r3, [r3, #48]	; 0x30
 80005b6:	f003 0304 	and.w	r3, r3, #4
 80005ba:	61fb      	str	r3, [r7, #28]
 80005bc:	69fb      	ldr	r3, [r7, #28]
  __HAL_RCC_GPIOF_CLK_ENABLE();
 80005be:	4b63      	ldr	r3, [pc, #396]	; (800074c <MX_GPIO_Init+0x1d4>)
 80005c0:	6b1b      	ldr	r3, [r3, #48]	; 0x30
 80005c2:	4a62      	ldr	r2, [pc, #392]	; (800074c <MX_GPIO_Init+0x1d4>)
 80005c4:	f043 0320 	orr.w	r3, r3, #32
 80005c8:	6313      	str	r3, [r2, #48]	; 0x30
 80005ca:	4b60      	ldr	r3, [pc, #384]	; (800074c <MX_GPIO_Init+0x1d4>)
 80005cc:	6b1b      	ldr	r3, [r3, #48]	; 0x30
 80005ce:	f003 0320 	and.w	r3, r3, #32
 80005d2:	61bb      	str	r3, [r7, #24]
 80005d4:	69bb      	ldr	r3, [r7, #24]
  __HAL_RCC_GPIOH_CLK_ENABLE();
 80005d6:	4b5d      	ldr	r3, [pc, #372]	; (800074c <MX_GPIO_Init+0x1d4>)
 80005d8:	6b1b      	ldr	r3, [r3, #48]	; 0x30
 80005da:	4a5c      	ldr	r2, [pc, #368]	; (800074c <MX_GPIO_Init+0x1d4>)
 80005dc:	f043 0380 	orr.w	r3, r3, #128	; 0x80
 80005e0:	6313      	str	r3, [r2, #48]	; 0x30
 80005e2:	4b5a      	ldr	r3, [pc, #360]	; (800074c <MX_GPIO_Init+0x1d4>)
 80005e4:	6b1b      	ldr	r3, [r3, #48]	; 0x30
 80005e6:	f003 0380 	and.w	r3, r3, #128	; 0x80
 80005ea:	617b      	str	r3, [r7, #20]
 80005ec:	697b      	ldr	r3, [r7, #20]
  __HAL_RCC_GPIOA_CLK_ENABLE();
 80005ee:	4b57      	ldr	r3, [pc, #348]	; (800074c <MX_GPIO_Init+0x1d4>)
 80005f0:	6b1b      	ldr	r3, [r3, #48]	; 0x30
 80005f2:	4a56      	ldr	r2, [pc, #344]	; (800074c <MX_GPIO_Init+0x1d4>)
 80005f4:	f043 0301 	orr.w	r3, r3, #1
 80005f8:	6313      	str	r3, [r2, #48]	; 0x30
 80005fa:	4b54      	ldr	r3, [pc, #336]	; (800074c <MX_GPIO_Init+0x1d4>)
 80005fc:	6b1b      	ldr	r3, [r3, #48]	; 0x30
 80005fe:	f003 0301 	and.w	r3, r3, #1
 8000602:	613b      	str	r3, [r7, #16]
 8000604:	693b      	ldr	r3, [r7, #16]
  __HAL_RCC_GPIOB_CLK_ENABLE();
 8000606:	4b51      	ldr	r3, [pc, #324]	; (800074c <MX_GPIO_Init+0x1d4>)
 8000608:	6b1b      	ldr	r3, [r3, #48]	; 0x30
 800060a:	4a50      	ldr	r2, [pc, #320]	; (800074c <MX_GPIO_Init+0x1d4>)
 800060c:	f043 0302 	orr.w	r3, r3, #2
 8000610:	6313      	str	r3, [r2, #48]	; 0x30
 8000612:	4b4e      	ldr	r3, [pc, #312]	; (800074c <MX_GPIO_Init+0x1d4>)
 8000614:	6b1b      	ldr	r3, [r3, #48]	; 0x30
 8000616:	f003 0302 	and.w	r3, r3, #2
 800061a:	60fb      	str	r3, [r7, #12]
 800061c:	68fb      	ldr	r3, [r7, #12]
  __HAL_RCC_GPIOG_CLK_ENABLE();
 800061e:	4b4b      	ldr	r3, [pc, #300]	; (800074c <MX_GPIO_Init+0x1d4>)
 8000620:	6b1b      	ldr	r3, [r3, #48]	; 0x30
 8000622:	4a4a      	ldr	r2, [pc, #296]	; (800074c <MX_GPIO_Init+0x1d4>)
 8000624:	f043 0340 	orr.w	r3, r3, #64	; 0x40
 8000628:	6313      	str	r3, [r2, #48]	; 0x30
 800062a:	4b48      	ldr	r3, [pc, #288]	; (800074c <MX_GPIO_Init+0x1d4>)
 800062c:	6b1b      	ldr	r3, [r3, #48]	; 0x30
 800062e:	f003 0340 	and.w	r3, r3, #64	; 0x40
 8000632:	60bb      	str	r3, [r7, #8]
 8000634:	68bb      	ldr	r3, [r7, #8]
  __HAL_RCC_GPIOD_CLK_ENABLE();
 8000636:	4b45      	ldr	r3, [pc, #276]	; (800074c <MX_GPIO_Init+0x1d4>)
 8000638:	6b1b      	ldr	r3, [r3, #48]	; 0x30
 800063a:	4a44      	ldr	r2, [pc, #272]	; (800074c <MX_GPIO_Init+0x1d4>)
 800063c:	f043 0308 	orr.w	r3, r3, #8
 8000640:	6313      	str	r3, [r2, #48]	; 0x30
 8000642:	4b42      	ldr	r3, [pc, #264]	; (800074c <MX_GPIO_Init+0x1d4>)
 8000644:	6b1b      	ldr	r3, [r3, #48]	; 0x30
 8000646:	f003 0308 	and.w	r3, r3, #8
 800064a:	607b      	str	r3, [r7, #4]
 800064c:	687b      	ldr	r3, [r7, #4]

  /*Configure GPIO pin Output Level */
  HAL_GPIO_WritePin(LD2_GPIO_Port, LD2_Pin, GPIO_PIN_RESET);
 800064e:	2200      	movs	r2, #0
 8000650:	2180      	movs	r1, #128	; 0x80
 8000652:	483f      	ldr	r0, [pc, #252]	; (8000750 <MX_GPIO_Init+0x1d8>)
 8000654:	f001 fb0c 	bl	8001c70 <HAL_GPIO_WritePin>

  /*Configure GPIO pins : PE2 PE3 PE4 PE5
                           PE6 PE7 PE8 PE9
                           PE10 PE11 PE12 PE13
                           PE14 PE15 PE0 PE1 */
  GPIO_InitStruct.Pin = GPIO_PIN_2|GPIO_PIN_3|GPIO_PIN_4|GPIO_PIN_5
 8000658:	f64f 73ff 	movw	r3, #65535	; 0xffff
 800065c:	627b      	str	r3, [r7, #36]	; 0x24
                          |GPIO_PIN_6|GPIO_PIN_7|GPIO_PIN_8|GPIO_PIN_9
                          |GPIO_PIN_10|GPIO_PIN_11|GPIO_PIN_12|GPIO_PIN_13
                          |GPIO_PIN_14|GPIO_PIN_15|GPIO_PIN_0|GPIO_PIN_1;
  GPIO_InitStruct.Mode = GPIO_MODE_ANALOG;
 800065e:	2303      	movs	r3, #3
 8000660:	62bb      	str	r3, [r7, #40]	; 0x28
  GPIO_InitStruct.Pull = GPIO_NOPULL;
 8000662:	2300      	movs	r3, #0
 8000664:	62fb      	str	r3, [r7, #44]	; 0x2c
  HAL_GPIO_Init(GPIOE, &GPIO_InitStruct);
 8000666:	f107 0324 	add.w	r3, r7, #36	; 0x24
 800066a:	4619      	mov	r1, r3
 800066c:	4839      	ldr	r0, [pc, #228]	; (8000754 <MX_GPIO_Init+0x1dc>)
 800066e:	f001 f953 	bl	8001918 <HAL_GPIO_Init>

  /*Configure GPIO pins : PC13 PC14 PC15 PC0
                           PC1 PC2 PC3 PC4
                           PC5 PC6 PC7 PC8
                           PC9 PC10 PC11 PC12 */
  GPIO_InitStruct.Pin = GPIO_PIN_13|GPIO_PIN_14|GPIO_PIN_15|GPIO_PIN_0
 8000672:	f64f 73ff 	movw	r3, #65535	; 0xffff
 8000676:	627b      	str	r3, [r7, #36]	; 0x24
                          |GPIO_PIN_1|GPIO_PIN_2|GPIO_PIN_3|GPIO_PIN_4
                          |GPIO_PIN_5|GPIO_PIN_6|GPIO_PIN_7|GPIO_PIN_8
                          |GPIO_PIN_9|GPIO_PIN_10|GPIO_PIN_11|GPIO_PIN_12;
  GPIO_InitStruct.Mode = GPIO_MODE_ANALOG;
 8000678:	2303      	movs	r3, #3
 800067a:	62bb      	str	r3, [r7, #40]	; 0x28
  GPIO_InitStruct.Pull = GPIO_NOPULL;
 800067c:	2300      	movs	r3, #0
 800067e:	62fb      	str	r3, [r7, #44]	; 0x2c
  HAL_GPIO_Init(GPIOC, &GPIO_InitStruct);
 8000680:	f107 0324 	add.w	r3, r7, #36	; 0x24
 8000684:	4619      	mov	r1, r3
 8000686:	4834      	ldr	r0, [pc, #208]	; (8000758 <MX_GPIO_Init+0x1e0>)
 8000688:	f001 f946 	bl	8001918 <HAL_GPIO_Init>

  /*Configure GPIO pins : PF0 PF1 PF2 PF3
                           PF4 PF5 PF6 PF7
                           PF8 PF9 PF10 PF11
                           PF12 PF13 PF14 PF15 */
  GPIO_InitStruct.Pin = GPIO_PIN_0|GPIO_PIN_1|GPIO_PIN_2|GPIO_PIN_3
 800068c:	f64f 73ff 	movw	r3, #65535	; 0xffff
 8000690:	627b      	str	r3, [r7, #36]	; 0x24
                          |GPIO_PIN_4|GPIO_PIN_5|GPIO_PIN_6|GPIO_PIN_7
                          |GPIO_PIN_8|GPIO_PIN_9|GPIO_PIN_10|GPIO_PIN_11
                          |GPIO_PIN_12|GPIO_PIN_13|GPIO_PIN_14|GPIO_PIN_15;
  GPIO_InitStruct.Mode = GPIO_MODE_ANALOG;
 8000692:	2303      	movs	r3, #3
 8000694:	62bb      	str	r3, [r7, #40]	; 0x28
  GPIO_InitStruct.Pull = GPIO_NOPULL;
 8000696:	2300      	movs	r3, #0
 8000698:	62fb      	str	r3, [r7, #44]	; 0x2c
  HAL_GPIO_Init(GPIOF, &GPIO_InitStruct);
 800069a:	f107 0324 	add.w	r3, r7, #36	; 0x24
 800069e:	4619      	mov	r1, r3
 80006a0:	482e      	ldr	r0, [pc, #184]	; (800075c <MX_GPIO_Init+0x1e4>)
 80006a2:	f001 f939 	bl	8001918 <HAL_GPIO_Init>

  /*Configure GPIO pins : PH0 PH1 */
  GPIO_InitStruct.Pin = GPIO_PIN_0|GPIO_PIN_1;
 80006a6:	2303      	movs	r3, #3
 80006a8:	627b      	str	r3, [r7, #36]	; 0x24
  GPIO_InitStruct.Mode = GPIO_MODE_ANALOG;
 80006aa:	2303      	movs	r3, #3
 80006ac:	62bb      	str	r3, [r7, #40]	; 0x28
  GPIO_InitStruct.Pull = GPIO_NOPULL;
 80006ae:	2300      	movs	r3, #0
 80006b0:	62fb      	str	r3, [r7, #44]	; 0x2c
  HAL_GPIO_Init(GPIOH, &GPIO_InitStruct);
 80006b2:	f107 0324 	add.w	r3, r7, #36	; 0x24
 80006b6:	4619      	mov	r1, r3
 80006b8:	4829      	ldr	r0, [pc, #164]	; (8000760 <MX_GPIO_Init+0x1e8>)
 80006ba:	f001 f92d 	bl	8001918 <HAL_GPIO_Init>

  /*Configure GPIO pins : PA0 PA1 PA2 PA3
                           PA4 PA5 PA6 PA7
                           PA8 PA9 PA10 PA11
                           PA12 PA15 */
  GPIO_InitStruct.Pin = GPIO_PIN_0|GPIO_PIN_1|GPIO_PIN_2|GPIO_PIN_3
 80006be:	f649 73ff 	movw	r3, #40959	; 0x9fff
 80006c2:	627b      	str	r3, [r7, #36]	; 0x24
                          |GPIO_PIN_4|GPIO_PIN_5|GPIO_PIN_6|GPIO_PIN_7
                          |GPIO_PIN_8|GPIO_PIN_9|GPIO_PIN_10|GPIO_PIN_11
                          |GPIO_PIN_12|GPIO_PIN_15;
  GPIO_InitStruct.Mode = GPIO_MODE_ANALOG;
 80006c4:	2303      	movs	r3, #3
 80006c6:	62bb      	str	r3, [r7, #40]	; 0x28
  GPIO_InitStruct.Pull = GPIO_NOPULL;
 80006c8:	2300      	movs	r3, #0
 80006ca:	62fb      	str	r3, [r7, #44]	; 0x2c
  HAL_GPIO_Init(GPIOA, &GPIO_InitStruct);
 80006cc:	f107 0324 	add.w	r3, r7, #36	; 0x24
 80006d0:	4619      	mov	r1, r3
 80006d2:	4824      	ldr	r0, [pc, #144]	; (8000764 <MX_GPIO_Init+0x1ec>)
 80006d4:	f001 f920 	bl	8001918 <HAL_GPIO_Init>

  /*Configure GPIO pins : PB0 PB1 PB2 PB10
                           PB11 PB12 PB13 PB14
                           PB15 PB3 PB4 PB5
                           PB6 PB8 PB9 */
  GPIO_InitStruct.Pin = GPIO_PIN_0|GPIO_PIN_1|GPIO_PIN_2|GPIO_PIN_10
 80006d8:	f64f 737f 	movw	r3, #65407	; 0xff7f
 80006dc:	627b      	str	r3, [r7, #36]	; 0x24
                          |GPIO_PIN_11|GPIO_PIN_12|GPIO_PIN_13|GPIO_PIN_14
                          |GPIO_PIN_15|GPIO_PIN_3|GPIO_PIN_4|GPIO_PIN_5
                          |GPIO_PIN_6|GPIO_PIN_8|GPIO_PIN_9;
  GPIO_InitStruct.Mode = GPIO_MODE_ANALOG;
 80006de:	2303      	movs	r3, #3
 80006e0:	62bb      	str	r3, [r7, #40]	; 0x28
  GPIO_InitStruct.Pull = GPIO_NOPULL;
 80006e2:	2300      	movs	r3, #0
 80006e4:	62fb      	str	r3, [r7, #44]	; 0x2c
  HAL_GPIO_Init(GPIOB, &GPIO_InitStruct);
 80006e6:	f107 0324 	add.w	r3, r7, #36	; 0x24
 80006ea:	4619      	mov	r1, r3
 80006ec:	4818      	ldr	r0, [pc, #96]	; (8000750 <MX_GPIO_Init+0x1d8>)
 80006ee:	f001 f913 	bl	8001918 <HAL_GPIO_Init>

  /*Configure GPIO pins : PG0 PG1 PG2 PG3
                           PG4 PG5 PG6 PG7
                           PG8 PG9 PG10 PG11
                           PG12 PG13 PG14 PG15 */
  GPIO_InitStruct.Pin = GPIO_PIN_0|GPIO_PIN_1|GPIO_PIN_2|GPIO_PIN_3
 80006f2:	f64f 73ff 	movw	r3, #65535	; 0xffff
 80006f6:	627b      	str	r3, [r7, #36]	; 0x24
                          |GPIO_PIN_4|GPIO_PIN_5|GPIO_PIN_6|GPIO_PIN_7
                          |GPIO_PIN_8|GPIO_PIN_9|GPIO_PIN_10|GPIO_PIN_11
                          |GPIO_PIN_12|GPIO_PIN_13|GPIO_PIN_14|GPIO_PIN_15;
  GPIO_InitStruct.Mode = GPIO_MODE_ANALOG;
 80006f8:	2303      	movs	r3, #3
 80006fa:	62bb      	str	r3, [r7, #40]	; 0x28
  GPIO_InitStruct.Pull = GPIO_NOPULL;
 80006fc:	2300      	movs	r3, #0
 80006fe:	62fb      	str	r3, [r7, #44]	; 0x2c
  HAL_GPIO_Init(GPIOG, &GPIO_InitStruct);
 8000700:	f107 0324 	add.w	r3, r7, #36	; 0x24
 8000704:	4619      	mov	r1, r3
 8000706:	4818      	ldr	r0, [pc, #96]	; (8000768 <MX_GPIO_Init+0x1f0>)
 8000708:	f001 f906 	bl	8001918 <HAL_GPIO_Init>

  /*Configure GPIO pins : PD10 PD11 PD12 PD13
                           PD14 PD15 PD0 PD1
                           PD2 PD3 PD4 PD5
                           PD6 PD7 */
  GPIO_InitStruct.Pin = GPIO_PIN_10|GPIO_PIN_11|GPIO_PIN_12|GPIO_PIN_13
 800070c:	f64f 43ff 	movw	r3, #64767	; 0xfcff
 8000710:	627b      	str	r3, [r7, #36]	; 0x24
                          |GPIO_PIN_14|GPIO_PIN_15|GPIO_PIN_0|GPIO_PIN_1
                          |GPIO_PIN_2|GPIO_PIN_3|GPIO_PIN_4|GPIO_PIN_5
                          |GPIO_PIN_6|GPIO_PIN_7;
  GPIO_InitStruct.Mode = GPIO_MODE_ANALOG;
 8000712:	2303      	movs	r3, #3
 8000714:	62bb      	str	r3, [r7, #40]	; 0x28
  GPIO_InitStruct.Pull = GPIO_NOPULL;
 8000716:	2300      	movs	r3, #0
 8000718:	62fb      	str	r3, [r7, #44]	; 0x2c
  HAL_GPIO_Init(GPIOD, &GPIO_InitStruct);
 800071a:	f107 0324 	add.w	r3, r7, #36	; 0x24
 800071e:	4619      	mov	r1, r3
 8000720:	4812      	ldr	r0, [pc, #72]	; (800076c <MX_GPIO_Init+0x1f4>)
 8000722:	f001 f8f9 	bl	8001918 <HAL_GPIO_Init>

  /*Configure GPIO pin : PtPin */
  GPIO_InitStruct.Pin = LD2_Pin;
 8000726:	2380      	movs	r3, #128	; 0x80
 8000728:	627b      	str	r3, [r7, #36]	; 0x24
  GPIO_InitStruct.Mode = GPIO_MODE_OUTPUT_PP;
 800072a:	2301      	movs	r3, #1
 800072c:	62bb      	str	r3, [r7, #40]	; 0x28
  GPIO_InitStruct.Pull = GPIO_NOPULL;
 800072e:	2300      	movs	r3, #0
 8000730:	62fb      	str	r3, [r7, #44]	; 0x2c
  GPIO_InitStruct.Speed = GPIO_SPEED_FREQ_LOW;
 8000732:	2300      	movs	r3, #0
 8000734:	633b      	str	r3, [r7, #48]	; 0x30
  HAL_GPIO_Init(LD2_GPIO_Port, &GPIO_InitStruct);
 8000736:	f107 0324 	add.w	r3, r7, #36	; 0x24
 800073a:	4619      	mov	r1, r3
 800073c:	4804      	ldr	r0, [pc, #16]	; (8000750 <MX_GPIO_Init+0x1d8>)
 800073e:	f001 f8eb 	bl	8001918 <HAL_GPIO_Init>

}
 8000742:	bf00      	nop
 8000744:	3738      	adds	r7, #56	; 0x38
 8000746:	46bd      	mov	sp, r7
 8000748:	bd80      	pop	{r7, pc}
 800074a:	bf00      	nop
 800074c:	40023800 	.word	0x40023800
 8000750:	40020400 	.word	0x40020400
 8000754:	40021000 	.word	0x40021000
 8000758:	40020800 	.word	0x40020800
 800075c:	40021400 	.word	0x40021400
 8000760:	40021c00 	.word	0x40021c00
 8000764:	40020000 	.word	0x40020000
 8000768:	40021800 	.word	0x40021800
 800076c:	40020c00 	.word	0x40020c00

08000770 <main>:
/**
  * @brief  The application entry point.
  * @retval int
  */
int main(void)
{
 8000770:	b580      	push	{r7, lr}
 8000772:	b0a0      	sub	sp, #128	; 0x80
 8000774:	af00      	add	r7, sp, #0
  /* USER CODE END 1 */

  /* MCU Configuration--------------------------------------------------------*/

  /* Reset of all peripherals, Initializes the Flash interface and the Systick. */
  HAL_Init();
 8000776:	f000 fb56 	bl	8000e26 <HAL_Init>
  /* USER CODE BEGIN Init */

  /* USER CODE END Init */

  /* Configure the system clock */
  SystemClock_Config();
 800077a:	f000 f881 	bl	8000880 <SystemClock_Config>
  /* USER CODE BEGIN SysInit */

  /* USER CODE END SysInit */

  /* Initialize all configured peripherals */
  MX_GPIO_Init();
 800077e:	f7ff fefb 	bl	8000578 <MX_GPIO_Init>
  MX_DMA_Init();
 8000782:	f7ff fedb 	bl	800053c <MX_DMA_Init>
  MX_USART3_UART_Init();
 8000786:	f000 f9fb 	bl	8000b80 <MX_USART3_UART_Init>
  MX_TIM2_Init();
 800078a:	f000 f961 	bl	8000a50 <MX_TIM2_Init>
  /* USER CODE BEGIN 2 */
  CMY_TIM_ENABLE();
 800078e:	f000 f9cb 	bl	8000b28 <CMY_TIM_ENABLE>
  CMY_UART_RX_ENABLE();
 8000792:	f000 fac1 	bl	8000d18 <CMY_UART_RX_ENABLE>
  /* Infinite loop */
  /* USER CODE BEGIN WHILE */
  static uint32_t LD2Time;
  static uint32_t uartTime;

  uint8_t cnt = 0;
 8000796:	2300      	movs	r3, #0
 8000798:	f887 307f 	strb.w	r3, [r7, #127]	; 0x7f
  int8_t sineWave[100];
  double angle;
  for (int i = 0; i < 100; i++) {
 800079c:	2300      	movs	r3, #0
 800079e:	67bb      	str	r3, [r7, #120]	; 0x78
 80007a0:	e029      	b.n	80007f6 <main+0x86>
#if 1
	  // 计算角度，这里使用i作为输入，假设周期为100点
	  angle = (double)i * 2 * M_PI / 100;
 80007a2:	6fbb      	ldr	r3, [r7, #120]	; 0x78
 80007a4:	ee07 3a90 	vmov	s15, r3
 80007a8:	eeb8 7be7 	vcvt.f64.s32	d7, s15
 80007ac:	ee37 7b07 	vadd.f64	d7, d7, d7
 80007b0:	ed9f 6b29 	vldr	d6, [pc, #164]	; 8000858 <main+0xe8>
 80007b4:	ee27 6b06 	vmul.f64	d6, d7, d6
 80007b8:	ed9f 5b29 	vldr	d5, [pc, #164]	; 8000860 <main+0xf0>
 80007bc:	ee86 7b05 	vdiv.f64	d7, d6, d5
 80007c0:	ed87 7b1c 	vstr	d7, [r7, #112]	; 0x70
	  // 使用sin()函数计算正弦值
	  sineWave[i] = 127 * sin(angle);
 80007c4:	ed97 0b1c 	vldr	d0, [r7, #112]	; 0x70
 80007c8:	f004 f9ca 	bl	8004b60 <sin>
 80007cc:	eeb0 7b40 	vmov.f64	d7, d0
 80007d0:	ed9f 6b25 	vldr	d6, [pc, #148]	; 8000868 <main+0xf8>
 80007d4:	ee27 7b06 	vmul.f64	d7, d7, d6
 80007d8:	eefd 7bc7 	vcvt.s32.f64	s15, d7
 80007dc:	edc7 7a01 	vstr	s15, [r7, #4]
 80007e0:	793b      	ldrb	r3, [r7, #4]
 80007e2:	b259      	sxtb	r1, r3
 80007e4:	f107 020c 	add.w	r2, r7, #12
 80007e8:	6fbb      	ldr	r3, [r7, #120]	; 0x78
 80007ea:	4413      	add	r3, r2
 80007ec:	460a      	mov	r2, r1
 80007ee:	701a      	strb	r2, [r3, #0]
  for (int i = 0; i < 100; i++) {
 80007f0:	6fbb      	ldr	r3, [r7, #120]	; 0x78
 80007f2:	3301      	adds	r3, #1
 80007f4:	67bb      	str	r3, [r7, #120]	; 0x78
 80007f6:	6fbb      	ldr	r3, [r7, #120]	; 0x78
 80007f8:	2b63      	cmp	r3, #99	; 0x63
 80007fa:	ddd2      	ble.n	80007a2 <main+0x32>
  while (1)
  {
    /* USER CODE END WHILE */

    /* USER CODE BEGIN 3 */
	  if (!CMY_cycle(&LD2Time, 100000)) {
 80007fc:	491c      	ldr	r1, [pc, #112]	; (8000870 <main+0x100>)
 80007fe:	481d      	ldr	r0, [pc, #116]	; (8000874 <main+0x104>)
 8000800:	f000 f99c 	bl	8000b3c <CMY_cycle>
 8000804:	4603      	mov	r3, r0
 8000806:	2b00      	cmp	r3, #0
 8000808:	d103      	bne.n	8000812 <main+0xa2>
		  HAL_GPIO_TogglePin(LD2_GPIO_Port, LD2_Pin);
 800080a:	2180      	movs	r1, #128	; 0x80
 800080c:	481a      	ldr	r0, [pc, #104]	; (8000878 <main+0x108>)
 800080e:	f001 fa48 	bl	8001ca2 <HAL_GPIO_TogglePin>
	  }
	  if (!CMY_cycle(&uartTime, 10000)) {
 8000812:	f242 7110 	movw	r1, #10000	; 0x2710
 8000816:	4819      	ldr	r0, [pc, #100]	; (800087c <main+0x10c>)
 8000818:	f000 f990 	bl	8000b3c <CMY_cycle>
 800081c:	4603      	mov	r3, r0
 800081e:	2b00      	cmp	r3, #0
 8000820:	d1ec      	bne.n	80007fc <main+0x8c>
		  if(!getPlotEnable()){
 8000822:	f000 facb 	bl	8000dbc <getPlotEnable>
 8000826:	4603      	mov	r3, r0
 8000828:	2b00      	cmp	r3, #0
 800082a:	d1e7      	bne.n	80007fc <main+0x8c>
			  CMY_UART_TX((uint8_t *)&sineWave[cnt], 1);
 800082c:	f897 307f 	ldrb.w	r3, [r7, #127]	; 0x7f
 8000830:	f107 020c 	add.w	r2, r7, #12
 8000834:	4413      	add	r3, r2
 8000836:	2101      	movs	r1, #1
 8000838:	4618      	mov	r0, r3
 800083a:	f000 fa7b 	bl	8000d34 <CMY_UART_TX>
			  cnt++;
 800083e:	f897 307f 	ldrb.w	r3, [r7, #127]	; 0x7f
 8000842:	3301      	adds	r3, #1
 8000844:	f887 307f 	strb.w	r3, [r7, #127]	; 0x7f
			  if (cnt >= 100) {cnt = 0;}
 8000848:	f897 307f 	ldrb.w	r3, [r7, #127]	; 0x7f
 800084c:	2b63      	cmp	r3, #99	; 0x63
 800084e:	d9d5      	bls.n	80007fc <main+0x8c>
 8000850:	2300      	movs	r3, #0
 8000852:	f887 307f 	strb.w	r3, [r7, #127]	; 0x7f
	  if (!CMY_cycle(&LD2Time, 100000)) {
 8000856:	e7d1      	b.n	80007fc <main+0x8c>
 8000858:	54442d18 	.word	0x54442d18
 800085c:	400921fb 	.word	0x400921fb
 8000860:	00000000 	.word	0x00000000
 8000864:	40590000 	.word	0x40590000
 8000868:	00000000 	.word	0x00000000
 800086c:	405fc000 	.word	0x405fc000
 8000870:	000186a0 	.word	0x000186a0
 8000874:	2000002c 	.word	0x2000002c
 8000878:	40020400 	.word	0x40020400
 800087c:	20000030 	.word	0x20000030

08000880 <SystemClock_Config>:
/**
  * @brief System Clock Configuration
  * @retval None
  */
void SystemClock_Config(void)
{
 8000880:	b580      	push	{r7, lr}
 8000882:	b094      	sub	sp, #80	; 0x50
 8000884:	af00      	add	r7, sp, #0
  RCC_OscInitTypeDef RCC_OscInitStruct = {0};
 8000886:	f107 031c 	add.w	r3, r7, #28
 800088a:	2234      	movs	r2, #52	; 0x34
 800088c:	2100      	movs	r1, #0
 800088e:	4618      	mov	r0, r3
 8000890:	f004 f95e 	bl	8004b50 <memset>
  RCC_ClkInitTypeDef RCC_ClkInitStruct = {0};
 8000894:	f107 0308 	add.w	r3, r7, #8
 8000898:	2200      	movs	r2, #0
 800089a:	601a      	str	r2, [r3, #0]
 800089c:	605a      	str	r2, [r3, #4]
 800089e:	609a      	str	r2, [r3, #8]
 80008a0:	60da      	str	r2, [r3, #12]
 80008a2:	611a      	str	r2, [r3, #16]

  /** Configure the main internal regulator output voltage
  */
  __HAL_RCC_PWR_CLK_ENABLE();
 80008a4:	4b2b      	ldr	r3, [pc, #172]	; (8000954 <SystemClock_Config+0xd4>)
 80008a6:	6c1b      	ldr	r3, [r3, #64]	; 0x40
 80008a8:	4a2a      	ldr	r2, [pc, #168]	; (8000954 <SystemClock_Config+0xd4>)
 80008aa:	f043 5380 	orr.w	r3, r3, #268435456	; 0x10000000
 80008ae:	6413      	str	r3, [r2, #64]	; 0x40
 80008b0:	4b28      	ldr	r3, [pc, #160]	; (8000954 <SystemClock_Config+0xd4>)
 80008b2:	6c1b      	ldr	r3, [r3, #64]	; 0x40
 80008b4:	f003 5380 	and.w	r3, r3, #268435456	; 0x10000000
 80008b8:	607b      	str	r3, [r7, #4]
 80008ba:	687b      	ldr	r3, [r7, #4]
  __HAL_PWR_VOLTAGESCALING_CONFIG(PWR_REGULATOR_VOLTAGE_SCALE1);
 80008bc:	4b26      	ldr	r3, [pc, #152]	; (8000958 <SystemClock_Config+0xd8>)
 80008be:	681b      	ldr	r3, [r3, #0]
 80008c0:	4a25      	ldr	r2, [pc, #148]	; (8000958 <SystemClock_Config+0xd8>)
 80008c2:	f443 4340 	orr.w	r3, r3, #49152	; 0xc000
 80008c6:	6013      	str	r3, [r2, #0]
 80008c8:	4b23      	ldr	r3, [pc, #140]	; (8000958 <SystemClock_Config+0xd8>)
 80008ca:	681b      	ldr	r3, [r3, #0]
 80008cc:	f403 4340 	and.w	r3, r3, #49152	; 0xc000
 80008d0:	603b      	str	r3, [r7, #0]
 80008d2:	683b      	ldr	r3, [r7, #0]

  /** Initializes the RCC Oscillators according to the specified parameters
  * in the RCC_OscInitTypeDef structure.
  */
  RCC_OscInitStruct.OscillatorType = RCC_OSCILLATORTYPE_HSI;
 80008d4:	2302      	movs	r3, #2
 80008d6:	61fb      	str	r3, [r7, #28]
  RCC_OscInitStruct.HSIState = RCC_HSI_ON;
 80008d8:	2301      	movs	r3, #1
 80008da:	62bb      	str	r3, [r7, #40]	; 0x28
  RCC_OscInitStruct.HSICalibrationValue = RCC_HSICALIBRATION_DEFAULT;
 80008dc:	2310      	movs	r3, #16
 80008de:	62fb      	str	r3, [r7, #44]	; 0x2c
  RCC_OscInitStruct.PLL.PLLState = RCC_PLL_ON;
 80008e0:	2302      	movs	r3, #2
 80008e2:	637b      	str	r3, [r7, #52]	; 0x34
  RCC_OscInitStruct.PLL.PLLSource = RCC_PLLSOURCE_HSI;
 80008e4:	2300      	movs	r3, #0
 80008e6:	63bb      	str	r3, [r7, #56]	; 0x38
  RCC_OscInitStruct.PLL.PLLM = 8;
 80008e8:	2308      	movs	r3, #8
 80008ea:	63fb      	str	r3, [r7, #60]	; 0x3c
  RCC_OscInitStruct.PLL.PLLN = 216;
 80008ec:	23d8      	movs	r3, #216	; 0xd8
 80008ee:	643b      	str	r3, [r7, #64]	; 0x40
  RCC_OscInitStruct.PLL.PLLP = RCC_PLLP_DIV2;
 80008f0:	2302      	movs	r3, #2
 80008f2:	647b      	str	r3, [r7, #68]	; 0x44
  RCC_OscInitStruct.PLL.PLLQ = 2;
 80008f4:	2302      	movs	r3, #2
 80008f6:	64bb      	str	r3, [r7, #72]	; 0x48
  RCC_OscInitStruct.PLL.PLLR = 2;
 80008f8:	2302      	movs	r3, #2
 80008fa:	64fb      	str	r3, [r7, #76]	; 0x4c
  if (HAL_RCC_OscConfig(&RCC_OscInitStruct) != HAL_OK)
 80008fc:	f107 031c 	add.w	r3, r7, #28
 8000900:	4618      	mov	r0, r3
 8000902:	f001 fa39 	bl	8001d78 <HAL_RCC_OscConfig>
 8000906:	4603      	mov	r3, r0
 8000908:	2b00      	cmp	r3, #0
 800090a:	d001      	beq.n	8000910 <SystemClock_Config+0x90>
  {
    Error_Handler();
 800090c:	f000 f826 	bl	800095c <Error_Handler>
  }

  /** Activate the Over-Drive mode
  */
  if (HAL_PWREx_EnableOverDrive() != HAL_OK)
 8000910:	f001 f9e2 	bl	8001cd8 <HAL_PWREx_EnableOverDrive>
 8000914:	4603      	mov	r3, r0
 8000916:	2b00      	cmp	r3, #0
 8000918:	d001      	beq.n	800091e <SystemClock_Config+0x9e>
  {
    Error_Handler();
 800091a:	f000 f81f 	bl	800095c <Error_Handler>
  }

  /** Initializes the CPU, AHB and APB buses clocks
  */
  RCC_ClkInitStruct.ClockType = RCC_CLOCKTYPE_HCLK|RCC_CLOCKTYPE_SYSCLK
 800091e:	230f      	movs	r3, #15
 8000920:	60bb      	str	r3, [r7, #8]
                              |RCC_CLOCKTYPE_PCLK1|RCC_CLOCKTYPE_PCLK2;
  RCC_ClkInitStruct.SYSCLKSource = RCC_SYSCLKSOURCE_PLLCLK;
 8000922:	2302      	movs	r3, #2
 8000924:	60fb      	str	r3, [r7, #12]
  RCC_ClkInitStruct.AHBCLKDivider = RCC_SYSCLK_DIV1;
 8000926:	2300      	movs	r3, #0
 8000928:	613b      	str	r3, [r7, #16]
  RCC_ClkInitStruct.APB1CLKDivider = RCC_HCLK_DIV4;
 800092a:	f44f 53a0 	mov.w	r3, #5120	; 0x1400
 800092e:	617b      	str	r3, [r7, #20]
  RCC_ClkInitStruct.APB2CLKDivider = RCC_HCLK_DIV2;
 8000930:	f44f 5380 	mov.w	r3, #4096	; 0x1000
 8000934:	61bb      	str	r3, [r7, #24]

  if (HAL_RCC_ClockConfig(&RCC_ClkInitStruct, FLASH_LATENCY_7) != HAL_OK)
 8000936:	f107 0308 	add.w	r3, r7, #8
 800093a:	2107      	movs	r1, #7
 800093c:	4618      	mov	r0, r3
 800093e:	f001 fcc9 	bl	80022d4 <HAL_RCC_ClockConfig>
 8000942:	4603      	mov	r3, r0
 8000944:	2b00      	cmp	r3, #0
 8000946:	d001      	beq.n	800094c <SystemClock_Config+0xcc>
  {
    Error_Handler();
 8000948:	f000 f808 	bl	800095c <Error_Handler>
  }
}
 800094c:	bf00      	nop
 800094e:	3750      	adds	r7, #80	; 0x50
 8000950:	46bd      	mov	sp, r7
 8000952:	bd80      	pop	{r7, pc}
 8000954:	40023800 	.word	0x40023800
 8000958:	40007000 	.word	0x40007000

0800095c <Error_Handler>:
/**
  * @brief  This function is executed in case of error occurrence.
  * @retval None
  */
void Error_Handler(void)
{
 800095c:	b480      	push	{r7}
 800095e:	af00      	add	r7, sp, #0
  \details Disables IRQ interrupts by setting the I-bit in the CPSR.
           Can only be executed in Privileged modes.
 */
__STATIC_FORCEINLINE void __disable_irq(void)
{
  __ASM volatile ("cpsid i" : : : "memory");
 8000960:	b672      	cpsid	i
}
 8000962:	bf00      	nop
  /* USER CODE BEGIN Error_Handler_Debug */
  /* User can add his own implementation to report the HAL error return state */
  __disable_irq();
  while (1)
 8000964:	e7fe      	b.n	8000964 <Error_Handler+0x8>
	...

08000968 <HAL_MspInit>:
/* USER CODE END 0 */
/**
  * Initializes the Global MSP.
  */
void HAL_MspInit(void)
{
 8000968:	b480      	push	{r7}
 800096a:	b083      	sub	sp, #12
 800096c:	af00      	add	r7, sp, #0
  /* USER CODE BEGIN MspInit 0 */

  /* USER CODE END MspInit 0 */

  __HAL_RCC_PWR_CLK_ENABLE();
 800096e:	4b0f      	ldr	r3, [pc, #60]	; (80009ac <HAL_MspInit+0x44>)
 8000970:	6c1b      	ldr	r3, [r3, #64]	; 0x40
 8000972:	4a0e      	ldr	r2, [pc, #56]	; (80009ac <HAL_MspInit+0x44>)
 8000974:	f043 5380 	orr.w	r3, r3, #268435456	; 0x10000000
 8000978:	6413      	str	r3, [r2, #64]	; 0x40
 800097a:	4b0c      	ldr	r3, [pc, #48]	; (80009ac <HAL_MspInit+0x44>)
 800097c:	6c1b      	ldr	r3, [r3, #64]	; 0x40
 800097e:	f003 5380 	and.w	r3, r3, #268435456	; 0x10000000
 8000982:	607b      	str	r3, [r7, #4]
 8000984:	687b      	ldr	r3, [r7, #4]
  __HAL_RCC_SYSCFG_CLK_ENABLE();
 8000986:	4b09      	ldr	r3, [pc, #36]	; (80009ac <HAL_MspInit+0x44>)
 8000988:	6c5b      	ldr	r3, [r3, #68]	; 0x44
 800098a:	4a08      	ldr	r2, [pc, #32]	; (80009ac <HAL_MspInit+0x44>)
 800098c:	f443 4380 	orr.w	r3, r3, #16384	; 0x4000
 8000990:	6453      	str	r3, [r2, #68]	; 0x44
 8000992:	4b06      	ldr	r3, [pc, #24]	; (80009ac <HAL_MspInit+0x44>)
 8000994:	6c5b      	ldr	r3, [r3, #68]	; 0x44
 8000996:	f403 4380 	and.w	r3, r3, #16384	; 0x4000
 800099a:	603b      	str	r3, [r7, #0]
 800099c:	683b      	ldr	r3, [r7, #0]
  /* System interrupt init*/

  /* USER CODE BEGIN MspInit 1 */

  /* USER CODE END MspInit 1 */
}
 800099e:	bf00      	nop
 80009a0:	370c      	adds	r7, #12
 80009a2:	46bd      	mov	sp, r7
 80009a4:	f85d 7b04 	ldr.w	r7, [sp], #4
 80009a8:	4770      	bx	lr
 80009aa:	bf00      	nop
 80009ac:	40023800 	.word	0x40023800

080009b0 <NMI_Handler>:
/******************************************************************************/
/**
  * @brief This function handles Non maskable interrupt.
  */
void NMI_Handler(void)
{
 80009b0:	b480      	push	{r7}
 80009b2:	af00      	add	r7, sp, #0
  /* USER CODE BEGIN NonMaskableInt_IRQn 0 */

  /* USER CODE END NonMaskableInt_IRQn 0 */
  /* USER CODE BEGIN NonMaskableInt_IRQn 1 */
  while (1)
 80009b4:	e7fe      	b.n	80009b4 <NMI_Handler+0x4>

080009b6 <HardFault_Handler>:

/**
  * @brief This function handles Hard fault interrupt.
  */
void HardFault_Handler(void)
{
 80009b6:	b480      	push	{r7}
 80009b8:	af00      	add	r7, sp, #0
  /* USER CODE BEGIN HardFault_IRQn 0 */

  /* USER CODE END HardFault_IRQn 0 */
  while (1)
 80009ba:	e7fe      	b.n	80009ba <HardFault_Handler+0x4>

080009bc <MemManage_Handler>:

/**
  * @brief This function handles Memory management fault.
  */
void MemManage_Handler(void)
{
 80009bc:	b480      	push	{r7}
 80009be:	af00      	add	r7, sp, #0
  /* USER CODE BEGIN MemoryManagement_IRQn 0 */

  /* USER CODE END MemoryManagement_IRQn 0 */
  while (1)
 80009c0:	e7fe      	b.n	80009c0 <MemManage_Handler+0x4>

080009c2 <BusFault_Handler>:

/**
  * @brief This function handles Pre-fetch fault, memory access fault.
  */
void BusFault_Handler(void)
{
 80009c2:	b480      	push	{r7}
 80009c4:	af00      	add	r7, sp, #0
  /* USER CODE BEGIN BusFault_IRQn 0 */

  /* USER CODE END BusFault_IRQn 0 */
  while (1)
 80009c6:	e7fe      	b.n	80009c6 <BusFault_Handler+0x4>

080009c8 <UsageFault_Handler>:

/**
  * @brief This function handles Undefined instruction or illegal state.
  */
void UsageFault_Handler(void)
{
 80009c8:	b480      	push	{r7}
 80009ca:	af00      	add	r7, sp, #0
  /* USER CODE BEGIN UsageFault_IRQn 0 */

  /* USER CODE END UsageFault_IRQn 0 */
  while (1)
 80009cc:	e7fe      	b.n	80009cc <UsageFault_Handler+0x4>

080009ce <SVC_Handler>:

/**
  * @brief This function handles System service call via SWI instruction.
  */
void SVC_Handler(void)
{
 80009ce:	b480      	push	{r7}
 80009d0:	af00      	add	r7, sp, #0

  /* USER CODE END SVCall_IRQn 0 */
  /* USER CODE BEGIN SVCall_IRQn 1 */

  /* USER CODE END SVCall_IRQn 1 */
}
 80009d2:	bf00      	nop
 80009d4:	46bd      	mov	sp, r7
 80009d6:	f85d 7b04 	ldr.w	r7, [sp], #4
 80009da:	4770      	bx	lr

080009dc <DebugMon_Handler>:

/**
  * @brief This function handles Debug monitor.
  */
void DebugMon_Handler(void)
{
 80009dc:	b480      	push	{r7}
 80009de:	af00      	add	r7, sp, #0

  /* USER CODE END DebugMonitor_IRQn 0 */
  /* USER CODE BEGIN DebugMonitor_IRQn 1 */

  /* USER CODE END DebugMonitor_IRQn 1 */
}
 80009e0:	bf00      	nop
 80009e2:	46bd      	mov	sp, r7
 80009e4:	f85d 7b04 	ldr.w	r7, [sp], #4
 80009e8:	4770      	bx	lr

080009ea <PendSV_Handler>:

/**
  * @brief This function handles Pendable request for system service.
  */
void PendSV_Handler(void)
{
 80009ea:	b480      	push	{r7}
 80009ec:	af00      	add	r7, sp, #0

  /* USER CODE END PendSV_IRQn 0 */
  /* USER CODE BEGIN PendSV_IRQn 1 */

  /* USER CODE END PendSV_IRQn 1 */
}
 80009ee:	bf00      	nop
 80009f0:	46bd      	mov	sp, r7
 80009f2:	f85d 7b04 	ldr.w	r7, [sp], #4
 80009f6:	4770      	bx	lr

080009f8 <SysTick_Handler>:

/**
  * @brief This function handles System tick timer.
  */
void SysTick_Handler(void)
{
 80009f8:	b580      	push	{r7, lr}
 80009fa:	af00      	add	r7, sp, #0
  /* USER CODE BEGIN SysTick_IRQn 0 */

  /* USER CODE END SysTick_IRQn 0 */
  HAL_IncTick();
 80009fc:	f000 fa50 	bl	8000ea0 <HAL_IncTick>
  /* USER CODE BEGIN SysTick_IRQn 1 */

  /* USER CODE END SysTick_IRQn 1 */
}
 8000a00:	bf00      	nop
 8000a02:	bd80      	pop	{r7, pc}

08000a04 <DMA1_Stream1_IRQHandler>:

/**
  * @brief This function handles DMA1 stream1 global interrupt.
  */
void DMA1_Stream1_IRQHandler(void)
{
 8000a04:	b580      	push	{r7, lr}
 8000a06:	af00      	add	r7, sp, #0
  /* USER CODE BEGIN DMA1_Stream1_IRQn 0 */

  /* USER CODE END DMA1_Stream1_IRQn 0 */
  HAL_DMA_IRQHandler(&hdma_usart3_rx);
 8000a08:	4802      	ldr	r0, [pc, #8]	; (8000a14 <DMA1_Stream1_IRQHandler+0x10>)
 8000a0a:	f000 fd1b 	bl	8001444 <HAL_DMA_IRQHandler>
  /* USER CODE BEGIN DMA1_Stream1_IRQn 1 */

  /* USER CODE END DMA1_Stream1_IRQn 1 */
}
 8000a0e:	bf00      	nop
 8000a10:	bd80      	pop	{r7, pc}
 8000a12:	bf00      	nop
 8000a14:	2000010c 	.word	0x2000010c

08000a18 <USART3_IRQHandler>:

/**
  * @brief This function handles USART3 global interrupt.
  */
void USART3_IRQHandler(void)
{
 8000a18:	b580      	push	{r7, lr}
 8000a1a:	af00      	add	r7, sp, #0
  /* USER CODE BEGIN USART3_IRQn 0 */

  /* USER CODE END USART3_IRQn 0 */
  HAL_UART_IRQHandler(&huart3);
 8000a1c:	4802      	ldr	r0, [pc, #8]	; (8000a28 <USART3_IRQHandler+0x10>)
 8000a1e:	f002 fee9 	bl	80037f4 <HAL_UART_IRQHandler>
  /* USER CODE BEGIN USART3_IRQn 1 */

  /* USER CODE END USART3_IRQn 1 */
}
 8000a22:	bf00      	nop
 8000a24:	bd80      	pop	{r7, pc}
 8000a26:	bf00      	nop
 8000a28:	20000084 	.word	0x20000084

08000a2c <SystemInit>:
  *         SystemFrequency variable.
  * @param  None
  * @retval None
  */
void SystemInit(void)
{
 8000a2c:	b480      	push	{r7}
 8000a2e:	af00      	add	r7, sp, #0
  /* FPU settings ------------------------------------------------------------*/
#if (__FPU_PRESENT == 1) && (__FPU_USED == 1)
  SCB->CPACR |= ((3UL << 10*2)|(3UL << 11*2));  /* set CP10 and CP11 Full Access */
 8000a30:	4b06      	ldr	r3, [pc, #24]	; (8000a4c <SystemInit+0x20>)
 8000a32:	f8d3 3088 	ldr.w	r3, [r3, #136]	; 0x88
 8000a36:	4a05      	ldr	r2, [pc, #20]	; (8000a4c <SystemInit+0x20>)
 8000a38:	f443 0370 	orr.w	r3, r3, #15728640	; 0xf00000
 8000a3c:	f8c2 3088 	str.w	r3, [r2, #136]	; 0x88

  /* Configure the Vector Table location -------------------------------------*/
#if defined(USER_VECT_TAB_ADDRESS)
  SCB->VTOR = VECT_TAB_BASE_ADDRESS | VECT_TAB_OFFSET; /* Vector Table Relocation in Internal SRAM */
#endif /* USER_VECT_TAB_ADDRESS */
}
 8000a40:	bf00      	nop
 8000a42:	46bd      	mov	sp, r7
 8000a44:	f85d 7b04 	ldr.w	r7, [sp], #4
 8000a48:	4770      	bx	lr
 8000a4a:	bf00      	nop
 8000a4c:	e000ed00 	.word	0xe000ed00

08000a50 <MX_TIM2_Init>:

TIM_HandleTypeDef htim2;

/* TIM2 init function */
void MX_TIM2_Init(void)
{
 8000a50:	b580      	push	{r7, lr}
 8000a52:	b088      	sub	sp, #32
 8000a54:	af00      	add	r7, sp, #0

  /* USER CODE BEGIN TIM2_Init 0 */

  /* USER CODE END TIM2_Init 0 */

  TIM_ClockConfigTypeDef sClockSourceConfig = {0};
 8000a56:	f107 0310 	add.w	r3, r7, #16
 8000a5a:	2200      	movs	r2, #0
 8000a5c:	601a      	str	r2, [r3, #0]
 8000a5e:	605a      	str	r2, [r3, #4]
 8000a60:	609a      	str	r2, [r3, #8]
 8000a62:	60da      	str	r2, [r3, #12]
  TIM_MasterConfigTypeDef sMasterConfig = {0};
 8000a64:	1d3b      	adds	r3, r7, #4
 8000a66:	2200      	movs	r2, #0
 8000a68:	601a      	str	r2, [r3, #0]
 8000a6a:	605a      	str	r2, [r3, #4]
 8000a6c:	609a      	str	r2, [r3, #8]

  /* USER CODE BEGIN TIM2_Init 1 */

  /* USER CODE END TIM2_Init 1 */
  htim2.Instance = TIM2;
 8000a6e:	4b1e      	ldr	r3, [pc, #120]	; (8000ae8 <MX_TIM2_Init+0x98>)
 8000a70:	f04f 4280 	mov.w	r2, #1073741824	; 0x40000000
 8000a74:	601a      	str	r2, [r3, #0]
  htim2.Init.Prescaler = 107;
 8000a76:	4b1c      	ldr	r3, [pc, #112]	; (8000ae8 <MX_TIM2_Init+0x98>)
 8000a78:	226b      	movs	r2, #107	; 0x6b
 8000a7a:	605a      	str	r2, [r3, #4]
  htim2.Init.CounterMode = TIM_COUNTERMODE_UP;
 8000a7c:	4b1a      	ldr	r3, [pc, #104]	; (8000ae8 <MX_TIM2_Init+0x98>)
 8000a7e:	2200      	movs	r2, #0
 8000a80:	609a      	str	r2, [r3, #8]
  htim2.Init.Period = 4294967295;
 8000a82:	4b19      	ldr	r3, [pc, #100]	; (8000ae8 <MX_TIM2_Init+0x98>)
 8000a84:	f04f 32ff 	mov.w	r2, #4294967295
 8000a88:	60da      	str	r2, [r3, #12]
  htim2.Init.ClockDivision = TIM_CLOCKDIVISION_DIV1;
 8000a8a:	4b17      	ldr	r3, [pc, #92]	; (8000ae8 <MX_TIM2_Init+0x98>)
 8000a8c:	2200      	movs	r2, #0
 8000a8e:	611a      	str	r2, [r3, #16]
  htim2.Init.AutoReloadPreload = TIM_AUTORELOAD_PRELOAD_ENABLE;
 8000a90:	4b15      	ldr	r3, [pc, #84]	; (8000ae8 <MX_TIM2_Init+0x98>)
 8000a92:	2280      	movs	r2, #128	; 0x80
 8000a94:	619a      	str	r2, [r3, #24]
  if (HAL_TIM_Base_Init(&htim2) != HAL_OK)
 8000a96:	4814      	ldr	r0, [pc, #80]	; (8000ae8 <MX_TIM2_Init+0x98>)
 8000a98:	f002 fa2a 	bl	8002ef0 <HAL_TIM_Base_Init>
 8000a9c:	4603      	mov	r3, r0
 8000a9e:	2b00      	cmp	r3, #0
 8000aa0:	d001      	beq.n	8000aa6 <MX_TIM2_Init+0x56>
  {
    Error_Handler();
 8000aa2:	f7ff ff5b 	bl	800095c <Error_Handler>
  }
  sClockSourceConfig.ClockSource = TIM_CLOCKSOURCE_INTERNAL;
 8000aa6:	f44f 5380 	mov.w	r3, #4096	; 0x1000
 8000aaa:	613b      	str	r3, [r7, #16]
  if (HAL_TIM_ConfigClockSource(&htim2, &sClockSourceConfig) != HAL_OK)
 8000aac:	f107 0310 	add.w	r3, r7, #16
 8000ab0:	4619      	mov	r1, r3
 8000ab2:	480d      	ldr	r0, [pc, #52]	; (8000ae8 <MX_TIM2_Init+0x98>)
 8000ab4:	f002 fae4 	bl	8003080 <HAL_TIM_ConfigClockSource>
 8000ab8:	4603      	mov	r3, r0
 8000aba:	2b00      	cmp	r3, #0
 8000abc:	d001      	beq.n	8000ac2 <MX_TIM2_Init+0x72>
  {
    Error_Handler();
 8000abe:	f7ff ff4d 	bl	800095c <Error_Handler>
  }
  sMasterConfig.MasterOutputTrigger = TIM_TRGO_RESET;
 8000ac2:	2300      	movs	r3, #0
 8000ac4:	607b      	str	r3, [r7, #4]
  sMasterConfig.MasterSlaveMode = TIM_MASTERSLAVEMODE_DISABLE;
 8000ac6:	2300      	movs	r3, #0
 8000ac8:	60fb      	str	r3, [r7, #12]
  if (HAL_TIMEx_MasterConfigSynchronization(&htim2, &sMasterConfig) != HAL_OK)
 8000aca:	1d3b      	adds	r3, r7, #4
 8000acc:	4619      	mov	r1, r3
 8000ace:	4806      	ldr	r0, [pc, #24]	; (8000ae8 <MX_TIM2_Init+0x98>)
 8000ad0:	f002 fce6 	bl	80034a0 <HAL_TIMEx_MasterConfigSynchronization>
 8000ad4:	4603      	mov	r3, r0
 8000ad6:	2b00      	cmp	r3, #0
 8000ad8:	d001      	beq.n	8000ade <MX_TIM2_Init+0x8e>
  {
    Error_Handler();
 8000ada:	f7ff ff3f 	bl	800095c <Error_Handler>
  }
  /* USER CODE BEGIN TIM2_Init 2 */

  /* USER CODE END TIM2_Init 2 */

}
 8000ade:	bf00      	nop
 8000ae0:	3720      	adds	r7, #32
 8000ae2:	46bd      	mov	sp, r7
 8000ae4:	bd80      	pop	{r7, pc}
 8000ae6:	bf00      	nop
 8000ae8:	20000034 	.word	0x20000034

08000aec <HAL_TIM_Base_MspInit>:

void HAL_TIM_Base_MspInit(TIM_HandleTypeDef* tim_baseHandle)
{
 8000aec:	b480      	push	{r7}
 8000aee:	b085      	sub	sp, #20
 8000af0:	af00      	add	r7, sp, #0
 8000af2:	6078      	str	r0, [r7, #4]

  if(tim_baseHandle->Instance==TIM2)
 8000af4:	687b      	ldr	r3, [r7, #4]
 8000af6:	681b      	ldr	r3, [r3, #0]
 8000af8:	f1b3 4f80 	cmp.w	r3, #1073741824	; 0x40000000
 8000afc:	d10b      	bne.n	8000b16 <HAL_TIM_Base_MspInit+0x2a>
  {
  /* USER CODE BEGIN TIM2_MspInit 0 */

  /* USER CODE END TIM2_MspInit 0 */
    /* TIM2 clock enable */
    __HAL_RCC_TIM2_CLK_ENABLE();
 8000afe:	4b09      	ldr	r3, [pc, #36]	; (8000b24 <HAL_TIM_Base_MspInit+0x38>)
 8000b00:	6c1b      	ldr	r3, [r3, #64]	; 0x40
 8000b02:	4a08      	ldr	r2, [pc, #32]	; (8000b24 <HAL_TIM_Base_MspInit+0x38>)
 8000b04:	f043 0301 	orr.w	r3, r3, #1
 8000b08:	6413      	str	r3, [r2, #64]	; 0x40
 8000b0a:	4b06      	ldr	r3, [pc, #24]	; (8000b24 <HAL_TIM_Base_MspInit+0x38>)
 8000b0c:	6c1b      	ldr	r3, [r3, #64]	; 0x40
 8000b0e:	f003 0301 	and.w	r3, r3, #1
 8000b12:	60fb      	str	r3, [r7, #12]
 8000b14:	68fb      	ldr	r3, [r7, #12]
  /* USER CODE BEGIN TIM2_MspInit 1 */

  /* USER CODE END TIM2_MspInit 1 */
  }
}
 8000b16:	bf00      	nop
 8000b18:	3714      	adds	r7, #20
 8000b1a:	46bd      	mov	sp, r7
 8000b1c:	f85d 7b04 	ldr.w	r7, [sp], #4
 8000b20:	4770      	bx	lr
 8000b22:	bf00      	nop
 8000b24:	40023800 	.word	0x40023800

08000b28 <CMY_TIM_ENABLE>:
}

/* USER CODE BEGIN 1 */

void CMY_TIM_ENABLE(void)
{
 8000b28:	b580      	push	{r7, lr}
 8000b2a:	af00      	add	r7, sp, #0
	HAL_TIM_Base_Start(&htim2);
 8000b2c:	4802      	ldr	r0, [pc, #8]	; (8000b38 <CMY_TIM_ENABLE+0x10>)
 8000b2e:	f002 fa37 	bl	8002fa0 <HAL_TIM_Base_Start>
}
 8000b32:	bf00      	nop
 8000b34:	bd80      	pop	{r7, pc}
 8000b36:	bf00      	nop
 8000b38:	20000034 	.word	0x20000034

08000b3c <CMY_cycle>:

int8_t CMY_cycle(uint32_t *time, uint32_t interval)
{
 8000b3c:	b480      	push	{r7}
 8000b3e:	b085      	sub	sp, #20
 8000b40:	af00      	add	r7, sp, #0
 8000b42:	6078      	str	r0, [r7, #4]
 8000b44:	6039      	str	r1, [r7, #0]
	uint32_t count = __HAL_TIM_GET_COUNTER(&htim2);
 8000b46:	4b0d      	ldr	r3, [pc, #52]	; (8000b7c <CMY_cycle+0x40>)
 8000b48:	681b      	ldr	r3, [r3, #0]
 8000b4a:	6a5b      	ldr	r3, [r3, #36]	; 0x24
 8000b4c:	60fb      	str	r3, [r7, #12]
	uint32_t range = count - *time;
 8000b4e:	687b      	ldr	r3, [r7, #4]
 8000b50:	681b      	ldr	r3, [r3, #0]
 8000b52:	68fa      	ldr	r2, [r7, #12]
 8000b54:	1ad3      	subs	r3, r2, r3
 8000b56:	60bb      	str	r3, [r7, #8]
	if (range >= interval){
 8000b58:	68ba      	ldr	r2, [r7, #8]
 8000b5a:	683b      	ldr	r3, [r7, #0]
 8000b5c:	429a      	cmp	r2, r3
 8000b5e:	d304      	bcc.n	8000b6a <CMY_cycle+0x2e>
		*time = count;
 8000b60:	687b      	ldr	r3, [r7, #4]
 8000b62:	68fa      	ldr	r2, [r7, #12]
 8000b64:	601a      	str	r2, [r3, #0]
		return 0;
 8000b66:	2300      	movs	r3, #0
 8000b68:	e001      	b.n	8000b6e <CMY_cycle+0x32>
	}
	return -1;
 8000b6a:	f04f 33ff 	mov.w	r3, #4294967295
}
 8000b6e:	4618      	mov	r0, r3
 8000b70:	3714      	adds	r7, #20
 8000b72:	46bd      	mov	sp, r7
 8000b74:	f85d 7b04 	ldr.w	r7, [sp], #4
 8000b78:	4770      	bx	lr
 8000b7a:	bf00      	nop
 8000b7c:	20000034 	.word	0x20000034

08000b80 <MX_USART3_UART_Init>:
DMA_HandleTypeDef hdma_usart3_rx;

/* USART3 init function */

void MX_USART3_UART_Init(void)
{
 8000b80:	b580      	push	{r7, lr}
 8000b82:	af00      	add	r7, sp, #0
  /* USER CODE END USART3_Init 0 */

  /* USER CODE BEGIN USART3_Init 1 */

  /* USER CODE END USART3_Init 1 */
  huart3.Instance = USART3;
 8000b84:	4b14      	ldr	r3, [pc, #80]	; (8000bd8 <MX_USART3_UART_Init+0x58>)
 8000b86:	4a15      	ldr	r2, [pc, #84]	; (8000bdc <MX_USART3_UART_Init+0x5c>)
 8000b88:	601a      	str	r2, [r3, #0]
  huart3.Init.BaudRate = 115200;
 8000b8a:	4b13      	ldr	r3, [pc, #76]	; (8000bd8 <MX_USART3_UART_Init+0x58>)
 8000b8c:	f44f 32e1 	mov.w	r2, #115200	; 0x1c200
 8000b90:	605a      	str	r2, [r3, #4]
  huart3.Init.WordLength = UART_WORDLENGTH_8B;
 8000b92:	4b11      	ldr	r3, [pc, #68]	; (8000bd8 <MX_USART3_UART_Init+0x58>)
 8000b94:	2200      	movs	r2, #0
 8000b96:	609a      	str	r2, [r3, #8]
  huart3.Init.StopBits = UART_STOPBITS_1;
 8000b98:	4b0f      	ldr	r3, [pc, #60]	; (8000bd8 <MX_USART3_UART_Init+0x58>)
 8000b9a:	2200      	movs	r2, #0
 8000b9c:	60da      	str	r2, [r3, #12]
  huart3.Init.Parity = UART_PARITY_NONE;
 8000b9e:	4b0e      	ldr	r3, [pc, #56]	; (8000bd8 <MX_USART3_UART_Init+0x58>)
 8000ba0:	2200      	movs	r2, #0
 8000ba2:	611a      	str	r2, [r3, #16]
  huart3.Init.Mode = UART_MODE_TX_RX;
 8000ba4:	4b0c      	ldr	r3, [pc, #48]	; (8000bd8 <MX_USART3_UART_Init+0x58>)
 8000ba6:	220c      	movs	r2, #12
 8000ba8:	615a      	str	r2, [r3, #20]
  huart3.Init.HwFlowCtl = UART_HWCONTROL_NONE;
 8000baa:	4b0b      	ldr	r3, [pc, #44]	; (8000bd8 <MX_USART3_UART_Init+0x58>)
 8000bac:	2200      	movs	r2, #0
 8000bae:	619a      	str	r2, [r3, #24]
  huart3.Init.OverSampling = UART_OVERSAMPLING_16;
 8000bb0:	4b09      	ldr	r3, [pc, #36]	; (8000bd8 <MX_USART3_UART_Init+0x58>)
 8000bb2:	2200      	movs	r2, #0
 8000bb4:	61da      	str	r2, [r3, #28]
  huart3.Init.OneBitSampling = UART_ONE_BIT_SAMPLE_DISABLE;
 8000bb6:	4b08      	ldr	r3, [pc, #32]	; (8000bd8 <MX_USART3_UART_Init+0x58>)
 8000bb8:	2200      	movs	r2, #0
 8000bba:	621a      	str	r2, [r3, #32]
  huart3.AdvancedInit.AdvFeatureInit = UART_ADVFEATURE_NO_INIT;
 8000bbc:	4b06      	ldr	r3, [pc, #24]	; (8000bd8 <MX_USART3_UART_Init+0x58>)
 8000bbe:	2200      	movs	r2, #0
 8000bc0:	625a      	str	r2, [r3, #36]	; 0x24
  if (HAL_UART_Init(&huart3) != HAL_OK)
 8000bc2:	4805      	ldr	r0, [pc, #20]	; (8000bd8 <MX_USART3_UART_Init+0x58>)
 8000bc4:	f002 fcfa 	bl	80035bc <HAL_UART_Init>
 8000bc8:	4603      	mov	r3, r0
 8000bca:	2b00      	cmp	r3, #0
 8000bcc:	d001      	beq.n	8000bd2 <MX_USART3_UART_Init+0x52>
  {
    Error_Handler();
 8000bce:	f7ff fec5 	bl	800095c <Error_Handler>
  }
  /* USER CODE BEGIN USART3_Init 2 */

  /* USER CODE END USART3_Init 2 */

}
 8000bd2:	bf00      	nop
 8000bd4:	bd80      	pop	{r7, pc}
 8000bd6:	bf00      	nop
 8000bd8:	20000084 	.word	0x20000084
 8000bdc:	40004800 	.word	0x40004800

08000be0 <HAL_UART_MspInit>:

void HAL_UART_MspInit(UART_HandleTypeDef* uartHandle)
{
 8000be0:	b580      	push	{r7, lr}
 8000be2:	b0ae      	sub	sp, #184	; 0xb8
 8000be4:	af00      	add	r7, sp, #0
 8000be6:	6078      	str	r0, [r7, #4]

  GPIO_InitTypeDef GPIO_InitStruct = {0};
 8000be8:	f107 03a4 	add.w	r3, r7, #164	; 0xa4
 8000bec:	2200      	movs	r2, #0
 8000bee:	601a      	str	r2, [r3, #0]
 8000bf0:	605a      	str	r2, [r3, #4]
 8000bf2:	609a      	str	r2, [r3, #8]
 8000bf4:	60da      	str	r2, [r3, #12]
 8000bf6:	611a      	str	r2, [r3, #16]
  RCC_PeriphCLKInitTypeDef PeriphClkInitStruct = {0};
 8000bf8:	f107 0314 	add.w	r3, r7, #20
 8000bfc:	2290      	movs	r2, #144	; 0x90
 8000bfe:	2100      	movs	r1, #0
 8000c00:	4618      	mov	r0, r3
 8000c02:	f003 ffa5 	bl	8004b50 <memset>
  if(uartHandle->Instance==USART3)
 8000c06:	687b      	ldr	r3, [r7, #4]
 8000c08:	681b      	ldr	r3, [r3, #0]
 8000c0a:	4a3e      	ldr	r2, [pc, #248]	; (8000d04 <HAL_UART_MspInit+0x124>)
 8000c0c:	4293      	cmp	r3, r2
 8000c0e:	d174      	bne.n	8000cfa <HAL_UART_MspInit+0x11a>

  /* USER CODE END USART3_MspInit 0 */

  /** Initializes the peripherals clock
  */
    PeriphClkInitStruct.PeriphClockSelection = RCC_PERIPHCLK_USART3;
 8000c10:	f44f 7380 	mov.w	r3, #256	; 0x100
 8000c14:	617b      	str	r3, [r7, #20]
    PeriphClkInitStruct.Usart3ClockSelection = RCC_USART3CLKSOURCE_PCLK1;
 8000c16:	2300      	movs	r3, #0
 8000c18:	663b      	str	r3, [r7, #96]	; 0x60
    if (HAL_RCCEx_PeriphCLKConfig(&PeriphClkInitStruct) != HAL_OK)
 8000c1a:	f107 0314 	add.w	r3, r7, #20
 8000c1e:	4618      	mov	r0, r3
 8000c20:	f001 fd3e 	bl	80026a0 <HAL_RCCEx_PeriphCLKConfig>
 8000c24:	4603      	mov	r3, r0
 8000c26:	2b00      	cmp	r3, #0
 8000c28:	d001      	beq.n	8000c2e <HAL_UART_MspInit+0x4e>
    {
      Error_Handler();
 8000c2a:	f7ff fe97 	bl	800095c <Error_Handler>
    }

    /* USART3 clock enable */
    __HAL_RCC_USART3_CLK_ENABLE();
 8000c2e:	4b36      	ldr	r3, [pc, #216]	; (8000d08 <HAL_UART_MspInit+0x128>)
 8000c30:	6c1b      	ldr	r3, [r3, #64]	; 0x40
 8000c32:	4a35      	ldr	r2, [pc, #212]	; (8000d08 <HAL_UART_MspInit+0x128>)
 8000c34:	f443 2380 	orr.w	r3, r3, #262144	; 0x40000
 8000c38:	6413      	str	r3, [r2, #64]	; 0x40
 8000c3a:	4b33      	ldr	r3, [pc, #204]	; (8000d08 <HAL_UART_MspInit+0x128>)
 8000c3c:	6c1b      	ldr	r3, [r3, #64]	; 0x40
 8000c3e:	f403 2380 	and.w	r3, r3, #262144	; 0x40000
 8000c42:	613b      	str	r3, [r7, #16]
 8000c44:	693b      	ldr	r3, [r7, #16]

    __HAL_RCC_GPIOD_CLK_ENABLE();
 8000c46:	4b30      	ldr	r3, [pc, #192]	; (8000d08 <HAL_UART_MspInit+0x128>)
 8000c48:	6b1b      	ldr	r3, [r3, #48]	; 0x30
 8000c4a:	4a2f      	ldr	r2, [pc, #188]	; (8000d08 <HAL_UART_MspInit+0x128>)
 8000c4c:	f043 0308 	orr.w	r3, r3, #8
 8000c50:	6313      	str	r3, [r2, #48]	; 0x30
 8000c52:	4b2d      	ldr	r3, [pc, #180]	; (8000d08 <HAL_UART_MspInit+0x128>)
 8000c54:	6b1b      	ldr	r3, [r3, #48]	; 0x30
 8000c56:	f003 0308 	and.w	r3, r3, #8
 8000c5a:	60fb      	str	r3, [r7, #12]
 8000c5c:	68fb      	ldr	r3, [r7, #12]
    /**USART3 GPIO Configuration
    PD8     ------> USART3_TX
    PD9     ------> USART3_RX
    */
    GPIO_InitStruct.Pin = GPIO_PIN_8|GPIO_PIN_9;
 8000c5e:	f44f 7340 	mov.w	r3, #768	; 0x300
 8000c62:	f8c7 30a4 	str.w	r3, [r7, #164]	; 0xa4
    GPIO_InitStruct.Mode = GPIO_MODE_AF_PP;
 8000c66:	2302      	movs	r3, #2
 8000c68:	f8c7 30a8 	str.w	r3, [r7, #168]	; 0xa8
    GPIO_InitStruct.Pull = GPIO_NOPULL;
 8000c6c:	2300      	movs	r3, #0
 8000c6e:	f8c7 30ac 	str.w	r3, [r7, #172]	; 0xac
    GPIO_InitStruct.Speed = GPIO_SPEED_FREQ_VERY_HIGH;
 8000c72:	2303      	movs	r3, #3
 8000c74:	f8c7 30b0 	str.w	r3, [r7, #176]	; 0xb0
    GPIO_InitStruct.Alternate = GPIO_AF7_USART3;
 8000c78:	2307      	movs	r3, #7
 8000c7a:	f8c7 30b4 	str.w	r3, [r7, #180]	; 0xb4
    HAL_GPIO_Init(GPIOD, &GPIO_InitStruct);
 8000c7e:	f107 03a4 	add.w	r3, r7, #164	; 0xa4
 8000c82:	4619      	mov	r1, r3
 8000c84:	4821      	ldr	r0, [pc, #132]	; (8000d0c <HAL_UART_MspInit+0x12c>)
 8000c86:	f000 fe47 	bl	8001918 <HAL_GPIO_Init>

    /* USART3 DMA Init */
    /* USART3_RX Init */
    hdma_usart3_rx.Instance = DMA1_Stream1;
 8000c8a:	4b21      	ldr	r3, [pc, #132]	; (8000d10 <HAL_UART_MspInit+0x130>)
 8000c8c:	4a21      	ldr	r2, [pc, #132]	; (8000d14 <HAL_UART_MspInit+0x134>)
 8000c8e:	601a      	str	r2, [r3, #0]
    hdma_usart3_rx.Init.Channel = DMA_CHANNEL_4;
 8000c90:	4b1f      	ldr	r3, [pc, #124]	; (8000d10 <HAL_UART_MspInit+0x130>)
 8000c92:	f04f 6200 	mov.w	r2, #134217728	; 0x8000000
 8000c96:	605a      	str	r2, [r3, #4]
    hdma_usart3_rx.Init.Direction = DMA_PERIPH_TO_MEMORY;
 8000c98:	4b1d      	ldr	r3, [pc, #116]	; (8000d10 <HAL_UART_MspInit+0x130>)
 8000c9a:	2200      	movs	r2, #0
 8000c9c:	609a      	str	r2, [r3, #8]
    hdma_usart3_rx.Init.PeriphInc = DMA_PINC_DISABLE;
 8000c9e:	4b1c      	ldr	r3, [pc, #112]	; (8000d10 <HAL_UART_MspInit+0x130>)
 8000ca0:	2200      	movs	r2, #0
 8000ca2:	60da      	str	r2, [r3, #12]
    hdma_usart3_rx.Init.MemInc = DMA_MINC_ENABLE;
 8000ca4:	4b1a      	ldr	r3, [pc, #104]	; (8000d10 <HAL_UART_MspInit+0x130>)
 8000ca6:	f44f 6280 	mov.w	r2, #1024	; 0x400
 8000caa:	611a      	str	r2, [r3, #16]
    hdma_usart3_rx.Init.PeriphDataAlignment = DMA_PDATAALIGN_BYTE;
 8000cac:	4b18      	ldr	r3, [pc, #96]	; (8000d10 <HAL_UART_MspInit+0x130>)
 8000cae:	2200      	movs	r2, #0
 8000cb0:	615a      	str	r2, [r3, #20]
    hdma_usart3_rx.Init.MemDataAlignment = DMA_MDATAALIGN_BYTE;
 8000cb2:	4b17      	ldr	r3, [pc, #92]	; (8000d10 <HAL_UART_MspInit+0x130>)
 8000cb4:	2200      	movs	r2, #0
 8000cb6:	619a      	str	r2, [r3, #24]
    hdma_usart3_rx.Init.Mode = DMA_CIRCULAR;
 8000cb8:	4b15      	ldr	r3, [pc, #84]	; (8000d10 <HAL_UART_MspInit+0x130>)
 8000cba:	f44f 7280 	mov.w	r2, #256	; 0x100
 8000cbe:	61da      	str	r2, [r3, #28]
    hdma_usart3_rx.Init.Priority = DMA_PRIORITY_VERY_HIGH;
 8000cc0:	4b13      	ldr	r3, [pc, #76]	; (8000d10 <HAL_UART_MspInit+0x130>)
 8000cc2:	f44f 3240 	mov.w	r2, #196608	; 0x30000
 8000cc6:	621a      	str	r2, [r3, #32]
    hdma_usart3_rx.Init.FIFOMode = DMA_FIFOMODE_DISABLE;
 8000cc8:	4b11      	ldr	r3, [pc, #68]	; (8000d10 <HAL_UART_MspInit+0x130>)
 8000cca:	2200      	movs	r2, #0
 8000ccc:	625a      	str	r2, [r3, #36]	; 0x24
    if (HAL_DMA_Init(&hdma_usart3_rx) != HAL_OK)
 8000cce:	4810      	ldr	r0, [pc, #64]	; (8000d10 <HAL_UART_MspInit+0x130>)
 8000cd0:	f000 fa18 	bl	8001104 <HAL_DMA_Init>
 8000cd4:	4603      	mov	r3, r0
 8000cd6:	2b00      	cmp	r3, #0
 8000cd8:	d001      	beq.n	8000cde <HAL_UART_MspInit+0xfe>
    {
      Error_Handler();
 8000cda:	f7ff fe3f 	bl	800095c <Error_Handler>
    }

    __HAL_LINKDMA(uartHandle,hdmarx,hdma_usart3_rx);
 8000cde:	687b      	ldr	r3, [r7, #4]
 8000ce0:	4a0b      	ldr	r2, [pc, #44]	; (8000d10 <HAL_UART_MspInit+0x130>)
 8000ce2:	675a      	str	r2, [r3, #116]	; 0x74
 8000ce4:	4a0a      	ldr	r2, [pc, #40]	; (8000d10 <HAL_UART_MspInit+0x130>)
 8000ce6:	687b      	ldr	r3, [r7, #4]
 8000ce8:	6393      	str	r3, [r2, #56]	; 0x38

    /* USART3 interrupt Init */
    HAL_NVIC_SetPriority(USART3_IRQn, 0, 0);
 8000cea:	2200      	movs	r2, #0
 8000cec:	2100      	movs	r1, #0
 8000cee:	2027      	movs	r0, #39	; 0x27
 8000cf0:	f000 f9d1 	bl	8001096 <HAL_NVIC_SetPriority>
    HAL_NVIC_EnableIRQ(USART3_IRQn);
 8000cf4:	2027      	movs	r0, #39	; 0x27
 8000cf6:	f000 f9ea 	bl	80010ce <HAL_NVIC_EnableIRQ>
  /* USER CODE BEGIN USART3_MspInit 1 */

  /* USER CODE END USART3_MspInit 1 */
  }
}
 8000cfa:	bf00      	nop
 8000cfc:	37b8      	adds	r7, #184	; 0xb8
 8000cfe:	46bd      	mov	sp, r7
 8000d00:	bd80      	pop	{r7, pc}
 8000d02:	bf00      	nop
 8000d04:	40004800 	.word	0x40004800
 8000d08:	40023800 	.word	0x40023800
 8000d0c:	40020c00 	.word	0x40020c00
 8000d10:	2000010c 	.word	0x2000010c
 8000d14:	40026028 	.word	0x40026028

08000d18 <CMY_UART_RX_ENABLE>:
  }
}

/* USER CODE BEGIN 1 */
void CMY_UART_RX_ENABLE(void)
{
 8000d18:	b580      	push	{r7, lr}
 8000d1a:	af00      	add	r7, sp, #0
	HAL_UART_Receive_DMA(&huart3, recData, sizeof(recData));
 8000d1c:	2201      	movs	r2, #1
 8000d1e:	4903      	ldr	r1, [pc, #12]	; (8000d2c <CMY_UART_RX_ENABLE+0x14>)
 8000d20:	4803      	ldr	r0, [pc, #12]	; (8000d30 <CMY_UART_RX_ENABLE+0x18>)
 8000d22:	f002 fd22 	bl	800376a <HAL_UART_Receive_DMA>
}
 8000d26:	bf00      	nop
 8000d28:	bd80      	pop	{r7, pc}
 8000d2a:	bf00      	nop
 8000d2c:	20000080 	.word	0x20000080
 8000d30:	20000084 	.word	0x20000084

08000d34 <CMY_UART_TX>:

void CMY_UART_TX(const uint8_t *pData, uint16_t Size)
{
 8000d34:	b580      	push	{r7, lr}
 8000d36:	b082      	sub	sp, #8
 8000d38:	af00      	add	r7, sp, #0
 8000d3a:	6078      	str	r0, [r7, #4]
 8000d3c:	460b      	mov	r3, r1
 8000d3e:	807b      	strh	r3, [r7, #2]
	HAL_UART_Transmit(&huart3, pData, Size, 0xffff);
 8000d40:	887a      	ldrh	r2, [r7, #2]
 8000d42:	f64f 73ff 	movw	r3, #65535	; 0xffff
 8000d46:	6879      	ldr	r1, [r7, #4]
 8000d48:	4803      	ldr	r0, [pc, #12]	; (8000d58 <CMY_UART_TX+0x24>)
 8000d4a:	f002 fc85 	bl	8003658 <HAL_UART_Transmit>
}
 8000d4e:	bf00      	nop
 8000d50:	3708      	adds	r7, #8
 8000d52:	46bd      	mov	sp, r7
 8000d54:	bd80      	pop	{r7, pc}
 8000d56:	bf00      	nop
 8000d58:	20000084 	.word	0x20000084

08000d5c <HAL_UART_RxCpltCallback>:

void HAL_UART_RxCpltCallback(UART_HandleTypeDef *huart)
{
 8000d5c:	b480      	push	{r7}
 8000d5e:	b083      	sub	sp, #12
 8000d60:	af00      	add	r7, sp, #0
 8000d62:	6078      	str	r0, [r7, #4]
	if (huart == &huart3) {
 8000d64:	687b      	ldr	r3, [r7, #4]
 8000d66:	4a07      	ldr	r2, [pc, #28]	; (8000d84 <HAL_UART_RxCpltCallback+0x28>)
 8000d68:	4293      	cmp	r3, r2
 8000d6a:	d104      	bne.n	8000d76 <HAL_UART_RxCpltCallback+0x1a>
		plotEnable = recData[0];
 8000d6c:	4b06      	ldr	r3, [pc, #24]	; (8000d88 <HAL_UART_RxCpltCallback+0x2c>)
 8000d6e:	781b      	ldrb	r3, [r3, #0]
 8000d70:	b25a      	sxtb	r2, r3
 8000d72:	4b06      	ldr	r3, [pc, #24]	; (8000d8c <HAL_UART_RxCpltCallback+0x30>)
 8000d74:	701a      	strb	r2, [r3, #0]
	}
}
 8000d76:	bf00      	nop
 8000d78:	370c      	adds	r7, #12
 8000d7a:	46bd      	mov	sp, r7
 8000d7c:	f85d 7b04 	ldr.w	r7, [sp], #4
 8000d80:	4770      	bx	lr
 8000d82:	bf00      	nop
 8000d84:	20000084 	.word	0x20000084
 8000d88:	20000080 	.word	0x20000080
 8000d8c:	20000004 	.word	0x20000004

08000d90 <HAL_UART_ErrorCallback>:

void HAL_UART_ErrorCallback(UART_HandleTypeDef *huart)
{
 8000d90:	b580      	push	{r7, lr}
 8000d92:	b082      	sub	sp, #8
 8000d94:	af00      	add	r7, sp, #0
 8000d96:	6078      	str	r0, [r7, #4]
	if (huart == &huart3) {
 8000d98:	687b      	ldr	r3, [r7, #4]
 8000d9a:	4a06      	ldr	r2, [pc, #24]	; (8000db4 <HAL_UART_ErrorCallback+0x24>)
 8000d9c:	4293      	cmp	r3, r2
 8000d9e:	d104      	bne.n	8000daa <HAL_UART_ErrorCallback+0x1a>
		  HAL_UART_Receive_DMA(&huart3, recData, sizeof(recData));
 8000da0:	2201      	movs	r2, #1
 8000da2:	4905      	ldr	r1, [pc, #20]	; (8000db8 <HAL_UART_ErrorCallback+0x28>)
 8000da4:	4803      	ldr	r0, [pc, #12]	; (8000db4 <HAL_UART_ErrorCallback+0x24>)
 8000da6:	f002 fce0 	bl	800376a <HAL_UART_Receive_DMA>
	}
}
 8000daa:	bf00      	nop
 8000dac:	3708      	adds	r7, #8
 8000dae:	46bd      	mov	sp, r7
 8000db0:	bd80      	pop	{r7, pc}
 8000db2:	bf00      	nop
 8000db4:	20000084 	.word	0x20000084
 8000db8:	20000080 	.word	0x20000080

08000dbc <getPlotEnable>:

int8_t getPlotEnable(void)
{
 8000dbc:	b480      	push	{r7}
 8000dbe:	af00      	add	r7, sp, #0
	return plotEnable;
 8000dc0:	4b03      	ldr	r3, [pc, #12]	; (8000dd0 <getPlotEnable+0x14>)
 8000dc2:	f993 3000 	ldrsb.w	r3, [r3]
}
 8000dc6:	4618      	mov	r0, r3
 8000dc8:	46bd      	mov	sp, r7
 8000dca:	f85d 7b04 	ldr.w	r7, [sp], #4
 8000dce:	4770      	bx	lr
 8000dd0:	20000004 	.word	0x20000004

08000dd4 <Reset_Handler>:

    .section  .text.Reset_Handler
  .weak  Reset_Handler
  .type  Reset_Handler, %function
Reset_Handler:  
  ldr   sp, =_estack      /* set stack pointer */
 8000dd4:	f8df d034 	ldr.w	sp, [pc, #52]	; 8000e0c <LoopFillZerobss+0xe>

/* Call the clock system initialization function.*/
  bl  SystemInit   
 8000dd8:	f7ff fe28 	bl	8000a2c <SystemInit>

/* Copy the data segment initializers from flash to SRAM */  
  ldr r0, =_sdata
 8000ddc:	480c      	ldr	r0, [pc, #48]	; (8000e10 <LoopFillZerobss+0x12>)
  ldr r1, =_edata
 8000dde:	490d      	ldr	r1, [pc, #52]	; (8000e14 <LoopFillZerobss+0x16>)
  ldr r2, =_sidata
 8000de0:	4a0d      	ldr	r2, [pc, #52]	; (8000e18 <LoopFillZerobss+0x1a>)
  movs r3, #0
 8000de2:	2300      	movs	r3, #0
  b LoopCopyDataInit
 8000de4:	e002      	b.n	8000dec <LoopCopyDataInit>

08000de6 <CopyDataInit>:

CopyDataInit:
  ldr r4, [r2, r3]
 8000de6:	58d4      	ldr	r4, [r2, r3]
  str r4, [r0, r3]
 8000de8:	50c4      	str	r4, [r0, r3]
  adds r3, r3, #4
 8000dea:	3304      	adds	r3, #4

08000dec <LoopCopyDataInit>:

LoopCopyDataInit:
  adds r4, r0, r3
 8000dec:	18c4      	adds	r4, r0, r3
  cmp r4, r1
 8000dee:	428c      	cmp	r4, r1
  bcc CopyDataInit
 8000df0:	d3f9      	bcc.n	8000de6 <CopyDataInit>
  
/* Zero fill the bss segment. */
  ldr r2, =_sbss
 8000df2:	4a0a      	ldr	r2, [pc, #40]	; (8000e1c <LoopFillZerobss+0x1e>)
  ldr r4, =_ebss
 8000df4:	4c0a      	ldr	r4, [pc, #40]	; (8000e20 <LoopFillZerobss+0x22>)
  movs r3, #0
 8000df6:	2300      	movs	r3, #0
  b LoopFillZerobss
 8000df8:	e001      	b.n	8000dfe <LoopFillZerobss>

08000dfa <FillZerobss>:

FillZerobss:
  str  r3, [r2]
 8000dfa:	6013      	str	r3, [r2, #0]
  adds r2, r2, #4
 8000dfc:	3204      	adds	r2, #4

08000dfe <LoopFillZerobss>:

LoopFillZerobss:
  cmp r2, r4
 8000dfe:	42a2      	cmp	r2, r4
  bcc FillZerobss
 8000e00:	d3fb      	bcc.n	8000dfa <FillZerobss>
  
/* Call static constructors */
    bl __libc_init_array
 8000e02:	f003 fe81 	bl	8004b08 <__libc_init_array>
/* Call the application's entry point.*/
  bl  main
 8000e06:	f7ff fcb3 	bl	8000770 <main>
  bx  lr    
 8000e0a:	4770      	bx	lr
  ldr   sp, =_estack      /* set stack pointer */
 8000e0c:	20080000 	.word	0x20080000
  ldr r0, =_sdata
 8000e10:	20000000 	.word	0x20000000
  ldr r1, =_edata
 8000e14:	20000010 	.word	0x20000010
  ldr r2, =_sidata
 8000e18:	08005970 	.word	0x08005970
  ldr r2, =_sbss
 8000e1c:	20000010 	.word	0x20000010
  ldr r4, =_ebss
 8000e20:	20000170 	.word	0x20000170

08000e24 <ADC_IRQHandler>:
 * @retval None       
*/
    .section  .text.Default_Handler,"ax",%progbits
Default_Handler:
Infinite_Loop:
  b  Infinite_Loop
 8000e24:	e7fe      	b.n	8000e24 <ADC_IRQHandler>

08000e26 <HAL_Init>:
  *         need to ensure that the SysTick time base is always set to 1 millisecond
  *         to have correct HAL operation.
  * @retval HAL status
  */
HAL_StatusTypeDef HAL_Init(void)
{
 8000e26:	b580      	push	{r7, lr}
 8000e28:	af00      	add	r7, sp, #0
#if (PREFETCH_ENABLE != 0U)
  __HAL_FLASH_PREFETCH_BUFFER_ENABLE();
#endif /* PREFETCH_ENABLE */

  /* Set Interrupt Group Priority */
  HAL_NVIC_SetPriorityGrouping(NVIC_PRIORITYGROUP_4);
 8000e2a:	2003      	movs	r0, #3
 8000e2c:	f000 f928 	bl	8001080 <HAL_NVIC_SetPriorityGrouping>

  /* Use systick as time base source and configure 1ms tick (default clock after Reset is HSI) */
  HAL_InitTick(TICK_INT_PRIORITY);
 8000e30:	200f      	movs	r0, #15
 8000e32:	f000 f805 	bl	8000e40 <HAL_InitTick>

  /* Init the low level hardware */
  HAL_MspInit();
 8000e36:	f7ff fd97 	bl	8000968 <HAL_MspInit>

  /* Return function status */
  return HAL_OK;
 8000e3a:	2300      	movs	r3, #0
}
 8000e3c:	4618      	mov	r0, r3
 8000e3e:	bd80      	pop	{r7, pc}

08000e40 <HAL_InitTick>:
  *       implementation  in user file.
  * @param TickPriority Tick interrupt priority.
  * @retval HAL status
  */
__weak HAL_StatusTypeDef HAL_InitTick(uint32_t TickPriority)
{
 8000e40:	b580      	push	{r7, lr}
 8000e42:	b082      	sub	sp, #8
 8000e44:	af00      	add	r7, sp, #0
 8000e46:	6078      	str	r0, [r7, #4]
  /* Configure the SysTick to have interrupt in 1ms time basis*/
  if (HAL_SYSTICK_Config(SystemCoreClock / (1000U / uwTickFreq)) > 0U)
 8000e48:	4b12      	ldr	r3, [pc, #72]	; (8000e94 <HAL_InitTick+0x54>)
 8000e4a:	681a      	ldr	r2, [r3, #0]
 8000e4c:	4b12      	ldr	r3, [pc, #72]	; (8000e98 <HAL_InitTick+0x58>)
 8000e4e:	781b      	ldrb	r3, [r3, #0]
 8000e50:	4619      	mov	r1, r3
 8000e52:	f44f 737a 	mov.w	r3, #1000	; 0x3e8
 8000e56:	fbb3 f3f1 	udiv	r3, r3, r1
 8000e5a:	fbb2 f3f3 	udiv	r3, r2, r3
 8000e5e:	4618      	mov	r0, r3
 8000e60:	f000 f943 	bl	80010ea <HAL_SYSTICK_Config>
 8000e64:	4603      	mov	r3, r0
 8000e66:	2b00      	cmp	r3, #0
 8000e68:	d001      	beq.n	8000e6e <HAL_InitTick+0x2e>
  {
    return HAL_ERROR;
 8000e6a:	2301      	movs	r3, #1
 8000e6c:	e00e      	b.n	8000e8c <HAL_InitTick+0x4c>
  }

  /* Configure the SysTick IRQ priority */
  if (TickPriority < (1UL << __NVIC_PRIO_BITS))
 8000e6e:	687b      	ldr	r3, [r7, #4]
 8000e70:	2b0f      	cmp	r3, #15
 8000e72:	d80a      	bhi.n	8000e8a <HAL_InitTick+0x4a>
  {
    HAL_NVIC_SetPriority(SysTick_IRQn, TickPriority, 0U);
 8000e74:	2200      	movs	r2, #0
 8000e76:	6879      	ldr	r1, [r7, #4]
 8000e78:	f04f 30ff 	mov.w	r0, #4294967295
 8000e7c:	f000 f90b 	bl	8001096 <HAL_NVIC_SetPriority>
    uwTickPrio = TickPriority;
 8000e80:	4a06      	ldr	r2, [pc, #24]	; (8000e9c <HAL_InitTick+0x5c>)
 8000e82:	687b      	ldr	r3, [r7, #4]
 8000e84:	6013      	str	r3, [r2, #0]
  {
    return HAL_ERROR;
  }

  /* Return function status */
  return HAL_OK;
 8000e86:	2300      	movs	r3, #0
 8000e88:	e000      	b.n	8000e8c <HAL_InitTick+0x4c>
    return HAL_ERROR;
 8000e8a:	2301      	movs	r3, #1
}
 8000e8c:	4618      	mov	r0, r3
 8000e8e:	3708      	adds	r7, #8
 8000e90:	46bd      	mov	sp, r7
 8000e92:	bd80      	pop	{r7, pc}
 8000e94:	20000000 	.word	0x20000000
 8000e98:	2000000c 	.word	0x2000000c
 8000e9c:	20000008 	.word	0x20000008

08000ea0 <HAL_IncTick>:
 * @note This function is declared as __weak to be overwritten in case of other 
  *      implementations in user file.
  * @retval None
  */
__weak void HAL_IncTick(void)
{
 8000ea0:	b480      	push	{r7}
 8000ea2:	af00      	add	r7, sp, #0
  uwTick += uwTickFreq;
 8000ea4:	4b06      	ldr	r3, [pc, #24]	; (8000ec0 <HAL_IncTick+0x20>)
 8000ea6:	781b      	ldrb	r3, [r3, #0]
 8000ea8:	461a      	mov	r2, r3
 8000eaa:	4b06      	ldr	r3, [pc, #24]	; (8000ec4 <HAL_IncTick+0x24>)
 8000eac:	681b      	ldr	r3, [r3, #0]
 8000eae:	4413      	add	r3, r2
 8000eb0:	4a04      	ldr	r2, [pc, #16]	; (8000ec4 <HAL_IncTick+0x24>)
 8000eb2:	6013      	str	r3, [r2, #0]
}
 8000eb4:	bf00      	nop
 8000eb6:	46bd      	mov	sp, r7
 8000eb8:	f85d 7b04 	ldr.w	r7, [sp], #4
 8000ebc:	4770      	bx	lr
 8000ebe:	bf00      	nop
 8000ec0:	2000000c 	.word	0x2000000c
 8000ec4:	2000016c 	.word	0x2000016c

08000ec8 <HAL_GetTick>:
  * @note This function is declared as __weak to be overwritten in case of other 
  *       implementations in user file.
  * @retval tick value
  */
__weak uint32_t HAL_GetTick(void)
{
 8000ec8:	b480      	push	{r7}
 8000eca:	af00      	add	r7, sp, #0
  return uwTick;
 8000ecc:	4b03      	ldr	r3, [pc, #12]	; (8000edc <HAL_GetTick+0x14>)
 8000ece:	681b      	ldr	r3, [r3, #0]
}
 8000ed0:	4618      	mov	r0, r3
 8000ed2:	46bd      	mov	sp, r7
 8000ed4:	f85d 7b04 	ldr.w	r7, [sp], #4
 8000ed8:	4770      	bx	lr
 8000eda:	bf00      	nop
 8000edc:	2000016c 	.word	0x2000016c

08000ee0 <__NVIC_SetPriorityGrouping>:
           In case of a conflict between priority grouping and available
           priority bits (__NVIC_PRIO_BITS), the smallest possible priority group is set.
  \param [in]      PriorityGroup  Priority grouping field.
 */
__STATIC_INLINE void __NVIC_SetPriorityGrouping(uint32_t PriorityGroup)
{
 8000ee0:	b480      	push	{r7}
 8000ee2:	b085      	sub	sp, #20
 8000ee4:	af00      	add	r7, sp, #0
 8000ee6:	6078      	str	r0, [r7, #4]
  uint32_t reg_value;
  uint32_t PriorityGroupTmp = (PriorityGroup & (uint32_t)0x07UL);             /* only values 0..7 are used          */
 8000ee8:	687b      	ldr	r3, [r7, #4]
 8000eea:	f003 0307 	and.w	r3, r3, #7
 8000eee:	60fb      	str	r3, [r7, #12]

  reg_value  =  SCB->AIRCR;                                                   /* read old register configuration    */
 8000ef0:	4b0b      	ldr	r3, [pc, #44]	; (8000f20 <__NVIC_SetPriorityGrouping+0x40>)
 8000ef2:	68db      	ldr	r3, [r3, #12]
 8000ef4:	60bb      	str	r3, [r7, #8]
  reg_value &= ~((uint32_t)(SCB_AIRCR_VECTKEY_Msk | SCB_AIRCR_PRIGROUP_Msk)); /* clear bits to change               */
 8000ef6:	68ba      	ldr	r2, [r7, #8]
 8000ef8:	f64f 03ff 	movw	r3, #63743	; 0xf8ff
 8000efc:	4013      	ands	r3, r2
 8000efe:	60bb      	str	r3, [r7, #8]
  reg_value  =  (reg_value                                   |
                ((uint32_t)0x5FAUL << SCB_AIRCR_VECTKEY_Pos) |
                (PriorityGroupTmp << SCB_AIRCR_PRIGROUP_Pos)  );              /* Insert write key and priority group */
 8000f00:	68fb      	ldr	r3, [r7, #12]
 8000f02:	021a      	lsls	r2, r3, #8
                ((uint32_t)0x5FAUL << SCB_AIRCR_VECTKEY_Pos) |
 8000f04:	68bb      	ldr	r3, [r7, #8]
 8000f06:	431a      	orrs	r2, r3
  reg_value  =  (reg_value                                   |
 8000f08:	4b06      	ldr	r3, [pc, #24]	; (8000f24 <__NVIC_SetPriorityGrouping+0x44>)
 8000f0a:	4313      	orrs	r3, r2
 8000f0c:	60bb      	str	r3, [r7, #8]
  SCB->AIRCR =  reg_value;
 8000f0e:	4a04      	ldr	r2, [pc, #16]	; (8000f20 <__NVIC_SetPriorityGrouping+0x40>)
 8000f10:	68bb      	ldr	r3, [r7, #8]
 8000f12:	60d3      	str	r3, [r2, #12]
}
 8000f14:	bf00      	nop
 8000f16:	3714      	adds	r7, #20
 8000f18:	46bd      	mov	sp, r7
 8000f1a:	f85d 7b04 	ldr.w	r7, [sp], #4
 8000f1e:	4770      	bx	lr
 8000f20:	e000ed00 	.word	0xe000ed00
 8000f24:	05fa0000 	.word	0x05fa0000

08000f28 <__NVIC_GetPriorityGrouping>:
  \brief   Get Priority Grouping
  \details Reads the priority grouping field from the NVIC Interrupt Controller.
  \return                Priority grouping field (SCB->AIRCR [10:8] PRIGROUP field).
 */
__STATIC_INLINE uint32_t __NVIC_GetPriorityGrouping(void)
{
 8000f28:	b480      	push	{r7}
 8000f2a:	af00      	add	r7, sp, #0
  return ((uint32_t)((SCB->AIRCR & SCB_AIRCR_PRIGROUP_Msk) >> SCB_AIRCR_PRIGROUP_Pos));
 8000f2c:	4b04      	ldr	r3, [pc, #16]	; (8000f40 <__NVIC_GetPriorityGrouping+0x18>)
 8000f2e:	68db      	ldr	r3, [r3, #12]
 8000f30:	0a1b      	lsrs	r3, r3, #8
 8000f32:	f003 0307 	and.w	r3, r3, #7
}
 8000f36:	4618      	mov	r0, r3
 8000f38:	46bd      	mov	sp, r7
 8000f3a:	f85d 7b04 	ldr.w	r7, [sp], #4
 8000f3e:	4770      	bx	lr
 8000f40:	e000ed00 	.word	0xe000ed00

08000f44 <__NVIC_EnableIRQ>:
  \details Enables a device specific interrupt in the NVIC interrupt controller.
  \param [in]      IRQn  Device specific interrupt number.
  \note    IRQn must not be negative.
 */
__STATIC_INLINE void __NVIC_EnableIRQ(IRQn_Type IRQn)
{
 8000f44:	b480      	push	{r7}
 8000f46:	b083      	sub	sp, #12
 8000f48:	af00      	add	r7, sp, #0
 8000f4a:	4603      	mov	r3, r0
 8000f4c:	71fb      	strb	r3, [r7, #7]
  if ((int32_t)(IRQn) >= 0)
 8000f4e:	f997 3007 	ldrsb.w	r3, [r7, #7]
 8000f52:	2b00      	cmp	r3, #0
 8000f54:	db0b      	blt.n	8000f6e <__NVIC_EnableIRQ+0x2a>
  {
    NVIC->ISER[(((uint32_t)IRQn) >> 5UL)] = (uint32_t)(1UL << (((uint32_t)IRQn) & 0x1FUL));
 8000f56:	79fb      	ldrb	r3, [r7, #7]
 8000f58:	f003 021f 	and.w	r2, r3, #31
 8000f5c:	4907      	ldr	r1, [pc, #28]	; (8000f7c <__NVIC_EnableIRQ+0x38>)
 8000f5e:	f997 3007 	ldrsb.w	r3, [r7, #7]
 8000f62:	095b      	lsrs	r3, r3, #5
 8000f64:	2001      	movs	r0, #1
 8000f66:	fa00 f202 	lsl.w	r2, r0, r2
 8000f6a:	f841 2023 	str.w	r2, [r1, r3, lsl #2]
  }
}
 8000f6e:	bf00      	nop
 8000f70:	370c      	adds	r7, #12
 8000f72:	46bd      	mov	sp, r7
 8000f74:	f85d 7b04 	ldr.w	r7, [sp], #4
 8000f78:	4770      	bx	lr
 8000f7a:	bf00      	nop
 8000f7c:	e000e100 	.word	0xe000e100

08000f80 <__NVIC_SetPriority>:
  \param [in]      IRQn  Interrupt number.
  \param [in]  priority  Priority to set.
  \note    The priority cannot be set for every processor exception.
 */
__STATIC_INLINE void __NVIC_SetPriority(IRQn_Type IRQn, uint32_t priority)
{
 8000f80:	b480      	push	{r7}
 8000f82:	b083      	sub	sp, #12
 8000f84:	af00      	add	r7, sp, #0
 8000f86:	4603      	mov	r3, r0
 8000f88:	6039      	str	r1, [r7, #0]
 8000f8a:	71fb      	strb	r3, [r7, #7]
  if ((int32_t)(IRQn) >= 0)
 8000f8c:	f997 3007 	ldrsb.w	r3, [r7, #7]
 8000f90:	2b00      	cmp	r3, #0
 8000f92:	db0a      	blt.n	8000faa <__NVIC_SetPriority+0x2a>
  {
    NVIC->IP[((uint32_t)IRQn)]                = (uint8_t)((priority << (8U - __NVIC_PRIO_BITS)) & (uint32_t)0xFFUL);
 8000f94:	683b      	ldr	r3, [r7, #0]
 8000f96:	b2da      	uxtb	r2, r3
 8000f98:	490c      	ldr	r1, [pc, #48]	; (8000fcc <__NVIC_SetPriority+0x4c>)
 8000f9a:	f997 3007 	ldrsb.w	r3, [r7, #7]
 8000f9e:	0112      	lsls	r2, r2, #4
 8000fa0:	b2d2      	uxtb	r2, r2
 8000fa2:	440b      	add	r3, r1
 8000fa4:	f883 2300 	strb.w	r2, [r3, #768]	; 0x300
  }
  else
  {
    SCB->SHPR[(((uint32_t)IRQn) & 0xFUL)-4UL] = (uint8_t)((priority << (8U - __NVIC_PRIO_BITS)) & (uint32_t)0xFFUL);
  }
}
 8000fa8:	e00a      	b.n	8000fc0 <__NVIC_SetPriority+0x40>
    SCB->SHPR[(((uint32_t)IRQn) & 0xFUL)-4UL] = (uint8_t)((priority << (8U - __NVIC_PRIO_BITS)) & (uint32_t)0xFFUL);
 8000faa:	683b      	ldr	r3, [r7, #0]
 8000fac:	b2da      	uxtb	r2, r3
 8000fae:	4908      	ldr	r1, [pc, #32]	; (8000fd0 <__NVIC_SetPriority+0x50>)
 8000fb0:	79fb      	ldrb	r3, [r7, #7]
 8000fb2:	f003 030f 	and.w	r3, r3, #15
 8000fb6:	3b04      	subs	r3, #4
 8000fb8:	0112      	lsls	r2, r2, #4
 8000fba:	b2d2      	uxtb	r2, r2
 8000fbc:	440b      	add	r3, r1
 8000fbe:	761a      	strb	r2, [r3, #24]
}
 8000fc0:	bf00      	nop
 8000fc2:	370c      	adds	r7, #12
 8000fc4:	46bd      	mov	sp, r7
 8000fc6:	f85d 7b04 	ldr.w	r7, [sp], #4
 8000fca:	4770      	bx	lr
 8000fcc:	e000e100 	.word	0xe000e100
 8000fd0:	e000ed00 	.word	0xe000ed00

08000fd4 <NVIC_EncodePriority>:
  \param [in]   PreemptPriority  Preemptive priority value (starting from 0).
  \param [in]       SubPriority  Subpriority value (starting from 0).
  \return                        Encoded priority. Value can be used in the function \ref NVIC_SetPriority().
 */
__STATIC_INLINE uint32_t NVIC_EncodePriority (uint32_t PriorityGroup, uint32_t PreemptPriority, uint32_t SubPriority)
{
 8000fd4:	b480      	push	{r7}
 8000fd6:	b089      	sub	sp, #36	; 0x24
 8000fd8:	af00      	add	r7, sp, #0
 8000fda:	60f8      	str	r0, [r7, #12]
 8000fdc:	60b9      	str	r1, [r7, #8]
 8000fde:	607a      	str	r2, [r7, #4]
  uint32_t PriorityGroupTmp = (PriorityGroup & (uint32_t)0x07UL);   /* only values 0..7 are used          */
 8000fe0:	68fb      	ldr	r3, [r7, #12]
 8000fe2:	f003 0307 	and.w	r3, r3, #7
 8000fe6:	61fb      	str	r3, [r7, #28]
  uint32_t PreemptPriorityBits;
  uint32_t SubPriorityBits;

  PreemptPriorityBits = ((7UL - PriorityGroupTmp) > (uint32_t)(__NVIC_PRIO_BITS)) ? (uint32_t)(__NVIC_PRIO_BITS) : (uint32_t)(7UL - PriorityGroupTmp);
 8000fe8:	69fb      	ldr	r3, [r7, #28]
 8000fea:	f1c3 0307 	rsb	r3, r3, #7
 8000fee:	2b04      	cmp	r3, #4
 8000ff0:	bf28      	it	cs
 8000ff2:	2304      	movcs	r3, #4
 8000ff4:	61bb      	str	r3, [r7, #24]
  SubPriorityBits     = ((PriorityGroupTmp + (uint32_t)(__NVIC_PRIO_BITS)) < (uint32_t)7UL) ? (uint32_t)0UL : (uint32_t)((PriorityGroupTmp - 7UL) + (uint32_t)(__NVIC_PRIO_BITS));
 8000ff6:	69fb      	ldr	r3, [r7, #28]
 8000ff8:	3304      	adds	r3, #4
 8000ffa:	2b06      	cmp	r3, #6
 8000ffc:	d902      	bls.n	8001004 <NVIC_EncodePriority+0x30>
 8000ffe:	69fb      	ldr	r3, [r7, #28]
 8001000:	3b03      	subs	r3, #3
 8001002:	e000      	b.n	8001006 <NVIC_EncodePriority+0x32>
 8001004:	2300      	movs	r3, #0
 8001006:	617b      	str	r3, [r7, #20]

  return (
           ((PreemptPriority & (uint32_t)((1UL << (PreemptPriorityBits)) - 1UL)) << SubPriorityBits) |
 8001008:	f04f 32ff 	mov.w	r2, #4294967295
 800100c:	69bb      	ldr	r3, [r7, #24]
 800100e:	fa02 f303 	lsl.w	r3, r2, r3
 8001012:	43da      	mvns	r2, r3
 8001014:	68bb      	ldr	r3, [r7, #8]
 8001016:	401a      	ands	r2, r3
 8001018:	697b      	ldr	r3, [r7, #20]
 800101a:	409a      	lsls	r2, r3
           ((SubPriority     & (uint32_t)((1UL << (SubPriorityBits    )) - 1UL)))
 800101c:	f04f 31ff 	mov.w	r1, #4294967295
 8001020:	697b      	ldr	r3, [r7, #20]
 8001022:	fa01 f303 	lsl.w	r3, r1, r3
 8001026:	43d9      	mvns	r1, r3
 8001028:	687b      	ldr	r3, [r7, #4]
 800102a:	400b      	ands	r3, r1
           ((PreemptPriority & (uint32_t)((1UL << (PreemptPriorityBits)) - 1UL)) << SubPriorityBits) |
 800102c:	4313      	orrs	r3, r2
         );
}
 800102e:	4618      	mov	r0, r3
 8001030:	3724      	adds	r7, #36	; 0x24
 8001032:	46bd      	mov	sp, r7
 8001034:	f85d 7b04 	ldr.w	r7, [sp], #4
 8001038:	4770      	bx	lr
	...

0800103c <SysTick_Config>:
  \note    When the variable <b>__Vendor_SysTickConfig</b> is set to 1, then the
           function <b>SysTick_Config</b> is not included. In this case, the file <b><i>device</i>.h</b>
           must contain a vendor-specific implementation of this function.
 */
__STATIC_INLINE uint32_t SysTick_Config(uint32_t ticks)
{
 800103c:	b580      	push	{r7, lr}
 800103e:	b082      	sub	sp, #8
 8001040:	af00      	add	r7, sp, #0
 8001042:	6078      	str	r0, [r7, #4]
  if ((ticks - 1UL) > SysTick_LOAD_RELOAD_Msk)
 8001044:	687b      	ldr	r3, [r7, #4]
 8001046:	3b01      	subs	r3, #1
 8001048:	f1b3 7f80 	cmp.w	r3, #16777216	; 0x1000000
 800104c:	d301      	bcc.n	8001052 <SysTick_Config+0x16>
  {
    return (1UL);                                                   /* Reload value impossible */
 800104e:	2301      	movs	r3, #1
 8001050:	e00f      	b.n	8001072 <SysTick_Config+0x36>
  }

  SysTick->LOAD  = (uint32_t)(ticks - 1UL);                         /* set reload register */
 8001052:	4a0a      	ldr	r2, [pc, #40]	; (800107c <SysTick_Config+0x40>)
 8001054:	687b      	ldr	r3, [r7, #4]
 8001056:	3b01      	subs	r3, #1
 8001058:	6053      	str	r3, [r2, #4]
  NVIC_SetPriority (SysTick_IRQn, (1UL << __NVIC_PRIO_BITS) - 1UL); /* set Priority for Systick Interrupt */
 800105a:	210f      	movs	r1, #15
 800105c:	f04f 30ff 	mov.w	r0, #4294967295
 8001060:	f7ff ff8e 	bl	8000f80 <__NVIC_SetPriority>
  SysTick->VAL   = 0UL;                                             /* Load the SysTick Counter Value */
 8001064:	4b05      	ldr	r3, [pc, #20]	; (800107c <SysTick_Config+0x40>)
 8001066:	2200      	movs	r2, #0
 8001068:	609a      	str	r2, [r3, #8]
  SysTick->CTRL  = SysTick_CTRL_CLKSOURCE_Msk |
 800106a:	4b04      	ldr	r3, [pc, #16]	; (800107c <SysTick_Config+0x40>)
 800106c:	2207      	movs	r2, #7
 800106e:	601a      	str	r2, [r3, #0]
                   SysTick_CTRL_TICKINT_Msk   |
                   SysTick_CTRL_ENABLE_Msk;                         /* Enable SysTick IRQ and SysTick Timer */
  return (0UL);                                                     /* Function successful */
 8001070:	2300      	movs	r3, #0
}
 8001072:	4618      	mov	r0, r3
 8001074:	3708      	adds	r7, #8
 8001076:	46bd      	mov	sp, r7
 8001078:	bd80      	pop	{r7, pc}
 800107a:	bf00      	nop
 800107c:	e000e010 	.word	0xe000e010

08001080 <HAL_NVIC_SetPriorityGrouping>:
  * @note   When the NVIC_PriorityGroup_0 is selected, IRQ preemption is no more possible. 
  *         The pending IRQ priority will be managed only by the subpriority. 
  * @retval None
  */
void HAL_NVIC_SetPriorityGrouping(uint32_t PriorityGroup)
{
 8001080:	b580      	push	{r7, lr}
 8001082:	b082      	sub	sp, #8
 8001084:	af00      	add	r7, sp, #0
 8001086:	6078      	str	r0, [r7, #4]
  /* Check the parameters */
  assert_param(IS_NVIC_PRIORITY_GROUP(PriorityGroup));
  
  /* Set the PRIGROUP[10:8] bits according to the PriorityGroup parameter value */
  NVIC_SetPriorityGrouping(PriorityGroup);
 8001088:	6878      	ldr	r0, [r7, #4]
 800108a:	f7ff ff29 	bl	8000ee0 <__NVIC_SetPriorityGrouping>
}
 800108e:	bf00      	nop
 8001090:	3708      	adds	r7, #8
 8001092:	46bd      	mov	sp, r7
 8001094:	bd80      	pop	{r7, pc}

08001096 <HAL_NVIC_SetPriority>:
  *         This parameter can be a value between 0 and 15
  *         A lower priority value indicates a higher priority.          
  * @retval None
  */
void HAL_NVIC_SetPriority(IRQn_Type IRQn, uint32_t PreemptPriority, uint32_t SubPriority)
{ 
 8001096:	b580      	push	{r7, lr}
 8001098:	b086      	sub	sp, #24
 800109a:	af00      	add	r7, sp, #0
 800109c:	4603      	mov	r3, r0
 800109e:	60b9      	str	r1, [r7, #8]
 80010a0:	607a      	str	r2, [r7, #4]
 80010a2:	73fb      	strb	r3, [r7, #15]
  uint32_t prioritygroup = 0x00;
 80010a4:	2300      	movs	r3, #0
 80010a6:	617b      	str	r3, [r7, #20]
  
  /* Check the parameters */
  assert_param(IS_NVIC_SUB_PRIORITY(SubPriority));
  assert_param(IS_NVIC_PREEMPTION_PRIORITY(PreemptPriority));
  
  prioritygroup = NVIC_GetPriorityGrouping();
 80010a8:	f7ff ff3e 	bl	8000f28 <__NVIC_GetPriorityGrouping>
 80010ac:	6178      	str	r0, [r7, #20]
  
  NVIC_SetPriority(IRQn, NVIC_EncodePriority(prioritygroup, PreemptPriority, SubPriority));
 80010ae:	687a      	ldr	r2, [r7, #4]
 80010b0:	68b9      	ldr	r1, [r7, #8]
 80010b2:	6978      	ldr	r0, [r7, #20]
 80010b4:	f7ff ff8e 	bl	8000fd4 <NVIC_EncodePriority>
 80010b8:	4602      	mov	r2, r0
 80010ba:	f997 300f 	ldrsb.w	r3, [r7, #15]
 80010be:	4611      	mov	r1, r2
 80010c0:	4618      	mov	r0, r3
 80010c2:	f7ff ff5d 	bl	8000f80 <__NVIC_SetPriority>
}
 80010c6:	bf00      	nop
 80010c8:	3718      	adds	r7, #24
 80010ca:	46bd      	mov	sp, r7
 80010cc:	bd80      	pop	{r7, pc}

080010ce <HAL_NVIC_EnableIRQ>:
  *         This parameter can be an enumerator of IRQn_Type enumeration
  *         (For the complete STM32 Devices IRQ Channels list, please refer to the appropriate CMSIS device file (stm32f7xxxx.h))
  * @retval None
  */
void HAL_NVIC_EnableIRQ(IRQn_Type IRQn)
{
 80010ce:	b580      	push	{r7, lr}
 80010d0:	b082      	sub	sp, #8
 80010d2:	af00      	add	r7, sp, #0
 80010d4:	4603      	mov	r3, r0
 80010d6:	71fb      	strb	r3, [r7, #7]
  /* Check the parameters */
  assert_param(IS_NVIC_DEVICE_IRQ(IRQn));
  
  /* Enable interrupt */
  NVIC_EnableIRQ(IRQn);
 80010d8:	f997 3007 	ldrsb.w	r3, [r7, #7]
 80010dc:	4618      	mov	r0, r3
 80010de:	f7ff ff31 	bl	8000f44 <__NVIC_EnableIRQ>
}
 80010e2:	bf00      	nop
 80010e4:	3708      	adds	r7, #8
 80010e6:	46bd      	mov	sp, r7
 80010e8:	bd80      	pop	{r7, pc}

080010ea <HAL_SYSTICK_Config>:
  * @param  TicksNumb Specifies the ticks Number of ticks between two interrupts.
  * @retval status:  - 0  Function succeeded.
  *                  - 1  Function failed.
  */
uint32_t HAL_SYSTICK_Config(uint32_t TicksNumb)
{
 80010ea:	b580      	push	{r7, lr}
 80010ec:	b082      	sub	sp, #8
 80010ee:	af00      	add	r7, sp, #0
 80010f0:	6078      	str	r0, [r7, #4]
   return SysTick_Config(TicksNumb);
 80010f2:	6878      	ldr	r0, [r7, #4]
 80010f4:	f7ff ffa2 	bl	800103c <SysTick_Config>
 80010f8:	4603      	mov	r3, r0
}
 80010fa:	4618      	mov	r0, r3
 80010fc:	3708      	adds	r7, #8
 80010fe:	46bd      	mov	sp, r7
 8001100:	bd80      	pop	{r7, pc}
	...

08001104 <HAL_DMA_Init>:
  * @param  hdma Pointer to a DMA_HandleTypeDef structure that contains
  *               the configuration information for the specified DMA Stream.  
  * @retval HAL status
  */
HAL_StatusTypeDef HAL_DMA_Init(DMA_HandleTypeDef *hdma)
{
 8001104:	b580      	push	{r7, lr}
 8001106:	b086      	sub	sp, #24
 8001108:	af00      	add	r7, sp, #0
 800110a:	6078      	str	r0, [r7, #4]
  uint32_t tmp = 0U;
 800110c:	2300      	movs	r3, #0
 800110e:	617b      	str	r3, [r7, #20]
  uint32_t tickstart = HAL_GetTick();
 8001110:	f7ff feda 	bl	8000ec8 <HAL_GetTick>
 8001114:	6138      	str	r0, [r7, #16]
  DMA_Base_Registers *regs;

  /* Check the DMA peripheral state */
  if(hdma == NULL)
 8001116:	687b      	ldr	r3, [r7, #4]
 8001118:	2b00      	cmp	r3, #0
 800111a:	d101      	bne.n	8001120 <HAL_DMA_Init+0x1c>
  {
    return HAL_ERROR;
 800111c:	2301      	movs	r3, #1
 800111e:	e099      	b.n	8001254 <HAL_DMA_Init+0x150>
    assert_param(IS_DMA_MEMORY_BURST(hdma->Init.MemBurst));
    assert_param(IS_DMA_PERIPHERAL_BURST(hdma->Init.PeriphBurst));
  }
  
  /* Change DMA peripheral state */
  hdma->State = HAL_DMA_STATE_BUSY;
 8001120:	687b      	ldr	r3, [r7, #4]
 8001122:	2202      	movs	r2, #2
 8001124:	f883 2035 	strb.w	r2, [r3, #53]	; 0x35
  
  /* Allocate lock resource */
  __HAL_UNLOCK(hdma);
 8001128:	687b      	ldr	r3, [r7, #4]
 800112a:	2200      	movs	r2, #0
 800112c:	f883 2034 	strb.w	r2, [r3, #52]	; 0x34

  
  /* Disable the peripheral */
  __HAL_DMA_DISABLE(hdma);
 8001130:	687b      	ldr	r3, [r7, #4]
 8001132:	681b      	ldr	r3, [r3, #0]
 8001134:	681a      	ldr	r2, [r3, #0]
 8001136:	687b      	ldr	r3, [r7, #4]
 8001138:	681b      	ldr	r3, [r3, #0]
 800113a:	f022 0201 	bic.w	r2, r2, #1
 800113e:	601a      	str	r2, [r3, #0]
  
  /* Check if the DMA Stream is effectively disabled */
  while((hdma->Instance->CR & DMA_SxCR_EN) != RESET)
 8001140:	e00f      	b.n	8001162 <HAL_DMA_Init+0x5e>
  {
    /* Check for the Timeout */
    if((HAL_GetTick() - tickstart ) > HAL_TIMEOUT_DMA_ABORT)
 8001142:	f7ff fec1 	bl	8000ec8 <HAL_GetTick>
 8001146:	4602      	mov	r2, r0
 8001148:	693b      	ldr	r3, [r7, #16]
 800114a:	1ad3      	subs	r3, r2, r3
 800114c:	2b05      	cmp	r3, #5
 800114e:	d908      	bls.n	8001162 <HAL_DMA_Init+0x5e>
    {
      /* Update error code */
      hdma->ErrorCode = HAL_DMA_ERROR_TIMEOUT;
 8001150:	687b      	ldr	r3, [r7, #4]
 8001152:	2220      	movs	r2, #32
 8001154:	655a      	str	r2, [r3, #84]	; 0x54
      
      /* Change the DMA state */
      hdma->State = HAL_DMA_STATE_TIMEOUT;
 8001156:	687b      	ldr	r3, [r7, #4]
 8001158:	2203      	movs	r2, #3
 800115a:	f883 2035 	strb.w	r2, [r3, #53]	; 0x35
      
      return HAL_TIMEOUT;
 800115e:	2303      	movs	r3, #3
 8001160:	e078      	b.n	8001254 <HAL_DMA_Init+0x150>
  while((hdma->Instance->CR & DMA_SxCR_EN) != RESET)
 8001162:	687b      	ldr	r3, [r7, #4]
 8001164:	681b      	ldr	r3, [r3, #0]
 8001166:	681b      	ldr	r3, [r3, #0]
 8001168:	f003 0301 	and.w	r3, r3, #1
 800116c:	2b00      	cmp	r3, #0
 800116e:	d1e8      	bne.n	8001142 <HAL_DMA_Init+0x3e>
    }
  }
  
  /* Get the CR register value */
  tmp = hdma->Instance->CR;
 8001170:	687b      	ldr	r3, [r7, #4]
 8001172:	681b      	ldr	r3, [r3, #0]
 8001174:	681b      	ldr	r3, [r3, #0]
 8001176:	617b      	str	r3, [r7, #20]

  /* Clear CHSEL, MBURST, PBURST, PL, MSIZE, PSIZE, MINC, PINC, CIRC, DIR, CT and DBM bits */
  tmp &= ((uint32_t)~(DMA_SxCR_CHSEL | DMA_SxCR_MBURST | DMA_SxCR_PBURST | \
 8001178:	697a      	ldr	r2, [r7, #20]
 800117a:	4b38      	ldr	r3, [pc, #224]	; (800125c <HAL_DMA_Init+0x158>)
 800117c:	4013      	ands	r3, r2
 800117e:	617b      	str	r3, [r7, #20]
                      DMA_SxCR_PL    | DMA_SxCR_MSIZE  | DMA_SxCR_PSIZE  | \
                      DMA_SxCR_MINC  | DMA_SxCR_PINC   | DMA_SxCR_CIRC   | \
                      DMA_SxCR_DIR   | DMA_SxCR_CT     | DMA_SxCR_DBM));

  /* Prepare the DMA Stream configuration */
  tmp |=  hdma->Init.Channel             | hdma->Init.Direction        |
 8001180:	687b      	ldr	r3, [r7, #4]
 8001182:	685a      	ldr	r2, [r3, #4]
 8001184:	687b      	ldr	r3, [r7, #4]
 8001186:	689b      	ldr	r3, [r3, #8]
 8001188:	431a      	orrs	r2, r3
          hdma->Init.PeriphInc           | hdma->Init.MemInc           |
 800118a:	687b      	ldr	r3, [r7, #4]
 800118c:	68db      	ldr	r3, [r3, #12]
  tmp |=  hdma->Init.Channel             | hdma->Init.Direction        |
 800118e:	431a      	orrs	r2, r3
          hdma->Init.PeriphInc           | hdma->Init.MemInc           |
 8001190:	687b      	ldr	r3, [r7, #4]
 8001192:	691b      	ldr	r3, [r3, #16]
 8001194:	431a      	orrs	r2, r3
          hdma->Init.PeriphDataAlignment | hdma->Init.MemDataAlignment |
 8001196:	687b      	ldr	r3, [r7, #4]
 8001198:	695b      	ldr	r3, [r3, #20]
          hdma->Init.PeriphInc           | hdma->Init.MemInc           |
 800119a:	431a      	orrs	r2, r3
          hdma->Init.PeriphDataAlignment | hdma->Init.MemDataAlignment |
 800119c:	687b      	ldr	r3, [r7, #4]
 800119e:	699b      	ldr	r3, [r3, #24]
 80011a0:	431a      	orrs	r2, r3
          hdma->Init.Mode                | hdma->Init.Priority;
 80011a2:	687b      	ldr	r3, [r7, #4]
 80011a4:	69db      	ldr	r3, [r3, #28]
          hdma->Init.PeriphDataAlignment | hdma->Init.MemDataAlignment |
 80011a6:	431a      	orrs	r2, r3
          hdma->Init.Mode                | hdma->Init.Priority;
 80011a8:	687b      	ldr	r3, [r7, #4]
 80011aa:	6a1b      	ldr	r3, [r3, #32]
 80011ac:	4313      	orrs	r3, r2
  tmp |=  hdma->Init.Channel             | hdma->Init.Direction        |
 80011ae:	697a      	ldr	r2, [r7, #20]
 80011b0:	4313      	orrs	r3, r2
 80011b2:	617b      	str	r3, [r7, #20]

  /* the Memory burst and peripheral burst are not used when the FIFO is disabled */
  if(hdma->Init.FIFOMode == DMA_FIFOMODE_ENABLE)
 80011b4:	687b      	ldr	r3, [r7, #4]
 80011b6:	6a5b      	ldr	r3, [r3, #36]	; 0x24
 80011b8:	2b04      	cmp	r3, #4
 80011ba:	d107      	bne.n	80011cc <HAL_DMA_Init+0xc8>
  {
    /* Get memory burst and peripheral burst */
    tmp |=  hdma->Init.MemBurst | hdma->Init.PeriphBurst;
 80011bc:	687b      	ldr	r3, [r7, #4]
 80011be:	6ada      	ldr	r2, [r3, #44]	; 0x2c
 80011c0:	687b      	ldr	r3, [r7, #4]
 80011c2:	6b1b      	ldr	r3, [r3, #48]	; 0x30
 80011c4:	4313      	orrs	r3, r2
 80011c6:	697a      	ldr	r2, [r7, #20]
 80011c8:	4313      	orrs	r3, r2
 80011ca:	617b      	str	r3, [r7, #20]
  }
  
  /* Write to DMA Stream CR register */
  hdma->Instance->CR = tmp;  
 80011cc:	687b      	ldr	r3, [r7, #4]
 80011ce:	681b      	ldr	r3, [r3, #0]
 80011d0:	697a      	ldr	r2, [r7, #20]
 80011d2:	601a      	str	r2, [r3, #0]

  /* Get the FCR register value */
  tmp = hdma->Instance->FCR;
 80011d4:	687b      	ldr	r3, [r7, #4]
 80011d6:	681b      	ldr	r3, [r3, #0]
 80011d8:	695b      	ldr	r3, [r3, #20]
 80011da:	617b      	str	r3, [r7, #20]

  /* Clear Direct mode and FIFO threshold bits */
  tmp &= (uint32_t)~(DMA_SxFCR_DMDIS | DMA_SxFCR_FTH);
 80011dc:	697b      	ldr	r3, [r7, #20]
 80011de:	f023 0307 	bic.w	r3, r3, #7
 80011e2:	617b      	str	r3, [r7, #20]

  /* Prepare the DMA Stream FIFO configuration */
  tmp |= hdma->Init.FIFOMode;
 80011e4:	687b      	ldr	r3, [r7, #4]
 80011e6:	6a5b      	ldr	r3, [r3, #36]	; 0x24
 80011e8:	697a      	ldr	r2, [r7, #20]
 80011ea:	4313      	orrs	r3, r2
 80011ec:	617b      	str	r3, [r7, #20]

  /* The FIFO threshold is not used when the FIFO mode is disabled */
  if(hdma->Init.FIFOMode == DMA_FIFOMODE_ENABLE)
 80011ee:	687b      	ldr	r3, [r7, #4]
 80011f0:	6a5b      	ldr	r3, [r3, #36]	; 0x24
 80011f2:	2b04      	cmp	r3, #4
 80011f4:	d117      	bne.n	8001226 <HAL_DMA_Init+0x122>
  {
    /* Get the FIFO threshold */
    tmp |= hdma->Init.FIFOThreshold;
 80011f6:	687b      	ldr	r3, [r7, #4]
 80011f8:	6a9b      	ldr	r3, [r3, #40]	; 0x28
 80011fa:	697a      	ldr	r2, [r7, #20]
 80011fc:	4313      	orrs	r3, r2
 80011fe:	617b      	str	r3, [r7, #20]
    
    /* Check compatibility between FIFO threshold level and size of the memory burst */
    /* for INCR4, INCR8, INCR16 bursts */
    if (hdma->Init.MemBurst != DMA_MBURST_SINGLE)
 8001200:	687b      	ldr	r3, [r7, #4]
 8001202:	6adb      	ldr	r3, [r3, #44]	; 0x2c
 8001204:	2b00      	cmp	r3, #0
 8001206:	d00e      	beq.n	8001226 <HAL_DMA_Init+0x122>
    {
      if (DMA_CheckFifoParam(hdma) != HAL_OK)
 8001208:	6878      	ldr	r0, [r7, #4]
 800120a:	f000 fb09 	bl	8001820 <DMA_CheckFifoParam>
 800120e:	4603      	mov	r3, r0
 8001210:	2b00      	cmp	r3, #0
 8001212:	d008      	beq.n	8001226 <HAL_DMA_Init+0x122>
      {
        /* Update error code */
        hdma->ErrorCode = HAL_DMA_ERROR_PARAM;
 8001214:	687b      	ldr	r3, [r7, #4]
 8001216:	2240      	movs	r2, #64	; 0x40
 8001218:	655a      	str	r2, [r3, #84]	; 0x54
        
        /* Change the DMA state */
        hdma->State = HAL_DMA_STATE_RESET;
 800121a:	687b      	ldr	r3, [r7, #4]
 800121c:	2200      	movs	r2, #0
 800121e:	f883 2035 	strb.w	r2, [r3, #53]	; 0x35
        
        return HAL_ERROR; 
 8001222:	2301      	movs	r3, #1
 8001224:	e016      	b.n	8001254 <HAL_DMA_Init+0x150>
      }
    }
  }
  
  /* Write to DMA Stream FCR */
  hdma->Instance->FCR = tmp;
 8001226:	687b      	ldr	r3, [r7, #4]
 8001228:	681b      	ldr	r3, [r3, #0]
 800122a:	697a      	ldr	r2, [r7, #20]
 800122c:	615a      	str	r2, [r3, #20]

  /* Initialize StreamBaseAddress and StreamIndex parameters to be used to calculate
     DMA steam Base Address needed by HAL_DMA_IRQHandler() and HAL_DMA_PollForTransfer() */
  regs = (DMA_Base_Registers *)DMA_CalcBaseAndBitshift(hdma);
 800122e:	6878      	ldr	r0, [r7, #4]
 8001230:	f000 fac0 	bl	80017b4 <DMA_CalcBaseAndBitshift>
 8001234:	4603      	mov	r3, r0
 8001236:	60fb      	str	r3, [r7, #12]
  
  /* Clear all interrupt flags */
  regs->IFCR = 0x3FU << hdma->StreamIndex;
 8001238:	687b      	ldr	r3, [r7, #4]
 800123a:	6ddb      	ldr	r3, [r3, #92]	; 0x5c
 800123c:	223f      	movs	r2, #63	; 0x3f
 800123e:	409a      	lsls	r2, r3
 8001240:	68fb      	ldr	r3, [r7, #12]
 8001242:	609a      	str	r2, [r3, #8]

  /* Initialize the error code */
  hdma->ErrorCode = HAL_DMA_ERROR_NONE;
 8001244:	687b      	ldr	r3, [r7, #4]
 8001246:	2200      	movs	r2, #0
 8001248:	655a      	str	r2, [r3, #84]	; 0x54
                                                                                     
  /* Initialize the DMA state */
  hdma->State = HAL_DMA_STATE_READY;
 800124a:	687b      	ldr	r3, [r7, #4]
 800124c:	2201      	movs	r2, #1
 800124e:	f883 2035 	strb.w	r2, [r3, #53]	; 0x35

  return HAL_OK;
 8001252:	2300      	movs	r3, #0
}
 8001254:	4618      	mov	r0, r3
 8001256:	3718      	adds	r7, #24
 8001258:	46bd      	mov	sp, r7
 800125a:	bd80      	pop	{r7, pc}
 800125c:	e010803f 	.word	0xe010803f

08001260 <HAL_DMA_Start_IT>:
  * @param  DstAddress The destination memory Buffer address
  * @param  DataLength The length of data to be transferred from source to destination
  * @retval HAL status
  */
HAL_StatusTypeDef HAL_DMA_Start_IT(DMA_HandleTypeDef *hdma, uint32_t SrcAddress, uint32_t DstAddress, uint32_t DataLength)
{
 8001260:	b580      	push	{r7, lr}
 8001262:	b086      	sub	sp, #24
 8001264:	af00      	add	r7, sp, #0
 8001266:	60f8      	str	r0, [r7, #12]
 8001268:	60b9      	str	r1, [r7, #8]
 800126a:	607a      	str	r2, [r7, #4]
 800126c:	603b      	str	r3, [r7, #0]
  HAL_StatusTypeDef status = HAL_OK;
 800126e:	2300      	movs	r3, #0
 8001270:	75fb      	strb	r3, [r7, #23]

  /* calculate DMA base and stream number */
  DMA_Base_Registers *regs = (DMA_Base_Registers *)hdma->StreamBaseAddress;
 8001272:	68fb      	ldr	r3, [r7, #12]
 8001274:	6d9b      	ldr	r3, [r3, #88]	; 0x58
 8001276:	613b      	str	r3, [r7, #16]
  
  /* Check the parameters */
  assert_param(IS_DMA_BUFFER_SIZE(DataLength));
 
  /* Process locked */
  __HAL_LOCK(hdma);
 8001278:	68fb      	ldr	r3, [r7, #12]
 800127a:	f893 3034 	ldrb.w	r3, [r3, #52]	; 0x34
 800127e:	2b01      	cmp	r3, #1
 8001280:	d101      	bne.n	8001286 <HAL_DMA_Start_IT+0x26>
 8001282:	2302      	movs	r3, #2
 8001284:	e048      	b.n	8001318 <HAL_DMA_Start_IT+0xb8>
 8001286:	68fb      	ldr	r3, [r7, #12]
 8001288:	2201      	movs	r2, #1
 800128a:	f883 2034 	strb.w	r2, [r3, #52]	; 0x34
  
  if(HAL_DMA_STATE_READY == hdma->State)
 800128e:	68fb      	ldr	r3, [r7, #12]
 8001290:	f893 3035 	ldrb.w	r3, [r3, #53]	; 0x35
 8001294:	b2db      	uxtb	r3, r3
 8001296:	2b01      	cmp	r3, #1
 8001298:	d137      	bne.n	800130a <HAL_DMA_Start_IT+0xaa>
  {
    /* Change DMA peripheral state */
    hdma->State = HAL_DMA_STATE_BUSY;
 800129a:	68fb      	ldr	r3, [r7, #12]
 800129c:	2202      	movs	r2, #2
 800129e:	f883 2035 	strb.w	r2, [r3, #53]	; 0x35
    
    /* Initialize the error code */
    hdma->ErrorCode = HAL_DMA_ERROR_NONE;
 80012a2:	68fb      	ldr	r3, [r7, #12]
 80012a4:	2200      	movs	r2, #0
 80012a6:	655a      	str	r2, [r3, #84]	; 0x54
    
    /* Configure the source, destination address and the data length */
    DMA_SetConfig(hdma, SrcAddress, DstAddress, DataLength);
 80012a8:	683b      	ldr	r3, [r7, #0]
 80012aa:	687a      	ldr	r2, [r7, #4]
 80012ac:	68b9      	ldr	r1, [r7, #8]
 80012ae:	68f8      	ldr	r0, [r7, #12]
 80012b0:	f000 fa52 	bl	8001758 <DMA_SetConfig>
    
    /* Clear all interrupt flags at correct offset within the register */
    regs->IFCR = 0x3FU << hdma->StreamIndex;
 80012b4:	68fb      	ldr	r3, [r7, #12]
 80012b6:	6ddb      	ldr	r3, [r3, #92]	; 0x5c
 80012b8:	223f      	movs	r2, #63	; 0x3f
 80012ba:	409a      	lsls	r2, r3
 80012bc:	693b      	ldr	r3, [r7, #16]
 80012be:	609a      	str	r2, [r3, #8]
    
    /* Enable Common interrupts*/
    hdma->Instance->CR  |= DMA_IT_TC | DMA_IT_TE | DMA_IT_DME;
 80012c0:	68fb      	ldr	r3, [r7, #12]
 80012c2:	681b      	ldr	r3, [r3, #0]
 80012c4:	681a      	ldr	r2, [r3, #0]
 80012c6:	68fb      	ldr	r3, [r7, #12]
 80012c8:	681b      	ldr	r3, [r3, #0]
 80012ca:	f042 0216 	orr.w	r2, r2, #22
 80012ce:	601a      	str	r2, [r3, #0]
    hdma->Instance->FCR |= DMA_IT_FE;
 80012d0:	68fb      	ldr	r3, [r7, #12]
 80012d2:	681b      	ldr	r3, [r3, #0]
 80012d4:	695a      	ldr	r2, [r3, #20]
 80012d6:	68fb      	ldr	r3, [r7, #12]
 80012d8:	681b      	ldr	r3, [r3, #0]
 80012da:	f042 0280 	orr.w	r2, r2, #128	; 0x80
 80012de:	615a      	str	r2, [r3, #20]
    
    if(hdma->XferHalfCpltCallback != NULL)
 80012e0:	68fb      	ldr	r3, [r7, #12]
 80012e2:	6c1b      	ldr	r3, [r3, #64]	; 0x40
 80012e4:	2b00      	cmp	r3, #0
 80012e6:	d007      	beq.n	80012f8 <HAL_DMA_Start_IT+0x98>
    {
      hdma->Instance->CR  |= DMA_IT_HT;
 80012e8:	68fb      	ldr	r3, [r7, #12]
 80012ea:	681b      	ldr	r3, [r3, #0]
 80012ec:	681a      	ldr	r2, [r3, #0]
 80012ee:	68fb      	ldr	r3, [r7, #12]
 80012f0:	681b      	ldr	r3, [r3, #0]
 80012f2:	f042 0208 	orr.w	r2, r2, #8
 80012f6:	601a      	str	r2, [r3, #0]
    }
    
    /* Enable the Peripheral */
    __HAL_DMA_ENABLE(hdma);
 80012f8:	68fb      	ldr	r3, [r7, #12]
 80012fa:	681b      	ldr	r3, [r3, #0]
 80012fc:	681a      	ldr	r2, [r3, #0]
 80012fe:	68fb      	ldr	r3, [r7, #12]
 8001300:	681b      	ldr	r3, [r3, #0]
 8001302:	f042 0201 	orr.w	r2, r2, #1
 8001306:	601a      	str	r2, [r3, #0]
 8001308:	e005      	b.n	8001316 <HAL_DMA_Start_IT+0xb6>
  }
  else
  {
    /* Process unlocked */
    __HAL_UNLOCK(hdma);	  
 800130a:	68fb      	ldr	r3, [r7, #12]
 800130c:	2200      	movs	r2, #0
 800130e:	f883 2034 	strb.w	r2, [r3, #52]	; 0x34
    
    /* Return error status */
    status = HAL_BUSY;
 8001312:	2302      	movs	r3, #2
 8001314:	75fb      	strb	r3, [r7, #23]
  }
  
  return status;
 8001316:	7dfb      	ldrb	r3, [r7, #23]
}
 8001318:	4618      	mov	r0, r3
 800131a:	3718      	adds	r7, #24
 800131c:	46bd      	mov	sp, r7
 800131e:	bd80      	pop	{r7, pc}

08001320 <HAL_DMA_Abort>:
  *        and the Stream will be effectively disabled only after the transfer of
  *        this single data is finished.  
  * @retval HAL status
  */
HAL_StatusTypeDef HAL_DMA_Abort(DMA_HandleTypeDef *hdma)
{
 8001320:	b580      	push	{r7, lr}
 8001322:	b084      	sub	sp, #16
 8001324:	af00      	add	r7, sp, #0
 8001326:	6078      	str	r0, [r7, #4]
  /* calculate DMA base and stream number */
  DMA_Base_Registers *regs = (DMA_Base_Registers *)hdma->StreamBaseAddress;
 8001328:	687b      	ldr	r3, [r7, #4]
 800132a:	6d9b      	ldr	r3, [r3, #88]	; 0x58
 800132c:	60fb      	str	r3, [r7, #12]
  
  uint32_t tickstart = HAL_GetTick();
 800132e:	f7ff fdcb 	bl	8000ec8 <HAL_GetTick>
 8001332:	60b8      	str	r0, [r7, #8]
  
  if(hdma->State != HAL_DMA_STATE_BUSY)
 8001334:	687b      	ldr	r3, [r7, #4]
 8001336:	f893 3035 	ldrb.w	r3, [r3, #53]	; 0x35
 800133a:	b2db      	uxtb	r3, r3
 800133c:	2b02      	cmp	r3, #2
 800133e:	d008      	beq.n	8001352 <HAL_DMA_Abort+0x32>
  {
    hdma->ErrorCode = HAL_DMA_ERROR_NO_XFER;
 8001340:	687b      	ldr	r3, [r7, #4]
 8001342:	2280      	movs	r2, #128	; 0x80
 8001344:	655a      	str	r2, [r3, #84]	; 0x54
    
    /* Process Unlocked */
    __HAL_UNLOCK(hdma);
 8001346:	687b      	ldr	r3, [r7, #4]
 8001348:	2200      	movs	r2, #0
 800134a:	f883 2034 	strb.w	r2, [r3, #52]	; 0x34
    
    return HAL_ERROR;
 800134e:	2301      	movs	r3, #1
 8001350:	e052      	b.n	80013f8 <HAL_DMA_Abort+0xd8>
  }
  else
  {
    /* Disable all the transfer interrupts */
    hdma->Instance->CR  &= ~(DMA_IT_TC | DMA_IT_TE | DMA_IT_DME);
 8001352:	687b      	ldr	r3, [r7, #4]
 8001354:	681b      	ldr	r3, [r3, #0]
 8001356:	681a      	ldr	r2, [r3, #0]
 8001358:	687b      	ldr	r3, [r7, #4]
 800135a:	681b      	ldr	r3, [r3, #0]
 800135c:	f022 0216 	bic.w	r2, r2, #22
 8001360:	601a      	str	r2, [r3, #0]
    hdma->Instance->FCR &= ~(DMA_IT_FE);
 8001362:	687b      	ldr	r3, [r7, #4]
 8001364:	681b      	ldr	r3, [r3, #0]
 8001366:	695a      	ldr	r2, [r3, #20]
 8001368:	687b      	ldr	r3, [r7, #4]
 800136a:	681b      	ldr	r3, [r3, #0]
 800136c:	f022 0280 	bic.w	r2, r2, #128	; 0x80
 8001370:	615a      	str	r2, [r3, #20]
    
    if((hdma->XferHalfCpltCallback != NULL) || (hdma->XferM1HalfCpltCallback != NULL))
 8001372:	687b      	ldr	r3, [r7, #4]
 8001374:	6c1b      	ldr	r3, [r3, #64]	; 0x40
 8001376:	2b00      	cmp	r3, #0
 8001378:	d103      	bne.n	8001382 <HAL_DMA_Abort+0x62>
 800137a:	687b      	ldr	r3, [r7, #4]
 800137c:	6c9b      	ldr	r3, [r3, #72]	; 0x48
 800137e:	2b00      	cmp	r3, #0
 8001380:	d007      	beq.n	8001392 <HAL_DMA_Abort+0x72>
    {
      hdma->Instance->CR  &= ~(DMA_IT_HT);
 8001382:	687b      	ldr	r3, [r7, #4]
 8001384:	681b      	ldr	r3, [r3, #0]
 8001386:	681a      	ldr	r2, [r3, #0]
 8001388:	687b      	ldr	r3, [r7, #4]
 800138a:	681b      	ldr	r3, [r3, #0]
 800138c:	f022 0208 	bic.w	r2, r2, #8
 8001390:	601a      	str	r2, [r3, #0]
    }
    
    /* Disable the stream */
    __HAL_DMA_DISABLE(hdma);
 8001392:	687b      	ldr	r3, [r7, #4]
 8001394:	681b      	ldr	r3, [r3, #0]
 8001396:	681a      	ldr	r2, [r3, #0]
 8001398:	687b      	ldr	r3, [r7, #4]
 800139a:	681b      	ldr	r3, [r3, #0]
 800139c:	f022 0201 	bic.w	r2, r2, #1
 80013a0:	601a      	str	r2, [r3, #0]
    
    /* Check if the DMA Stream is effectively disabled */
    while((hdma->Instance->CR & DMA_SxCR_EN) != RESET)
 80013a2:	e013      	b.n	80013cc <HAL_DMA_Abort+0xac>
    {
      /* Check for the Timeout */
      if((HAL_GetTick() - tickstart ) > HAL_TIMEOUT_DMA_ABORT)
 80013a4:	f7ff fd90 	bl	8000ec8 <HAL_GetTick>
 80013a8:	4602      	mov	r2, r0
 80013aa:	68bb      	ldr	r3, [r7, #8]
 80013ac:	1ad3      	subs	r3, r2, r3
 80013ae:	2b05      	cmp	r3, #5
 80013b0:	d90c      	bls.n	80013cc <HAL_DMA_Abort+0xac>
      {
        /* Update error code */
        hdma->ErrorCode = HAL_DMA_ERROR_TIMEOUT;
 80013b2:	687b      	ldr	r3, [r7, #4]
 80013b4:	2220      	movs	r2, #32
 80013b6:	655a      	str	r2, [r3, #84]	; 0x54
        
        /* Change the DMA state */
        hdma->State = HAL_DMA_STATE_TIMEOUT;
 80013b8:	687b      	ldr	r3, [r7, #4]
 80013ba:	2203      	movs	r2, #3
 80013bc:	f883 2035 	strb.w	r2, [r3, #53]	; 0x35
        
        /* Process Unlocked */
        __HAL_UNLOCK(hdma);
 80013c0:	687b      	ldr	r3, [r7, #4]
 80013c2:	2200      	movs	r2, #0
 80013c4:	f883 2034 	strb.w	r2, [r3, #52]	; 0x34

        return HAL_TIMEOUT;
 80013c8:	2303      	movs	r3, #3
 80013ca:	e015      	b.n	80013f8 <HAL_DMA_Abort+0xd8>
    while((hdma->Instance->CR & DMA_SxCR_EN) != RESET)
 80013cc:	687b      	ldr	r3, [r7, #4]
 80013ce:	681b      	ldr	r3, [r3, #0]
 80013d0:	681b      	ldr	r3, [r3, #0]
 80013d2:	f003 0301 	and.w	r3, r3, #1
 80013d6:	2b00      	cmp	r3, #0
 80013d8:	d1e4      	bne.n	80013a4 <HAL_DMA_Abort+0x84>
      }
    }
    
    /* Clear all interrupt flags at correct offset within the register */
    regs->IFCR = 0x3FU << hdma->StreamIndex;
 80013da:	687b      	ldr	r3, [r7, #4]
 80013dc:	6ddb      	ldr	r3, [r3, #92]	; 0x5c
 80013de:	223f      	movs	r2, #63	; 0x3f
 80013e0:	409a      	lsls	r2, r3
 80013e2:	68fb      	ldr	r3, [r7, #12]
 80013e4:	609a      	str	r2, [r3, #8]
    
    /* Change the DMA state*/
    hdma->State = HAL_DMA_STATE_READY;
 80013e6:	687b      	ldr	r3, [r7, #4]
 80013e8:	2201      	movs	r2, #1
 80013ea:	f883 2035 	strb.w	r2, [r3, #53]	; 0x35
    
    /* Process Unlocked */
    __HAL_UNLOCK(hdma);
 80013ee:	687b      	ldr	r3, [r7, #4]
 80013f0:	2200      	movs	r2, #0
 80013f2:	f883 2034 	strb.w	r2, [r3, #52]	; 0x34
    
  }
  return HAL_OK;
 80013f6:	2300      	movs	r3, #0
}
 80013f8:	4618      	mov	r0, r3
 80013fa:	3710      	adds	r7, #16
 80013fc:	46bd      	mov	sp, r7
 80013fe:	bd80      	pop	{r7, pc}

08001400 <HAL_DMA_Abort_IT>:
  * @param  hdma   pointer to a DMA_HandleTypeDef structure that contains
  *                 the configuration information for the specified DMA Stream.
  * @retval HAL status
  */
HAL_StatusTypeDef HAL_DMA_Abort_IT(DMA_HandleTypeDef *hdma)
{
 8001400:	b480      	push	{r7}
 8001402:	b083      	sub	sp, #12
 8001404:	af00      	add	r7, sp, #0
 8001406:	6078      	str	r0, [r7, #4]
  if(hdma->State != HAL_DMA_STATE_BUSY)
 8001408:	687b      	ldr	r3, [r7, #4]
 800140a:	f893 3035 	ldrb.w	r3, [r3, #53]	; 0x35
 800140e:	b2db      	uxtb	r3, r3
 8001410:	2b02      	cmp	r3, #2
 8001412:	d004      	beq.n	800141e <HAL_DMA_Abort_IT+0x1e>
  {
    hdma->ErrorCode = HAL_DMA_ERROR_NO_XFER;
 8001414:	687b      	ldr	r3, [r7, #4]
 8001416:	2280      	movs	r2, #128	; 0x80
 8001418:	655a      	str	r2, [r3, #84]	; 0x54
    return HAL_ERROR;
 800141a:	2301      	movs	r3, #1
 800141c:	e00c      	b.n	8001438 <HAL_DMA_Abort_IT+0x38>
  }
  else
  {
    /* Set Abort State  */
    hdma->State = HAL_DMA_STATE_ABORT;
 800141e:	687b      	ldr	r3, [r7, #4]
 8001420:	2205      	movs	r2, #5
 8001422:	f883 2035 	strb.w	r2, [r3, #53]	; 0x35
    
    /* Disable the stream */
    __HAL_DMA_DISABLE(hdma);
 8001426:	687b      	ldr	r3, [r7, #4]
 8001428:	681b      	ldr	r3, [r3, #0]
 800142a:	681a      	ldr	r2, [r3, #0]
 800142c:	687b      	ldr	r3, [r7, #4]
 800142e:	681b      	ldr	r3, [r3, #0]
 8001430:	f022 0201 	bic.w	r2, r2, #1
 8001434:	601a      	str	r2, [r3, #0]
  }

  return HAL_OK;
 8001436:	2300      	movs	r3, #0
}
 8001438:	4618      	mov	r0, r3
 800143a:	370c      	adds	r7, #12
 800143c:	46bd      	mov	sp, r7
 800143e:	f85d 7b04 	ldr.w	r7, [sp], #4
 8001442:	4770      	bx	lr

08001444 <HAL_DMA_IRQHandler>:
  * @param  hdma pointer to a DMA_HandleTypeDef structure that contains
  *               the configuration information for the specified DMA Stream.  
  * @retval None
  */
void HAL_DMA_IRQHandler(DMA_HandleTypeDef *hdma)
{
 8001444:	b580      	push	{r7, lr}
 8001446:	b086      	sub	sp, #24
 8001448:	af00      	add	r7, sp, #0
 800144a:	6078      	str	r0, [r7, #4]
  uint32_t tmpisr;
  __IO uint32_t count = 0;
 800144c:	2300      	movs	r3, #0
 800144e:	60bb      	str	r3, [r7, #8]
  uint32_t timeout = SystemCoreClock / 9600;
 8001450:	4b8e      	ldr	r3, [pc, #568]	; (800168c <HAL_DMA_IRQHandler+0x248>)
 8001452:	681b      	ldr	r3, [r3, #0]
 8001454:	4a8e      	ldr	r2, [pc, #568]	; (8001690 <HAL_DMA_IRQHandler+0x24c>)
 8001456:	fba2 2303 	umull	r2, r3, r2, r3
 800145a:	0a9b      	lsrs	r3, r3, #10
 800145c:	617b      	str	r3, [r7, #20]

  /* calculate DMA base and stream number */
  DMA_Base_Registers *regs = (DMA_Base_Registers *)hdma->StreamBaseAddress;
 800145e:	687b      	ldr	r3, [r7, #4]
 8001460:	6d9b      	ldr	r3, [r3, #88]	; 0x58
 8001462:	613b      	str	r3, [r7, #16]

  tmpisr = regs->ISR;
 8001464:	693b      	ldr	r3, [r7, #16]
 8001466:	681b      	ldr	r3, [r3, #0]
 8001468:	60fb      	str	r3, [r7, #12]

  /* Transfer Error Interrupt management ***************************************/
  if ((tmpisr & (DMA_FLAG_TEIF0_4 << hdma->StreamIndex)) != RESET)
 800146a:	687b      	ldr	r3, [r7, #4]
 800146c:	6ddb      	ldr	r3, [r3, #92]	; 0x5c
 800146e:	2208      	movs	r2, #8
 8001470:	409a      	lsls	r2, r3
 8001472:	68fb      	ldr	r3, [r7, #12]
 8001474:	4013      	ands	r3, r2
 8001476:	2b00      	cmp	r3, #0
 8001478:	d01a      	beq.n	80014b0 <HAL_DMA_IRQHandler+0x6c>
  {
    if(__HAL_DMA_GET_IT_SOURCE(hdma, DMA_IT_TE) != RESET)
 800147a:	687b      	ldr	r3, [r7, #4]
 800147c:	681b      	ldr	r3, [r3, #0]
 800147e:	681b      	ldr	r3, [r3, #0]
 8001480:	f003 0304 	and.w	r3, r3, #4
 8001484:	2b00      	cmp	r3, #0
 8001486:	d013      	beq.n	80014b0 <HAL_DMA_IRQHandler+0x6c>
    {
      /* Disable the transfer error interrupt */
      hdma->Instance->CR  &= ~(DMA_IT_TE);
 8001488:	687b      	ldr	r3, [r7, #4]
 800148a:	681b      	ldr	r3, [r3, #0]
 800148c:	681a      	ldr	r2, [r3, #0]
 800148e:	687b      	ldr	r3, [r7, #4]
 8001490:	681b      	ldr	r3, [r3, #0]
 8001492:	f022 0204 	bic.w	r2, r2, #4
 8001496:	601a      	str	r2, [r3, #0]
      
      /* Clear the transfer error flag */
      regs->IFCR = DMA_FLAG_TEIF0_4 << hdma->StreamIndex;
 8001498:	687b      	ldr	r3, [r7, #4]
 800149a:	6ddb      	ldr	r3, [r3, #92]	; 0x5c
 800149c:	2208      	movs	r2, #8
 800149e:	409a      	lsls	r2, r3
 80014a0:	693b      	ldr	r3, [r7, #16]
 80014a2:	609a      	str	r2, [r3, #8]
      
      /* Update error code */
      hdma->ErrorCode |= HAL_DMA_ERROR_TE;
 80014a4:	687b      	ldr	r3, [r7, #4]
 80014a6:	6d5b      	ldr	r3, [r3, #84]	; 0x54
 80014a8:	f043 0201 	orr.w	r2, r3, #1
 80014ac:	687b      	ldr	r3, [r7, #4]
 80014ae:	655a      	str	r2, [r3, #84]	; 0x54
    }
  }
  /* FIFO Error Interrupt management ******************************************/
  if ((tmpisr & (DMA_FLAG_FEIF0_4 << hdma->StreamIndex)) != RESET)
 80014b0:	687b      	ldr	r3, [r7, #4]
 80014b2:	6ddb      	ldr	r3, [r3, #92]	; 0x5c
 80014b4:	2201      	movs	r2, #1
 80014b6:	409a      	lsls	r2, r3
 80014b8:	68fb      	ldr	r3, [r7, #12]
 80014ba:	4013      	ands	r3, r2
 80014bc:	2b00      	cmp	r3, #0
 80014be:	d012      	beq.n	80014e6 <HAL_DMA_IRQHandler+0xa2>
  {
    if(__HAL_DMA_GET_IT_SOURCE(hdma, DMA_IT_FE) != RESET)
 80014c0:	687b      	ldr	r3, [r7, #4]
 80014c2:	681b      	ldr	r3, [r3, #0]
 80014c4:	695b      	ldr	r3, [r3, #20]
 80014c6:	f003 0380 	and.w	r3, r3, #128	; 0x80
 80014ca:	2b00      	cmp	r3, #0
 80014cc:	d00b      	beq.n	80014e6 <HAL_DMA_IRQHandler+0xa2>
    {
      /* Clear the FIFO error flag */
      regs->IFCR = DMA_FLAG_FEIF0_4 << hdma->StreamIndex;
 80014ce:	687b      	ldr	r3, [r7, #4]
 80014d0:	6ddb      	ldr	r3, [r3, #92]	; 0x5c
 80014d2:	2201      	movs	r2, #1
 80014d4:	409a      	lsls	r2, r3
 80014d6:	693b      	ldr	r3, [r7, #16]
 80014d8:	609a      	str	r2, [r3, #8]

      /* Update error code */
      hdma->ErrorCode |= HAL_DMA_ERROR_FE;
 80014da:	687b      	ldr	r3, [r7, #4]
 80014dc:	6d5b      	ldr	r3, [r3, #84]	; 0x54
 80014de:	f043 0202 	orr.w	r2, r3, #2
 80014e2:	687b      	ldr	r3, [r7, #4]
 80014e4:	655a      	str	r2, [r3, #84]	; 0x54
    }
  }
  /* Direct Mode Error Interrupt management ***********************************/
  if ((tmpisr & (DMA_FLAG_DMEIF0_4 << hdma->StreamIndex)) != RESET)
 80014e6:	687b      	ldr	r3, [r7, #4]
 80014e8:	6ddb      	ldr	r3, [r3, #92]	; 0x5c
 80014ea:	2204      	movs	r2, #4
 80014ec:	409a      	lsls	r2, r3
 80014ee:	68fb      	ldr	r3, [r7, #12]
 80014f0:	4013      	ands	r3, r2
 80014f2:	2b00      	cmp	r3, #0
 80014f4:	d012      	beq.n	800151c <HAL_DMA_IRQHandler+0xd8>
  {
    if(__HAL_DMA_GET_IT_SOURCE(hdma, DMA_IT_DME) != RESET)
 80014f6:	687b      	ldr	r3, [r7, #4]
 80014f8:	681b      	ldr	r3, [r3, #0]
 80014fa:	681b      	ldr	r3, [r3, #0]
 80014fc:	f003 0302 	and.w	r3, r3, #2
 8001500:	2b00      	cmp	r3, #0
 8001502:	d00b      	beq.n	800151c <HAL_DMA_IRQHandler+0xd8>
    {
      /* Clear the direct mode error flag */
      regs->IFCR = DMA_FLAG_DMEIF0_4 << hdma->StreamIndex;
 8001504:	687b      	ldr	r3, [r7, #4]
 8001506:	6ddb      	ldr	r3, [r3, #92]	; 0x5c
 8001508:	2204      	movs	r2, #4
 800150a:	409a      	lsls	r2, r3
 800150c:	693b      	ldr	r3, [r7, #16]
 800150e:	609a      	str	r2, [r3, #8]

      /* Update error code */
      hdma->ErrorCode |= HAL_DMA_ERROR_DME;
 8001510:	687b      	ldr	r3, [r7, #4]
 8001512:	6d5b      	ldr	r3, [r3, #84]	; 0x54
 8001514:	f043 0204 	orr.w	r2, r3, #4
 8001518:	687b      	ldr	r3, [r7, #4]
 800151a:	655a      	str	r2, [r3, #84]	; 0x54
    }
  }
  /* Half Transfer Complete Interrupt management ******************************/
  if ((tmpisr & (DMA_FLAG_HTIF0_4 << hdma->StreamIndex)) != RESET)
 800151c:	687b      	ldr	r3, [r7, #4]
 800151e:	6ddb      	ldr	r3, [r3, #92]	; 0x5c
 8001520:	2210      	movs	r2, #16
 8001522:	409a      	lsls	r2, r3
 8001524:	68fb      	ldr	r3, [r7, #12]
 8001526:	4013      	ands	r3, r2
 8001528:	2b00      	cmp	r3, #0
 800152a:	d043      	beq.n	80015b4 <HAL_DMA_IRQHandler+0x170>
  {
    if(__HAL_DMA_GET_IT_SOURCE(hdma, DMA_IT_HT) != RESET)
 800152c:	687b      	ldr	r3, [r7, #4]
 800152e:	681b      	ldr	r3, [r3, #0]
 8001530:	681b      	ldr	r3, [r3, #0]
 8001532:	f003 0308 	and.w	r3, r3, #8
 8001536:	2b00      	cmp	r3, #0
 8001538:	d03c      	beq.n	80015b4 <HAL_DMA_IRQHandler+0x170>
    {
      /* Clear the half transfer complete flag */
      regs->IFCR = DMA_FLAG_HTIF0_4 << hdma->StreamIndex;
 800153a:	687b      	ldr	r3, [r7, #4]
 800153c:	6ddb      	ldr	r3, [r3, #92]	; 0x5c
 800153e:	2210      	movs	r2, #16
 8001540:	409a      	lsls	r2, r3
 8001542:	693b      	ldr	r3, [r7, #16]
 8001544:	609a      	str	r2, [r3, #8]
      
      /* Multi_Buffering mode enabled */
      if(((hdma->Instance->CR) & (uint32_t)(DMA_SxCR_DBM)) != RESET)
 8001546:	687b      	ldr	r3, [r7, #4]
 8001548:	681b      	ldr	r3, [r3, #0]
 800154a:	681b      	ldr	r3, [r3, #0]
 800154c:	f403 2380 	and.w	r3, r3, #262144	; 0x40000
 8001550:	2b00      	cmp	r3, #0
 8001552:	d018      	beq.n	8001586 <HAL_DMA_IRQHandler+0x142>
      {
        /* Current memory buffer used is Memory 0 */
        if((hdma->Instance->CR & DMA_SxCR_CT) == RESET)
 8001554:	687b      	ldr	r3, [r7, #4]
 8001556:	681b      	ldr	r3, [r3, #0]
 8001558:	681b      	ldr	r3, [r3, #0]
 800155a:	f403 2300 	and.w	r3, r3, #524288	; 0x80000
 800155e:	2b00      	cmp	r3, #0
 8001560:	d108      	bne.n	8001574 <HAL_DMA_IRQHandler+0x130>
        {
          if(hdma->XferHalfCpltCallback != NULL)
 8001562:	687b      	ldr	r3, [r7, #4]
 8001564:	6c1b      	ldr	r3, [r3, #64]	; 0x40
 8001566:	2b00      	cmp	r3, #0
 8001568:	d024      	beq.n	80015b4 <HAL_DMA_IRQHandler+0x170>
          {
            /* Half transfer callback */
            hdma->XferHalfCpltCallback(hdma);
 800156a:	687b      	ldr	r3, [r7, #4]
 800156c:	6c1b      	ldr	r3, [r3, #64]	; 0x40
 800156e:	6878      	ldr	r0, [r7, #4]
 8001570:	4798      	blx	r3
 8001572:	e01f      	b.n	80015b4 <HAL_DMA_IRQHandler+0x170>
          }
        }
        /* Current memory buffer used is Memory 1 */
        else
        {
          if(hdma->XferM1HalfCpltCallback != NULL)
 8001574:	687b      	ldr	r3, [r7, #4]
 8001576:	6c9b      	ldr	r3, [r3, #72]	; 0x48
 8001578:	2b00      	cmp	r3, #0
 800157a:	d01b      	beq.n	80015b4 <HAL_DMA_IRQHandler+0x170>
          {
            /* Half transfer callback */
            hdma->XferM1HalfCpltCallback(hdma);
 800157c:	687b      	ldr	r3, [r7, #4]
 800157e:	6c9b      	ldr	r3, [r3, #72]	; 0x48
 8001580:	6878      	ldr	r0, [r7, #4]
 8001582:	4798      	blx	r3
 8001584:	e016      	b.n	80015b4 <HAL_DMA_IRQHandler+0x170>
        }
      }
      else
      {
        /* Disable the half transfer interrupt if the DMA mode is not CIRCULAR */
        if((hdma->Instance->CR & DMA_SxCR_CIRC) == RESET)
 8001586:	687b      	ldr	r3, [r7, #4]
 8001588:	681b      	ldr	r3, [r3, #0]
 800158a:	681b      	ldr	r3, [r3, #0]
 800158c:	f403 7380 	and.w	r3, r3, #256	; 0x100
 8001590:	2b00      	cmp	r3, #0
 8001592:	d107      	bne.n	80015a4 <HAL_DMA_IRQHandler+0x160>
        {
          /* Disable the half transfer interrupt */
          hdma->Instance->CR  &= ~(DMA_IT_HT);
 8001594:	687b      	ldr	r3, [r7, #4]
 8001596:	681b      	ldr	r3, [r3, #0]
 8001598:	681a      	ldr	r2, [r3, #0]
 800159a:	687b      	ldr	r3, [r7, #4]
 800159c:	681b      	ldr	r3, [r3, #0]
 800159e:	f022 0208 	bic.w	r2, r2, #8
 80015a2:	601a      	str	r2, [r3, #0]
        }
        
        if(hdma->XferHalfCpltCallback != NULL)
 80015a4:	687b      	ldr	r3, [r7, #4]
 80015a6:	6c1b      	ldr	r3, [r3, #64]	; 0x40
 80015a8:	2b00      	cmp	r3, #0
 80015aa:	d003      	beq.n	80015b4 <HAL_DMA_IRQHandler+0x170>
        {
          /* Half transfer callback */
          hdma->XferHalfCpltCallback(hdma);
 80015ac:	687b      	ldr	r3, [r7, #4]
 80015ae:	6c1b      	ldr	r3, [r3, #64]	; 0x40
 80015b0:	6878      	ldr	r0, [r7, #4]
 80015b2:	4798      	blx	r3
        }
      }
    }
  }
  /* Transfer Complete Interrupt management ***********************************/
  if ((tmpisr & (DMA_FLAG_TCIF0_4 << hdma->StreamIndex)) != RESET)
 80015b4:	687b      	ldr	r3, [r7, #4]
 80015b6:	6ddb      	ldr	r3, [r3, #92]	; 0x5c
 80015b8:	2220      	movs	r2, #32
 80015ba:	409a      	lsls	r2, r3
 80015bc:	68fb      	ldr	r3, [r7, #12]
 80015be:	4013      	ands	r3, r2
 80015c0:	2b00      	cmp	r3, #0
 80015c2:	f000 808f 	beq.w	80016e4 <HAL_DMA_IRQHandler+0x2a0>
  {
    if(__HAL_DMA_GET_IT_SOURCE(hdma, DMA_IT_TC) != RESET)
 80015c6:	687b      	ldr	r3, [r7, #4]
 80015c8:	681b      	ldr	r3, [r3, #0]
 80015ca:	681b      	ldr	r3, [r3, #0]
 80015cc:	f003 0310 	and.w	r3, r3, #16
 80015d0:	2b00      	cmp	r3, #0
 80015d2:	f000 8087 	beq.w	80016e4 <HAL_DMA_IRQHandler+0x2a0>
    {
      /* Clear the transfer complete flag */
      regs->IFCR = DMA_FLAG_TCIF0_4 << hdma->StreamIndex;
 80015d6:	687b      	ldr	r3, [r7, #4]
 80015d8:	6ddb      	ldr	r3, [r3, #92]	; 0x5c
 80015da:	2220      	movs	r2, #32
 80015dc:	409a      	lsls	r2, r3
 80015de:	693b      	ldr	r3, [r7, #16]
 80015e0:	609a      	str	r2, [r3, #8]
      
      if(HAL_DMA_STATE_ABORT == hdma->State)
 80015e2:	687b      	ldr	r3, [r7, #4]
 80015e4:	f893 3035 	ldrb.w	r3, [r3, #53]	; 0x35
 80015e8:	b2db      	uxtb	r3, r3
 80015ea:	2b05      	cmp	r3, #5
 80015ec:	d136      	bne.n	800165c <HAL_DMA_IRQHandler+0x218>
      {
        /* Disable all the transfer interrupts */
        hdma->Instance->CR  &= ~(DMA_IT_TC | DMA_IT_TE | DMA_IT_DME);
 80015ee:	687b      	ldr	r3, [r7, #4]
 80015f0:	681b      	ldr	r3, [r3, #0]
 80015f2:	681a      	ldr	r2, [r3, #0]
 80015f4:	687b      	ldr	r3, [r7, #4]
 80015f6:	681b      	ldr	r3, [r3, #0]
 80015f8:	f022 0216 	bic.w	r2, r2, #22
 80015fc:	601a      	str	r2, [r3, #0]
        hdma->Instance->FCR &= ~(DMA_IT_FE);
 80015fe:	687b      	ldr	r3, [r7, #4]
 8001600:	681b      	ldr	r3, [r3, #0]
 8001602:	695a      	ldr	r2, [r3, #20]
 8001604:	687b      	ldr	r3, [r7, #4]
 8001606:	681b      	ldr	r3, [r3, #0]
 8001608:	f022 0280 	bic.w	r2, r2, #128	; 0x80
 800160c:	615a      	str	r2, [r3, #20]
        
        if((hdma->XferHalfCpltCallback != NULL) || (hdma->XferM1HalfCpltCallback != NULL))
 800160e:	687b      	ldr	r3, [r7, #4]
 8001610:	6c1b      	ldr	r3, [r3, #64]	; 0x40
 8001612:	2b00      	cmp	r3, #0
 8001614:	d103      	bne.n	800161e <HAL_DMA_IRQHandler+0x1da>
 8001616:	687b      	ldr	r3, [r7, #4]
 8001618:	6c9b      	ldr	r3, [r3, #72]	; 0x48
 800161a:	2b00      	cmp	r3, #0
 800161c:	d007      	beq.n	800162e <HAL_DMA_IRQHandler+0x1ea>
        {
          hdma->Instance->CR  &= ~(DMA_IT_HT);
 800161e:	687b      	ldr	r3, [r7, #4]
 8001620:	681b      	ldr	r3, [r3, #0]
 8001622:	681a      	ldr	r2, [r3, #0]
 8001624:	687b      	ldr	r3, [r7, #4]
 8001626:	681b      	ldr	r3, [r3, #0]
 8001628:	f022 0208 	bic.w	r2, r2, #8
 800162c:	601a      	str	r2, [r3, #0]
        }

        /* Clear all interrupt flags at correct offset within the register */
        regs->IFCR = 0x3FU << hdma->StreamIndex;
 800162e:	687b      	ldr	r3, [r7, #4]
 8001630:	6ddb      	ldr	r3, [r3, #92]	; 0x5c
 8001632:	223f      	movs	r2, #63	; 0x3f
 8001634:	409a      	lsls	r2, r3
 8001636:	693b      	ldr	r3, [r7, #16]
 8001638:	609a      	str	r2, [r3, #8]

        /* Change the DMA state */
        hdma->State = HAL_DMA_STATE_READY;
 800163a:	687b      	ldr	r3, [r7, #4]
 800163c:	2201      	movs	r2, #1
 800163e:	f883 2035 	strb.w	r2, [r3, #53]	; 0x35

        /* Process Unlocked */
        __HAL_UNLOCK(hdma);
 8001642:	687b      	ldr	r3, [r7, #4]
 8001644:	2200      	movs	r2, #0
 8001646:	f883 2034 	strb.w	r2, [r3, #52]	; 0x34

        if(hdma->XferAbortCallback != NULL)
 800164a:	687b      	ldr	r3, [r7, #4]
 800164c:	6d1b      	ldr	r3, [r3, #80]	; 0x50
 800164e:	2b00      	cmp	r3, #0
 8001650:	d07e      	beq.n	8001750 <HAL_DMA_IRQHandler+0x30c>
        {
          hdma->XferAbortCallback(hdma);
 8001652:	687b      	ldr	r3, [r7, #4]
 8001654:	6d1b      	ldr	r3, [r3, #80]	; 0x50
 8001656:	6878      	ldr	r0, [r7, #4]
 8001658:	4798      	blx	r3
        }
        return;
 800165a:	e079      	b.n	8001750 <HAL_DMA_IRQHandler+0x30c>
      }

      if(((hdma->Instance->CR) & (uint32_t)(DMA_SxCR_DBM)) != RESET)
 800165c:	687b      	ldr	r3, [r7, #4]
 800165e:	681b      	ldr	r3, [r3, #0]
 8001660:	681b      	ldr	r3, [r3, #0]
 8001662:	f403 2380 	and.w	r3, r3, #262144	; 0x40000
 8001666:	2b00      	cmp	r3, #0
 8001668:	d01d      	beq.n	80016a6 <HAL_DMA_IRQHandler+0x262>
      {
        /* Current memory buffer used is Memory 0 */
        if((hdma->Instance->CR & DMA_SxCR_CT) == RESET)
 800166a:	687b      	ldr	r3, [r7, #4]
 800166c:	681b      	ldr	r3, [r3, #0]
 800166e:	681b      	ldr	r3, [r3, #0]
 8001670:	f403 2300 	and.w	r3, r3, #524288	; 0x80000
 8001674:	2b00      	cmp	r3, #0
 8001676:	d10d      	bne.n	8001694 <HAL_DMA_IRQHandler+0x250>
        {
          if(hdma->XferM1CpltCallback != NULL)
 8001678:	687b      	ldr	r3, [r7, #4]
 800167a:	6c5b      	ldr	r3, [r3, #68]	; 0x44
 800167c:	2b00      	cmp	r3, #0
 800167e:	d031      	beq.n	80016e4 <HAL_DMA_IRQHandler+0x2a0>
          {
            /* Transfer complete Callback for memory1 */
            hdma->XferM1CpltCallback(hdma);
 8001680:	687b      	ldr	r3, [r7, #4]
 8001682:	6c5b      	ldr	r3, [r3, #68]	; 0x44
 8001684:	6878      	ldr	r0, [r7, #4]
 8001686:	4798      	blx	r3
 8001688:	e02c      	b.n	80016e4 <HAL_DMA_IRQHandler+0x2a0>
 800168a:	bf00      	nop
 800168c:	20000000 	.word	0x20000000
 8001690:	1b4e81b5 	.word	0x1b4e81b5
          }
        }
        /* Current memory buffer used is Memory 1 */
        else
        {
          if(hdma->XferCpltCallback != NULL)
 8001694:	687b      	ldr	r3, [r7, #4]
 8001696:	6bdb      	ldr	r3, [r3, #60]	; 0x3c
 8001698:	2b00      	cmp	r3, #0
 800169a:	d023      	beq.n	80016e4 <HAL_DMA_IRQHandler+0x2a0>
          {
            /* Transfer complete Callback for memory0 */
            hdma->XferCpltCallback(hdma);
 800169c:	687b      	ldr	r3, [r7, #4]
 800169e:	6bdb      	ldr	r3, [r3, #60]	; 0x3c
 80016a0:	6878      	ldr	r0, [r7, #4]
 80016a2:	4798      	blx	r3
 80016a4:	e01e      	b.n	80016e4 <HAL_DMA_IRQHandler+0x2a0>
        }
      }
      /* Disable the transfer complete interrupt if the DMA mode is not CIRCULAR */
      else
      {
        if((hdma->Instance->CR & DMA_SxCR_CIRC) == RESET)
 80016a6:	687b      	ldr	r3, [r7, #4]
 80016a8:	681b      	ldr	r3, [r3, #0]
 80016aa:	681b      	ldr	r3, [r3, #0]
 80016ac:	f403 7380 	and.w	r3, r3, #256	; 0x100
 80016b0:	2b00      	cmp	r3, #0
 80016b2:	d10f      	bne.n	80016d4 <HAL_DMA_IRQHandler+0x290>
        {
          /* Disable the transfer complete interrupt */
          hdma->Instance->CR  &= ~(DMA_IT_TC);
 80016b4:	687b      	ldr	r3, [r7, #4]
 80016b6:	681b      	ldr	r3, [r3, #0]
 80016b8:	681a      	ldr	r2, [r3, #0]
 80016ba:	687b      	ldr	r3, [r7, #4]
 80016bc:	681b      	ldr	r3, [r3, #0]
 80016be:	f022 0210 	bic.w	r2, r2, #16
 80016c2:	601a      	str	r2, [r3, #0]

          /* Change the DMA state */
          hdma->State = HAL_DMA_STATE_READY;
 80016c4:	687b      	ldr	r3, [r7, #4]
 80016c6:	2201      	movs	r2, #1
 80016c8:	f883 2035 	strb.w	r2, [r3, #53]	; 0x35

          /* Process Unlocked */
          __HAL_UNLOCK(hdma);
 80016cc:	687b      	ldr	r3, [r7, #4]
 80016ce:	2200      	movs	r2, #0
 80016d0:	f883 2034 	strb.w	r2, [r3, #52]	; 0x34

        }

        if(hdma->XferCpltCallback != NULL)
 80016d4:	687b      	ldr	r3, [r7, #4]
 80016d6:	6bdb      	ldr	r3, [r3, #60]	; 0x3c
 80016d8:	2b00      	cmp	r3, #0
 80016da:	d003      	beq.n	80016e4 <HAL_DMA_IRQHandler+0x2a0>
        {
          /* Transfer complete callback */
          hdma->XferCpltCallback(hdma);
 80016dc:	687b      	ldr	r3, [r7, #4]
 80016de:	6bdb      	ldr	r3, [r3, #60]	; 0x3c
 80016e0:	6878      	ldr	r0, [r7, #4]
 80016e2:	4798      	blx	r3
      }
    }
  }
  
  /* manage error case */
  if(hdma->ErrorCode != HAL_DMA_ERROR_NONE)
 80016e4:	687b      	ldr	r3, [r7, #4]
 80016e6:	6d5b      	ldr	r3, [r3, #84]	; 0x54
 80016e8:	2b00      	cmp	r3, #0
 80016ea:	d032      	beq.n	8001752 <HAL_DMA_IRQHandler+0x30e>
  {
    if((hdma->ErrorCode & HAL_DMA_ERROR_TE) != RESET)
 80016ec:	687b      	ldr	r3, [r7, #4]
 80016ee:	6d5b      	ldr	r3, [r3, #84]	; 0x54
 80016f0:	f003 0301 	and.w	r3, r3, #1
 80016f4:	2b00      	cmp	r3, #0
 80016f6:	d022      	beq.n	800173e <HAL_DMA_IRQHandler+0x2fa>
    {
      hdma->State = HAL_DMA_STATE_ABORT;
 80016f8:	687b      	ldr	r3, [r7, #4]
 80016fa:	2205      	movs	r2, #5
 80016fc:	f883 2035 	strb.w	r2, [r3, #53]	; 0x35

      /* Disable the stream */
      __HAL_DMA_DISABLE(hdma);
 8001700:	687b      	ldr	r3, [r7, #4]
 8001702:	681b      	ldr	r3, [r3, #0]
 8001704:	681a      	ldr	r2, [r3, #0]
 8001706:	687b      	ldr	r3, [r7, #4]
 8001708:	681b      	ldr	r3, [r3, #0]
 800170a:	f022 0201 	bic.w	r2, r2, #1
 800170e:	601a      	str	r2, [r3, #0]

      do
      {
        if (++count > timeout)
 8001710:	68bb      	ldr	r3, [r7, #8]
 8001712:	3301      	adds	r3, #1
 8001714:	60bb      	str	r3, [r7, #8]
 8001716:	697a      	ldr	r2, [r7, #20]
 8001718:	429a      	cmp	r2, r3
 800171a:	d307      	bcc.n	800172c <HAL_DMA_IRQHandler+0x2e8>
        {
          break;
        }
      }
      while((hdma->Instance->CR & DMA_SxCR_EN) != RESET);
 800171c:	687b      	ldr	r3, [r7, #4]
 800171e:	681b      	ldr	r3, [r3, #0]
 8001720:	681b      	ldr	r3, [r3, #0]
 8001722:	f003 0301 	and.w	r3, r3, #1
 8001726:	2b00      	cmp	r3, #0
 8001728:	d1f2      	bne.n	8001710 <HAL_DMA_IRQHandler+0x2cc>
 800172a:	e000      	b.n	800172e <HAL_DMA_IRQHandler+0x2ea>
          break;
 800172c:	bf00      	nop

      /* Change the DMA state */
      hdma->State = HAL_DMA_STATE_READY;
 800172e:	687b      	ldr	r3, [r7, #4]
 8001730:	2201      	movs	r2, #1
 8001732:	f883 2035 	strb.w	r2, [r3, #53]	; 0x35

      /* Process Unlocked */
      __HAL_UNLOCK(hdma);
 8001736:	687b      	ldr	r3, [r7, #4]
 8001738:	2200      	movs	r2, #0
 800173a:	f883 2034 	strb.w	r2, [r3, #52]	; 0x34

    }

    if(hdma->XferErrorCallback != NULL)
 800173e:	687b      	ldr	r3, [r7, #4]
 8001740:	6cdb      	ldr	r3, [r3, #76]	; 0x4c
 8001742:	2b00      	cmp	r3, #0
 8001744:	d005      	beq.n	8001752 <HAL_DMA_IRQHandler+0x30e>
    {
      /* Transfer error callback */
      hdma->XferErrorCallback(hdma);
 8001746:	687b      	ldr	r3, [r7, #4]
 8001748:	6cdb      	ldr	r3, [r3, #76]	; 0x4c
 800174a:	6878      	ldr	r0, [r7, #4]
 800174c:	4798      	blx	r3
 800174e:	e000      	b.n	8001752 <HAL_DMA_IRQHandler+0x30e>
        return;
 8001750:	bf00      	nop
    }
  }
}
 8001752:	3718      	adds	r7, #24
 8001754:	46bd      	mov	sp, r7
 8001756:	bd80      	pop	{r7, pc}

08001758 <DMA_SetConfig>:
  * @param  DstAddress The destination memory Buffer address
  * @param  DataLength The length of data to be transferred from source to destination
  * @retval HAL status
  */
static void DMA_SetConfig(DMA_HandleTypeDef *hdma, uint32_t SrcAddress, uint32_t DstAddress, uint32_t DataLength)
{
 8001758:	b480      	push	{r7}
 800175a:	b085      	sub	sp, #20
 800175c:	af00      	add	r7, sp, #0
 800175e:	60f8      	str	r0, [r7, #12]
 8001760:	60b9      	str	r1, [r7, #8]
 8001762:	607a      	str	r2, [r7, #4]
 8001764:	603b      	str	r3, [r7, #0]
  /* Clear DBM bit */
  hdma->Instance->CR &= (uint32_t)(~DMA_SxCR_DBM);
 8001766:	68fb      	ldr	r3, [r7, #12]
 8001768:	681b      	ldr	r3, [r3, #0]
 800176a:	681a      	ldr	r2, [r3, #0]
 800176c:	68fb      	ldr	r3, [r7, #12]
 800176e:	681b      	ldr	r3, [r3, #0]
 8001770:	f422 2280 	bic.w	r2, r2, #262144	; 0x40000
 8001774:	601a      	str	r2, [r3, #0]

  /* Configure DMA Stream data length */
  hdma->Instance->NDTR = DataLength;
 8001776:	68fb      	ldr	r3, [r7, #12]
 8001778:	681b      	ldr	r3, [r3, #0]
 800177a:	683a      	ldr	r2, [r7, #0]
 800177c:	605a      	str	r2, [r3, #4]

  /* Memory to Peripheral */
  if((hdma->Init.Direction) == DMA_MEMORY_TO_PERIPH)
 800177e:	68fb      	ldr	r3, [r7, #12]
 8001780:	689b      	ldr	r3, [r3, #8]
 8001782:	2b40      	cmp	r3, #64	; 0x40
 8001784:	d108      	bne.n	8001798 <DMA_SetConfig+0x40>
  {
    /* Configure DMA Stream destination address */
    hdma->Instance->PAR = DstAddress;
 8001786:	68fb      	ldr	r3, [r7, #12]
 8001788:	681b      	ldr	r3, [r3, #0]
 800178a:	687a      	ldr	r2, [r7, #4]
 800178c:	609a      	str	r2, [r3, #8]

    /* Configure DMA Stream source address */
    hdma->Instance->M0AR = SrcAddress;
 800178e:	68fb      	ldr	r3, [r7, #12]
 8001790:	681b      	ldr	r3, [r3, #0]
 8001792:	68ba      	ldr	r2, [r7, #8]
 8001794:	60da      	str	r2, [r3, #12]
    hdma->Instance->PAR = SrcAddress;

    /* Configure DMA Stream destination address */
    hdma->Instance->M0AR = DstAddress;
  }
}
 8001796:	e007      	b.n	80017a8 <DMA_SetConfig+0x50>
    hdma->Instance->PAR = SrcAddress;
 8001798:	68fb      	ldr	r3, [r7, #12]
 800179a:	681b      	ldr	r3, [r3, #0]
 800179c:	68ba      	ldr	r2, [r7, #8]
 800179e:	609a      	str	r2, [r3, #8]
    hdma->Instance->M0AR = DstAddress;
 80017a0:	68fb      	ldr	r3, [r7, #12]
 80017a2:	681b      	ldr	r3, [r3, #0]
 80017a4:	687a      	ldr	r2, [r7, #4]
 80017a6:	60da      	str	r2, [r3, #12]
}
 80017a8:	bf00      	nop
 80017aa:	3714      	adds	r7, #20
 80017ac:	46bd      	mov	sp, r7
 80017ae:	f85d 7b04 	ldr.w	r7, [sp], #4
 80017b2:	4770      	bx	lr

080017b4 <DMA_CalcBaseAndBitshift>:
  * @param  hdma       pointer to a DMA_HandleTypeDef structure that contains
  *                     the configuration information for the specified DMA Stream. 
  * @retval Stream base address
  */
static uint32_t DMA_CalcBaseAndBitshift(DMA_HandleTypeDef *hdma)
{
 80017b4:	b480      	push	{r7}
 80017b6:	b085      	sub	sp, #20
 80017b8:	af00      	add	r7, sp, #0
 80017ba:	6078      	str	r0, [r7, #4]
  uint32_t stream_number = (((uint32_t)hdma->Instance & 0xFFU) - 16U) / 24U;
 80017bc:	687b      	ldr	r3, [r7, #4]
 80017be:	681b      	ldr	r3, [r3, #0]
 80017c0:	b2db      	uxtb	r3, r3
 80017c2:	3b10      	subs	r3, #16
 80017c4:	4a13      	ldr	r2, [pc, #76]	; (8001814 <DMA_CalcBaseAndBitshift+0x60>)
 80017c6:	fba2 2303 	umull	r2, r3, r2, r3
 80017ca:	091b      	lsrs	r3, r3, #4
 80017cc:	60fb      	str	r3, [r7, #12]
  
  /* lookup table for necessary bitshift of flags within status registers */
  static const uint8_t flagBitshiftOffset[8U] = {0U, 6U, 16U, 22U, 0U, 6U, 16U, 22U};
  hdma->StreamIndex = flagBitshiftOffset[stream_number];
 80017ce:	4a12      	ldr	r2, [pc, #72]	; (8001818 <DMA_CalcBaseAndBitshift+0x64>)
 80017d0:	68fb      	ldr	r3, [r7, #12]
 80017d2:	4413      	add	r3, r2
 80017d4:	781b      	ldrb	r3, [r3, #0]
 80017d6:	461a      	mov	r2, r3
 80017d8:	687b      	ldr	r3, [r7, #4]
 80017da:	65da      	str	r2, [r3, #92]	; 0x5c
  
  if (stream_number > 3U)
 80017dc:	68fb      	ldr	r3, [r7, #12]
 80017de:	2b03      	cmp	r3, #3
 80017e0:	d908      	bls.n	80017f4 <DMA_CalcBaseAndBitshift+0x40>
  {
    /* return pointer to HISR and HIFCR */
    hdma->StreamBaseAddress = (((uint32_t)hdma->Instance & (uint32_t)(~0x3FFU)) + 4U);
 80017e2:	687b      	ldr	r3, [r7, #4]
 80017e4:	681b      	ldr	r3, [r3, #0]
 80017e6:	461a      	mov	r2, r3
 80017e8:	4b0c      	ldr	r3, [pc, #48]	; (800181c <DMA_CalcBaseAndBitshift+0x68>)
 80017ea:	4013      	ands	r3, r2
 80017ec:	1d1a      	adds	r2, r3, #4
 80017ee:	687b      	ldr	r3, [r7, #4]
 80017f0:	659a      	str	r2, [r3, #88]	; 0x58
 80017f2:	e006      	b.n	8001802 <DMA_CalcBaseAndBitshift+0x4e>
  }
  else
  {
    /* return pointer to LISR and LIFCR */
    hdma->StreamBaseAddress = ((uint32_t)hdma->Instance & (uint32_t)(~0x3FFU));
 80017f4:	687b      	ldr	r3, [r7, #4]
 80017f6:	681b      	ldr	r3, [r3, #0]
 80017f8:	461a      	mov	r2, r3
 80017fa:	4b08      	ldr	r3, [pc, #32]	; (800181c <DMA_CalcBaseAndBitshift+0x68>)
 80017fc:	4013      	ands	r3, r2
 80017fe:	687a      	ldr	r2, [r7, #4]
 8001800:	6593      	str	r3, [r2, #88]	; 0x58
  }
  
  return hdma->StreamBaseAddress;
 8001802:	687b      	ldr	r3, [r7, #4]
 8001804:	6d9b      	ldr	r3, [r3, #88]	; 0x58
}
 8001806:	4618      	mov	r0, r3
 8001808:	3714      	adds	r7, #20
 800180a:	46bd      	mov	sp, r7
 800180c:	f85d 7b04 	ldr.w	r7, [sp], #4
 8001810:	4770      	bx	lr
 8001812:	bf00      	nop
 8001814:	aaaaaaab 	.word	0xaaaaaaab
 8001818:	08005780 	.word	0x08005780
 800181c:	fffffc00 	.word	0xfffffc00

08001820 <DMA_CheckFifoParam>:
  * @param  hdma       pointer to a DMA_HandleTypeDef structure that contains
  *                     the configuration information for the specified DMA Stream. 
  * @retval HAL status
  */
static HAL_StatusTypeDef DMA_CheckFifoParam(DMA_HandleTypeDef *hdma)
{
 8001820:	b480      	push	{r7}
 8001822:	b085      	sub	sp, #20
 8001824:	af00      	add	r7, sp, #0
 8001826:	6078      	str	r0, [r7, #4]
  HAL_StatusTypeDef status = HAL_OK;
 8001828:	2300      	movs	r3, #0
 800182a:	73fb      	strb	r3, [r7, #15]
  uint32_t tmp = hdma->Init.FIFOThreshold;
 800182c:	687b      	ldr	r3, [r7, #4]
 800182e:	6a9b      	ldr	r3, [r3, #40]	; 0x28
 8001830:	60bb      	str	r3, [r7, #8]
  
  /* Memory Data size equal to Byte */
  if(hdma->Init.MemDataAlignment == DMA_MDATAALIGN_BYTE)
 8001832:	687b      	ldr	r3, [r7, #4]
 8001834:	699b      	ldr	r3, [r3, #24]
 8001836:	2b00      	cmp	r3, #0
 8001838:	d11f      	bne.n	800187a <DMA_CheckFifoParam+0x5a>
  {
    switch (tmp)
 800183a:	68bb      	ldr	r3, [r7, #8]
 800183c:	2b03      	cmp	r3, #3
 800183e:	d856      	bhi.n	80018ee <DMA_CheckFifoParam+0xce>
 8001840:	a201      	add	r2, pc, #4	; (adr r2, 8001848 <DMA_CheckFifoParam+0x28>)
 8001842:	f852 f023 	ldr.w	pc, [r2, r3, lsl #2]
 8001846:	bf00      	nop
 8001848:	08001859 	.word	0x08001859
 800184c:	0800186b 	.word	0x0800186b
 8001850:	08001859 	.word	0x08001859
 8001854:	080018ef 	.word	0x080018ef
    {
    case DMA_FIFO_THRESHOLD_1QUARTERFULL:
    case DMA_FIFO_THRESHOLD_3QUARTERSFULL:
      if ((hdma->Init.MemBurst & DMA_SxCR_MBURST_1) == DMA_SxCR_MBURST_1)
 8001858:	687b      	ldr	r3, [r7, #4]
 800185a:	6adb      	ldr	r3, [r3, #44]	; 0x2c
 800185c:	f003 7380 	and.w	r3, r3, #16777216	; 0x1000000
 8001860:	2b00      	cmp	r3, #0
 8001862:	d046      	beq.n	80018f2 <DMA_CheckFifoParam+0xd2>
      {
        status = HAL_ERROR;
 8001864:	2301      	movs	r3, #1
 8001866:	73fb      	strb	r3, [r7, #15]
      }
      break;
 8001868:	e043      	b.n	80018f2 <DMA_CheckFifoParam+0xd2>
    case DMA_FIFO_THRESHOLD_HALFFULL:
      if (hdma->Init.MemBurst == DMA_MBURST_INC16)
 800186a:	687b      	ldr	r3, [r7, #4]
 800186c:	6adb      	ldr	r3, [r3, #44]	; 0x2c
 800186e:	f1b3 7fc0 	cmp.w	r3, #25165824	; 0x1800000
 8001872:	d140      	bne.n	80018f6 <DMA_CheckFifoParam+0xd6>
      {
        status = HAL_ERROR;
 8001874:	2301      	movs	r3, #1
 8001876:	73fb      	strb	r3, [r7, #15]
      }
      break;
 8001878:	e03d      	b.n	80018f6 <DMA_CheckFifoParam+0xd6>
      break;
    }
  }
  
  /* Memory Data size equal to Half-Word */
  else if (hdma->Init.MemDataAlignment == DMA_MDATAALIGN_HALFWORD)
 800187a:	687b      	ldr	r3, [r7, #4]
 800187c:	699b      	ldr	r3, [r3, #24]
 800187e:	f5b3 5f00 	cmp.w	r3, #8192	; 0x2000
 8001882:	d121      	bne.n	80018c8 <DMA_CheckFifoParam+0xa8>
  {
    switch (tmp)
 8001884:	68bb      	ldr	r3, [r7, #8]
 8001886:	2b03      	cmp	r3, #3
 8001888:	d837      	bhi.n	80018fa <DMA_CheckFifoParam+0xda>
 800188a:	a201      	add	r2, pc, #4	; (adr r2, 8001890 <DMA_CheckFifoParam+0x70>)
 800188c:	f852 f023 	ldr.w	pc, [r2, r3, lsl #2]
 8001890:	080018a1 	.word	0x080018a1
 8001894:	080018a7 	.word	0x080018a7
 8001898:	080018a1 	.word	0x080018a1
 800189c:	080018b9 	.word	0x080018b9
    {
    case DMA_FIFO_THRESHOLD_1QUARTERFULL:
    case DMA_FIFO_THRESHOLD_3QUARTERSFULL:
      status = HAL_ERROR;
 80018a0:	2301      	movs	r3, #1
 80018a2:	73fb      	strb	r3, [r7, #15]
      break;
 80018a4:	e030      	b.n	8001908 <DMA_CheckFifoParam+0xe8>
    case DMA_FIFO_THRESHOLD_HALFFULL:
      if ((hdma->Init.MemBurst & DMA_SxCR_MBURST_1) == DMA_SxCR_MBURST_1)
 80018a6:	687b      	ldr	r3, [r7, #4]
 80018a8:	6adb      	ldr	r3, [r3, #44]	; 0x2c
 80018aa:	f003 7380 	and.w	r3, r3, #16777216	; 0x1000000
 80018ae:	2b00      	cmp	r3, #0
 80018b0:	d025      	beq.n	80018fe <DMA_CheckFifoParam+0xde>
      {
        status = HAL_ERROR;
 80018b2:	2301      	movs	r3, #1
 80018b4:	73fb      	strb	r3, [r7, #15]
      }
      break;
 80018b6:	e022      	b.n	80018fe <DMA_CheckFifoParam+0xde>
    case DMA_FIFO_THRESHOLD_FULL:
      if (hdma->Init.MemBurst == DMA_MBURST_INC16)
 80018b8:	687b      	ldr	r3, [r7, #4]
 80018ba:	6adb      	ldr	r3, [r3, #44]	; 0x2c
 80018bc:	f1b3 7fc0 	cmp.w	r3, #25165824	; 0x1800000
 80018c0:	d11f      	bne.n	8001902 <DMA_CheckFifoParam+0xe2>
      {
        status = HAL_ERROR;
 80018c2:	2301      	movs	r3, #1
 80018c4:	73fb      	strb	r3, [r7, #15]
      }
      break;   
 80018c6:	e01c      	b.n	8001902 <DMA_CheckFifoParam+0xe2>
  }
  
  /* Memory Data size equal to Word */
  else
  {
    switch (tmp)
 80018c8:	68bb      	ldr	r3, [r7, #8]
 80018ca:	2b02      	cmp	r3, #2
 80018cc:	d903      	bls.n	80018d6 <DMA_CheckFifoParam+0xb6>
 80018ce:	68bb      	ldr	r3, [r7, #8]
 80018d0:	2b03      	cmp	r3, #3
 80018d2:	d003      	beq.n	80018dc <DMA_CheckFifoParam+0xbc>
      {
        status = HAL_ERROR;
      }
      break;
    default:
      break;
 80018d4:	e018      	b.n	8001908 <DMA_CheckFifoParam+0xe8>
      status = HAL_ERROR;
 80018d6:	2301      	movs	r3, #1
 80018d8:	73fb      	strb	r3, [r7, #15]
      break;
 80018da:	e015      	b.n	8001908 <DMA_CheckFifoParam+0xe8>
      if ((hdma->Init.MemBurst & DMA_SxCR_MBURST_1) == DMA_SxCR_MBURST_1)
 80018dc:	687b      	ldr	r3, [r7, #4]
 80018de:	6adb      	ldr	r3, [r3, #44]	; 0x2c
 80018e0:	f003 7380 	and.w	r3, r3, #16777216	; 0x1000000
 80018e4:	2b00      	cmp	r3, #0
 80018e6:	d00e      	beq.n	8001906 <DMA_CheckFifoParam+0xe6>
        status = HAL_ERROR;
 80018e8:	2301      	movs	r3, #1
 80018ea:	73fb      	strb	r3, [r7, #15]
      break;
 80018ec:	e00b      	b.n	8001906 <DMA_CheckFifoParam+0xe6>
      break;
 80018ee:	bf00      	nop
 80018f0:	e00a      	b.n	8001908 <DMA_CheckFifoParam+0xe8>
      break;
 80018f2:	bf00      	nop
 80018f4:	e008      	b.n	8001908 <DMA_CheckFifoParam+0xe8>
      break;
 80018f6:	bf00      	nop
 80018f8:	e006      	b.n	8001908 <DMA_CheckFifoParam+0xe8>
      break;
 80018fa:	bf00      	nop
 80018fc:	e004      	b.n	8001908 <DMA_CheckFifoParam+0xe8>
      break;
 80018fe:	bf00      	nop
 8001900:	e002      	b.n	8001908 <DMA_CheckFifoParam+0xe8>
      break;   
 8001902:	bf00      	nop
 8001904:	e000      	b.n	8001908 <DMA_CheckFifoParam+0xe8>
      break;
 8001906:	bf00      	nop
    }
  } 
  
  return status; 
 8001908:	7bfb      	ldrb	r3, [r7, #15]
}
 800190a:	4618      	mov	r0, r3
 800190c:	3714      	adds	r7, #20
 800190e:	46bd      	mov	sp, r7
 8001910:	f85d 7b04 	ldr.w	r7, [sp], #4
 8001914:	4770      	bx	lr
 8001916:	bf00      	nop

08001918 <HAL_GPIO_Init>:
  * @param  GPIO_Init pointer to a GPIO_InitTypeDef structure that contains
  *         the configuration information for the specified GPIO peripheral.
  * @retval None
  */
void HAL_GPIO_Init(GPIO_TypeDef  *GPIOx, GPIO_InitTypeDef *GPIO_Init)
{
 8001918:	b480      	push	{r7}
 800191a:	b089      	sub	sp, #36	; 0x24
 800191c:	af00      	add	r7, sp, #0
 800191e:	6078      	str	r0, [r7, #4]
 8001920:	6039      	str	r1, [r7, #0]
  uint32_t position = 0x00;
 8001922:	2300      	movs	r3, #0
 8001924:	61fb      	str	r3, [r7, #28]
  uint32_t ioposition = 0x00;
 8001926:	2300      	movs	r3, #0
 8001928:	617b      	str	r3, [r7, #20]
  uint32_t iocurrent = 0x00;
 800192a:	2300      	movs	r3, #0
 800192c:	613b      	str	r3, [r7, #16]
  uint32_t temp = 0x00;
 800192e:	2300      	movs	r3, #0
 8001930:	61bb      	str	r3, [r7, #24]
  assert_param(IS_GPIO_ALL_INSTANCE(GPIOx));
  assert_param(IS_GPIO_PIN(GPIO_Init->Pin));
  assert_param(IS_GPIO_MODE(GPIO_Init->Mode));

  /* Configure the port pins */
  for (position = 0; position < GPIO_NUMBER; position++)
 8001932:	2300      	movs	r3, #0
 8001934:	61fb      	str	r3, [r7, #28]
 8001936:	e175      	b.n	8001c24 <HAL_GPIO_Init+0x30c>
  {
    /* Get the IO position */
    ioposition = ((uint32_t)0x01) << position;
 8001938:	2201      	movs	r2, #1
 800193a:	69fb      	ldr	r3, [r7, #28]
 800193c:	fa02 f303 	lsl.w	r3, r2, r3
 8001940:	617b      	str	r3, [r7, #20]
    /* Get the current IO position */
    iocurrent = (uint32_t)(GPIO_Init->Pin) & ioposition;
 8001942:	683b      	ldr	r3, [r7, #0]
 8001944:	681b      	ldr	r3, [r3, #0]
 8001946:	697a      	ldr	r2, [r7, #20]
 8001948:	4013      	ands	r3, r2
 800194a:	613b      	str	r3, [r7, #16]

    if (iocurrent == ioposition)
 800194c:	693a      	ldr	r2, [r7, #16]
 800194e:	697b      	ldr	r3, [r7, #20]
 8001950:	429a      	cmp	r2, r3
 8001952:	f040 8164 	bne.w	8001c1e <HAL_GPIO_Init+0x306>
    {
      /*--------------------- GPIO Mode Configuration ------------------------*/
      /* In case of Output or Alternate function mode selection */
      if (((GPIO_Init->Mode & GPIO_MODE) == MODE_OUTPUT) || ((GPIO_Init->Mode & GPIO_MODE) == MODE_AF))
 8001956:	683b      	ldr	r3, [r7, #0]
 8001958:	685b      	ldr	r3, [r3, #4]
 800195a:	f003 0303 	and.w	r3, r3, #3
 800195e:	2b01      	cmp	r3, #1
 8001960:	d005      	beq.n	800196e <HAL_GPIO_Init+0x56>
 8001962:	683b      	ldr	r3, [r7, #0]
 8001964:	685b      	ldr	r3, [r3, #4]
 8001966:	f003 0303 	and.w	r3, r3, #3
 800196a:	2b02      	cmp	r3, #2
 800196c:	d130      	bne.n	80019d0 <HAL_GPIO_Init+0xb8>
      {
        /* Check the Speed parameter */
        assert_param(IS_GPIO_SPEED(GPIO_Init->Speed));
        /* Configure the IO Speed */
        temp = GPIOx->OSPEEDR;
 800196e:	687b      	ldr	r3, [r7, #4]
 8001970:	689b      	ldr	r3, [r3, #8]
 8001972:	61bb      	str	r3, [r7, #24]
        temp &= ~(GPIO_OSPEEDER_OSPEEDR0 << (position * 2));
 8001974:	69fb      	ldr	r3, [r7, #28]
 8001976:	005b      	lsls	r3, r3, #1
 8001978:	2203      	movs	r2, #3
 800197a:	fa02 f303 	lsl.w	r3, r2, r3
 800197e:	43db      	mvns	r3, r3
 8001980:	69ba      	ldr	r2, [r7, #24]
 8001982:	4013      	ands	r3, r2
 8001984:	61bb      	str	r3, [r7, #24]
        temp |= (GPIO_Init->Speed << (position * 2));
 8001986:	683b      	ldr	r3, [r7, #0]
 8001988:	68da      	ldr	r2, [r3, #12]
 800198a:	69fb      	ldr	r3, [r7, #28]
 800198c:	005b      	lsls	r3, r3, #1
 800198e:	fa02 f303 	lsl.w	r3, r2, r3
 8001992:	69ba      	ldr	r2, [r7, #24]
 8001994:	4313      	orrs	r3, r2
 8001996:	61bb      	str	r3, [r7, #24]
        GPIOx->OSPEEDR = temp;
 8001998:	687b      	ldr	r3, [r7, #4]
 800199a:	69ba      	ldr	r2, [r7, #24]
 800199c:	609a      	str	r2, [r3, #8]

        /* Configure the IO Output Type */
        temp = GPIOx->OTYPER;
 800199e:	687b      	ldr	r3, [r7, #4]
 80019a0:	685b      	ldr	r3, [r3, #4]
 80019a2:	61bb      	str	r3, [r7, #24]
        temp &= ~(GPIO_OTYPER_OT_0 << position) ;
 80019a4:	2201      	movs	r2, #1
 80019a6:	69fb      	ldr	r3, [r7, #28]
 80019a8:	fa02 f303 	lsl.w	r3, r2, r3
 80019ac:	43db      	mvns	r3, r3
 80019ae:	69ba      	ldr	r2, [r7, #24]
 80019b0:	4013      	ands	r3, r2
 80019b2:	61bb      	str	r3, [r7, #24]
        temp |= (((GPIO_Init->Mode & OUTPUT_TYPE) >> OUTPUT_TYPE_Pos) << position);
 80019b4:	683b      	ldr	r3, [r7, #0]
 80019b6:	685b      	ldr	r3, [r3, #4]
 80019b8:	091b      	lsrs	r3, r3, #4
 80019ba:	f003 0201 	and.w	r2, r3, #1
 80019be:	69fb      	ldr	r3, [r7, #28]
 80019c0:	fa02 f303 	lsl.w	r3, r2, r3
 80019c4:	69ba      	ldr	r2, [r7, #24]
 80019c6:	4313      	orrs	r3, r2
 80019c8:	61bb      	str	r3, [r7, #24]
        GPIOx->OTYPER = temp;
 80019ca:	687b      	ldr	r3, [r7, #4]
 80019cc:	69ba      	ldr	r2, [r7, #24]
 80019ce:	605a      	str	r2, [r3, #4]
      }

      if ((GPIO_Init->Mode & GPIO_MODE) != MODE_ANALOG)
 80019d0:	683b      	ldr	r3, [r7, #0]
 80019d2:	685b      	ldr	r3, [r3, #4]
 80019d4:	f003 0303 	and.w	r3, r3, #3
 80019d8:	2b03      	cmp	r3, #3
 80019da:	d017      	beq.n	8001a0c <HAL_GPIO_Init+0xf4>
      {
        /* Check the Pull parameter */
        assert_param(IS_GPIO_PULL(GPIO_Init->Pull));

        /* Activate the Pull-up or Pull down resistor for the current IO */
        temp = GPIOx->PUPDR;
 80019dc:	687b      	ldr	r3, [r7, #4]
 80019de:	68db      	ldr	r3, [r3, #12]
 80019e0:	61bb      	str	r3, [r7, #24]
        temp &= ~(GPIO_PUPDR_PUPDR0 << (position * 2));
 80019e2:	69fb      	ldr	r3, [r7, #28]
 80019e4:	005b      	lsls	r3, r3, #1
 80019e6:	2203      	movs	r2, #3
 80019e8:	fa02 f303 	lsl.w	r3, r2, r3
 80019ec:	43db      	mvns	r3, r3
 80019ee:	69ba      	ldr	r2, [r7, #24]
 80019f0:	4013      	ands	r3, r2
 80019f2:	61bb      	str	r3, [r7, #24]
        temp |= ((GPIO_Init->Pull) << (position * 2));
 80019f4:	683b      	ldr	r3, [r7, #0]
 80019f6:	689a      	ldr	r2, [r3, #8]
 80019f8:	69fb      	ldr	r3, [r7, #28]
 80019fa:	005b      	lsls	r3, r3, #1
 80019fc:	fa02 f303 	lsl.w	r3, r2, r3
 8001a00:	69ba      	ldr	r2, [r7, #24]
 8001a02:	4313      	orrs	r3, r2
 8001a04:	61bb      	str	r3, [r7, #24]
        GPIOx->PUPDR = temp;
 8001a06:	687b      	ldr	r3, [r7, #4]
 8001a08:	69ba      	ldr	r2, [r7, #24]
 8001a0a:	60da      	str	r2, [r3, #12]
      }

      /* In case of Alternate function mode selection */
      if ((GPIO_Init->Mode & GPIO_MODE) == MODE_AF)
 8001a0c:	683b      	ldr	r3, [r7, #0]
 8001a0e:	685b      	ldr	r3, [r3, #4]
 8001a10:	f003 0303 	and.w	r3, r3, #3
 8001a14:	2b02      	cmp	r3, #2
 8001a16:	d123      	bne.n	8001a60 <HAL_GPIO_Init+0x148>
      {
        /* Check the Alternate function parameter */
        assert_param(IS_GPIO_AF(GPIO_Init->Alternate));

        /* Configure Alternate function mapped with the current IO */
        temp = GPIOx->AFR[position >> 3];
 8001a18:	69fb      	ldr	r3, [r7, #28]
 8001a1a:	08da      	lsrs	r2, r3, #3
 8001a1c:	687b      	ldr	r3, [r7, #4]
 8001a1e:	3208      	adds	r2, #8
 8001a20:	f853 3022 	ldr.w	r3, [r3, r2, lsl #2]
 8001a24:	61bb      	str	r3, [r7, #24]
        temp &= ~((uint32_t)0xF << ((uint32_t)(position & (uint32_t)0x07) * 4)) ;
 8001a26:	69fb      	ldr	r3, [r7, #28]
 8001a28:	f003 0307 	and.w	r3, r3, #7
 8001a2c:	009b      	lsls	r3, r3, #2
 8001a2e:	220f      	movs	r2, #15
 8001a30:	fa02 f303 	lsl.w	r3, r2, r3
 8001a34:	43db      	mvns	r3, r3
 8001a36:	69ba      	ldr	r2, [r7, #24]
 8001a38:	4013      	ands	r3, r2
 8001a3a:	61bb      	str	r3, [r7, #24]
        temp |= ((uint32_t)(GPIO_Init->Alternate) << (((uint32_t)position & (uint32_t)0x07) * 4));
 8001a3c:	683b      	ldr	r3, [r7, #0]
 8001a3e:	691a      	ldr	r2, [r3, #16]
 8001a40:	69fb      	ldr	r3, [r7, #28]
 8001a42:	f003 0307 	and.w	r3, r3, #7
 8001a46:	009b      	lsls	r3, r3, #2
 8001a48:	fa02 f303 	lsl.w	r3, r2, r3
 8001a4c:	69ba      	ldr	r2, [r7, #24]
 8001a4e:	4313      	orrs	r3, r2
 8001a50:	61bb      	str	r3, [r7, #24]
        GPIOx->AFR[position >> 3] = temp;
 8001a52:	69fb      	ldr	r3, [r7, #28]
 8001a54:	08da      	lsrs	r2, r3, #3
 8001a56:	687b      	ldr	r3, [r7, #4]
 8001a58:	3208      	adds	r2, #8
 8001a5a:	69b9      	ldr	r1, [r7, #24]
 8001a5c:	f843 1022 	str.w	r1, [r3, r2, lsl #2]
      }

      /* Configure IO Direction mode (Input, Output, Alternate or Analog) */
      temp = GPIOx->MODER;
 8001a60:	687b      	ldr	r3, [r7, #4]
 8001a62:	681b      	ldr	r3, [r3, #0]
 8001a64:	61bb      	str	r3, [r7, #24]
      temp &= ~(GPIO_MODER_MODER0 << (position * 2));
 8001a66:	69fb      	ldr	r3, [r7, #28]
 8001a68:	005b      	lsls	r3, r3, #1
 8001a6a:	2203      	movs	r2, #3
 8001a6c:	fa02 f303 	lsl.w	r3, r2, r3
 8001a70:	43db      	mvns	r3, r3
 8001a72:	69ba      	ldr	r2, [r7, #24]
 8001a74:	4013      	ands	r3, r2
 8001a76:	61bb      	str	r3, [r7, #24]
      temp |= ((GPIO_Init->Mode & GPIO_MODE) << (position * 2));
 8001a78:	683b      	ldr	r3, [r7, #0]
 8001a7a:	685b      	ldr	r3, [r3, #4]
 8001a7c:	f003 0203 	and.w	r2, r3, #3
 8001a80:	69fb      	ldr	r3, [r7, #28]
 8001a82:	005b      	lsls	r3, r3, #1
 8001a84:	fa02 f303 	lsl.w	r3, r2, r3
 8001a88:	69ba      	ldr	r2, [r7, #24]
 8001a8a:	4313      	orrs	r3, r2
 8001a8c:	61bb      	str	r3, [r7, #24]
      GPIOx->MODER = temp;
 8001a8e:	687b      	ldr	r3, [r7, #4]
 8001a90:	69ba      	ldr	r2, [r7, #24]
 8001a92:	601a      	str	r2, [r3, #0]

      /*--------------------- EXTI Mode Configuration ------------------------*/
      /* Configure the External Interrupt or event for the current IO */
      if ((GPIO_Init->Mode & EXTI_MODE) != 0x00u)
 8001a94:	683b      	ldr	r3, [r7, #0]
 8001a96:	685b      	ldr	r3, [r3, #4]
 8001a98:	f403 3340 	and.w	r3, r3, #196608	; 0x30000
 8001a9c:	2b00      	cmp	r3, #0
 8001a9e:	f000 80be 	beq.w	8001c1e <HAL_GPIO_Init+0x306>
      {
        /* Enable SYSCFG Clock */
        __HAL_RCC_SYSCFG_CLK_ENABLE();
 8001aa2:	4b66      	ldr	r3, [pc, #408]	; (8001c3c <HAL_GPIO_Init+0x324>)
 8001aa4:	6c5b      	ldr	r3, [r3, #68]	; 0x44
 8001aa6:	4a65      	ldr	r2, [pc, #404]	; (8001c3c <HAL_GPIO_Init+0x324>)
 8001aa8:	f443 4380 	orr.w	r3, r3, #16384	; 0x4000
 8001aac:	6453      	str	r3, [r2, #68]	; 0x44
 8001aae:	4b63      	ldr	r3, [pc, #396]	; (8001c3c <HAL_GPIO_Init+0x324>)
 8001ab0:	6c5b      	ldr	r3, [r3, #68]	; 0x44
 8001ab2:	f403 4380 	and.w	r3, r3, #16384	; 0x4000
 8001ab6:	60fb      	str	r3, [r7, #12]
 8001ab8:	68fb      	ldr	r3, [r7, #12]

        temp = SYSCFG->EXTICR[position >> 2];
 8001aba:	4a61      	ldr	r2, [pc, #388]	; (8001c40 <HAL_GPIO_Init+0x328>)
 8001abc:	69fb      	ldr	r3, [r7, #28]
 8001abe:	089b      	lsrs	r3, r3, #2
 8001ac0:	3302      	adds	r3, #2
 8001ac2:	f852 3023 	ldr.w	r3, [r2, r3, lsl #2]
 8001ac6:	61bb      	str	r3, [r7, #24]
        temp &= ~(((uint32_t)0x0F) << (4 * (position & 0x03)));
 8001ac8:	69fb      	ldr	r3, [r7, #28]
 8001aca:	f003 0303 	and.w	r3, r3, #3
 8001ace:	009b      	lsls	r3, r3, #2
 8001ad0:	220f      	movs	r2, #15
 8001ad2:	fa02 f303 	lsl.w	r3, r2, r3
 8001ad6:	43db      	mvns	r3, r3
 8001ad8:	69ba      	ldr	r2, [r7, #24]
 8001ada:	4013      	ands	r3, r2
 8001adc:	61bb      	str	r3, [r7, #24]
        temp |= ((uint32_t)(GPIO_GET_INDEX(GPIOx)) << (4 * (position & 0x03)));
 8001ade:	687b      	ldr	r3, [r7, #4]
 8001ae0:	4a58      	ldr	r2, [pc, #352]	; (8001c44 <HAL_GPIO_Init+0x32c>)
 8001ae2:	4293      	cmp	r3, r2
 8001ae4:	d037      	beq.n	8001b56 <HAL_GPIO_Init+0x23e>
 8001ae6:	687b      	ldr	r3, [r7, #4]
 8001ae8:	4a57      	ldr	r2, [pc, #348]	; (8001c48 <HAL_GPIO_Init+0x330>)
 8001aea:	4293      	cmp	r3, r2
 8001aec:	d031      	beq.n	8001b52 <HAL_GPIO_Init+0x23a>
 8001aee:	687b      	ldr	r3, [r7, #4]
 8001af0:	4a56      	ldr	r2, [pc, #344]	; (8001c4c <HAL_GPIO_Init+0x334>)
 8001af2:	4293      	cmp	r3, r2
 8001af4:	d02b      	beq.n	8001b4e <HAL_GPIO_Init+0x236>
 8001af6:	687b      	ldr	r3, [r7, #4]
 8001af8:	4a55      	ldr	r2, [pc, #340]	; (8001c50 <HAL_GPIO_Init+0x338>)
 8001afa:	4293      	cmp	r3, r2
 8001afc:	d025      	beq.n	8001b4a <HAL_GPIO_Init+0x232>
 8001afe:	687b      	ldr	r3, [r7, #4]
 8001b00:	4a54      	ldr	r2, [pc, #336]	; (8001c54 <HAL_GPIO_Init+0x33c>)
 8001b02:	4293      	cmp	r3, r2
 8001b04:	d01f      	beq.n	8001b46 <HAL_GPIO_Init+0x22e>
 8001b06:	687b      	ldr	r3, [r7, #4]
 8001b08:	4a53      	ldr	r2, [pc, #332]	; (8001c58 <HAL_GPIO_Init+0x340>)
 8001b0a:	4293      	cmp	r3, r2
 8001b0c:	d019      	beq.n	8001b42 <HAL_GPIO_Init+0x22a>
 8001b0e:	687b      	ldr	r3, [r7, #4]
 8001b10:	4a52      	ldr	r2, [pc, #328]	; (8001c5c <HAL_GPIO_Init+0x344>)
 8001b12:	4293      	cmp	r3, r2
 8001b14:	d013      	beq.n	8001b3e <HAL_GPIO_Init+0x226>
 8001b16:	687b      	ldr	r3, [r7, #4]
 8001b18:	4a51      	ldr	r2, [pc, #324]	; (8001c60 <HAL_GPIO_Init+0x348>)
 8001b1a:	4293      	cmp	r3, r2
 8001b1c:	d00d      	beq.n	8001b3a <HAL_GPIO_Init+0x222>
 8001b1e:	687b      	ldr	r3, [r7, #4]
 8001b20:	4a50      	ldr	r2, [pc, #320]	; (8001c64 <HAL_GPIO_Init+0x34c>)
 8001b22:	4293      	cmp	r3, r2
 8001b24:	d007      	beq.n	8001b36 <HAL_GPIO_Init+0x21e>
 8001b26:	687b      	ldr	r3, [r7, #4]
 8001b28:	4a4f      	ldr	r2, [pc, #316]	; (8001c68 <HAL_GPIO_Init+0x350>)
 8001b2a:	4293      	cmp	r3, r2
 8001b2c:	d101      	bne.n	8001b32 <HAL_GPIO_Init+0x21a>
 8001b2e:	2309      	movs	r3, #9
 8001b30:	e012      	b.n	8001b58 <HAL_GPIO_Init+0x240>
 8001b32:	230a      	movs	r3, #10
 8001b34:	e010      	b.n	8001b58 <HAL_GPIO_Init+0x240>
 8001b36:	2308      	movs	r3, #8
 8001b38:	e00e      	b.n	8001b58 <HAL_GPIO_Init+0x240>
 8001b3a:	2307      	movs	r3, #7
 8001b3c:	e00c      	b.n	8001b58 <HAL_GPIO_Init+0x240>
 8001b3e:	2306      	movs	r3, #6
 8001b40:	e00a      	b.n	8001b58 <HAL_GPIO_Init+0x240>
 8001b42:	2305      	movs	r3, #5
 8001b44:	e008      	b.n	8001b58 <HAL_GPIO_Init+0x240>
 8001b46:	2304      	movs	r3, #4
 8001b48:	e006      	b.n	8001b58 <HAL_GPIO_Init+0x240>
 8001b4a:	2303      	movs	r3, #3
 8001b4c:	e004      	b.n	8001b58 <HAL_GPIO_Init+0x240>
 8001b4e:	2302      	movs	r3, #2
 8001b50:	e002      	b.n	8001b58 <HAL_GPIO_Init+0x240>
 8001b52:	2301      	movs	r3, #1
 8001b54:	e000      	b.n	8001b58 <HAL_GPIO_Init+0x240>
 8001b56:	2300      	movs	r3, #0
 8001b58:	69fa      	ldr	r2, [r7, #28]
 8001b5a:	f002 0203 	and.w	r2, r2, #3
 8001b5e:	0092      	lsls	r2, r2, #2
 8001b60:	4093      	lsls	r3, r2
 8001b62:	69ba      	ldr	r2, [r7, #24]
 8001b64:	4313      	orrs	r3, r2
 8001b66:	61bb      	str	r3, [r7, #24]
        SYSCFG->EXTICR[position >> 2] = temp;
 8001b68:	4935      	ldr	r1, [pc, #212]	; (8001c40 <HAL_GPIO_Init+0x328>)
 8001b6a:	69fb      	ldr	r3, [r7, #28]
 8001b6c:	089b      	lsrs	r3, r3, #2
 8001b6e:	3302      	adds	r3, #2
 8001b70:	69ba      	ldr	r2, [r7, #24]
 8001b72:	f841 2023 	str.w	r2, [r1, r3, lsl #2]

        /* Clear Rising Falling edge configuration */
        temp = EXTI->RTSR;
 8001b76:	4b3d      	ldr	r3, [pc, #244]	; (8001c6c <HAL_GPIO_Init+0x354>)
 8001b78:	689b      	ldr	r3, [r3, #8]
 8001b7a:	61bb      	str	r3, [r7, #24]
        temp &= ~((uint32_t)iocurrent);
 8001b7c:	693b      	ldr	r3, [r7, #16]
 8001b7e:	43db      	mvns	r3, r3
 8001b80:	69ba      	ldr	r2, [r7, #24]
 8001b82:	4013      	ands	r3, r2
 8001b84:	61bb      	str	r3, [r7, #24]
        if ((GPIO_Init->Mode & TRIGGER_RISING) != 0x00u)
 8001b86:	683b      	ldr	r3, [r7, #0]
 8001b88:	685b      	ldr	r3, [r3, #4]
 8001b8a:	f403 1380 	and.w	r3, r3, #1048576	; 0x100000
 8001b8e:	2b00      	cmp	r3, #0
 8001b90:	d003      	beq.n	8001b9a <HAL_GPIO_Init+0x282>
        {
          temp |= iocurrent;
 8001b92:	69ba      	ldr	r2, [r7, #24]
 8001b94:	693b      	ldr	r3, [r7, #16]
 8001b96:	4313      	orrs	r3, r2
 8001b98:	61bb      	str	r3, [r7, #24]
        }
        EXTI->RTSR = temp;
 8001b9a:	4a34      	ldr	r2, [pc, #208]	; (8001c6c <HAL_GPIO_Init+0x354>)
 8001b9c:	69bb      	ldr	r3, [r7, #24]
 8001b9e:	6093      	str	r3, [r2, #8]

        temp = EXTI->FTSR;
 8001ba0:	4b32      	ldr	r3, [pc, #200]	; (8001c6c <HAL_GPIO_Init+0x354>)
 8001ba2:	68db      	ldr	r3, [r3, #12]
 8001ba4:	61bb      	str	r3, [r7, #24]
        temp &= ~((uint32_t)iocurrent);
 8001ba6:	693b      	ldr	r3, [r7, #16]
 8001ba8:	43db      	mvns	r3, r3
 8001baa:	69ba      	ldr	r2, [r7, #24]
 8001bac:	4013      	ands	r3, r2
 8001bae:	61bb      	str	r3, [r7, #24]
        if ((GPIO_Init->Mode & TRIGGER_FALLING) != 0x00u)
 8001bb0:	683b      	ldr	r3, [r7, #0]
 8001bb2:	685b      	ldr	r3, [r3, #4]
 8001bb4:	f403 1300 	and.w	r3, r3, #2097152	; 0x200000
 8001bb8:	2b00      	cmp	r3, #0
 8001bba:	d003      	beq.n	8001bc4 <HAL_GPIO_Init+0x2ac>
        {
          temp |= iocurrent;
 8001bbc:	69ba      	ldr	r2, [r7, #24]
 8001bbe:	693b      	ldr	r3, [r7, #16]
 8001bc0:	4313      	orrs	r3, r2
 8001bc2:	61bb      	str	r3, [r7, #24]
        }
        EXTI->FTSR = temp;
 8001bc4:	4a29      	ldr	r2, [pc, #164]	; (8001c6c <HAL_GPIO_Init+0x354>)
 8001bc6:	69bb      	ldr	r3, [r7, #24]
 8001bc8:	60d3      	str	r3, [r2, #12]

        temp = EXTI->EMR;
 8001bca:	4b28      	ldr	r3, [pc, #160]	; (8001c6c <HAL_GPIO_Init+0x354>)
 8001bcc:	685b      	ldr	r3, [r3, #4]
 8001bce:	61bb      	str	r3, [r7, #24]
        temp &= ~((uint32_t)iocurrent);
 8001bd0:	693b      	ldr	r3, [r7, #16]
 8001bd2:	43db      	mvns	r3, r3
 8001bd4:	69ba      	ldr	r2, [r7, #24]
 8001bd6:	4013      	ands	r3, r2
 8001bd8:	61bb      	str	r3, [r7, #24]
        if ((GPIO_Init->Mode & EXTI_EVT) != 0x00u)
 8001bda:	683b      	ldr	r3, [r7, #0]
 8001bdc:	685b      	ldr	r3, [r3, #4]
 8001bde:	f403 3300 	and.w	r3, r3, #131072	; 0x20000
 8001be2:	2b00      	cmp	r3, #0
 8001be4:	d003      	beq.n	8001bee <HAL_GPIO_Init+0x2d6>
        {
          temp |= iocurrent;
 8001be6:	69ba      	ldr	r2, [r7, #24]
 8001be8:	693b      	ldr	r3, [r7, #16]
 8001bea:	4313      	orrs	r3, r2
 8001bec:	61bb      	str	r3, [r7, #24]
        }
        EXTI->EMR = temp;
 8001bee:	4a1f      	ldr	r2, [pc, #124]	; (8001c6c <HAL_GPIO_Init+0x354>)
 8001bf0:	69bb      	ldr	r3, [r7, #24]
 8001bf2:	6053      	str	r3, [r2, #4]

        /* Clear EXTI line configuration */
        temp = EXTI->IMR;
 8001bf4:	4b1d      	ldr	r3, [pc, #116]	; (8001c6c <HAL_GPIO_Init+0x354>)
 8001bf6:	681b      	ldr	r3, [r3, #0]
 8001bf8:	61bb      	str	r3, [r7, #24]
        temp &= ~((uint32_t)iocurrent);
 8001bfa:	693b      	ldr	r3, [r7, #16]
 8001bfc:	43db      	mvns	r3, r3
 8001bfe:	69ba      	ldr	r2, [r7, #24]
 8001c00:	4013      	ands	r3, r2
 8001c02:	61bb      	str	r3, [r7, #24]
        if ((GPIO_Init->Mode & EXTI_IT) != 0x00u)
 8001c04:	683b      	ldr	r3, [r7, #0]
 8001c06:	685b      	ldr	r3, [r3, #4]
 8001c08:	f403 3380 	and.w	r3, r3, #65536	; 0x10000
 8001c0c:	2b00      	cmp	r3, #0
 8001c0e:	d003      	beq.n	8001c18 <HAL_GPIO_Init+0x300>
        {
          temp |= iocurrent;
 8001c10:	69ba      	ldr	r2, [r7, #24]
 8001c12:	693b      	ldr	r3, [r7, #16]
 8001c14:	4313      	orrs	r3, r2
 8001c16:	61bb      	str	r3, [r7, #24]
        }
        EXTI->IMR = temp;
 8001c18:	4a14      	ldr	r2, [pc, #80]	; (8001c6c <HAL_GPIO_Init+0x354>)
 8001c1a:	69bb      	ldr	r3, [r7, #24]
 8001c1c:	6013      	str	r3, [r2, #0]
  for (position = 0; position < GPIO_NUMBER; position++)
 8001c1e:	69fb      	ldr	r3, [r7, #28]
 8001c20:	3301      	adds	r3, #1
 8001c22:	61fb      	str	r3, [r7, #28]
 8001c24:	69fb      	ldr	r3, [r7, #28]
 8001c26:	2b0f      	cmp	r3, #15
 8001c28:	f67f ae86 	bls.w	8001938 <HAL_GPIO_Init+0x20>
      }
    }
  }
}
 8001c2c:	bf00      	nop
 8001c2e:	bf00      	nop
 8001c30:	3724      	adds	r7, #36	; 0x24
 8001c32:	46bd      	mov	sp, r7
 8001c34:	f85d 7b04 	ldr.w	r7, [sp], #4
 8001c38:	4770      	bx	lr
 8001c3a:	bf00      	nop
 8001c3c:	40023800 	.word	0x40023800
 8001c40:	40013800 	.word	0x40013800
 8001c44:	40020000 	.word	0x40020000
 8001c48:	40020400 	.word	0x40020400
 8001c4c:	40020800 	.word	0x40020800
 8001c50:	40020c00 	.word	0x40020c00
 8001c54:	40021000 	.word	0x40021000
 8001c58:	40021400 	.word	0x40021400
 8001c5c:	40021800 	.word	0x40021800
 8001c60:	40021c00 	.word	0x40021c00
 8001c64:	40022000 	.word	0x40022000
 8001c68:	40022400 	.word	0x40022400
 8001c6c:	40013c00 	.word	0x40013c00

08001c70 <HAL_GPIO_WritePin>:
  *            @arg GPIO_PIN_RESET: to clear the port pin
  *            @arg GPIO_PIN_SET: to set the port pin
  * @retval None
  */
void HAL_GPIO_WritePin(GPIO_TypeDef *GPIOx, uint16_t GPIO_Pin, GPIO_PinState PinState)
{
 8001c70:	b480      	push	{r7}
 8001c72:	b083      	sub	sp, #12
 8001c74:	af00      	add	r7, sp, #0
 8001c76:	6078      	str	r0, [r7, #4]
 8001c78:	460b      	mov	r3, r1
 8001c7a:	807b      	strh	r3, [r7, #2]
 8001c7c:	4613      	mov	r3, r2
 8001c7e:	707b      	strb	r3, [r7, #1]
  /* Check the parameters */
  assert_param(IS_GPIO_PIN(GPIO_Pin));
  assert_param(IS_GPIO_PIN_ACTION(PinState));

  if (PinState != GPIO_PIN_RESET)
 8001c80:	787b      	ldrb	r3, [r7, #1]
 8001c82:	2b00      	cmp	r3, #0
 8001c84:	d003      	beq.n	8001c8e <HAL_GPIO_WritePin+0x1e>
  {
    GPIOx->BSRR = GPIO_Pin;
 8001c86:	887a      	ldrh	r2, [r7, #2]
 8001c88:	687b      	ldr	r3, [r7, #4]
 8001c8a:	619a      	str	r2, [r3, #24]
  }
  else
  {
    GPIOx->BSRR = (uint32_t)GPIO_Pin << 16;
  }
}
 8001c8c:	e003      	b.n	8001c96 <HAL_GPIO_WritePin+0x26>
    GPIOx->BSRR = (uint32_t)GPIO_Pin << 16;
 8001c8e:	887b      	ldrh	r3, [r7, #2]
 8001c90:	041a      	lsls	r2, r3, #16
 8001c92:	687b      	ldr	r3, [r7, #4]
 8001c94:	619a      	str	r2, [r3, #24]
}
 8001c96:	bf00      	nop
 8001c98:	370c      	adds	r7, #12
 8001c9a:	46bd      	mov	sp, r7
 8001c9c:	f85d 7b04 	ldr.w	r7, [sp], #4
 8001ca0:	4770      	bx	lr

08001ca2 <HAL_GPIO_TogglePin>:
  * @param  GPIO_Pin Specifies the pins to be toggled.
  *         This parameter can be any combination of GPIO_PIN_x where x can be (0..15).
  * @retval None
  */
void HAL_GPIO_TogglePin(GPIO_TypeDef *GPIOx, uint16_t GPIO_Pin)
{
 8001ca2:	b480      	push	{r7}
 8001ca4:	b085      	sub	sp, #20
 8001ca6:	af00      	add	r7, sp, #0
 8001ca8:	6078      	str	r0, [r7, #4]
 8001caa:	460b      	mov	r3, r1
 8001cac:	807b      	strh	r3, [r7, #2]

  /* Check the parameters */
  assert_param(IS_GPIO_PIN(GPIO_Pin));

  /* get current Output Data Register value */
  odr = GPIOx->ODR;
 8001cae:	687b      	ldr	r3, [r7, #4]
 8001cb0:	695b      	ldr	r3, [r3, #20]
 8001cb2:	60fb      	str	r3, [r7, #12]

  /* Set selected pins that were at low level, and reset ones that were high */
  GPIOx->BSRR = ((odr & GPIO_Pin) << GPIO_NUMBER) | (~odr & GPIO_Pin);
 8001cb4:	887a      	ldrh	r2, [r7, #2]
 8001cb6:	68fb      	ldr	r3, [r7, #12]
 8001cb8:	4013      	ands	r3, r2
 8001cba:	041a      	lsls	r2, r3, #16
 8001cbc:	68fb      	ldr	r3, [r7, #12]
 8001cbe:	43d9      	mvns	r1, r3
 8001cc0:	887b      	ldrh	r3, [r7, #2]
 8001cc2:	400b      	ands	r3, r1
 8001cc4:	431a      	orrs	r2, r3
 8001cc6:	687b      	ldr	r3, [r7, #4]
 8001cc8:	619a      	str	r2, [r3, #24]
}
 8001cca:	bf00      	nop
 8001ccc:	3714      	adds	r7, #20
 8001cce:	46bd      	mov	sp, r7
 8001cd0:	f85d 7b04 	ldr.w	r7, [sp], #4
 8001cd4:	4770      	bx	lr
	...

08001cd8 <HAL_PWREx_EnableOverDrive>:
  *         During the Over-drive switch activation, no peripheral clocks should be enabled.   
  *         The peripheral clocks must be enabled once the Over-drive mode is activated.   
  * @retval HAL status
  */
HAL_StatusTypeDef HAL_PWREx_EnableOverDrive(void)
{
 8001cd8:	b580      	push	{r7, lr}
 8001cda:	b082      	sub	sp, #8
 8001cdc:	af00      	add	r7, sp, #0
  uint32_t tickstart = 0;
 8001cde:	2300      	movs	r3, #0
 8001ce0:	607b      	str	r3, [r7, #4]

  __HAL_RCC_PWR_CLK_ENABLE();
 8001ce2:	4b23      	ldr	r3, [pc, #140]	; (8001d70 <HAL_PWREx_EnableOverDrive+0x98>)
 8001ce4:	6c1b      	ldr	r3, [r3, #64]	; 0x40
 8001ce6:	4a22      	ldr	r2, [pc, #136]	; (8001d70 <HAL_PWREx_EnableOverDrive+0x98>)
 8001ce8:	f043 5380 	orr.w	r3, r3, #268435456	; 0x10000000
 8001cec:	6413      	str	r3, [r2, #64]	; 0x40
 8001cee:	4b20      	ldr	r3, [pc, #128]	; (8001d70 <HAL_PWREx_EnableOverDrive+0x98>)
 8001cf0:	6c1b      	ldr	r3, [r3, #64]	; 0x40
 8001cf2:	f003 5380 	and.w	r3, r3, #268435456	; 0x10000000
 8001cf6:	603b      	str	r3, [r7, #0]
 8001cf8:	683b      	ldr	r3, [r7, #0]
  
  /* Enable the Over-drive to extend the clock frequency to 216 MHz */
  __HAL_PWR_OVERDRIVE_ENABLE();
 8001cfa:	4b1e      	ldr	r3, [pc, #120]	; (8001d74 <HAL_PWREx_EnableOverDrive+0x9c>)
 8001cfc:	681b      	ldr	r3, [r3, #0]
 8001cfe:	4a1d      	ldr	r2, [pc, #116]	; (8001d74 <HAL_PWREx_EnableOverDrive+0x9c>)
 8001d00:	f443 3380 	orr.w	r3, r3, #65536	; 0x10000
 8001d04:	6013      	str	r3, [r2, #0]

  /* Get tick */
  tickstart = HAL_GetTick();
 8001d06:	f7ff f8df 	bl	8000ec8 <HAL_GetTick>
 8001d0a:	6078      	str	r0, [r7, #4]

  while(!__HAL_PWR_GET_FLAG(PWR_FLAG_ODRDY))
 8001d0c:	e009      	b.n	8001d22 <HAL_PWREx_EnableOverDrive+0x4a>
  {
    if((HAL_GetTick() - tickstart ) > PWR_OVERDRIVE_TIMEOUT_VALUE)
 8001d0e:	f7ff f8db 	bl	8000ec8 <HAL_GetTick>
 8001d12:	4602      	mov	r2, r0
 8001d14:	687b      	ldr	r3, [r7, #4]
 8001d16:	1ad3      	subs	r3, r2, r3
 8001d18:	f5b3 7f7a 	cmp.w	r3, #1000	; 0x3e8
 8001d1c:	d901      	bls.n	8001d22 <HAL_PWREx_EnableOverDrive+0x4a>
    {
      return HAL_TIMEOUT;
 8001d1e:	2303      	movs	r3, #3
 8001d20:	e022      	b.n	8001d68 <HAL_PWREx_EnableOverDrive+0x90>
  while(!__HAL_PWR_GET_FLAG(PWR_FLAG_ODRDY))
 8001d22:	4b14      	ldr	r3, [pc, #80]	; (8001d74 <HAL_PWREx_EnableOverDrive+0x9c>)
 8001d24:	685b      	ldr	r3, [r3, #4]
 8001d26:	f403 3380 	and.w	r3, r3, #65536	; 0x10000
 8001d2a:	f5b3 3f80 	cmp.w	r3, #65536	; 0x10000
 8001d2e:	d1ee      	bne.n	8001d0e <HAL_PWREx_EnableOverDrive+0x36>
    }
  }
  
  /* Enable the Over-drive switch */
  __HAL_PWR_OVERDRIVESWITCHING_ENABLE();
 8001d30:	4b10      	ldr	r3, [pc, #64]	; (8001d74 <HAL_PWREx_EnableOverDrive+0x9c>)
 8001d32:	681b      	ldr	r3, [r3, #0]
 8001d34:	4a0f      	ldr	r2, [pc, #60]	; (8001d74 <HAL_PWREx_EnableOverDrive+0x9c>)
 8001d36:	f443 3300 	orr.w	r3, r3, #131072	; 0x20000
 8001d3a:	6013      	str	r3, [r2, #0]

  /* Get tick */
  tickstart = HAL_GetTick();
 8001d3c:	f7ff f8c4 	bl	8000ec8 <HAL_GetTick>
 8001d40:	6078      	str	r0, [r7, #4]

  while(!__HAL_PWR_GET_FLAG(PWR_FLAG_ODSWRDY))
 8001d42:	e009      	b.n	8001d58 <HAL_PWREx_EnableOverDrive+0x80>
  {
    if((HAL_GetTick() - tickstart ) > PWR_OVERDRIVE_TIMEOUT_VALUE)
 8001d44:	f7ff f8c0 	bl	8000ec8 <HAL_GetTick>
 8001d48:	4602      	mov	r2, r0
 8001d4a:	687b      	ldr	r3, [r7, #4]
 8001d4c:	1ad3      	subs	r3, r2, r3
 8001d4e:	f5b3 7f7a 	cmp.w	r3, #1000	; 0x3e8
 8001d52:	d901      	bls.n	8001d58 <HAL_PWREx_EnableOverDrive+0x80>
    {
      return HAL_TIMEOUT;
 8001d54:	2303      	movs	r3, #3
 8001d56:	e007      	b.n	8001d68 <HAL_PWREx_EnableOverDrive+0x90>
  while(!__HAL_PWR_GET_FLAG(PWR_FLAG_ODSWRDY))
 8001d58:	4b06      	ldr	r3, [pc, #24]	; (8001d74 <HAL_PWREx_EnableOverDrive+0x9c>)
 8001d5a:	685b      	ldr	r3, [r3, #4]
 8001d5c:	f403 3300 	and.w	r3, r3, #131072	; 0x20000
 8001d60:	f5b3 3f00 	cmp.w	r3, #131072	; 0x20000
 8001d64:	d1ee      	bne.n	8001d44 <HAL_PWREx_EnableOverDrive+0x6c>
    }
  } 
  return HAL_OK;
 8001d66:	2300      	movs	r3, #0
}
 8001d68:	4618      	mov	r0, r3
 8001d6a:	3708      	adds	r7, #8
 8001d6c:	46bd      	mov	sp, r7
 8001d6e:	bd80      	pop	{r7, pc}
 8001d70:	40023800 	.word	0x40023800
 8001d74:	40007000 	.word	0x40007000

08001d78 <HAL_RCC_OscConfig>:
  *         supported by this function. User should request a transition to HSE Off
  *         first and then HSE On or HSE Bypass.
  * @retval HAL status
  */
HAL_StatusTypeDef HAL_RCC_OscConfig(RCC_OscInitTypeDef  *RCC_OscInitStruct)
{
 8001d78:	b580      	push	{r7, lr}
 8001d7a:	b086      	sub	sp, #24
 8001d7c:	af00      	add	r7, sp, #0
 8001d7e:	6078      	str	r0, [r7, #4]
  uint32_t tickstart;
  uint32_t pll_config;
  FlagStatus pwrclkchanged = RESET;
 8001d80:	2300      	movs	r3, #0
 8001d82:	75fb      	strb	r3, [r7, #23]

  /* Check Null pointer */
  if (RCC_OscInitStruct == NULL)
 8001d84:	687b      	ldr	r3, [r7, #4]
 8001d86:	2b00      	cmp	r3, #0
 8001d88:	d101      	bne.n	8001d8e <HAL_RCC_OscConfig+0x16>
  {
    return HAL_ERROR;
 8001d8a:	2301      	movs	r3, #1
 8001d8c:	e29b      	b.n	80022c6 <HAL_RCC_OscConfig+0x54e>

  /* Check the parameters */
  assert_param(IS_RCC_OSCILLATORTYPE(RCC_OscInitStruct->OscillatorType));

  /*------------------------------- HSE Configuration ------------------------*/
  if (((RCC_OscInitStruct->OscillatorType) & RCC_OSCILLATORTYPE_HSE) == RCC_OSCILLATORTYPE_HSE)
 8001d8e:	687b      	ldr	r3, [r7, #4]
 8001d90:	681b      	ldr	r3, [r3, #0]
 8001d92:	f003 0301 	and.w	r3, r3, #1
 8001d96:	2b00      	cmp	r3, #0
 8001d98:	f000 8087 	beq.w	8001eaa <HAL_RCC_OscConfig+0x132>
  {
    /* Check the parameters */
    assert_param(IS_RCC_HSE(RCC_OscInitStruct->HSEState));
    /* When the HSE is used as system clock or clock source for PLL, It can not be disabled */
    if ((__HAL_RCC_GET_SYSCLK_SOURCE() == RCC_SYSCLKSOURCE_STATUS_HSE)
 8001d9c:	4b96      	ldr	r3, [pc, #600]	; (8001ff8 <HAL_RCC_OscConfig+0x280>)
 8001d9e:	689b      	ldr	r3, [r3, #8]
 8001da0:	f003 030c 	and.w	r3, r3, #12
 8001da4:	2b04      	cmp	r3, #4
 8001da6:	d00c      	beq.n	8001dc2 <HAL_RCC_OscConfig+0x4a>
        || ((__HAL_RCC_GET_SYSCLK_SOURCE() == RCC_SYSCLKSOURCE_STATUS_PLLCLK) && ((RCC->PLLCFGR & RCC_PLLCFGR_PLLSRC) == RCC_PLLCFGR_PLLSRC_HSE)))
 8001da8:	4b93      	ldr	r3, [pc, #588]	; (8001ff8 <HAL_RCC_OscConfig+0x280>)
 8001daa:	689b      	ldr	r3, [r3, #8]
 8001dac:	f003 030c 	and.w	r3, r3, #12
 8001db0:	2b08      	cmp	r3, #8
 8001db2:	d112      	bne.n	8001dda <HAL_RCC_OscConfig+0x62>
 8001db4:	4b90      	ldr	r3, [pc, #576]	; (8001ff8 <HAL_RCC_OscConfig+0x280>)
 8001db6:	685b      	ldr	r3, [r3, #4]
 8001db8:	f403 0380 	and.w	r3, r3, #4194304	; 0x400000
 8001dbc:	f5b3 0f80 	cmp.w	r3, #4194304	; 0x400000
 8001dc0:	d10b      	bne.n	8001dda <HAL_RCC_OscConfig+0x62>
    {
      if ((__HAL_RCC_GET_FLAG(RCC_FLAG_HSERDY) != RESET) && (RCC_OscInitStruct->HSEState == RCC_HSE_OFF))
 8001dc2:	4b8d      	ldr	r3, [pc, #564]	; (8001ff8 <HAL_RCC_OscConfig+0x280>)
 8001dc4:	681b      	ldr	r3, [r3, #0]
 8001dc6:	f403 3300 	and.w	r3, r3, #131072	; 0x20000
 8001dca:	2b00      	cmp	r3, #0
 8001dcc:	d06c      	beq.n	8001ea8 <HAL_RCC_OscConfig+0x130>
 8001dce:	687b      	ldr	r3, [r7, #4]
 8001dd0:	685b      	ldr	r3, [r3, #4]
 8001dd2:	2b00      	cmp	r3, #0
 8001dd4:	d168      	bne.n	8001ea8 <HAL_RCC_OscConfig+0x130>
      {
        return HAL_ERROR;
 8001dd6:	2301      	movs	r3, #1
 8001dd8:	e275      	b.n	80022c6 <HAL_RCC_OscConfig+0x54e>
      }
    }
    else
    {
      /* Set the new HSE configuration ---------------------------------------*/
      __HAL_RCC_HSE_CONFIG(RCC_OscInitStruct->HSEState);
 8001dda:	687b      	ldr	r3, [r7, #4]
 8001ddc:	685b      	ldr	r3, [r3, #4]
 8001dde:	f5b3 3f80 	cmp.w	r3, #65536	; 0x10000
 8001de2:	d106      	bne.n	8001df2 <HAL_RCC_OscConfig+0x7a>
 8001de4:	4b84      	ldr	r3, [pc, #528]	; (8001ff8 <HAL_RCC_OscConfig+0x280>)
 8001de6:	681b      	ldr	r3, [r3, #0]
 8001de8:	4a83      	ldr	r2, [pc, #524]	; (8001ff8 <HAL_RCC_OscConfig+0x280>)
 8001dea:	f443 3380 	orr.w	r3, r3, #65536	; 0x10000
 8001dee:	6013      	str	r3, [r2, #0]
 8001df0:	e02e      	b.n	8001e50 <HAL_RCC_OscConfig+0xd8>
 8001df2:	687b      	ldr	r3, [r7, #4]
 8001df4:	685b      	ldr	r3, [r3, #4]
 8001df6:	2b00      	cmp	r3, #0
 8001df8:	d10c      	bne.n	8001e14 <HAL_RCC_OscConfig+0x9c>
 8001dfa:	4b7f      	ldr	r3, [pc, #508]	; (8001ff8 <HAL_RCC_OscConfig+0x280>)
 8001dfc:	681b      	ldr	r3, [r3, #0]
 8001dfe:	4a7e      	ldr	r2, [pc, #504]	; (8001ff8 <HAL_RCC_OscConfig+0x280>)
 8001e00:	f423 3380 	bic.w	r3, r3, #65536	; 0x10000
 8001e04:	6013      	str	r3, [r2, #0]
 8001e06:	4b7c      	ldr	r3, [pc, #496]	; (8001ff8 <HAL_RCC_OscConfig+0x280>)
 8001e08:	681b      	ldr	r3, [r3, #0]
 8001e0a:	4a7b      	ldr	r2, [pc, #492]	; (8001ff8 <HAL_RCC_OscConfig+0x280>)
 8001e0c:	f423 2380 	bic.w	r3, r3, #262144	; 0x40000
 8001e10:	6013      	str	r3, [r2, #0]
 8001e12:	e01d      	b.n	8001e50 <HAL_RCC_OscConfig+0xd8>
 8001e14:	687b      	ldr	r3, [r7, #4]
 8001e16:	685b      	ldr	r3, [r3, #4]
 8001e18:	f5b3 2fa0 	cmp.w	r3, #327680	; 0x50000
 8001e1c:	d10c      	bne.n	8001e38 <HAL_RCC_OscConfig+0xc0>
 8001e1e:	4b76      	ldr	r3, [pc, #472]	; (8001ff8 <HAL_RCC_OscConfig+0x280>)
 8001e20:	681b      	ldr	r3, [r3, #0]
 8001e22:	4a75      	ldr	r2, [pc, #468]	; (8001ff8 <HAL_RCC_OscConfig+0x280>)
 8001e24:	f443 2380 	orr.w	r3, r3, #262144	; 0x40000
 8001e28:	6013      	str	r3, [r2, #0]
 8001e2a:	4b73      	ldr	r3, [pc, #460]	; (8001ff8 <HAL_RCC_OscConfig+0x280>)
 8001e2c:	681b      	ldr	r3, [r3, #0]
 8001e2e:	4a72      	ldr	r2, [pc, #456]	; (8001ff8 <HAL_RCC_OscConfig+0x280>)
 8001e30:	f443 3380 	orr.w	r3, r3, #65536	; 0x10000
 8001e34:	6013      	str	r3, [r2, #0]
 8001e36:	e00b      	b.n	8001e50 <HAL_RCC_OscConfig+0xd8>
 8001e38:	4b6f      	ldr	r3, [pc, #444]	; (8001ff8 <HAL_RCC_OscConfig+0x280>)
 8001e3a:	681b      	ldr	r3, [r3, #0]
 8001e3c:	4a6e      	ldr	r2, [pc, #440]	; (8001ff8 <HAL_RCC_OscConfig+0x280>)
 8001e3e:	f423 3380 	bic.w	r3, r3, #65536	; 0x10000
 8001e42:	6013      	str	r3, [r2, #0]
 8001e44:	4b6c      	ldr	r3, [pc, #432]	; (8001ff8 <HAL_RCC_OscConfig+0x280>)
 8001e46:	681b      	ldr	r3, [r3, #0]
 8001e48:	4a6b      	ldr	r2, [pc, #428]	; (8001ff8 <HAL_RCC_OscConfig+0x280>)
 8001e4a:	f423 2380 	bic.w	r3, r3, #262144	; 0x40000
 8001e4e:	6013      	str	r3, [r2, #0]

      /* Check the HSE State */
      if (RCC_OscInitStruct->HSEState != RCC_HSE_OFF)
 8001e50:	687b      	ldr	r3, [r7, #4]
 8001e52:	685b      	ldr	r3, [r3, #4]
 8001e54:	2b00      	cmp	r3, #0
 8001e56:	d013      	beq.n	8001e80 <HAL_RCC_OscConfig+0x108>
      {
        /* Get Start Tick*/
        tickstart = HAL_GetTick();
 8001e58:	f7ff f836 	bl	8000ec8 <HAL_GetTick>
 8001e5c:	6138      	str	r0, [r7, #16]

        /* Wait till HSE is ready */
        while (__HAL_RCC_GET_FLAG(RCC_FLAG_HSERDY) == RESET)
 8001e5e:	e008      	b.n	8001e72 <HAL_RCC_OscConfig+0xfa>
        {
          if ((HAL_GetTick() - tickstart) > HSE_TIMEOUT_VALUE)
 8001e60:	f7ff f832 	bl	8000ec8 <HAL_GetTick>
 8001e64:	4602      	mov	r2, r0
 8001e66:	693b      	ldr	r3, [r7, #16]
 8001e68:	1ad3      	subs	r3, r2, r3
 8001e6a:	2b64      	cmp	r3, #100	; 0x64
 8001e6c:	d901      	bls.n	8001e72 <HAL_RCC_OscConfig+0xfa>
          {
            return HAL_TIMEOUT;
 8001e6e:	2303      	movs	r3, #3
 8001e70:	e229      	b.n	80022c6 <HAL_RCC_OscConfig+0x54e>
        while (__HAL_RCC_GET_FLAG(RCC_FLAG_HSERDY) == RESET)
 8001e72:	4b61      	ldr	r3, [pc, #388]	; (8001ff8 <HAL_RCC_OscConfig+0x280>)
 8001e74:	681b      	ldr	r3, [r3, #0]
 8001e76:	f403 3300 	and.w	r3, r3, #131072	; 0x20000
 8001e7a:	2b00      	cmp	r3, #0
 8001e7c:	d0f0      	beq.n	8001e60 <HAL_RCC_OscConfig+0xe8>
 8001e7e:	e014      	b.n	8001eaa <HAL_RCC_OscConfig+0x132>
        }
      }
      else
      {
        /* Get Start Tick*/
        tickstart = HAL_GetTick();
 8001e80:	f7ff f822 	bl	8000ec8 <HAL_GetTick>
 8001e84:	6138      	str	r0, [r7, #16]

        /* Wait till HSE is bypassed or disabled */
        while (__HAL_RCC_GET_FLAG(RCC_FLAG_HSERDY) != RESET)
 8001e86:	e008      	b.n	8001e9a <HAL_RCC_OscConfig+0x122>
        {
          if ((HAL_GetTick() - tickstart) > HSE_TIMEOUT_VALUE)
 8001e88:	f7ff f81e 	bl	8000ec8 <HAL_GetTick>
 8001e8c:	4602      	mov	r2, r0
 8001e8e:	693b      	ldr	r3, [r7, #16]
 8001e90:	1ad3      	subs	r3, r2, r3
 8001e92:	2b64      	cmp	r3, #100	; 0x64
 8001e94:	d901      	bls.n	8001e9a <HAL_RCC_OscConfig+0x122>
          {
            return HAL_TIMEOUT;
 8001e96:	2303      	movs	r3, #3
 8001e98:	e215      	b.n	80022c6 <HAL_RCC_OscConfig+0x54e>
        while (__HAL_RCC_GET_FLAG(RCC_FLAG_HSERDY) != RESET)
 8001e9a:	4b57      	ldr	r3, [pc, #348]	; (8001ff8 <HAL_RCC_OscConfig+0x280>)
 8001e9c:	681b      	ldr	r3, [r3, #0]
 8001e9e:	f403 3300 	and.w	r3, r3, #131072	; 0x20000
 8001ea2:	2b00      	cmp	r3, #0
 8001ea4:	d1f0      	bne.n	8001e88 <HAL_RCC_OscConfig+0x110>
 8001ea6:	e000      	b.n	8001eaa <HAL_RCC_OscConfig+0x132>
      if ((__HAL_RCC_GET_FLAG(RCC_FLAG_HSERDY) != RESET) && (RCC_OscInitStruct->HSEState == RCC_HSE_OFF))
 8001ea8:	bf00      	nop
        }
      }
    }
  }
  /*----------------------------- HSI Configuration --------------------------*/
  if (((RCC_OscInitStruct->OscillatorType) & RCC_OSCILLATORTYPE_HSI) == RCC_OSCILLATORTYPE_HSI)
 8001eaa:	687b      	ldr	r3, [r7, #4]
 8001eac:	681b      	ldr	r3, [r3, #0]
 8001eae:	f003 0302 	and.w	r3, r3, #2
 8001eb2:	2b00      	cmp	r3, #0
 8001eb4:	d069      	beq.n	8001f8a <HAL_RCC_OscConfig+0x212>
    /* Check the parameters */
    assert_param(IS_RCC_HSI(RCC_OscInitStruct->HSIState));
    assert_param(IS_RCC_CALIBRATION_VALUE(RCC_OscInitStruct->HSICalibrationValue));

    /* Check if HSI is used as system clock or as PLL source when PLL is selected as system clock */
    if ((__HAL_RCC_GET_SYSCLK_SOURCE() == RCC_SYSCLKSOURCE_STATUS_HSI)
 8001eb6:	4b50      	ldr	r3, [pc, #320]	; (8001ff8 <HAL_RCC_OscConfig+0x280>)
 8001eb8:	689b      	ldr	r3, [r3, #8]
 8001eba:	f003 030c 	and.w	r3, r3, #12
 8001ebe:	2b00      	cmp	r3, #0
 8001ec0:	d00b      	beq.n	8001eda <HAL_RCC_OscConfig+0x162>
        || ((__HAL_RCC_GET_SYSCLK_SOURCE() == RCC_SYSCLKSOURCE_STATUS_PLLCLK) && ((RCC->PLLCFGR & RCC_PLLCFGR_PLLSRC) == RCC_PLLCFGR_PLLSRC_HSI)))
 8001ec2:	4b4d      	ldr	r3, [pc, #308]	; (8001ff8 <HAL_RCC_OscConfig+0x280>)
 8001ec4:	689b      	ldr	r3, [r3, #8]
 8001ec6:	f003 030c 	and.w	r3, r3, #12
 8001eca:	2b08      	cmp	r3, #8
 8001ecc:	d11c      	bne.n	8001f08 <HAL_RCC_OscConfig+0x190>
 8001ece:	4b4a      	ldr	r3, [pc, #296]	; (8001ff8 <HAL_RCC_OscConfig+0x280>)
 8001ed0:	685b      	ldr	r3, [r3, #4]
 8001ed2:	f403 0380 	and.w	r3, r3, #4194304	; 0x400000
 8001ed6:	2b00      	cmp	r3, #0
 8001ed8:	d116      	bne.n	8001f08 <HAL_RCC_OscConfig+0x190>
    {
      /* When HSI is used as system clock it will not disabled */
      if ((__HAL_RCC_GET_FLAG(RCC_FLAG_HSIRDY) != RESET) && (RCC_OscInitStruct->HSIState != RCC_HSI_ON))
 8001eda:	4b47      	ldr	r3, [pc, #284]	; (8001ff8 <HAL_RCC_OscConfig+0x280>)
 8001edc:	681b      	ldr	r3, [r3, #0]
 8001ede:	f003 0302 	and.w	r3, r3, #2
 8001ee2:	2b00      	cmp	r3, #0
 8001ee4:	d005      	beq.n	8001ef2 <HAL_RCC_OscConfig+0x17a>
 8001ee6:	687b      	ldr	r3, [r7, #4]
 8001ee8:	68db      	ldr	r3, [r3, #12]
 8001eea:	2b01      	cmp	r3, #1
 8001eec:	d001      	beq.n	8001ef2 <HAL_RCC_OscConfig+0x17a>
      {
        return HAL_ERROR;
 8001eee:	2301      	movs	r3, #1
 8001ef0:	e1e9      	b.n	80022c6 <HAL_RCC_OscConfig+0x54e>
      }
      /* Otherwise, just the calibration is allowed */
      else
      {
        /* Adjusts the Internal High Speed oscillator (HSI) calibration value.*/
        __HAL_RCC_HSI_CALIBRATIONVALUE_ADJUST(RCC_OscInitStruct->HSICalibrationValue);
 8001ef2:	4b41      	ldr	r3, [pc, #260]	; (8001ff8 <HAL_RCC_OscConfig+0x280>)
 8001ef4:	681b      	ldr	r3, [r3, #0]
 8001ef6:	f023 02f8 	bic.w	r2, r3, #248	; 0xf8
 8001efa:	687b      	ldr	r3, [r7, #4]
 8001efc:	691b      	ldr	r3, [r3, #16]
 8001efe:	00db      	lsls	r3, r3, #3
 8001f00:	493d      	ldr	r1, [pc, #244]	; (8001ff8 <HAL_RCC_OscConfig+0x280>)
 8001f02:	4313      	orrs	r3, r2
 8001f04:	600b      	str	r3, [r1, #0]
      if ((__HAL_RCC_GET_FLAG(RCC_FLAG_HSIRDY) != RESET) && (RCC_OscInitStruct->HSIState != RCC_HSI_ON))
 8001f06:	e040      	b.n	8001f8a <HAL_RCC_OscConfig+0x212>
      }
    }
    else
    {
      /* Check the HSI State */
      if ((RCC_OscInitStruct->HSIState) != RCC_HSI_OFF)
 8001f08:	687b      	ldr	r3, [r7, #4]
 8001f0a:	68db      	ldr	r3, [r3, #12]
 8001f0c:	2b00      	cmp	r3, #0
 8001f0e:	d023      	beq.n	8001f58 <HAL_RCC_OscConfig+0x1e0>
      {
        /* Enable the Internal High Speed oscillator (HSI). */
        __HAL_RCC_HSI_ENABLE();
 8001f10:	4b39      	ldr	r3, [pc, #228]	; (8001ff8 <HAL_RCC_OscConfig+0x280>)
 8001f12:	681b      	ldr	r3, [r3, #0]
 8001f14:	4a38      	ldr	r2, [pc, #224]	; (8001ff8 <HAL_RCC_OscConfig+0x280>)
 8001f16:	f043 0301 	orr.w	r3, r3, #1
 8001f1a:	6013      	str	r3, [r2, #0]

        /* Get Start Tick*/
        tickstart = HAL_GetTick();
 8001f1c:	f7fe ffd4 	bl	8000ec8 <HAL_GetTick>
 8001f20:	6138      	str	r0, [r7, #16]

        /* Wait till HSI is ready */
        while (__HAL_RCC_GET_FLAG(RCC_FLAG_HSIRDY) == RESET)
 8001f22:	e008      	b.n	8001f36 <HAL_RCC_OscConfig+0x1be>
        {
          if ((HAL_GetTick() - tickstart) > HSI_TIMEOUT_VALUE)
 8001f24:	f7fe ffd0 	bl	8000ec8 <HAL_GetTick>
 8001f28:	4602      	mov	r2, r0
 8001f2a:	693b      	ldr	r3, [r7, #16]
 8001f2c:	1ad3      	subs	r3, r2, r3
 8001f2e:	2b02      	cmp	r3, #2
 8001f30:	d901      	bls.n	8001f36 <HAL_RCC_OscConfig+0x1be>
          {
            return HAL_TIMEOUT;
 8001f32:	2303      	movs	r3, #3
 8001f34:	e1c7      	b.n	80022c6 <HAL_RCC_OscConfig+0x54e>
        while (__HAL_RCC_GET_FLAG(RCC_FLAG_HSIRDY) == RESET)
 8001f36:	4b30      	ldr	r3, [pc, #192]	; (8001ff8 <HAL_RCC_OscConfig+0x280>)
 8001f38:	681b      	ldr	r3, [r3, #0]
 8001f3a:	f003 0302 	and.w	r3, r3, #2
 8001f3e:	2b00      	cmp	r3, #0
 8001f40:	d0f0      	beq.n	8001f24 <HAL_RCC_OscConfig+0x1ac>
          }
        }

        /* Adjusts the Internal High Speed oscillator (HSI) calibration value.*/
        __HAL_RCC_HSI_CALIBRATIONVALUE_ADJUST(RCC_OscInitStruct->HSICalibrationValue);
 8001f42:	4b2d      	ldr	r3, [pc, #180]	; (8001ff8 <HAL_RCC_OscConfig+0x280>)
 8001f44:	681b      	ldr	r3, [r3, #0]
 8001f46:	f023 02f8 	bic.w	r2, r3, #248	; 0xf8
 8001f4a:	687b      	ldr	r3, [r7, #4]
 8001f4c:	691b      	ldr	r3, [r3, #16]
 8001f4e:	00db      	lsls	r3, r3, #3
 8001f50:	4929      	ldr	r1, [pc, #164]	; (8001ff8 <HAL_RCC_OscConfig+0x280>)
 8001f52:	4313      	orrs	r3, r2
 8001f54:	600b      	str	r3, [r1, #0]
 8001f56:	e018      	b.n	8001f8a <HAL_RCC_OscConfig+0x212>
      }
      else
      {
        /* Disable the Internal High Speed oscillator (HSI). */
        __HAL_RCC_HSI_DISABLE();
 8001f58:	4b27      	ldr	r3, [pc, #156]	; (8001ff8 <HAL_RCC_OscConfig+0x280>)
 8001f5a:	681b      	ldr	r3, [r3, #0]
 8001f5c:	4a26      	ldr	r2, [pc, #152]	; (8001ff8 <HAL_RCC_OscConfig+0x280>)
 8001f5e:	f023 0301 	bic.w	r3, r3, #1
 8001f62:	6013      	str	r3, [r2, #0]

        /* Get Start Tick*/
        tickstart = HAL_GetTick();
 8001f64:	f7fe ffb0 	bl	8000ec8 <HAL_GetTick>
 8001f68:	6138      	str	r0, [r7, #16]

        /* Wait till HSI is ready */
        while (__HAL_RCC_GET_FLAG(RCC_FLAG_HSIRDY) != RESET)
 8001f6a:	e008      	b.n	8001f7e <HAL_RCC_OscConfig+0x206>
        {
          if ((HAL_GetTick() - tickstart) > HSI_TIMEOUT_VALUE)
 8001f6c:	f7fe ffac 	bl	8000ec8 <HAL_GetTick>
 8001f70:	4602      	mov	r2, r0
 8001f72:	693b      	ldr	r3, [r7, #16]
 8001f74:	1ad3      	subs	r3, r2, r3
 8001f76:	2b02      	cmp	r3, #2
 8001f78:	d901      	bls.n	8001f7e <HAL_RCC_OscConfig+0x206>
          {
            return HAL_TIMEOUT;
 8001f7a:	2303      	movs	r3, #3
 8001f7c:	e1a3      	b.n	80022c6 <HAL_RCC_OscConfig+0x54e>
        while (__HAL_RCC_GET_FLAG(RCC_FLAG_HSIRDY) != RESET)
 8001f7e:	4b1e      	ldr	r3, [pc, #120]	; (8001ff8 <HAL_RCC_OscConfig+0x280>)
 8001f80:	681b      	ldr	r3, [r3, #0]
 8001f82:	f003 0302 	and.w	r3, r3, #2
 8001f86:	2b00      	cmp	r3, #0
 8001f88:	d1f0      	bne.n	8001f6c <HAL_RCC_OscConfig+0x1f4>
        }
      }
    }
  }
  /*------------------------------ LSI Configuration -------------------------*/
  if (((RCC_OscInitStruct->OscillatorType) & RCC_OSCILLATORTYPE_LSI) == RCC_OSCILLATORTYPE_LSI)
 8001f8a:	687b      	ldr	r3, [r7, #4]
 8001f8c:	681b      	ldr	r3, [r3, #0]
 8001f8e:	f003 0308 	and.w	r3, r3, #8
 8001f92:	2b00      	cmp	r3, #0
 8001f94:	d038      	beq.n	8002008 <HAL_RCC_OscConfig+0x290>
  {
    /* Check the parameters */
    assert_param(IS_RCC_LSI(RCC_OscInitStruct->LSIState));

    /* Check the LSI State */
    if ((RCC_OscInitStruct->LSIState) != RCC_LSI_OFF)
 8001f96:	687b      	ldr	r3, [r7, #4]
 8001f98:	695b      	ldr	r3, [r3, #20]
 8001f9a:	2b00      	cmp	r3, #0
 8001f9c:	d019      	beq.n	8001fd2 <HAL_RCC_OscConfig+0x25a>
    {
      /* Enable the Internal Low Speed oscillator (LSI). */
      __HAL_RCC_LSI_ENABLE();
 8001f9e:	4b16      	ldr	r3, [pc, #88]	; (8001ff8 <HAL_RCC_OscConfig+0x280>)
 8001fa0:	6f5b      	ldr	r3, [r3, #116]	; 0x74
 8001fa2:	4a15      	ldr	r2, [pc, #84]	; (8001ff8 <HAL_RCC_OscConfig+0x280>)
 8001fa4:	f043 0301 	orr.w	r3, r3, #1
 8001fa8:	6753      	str	r3, [r2, #116]	; 0x74

      /* Get Start Tick*/
      tickstart = HAL_GetTick();
 8001faa:	f7fe ff8d 	bl	8000ec8 <HAL_GetTick>
 8001fae:	6138      	str	r0, [r7, #16]

      /* Wait till LSI is ready */
      while (__HAL_RCC_GET_FLAG(RCC_FLAG_LSIRDY) == RESET)
 8001fb0:	e008      	b.n	8001fc4 <HAL_RCC_OscConfig+0x24c>
      {
        if ((HAL_GetTick() - tickstart) > LSI_TIMEOUT_VALUE)
 8001fb2:	f7fe ff89 	bl	8000ec8 <HAL_GetTick>
 8001fb6:	4602      	mov	r2, r0
 8001fb8:	693b      	ldr	r3, [r7, #16]
 8001fba:	1ad3      	subs	r3, r2, r3
 8001fbc:	2b02      	cmp	r3, #2
 8001fbe:	d901      	bls.n	8001fc4 <HAL_RCC_OscConfig+0x24c>
        {
          return HAL_TIMEOUT;
 8001fc0:	2303      	movs	r3, #3
 8001fc2:	e180      	b.n	80022c6 <HAL_RCC_OscConfig+0x54e>
      while (__HAL_RCC_GET_FLAG(RCC_FLAG_LSIRDY) == RESET)
 8001fc4:	4b0c      	ldr	r3, [pc, #48]	; (8001ff8 <HAL_RCC_OscConfig+0x280>)
 8001fc6:	6f5b      	ldr	r3, [r3, #116]	; 0x74
 8001fc8:	f003 0302 	and.w	r3, r3, #2
 8001fcc:	2b00      	cmp	r3, #0
 8001fce:	d0f0      	beq.n	8001fb2 <HAL_RCC_OscConfig+0x23a>
 8001fd0:	e01a      	b.n	8002008 <HAL_RCC_OscConfig+0x290>
      }
    }
    else
    {
      /* Disable the Internal Low Speed oscillator (LSI). */
      __HAL_RCC_LSI_DISABLE();
 8001fd2:	4b09      	ldr	r3, [pc, #36]	; (8001ff8 <HAL_RCC_OscConfig+0x280>)
 8001fd4:	6f5b      	ldr	r3, [r3, #116]	; 0x74
 8001fd6:	4a08      	ldr	r2, [pc, #32]	; (8001ff8 <HAL_RCC_OscConfig+0x280>)
 8001fd8:	f023 0301 	bic.w	r3, r3, #1
 8001fdc:	6753      	str	r3, [r2, #116]	; 0x74

      /* Get Start Tick*/
      tickstart = HAL_GetTick();
 8001fde:	f7fe ff73 	bl	8000ec8 <HAL_GetTick>
 8001fe2:	6138      	str	r0, [r7, #16]

      /* Wait till LSI is ready */
      while (__HAL_RCC_GET_FLAG(RCC_FLAG_LSIRDY) != RESET)
 8001fe4:	e00a      	b.n	8001ffc <HAL_RCC_OscConfig+0x284>
      {
        if ((HAL_GetTick() - tickstart) > LSI_TIMEOUT_VALUE)
 8001fe6:	f7fe ff6f 	bl	8000ec8 <HAL_GetTick>
 8001fea:	4602      	mov	r2, r0
 8001fec:	693b      	ldr	r3, [r7, #16]
 8001fee:	1ad3      	subs	r3, r2, r3
 8001ff0:	2b02      	cmp	r3, #2
 8001ff2:	d903      	bls.n	8001ffc <HAL_RCC_OscConfig+0x284>
        {
          return HAL_TIMEOUT;
 8001ff4:	2303      	movs	r3, #3
 8001ff6:	e166      	b.n	80022c6 <HAL_RCC_OscConfig+0x54e>
 8001ff8:	40023800 	.word	0x40023800
      while (__HAL_RCC_GET_FLAG(RCC_FLAG_LSIRDY) != RESET)
 8001ffc:	4b92      	ldr	r3, [pc, #584]	; (8002248 <HAL_RCC_OscConfig+0x4d0>)
 8001ffe:	6f5b      	ldr	r3, [r3, #116]	; 0x74
 8002000:	f003 0302 	and.w	r3, r3, #2
 8002004:	2b00      	cmp	r3, #0
 8002006:	d1ee      	bne.n	8001fe6 <HAL_RCC_OscConfig+0x26e>
        }
      }
    }
  }
  /*------------------------------ LSE Configuration -------------------------*/
  if (((RCC_OscInitStruct->OscillatorType) & RCC_OSCILLATORTYPE_LSE) == RCC_OSCILLATORTYPE_LSE)
 8002008:	687b      	ldr	r3, [r7, #4]
 800200a:	681b      	ldr	r3, [r3, #0]
 800200c:	f003 0304 	and.w	r3, r3, #4
 8002010:	2b00      	cmp	r3, #0
 8002012:	f000 80a4 	beq.w	800215e <HAL_RCC_OscConfig+0x3e6>
    /* Check the parameters */
    assert_param(IS_RCC_LSE(RCC_OscInitStruct->LSEState));

    /* Update LSE configuration in Backup Domain control register    */
    /* Requires to enable write access to Backup Domain of necessary */
    if (__HAL_RCC_PWR_IS_CLK_DISABLED())
 8002016:	4b8c      	ldr	r3, [pc, #560]	; (8002248 <HAL_RCC_OscConfig+0x4d0>)
 8002018:	6c1b      	ldr	r3, [r3, #64]	; 0x40
 800201a:	f003 5380 	and.w	r3, r3, #268435456	; 0x10000000
 800201e:	2b00      	cmp	r3, #0
 8002020:	d10d      	bne.n	800203e <HAL_RCC_OscConfig+0x2c6>
    {
      /* Enable Power Clock*/
      __HAL_RCC_PWR_CLK_ENABLE();
 8002022:	4b89      	ldr	r3, [pc, #548]	; (8002248 <HAL_RCC_OscConfig+0x4d0>)
 8002024:	6c1b      	ldr	r3, [r3, #64]	; 0x40
 8002026:	4a88      	ldr	r2, [pc, #544]	; (8002248 <HAL_RCC_OscConfig+0x4d0>)
 8002028:	f043 5380 	orr.w	r3, r3, #268435456	; 0x10000000
 800202c:	6413      	str	r3, [r2, #64]	; 0x40
 800202e:	4b86      	ldr	r3, [pc, #536]	; (8002248 <HAL_RCC_OscConfig+0x4d0>)
 8002030:	6c1b      	ldr	r3, [r3, #64]	; 0x40
 8002032:	f003 5380 	and.w	r3, r3, #268435456	; 0x10000000
 8002036:	60bb      	str	r3, [r7, #8]
 8002038:	68bb      	ldr	r3, [r7, #8]
      pwrclkchanged = SET;
 800203a:	2301      	movs	r3, #1
 800203c:	75fb      	strb	r3, [r7, #23]
    }

    if (HAL_IS_BIT_CLR(PWR->CR1, PWR_CR1_DBP))
 800203e:	4b83      	ldr	r3, [pc, #524]	; (800224c <HAL_RCC_OscConfig+0x4d4>)
 8002040:	681b      	ldr	r3, [r3, #0]
 8002042:	f403 7380 	and.w	r3, r3, #256	; 0x100
