Archive member included to satisfy reference by file (symbol)

d:/stm32cubeide/stm32cubeide_1.11.2/stm32cubeide/plugins/com.st.stm32cube.ide.mcu.externaltools.gnu-tools-for-stm32.10.3-2021.10.win32_1.0.100.202210260954/tools/bin/../lib/gcc/arm-none-eabi/10.3.1/../../../../arm-none-eabi/lib/thumb/v7e-m+dp/hard\libc_nano.a(lib_a-atoi.o)
                              ./Middlewares/Third_Party/LwIP/src/core/netif.o (atoi)
d:/stm32cubeide/stm32cubeide_1.11.2/stm32cubeide/plugins/com.st.stm32cube.ide.mcu.externaltools.gnu-tools-for-stm32.10.3-2021.10.win32_1.0.100.202210260954/tools/bin/../lib/gcc/arm-none-eabi/10.3.1/../../../../arm-none-eabi/lib/thumb/v7e-m+dp/hard\libc_nano.a(lib_a-ctype_.o)
                              ./Middlewares/Third_Party/LwIP/src/core/ipv4/ip4_addr.o (_ctype_)
d:/stm32cubeide/stm32cubeide_1.11.2/stm32cubeide/plugins/com.st.stm32cube.ide.mcu.externaltools.gnu-tools-for-stm32.10.3-2021.10.win32_1.0.100.202210260954/tools/bin/../lib/gcc/arm-none-eabi/10.3.1/../../../../arm-none-eabi/lib/thumb/v7e-m+dp/hard\libc_nano.a(lib_a-exit.o)
                              d:/stm32cubeide/stm32cubeide_1.11.2/stm32cubeide/plugins/com.st.stm32cube.ide.mcu.externaltools.gnu-tools-for-stm32.10.3-2021.10.win32_1.0.100.202210260954/tools/bin/../lib/gcc/arm-none-eabi/10.3.1/../../../../arm-none-eabi/lib/thumb/v7e-m+dp/hard/crt0.o (exit)
d:/stm32cubeide/stm32cubeide_1.11.2/stm32cubeide/plugins/com.st.stm32cube.ide.mcu.externaltools.gnu-tools-for-stm32.10.3-2021.10.win32_1.0.100.202210260954/tools/bin/../lib/gcc/arm-none-eabi/10.3.1/../../../../arm-none-eabi/lib/thumb/v7e-m+dp/hard\libc_nano.a(lib_a-impure.o)
                              d:/stm32cubeide/stm32cubeide_1.11.2/stm32cubeide/plugins/com.st.stm32cube.ide.mcu.externaltools.gnu-tools-for-stm32.10.3-2021.10.win32_1.0.100.202210260954/tools/bin/../lib/gcc/arm-none-eabi/10.3.1/../../../../arm-none-eabi/lib/thumb/v7e-m+dp/hard\libc_nano.a(lib_a-exit.o) (_global_impure_ptr)
d:/stm32cubeide/stm32cubeide_1.11.2/stm32cubeide/plugins/com.st.stm32cube.ide.mcu.externaltools.gnu-tools-for-stm32.10.3-2021.10.win32_1.0.100.202210260954/tools/bin/../lib/gcc/arm-none-eabi/10.3.1/../../../../arm-none-eabi/lib/thumb/v7e-m+dp/hard\libc_nano.a(lib_a-init.o)
                              d:/stm32cubeide/stm32cubeide_1.11.2/stm32cubeide/plugins/com.st.stm32cube.ide.mcu.externaltools.gnu-tools-for-stm32.10.3-2021.10.win32_1.0.100.202210260954/tools/bin/../lib/gcc/arm-none-eabi/10.3.1/../../../../arm-none-eabi/lib/thumb/v7e-m+dp/hard/crt0.o (__libc_init_array)
d:/stm32cubeide/stm32cubeide_1.11.2/stm32cubeide/plugins/com.st.stm32cube.ide.mcu.externaltools.gnu-tools-for-stm32.10.3-2021.10.win32_1.0.100.202210260954/tools/bin/../lib/gcc/arm-none-eabi/10.3.1/../../../../arm-none-eabi/lib/thumb/v7e-m+dp/hard\libc_nano.a(lib_a-memcmp.o)
                              ./Middlewares/Third_Party/LwIP/src/netif/bridgeif_fdb.o (memcmp)
d:/stm32cubeide/stm32cubeide_1.11.2/stm32cubeide/plugins/com.st.stm32cube.ide.mcu.externaltools.gnu-tools-for-stm32.10.3-2021.10.win32_1.0.100.202210260954/tools/bin/../lib/gcc/arm-none-eabi/10.3.1/../../../../arm-none-eabi/lib/thumb/v7e-m+dp/hard\libc_nano.a(lib_a-memcpy-stub.o)
                              ./Middlewares/Third_Party/LwIP/src/core/pbuf.o (memcpy)
d:/stm32cubeide/stm32cubeide_1.11.2/stm32cubeide/plugins/com.st.stm32cube.ide.mcu.externaltools.gnu-tools-for-stm32.10.3-2021.10.win32_1.0.100.202210260954/tools/bin/../lib/gcc/arm-none-eabi/10.3.1/../../../../arm-none-eabi/lib/thumb/v7e-m+dp/hard\libc_nano.a(lib_a-memmove.o)
                              ./Middlewares/Third_Party/LwIP/src/core/def.o (memmove)
d:/stm32cubeide/stm32cubeide_1.11.2/stm32cubeide/plugins/com.st.stm32cube.ide.mcu.externaltools.gnu-tools-for-stm32.10.3-2021.10.win32_1.0.100.202210260954/tools/bin/../lib/gcc/arm-none-eabi/10.3.1/../../../../arm-none-eabi/lib/thumb/v7e-m+dp/hard\libc_nano.a(lib_a-memset.o)
                              d:/stm32cubeide/stm32cubeide_1.11.2/stm32cubeide/plugins/com.st.stm32cube.ide.mcu.externaltools.gnu-tools-for-stm32.10.3-2021.10.win32_1.0.100.202210260954/tools/bin/../lib/gcc/arm-none-eabi/10.3.1/../../../../arm-none-eabi/lib/thumb/v7e-m+dp/hard/crt0.o (memset)
d:/stm32cubeide/stm32cubeide_1.11.2/stm32cubeide/plugins/com.st.stm32cube.ide.mcu.externaltools.gnu-tools-for-stm32.10.3-2021.10.win32_1.0.100.202210260954/tools/bin/../lib/gcc/arm-none-eabi/10.3.1/../../../../arm-none-eabi/lib/thumb/v7e-m+dp/hard\libc_nano.a(lib_a-printf.o)
                              ./LWIP/Target/ethernetif.o (printf)
d:/stm32cubeide/stm32cubeide_1.11.2/stm32cubeide/plugins/com.st.stm32cube.ide.mcu.externaltools.gnu-tools-for-stm32.10.3-2021.10.win32_1.0.100.202210260954/tools/bin/../lib/gcc/arm-none-eabi/10.3.1/../../../../arm-none-eabi/lib/thumb/v7e-m+dp/hard\libc_nano.a(lib_a-rand.o)
                              ./Middlewares/Third_Party/LwIP/src/core/tcp.o (rand)
d:/stm32cubeide/stm32cubeide_1.11.2/stm32cubeide/plugins/com.st.stm32cube.ide.mcu.externaltools.gnu-tools-for-stm32.10.3-2021.10.win32_1.0.100.202210260954/tools/bin/../lib/gcc/arm-none-eabi/10.3.1/../../../../arm-none-eabi/lib/thumb/v7e-m+dp/hard\libc_nano.a(lib_a-reent.o)
                              ./Core/Src/syscalls.o (errno)
d:/stm32cubeide/stm32cubeide_1.11.2/stm32cubeide/plugins/com.st.stm32cube.ide.mcu.externaltools.gnu-tools-for-stm32.10.3-2021.10.win32_1.0.100.202210260954/tools/bin/../lib/gcc/arm-none-eabi/10.3.1/../../../../arm-none-eabi/lib/thumb/v7e-m+dp/hard\libc_nano.a(lib_a-strlen.o)
                              ./Core/Src/main.o (strlen)
d:/stm32cubeide/stm32cubeide_1.11.2/stm32cubeide/plugins/com.st.stm32cube.ide.mcu.externaltools.gnu-tools-for-stm32.10.3-2021.10.win32_1.0.100.202210260954/tools/bin/../lib/gcc/arm-none-eabi/10.3.1/../../../../arm-none-eabi/lib/thumb/v7e-m+dp/hard\libc_nano.a(lib_a-strncmp.o)
                              ./LWIP/App/lwip.o (strncmp)
d:/stm32cubeide/stm32cubeide_1.11.2/stm32cubeide/plugins/com.st.stm32cube.ide.mcu.externaltools.gnu-tools-for-stm32.10.3-2021.10.win32_1.0.100.202210260954/tools/bin/../lib/gcc/arm-none-eabi/10.3.1/../../../../arm-none-eabi/lib/thumb/v7e-m+dp/hard\libc_nano.a(lib_a-strtol.o)
                              d:/stm32cubeide/stm32cubeide_1.11.2/stm32cubeide/plugins/com.st.stm32cube.ide.mcu.externaltools.gnu-tools-for-stm32.10.3-2021.10.win32_1.0.100.202210260954/tools/bin/../lib/gcc/arm-none-eabi/10.3.1/../../../../arm-none-eabi/lib/thumb/v7e-m+dp/hard\libc_nano.a(lib_a-atoi.o) (_strtol_r)
d:/stm32cubeide/stm32cubeide_1.11.2/stm32cubeide/plugins/com.st.stm32cube.ide.mcu.externaltools.gnu-tools-for-stm32.10.3-2021.10.win32_1.0.100.202210260954/tools/bin/../lib/gcc/arm-none-eabi/10.3.1/../../../../arm-none-eabi/lib/thumb/v7e-m+dp/hard\libc_nano.a(lib_a-assert.o)
                              d:/stm32cubeide/stm32cubeide_1.11.2/stm32cubeide/plugins/com.st.stm32cube.ide.mcu.externaltools.gnu-tools-for-stm32.10.3-2021.10.win32_1.0.100.202210260954/tools/bin/../lib/gcc/arm-none-eabi/10.3.1/../../../../arm-none-eabi/lib/thumb/v7e-m+dp/hard\libc_nano.a(lib_a-rand.o) (__assert_func)
d:/stm32cubeide/stm32cubeide_1.11.2/stm32cubeide/plugins/com.st.stm32cube.ide.mcu.externaltools.gnu-tools-for-stm32.10.3-2021.10.win32_1.0.100.202210260954/tools/bin/../lib/gcc/arm-none-eabi/10.3.1/../../../../arm-none-eabi/lib/thumb/v7e-m+dp/hard\libc_nano.a(lib_a-errno.o)
                              d:/stm32cubeide/stm32cubeide_1.11.2/stm32cubeide/plugins/com.st.stm32cube.ide.mcu.externaltools.gnu-tools-for-stm32.10.3-2021.10.win32_1.0.100.202210260954/tools/bin/../lib/gcc/arm-none-eabi/10.3.1/../../../../arm-none-eabi/lib/thumb/v7e-m+dp/hard\libc_nano.a(lib_a-strtol.o) (__errno)
d:/stm32cubeide/stm32cubeide_1.11.2/stm32cubeide/plugins/com.st.stm32cube.ide.mcu.externaltools.gnu-tools-for-stm32.10.3-2021.10.win32_1.0.100.202210260954/tools/bin/../lib/gcc/arm-none-eabi/10.3.1/../../../../arm-none-eabi/lib/thumb/v7e-m+dp/hard\libc_nano.a(lib_a-findfp.o)
                              d:/stm32cubeide/stm32cubeide_1.11.2/stm32cubeide/plugins/com.st.stm32cube.ide.mcu.externaltools.gnu-tools-for-stm32.10.3-2021.10.win32_1.0.100.202210260954/tools/bin/../lib/gcc/arm-none-eabi/10.3.1/../../../../arm-none-eabi/lib/thumb/v7e-m+dp/hard\libc_nano.a(lib_a-printf.o) (__sinit)
d:/stm32cubeide/stm32cubeide_1.11.2/stm32cubeide/plugins/com.st.stm32cube.ide.mcu.externaltools.gnu-tools-for-stm32.10.3-2021.10.win32_1.0.100.202210260954/tools/bin/../lib/gcc/arm-none-eabi/10.3.1/../../../../arm-none-eabi/lib/thumb/v7e-m+dp/hard\libc_nano.a(lib_a-fprintf.o)
                              d:/stm32cubeide/stm32cubeide_1.11.2/stm32cubeide/plugins/com.st.stm32cube.ide.mcu.externaltools.gnu-tools-for-stm32.10.3-2021.10.win32_1.0.100.202210260954/tools/bin/../lib/gcc/arm-none-eabi/10.3.1/../../../../arm-none-eabi/lib/thumb/v7e-m+dp/hard\libc_nano.a(lib_a-assert.o) (fiprintf)
d:/stm32cubeide/stm32cubeide_1.11.2/stm32cubeide/plugins/com.st.stm32cube.ide.mcu.externaltools.gnu-tools-for-stm32.10.3-2021.10.win32_1.0.100.202210260954/tools/bin/../lib/gcc/arm-none-eabi/10.3.1/../../../../arm-none-eabi/lib/thumb/v7e-m+dp/hard\libc_nano.a(lib_a-fwalk.o)
                              d:/stm32cubeide/stm32cubeide_1.11.2/stm32cubeide/plugins/com.st.stm32cube.ide.mcu.externaltools.gnu-tools-for-stm32.10.3-2021.10.win32_1.0.100.202210260954/tools/bin/../lib/gcc/arm-none-eabi/10.3.1/../../../../arm-none-eabi/lib/thumb/v7e-m+dp/hard\libc_nano.a(lib_a-findfp.o) (_fwalk)
d:/stm32cubeide/stm32cubeide_1.11.2/stm32cubeide/plugins/com.st.stm32cube.ide.mcu.externaltools.gnu-tools-for-stm32.10.3-2021.10.win32_1.0.100.202210260954/tools/bin/../lib/gcc/arm-none-eabi/10.3.1/../../../../arm-none-eabi/lib/thumb/v7e-m+dp/hard\libc_nano.a(lib_a-lock.o)
                              d:/stm32cubeide/stm32cubeide_1.11.2/stm32cubeide/plugins/com.st.stm32cube.ide.mcu.externaltools.gnu-tools-for-stm32.10.3-2021.10.win32_1.0.100.202210260954/tools/bin/../lib/gcc/arm-none-eabi/10.3.1/../../../../arm-none-eabi/lib/thumb/v7e-m+dp/hard\libc_nano.a(lib_a-findfp.o) (__retarget_lock_init_recursive)
d:/stm32cubeide/stm32cubeide_1.11.2/stm32cubeide/plugins/com.st.stm32cube.ide.mcu.externaltools.gnu-tools-for-stm32.10.3-2021.10.win32_1.0.100.202210260954/tools/bin/../lib/gcc/arm-none-eabi/10.3.1/../../../../arm-none-eabi/lib/thumb/v7e-m+dp/hard\libc_nano.a(lib_a-malloc.o)
                              d:/stm32cubeide/stm32cubeide_1.11.2/stm32cubeide/plugins/com.st.stm32cube.ide.mcu.externaltools.gnu-tools-for-stm32.10.3-2021.10.win32_1.0.100.202210260954/tools/bin/../lib/gcc/arm-none-eabi/10.3.1/../../../../arm-none-eabi/lib/thumb/v7e-m+dp/hard\libc_nano.a(lib_a-rand.o) (malloc)
d:/stm32cubeide/stm32cubeide_1.11.2/stm32cubeide/plugins/com.st.stm32cube.ide.mcu.externaltools.gnu-tools-for-stm32.10.3-2021.10.win32_1.0.100.202210260954/tools/bin/../lib/gcc/arm-none-eabi/10.3.1/../../../../arm-none-eabi/lib/thumb/v7e-m+dp/hard\libc_nano.a(lib_a-nano-freer.o)
                              d:/stm32cubeide/stm32cubeide_1.11.2/stm32cubeide/plugins/com.st.stm32cube.ide.mcu.externaltools.gnu-tools-for-stm32.10.3-2021.10.win32_1.0.100.202210260954/tools/bin/../lib/gcc/arm-none-eabi/10.3.1/../../../../arm-none-eabi/lib/thumb/v7e-m+dp/hard\libc_nano.a(lib_a-reent.o) (_free_r)
d:/stm32cubeide/stm32cubeide_1.11.2/stm32cubeide/plugins/com.st.stm32cube.ide.mcu.externaltools.gnu-tools-for-stm32.10.3-2021.10.win32_1.0.100.202210260954/tools/bin/../lib/gcc/arm-none-eabi/10.3.1/../../../../arm-none-eabi/lib/thumb/v7e-m+dp/hard\libc_nano.a(lib_a-nano-mallocr.o)
                              d:/stm32cubeide/stm32cubeide_1.11.2/stm32cubeide/plugins/com.st.stm32cube.ide.mcu.externaltools.gnu-tools-for-stm32.10.3-2021.10.win32_1.0.100.202210260954/tools/bin/../lib/gcc/arm-none-eabi/10.3.1/../../../../arm-none-eabi/lib/thumb/v7e-m+dp/hard\libc_nano.a(lib_a-findfp.o) (_malloc_r)
d:/stm32cubeide/stm32cubeide_1.11.2/stm32cubeide/plugins/com.st.stm32cube.ide.mcu.externaltools.gnu-tools-for-stm32.10.3-2021.10.win32_1.0.100.202210260954/tools/bin/../lib/gcc/arm-none-eabi/10.3.1/../../../../arm-none-eabi/lib/thumb/v7e-m+dp/hard\libc_nano.a(lib_a-nano-vfprintf.o)
                              d:/stm32cubeide/stm32cubeide_1.11.2/stm32cubeide/plugins/com.st.stm32cube.ide.mcu.externaltools.gnu-tools-for-stm32.10.3-2021.10.win32_1.0.100.202210260954/tools/bin/../lib/gcc/arm-none-eabi/10.3.1/../../../../arm-none-eabi/lib/thumb/v7e-m+dp/hard\libc_nano.a(lib_a-printf.o) (_vfprintf_r)
d:/stm32cubeide/stm32cubeide_1.11.2/stm32cubeide/plugins/com.st.stm32cube.ide.mcu.externaltools.gnu-tools-for-stm32.10.3-2021.10.win32_1.0.100.202210260954/tools/bin/../lib/gcc/arm-none-eabi/10.3.1/../../../../arm-none-eabi/lib/thumb/v7e-m+dp/hard\libc_nano.a(lib_a-nano-vfprintf_i.o)
                              d:/stm32cubeide/stm32cubeide_1.11.2/stm32cubeide/plugins/com.st.stm32cube.ide.mcu.externaltools.gnu-tools-for-stm32.10.3-2021.10.win32_1.0.100.202210260954/tools/bin/../lib/gcc/arm-none-eabi/10.3.1/../../../../arm-none-eabi/lib/thumb/v7e-m+dp/hard\libc_nano.a(lib_a-nano-vfprintf.o) (_printf_i)
d:/stm32cubeide/stm32cubeide_1.11.2/stm32cubeide/plugins/com.st.stm32cube.ide.mcu.externaltools.gnu-tools-for-stm32.10.3-2021.10.win32_1.0.100.202210260954/tools/bin/../lib/gcc/arm-none-eabi/10.3.1/../../../../arm-none-eabi/lib/thumb/v7e-m+dp/hard\libc_nano.a(lib_a-sbrkr.o)
                              d:/stm32cubeide/stm32cubeide_1.11.2/stm32cubeide/plugins/com.st.stm32cube.ide.mcu.externaltools.gnu-tools-for-stm32.10.3-2021.10.win32_1.0.100.202210260954/tools/bin/../lib/gcc/arm-none-eabi/10.3.1/../../../../arm-none-eabi/lib/thumb/v7e-m+dp/hard\libc_nano.a(lib_a-nano-mallocr.o) (_sbrk_r)
d:/stm32cubeide/stm32cubeide_1.11.2/stm32cubeide/plugins/com.st.stm32cube.ide.mcu.externaltools.gnu-tools-for-stm32.10.3-2021.10.win32_1.0.100.202210260954/tools/bin/../lib/gcc/arm-none-eabi/10.3.1/../../../../arm-none-eabi/lib/thumb/v7e-m+dp/hard\libc_nano.a(lib_a-stdio.o)
                              d:/stm32cubeide/stm32cubeide_1.11.2/stm32cubeide/plugins/com.st.stm32cube.ide.mcu.externaltools.gnu-tools-for-stm32.10.3-2021.10.win32_1.0.100.202210260954/tools/bin/../lib/gcc/arm-none-eabi/10.3.1/../../../../arm-none-eabi/lib/thumb/v7e-m+dp/hard\libc_nano.a(lib_a-findfp.o) (__sread)
d:/stm32cubeide/stm32cubeide_1.11.2/stm32cubeide/plugins/com.st.stm32cube.ide.mcu.externaltools.gnu-tools-for-stm32.10.3-2021.10.win32_1.0.100.202210260954/tools/bin/../lib/gcc/arm-none-eabi/10.3.1/../../../../arm-none-eabi/lib/thumb/v7e-m+dp/hard\libc_nano.a(lib_a-wbuf.o)
                              d:/stm32cubeide/stm32cubeide_1.11.2/stm32cubeide/plugins/com.st.stm32cube.ide.mcu.externaltools.gnu-tools-for-stm32.10.3-2021.10.win32_1.0.100.202210260954/tools/bin/../lib/gcc/arm-none-eabi/10.3.1/../../../../arm-none-eabi/lib/thumb/v7e-m+dp/hard\libc_nano.a(lib_a-nano-vfprintf.o) (__swbuf_r)
d:/stm32cubeide/stm32cubeide_1.11.2/stm32cubeide/plugins/com.st.stm32cube.ide.mcu.externaltools.gnu-tools-for-stm32.10.3-2021.10.win32_1.0.100.202210260954/tools/bin/../lib/gcc/arm-none-eabi/10.3.1/../../../../arm-none-eabi/lib/thumb/v7e-m+dp/hard\libc_nano.a(lib_a-writer.o)
                              d:/stm32cubeide/stm32cubeide_1.11.2/stm32cubeide/plugins/com.st.stm32cube.ide.mcu.externaltools.gnu-tools-for-stm32.10.3-2021.10.win32_1.0.100.202210260954/tools/bin/../lib/gcc/arm-none-eabi/10.3.1/../../../../arm-none-eabi/lib/thumb/v7e-m+dp/hard\libc_nano.a(lib_a-stdio.o) (_write_r)
d:/stm32cubeide/stm32cubeide_1.11.2/stm32cubeide/plugins/com.st.stm32cube.ide.mcu.externaltools.gnu-tools-for-stm32.10.3-2021.10.win32_1.0.100.202210260954/tools/bin/../lib/gcc/arm-none-eabi/10.3.1/../../../../arm-none-eabi/lib/thumb/v7e-m+dp/hard\libc_nano.a(lib_a-wsetup.o)
                              d:/stm32cubeide/stm32cubeide_1.11.2/stm32cubeide/plugins/com.st.stm32cube.ide.mcu.externaltools.gnu-tools-for-stm32.10.3-2021.10.win32_1.0.100.202210260954/tools/bin/../lib/gcc/arm-none-eabi/10.3.1/../../../../arm-none-eabi/lib/thumb/v7e-m+dp/hard\libc_nano.a(lib_a-nano-vfprintf.o) (__swsetup_r)
d:/stm32cubeide/stm32cubeide_1.11.2/stm32cubeide/plugins/com.st.stm32cube.ide.mcu.externaltools.gnu-tools-for-stm32.10.3-2021.10.win32_1.0.100.202210260954/tools/bin/../lib/gcc/arm-none-eabi/10.3.1/../../../../arm-none-eabi/lib/thumb/v7e-m+dp/hard\libc_nano.a(lib_a-abort.o)
                              d:/stm32cubeide/stm32cubeide_1.11.2/stm32cubeide/plugins/com.st.stm32cube.ide.mcu.externaltools.gnu-tools-for-stm32.10.3-2021.10.win32_1.0.100.202210260954/tools/bin/../lib/gcc/arm-none-eabi/10.3.1/../../../../arm-none-eabi/lib/thumb/v7e-m+dp/hard\libc_nano.a(lib_a-assert.o) (abort)
d:/stm32cubeide/stm32cubeide_1.11.2/stm32cubeide/plugins/com.st.stm32cube.ide.mcu.externaltools.gnu-tools-for-stm32.10.3-2021.10.win32_1.0.100.202210260954/tools/bin/../lib/gcc/arm-none-eabi/10.3.1/../../../../arm-none-eabi/lib/thumb/v7e-m+dp/hard\libc_nano.a(lib_a-closer.o)
                              d:/stm32cubeide/stm32cubeide_1.11.2/stm32cubeide/plugins/com.st.stm32cube.ide.mcu.externaltools.gnu-tools-for-stm32.10.3-2021.10.win32_1.0.100.202210260954/tools/bin/../lib/gcc/arm-none-eabi/10.3.1/../../../../arm-none-eabi/lib/thumb/v7e-m+dp/hard\libc_nano.a(lib_a-stdio.o) (_close_r)
d:/stm32cubeide/stm32cubeide_1.11.2/stm32cubeide/plugins/com.st.stm32cube.ide.mcu.externaltools.gnu-tools-for-stm32.10.3-2021.10.win32_1.0.100.202210260954/tools/bin/../lib/gcc/arm-none-eabi/10.3.1/../../../../arm-none-eabi/lib/thumb/v7e-m+dp/hard\libc_nano.a(lib_a-fflush.o)
                              d:/stm32cubeide/stm32cubeide_1.11.2/stm32cubeide/plugins/com.st.stm32cube.ide.mcu.externaltools.gnu-tools-for-stm32.10.3-2021.10.win32_1.0.100.202210260954/tools/bin/../lib/gcc/arm-none-eabi/10.3.1/../../../../arm-none-eabi/lib/thumb/v7e-m+dp/hard\libc_nano.a(lib_a-findfp.o) (_fflush_r)
d:/stm32cubeide/stm32cubeide_1.11.2/stm32cubeide/plugins/com.st.stm32cube.ide.mcu.externaltools.gnu-tools-for-stm32.10.3-2021.10.win32_1.0.100.202210260954/tools/bin/../lib/gcc/arm-none-eabi/10.3.1/../../../../arm-none-eabi/lib/thumb/v7e-m+dp/hard\libc_nano.a(lib_a-fvwrite.o)
                              d:/stm32cubeide/stm32cubeide_1.11.2/stm32cubeide/plugins/com.st.stm32cube.ide.mcu.externaltools.gnu-tools-for-stm32.10.3-2021.10.win32_1.0.100.202210260954/tools/bin/../lib/gcc/arm-none-eabi/10.3.1/../../../../arm-none-eabi/lib/thumb/v7e-m+dp/hard\libc_nano.a(lib_a-nano-vfprintf.o) (__sfvwrite_r)
d:/stm32cubeide/stm32cubeide_1.11.2/stm32cubeide/plugins/com.st.stm32cube.ide.mcu.externaltools.gnu-tools-for-stm32.10.3-2021.10.win32_1.0.100.202210260954/tools/bin/../lib/gcc/arm-none-eabi/10.3.1/../../../../arm-none-eabi/lib/thumb/v7e-m+dp/hard\libc_nano.a(lib_a-lseekr.o)
                              d:/stm32cubeide/stm32cubeide_1.11.2/stm32cubeide/plugins/com.st.stm32cube.ide.mcu.externaltools.gnu-tools-for-stm32.10.3-2021.10.win32_1.0.100.202210260954/tools/bin/../lib/gcc/arm-none-eabi/10.3.1/../../../../arm-none-eabi/lib/thumb/v7e-m+dp/hard\libc_nano.a(lib_a-stdio.o) (_lseek_r)
d:/stm32cubeide/stm32cubeide_1.11.2/stm32cubeide/plugins/com.st.stm32cube.ide.mcu.externaltools.gnu-tools-for-stm32.10.3-2021.10.win32_1.0.100.202210260954/tools/bin/../lib/gcc/arm-none-eabi/10.3.1/../../../../arm-none-eabi/lib/thumb/v7e-m+dp/hard\libc_nano.a(lib_a-makebuf.o)
                              d:/stm32cubeide/stm32cubeide_1.11.2/stm32cubeide/plugins/com.st.stm32cube.ide.mcu.externaltools.gnu-tools-for-stm32.10.3-2021.10.win32_1.0.100.202210260954/tools/bin/../lib/gcc/arm-none-eabi/10.3.1/../../../../arm-none-eabi/lib/thumb/v7e-m+dp/hard\libc_nano.a(lib_a-wsetup.o) (__smakebuf_r)
d:/stm32cubeide/stm32cubeide_1.11.2/stm32cubeide/plugins/com.st.stm32cube.ide.mcu.externaltools.gnu-tools-for-stm32.10.3-2021.10.win32_1.0.100.202210260954/tools/bin/../lib/gcc/arm-none-eabi/10.3.1/../../../../arm-none-eabi/lib/thumb/v7e-m+dp/hard\libc_nano.a(lib_a-memchr.o)
                              d:/stm32cubeide/stm32cubeide_1.11.2/stm32cubeide/plugins/com.st.stm32cube.ide.mcu.externaltools.gnu-tools-for-stm32.10.3-2021.10.win32_1.0.100.202210260954/tools/bin/../lib/gcc/arm-none-eabi/10.3.1/../../../../arm-none-eabi/lib/thumb/v7e-m+dp/hard\libc_nano.a(lib_a-nano-vfprintf.o) (memchr)
d:/stm32cubeide/stm32cubeide_1.11.2/stm32cubeide/plugins/com.st.stm32cube.ide.mcu.externaltools.gnu-tools-for-stm32.10.3-2021.10.win32_1.0.100.202210260954/tools/bin/../lib/gcc/arm-none-eabi/10.3.1/../../../../arm-none-eabi/lib/thumb/v7e-m+dp/hard\libc_nano.a(lib_a-mlock.o)
                              d:/stm32cubeide/stm32cubeide_1.11.2/stm32cubeide/plugins/com.st.stm32cube.ide.mcu.externaltools.gnu-tools-for-stm32.10.3-2021.10.win32_1.0.100.202210260954/tools/bin/../lib/gcc/arm-none-eabi/10.3.1/../../../../arm-none-eabi/lib/thumb/v7e-m+dp/hard\libc_nano.a(lib_a-nano-freer.o) (__malloc_lock)
d:/stm32cubeide/stm32cubeide_1.11.2/stm32cubeide/plugins/com.st.stm32cube.ide.mcu.externaltools.gnu-tools-for-stm32.10.3-2021.10.win32_1.0.100.202210260954/tools/bin/../lib/gcc/arm-none-eabi/10.3.1/../../../../arm-none-eabi/lib/thumb/v7e-m+dp/hard\libc_nano.a(lib_a-nano-reallocr.o)
                              d:/stm32cubeide/stm32cubeide_1.11.2/stm32cubeide/plugins/com.st.stm32cube.ide.mcu.externaltools.gnu-tools-for-stm32.10.3-2021.10.win32_1.0.100.202210260954/tools/bin/../lib/gcc/arm-none-eabi/10.3.1/../../../../arm-none-eabi/lib/thumb/v7e-m+dp/hard\libc_nano.a(lib_a-fvwrite.o) (_realloc_r)
d:/stm32cubeide/stm32cubeide_1.11.2/stm32cubeide/plugins/com.st.stm32cube.ide.mcu.externaltools.gnu-tools-for-stm32.10.3-2021.10.win32_1.0.100.202210260954/tools/bin/../lib/gcc/arm-none-eabi/10.3.1/../../../../arm-none-eabi/lib/thumb/v7e-m+dp/hard\libc_nano.a(lib_a-readr.o)
                              d:/stm32cubeide/stm32cubeide_1.11.2/stm32cubeide/plugins/com.st.stm32cube.ide.mcu.externaltools.gnu-tools-for-stm32.10.3-2021.10.win32_1.0.100.202210260954/tools/bin/../lib/gcc/arm-none-eabi/10.3.1/../../../../arm-none-eabi/lib/thumb/v7e-m+dp/hard\libc_nano.a(lib_a-stdio.o) (_read_r)
d:/stm32cubeide/stm32cubeide_1.11.2/stm32cubeide/plugins/com.st.stm32cube.ide.mcu.externaltools.gnu-tools-for-stm32.10.3-2021.10.win32_1.0.100.202210260954/tools/bin/../lib/gcc/arm-none-eabi/10.3.1/../../../../arm-none-eabi/lib/thumb/v7e-m+dp/hard\libc_nano.a(lib_a-signal.o)
                              d:/stm32cubeide/stm32cubeide_1.11.2/stm32cubeide/plugins/com.st.stm32cube.ide.mcu.externaltools.gnu-tools-for-stm32.10.3-2021.10.win32_1.0.100.202210260954/tools/bin/../lib/gcc/arm-none-eabi/10.3.1/../../../../arm-none-eabi/lib/thumb/v7e-m+dp/hard\libc_nano.a(lib_a-abort.o) (raise)
d:/stm32cubeide/stm32cubeide_1.11.2/stm32cubeide/plugins/com.st.stm32cube.ide.mcu.externaltools.gnu-tools-for-stm32.10.3-2021.10.win32_1.0.100.202210260954/tools/bin/../lib/gcc/arm-none-eabi/10.3.1/../../../../arm-none-eabi/lib/thumb/v7e-m+dp/hard\libc_nano.a(lib_a-signalr.o)
                              d:/stm32cubeide/stm32cubeide_1.11.2/stm32cubeide/plugins/com.st.stm32cube.ide.mcu.externaltools.gnu-tools-for-stm32.10.3-2021.10.win32_1.0.100.202210260954/tools/bin/../lib/gcc/arm-none-eabi/10.3.1/../../../../arm-none-eabi/lib/thumb/v7e-m+dp/hard\libc_nano.a(lib_a-signal.o) (_kill_r)
d:/stm32cubeide/stm32cubeide_1.11.2/stm32cubeide/plugins/com.st.stm32cube.ide.mcu.externaltools.gnu-tools-for-stm32.10.3-2021.10.win32_1.0.100.202210260954/tools/bin/../lib/gcc/arm-none-eabi/10.3.1/../../../../arm-none-eabi/lib/thumb/v7e-m+dp/hard\libc_nano.a(lib_a-fstatr.o)
                              d:/stm32cubeide/stm32cubeide_1.11.2/stm32cubeide/plugins/com.st.stm32cube.ide.mcu.externaltools.gnu-tools-for-stm32.10.3-2021.10.win32_1.0.100.202210260954/tools/bin/../lib/gcc/arm-none-eabi/10.3.1/../../../../arm-none-eabi/lib/thumb/v7e-m+dp/hard\libc_nano.a(lib_a-makebuf.o) (_fstat_r)
d:/stm32cubeide/stm32cubeide_1.11.2/stm32cubeide/plugins/com.st.stm32cube.ide.mcu.externaltools.gnu-tools-for-stm32.10.3-2021.10.win32_1.0.100.202210260954/tools/bin/../lib/gcc/arm-none-eabi/10.3.1/../../../../arm-none-eabi/lib/thumb/v7e-m+dp/hard\libc_nano.a(lib_a-isattyr.o)
                              d:/stm32cubeide/stm32cubeide_1.11.2/stm32cubeide/plugins/com.st.stm32cube.ide.mcu.externaltools.gnu-tools-for-stm32.10.3-2021.10.win32_1.0.100.202210260954/tools/bin/../lib/gcc/arm-none-eabi/10.3.1/../../../../arm-none-eabi/lib/thumb/v7e-m+dp/hard\libc_nano.a(lib_a-makebuf.o) (_isatty_r)
d:/stm32cubeide/stm32cubeide_1.11.2/stm32cubeide/plugins/com.st.stm32cube.ide.mcu.externaltools.gnu-tools-for-stm32.10.3-2021.10.win32_1.0.100.202210260954/tools/bin/../lib/gcc/arm-none-eabi/10.3.1/../../../../arm-none-eabi/lib/thumb/v7e-m+dp/hard\libc_nano.a(lib_a-nano-msizer.o)
                              d:/stm32cubeide/stm32cubeide_1.11.2/stm32cubeide/plugins/com.st.stm32cube.ide.mcu.externaltools.gnu-tools-for-stm32.10.3-2021.10.win32_1.0.100.202210260954/tools/bin/../lib/gcc/arm-none-eabi/10.3.1/../../../../arm-none-eabi/lib/thumb/v7e-m+dp/hard\libc_nano.a(lib_a-nano-reallocr.o) (_malloc_usable_size_r)
d:/stm32cubeide/stm32cubeide_1.11.2/stm32cubeide/plugins/com.st.stm32cube.ide.mcu.externaltools.gnu-tools-for-stm32.10.3-2021.10.win32_1.0.100.202210260954/tools/bin/../lib/gcc/arm-none-eabi/10.3.1/thumb/v7e-m+dp/hard\libgcc.a(_aeabi_uldivmod.o)
                              ./Drivers/STM32F7xx_HAL_Driver/Src/stm32f7xx_hal_rcc.o (__aeabi_uldivmod)
d:/stm32cubeide/stm32cubeide_1.11.2/stm32cubeide/plugins/com.st.stm32cube.ide.mcu.externaltools.gnu-tools-for-stm32.10.3-2021.10.win32_1.0.100.202210260954/tools/bin/../lib/gcc/arm-none-eabi/10.3.1/thumb/v7e-m+dp/hard\libgcc.a(_udivmoddi4.o)
                              d:/stm32cubeide/stm32cubeide_1.11.2/stm32cubeide/plugins/com.st.stm32cube.ide.mcu.externaltools.gnu-tools-for-stm32.10.3-2021.10.win32_1.0.100.202210260954/tools/bin/../lib/gcc/arm-none-eabi/10.3.1/thumb/v7e-m+dp/hard\libgcc.a(_aeabi_uldivmod.o) (__udivmoddi4)
d:/stm32cubeide/stm32cubeide_1.11.2/stm32cubeide/plugins/com.st.stm32cube.ide.mcu.externaltools.gnu-tools-for-stm32.10.3-2021.10.win32_1.0.100.202210260954/tools/bin/../lib/gcc/arm-none-eabi/10.3.1/thumb/v7e-m+dp/hard\libgcc.a(_dvmd_tls.o)
                              d:/stm32cubeide/stm32cubeide_1.11.2/stm32cubeide/plugins/com.st.stm32cube.ide.mcu.externaltools.gnu-tools-for-stm32.10.3-2021.10.win32_1.0.100.202210260954/tools/bin/../lib/gcc/arm-none-eabi/10.3.1/thumb/v7e-m+dp/hard\libgcc.a(_aeabi_uldivmod.o) (__aeabi_ldiv0)

Discarded input sections

 .text          0x0000000000000000        0x0 d:/stm32cubeide/stm32cubeide_1.11.2/stm32cubeide/plugins/com.st.stm32cube.ide.mcu.externaltools.gnu-tools-for-stm32.10.3-2021.10.win32_1.0.100.202210260954/tools/bin/../lib/gcc/arm-none-eabi/10.3.1/thumb/v7e-m+dp/hard/crti.o
 .data          0x0000000000000000        0x0 d:/stm32cubeide/stm32cubeide_1.11.2/stm32cubeide/plugins/com.st.stm32cube.ide.mcu.externaltools.gnu-tools-for-stm32.10.3-2021.10.win32_1.0.100.202210260954/tools/bin/../lib/gcc/arm-none-eabi/10.3.1/thumb/v7e-m+dp/hard/crti.o
 .bss           0x0000000000000000        0x0 d:/stm32cubeide/stm32cubeide_1.11.2/stm32cubeide/plugins/com.st.stm32cube.ide.mcu.externaltools.gnu-tools-for-stm32.10.3-2021.10.win32_1.0.100.202210260954/tools/bin/../lib/gcc/arm-none-eabi/10.3.1/thumb/v7e-m+dp/hard/crti.o
 .data          0x0000000000000000        0x4 d:/stm32cubeide/stm32cubeide_1.11.2/stm32cubeide/plugins/com.st.stm32cube.ide.mcu.externaltools.gnu-tools-for-stm32.10.3-2021.10.win32_1.0.100.202210260954/tools/bin/../lib/gcc/arm-none-eabi/10.3.1/thumb/v7e-m+dp/hard/crtbegin.o
 .rodata        0x0000000000000000       0x24 d:/stm32cubeide/stm32cubeide_1.11.2/stm32cubeide/plugins/com.st.stm32cube.ide.mcu.externaltools.gnu-tools-for-stm32.10.3-2021.10.win32_1.0.100.202210260954/tools/bin/../lib/gcc/arm-none-eabi/10.3.1/thumb/v7e-m+dp/hard/crtbegin.o
 .text          0x0000000000000000       0x7c d:/stm32cubeide/stm32cubeide_1.11.2/stm32cubeide/plugins/com.st.stm32cube.ide.mcu.externaltools.gnu-tools-for-stm32.10.3-2021.10.win32_1.0.100.202210260954/tools/bin/../lib/gcc/arm-none-eabi/10.3.1/../../../../arm-none-eabi/lib/thumb/v7e-m+dp/hard/crt0.o
 .data          0x0000000000000000        0x0 d:/stm32cubeide/stm32cubeide_1.11.2/stm32cubeide/plugins/com.st.stm32cube.ide.mcu.externaltools.gnu-tools-for-stm32.10.3-2021.10.win32_1.0.100.202210260954/tools/bin/../lib/gcc/arm-none-eabi/10.3.1/../../../../arm-none-eabi/lib/thumb/v7e-m+dp/hard/crt0.o
 .bss           0x0000000000000000        0x0 d:/stm32cubeide/stm32cubeide_1.11.2/stm32cubeide/plugins/com.st.stm32cube.ide.mcu.externaltools.gnu-tools-for-stm32.10.3-2021.10.win32_1.0.100.202210260954/tools/bin/../lib/gcc/arm-none-eabi/10.3.1/../../../../arm-none-eabi/lib/thumb/v7e-m+dp/hard/crt0.o
 .ARM.extab     0x0000000000000000        0x0 d:/stm32cubeide/stm32cubeide_1.11.2/stm32cubeide/plugins/com.st.stm32cube.ide.mcu.externaltools.gnu-tools-for-stm32.10.3-2021.10.win32_1.0.100.202210260954/tools/bin/../lib/gcc/arm-none-eabi/10.3.1/../../../../arm-none-eabi/lib/thumb/v7e-m+dp/hard/crt0.o
 .ARM.exidx     0x0000000000000000       0x10 d:/stm32cubeide/stm32cubeide_1.11.2/stm32cubeide/plugins/com.st.stm32cube.ide.mcu.externaltools.gnu-tools-for-stm32.10.3-2021.10.win32_1.0.100.202210260954/tools/bin/../lib/gcc/arm-none-eabi/10.3.1/../../../../arm-none-eabi/lib/thumb/v7e-m+dp/hard/crt0.o
 .ARM.attributes
                0x0000000000000000       0x1c d:/stm32cubeide/stm32cubeide_1.11.2/stm32cubeide/plugins/com.st.stm32cube.ide.mcu.externaltools.gnu-tools-for-stm32.10.3-2021.10.win32_1.0.100.202210260954/tools/bin/../lib/gcc/arm-none-eabi/10.3.1/../../../../arm-none-eabi/lib/thumb/v7e-m+dp/hard/crt0.o
 .group         0x0000000000000000        0xc ./Core/Src/dma.o
 .group         0x0000000000000000        0xc ./Core/Src/dma.o
 .group         0x0000000000000000        0xc ./Core/Src/dma.o
 .group         0x0000000000000000        0xc ./Core/Src/dma.o
 .group         0x0000000000000000        0xc ./Core/Src/dma.o
 .group         0x0000000000000000        0xc ./Core/Src/dma.o
Memory Configuration

Name             Origin             Length             Attributes
RAM              0x0000000020000000 0x0000000000080000 xrw
FLASH            0x0000000008000000 0x0000000000200000 xr
*default*        0x0000000000000000 0xffffffffffffffff

Linker script and memory map

LOAD d:/stm32cubeide/stm32cubeide_1.11.2/stm32cubeide/plugins/com.st.stm32cube.ide.mcu.externaltools.gnu-tools-for-stm32.10.3-2021.10.win32_1.0.100.202210260954/tools/bin/../lib/gcc/arm-none-eabi/10.3.1/thumb/v7e-m+dp/hard/crti.o
LOAD d:/stm32cubeide/stm32cubeide_1.11.2/stm32cubeide/plugins/com.st.stm32cube.ide.mcu.externaltools.gnu-tools-for-stm32.10.3-2021.10.win32_1.0.100.202210260954/tools/bin/../lib/gcc/arm-none-eabi/10.3.1/thumb/v7e-m+dp/hard/crtbegin.o
LOAD d:/stm32cubeide/stm32cubeide_1.11.2/stm32cubeide/plugins/com.st.stm32cube.ide.mcu.externaltools.gnu-tools-for-stm32.10.3-2021.10.win32_1.0.100.202210260954/tools/bin/../lib/gcc/arm-none-eabi/10.3.1/../../../../arm-none-eabi/lib/thumb/v7e-m+dp/hard/crt0.o
LOAD ./Core/Src/dma.o
LOAD ./Core/Src/gpio.o
LOAD ./Core/Src/main.o
LOAD ./Core/Src/stm32f7xx_hal_msp.o
LOAD ./Core/Src/stm32f7xx_it.o
LOAD ./Core/Src/syscalls.o
LOAD ./Core/Src/sysmem.o
LOAD ./Core/Src/system_stm32f7xx.o
LOAD ./Core/Src/tim.o
LOAD ./Core/Src/usart.o
LOAD ./Core/Startup/startup_stm32f767zitx.o
LOAD ./Drivers/BSP/Components/lan8742/lan8742.o
LOAD ./Drivers/STM32F7xx_HAL_Driver/Src/stm32f7xx_hal.o
LOAD ./Drivers/STM32F7xx_HAL_Driver/Src/stm32f7xx_hal_cortex.o
LOAD ./Drivers/STM32F7xx_HAL_Driver/Src/stm32f7xx_hal_dma.o
LOAD ./Drivers/STM32F7xx_HAL_Driver/Src/stm32f7xx_hal_dma_ex.o
LOAD ./Drivers/STM32F7xx_HAL_Driver/Src/stm32f7xx_hal_eth.o
LOAD ./Drivers/STM32F7xx_HAL_Driver/Src/stm32f7xx_hal_exti.o
LOAD ./Drivers/STM32F7xx_HAL_Driver/Src/stm32f7xx_hal_flash.o
LOAD ./Drivers/STM32F7xx_HAL_Driver/Src/stm32f7xx_hal_flash_ex.o
LOAD ./Drivers/STM32F7xx_HAL_Driver/Src/stm32f7xx_hal_gpio.o
LOAD ./Drivers/STM32F7xx_HAL_Driver/Src/stm32f7xx_hal_i2c.o
LOAD ./Drivers/STM32F7xx_HAL_Driver/Src/stm32f7xx_hal_i2c_ex.o
LOAD ./Drivers/STM32F7xx_HAL_Driver/Src/stm32f7xx_hal_pwr.o
LOAD ./Drivers/STM32F7xx_HAL_Driver/Src/stm32f7xx_hal_pwr_ex.o
LOAD ./Drivers/STM32F7xx_HAL_Driver/Src/stm32f7xx_hal_rcc.o
LOAD ./Drivers/STM32F7xx_HAL_Driver/Src/stm32f7xx_hal_rcc_ex.o
LOAD ./Drivers/STM32F7xx_HAL_Driver/Src/stm32f7xx_hal_tim.o
LOAD ./Drivers/STM32F7xx_HAL_Driver/Src/stm32f7xx_hal_tim_ex.o
LOAD ./Drivers/STM32F7xx_HAL_Driver/Src/stm32f7xx_hal_uart.o
LOAD ./Drivers/STM32F7xx_HAL_Driver/Src/stm32f7xx_hal_uart_ex.o
LOAD ./LWIP/App/lwip.o
LOAD ./LWIP/Target/ethernetif.o
LOAD ./Middlewares/Third_Party/LwIP/src/api/api_lib.o
LOAD ./Middlewares/Third_Party/LwIP/src/api/api_msg.o
LOAD ./Middlewares/Third_Party/LwIP/src/api/err.o
LOAD ./Middlewares/Third_Party/LwIP/src/api/if_api.o
LOAD ./Middlewares/Third_Party/LwIP/src/api/netbuf.o
LOAD ./Middlewares/Third_Party/LwIP/src/api/netdb.o
LOAD ./Middlewares/Third_Party/LwIP/src/api/netifapi.o
LOAD ./Middlewares/Third_Party/LwIP/src/api/sockets.o
LOAD ./Middlewares/Third_Party/LwIP/src/api/tcpip.o
LOAD ./Middlewares/Third_Party/LwIP/src/apps/mqtt/mqtt.o
LOAD ./Middlewares/Third_Party/LwIP/src/core/altcp.o
LOAD ./Middlewares/Third_Party/LwIP/src/core/altcp_alloc.o
LOAD ./Middlewares/Third_Party/LwIP/src/core/altcp_tcp.o
LOAD ./Middlewares/Third_Party/LwIP/src/core/def.o
LOAD ./Middlewares/Third_Party/LwIP/src/core/dns.o
LOAD ./Middlewares/Third_Party/LwIP/src/core/inet_chksum.o
LOAD ./Middlewares/Third_Party/LwIP/src/core/init.o
LOAD ./Middlewares/Third_Party/LwIP/src/core/ip.o
LOAD ./Middlewares/Third_Party/LwIP/src/core/mem.o
LOAD ./Middlewares/Third_Party/LwIP/src/core/memp.o
LOAD ./Middlewares/Third_Party/LwIP/src/core/netif.o
LOAD ./Middlewares/Third_Party/LwIP/src/core/pbuf.o
LOAD ./Middlewares/Third_Party/LwIP/src/core/raw.o
LOAD ./Middlewares/Third_Party/LwIP/src/core/stats.o
LOAD ./Middlewares/Third_Party/LwIP/src/core/sys.o
LOAD ./Middlewares/Third_Party/LwIP/src/core/tcp.o
LOAD ./Middlewares/Third_Party/LwIP/src/core/tcp_in.o
LOAD ./Middlewares/Third_Party/LwIP/src/core/tcp_out.o
LOAD ./Middlewares/Third_Party/LwIP/src/core/timeouts.o
LOAD ./Middlewares/Third_Party/LwIP/src/core/udp.o
LOAD ./Middlewares/Third_Party/LwIP/src/core/ipv4/autoip.o
LOAD ./Middlewares/Third_Party/LwIP/src/core/ipv4/dhcp.o
LOAD ./Middlewares/Third_Party/LwIP/src/core/ipv4/etharp.o
LOAD ./Middlewares/Third_Party/LwIP/src/core/ipv4/icmp.o
LOAD ./Middlewares/Third_Party/LwIP/src/core/ipv4/igmp.o
LOAD ./Middlewares/Third_Party/LwIP/src/core/ipv4/ip4.o
LOAD ./Middlewares/Third_Party/LwIP/src/core/ipv4/ip4_addr.o
LOAD ./Middlewares/Third_Party/LwIP/src/core/ipv4/ip4_frag.o
LOAD ./Middlewares/Third_Party/LwIP/src/core/ipv6/dhcp6.o
LOAD ./Middlewares/Third_Party/LwIP/src/core/ipv6/ethip6.o
LOAD ./Middlewares/Third_Party/LwIP/src/core/ipv6/icmp6.o
LOAD ./Middlewares/Third_Party/LwIP/src/core/ipv6/inet6.o
LOAD ./Middlewares/Third_Party/LwIP/src/core/ipv6/ip6.o
LOAD ./Middlewares/Third_Party/LwIP/src/core/ipv6/ip6_addr.o
LOAD ./Middlewares/Third_Party/LwIP/src/core/ipv6/ip6_frag.o
LOAD ./Middlewares/Third_Party/LwIP/src/core/ipv6/mld6.o
LOAD ./Middlewares/Third_Party/LwIP/src/core/ipv6/nd6.o
LOAD ./Middlewares/Third_Party/LwIP/src/netif/bridgeif.o
LOAD ./Middlewares/Third_Party/LwIP/src/netif/bridgeif_fdb.o
LOAD ./Middlewares/Third_Party/LwIP/src/netif/ethernet.o
LOAD ./Middlewares/Third_Party/LwIP/src/netif/lowpan6.o
LOAD ./Middlewares/Third_Party/LwIP/src/netif/lowpan6_ble.o
LOAD ./Middlewares/Third_Party/LwIP/src/netif/lowpan6_common.o
LOAD ./Middlewares/Third_Party/LwIP/src/netif/slipif.o
LOAD ./Middlewares/Third_Party/LwIP/src/netif/zepif.o
LOAD ./Middlewares/Third_Party/LwIP/src/netif/ppp/auth.o
LOAD ./Middlewares/Third_Party/LwIP/src/netif/ppp/ccp.o
LOAD ./Middlewares/Third_Party/LwIP/src/netif/ppp/chap-md5.o
LOAD ./Middlewares/Third_Party/LwIP/src/netif/ppp/chap-new.o
LOAD ./Middlewares/Third_Party/LwIP/src/netif/ppp/chap_ms.o
LOAD ./Middlewares/Third_Party/LwIP/src/netif/ppp/demand.o
LOAD ./Middlewares/Third_Party/LwIP/src/netif/ppp/eap.o
LOAD ./Middlewares/Third_Party/LwIP/src/netif/ppp/ecp.o
LOAD ./Middlewares/Third_Party/LwIP/src/netif/ppp/eui64.o
LOAD ./Middlewares/Third_Party/LwIP/src/netif/ppp/fsm.o
LOAD ./Middlewares/Third_Party/LwIP/src/netif/ppp/ipcp.o
LOAD ./Middlewares/Third_Party/LwIP/src/netif/ppp/ipv6cp.o
LOAD ./Middlewares/Third_Party/LwIP/src/netif/ppp/lcp.o
LOAD ./Middlewares/Third_Party/LwIP/src/netif/ppp/magic.o
LOAD ./Middlewares/Third_Party/LwIP/src/netif/ppp/mppe.o
LOAD ./Middlewares/Third_Party/LwIP/src/netif/ppp/multilink.o
LOAD ./Middlewares/Third_Party/LwIP/src/netif/ppp/ppp.o
LOAD ./Middlewares/Third_Party/LwIP/src/netif/ppp/pppapi.o
LOAD ./Middlewares/Third_Party/LwIP/src/netif/ppp/pppcrypt.o
LOAD ./Middlewares/Third_Party/LwIP/src/netif/ppp/pppoe.o
LOAD ./Middlewares/Third_Party/LwIP/src/netif/ppp/pppol2tp.o
LOAD ./Middlewares/Third_Party/LwIP/src/netif/ppp/pppos.o
LOAD ./Middlewares/Third_Party/LwIP/src/netif/ppp/upap.o
LOAD ./Middlewares/Third_Party/LwIP/src/netif/ppp/utils.o
LOAD ./Middlewares/Third_Party/LwIP/src/netif/ppp/vj.o
START GROUP
LOAD d:/stm32cubeide/stm32cubeide_1.11.2/stm32cubeide/plugins/com.st.stm32cube.ide.mcu.externaltools.gnu-tools-for-stm32.10.3-2021.10.win32_1.0.100.202210260954/tools/bin/../lib/gcc/arm-none-eabi/10.3.1/../../../../arm-none-eabi/lib/thumb/v7e-m+dp/hard\libc_nano.a
LOAD d:/stm32cubeide/stm32cubeide_1.11.2/stm32cubeide/plugins/com.st.stm32cube.ide.mcu.externaltools.gnu-tools-for-stm32.10.3-2021.10.win32_1.0.100.202210260954/tools/bin/../lib/gcc/arm-none-eabi/10.3.1/../../../../arm-none-eabi/lib/thumb/v7e-m+dp/hard\libm.a
END GROUP
START GROUP
LOAD d:/stm32cubeide/stm32cubeide_1.11.2/stm32cubeide/plugins/com.st.stm32cube.ide.mcu.externaltools.gnu-tools-for-stm32.10.3-2021.10.win32_1.0.100.202210260954/tools/bin/../lib/gcc/arm-none-eabi/10.3.1/thumb/v7e-m+dp/hard\libgcc.a
LOAD d:/stm32cubeide/stm32cubeide_1.11.2/stm32cubeide/plugins/com.st.stm32cube.ide.mcu.externaltools.gnu-tools-for-stm32.10.3-2021.10.win32_1.0.100.202210260954/tools/bin/../lib/gcc/arm-none-eabi/10.3.1/../../../../arm-none-eabi/lib/thumb/v7e-m+dp/hard\libc_nano.a
END GROUP
START GROUP
LOAD d:/stm32cubeide/stm32cubeide_1.11.2/stm32cubeide/plugins/com.st.stm32cube.ide.mcu.externaltools.gnu-tools-for-stm32.10.3-2021.10.win32_1.0.100.202210260954/tools/bin/../lib/gcc/arm-none-eabi/10.3.1/thumb/v7e-m+dp/hard\libgcc.a
LOAD d:/stm32cubeide/stm32cubeide_1.11.2/stm32cubeide/plugins/com.st.stm32cube.ide.mcu.externaltools.gnu-tools-for-stm32.10.3-2021.10.win32_1.0.100.202210260954/tools/bin/../lib/gcc/arm-none-eabi/10.3.1/../../../../arm-none-eabi/lib/thumb/v7e-m+dp/hard\libc_nano.a
LOAD d:/stm32cubeide/stm32cubeide_1.11.2/stm32cubeide/plugins/com.st.stm32cube.ide.mcu.externaltools.gnu-tools-for-stm32.10.3-2021.10.win32_1.0.100.202210260954/tools/bin/../lib/gcc/arm-none-eabi/10.3.1/../../../../arm-none-eabi/lib/thumb/v7e-m+dp/hard\libnosys.a
END GROUP
START GROUP
LOAD d:/stm32cubeide/stm32cubeide_1.11.2/stm32cubeide/plugins/com.st.stm32cube.ide.mcu.externaltools.gnu-tools-for-stm32.10.3-2021.10.win32_1.0.100.202210260954/tools/bin/../lib/gcc/arm-none-eabi/10.3.1/thumb/v7e-m+dp/hard\libgcc.a
LOAD d:/stm32cubeide/stm32cubeide_1.11.2/stm32cubeide/plugins/com.st.stm32cube.ide.mcu.externaltools.gnu-tools-for-stm32.10.3-2021.10.win32_1.0.100.202210260954/tools/bin/../lib/gcc/arm-none-eabi/10.3.1/../../../../arm-none-eabi/lib/thumb/v7e-m+dp/hard\libc_nano.a
LOAD d:/stm32cubeide/stm32cubeide_1.11.2/stm32cubeide/plugins/com.st.stm32cube.ide.mcu.externaltools.gnu-tools-for-stm32.10.3-2021.10.win32_1.0.100.202210260954/tools/bin/../lib/gcc/arm-none-eabi/10.3.1/../../../../arm-none-eabi/lib/thumb/v7e-m+dp/hard\libnosys.a
END GROUP
LOAD d:/stm32cubeide/stm32cubeide_1.11.2/stm32cubeide/plugins/com.st.stm32cube.ide.mcu.externaltools.gnu-tools-for-stm32.10.3-2021.10.win32_1.0.100.202210260954/tools/bin/../lib/gcc/arm-none-eabi/10.3.1/thumb/v7e-m+dp/hard/crtend.o
LOAD d:/stm32cubeide/stm32cubeide_1.11.2/stm32cubeide/plugins/com.st.stm32cube.ide.mcu.externaltools.gnu-tools-for-stm32.10.3-2021.10.win32_1.0.100.202210260954/tools/bin/../lib/gcc/arm-none-eabi/10.3.1/thumb/v7e-m+dp/hard/crtn.o
                0x0000000020080000                _estack = (ORIGIN (RAM) + LENGTH (RAM))
                0x0000000000000200                _Min_Heap_Size = 0x200
                0x0000000000000400                _Min_Stack_Size = 0x400

.isr_vector     0x0000000008000000      0x1f8
                0x0000000008000000                . = ALIGN (0x4)
 *(.isr_vector)
 .isr_vector    0x0000000008000000      0x1f8 ./Core/Startup/startup_stm32f767zitx.o
                0x0000000008000000                g_pfnVectors
                0x00000000080001f8                . = ALIGN (0x4)

.text           0x0000000008000200    0x144e4
                0x0000000008000200                . = ALIGN (0x4)
 *(.text)
 .text          0x0000000008000200       0x40 d:/stm32cubeide/stm32cubeide_1.11.2/stm32cubeide/plugins/com.st.stm32cube.ide.mcu.externaltools.gnu-tools-for-stm32.10.3-2021.10.win32_1.0.100.202210260954/tools/bin/../lib/gcc/arm-none-eabi/10.3.1/thumb/v7e-m+dp/hard/crtbegin.o
 .text          0x0000000008000240       0x10 d:/stm32cubeide/stm32cubeide_1.11.2/stm32cubeide/plugins/com.st.stm32cube.ide.mcu.externaltools.gnu-tools-for-stm32.10.3-2021.10.win32_1.0.100.202210260954/tools/bin/../lib/gcc/arm-none-eabi/10.3.1/../../../../arm-none-eabi/lib/thumb/v7e-m+dp/hard\libc_nano.a(lib_a-strlen.o)
                0x0000000008000240                strlen
 .text          0x0000000008000250       0xa0 d:/stm32cubeide/stm32cubeide_1.11.2/stm32cubeide/plugins/com.st.stm32cube.ide.mcu.externaltools.gnu-tools-for-stm32.10.3-2021.10.win32_1.0.100.202210260954/tools/bin/../lib/gcc/arm-none-eabi/10.3.1/../../../../arm-none-eabi/lib/thumb/v7e-m+dp/hard\libc_nano.a(lib_a-memchr.o)
                0x0000000008000250                memchr
 .text          0x00000000080002f0       0x30 d:/stm32cubeide/stm32cubeide_1.11.2/stm32cubeide/plugins/com.st.stm32cube.ide.mcu.externaltools.gnu-tools-for-stm32.10.3-2021.10.win32_1.0.100.202210260954/tools/bin/../lib/gcc/arm-none-eabi/10.3.1/thumb/v7e-m+dp/hard\libgcc.a(_aeabi_uldivmod.o)
                0x00000000080002f0                __aeabi_uldivmod
 .text          0x0000000008000320      0x2d0 d:/stm32cubeide/stm32cubeide_1.11.2/stm32cubeide/plugins/com.st.stm32cube.ide.mcu.externaltools.gnu-tools-for-stm32.10.3-2021.10.win32_1.0.100.202210260954/tools/bin/../lib/gcc/arm-none-eabi/10.3.1/thumb/v7e-m+dp/hard\libgcc.a(_udivmoddi4.o)
                0x0000000008000320                __udivmoddi4
 .text          0x00000000080005f0        0x4 d:/stm32cubeide/stm32cubeide_1.11.2/stm32cubeide/plugins/com.st.stm32cube.ide.mcu.externaltools.gnu-tools-for-stm32.10.3-2021.10.win32_1.0.100.202210260954/tools/bin/../lib/gcc/arm-none-eabi/10.3.1/thumb/v7e-m+dp/hard\libgcc.a(_dvmd_tls.o)
                0x00000000080005f0                __aeabi_idiv0
                0x00000000080005f0                __aeabi_ldiv0
 *(.text*)
 .text.MX_DMA_Init
                0x00000000080005f4       0x3c ./Core/Src/dma.o
                0x00000000080005f4                MX_DMA_Init
 .text.MX_GPIO_Init
                0x0000000008000630      0x1f8 ./Core/Src/gpio.o
                0x0000000008000630                MX_GPIO_Init
 .text.main     0x0000000008000828       0xc4 ./Core/Src/main.o
                0x0000000008000828                main
 .text.SystemClock_Config
                0x00000000080008ec       0xdc ./Core/Src/main.o
                0x00000000080008ec                SystemClock_Config
 .text.Error_Handler
                0x00000000080009c8        0xa ./Core/Src/main.o
                0x00000000080009c8                Error_Handler
 *fill*         0x00000000080009d2        0x2 
 .text.HAL_MspInit
                0x00000000080009d4       0x48 ./Core/Src/stm32f7xx_hal_msp.o
                0x00000000080009d4                HAL_MspInit
 .text.NMI_Handler
                0x0000000008000a1c        0x6 ./Core/Src/stm32f7xx_it.o
                0x0000000008000a1c                NMI_Handler
 .text.HardFault_Handler
                0x0000000008000a22        0x6 ./Core/Src/stm32f7xx_it.o
                0x0000000008000a22                HardFault_Handler
 .text.MemManage_Handler
                0x0000000008000a28        0x6 ./Core/Src/stm32f7xx_it.o
                0x0000000008000a28                MemManage_Handler
 .text.BusFault_Handler
                0x0000000008000a2e        0x6 ./Core/Src/stm32f7xx_it.o
                0x0000000008000a2e                BusFault_Handler
 .text.UsageFault_Handler
                0x0000000008000a34        0x6 ./Core/Src/stm32f7xx_it.o
                0x0000000008000a34                UsageFault_Handler
 .text.SVC_Handler
                0x0000000008000a3a        0xe ./Core/Src/stm32f7xx_it.o
                0x0000000008000a3a                SVC_Handler
 .text.DebugMon_Handler
                0x0000000008000a48        0xe ./Core/Src/stm32f7xx_it.o
                0x0000000008000a48                DebugMon_Handler
 .text.PendSV_Handler
                0x0000000008000a56        0xe ./Core/Src/stm32f7xx_it.o
                0x0000000008000a56                PendSV_Handler
 .text.SysTick_Handler
                0x0000000008000a64        0xc ./Core/Src/stm32f7xx_it.o
                0x0000000008000a64                SysTick_Handler
 .text.DMA1_Stream1_IRQHandler
                0x0000000008000a70       0x14 ./Core/Src/stm32f7xx_it.o
                0x0000000008000a70                DMA1_Stream1_IRQHandler
 .text.USART3_IRQHandler
                0x0000000008000a84       0x14 ./Core/Src/stm32f7xx_it.o
                0x0000000008000a84                USART3_IRQHandler
 .text.ETH_IRQHandler
                0x0000000008000a98       0x14 ./Core/Src/stm32f7xx_it.o
                0x0000000008000a98                ETH_IRQHandler
 .text._getpid  0x0000000008000aac       0x10 ./Core/Src/syscalls.o
                0x0000000008000aac                _getpid
 .text._kill    0x0000000008000abc       0x24 ./Core/Src/syscalls.o
                0x0000000008000abc                _kill
 .text._exit    0x0000000008000ae0       0x14 ./Core/Src/syscalls.o
                0x0000000008000ae0                _exit
 .text._read    0x0000000008000af4       0x3a ./Core/Src/syscalls.o
                0x0000000008000af4                _read
 .text._write   0x0000000008000b2e       0x38 ./Core/Src/syscalls.o
                0x0000000008000b2e                _write
 .text._close   0x0000000008000b66       0x18 ./Core/Src/syscalls.o
                0x0000000008000b66                _close
 .text._fstat   0x0000000008000b7e       0x20 ./Core/Src/syscalls.o
                0x0000000008000b7e                _fstat
 .text._isatty  0x0000000008000b9e       0x16 ./Core/Src/syscalls.o
                0x0000000008000b9e                _isatty
 .text._lseek   0x0000000008000bb4       0x1a ./Core/Src/syscalls.o
                0x0000000008000bb4                _lseek
 *fill*         0x0000000008000bce        0x2 
 .text._sbrk    0x0000000008000bd0       0x70 ./Core/Src/sysmem.o
                0x0000000008000bd0                _sbrk
 .text.SystemInit
                0x0000000008000c40       0x24 ./Core/Src/system_stm32f7xx.o
                0x0000000008000c40                SystemInit
 .text.MX_TIM2_Init
                0x0000000008000c64       0x9c ./Core/Src/tim.o
                0x0000000008000c64                MX_TIM2_Init
 .text.HAL_TIM_Base_MspInit
                0x0000000008000d00       0x3c ./Core/Src/tim.o
                0x0000000008000d00                HAL_TIM_Base_MspInit
 .text.CMY_TIM_ENABLE
                0x0000000008000d3c       0x14 ./Core/Src/tim.o
                0x0000000008000d3c                CMY_TIM_ENABLE
 .text.CMY_cycle
                0x0000000008000d50       0x44 ./Core/Src/tim.o
                0x0000000008000d50                CMY_cycle
 .text.MX_USART3_UART_Init
                0x0000000008000d94       0x60 ./Core/Src/usart.o
                0x0000000008000d94                MX_USART3_UART_Init
 .text.HAL_UART_MspInit
                0x0000000008000df4      0x138 ./Core/Src/usart.o
                0x0000000008000df4                HAL_UART_MspInit
 .text.CMY_UART_RX_ENABLE
                0x0000000008000f2c       0x1c ./Core/Src/usart.o
                0x0000000008000f2c                CMY_UART_RX_ENABLE
 .text.CMY_UART_TX
                0x0000000008000f48       0x28 ./Core/Src/usart.o
                0x0000000008000f48                CMY_UART_TX
 .text.HAL_UART_RxCpltCallback
                0x0000000008000f70       0x34 ./Core/Src/usart.o
                0x0000000008000f70                HAL_UART_RxCpltCallback
 .text.HAL_UART_ErrorCallback
                0x0000000008000fa4       0x2c ./Core/Src/usart.o
                0x0000000008000fa4                HAL_UART_ErrorCallback
 .text.getCmd   0x0000000008000fd0       0x28 ./Core/Src/usart.o
                0x0000000008000fd0                getCmd
 .text.Reset_Handler
                0x0000000008000ff8       0x50 ./Core/Startup/startup_stm32f767zitx.o
                0x0000000008000ff8                Reset_Handler
 .text.Default_Handler
                0x0000000008001048        0x2 ./Core/Startup/startup_stm32f767zitx.o
                0x0000000008001048                RTC_Alarm_IRQHandler
                0x0000000008001048                EXTI2_IRQHandler
                0x0000000008001048                TIM8_CC_IRQHandler
                0x0000000008001048                UART8_IRQHandler
                0x0000000008001048                SPI4_IRQHandler
                0x0000000008001048                TIM1_CC_IRQHandler
                0x0000000008001048                DMA2_Stream5_IRQHandler
                0x0000000008001048                JPEG_IRQHandler
                0x0000000008001048                DMA1_Stream5_IRQHandler
                0x0000000008001048                CAN3_RX1_IRQHandler
                0x0000000008001048                PVD_IRQHandler
                0x0000000008001048                TAMP_STAMP_IRQHandler
                0x0000000008001048                CAN2_RX1_IRQHandler
                0x0000000008001048                EXTI3_IRQHandler
                0x0000000008001048                TIM8_TRG_COM_TIM14_IRQHandler
                0x0000000008001048                DFSDM1_FLT1_IRQHandler
                0x0000000008001048                TIM1_UP_TIM10_IRQHandler
                0x0000000008001048                TIM8_UP_TIM13_IRQHandler
                0x0000000008001048                I2C3_ER_IRQHandler
                0x0000000008001048                DFSDM1_FLT2_IRQHandler
                0x0000000008001048                EXTI0_IRQHandler
                0x0000000008001048                I2C2_EV_IRQHandler
                0x0000000008001048                DMA1_Stream2_IRQHandler
                0x0000000008001048                CAN1_RX0_IRQHandler
                0x0000000008001048                FPU_IRQHandler
                0x0000000008001048                OTG_HS_WKUP_IRQHandler
                0x0000000008001048                CAN3_SCE_IRQHandler
                0x0000000008001048                LTDC_ER_IRQHandler
                0x0000000008001048                CAN2_SCE_IRQHandler
                0x0000000008001048                DMA2_Stream2_IRQHandler
                0x0000000008001048                SPI1_IRQHandler
                0x0000000008001048                TIM6_DAC_IRQHandler
                0x0000000008001048                TIM1_BRK_TIM9_IRQHandler
                0x0000000008001048                DCMI_IRQHandler
                0x0000000008001048                CAN2_RX0_IRQHandler
                0x0000000008001048                DMA2_Stream3_IRQHandler
                0x0000000008001048                SAI2_IRQHandler
                0x0000000008001048                DFSDM1_FLT3_IRQHandler
                0x0000000008001048                USART6_IRQHandler
                0x0000000008001048                CAN3_RX0_IRQHandler
                0x0000000008001048                CAN1_RX1_IRQHandler
                0x0000000008001048                UART5_IRQHandler
                0x0000000008001048                DMA2_Stream0_IRQHandler
                0x0000000008001048                TIM4_IRQHandler
                0x0000000008001048                QUADSPI_IRQHandler
                0x0000000008001048                I2C1_EV_IRQHandler
                0x0000000008001048                DMA1_Stream6_IRQHandler
                0x0000000008001048                UART4_IRQHandler
                0x0000000008001048                TIM3_IRQHandler
                0x0000000008001048                RCC_IRQHandler
                0x0000000008001048                TIM8_BRK_TIM12_IRQHandler
                0x0000000008001048                Default_Handler
                0x0000000008001048                CEC_IRQHandler
                0x0000000008001048                EXTI15_10_IRQHandler
                0x0000000008001048                ADC_IRQHandler
                0x0000000008001048                DMA1_Stream7_IRQHandler
                0x0000000008001048                SPI5_IRQHandler
                0x0000000008001048                TIM7_IRQHandler
                0x0000000008001048                SDMMC1_IRQHandler
                0x0000000008001048                CAN2_TX_IRQHandler
                0x0000000008001048                TIM5_IRQHandler
                0x0000000008001048                DMA2_Stream7_IRQHandler
                0x0000000008001048                I2C3_EV_IRQHandler
                0x0000000008001048                EXTI9_5_IRQHandler
                0x0000000008001048                RTC_WKUP_IRQHandler
                0x0000000008001048                LTDC_IRQHandler
                0x0000000008001048                ETH_WKUP_IRQHandler
                0x0000000008001048                SPDIF_RX_IRQHandler
                0x0000000008001048                SPI2_IRQHandler
                0x0000000008001048                OTG_HS_EP1_IN_IRQHandler
                0x0000000008001048                DMA1_Stream0_IRQHandler
                0x0000000008001048                CAN1_TX_IRQHandler
                0x0000000008001048                EXTI4_IRQHandler
                0x0000000008001048                RNG_IRQHandler
                0x0000000008001048                OTG_HS_EP1_OUT_IRQHandler
                0x0000000008001048                WWDG_IRQHandler
                0x0000000008001048                SPI6_IRQHandler
                0x0000000008001048                MDIOS_IRQHandler
                0x0000000008001048                I2C4_EV_IRQHandler
                0x0000000008001048                CAN3_TX_IRQHandler
                0x0000000008001048                TIM2_IRQHandler
                0x0000000008001048                OTG_FS_WKUP_IRQHandler
                0x0000000008001048                TIM1_TRG_COM_TIM11_IRQHandler
                0x0000000008001048                OTG_HS_IRQHandler
                0x0000000008001048                DMA2D_IRQHandler
                0x0000000008001048                EXTI1_IRQHandler
                0x0000000008001048                SDMMC2_IRQHandler
                0x0000000008001048                UART7_IRQHandler
                0x0000000008001048                USART2_IRQHandler
                0x0000000008001048                DFSDM1_FLT0_IRQHandler
                0x0000000008001048                I2C2_ER_IRQHandler
                0x0000000008001048                DMA2_Stream1_IRQHandler
                0x0000000008001048                CAN1_SCE_IRQHandler
                0x0000000008001048                FLASH_IRQHandler
                0x0000000008001048                DMA2_Stream4_IRQHandler
                0x0000000008001048                USART1_IRQHandler
                0x0000000008001048                OTG_FS_IRQHandler
                0x0000000008001048                SPI3_IRQHandler
                0x0000000008001048                DMA1_Stream4_IRQHandler
                0x0000000008001048                I2C1_ER_IRQHandler
                0x0000000008001048                FMC_IRQHandler
                0x0000000008001048                LPTIM1_IRQHandler
                0x0000000008001048                I2C4_ER_IRQHandler
                0x0000000008001048                DMA2_Stream6_IRQHandler
                0x0000000008001048                SAI1_IRQHandler
                0x0000000008001048                DMA1_Stream3_IRQHandler
 .text.LAN8742_RegisterBusIO
                0x000000000800104a       0x64 ./Drivers/BSP/Components/lan8742/lan8742.o
                0x000000000800104a                LAN8742_RegisterBusIO
 .text.LAN8742_Init
                0x00000000080010ae       0x9a ./Drivers/BSP/Components/lan8742/lan8742.o
                0x00000000080010ae                LAN8742_Init
 .text.LAN8742_GetLinkState
                0x0000000008001148      0x10e ./Drivers/BSP/Components/lan8742/lan8742.o
                0x0000000008001148                LAN8742_GetLinkState
 .text.HAL_Init
                0x0000000008001256       0x1a ./Drivers/STM32F7xx_HAL_Driver/Src/stm32f7xx_hal.o
                0x0000000008001256                HAL_Init
 .text.HAL_InitTick
                0x0000000008001270       0x60 ./Drivers/STM32F7xx_HAL_Driver/Src/stm32f7xx_hal.o
                0x0000000008001270                HAL_InitTick
 .text.HAL_IncTick
                0x00000000080012d0       0x28 ./Drivers/STM32F7xx_HAL_Driver/Src/stm32f7xx_hal.o
                0x00000000080012d0                HAL_IncTick
 .text.HAL_GetTick
                0x00000000080012f8       0x18 ./Drivers/STM32F7xx_HAL_Driver/Src/stm32f7xx_hal.o
                0x00000000080012f8                HAL_GetTick
 .text.HAL_Delay
                0x0000000008001310       0x48 ./Drivers/STM32F7xx_HAL_Driver/Src/stm32f7xx_hal.o
                0x0000000008001310                HAL_Delay
 .text.__NVIC_SetPriorityGrouping
                0x0000000008001358       0x48 ./Drivers/STM32F7xx_HAL_Driver/Src/stm32f7xx_hal_cortex.o
 .text.__NVIC_GetPriorityGrouping
                0x00000000080013a0       0x1c ./Drivers/STM32F7xx_HAL_Driver/Src/stm32f7xx_hal_cortex.o
 .text.__NVIC_EnableIRQ
                0x00000000080013bc       0x3c ./Drivers/STM32F7xx_HAL_Driver/Src/stm32f7xx_hal_cortex.o
 .text.__NVIC_SetPriority
                0x00000000080013f8       0x54 ./Drivers/STM32F7xx_HAL_Driver/Src/stm32f7xx_hal_cortex.o
 .text.NVIC_EncodePriority
                0x000000000800144c       0x66 ./Drivers/STM32F7xx_HAL_Driver/Src/stm32f7xx_hal_cortex.o
 *fill*         0x00000000080014b2        0x2 
 .text.SysTick_Config
                0x00000000080014b4       0x44 ./Drivers/STM32F7xx_HAL_Driver/Src/stm32f7xx_hal_cortex.o
 .text.HAL_NVIC_SetPriorityGrouping
                0x00000000080014f8       0x16 ./Drivers/STM32F7xx_HAL_Driver/Src/stm32f7xx_hal_cortex.o
                0x00000000080014f8                HAL_NVIC_SetPriorityGrouping
 .text.HAL_NVIC_SetPriority
                0x000000000800150e       0x38 ./Drivers/STM32F7xx_HAL_Driver/Src/stm32f7xx_hal_cortex.o
                0x000000000800150e                HAL_NVIC_SetPriority
 .text.HAL_NVIC_EnableIRQ
                0x0000000008001546       0x1c ./Drivers/STM32F7xx_HAL_Driver/Src/stm32f7xx_hal_cortex.o
                0x0000000008001546                HAL_NVIC_EnableIRQ
 .text.HAL_SYSTICK_Config
                0x0000000008001562       0x18 ./Drivers/STM32F7xx_HAL_Driver/Src/stm32f7xx_hal_cortex.o
                0x0000000008001562                HAL_SYSTICK_Config
 *fill*         0x000000000800157a        0x2 
 .text.HAL_DMA_Init
                0x000000000800157c      0x15c ./Drivers/STM32F7xx_HAL_Driver/Src/stm32f7xx_hal_dma.o
                0x000000000800157c                HAL_DMA_Init
 .text.HAL_DMA_Start_IT
                0x00000000080016d8       0xc0 ./Drivers/STM32F7xx_HAL_Driver/Src/stm32f7xx_hal_dma.o
                0x00000000080016d8                HAL_DMA_Start_IT
 .text.HAL_DMA_Abort
                0x0000000008001798       0xe0 ./Drivers/STM32F7xx_HAL_Driver/Src/stm32f7xx_hal_dma.o
                0x0000000008001798                HAL_DMA_Abort
 .text.HAL_DMA_Abort_IT
                0x0000000008001878       0x44 ./Drivers/STM32F7xx_HAL_Driver/Src/stm32f7xx_hal_dma.o
                0x0000000008001878                HAL_DMA_Abort_IT
 .text.HAL_DMA_IRQHandler
                0x00000000080018bc      0x314 ./Drivers/STM32F7xx_HAL_Driver/Src/stm32f7xx_hal_dma.o
                0x00000000080018bc                HAL_DMA_IRQHandler
 .text.DMA_SetConfig
                0x0000000008001bd0       0x5c ./Drivers/STM32F7xx_HAL_Driver/Src/stm32f7xx_hal_dma.o
 .text.DMA_CalcBaseAndBitshift
                0x0000000008001c2c       0x6c ./Drivers/STM32F7xx_HAL_Driver/Src/stm32f7xx_hal_dma.o
 .text.DMA_CheckFifoParam
                0x0000000008001c98       0xf8 ./Drivers/STM32F7xx_HAL_Driver/Src/stm32f7xx_hal_dma.o
 .text.HAL_ETH_Init
                0x0000000008001d90      0x134 ./Drivers/STM32F7xx_HAL_Driver/Src/stm32f7xx_hal_eth.o
                0x0000000008001d90                HAL_ETH_Init
 .text.HAL_ETH_Start
                0x0000000008001ec4       0xbe ./Drivers/STM32F7xx_HAL_Driver/Src/stm32f7xx_hal_eth.o
                0x0000000008001ec4                HAL_ETH_Start
 .text.HAL_ETH_Stop
                0x0000000008001f82       0xb2 ./Drivers/STM32F7xx_HAL_Driver/Src/stm32f7xx_hal_eth.o
                0x0000000008001f82                HAL_ETH_Stop
 .text.HAL_ETH_Transmit
                0x0000000008002034      0x128 ./Drivers/STM32F7xx_HAL_Driver/Src/stm32f7xx_hal_eth.o
                0x0000000008002034                HAL_ETH_Transmit
 .text.HAL_ETH_ReadData
                0x000000000800215c      0x17e ./Drivers/STM32F7xx_HAL_Driver/Src/stm32f7xx_hal_eth.o
                0x000000000800215c                HAL_ETH_ReadData
 *fill*         0x00000000080022da        0x2 
 .text.ETH_UpdateDescriptor
                0x00000000080022dc      0x108 ./Drivers/STM32F7xx_HAL_Driver/Src/stm32f7xx_hal_eth.o
 .text.HAL_ETH_IRQHandler
                0x00000000080023e4      0x164 ./Drivers/STM32F7xx_HAL_Driver/Src/stm32f7xx_hal_eth.o
                0x00000000080023e4                HAL_ETH_IRQHandler
 .text.HAL_ETH_TxCpltCallback
                0x0000000008002548       0x14 ./Drivers/STM32F7xx_HAL_Driver/Src/stm32f7xx_hal_eth.o
                0x0000000008002548                HAL_ETH_TxCpltCallback
 .text.HAL_ETH_RxCpltCallback
                0x000000000800255c       0x14 ./Drivers/STM32F7xx_HAL_Driver/Src/stm32f7xx_hal_eth.o
                0x000000000800255c                HAL_ETH_RxCpltCallback
 .text.HAL_ETH_ErrorCallback
                0x0000000008002570       0x14 ./Drivers/STM32F7xx_HAL_Driver/Src/stm32f7xx_hal_eth.o
                0x0000000008002570                HAL_ETH_ErrorCallback
 .text.HAL_ETH_PMTCallback
                0x0000000008002584       0x14 ./Drivers/STM32F7xx_HAL_Driver/Src/stm32f7xx_hal_eth.o
                0x0000000008002584                HAL_ETH_PMTCallback
 .text.HAL_ETH_WakeUpCallback
                0x0000000008002598       0x14 ./Drivers/STM32F7xx_HAL_Driver/Src/stm32f7xx_hal_eth.o
                0x0000000008002598                HAL_ETH_WakeUpCallback
 .text.HAL_ETH_ReadPHYRegister
                0x00000000080025ac       0x96 ./Drivers/STM32F7xx_HAL_Driver/Src/stm32f7xx_hal_eth.o
                0x00000000080025ac                HAL_ETH_ReadPHYRegister
 .text.HAL_ETH_WritePHYRegister
                0x0000000008002642       0x92 ./Drivers/STM32F7xx_HAL_Driver/Src/stm32f7xx_hal_eth.o
                0x0000000008002642                HAL_ETH_WritePHYRegister
 .text.HAL_ETH_GetMACConfig
                0x00000000080026d4      0x1ee ./Drivers/STM32F7xx_HAL_Driver/Src/stm32f7xx_hal_eth.o
                0x00000000080026d4                HAL_ETH_GetMACConfig
 .text.HAL_ETH_SetMACConfig
                0x00000000080028c2       0x34 ./Drivers/STM32F7xx_HAL_Driver/Src/stm32f7xx_hal_eth.o
                0x00000000080028c2                HAL_ETH_SetMACConfig
 *fill*         0x00000000080028f6        0x2 
 .text.HAL_ETH_SetMDIOClockRange
                0x00000000080028f8       0x84 ./Drivers/STM32F7xx_HAL_Driver/Src/stm32f7xx_hal_eth.o
                0x00000000080028f8                HAL_ETH_SetMDIOClockRange
 .text.ETH_FlushTransmitFIFO
                0x000000000800297c       0x4a ./Drivers/STM32F7xx_HAL_Driver/Src/stm32f7xx_hal_eth.o
 *fill*         0x00000000080029c6        0x2 
 .text.ETH_SetMACConfig
                0x00000000080029c8      0x168 ./Drivers/STM32F7xx_HAL_Driver/Src/stm32f7xx_hal_eth.o
 .text.ETH_SetDMAConfig
                0x0000000008002b30      0x114 ./Drivers/STM32F7xx_HAL_Driver/Src/stm32f7xx_hal_eth.o
 .text.ETH_MACDMAConfig
                0x0000000008002c44       0xea ./Drivers/STM32F7xx_HAL_Driver/Src/stm32f7xx_hal_eth.o
 *fill*         0x0000000008002d2e        0x2 
 .text.ETH_MACAddressConfig
                0x0000000008002d30       0x70 ./Drivers/STM32F7xx_HAL_Driver/Src/stm32f7xx_hal_eth.o
 .text.ETH_DMATxDescListInit
                0x0000000008002da0       0xb2 ./Drivers/STM32F7xx_HAL_Driver/Src/stm32f7xx_hal_eth.o
 .text.ETH_DMARxDescListInit
                0x0000000008002e52       0xde ./Drivers/STM32F7xx_HAL_Driver/Src/stm32f7xx_hal_eth.o
 .text.ETH_Prepare_Tx_Descriptors
                0x0000000008002f30      0x28c ./Drivers/STM32F7xx_HAL_Driver/Src/stm32f7xx_hal_eth.o
 .text.HAL_GPIO_Init
                0x00000000080031bc      0x358 ./Drivers/STM32F7xx_HAL_Driver/Src/stm32f7xx_hal_gpio.o
                0x00000000080031bc                HAL_GPIO_Init
 .text.HAL_GPIO_WritePin
                0x0000000008003514       0x32 ./Drivers/STM32F7xx_HAL_Driver/Src/stm32f7xx_hal_gpio.o
                0x0000000008003514                HAL_GPIO_WritePin
 *fill*         0x0000000008003546        0x2 
 .text.HAL_PWREx_EnableOverDrive
                0x0000000008003548       0xa0 ./Drivers/STM32F7xx_HAL_Driver/Src/stm32f7xx_hal_pwr_ex.o
                0x0000000008003548                HAL_PWREx_EnableOverDrive
 .text.HAL_RCC_OscConfig
                0x00000000080035e8      0x55c ./Drivers/STM32F7xx_HAL_Driver/Src/stm32f7xx_hal_rcc.o
                0x00000000080035e8                HAL_RCC_OscConfig
 .text.HAL_RCC_ClockConfig
                0x0000000008003b44      0x1d8 ./Drivers/STM32F7xx_HAL_Driver/Src/stm32f7xx_hal_rcc.o
                0x0000000008003b44                HAL_RCC_ClockConfig
 .text.HAL_RCC_GetSysClockFreq
                0x0000000008003d1c      0x18c ./Drivers/STM32F7xx_HAL_Driver/Src/stm32f7xx_hal_rcc.o
                0x0000000008003d1c                HAL_RCC_GetSysClockFreq
 .text.HAL_RCC_GetHCLKFreq
                0x0000000008003ea8       0x18 ./Drivers/STM32F7xx_HAL_Driver/Src/stm32f7xx_hal_rcc.o
                0x0000000008003ea8                HAL_RCC_GetHCLKFreq
 .text.HAL_RCC_GetPCLK1Freq
                0x0000000008003ec0       0x28 ./Drivers/STM32F7xx_HAL_Driver/Src/stm32f7xx_hal_rcc.o
                0x0000000008003ec0                HAL_RCC_GetPCLK1Freq
 .text.HAL_RCC_GetPCLK2Freq
                0x0000000008003ee8       0x28 ./Drivers/STM32F7xx_HAL_Driver/Src/stm32f7xx_hal_rcc.o
                0x0000000008003ee8                HAL_RCC_GetPCLK2Freq
 .text.HAL_RCCEx_PeriphCLKConfig
                0x0000000008003f10      0x850 ./Drivers/STM32F7xx_HAL_Driver/Src/stm32f7xx_hal_rcc_ex.o
                0x0000000008003f10                HAL_RCCEx_PeriphCLKConfig
 .text.HAL_TIM_Base_Init
                0x0000000008004760       0xae ./Drivers/STM32F7xx_HAL_Driver/Src/stm32f7xx_hal_tim.o
                0x0000000008004760                HAL_TIM_Base_Init
 *fill*         0x000000000800480e        0x2 
 .text.HAL_TIM_Base_Start
                0x0000000008004810       0xe0 ./Drivers/STM32F7xx_HAL_Driver/Src/stm32f7xx_hal_tim.o
                0x0000000008004810                HAL_TIM_Base_Start
 .text.HAL_TIM_ConfigClockSource
                0x00000000080048f0      0x194 ./Drivers/STM32F7xx_HAL_Driver/Src/stm32f7xx_hal_tim.o
                0x00000000080048f0                HAL_TIM_ConfigClockSource
 .text.TIM_Base_SetConfig
                0x0000000008004a84      0x158 ./Drivers/STM32F7xx_HAL_Driver/Src/stm32f7xx_hal_tim.o
                0x0000000008004a84                TIM_Base_SetConfig
 .text.TIM_TI1_ConfigInputStage
                0x0000000008004bdc       0x5e ./Drivers/STM32F7xx_HAL_Driver/Src/stm32f7xx_hal_tim.o
 .text.TIM_TI2_ConfigInputStage
                0x0000000008004c3a       0x60 ./Drivers/STM32F7xx_HAL_Driver/Src/stm32f7xx_hal_tim.o
 .text.TIM_ITRx_SetConfig
                0x0000000008004c9a       0x36 ./Drivers/STM32F7xx_HAL_Driver/Src/stm32f7xx_hal_tim.o
 .text.TIM_ETR_SetConfig
                0x0000000008004cd0       0x40 ./Drivers/STM32F7xx_HAL_Driver/Src/stm32f7xx_hal_tim.o
                0x0000000008004cd0                TIM_ETR_SetConfig
 .text.HAL_TIMEx_MasterConfigSynchronization
                0x0000000008004d10      0x11c ./Drivers/STM32F7xx_HAL_Driver/Src/stm32f7xx_hal_tim_ex.o
                0x0000000008004d10                HAL_TIMEx_MasterConfigSynchronization
 .text.HAL_UART_Init
                0x0000000008004e2c       0x9c ./Drivers/STM32F7xx_HAL_Driver/Src/stm32f7xx_hal_uart.o
                0x0000000008004e2c                HAL_UART_Init
 .text.HAL_UART_Transmit
                0x0000000008004ec8      0x112 ./Drivers/STM32F7xx_HAL_Driver/Src/stm32f7xx_hal_uart.o
                0x0000000008004ec8                HAL_UART_Transmit
 .text.HAL_UART_Receive_DMA
                0x0000000008004fda       0x88 ./Drivers/STM32F7xx_HAL_Driver/Src/stm32f7xx_hal_uart.o
                0x0000000008004fda                HAL_UART_Receive_DMA
 *fill*         0x0000000008005062        0x2 
 .text.HAL_UART_IRQHandler
                0x0000000008005064      0x5d0 ./Drivers/STM32F7xx_HAL_Driver/Src/stm32f7xx_hal_uart.o
                0x0000000008005064                HAL_UART_IRQHandler
 .text.HAL_UART_TxCpltCallback
                0x0000000008005634       0x14 ./Drivers/STM32F7xx_HAL_Driver/Src/stm32f7xx_hal_uart.o
                0x0000000008005634                HAL_UART_TxCpltCallback
 .text.HAL_UART_RxHalfCpltCallback
                0x0000000008005648       0x14 ./Drivers/STM32F7xx_HAL_Driver/Src/stm32f7xx_hal_uart.o
                0x0000000008005648                HAL_UART_RxHalfCpltCallback
 .text.HAL_UARTEx_RxEventCallback
                0x000000000800565c       0x18 ./Drivers/STM32F7xx_HAL_Driver/Src/stm32f7xx_hal_uart.o
                0x000000000800565c                HAL_UARTEx_RxEventCallback
 .text.HAL_UARTEx_WakeupCallback
                0x0000000008005674       0x14 ./Drivers/STM32F7xx_HAL_Driver/Src/stm32f7xx_hal_uart.o
                0x0000000008005674                HAL_UARTEx_WakeupCallback
 .text.UART_SetConfig
                0x0000000008005688      0x4c8 ./Drivers/STM32F7xx_HAL_Driver/Src/stm32f7xx_hal_uart.o
                0x0000000008005688                UART_SetConfig
 .text.UART_AdvFeatureConfig
                0x0000000008005b50      0x144 ./Drivers/STM32F7xx_HAL_Driver/Src/stm32f7xx_hal_uart.o
                0x0000000008005b50                UART_AdvFeatureConfig
 .text.UART_CheckIdleState
                0x0000000008005c94      0x150 ./Drivers/STM32F7xx_HAL_Driver/Src/stm32f7xx_hal_uart.o
                0x0000000008005c94                UART_CheckIdleState
 .text.UART_WaitOnFlagUntilTimeout
                0x0000000008005de4       0xda ./Drivers/STM32F7xx_HAL_Driver/Src/stm32f7xx_hal_uart.o
                0x0000000008005de4                UART_WaitOnFlagUntilTimeout
 *fill*         0x0000000008005ebe        0x2 
 .text.UART_Start_Receive_DMA
                0x0000000008005ec0      0x140 ./Drivers/STM32F7xx_HAL_Driver/Src/stm32f7xx_hal_uart.o
                0x0000000008005ec0                UART_Start_Receive_DMA
 .text.UART_EndTxTransfer
                0x0000000008006000       0x4c ./Drivers/STM32F7xx_HAL_Driver/Src/stm32f7xx_hal_uart.o
 .text.UART_EndRxTransfer
                0x000000000800604c       0xc8 ./Drivers/STM32F7xx_HAL_Driver/Src/stm32f7xx_hal_uart.o
 .text.UART_DMAReceiveCplt
                0x0000000008006114      0x128 ./Drivers/STM32F7xx_HAL_Driver/Src/stm32f7xx_hal_uart.o
 .text.UART_DMARxHalfCplt
                0x000000000800623c       0x3e ./Drivers/STM32F7xx_HAL_Driver/Src/stm32f7xx_hal_uart.o
 .text.UART_DMAError
                0x000000000800627a       0x7e ./Drivers/STM32F7xx_HAL_Driver/Src/stm32f7xx_hal_uart.o
 .text.UART_DMAAbortOnError
                0x00000000080062f8       0x2c ./Drivers/STM32F7xx_HAL_Driver/Src/stm32f7xx_hal_uart.o
 .text.UART_EndTransmit_IT
                0x0000000008006324       0x54 ./Drivers/STM32F7xx_HAL_Driver/Src/stm32f7xx_hal_uart.o
 .text.get_ip   0x0000000008006378       0x14 ./LWIP/App/lwip.o
                0x0000000008006378                get_ip
 .text.mqtt_incoming_publish_cb
                0x000000000800638c       0x20 ./LWIP/App/lwip.o
                0x000000000800638c                mqtt_incoming_publish_cb
 .text.mqtt_incoming_data_cb
                0x00000000080063ac       0x80 ./LWIP/App/lwip.o
                0x00000000080063ac                mqtt_incoming_data_cb
 .text.mqtt_request_cb
                0x000000000800642c       0x38 ./LWIP/App/lwip.o
                0x000000000800642c                mqtt_request_cb
 .text.mqtt_connection_cb
                0x0000000008006464       0x5c ./LWIP/App/lwip.o
                0x0000000008006464                mqtt_connection_cb
 .text.connect_mqtt
                0x00000000080064c0       0x9c ./LWIP/App/lwip.o
                0x00000000080064c0                connect_mqtt
 .text.mqtt_publish_cb
                0x000000000800655c       0x38 ./LWIP/App/lwip.o
                0x000000000800655c                mqtt_publish_cb
 .text.topic_publish
                0x0000000008006594       0x50 ./LWIP/App/lwip.o
                0x0000000008006594                topic_publish
 .text.MX_LWIP_Init
                0x00000000080065e4      0x264 ./LWIP/App/lwip.o
                0x00000000080065e4                MX_LWIP_Init
 .text.Ethernet_Link_Periodic_Handle
                0x0000000008006848       0x34 ./LWIP/App/lwip.o
 .text.MX_LWIP_Process
                0x000000000800687c       0x1c ./LWIP/App/lwip.o
                0x000000000800687c                MX_LWIP_Process
 .text.ethernet_link_status_updated
                0x0000000008006898       0x14 ./LWIP/App/lwip.o
 .text.SCB_InvalidateDCache_by_Addr
                0x00000000080068ac       0x58 ./LWIP/Target/ethernetif.o
 .text.low_level_init
                0x0000000008006904      0x130 ./LWIP/Target/ethernetif.o
 .text.low_level_output
                0x0000000008006a34      0x104 ./LWIP/Target/ethernetif.o
 .text.low_level_input
                0x0000000008006b38       0x34 ./LWIP/Target/ethernetif.o
 .text.ethernetif_input
                0x0000000008006b6c       0x40 ./LWIP/Target/ethernetif.o
                0x0000000008006b6c                ethernetif_input
 .text.ethernetif_init
                0x0000000008006bac       0x5c ./LWIP/Target/ethernetif.o
                0x0000000008006bac                ethernetif_init
 .text.pbuf_free_custom
                0x0000000008006c08       0x34 ./LWIP/Target/ethernetif.o
                0x0000000008006c08                pbuf_free_custom
 .text.sys_now  0x0000000008006c3c        0xe ./LWIP/Target/ethernetif.o
                0x0000000008006c3c                sys_now
 *fill*         0x0000000008006c4a        0x2 
 .text.HAL_ETH_MspInit
                0x0000000008006c4c      0x180 ./LWIP/Target/ethernetif.o
                0x0000000008006c4c                HAL_ETH_MspInit
 .text.ETH_PHY_IO_Init
                0x0000000008006dcc       0x14 ./LWIP/Target/ethernetif.o
                0x0000000008006dcc                ETH_PHY_IO_Init
 .text.ETH_PHY_IO_DeInit
                0x0000000008006de0       0x10 ./LWIP/Target/ethernetif.o
                0x0000000008006de0                ETH_PHY_IO_DeInit
 .text.ETH_PHY_IO_ReadReg
                0x0000000008006df0       0x34 ./LWIP/Target/ethernetif.o
                0x0000000008006df0                ETH_PHY_IO_ReadReg
 .text.ETH_PHY_IO_WriteReg
                0x0000000008006e24       0x34 ./LWIP/Target/ethernetif.o
                0x0000000008006e24                ETH_PHY_IO_WriteReg
 .text.ETH_PHY_IO_GetTick
                0x0000000008006e58        0xe ./LWIP/Target/ethernetif.o
                0x0000000008006e58                ETH_PHY_IO_GetTick
 *fill*         0x0000000008006e66        0x2 
 .text.ethernet_link_check_state
                0x0000000008006e68      0x118 ./LWIP/Target/ethernetif.o
                0x0000000008006e68                ethernet_link_check_state
 .text.HAL_ETH_RxAllocateCallback
                0x0000000008006f80       0x60 ./LWIP/Target/ethernetif.o
                0x0000000008006f80                HAL_ETH_RxAllocateCallback
 .text.HAL_ETH_RxLinkCallback
                0x0000000008006fe0       0x84 ./LWIP/Target/ethernetif.o
                0x0000000008006fe0                HAL_ETH_RxLinkCallback
 .text.msg_generate_packet_id
                0x0000000008007064       0x38 ./Middlewares/Third_Party/LwIP/src/apps/mqtt/mqtt.o
 .text.mqtt_ringbuf_put
                0x000000000800709c       0x40 ./Middlewares/Third_Party/LwIP/src/apps/mqtt/mqtt.o
 .text.mqtt_ringbuf_get_ptr
                0x00000000080070dc       0x20 ./Middlewares/Third_Party/LwIP/src/apps/mqtt/mqtt.o
 .text.mqtt_ringbuf_advance_get_idx
                0x00000000080070fc       0x58 ./Middlewares/Third_Party/LwIP/src/apps/mqtt/mqtt.o
 .text.mqtt_ringbuf_len
                0x0000000008007154       0x36 ./Middlewares/Third_Party/LwIP/src/apps/mqtt/mqtt.o
 *fill*         0x000000000800718a        0x2 
 .text.mqtt_output_send
                0x000000000800718c      0x168 ./Middlewares/Third_Party/LwIP/src/apps/mqtt/mqtt.o
 .text.mqtt_create_request
                0x00000000080072f4       0x8c ./Middlewares/Third_Party/LwIP/src/apps/mqtt/mqtt.o
 .text.mqtt_append_request
                0x0000000008007380       0x98 ./Middlewares/Third_Party/LwIP/src/apps/mqtt/mqtt.o
 .text.mqtt_delete_request
                0x0000000008007418       0x20 ./Middlewares/Third_Party/LwIP/src/apps/mqtt/mqtt.o
 .text.mqtt_take_request
                0x0000000008007438       0xa4 ./Middlewares/Third_Party/LwIP/src/apps/mqtt/mqtt.o
 .text.mqtt_request_time_elapsed
                0x00000000080074dc       0xa4 ./Middlewares/Third_Party/LwIP/src/apps/mqtt/mqtt.o
 .text.mqtt_clear_requests
                0x0000000008007580       0x54 ./Middlewares/Third_Party/LwIP/src/apps/mqtt/mqtt.o
 .text.mqtt_init_requests
                0x00000000080075d4       0x5c ./Middlewares/Third_Party/LwIP/src/apps/mqtt/mqtt.o
 .text.mqtt_output_append_u8
                0x0000000008007630       0x1e ./Middlewares/Third_Party/LwIP/src/apps/mqtt/mqtt.o
 .text.mqtt_output_append_u16
                0x000000000800764e       0x30 ./Middlewares/Third_Party/LwIP/src/apps/mqtt/mqtt.o
 .text.mqtt_output_append_buf
                0x000000000800767e       0x3c ./Middlewares/Third_Party/LwIP/src/apps/mqtt/mqtt.o
 .text.mqtt_output_append_string
                0x00000000080076ba       0x58 ./Middlewares/Third_Party/LwIP/src/apps/mqtt/mqtt.o
 .text.mqtt_output_append_fixed_header
                0x0000000008007712       0x94 ./Middlewares/Third_Party/LwIP/src/apps/mqtt/mqtt.o
 *fill*         0x00000000080077a6        0x2 
 .text.mqtt_output_check_space
                0x00000000080077a8       0x64 ./Middlewares/Third_Party/LwIP/src/apps/mqtt/mqtt.o
 .text.mqtt_close
                0x000000000800780c       0xc0 ./Middlewares/Third_Party/LwIP/src/apps/mqtt/mqtt.o
 .text.mqtt_cyclic_timer
                0x00000000080078cc      0x130 ./Middlewares/Third_Party/LwIP/src/apps/mqtt/mqtt.o
 .text.pub_ack_rec_rel_response
                0x00000000080079fc       0x7a ./Middlewares/Third_Party/LwIP/src/apps/mqtt/mqtt.o
 .text.mqtt_incomming_suback
                0x0000000008007a76       0x36 ./Middlewares/Third_Party/LwIP/src/apps/mqtt/mqtt.o
 .text.mqtt_message_received
                0x0000000008007aac      0x370 ./Middlewares/Third_Party/LwIP/src/apps/mqtt/mqtt.o
 .text.mqtt_parse_incoming
                0x0000000008007e1c      0x1ac ./Middlewares/Third_Party/LwIP/src/apps/mqtt/mqtt.o
 .text.mqtt_tcp_recv_cb
                0x0000000008007fc8       0xbc ./Middlewares/Third_Party/LwIP/src/apps/mqtt/mqtt.o
 .text.mqtt_tcp_sent_cb
                0x0000000008008084       0x74 ./Middlewares/Third_Party/LwIP/src/apps/mqtt/mqtt.o
 .text.mqtt_tcp_err_cb
                0x00000000080080f8       0x48 ./Middlewares/Third_Party/LwIP/src/apps/mqtt/mqtt.o
 .text.mqtt_tcp_poll_cb
                0x0000000008008140       0x2c ./Middlewares/Third_Party/LwIP/src/apps/mqtt/mqtt.o
 .text.mqtt_tcp_connect_cb
                0x000000000800816c       0x84 ./Middlewares/Third_Party/LwIP/src/apps/mqtt/mqtt.o
 .text.mqtt_publish
                0x00000000080081f0      0x1a8 ./Middlewares/Third_Party/LwIP/src/apps/mqtt/mqtt.o
                0x00000000080081f0                mqtt_publish
 .text.mqtt_sub_unsub
                0x0000000008008398      0x1ac ./Middlewares/Third_Party/LwIP/src/apps/mqtt/mqtt.o
                0x0000000008008398                mqtt_sub_unsub
 .text.mqtt_set_inpub_callback
                0x0000000008008544       0x48 ./Middlewares/Third_Party/LwIP/src/apps/mqtt/mqtt.o
                0x0000000008008544                mqtt_set_inpub_callback
 .text.mqtt_client_new
                0x000000000800858c       0x14 ./Middlewares/Third_Party/LwIP/src/apps/mqtt/mqtt.o
                0x000000000800858c                mqtt_client_new
 .text.mqtt_client_connect
                0x00000000080085a0      0x4f8 ./Middlewares/Third_Party/LwIP/src/apps/mqtt/mqtt.o
                0x00000000080085a0                mqtt_client_connect
 .text.lwip_htons
                0x0000000008008a98       0x2a ./Middlewares/Third_Party/LwIP/src/core/def.o
                0x0000000008008a98                lwip_htons
 .text.lwip_htonl
                0x0000000008008ac2       0x32 ./Middlewares/Third_Party/LwIP/src/core/def.o
                0x0000000008008ac2                lwip_htonl
 .text.lwip_init
                0x0000000008008af4       0x2a ./Middlewares/Third_Party/LwIP/src/core/init.o
                0x0000000008008af4                lwip_init
 *fill*         0x0000000008008b1e        0x2 
 .text.ptr_to_mem
                0x0000000008008b20       0x24 ./Middlewares/Third_Party/LwIP/src/core/mem.o
 .text.mem_to_ptr
                0x0000000008008b44       0x24 ./Middlewares/Third_Party/LwIP/src/core/mem.o
 .text.plug_holes
                0x0000000008008b68      0x144 ./Middlewares/Third_Party/LwIP/src/core/mem.o
 .text.mem_init
                0x0000000008008cac       0x78 ./Middlewares/Third_Party/LwIP/src/core/mem.o
                0x0000000008008cac                mem_init
 .text.mem_link_valid
                0x0000000008008d24       0x78 ./Middlewares/Third_Party/LwIP/src/core/mem.o
 .text.mem_free
                0x0000000008008d9c       0xd4 ./Middlewares/Third_Party/LwIP/src/core/mem.o
                0x0000000008008d9c                mem_free
 .text.mem_trim
                0x0000000008008e70      0x1f8 ./Middlewares/Third_Party/LwIP/src/core/mem.o
                0x0000000008008e70                mem_trim
 .text.mem_malloc
                0x0000000008009068      0x1f4 ./Middlewares/Third_Party/LwIP/src/core/mem.o
                0x0000000008009068                mem_malloc
 .text.mem_calloc
                0x000000000800925c       0x50 ./Middlewares/Third_Party/LwIP/src/core/mem.o
                0x000000000800925c                mem_calloc
 .text.memp_init_pool
                0x00000000080092ac       0x60 ./Middlewares/Third_Party/LwIP/src/core/memp.o
                0x00000000080092ac                memp_init_pool
 .text.memp_init
                0x000000000800930c       0x34 ./Middlewares/Third_Party/LwIP/src/core/memp.o
                0x000000000800930c                memp_init
 .text.do_memp_malloc_pool
                0x0000000008009340       0x54 ./Middlewares/Third_Party/LwIP/src/core/memp.o
 .text.memp_malloc_pool
                0x0000000008009394       0x44 ./Middlewares/Third_Party/LwIP/src/core/memp.o
                0x0000000008009394                memp_malloc_pool
 .text.memp_malloc
                0x00000000080093d8       0x4c ./Middlewares/Third_Party/LwIP/src/core/memp.o
                0x00000000080093d8                memp_malloc
 .text.do_memp_free_pool
                0x0000000008009424       0x4c ./Middlewares/Third_Party/LwIP/src/core/memp.o
 .text.memp_free_pool
                0x0000000008009470       0x48 ./Middlewares/Third_Party/LwIP/src/core/memp.o
                0x0000000008009470                memp_free_pool
 .text.memp_free
                0x00000000080094b8       0x54 ./Middlewares/Third_Party/LwIP/src/core/memp.o
                0x00000000080094b8                memp_free
 .text.netif_init
                0x000000000800950c        0xe ./Middlewares/Third_Party/LwIP/src/core/netif.o
                0x000000000800950c                netif_init
 *fill*         0x000000000800951a        0x2 
 .text.netif_add
                0x000000000800951c      0x19c ./Middlewares/Third_Party/LwIP/src/core/netif.o
                0x000000000800951c                netif_add
 .text.netif_do_ip_addr_changed
                0x00000000080096b8       0x22 ./Middlewares/Third_Party/LwIP/src/core/netif.o
 *fill*         0x00000000080096da        0x2 
 .text.netif_do_set_ipaddr
                0x00000000080096dc       0x94 ./Middlewares/Third_Party/LwIP/src/core/netif.o
 .text.netif_do_set_netmask
                0x0000000008009770       0x3e ./Middlewares/Third_Party/LwIP/src/core/netif.o
 .text.netif_do_set_gw
                0x00000000080097ae       0x3e ./Middlewares/Third_Party/LwIP/src/core/netif.o
 .text.netif_set_addr
                0x00000000080097ec       0x94 ./Middlewares/Third_Party/LwIP/src/core/netif.o
                0x00000000080097ec                netif_set_addr
 .text.netif_set_default
                0x0000000008009880       0x20 ./Middlewares/Third_Party/LwIP/src/core/netif.o
                0x0000000008009880                netif_set_default
 .text.netif_set_up
                0x00000000080098a0       0x58 ./Middlewares/Third_Party/LwIP/src/core/netif.o
                0x00000000080098a0                netif_set_up
 .text.netif_issue_reports
                0x00000000080098f8       0x80 ./Middlewares/Third_Party/LwIP/src/core/netif.o
 .text.netif_set_down
                0x0000000008009978       0x64 ./Middlewares/Third_Party/LwIP/src/core/netif.o
                0x0000000008009978                netif_set_down
 .text.netif_set_link_up
                0x00000000080099dc       0x68 ./Middlewares/Third_Party/LwIP/src/core/netif.o
                0x00000000080099dc                netif_set_link_up
 .text.netif_set_link_down
                0x0000000008009a44       0x60 ./Middlewares/Third_Party/LwIP/src/core/netif.o
                0x0000000008009a44                netif_set_link_down
 .text.netif_set_link_callback
                0x0000000008009aa4       0x22 ./Middlewares/Third_Party/LwIP/src/core/netif.o
                0x0000000008009aa4                netif_set_link_callback
 .text.netif_null_output_ip4
                0x0000000008009ac6       0x1c ./Middlewares/Third_Party/LwIP/src/core/netif.o
 *fill*         0x0000000008009ae2        0x2 
 .text.netif_get_by_index
                0x0000000008009ae4       0x4c ./Middlewares/Third_Party/LwIP/src/core/netif.o
                0x0000000008009ae4                netif_get_by_index
 .text.pbuf_free_ooseq
                0x0000000008009b30       0x40 ./Middlewares/Third_Party/LwIP/src/core/pbuf.o
                0x0000000008009b30                pbuf_free_ooseq
 .text.pbuf_pool_is_empty
                0x0000000008009b70       0x18 ./Middlewares/Third_Party/LwIP/src/core/pbuf.o
 .text.pbuf_init_alloced_pbuf
                0x0000000008009b88       0x54 ./Middlewares/Third_Party/LwIP/src/core/pbuf.o
 .text.pbuf_alloc
                0x0000000008009bdc      0x1ec ./Middlewares/Third_Party/LwIP/src/core/pbuf.o
                0x0000000008009bdc                pbuf_alloc
 .text.pbuf_alloc_reference
                0x0000000008009dc8       0x68 ./Middlewares/Third_Party/LwIP/src/core/pbuf.o
                0x0000000008009dc8                pbuf_alloc_reference
 .text.pbuf_alloced_custom
                0x0000000008009e30       0x68 ./Middlewares/Third_Party/LwIP/src/core/pbuf.o
                0x0000000008009e30                pbuf_alloced_custom
 .text.pbuf_realloc
                0x0000000008009e98      0x110 ./Middlewares/Third_Party/LwIP/src/core/pbuf.o
                0x0000000008009e98                pbuf_realloc
 .text.pbuf_add_header_impl
                0x0000000008009fa8       0xd0 ./Middlewares/Third_Party/LwIP/src/core/pbuf.o
 .text.pbuf_add_header
                0x000000000800a078       0x1e ./Middlewares/Third_Party/LwIP/src/core/pbuf.o
                0x000000000800a078                pbuf_add_header
 *fill*         0x000000000800a096        0x2 
 .text.pbuf_remove_header
                0x000000000800a098       0xa4 ./Middlewares/Third_Party/LwIP/src/core/pbuf.o
                0x000000000800a098                pbuf_remove_header
 .text.pbuf_header_impl
                0x000000000800a13c       0x42 ./Middlewares/Third_Party/LwIP/src/core/pbuf.o
 .text.pbuf_header_force
                0x000000000800a17e       0x24 ./Middlewares/Third_Party/LwIP/src/core/pbuf.o
                0x000000000800a17e                pbuf_header_force
 *fill*         0x000000000800a1a2        0x2 
 .text.pbuf_free
                0x000000000800a1a4      0x110 ./Middlewares/Third_Party/LwIP/src/core/pbuf.o
                0x000000000800a1a4                pbuf_free
 .text.pbuf_clen
                0x000000000800a2b4       0x2e ./Middlewares/Third_Party/LwIP/src/core/pbuf.o
                0x000000000800a2b4                pbuf_clen
 *fill*         0x000000000800a2e2        0x2 
 .text.pbuf_ref
                0x000000000800a2e4       0x44 ./Middlewares/Third_Party/LwIP/src/core/pbuf.o
                0x000000000800a2e4                pbuf_ref
 .text.pbuf_cat
                0x000000000800a328       0xac ./Middlewares/Third_Party/LwIP/src/core/pbuf.o
                0x000000000800a328                pbuf_cat
 .text.pbuf_copy
                0x000000000800a3d4      0x1a4 ./Middlewares/Third_Party/LwIP/src/core/pbuf.o
                0x000000000800a3d4                pbuf_copy
 .text.pbuf_copy_partial
                0x000000000800a578       0xe4 ./Middlewares/Third_Party/LwIP/src/core/pbuf.o
                0x000000000800a578                pbuf_copy_partial
 .text.pbuf_skip_const
                0x000000000800a65c       0x52 ./Middlewares/Third_Party/LwIP/src/core/pbuf.o
 *fill*         0x000000000800a6ae        0x2 
 .text.pbuf_clone
                0x000000000800a6b0       0x64 ./Middlewares/Third_Party/LwIP/src/core/pbuf.o
                0x000000000800a6b0                pbuf_clone
 .text.pbuf_get_at
                0x000000000800a714       0x2e ./Middlewares/Third_Party/LwIP/src/core/pbuf.o
                0x000000000800a714                pbuf_get_at
 .text.pbuf_try_get_at
                0x000000000800a742       0x44 ./Middlewares/Third_Party/LwIP/src/core/pbuf.o
                0x000000000800a742                pbuf_try_get_at
 *fill*         0x000000000800a786        0x2 
 .text.tcp_init
                0x000000000800a788       0x24 ./Middlewares/Third_Party/LwIP/src/core/tcp.o
                0x000000000800a788                tcp_init
 .text.tcp_free
                0x000000000800a7ac       0x38 ./Middlewares/Third_Party/LwIP/src/core/tcp.o
                0x000000000800a7ac                tcp_free
 .text.tcp_free_listen
                0x000000000800a7e4       0x38 ./Middlewares/Third_Party/LwIP/src/core/tcp.o
 .text.tcp_tmr  0x000000000800a81c       0x2c ./Middlewares/Third_Party/LwIP/src/core/tcp.o
                0x000000000800a81c                tcp_tmr
 .text.tcp_remove_listener
                0x000000000800a848       0x54 ./Middlewares/Third_Party/LwIP/src/core/tcp.o
 .text.tcp_listen_closed
                0x000000000800a89c       0x74 ./Middlewares/Third_Party/LwIP/src/core/tcp.o
 .text.tcp_close_shutdown
                0x000000000800a910      0x1c4 ./Middlewares/Third_Party/LwIP/src/core/tcp.o
 .text.tcp_close_shutdown_fin
                0x000000000800aad4       0xd4 ./Middlewares/Third_Party/LwIP/src/core/tcp.o
 .text.tcp_close
                0x000000000800aba8       0x58 ./Middlewares/Third_Party/LwIP/src/core/tcp.o
                0x000000000800aba8                tcp_close
 .text.tcp_abandon
                0x000000000800ac00      0x17c ./Middlewares/Third_Party/LwIP/src/core/tcp.o
                0x000000000800ac00                tcp_abandon
 .text.tcp_abort
                0x000000000800ad7c       0x18 ./Middlewares/Third_Party/LwIP/src/core/tcp.o
                0x000000000800ad7c                tcp_abort
 .text.tcp_bind
                0x000000000800ad94      0x130 ./Middlewares/Third_Party/LwIP/src/core/tcp.o
                0x000000000800ad94                tcp_bind
 .text.tcp_update_rcv_ann_wnd
                0x000000000800aec4       0xb4 ./Middlewares/Third_Party/LwIP/src/core/tcp.o
                0x000000000800aec4                tcp_update_rcv_ann_wnd
 .text.tcp_recved
                0x000000000800af78       0xa0 ./Middlewares/Third_Party/LwIP/src/core/tcp.o
                0x000000000800af78                tcp_recved
 .text.tcp_new_port
                0x000000000800b018       0x8c ./Middlewares/Third_Party/LwIP/src/core/tcp.o
 .text.tcp_connect
                0x000000000800b0a4      0x230 ./Middlewares/Third_Party/LwIP/src/core/tcp.o
                0x000000000800b0a4                tcp_connect
 .text.tcp_slowtmr
                0x000000000800b2d4      0x680 ./Middlewares/Third_Party/LwIP/src/core/tcp.o
                0x000000000800b2d4                tcp_slowtmr
 .text.tcp_fasttmr
                0x000000000800b954       0xc8 ./Middlewares/Third_Party/LwIP/src/core/tcp.o
                0x000000000800b954                tcp_fasttmr
 .text.tcp_process_refused_data
                0x000000000800ba1c       0xf8 ./Middlewares/Third_Party/LwIP/src/core/tcp.o
                0x000000000800ba1c                tcp_process_refused_data
 .text.tcp_segs_free
                0x000000000800bb14       0x2a ./Middlewares/Third_Party/LwIP/src/core/tcp.o
                0x000000000800bb14                tcp_segs_free
 .text.tcp_seg_free
                0x000000000800bb3e       0x30 ./Middlewares/Third_Party/LwIP/src/core/tcp.o
                0x000000000800bb3e                tcp_seg_free
 *fill*         0x000000000800bb6e        0x2 
 .text.tcp_seg_copy
                0x000000000800bb70       0x58 ./Middlewares/Third_Party/LwIP/src/core/tcp.o
                0x000000000800bb70                tcp_seg_copy
 .text.tcp_recv_null
                0x000000000800bbc8       0x6c ./Middlewares/Third_Party/LwIP/src/core/tcp.o
                0x000000000800bbc8                tcp_recv_null
 .text.tcp_kill_prio
                0x000000000800bc34       0x9c ./Middlewares/Third_Party/LwIP/src/core/tcp.o
 .text.tcp_kill_state
                0x000000000800bcd0       0x94 ./Middlewares/Third_Party/LwIP/src/core/tcp.o
 .text.tcp_kill_timewait
                0x000000000800bd64       0x60 ./Middlewares/Third_Party/LwIP/src/core/tcp.o
 .text.tcp_handle_closepend
                0x000000000800bdc4       0x4c ./Middlewares/Third_Party/LwIP/src/core/tcp.o
 .text.tcp_alloc
                0x000000000800be10      0x108 ./Middlewares/Third_Party/LwIP/src/core/tcp.o
                0x000000000800be10                tcp_alloc
 .text.tcp_new_ip_type
                0x000000000800bf18       0x1c ./Middlewares/Third_Party/LwIP/src/core/tcp.o
                0x000000000800bf18                tcp_new_ip_type
 .text.tcp_arg  0x000000000800bf34       0x22 ./Middlewares/Third_Party/LwIP/src/core/tcp.o
                0x000000000800bf34                tcp_arg
 *fill*         0x000000000800bf56        0x2 
 .text.tcp_recv
                0x000000000800bf58       0x44 ./Middlewares/Third_Party/LwIP/src/core/tcp.o
                0x000000000800bf58                tcp_recv
 .text.tcp_sent
                0x000000000800bf9c       0x44 ./Middlewares/Third_Party/LwIP/src/core/tcp.o
                0x000000000800bf9c                tcp_sent
 .text.tcp_err  0x000000000800bfe0       0x44 ./Middlewares/Third_Party/LwIP/src/core/tcp.o
                0x000000000800bfe0                tcp_err
 .text.tcp_poll
                0x000000000800c024       0x60 ./Middlewares/Third_Party/LwIP/src/core/tcp.o
                0x000000000800c024                tcp_poll
 .text.tcp_pcb_purge
                0x000000000800c084       0xa0 ./Middlewares/Third_Party/LwIP/src/core/tcp.o
                0x000000000800c084                tcp_pcb_purge
 .text.tcp_pcb_remove
                0x000000000800c124      0x128 ./Middlewares/Third_Party/LwIP/src/core/tcp.o
                0x000000000800c124                tcp_pcb_remove
 .text.tcp_next_iss
                0x000000000800c24c       0x4c ./Middlewares/Third_Party/LwIP/src/core/tcp.o
                0x000000000800c24c                tcp_next_iss
 .text.tcp_eff_send_mss_netif
                0x000000000800c298       0x74 ./Middlewares/Third_Party/LwIP/src/core/tcp.o
                0x000000000800c298                tcp_eff_send_mss_netif
 .text.tcp_netif_ip_addr_changed_pcblist
                0x000000000800c30c       0x64 ./Middlewares/Third_Party/LwIP/src/core/tcp.o
 .text.tcp_netif_ip_addr_changed
                0x000000000800c370       0x7c ./Middlewares/Third_Party/LwIP/src/core/tcp.o
                0x000000000800c370                tcp_netif_ip_addr_changed
 .text.tcp_free_ooseq
                0x000000000800c3ec       0x28 ./Middlewares/Third_Party/LwIP/src/core/tcp.o
                0x000000000800c3ec                tcp_free_ooseq
 .text.tcp_input
                0x000000000800c414      0x818 ./Middlewares/Third_Party/LwIP/src/core/tcp_in.o
                0x000000000800c414                tcp_input
 .text.tcp_input_delayed_close
                0x000000000800cc2c       0x80 ./Middlewares/Third_Party/LwIP/src/core/tcp_in.o
 .text.tcp_listen_input
                0x000000000800ccac      0x1fc ./Middlewares/Third_Party/LwIP/src/core/tcp_in.o
 .text.tcp_timewait_input
                0x000000000800cea8       0xf4 ./Middlewares/Third_Party/LwIP/src/core/tcp_in.o
 .text.tcp_process
                0x000000000800cf9c      0x7e0 ./Middlewares/Third_Party/LwIP/src/core/tcp_in.o
 .text.tcp_oos_insert_segment
                0x000000000800d77c      0x110 ./Middlewares/Third_Party/LwIP/src/core/tcp_in.o
 .text.tcp_free_acked_segments
                0x000000000800d88c       0xf8 ./Middlewares/Third_Party/LwIP/src/core/tcp_in.o
 .text.tcp_receive
                0x000000000800d984      0xf30 ./Middlewares/Third_Party/LwIP/src/core/tcp_in.o
 .text.tcp_get_next_optbyte
                0x000000000800e8b4       0x6c ./Middlewares/Third_Party/LwIP/src/core/tcp_in.o
 .text.tcp_parseopt
                0x000000000800e920       0xec ./Middlewares/Third_Party/LwIP/src/core/tcp_in.o
 .text.tcp_trigger_input_pcb_close
                0x000000000800ea0c       0x20 ./Middlewares/Third_Party/LwIP/src/core/tcp_in.o
                0x000000000800ea0c                tcp_trigger_input_pcb_close
 .text.tcp_route
                0x000000000800ea2c       0x38 ./Middlewares/Third_Party/LwIP/src/core/tcp_out.o
 .text.tcp_create_segment
                0x000000000800ea64      0x13c ./Middlewares/Third_Party/LwIP/src/core/tcp_out.o
 .text.tcp_pbuf_prealloc
                0x000000000800eba0       0xf4 ./Middlewares/Third_Party/LwIP/src/core/tcp_out.o
 .text.tcp_write_checks
                0x000000000800ec94       0xf4 ./Middlewares/Third_Party/LwIP/src/core/tcp_out.o
 .text.tcp_write
                0x000000000800ed88      0x6c8 ./Middlewares/Third_Party/LwIP/src/core/tcp_out.o
                0x000000000800ed88                tcp_write
 .text.tcp_split_unsent_seg
                0x000000000800f450      0x290 ./Middlewares/Third_Party/LwIP/src/core/tcp_out.o
                0x000000000800f450                tcp_split_unsent_seg
 .text.tcp_send_fin
                0x000000000800f6e0       0xa0 ./Middlewares/Third_Party/LwIP/src/core/tcp_out.o
                0x000000000800f6e0                tcp_send_fin
 .text.tcp_enqueue_flags
                0x000000000800f780      0x1dc ./Middlewares/Third_Party/LwIP/src/core/tcp_out.o
                0x000000000800f780                tcp_enqueue_flags
 .text.tcp_output
                0x000000000800f95c      0x3e8 ./Middlewares/Third_Party/LwIP/src/core/tcp_out.o
                0x000000000800f95c                tcp_output
 .text.tcp_output_segment_busy
                0x000000000800fd44       0x40 ./Middlewares/Third_Party/LwIP/src/core/tcp_out.o
 .text.tcp_output_segment
                0x000000000800fd84      0x1bc ./Middlewares/Third_Party/LwIP/src/core/tcp_out.o
 .text.tcp_rexmit_rto_prepare
                0x000000000800ff40       0xe0 ./Middlewares/Third_Party/LwIP/src/core/tcp_out.o
                0x000000000800ff40                tcp_rexmit_rto_prepare
 .text.tcp_rexmit_rto_commit
                0x0000000008010020       0x50 ./Middlewares/Third_Party/LwIP/src/core/tcp_out.o
                0x0000000008010020                tcp_rexmit_rto_commit
 .text.tcp_rexmit_rto
                0x0000000008010070       0x44 ./Middlewares/Third_Party/LwIP/src/core/tcp_out.o
                0x0000000008010070                tcp_rexmit_rto
 .text.tcp_rexmit
                0x00000000080100b4       0xd8 ./Middlewares/Third_Party/LwIP/src/core/tcp_out.o
                0x00000000080100b4                tcp_rexmit
 .text.tcp_rexmit_fast
                0x000000000801018c       0xc4 ./Middlewares/Third_Party/LwIP/src/core/tcp_out.o
                0x000000000801018c                tcp_rexmit_fast
 .text.tcp_output_alloc_header_common
                0x0000000008010250       0xe4 ./Middlewares/Third_Party/LwIP/src/core/tcp_out.o
 .text.tcp_output_alloc_header
                0x0000000008010334       0x7c ./Middlewares/Third_Party/LwIP/src/core/tcp_out.o
 .text.tcp_output_fill_options
                0x00000000080103b0       0x80 ./Middlewares/Third_Party/LwIP/src/core/tcp_out.o
 .text.tcp_output_control_segment
                0x0000000008010430       0x94 ./Middlewares/Third_Party/LwIP/src/core/tcp_out.o
 .text.tcp_rst  0x00000000080104c4       0xa4 ./Middlewares/Third_Party/LwIP/src/core/tcp_out.o
                0x00000000080104c4                tcp_rst
 .text.tcp_send_empty_ack
                0x0000000008010568       0xc4 ./Middlewares/Third_Party/LwIP/src/core/tcp_out.o
                0x0000000008010568                tcp_send_empty_ack
 .text.tcp_keepalive
                0x000000000801062c       0x80 ./Middlewares/Third_Party/LwIP/src/core/tcp_out.o
                0x000000000801062c                tcp_keepalive
 .text.tcp_zero_window_probe
                0x00000000080106ac      0x154 ./Middlewares/Third_Party/LwIP/src/core/tcp_out.o
                0x00000000080106ac                tcp_zero_window_probe
 .text.tcpip_tcp_timer
                0x0000000008010800       0x48 ./Middlewares/Third_Party/LwIP/src/core/timeouts.o
 .text.tcp_timer_needed
                0x0000000008010848       0x40 ./Middlewares/Third_Party/LwIP/src/core/timeouts.o
                0x0000000008010848                tcp_timer_needed
 .text.sys_timeout_abs
                0x0000000008010888       0xdc ./Middlewares/Third_Party/LwIP/src/core/timeouts.o
 .text.lwip_cyclic_timer
                0x0000000008010964       0x64 ./Middlewares/Third_Party/LwIP/src/core/timeouts.o
 .text.sys_timeouts_init
                0x00000000080109c8       0x44 ./Middlewares/Third_Party/LwIP/src/core/timeouts.o
                0x00000000080109c8                sys_timeouts_init
 .text.sys_timeout
                0x0000000008010a0c       0x4c ./Middlewares/Third_Party/LwIP/src/core/timeouts.o
                0x0000000008010a0c                sys_timeout
 .text.sys_untimeout
                0x0000000008010a58       0x74 ./Middlewares/Third_Party/LwIP/src/core/timeouts.o
                0x0000000008010a58                sys_untimeout
 .text.sys_check_timeouts
                0x0000000008010acc       0x84 ./Middlewares/Third_Party/LwIP/src/core/timeouts.o
                0x0000000008010acc                sys_check_timeouts
 .text.udp_init
                0x0000000008010b50       0x24 ./Middlewares/Third_Party/LwIP/src/core/udp.o
                0x0000000008010b50                udp_init
 .text.udp_input_local_match
                0x0000000008010b74       0xc8 ./Middlewares/Third_Party/LwIP/src/core/udp.o
 .text.udp_input
                0x0000000008010c3c      0x228 ./Middlewares/Third_Party/LwIP/src/core/udp.o
                0x0000000008010c3c                udp_input
 .text.udp_netif_ip_addr_changed
                0x0000000008010e64       0x60 ./Middlewares/Third_Party/LwIP/src/core/udp.o
                0x0000000008010e64                udp_netif_ip_addr_changed
 .text.etharp_free_entry
                0x0000000008010ec4       0x64 ./Middlewares/Third_Party/LwIP/src/core/ipv4/etharp.o
 .text.etharp_tmr
                0x0000000008010f28      0x150 ./Middlewares/Third_Party/LwIP/src/core/ipv4/etharp.o
                0x0000000008010f28                etharp_tmr
 .text.etharp_find_entry
                0x0000000008011078      0x2f0 ./Middlewares/Third_Party/LwIP/src/core/ipv4/etharp.o
 .text.etharp_update_arp_entry
                0x0000000008011368      0x14c ./Middlewares/Third_Party/LwIP/src/core/ipv4/etharp.o
 .text.etharp_cleanup_netif
                0x00000000080114b4       0x60 ./Middlewares/Third_Party/LwIP/src/core/ipv4/etharp.o
                0x00000000080114b4                etharp_cleanup_netif
 .text.etharp_input
                0x0000000008011514      0x114 ./Middlewares/Third_Party/LwIP/src/core/ipv4/etharp.o
                0x0000000008011514                etharp_input
 .text.etharp_output_to_arp_index
                0x0000000008011628      0x134 ./Middlewares/Third_Party/LwIP/src/core/ipv4/etharp.o
 .text.etharp_output
                0x000000000801175c      0x204 ./Middlewares/Third_Party/LwIP/src/core/ipv4/etharp.o
                0x000000000801175c                etharp_output
 .text.etharp_query
                0x0000000008011960      0x27c ./Middlewares/Third_Party/LwIP/src/core/ipv4/etharp.o
                0x0000000008011960                etharp_query
 .text.etharp_raw
                0x0000000008011bdc      0x118 ./Middlewares/Third_Party/LwIP/src/core/ipv4/etharp.o
 .text.etharp_request_dst
                0x0000000008011cf4       0x44 ./Middlewares/Third_Party/LwIP/src/core/ipv4/etharp.o
 .text.etharp_request
                0x0000000008011d38       0x24 ./Middlewares/Third_Party/LwIP/src/core/ipv4/etharp.o
                0x0000000008011d38                etharp_request
 .text.icmp_input
                0x0000000008011d5c      0x208 ./Middlewares/Third_Party/LwIP/src/core/ipv4/icmp.o
                0x0000000008011d5c                icmp_input
 .text.icmp_dest_unreach
                0x0000000008011f64       0x20 ./Middlewares/Third_Party/LwIP/src/core/ipv4/icmp.o
                0x0000000008011f64                icmp_dest_unreach
 .text.icmp_time_exceeded
                0x0000000008011f84       0x20 ./Middlewares/Third_Party/LwIP/src/core/ipv4/icmp.o
                0x0000000008011f84                icmp_time_exceeded
 .text.icmp_send_response
                0x0000000008011fa4       0xd4 ./Middlewares/Third_Party/LwIP/src/core/ipv4/icmp.o
 .text.ip4_route
                0x0000000008012078       0xe0 ./Middlewares/Third_Party/LwIP/src/core/ipv4/ip4.o
                0x0000000008012078                ip4_route
 .text.ip4_input_accept
                0x0000000008012158       0x54 ./Middlewares/Third_Party/LwIP/src/core/ipv4/ip4.o
 .text.ip4_input
                0x00000000080121ac      0x248 ./Middlewares/Third_Party/LwIP/src/core/ipv4/ip4.o
                0x00000000080121ac                ip4_input
 .text.ip4_output_if
                0x00000000080123f4       0x54 ./Middlewares/Third_Party/LwIP/src/core/ipv4/ip4.o
                0x00000000080123f4                ip4_output_if
 .text.ip4_output_if_src
                0x0000000008012448      0x15c ./Middlewares/Third_Party/LwIP/src/core/ipv4/ip4.o
                0x0000000008012448                ip4_output_if_src
 .text.ip4_addr_isbroadcast_u32
                0x00000000080125a4       0x82 ./Middlewares/Third_Party/LwIP/src/core/ipv4/ip4_addr.o
                0x00000000080125a4                ip4_addr_isbroadcast_u32
 *fill*         0x0000000008012626        0x2 
 .text.ip4addr_ntoa
                0x0000000008012628       0x20 ./Middlewares/Third_Party/LwIP/src/core/ipv4/ip4_addr.o
                0x0000000008012628                ip4addr_ntoa
 .text.ip4addr_ntoa_r
                0x0000000008012648      0x100 ./Middlewares/Third_Party/LwIP/src/core/ipv4/ip4_addr.o
                0x0000000008012648                ip4addr_ntoa_r
 .text.ip_reass_tmr
                0x0000000008012748       0x58 ./Middlewares/Third_Party/LwIP/src/core/ipv4/ip4_frag.o
                0x0000000008012748                ip_reass_tmr
 .text.ip_reass_free_complete_datagram
                0x00000000080127a0      0x148 ./Middlewares/Third_Party/LwIP/src/core/ipv4/ip4_frag.o
 .text.ip_reass_remove_oldest_datagram
                0x00000000080128e8       0xc4 ./Middlewares/Third_Party/LwIP/src/core/ipv4/ip4_frag.o
 .text.ip_reass_enqueue_new_datagram
                0x00000000080129ac       0x74 ./Middlewares/Third_Party/LwIP/src/core/ipv4/ip4_frag.o
 .text.ip_reass_dequeue_datagram
                0x0000000008012a20       0x5c ./Middlewares/Third_Party/LwIP/src/core/ipv4/ip4_frag.o
 .text.ip_reass_chain_frag_into_datagram_and_validate
                0x0000000008012a7c      0x2d4 ./Middlewares/Third_Party/LwIP/src/core/ipv4/ip4_frag.o
 .text.ip4_reass
                0x0000000008012d50      0x338 ./Middlewares/Third_Party/LwIP/src/core/ipv4/ip4_frag.o
                0x0000000008012d50                ip4_reass
 .text.ip_frag_alloc_pbuf_custom_ref
                0x0000000008013088       0x10 ./Middlewares/Third_Party/LwIP/src/core/ipv4/ip4_frag.o
 .text.ip_frag_free_pbuf_custom_ref
                0x0000000008013098       0x38 ./Middlewares/Third_Party/LwIP/src/core/ipv4/ip4_frag.o
 .text.ipfrag_free_pbuf_custom
                0x00000000080130d0       0x68 ./Middlewares/Third_Party/LwIP/src/core/ipv4/ip4_frag.o
 .text.ip4_frag
                0x0000000008013138      0x28c ./Middlewares/Third_Party/LwIP/src/core/ipv4/ip4_frag.o
                0x0000000008013138                ip4_frag
 .text.ethernet_input
                0x00000000080133c4      0x11c ./Middlewares/Third_Party/LwIP/src/netif/ethernet.o
                0x00000000080133c4                ethernet_input
 .text.ethernet_output
                0x00000000080134e0       0x90 ./Middlewares/Third_Party/LwIP/src/netif/ethernet.o
                0x00000000080134e0                ethernet_output
 .text.__libc_init_array
                0x0000000008013570       0x48 d:/stm32cubeide/stm32cubeide_1.11.2/stm32cubeide/plugins/com.st.stm32cube.ide.mcu.externaltools.gnu-tools-for-stm32.10.3-2021.10.win32_1.0.100.202210260954/tools/bin/../lib/gcc/arm-none-eabi/10.3.1/../../../../arm-none-eabi/lib/thumb/v7e-m+dp/hard\libc_nano.a(lib_a-init.o)
                0x0000000008013570                __libc_init_array
 .text.memcmp   0x00000000080135b8       0x20 d:/stm32cubeide/stm32cubeide_1.11.2/stm32cubeide/plugins/com.st.stm32cube.ide.mcu.externaltools.gnu-tools-for-stm32.10.3-2021.10.win32_1.0.100.202210260954/tools/bin/../lib/gcc/arm-none-eabi/10.3.1/../../../../arm-none-eabi/lib/thumb/v7e-m+dp/hard\libc_nano.a(lib_a-memcmp.o)
                0x00000000080135b8                memcmp
 .text.memcpy   0x00000000080135d8       0x1c d:/stm32cubeide/stm32cubeide_1.11.2/stm32cubeide/plugins/com.st.stm32cube.ide.mcu.externaltools.gnu-tools-for-stm32.10.3-2021.10.win32_1.0.100.202210260954/tools/bin/../lib/gcc/arm-none-eabi/10.3.1/../../../../arm-none-eabi/lib/thumb/v7e-m+dp/hard\libc_nano.a(lib_a-memcpy-stub.o)
                0x00000000080135d8                memcpy
 .text.memset   0x00000000080135f4       0x10 d:/stm32cubeide/stm32cubeide_1.11.2/stm32cubeide/plugins/com.st.stm32cube.ide.mcu.externaltools.gnu-tools-for-stm32.10.3-2021.10.win32_1.0.100.202210260954/tools/bin/../lib/gcc/arm-none-eabi/10.3.1/../../../../arm-none-eabi/lib/thumb/v7e-m+dp/hard\libc_nano.a(lib_a-memset.o)
                0x00000000080135f4                memset
 .text.printf   0x0000000008013604       0x30 d:/stm32cubeide/stm32cubeide_1.11.2/stm32cubeide/plugins/com.st.stm32cube.ide.mcu.externaltools.gnu-tools-for-stm32.10.3-2021.10.win32_1.0.100.202210260954/tools/bin/../lib/gcc/arm-none-eabi/10.3.1/../../../../arm-none-eabi/lib/thumb/v7e-m+dp/hard\libc_nano.a(lib_a-printf.o)
                0x0000000008013604                iprintf
                0x0000000008013604                printf
 .text.rand     0x0000000008013634       0x7c d:/stm32cubeide/stm32cubeide_1.11.2/stm32cubeide/plugins/com.st.stm32cube.ide.mcu.externaltools.gnu-tools-for-stm32.10.3-2021.10.win32_1.0.100.202210260954/tools/bin/../lib/gcc/arm-none-eabi/10.3.1/../../../../arm-none-eabi/lib/thumb/v7e-m+dp/hard\libc_nano.a(lib_a-rand.o)
                0x0000000008013634                rand
 .text.strncmp  0x00000000080136b0       0x28 d:/stm32cubeide/stm32cubeide_1.11.2/stm32cubeide/plugins/com.st.stm32cube.ide.mcu.externaltools.gnu-tools-for-stm32.10.3-2021.10.win32_1.0.100.202210260954/tools/bin/../lib/gcc/arm-none-eabi/10.3.1/../../../../arm-none-eabi/lib/thumb/v7e-m+dp/hard\libc_nano.a(lib_a-strncmp.o)
                0x00000000080136b0                strncmp
 .text.__assert_func
                0x00000000080136d8       0x3c d:/stm32cubeide/stm32cubeide_1.11.2/stm32cubeide/plugins/com.st.stm32cube.ide.mcu.externaltools.gnu-tools-for-stm32.10.3-2021.10.win32_1.0.100.202210260954/tools/bin/../lib/gcc/arm-none-eabi/10.3.1/../../../../arm-none-eabi/lib/thumb/v7e-m+dp/hard\libc_nano.a(lib_a-assert.o)
                0x00000000080136d8                __assert_func
 .text.std      0x0000000008013714       0x48 d:/stm32cubeide/stm32cubeide_1.11.2/stm32cubeide/plugins/com.st.stm32cube.ide.mcu.externaltools.gnu-tools-for-stm32.10.3-2021.10.win32_1.0.100.202210260954/tools/bin/../lib/gcc/arm-none-eabi/10.3.1/../../../../arm-none-eabi/lib/thumb/v7e-m+dp/hard\libc_nano.a(lib_a-findfp.o)
 .text._cleanup_r
                0x000000000801375c        0xc d:/stm32cubeide/stm32cubeide_1.11.2/stm32cubeide/plugins/com.st.stm32cube.ide.mcu.externaltools.gnu-tools-for-stm32.10.3-2021.10.win32_1.0.100.202210260954/tools/bin/../lib/gcc/arm-none-eabi/10.3.1/../../../../arm-none-eabi/lib/thumb/v7e-m+dp/hard\libc_nano.a(lib_a-findfp.o)
                0x000000000801375c                _cleanup_r
 .text.__sfmoreglue
                0x0000000008013768       0x2c d:/stm32cubeide/stm32cubeide_1.11.2/stm32cubeide/plugins/com.st.stm32cube.ide.mcu.externaltools.gnu-tools-for-stm32.10.3-2021.10.win32_1.0.100.202210260954/tools/bin/../lib/gcc/arm-none-eabi/10.3.1/../../../../arm-none-eabi/lib/thumb/v7e-m+dp/hard\libc_nano.a(lib_a-findfp.o)
                0x0000000008013768                __sfmoreglue
 .text.__sfp_lock_acquire
                0x0000000008013794        0xc d:/stm32cubeide/stm32cubeide_1.11.2/stm32cubeide/plugins/com.st.stm32cube.ide.mcu.externaltools.gnu-tools-for-stm32.10.3-2021.10.win32_1.0.100.202210260954/tools/bin/../lib/gcc/arm-none-eabi/10.3.1/../../../../arm-none-eabi/lib/thumb/v7e-m+dp/hard\libc_nano.a(lib_a-findfp.o)
                0x0000000008013794                __sfp_lock_acquire
 .text.__sfp_lock_release
                0x00000000080137a0        0xc d:/stm32cubeide/stm32cubeide_1.11.2/stm32cubeide/plugins/com.st.stm32cube.ide.mcu.externaltools.gnu-tools-for-stm32.10.3-2021.10.win32_1.0.100.202210260954/tools/bin/../lib/gcc/arm-none-eabi/10.3.1/../../../../arm-none-eabi/lib/thumb/v7e-m+dp/hard\libc_nano.a(lib_a-findfp.o)
                0x00000000080137a0                __sfp_lock_release
 .text.__sinit_lock_acquire
                0x00000000080137ac        0xc d:/stm32cubeide/stm32cubeide_1.11.2/stm32cubeide/plugins/com.st.stm32cube.ide.mcu.externaltools.gnu-tools-for-stm32.10.3-2021.10.win32_1.0.100.202210260954/tools/bin/../lib/gcc/arm-none-eabi/10.3.1/../../../../arm-none-eabi/lib/thumb/v7e-m+dp/hard\libc_nano.a(lib_a-findfp.o)
                0x00000000080137ac                __sinit_lock_acquire
 .text.__sinit_lock_release
                0x00000000080137b8        0xc d:/stm32cubeide/stm32cubeide_1.11.2/stm32cubeide/plugins/com.st.stm32cube.ide.mcu.externaltools.gnu-tools-for-stm32.10.3-2021.10.win32_1.0.100.202210260954/tools/bin/../lib/gcc/arm-none-eabi/10.3.1/../../../../arm-none-eabi/lib/thumb/v7e-m+dp/hard\libc_nano.a(lib_a-findfp.o)
                0x00000000080137b8                __sinit_lock_release
 .text.__sinit  0x00000000080137c4       0x70 d:/stm32cubeide/stm32cubeide_1.11.2/stm32cubeide/plugins/com.st.stm32cube.ide.mcu.externaltools.gnu-tools-for-stm32.10.3-2021.10.win32_1.0.100.202210260954/tools/bin/../lib/gcc/arm-none-eabi/10.3.1/../../../../arm-none-eabi/lib/thumb/v7e-m+dp/hard\libc_nano.a(lib_a-findfp.o)
                0x00000000080137c4                __sinit
 .text.__sfp    0x0000000008013834       0x8c d:/stm32cubeide/stm32cubeide_1.11.2/stm32cubeide/plugins/com.st.stm32cube.ide.mcu.externaltools.gnu-tools-for-stm32.10.3-2021.10.win32_1.0.100.202210260954/tools/bin/../lib/gcc/arm-none-eabi/10.3.1/../../../../arm-none-eabi/lib/thumb/v7e-m+dp/hard\libc_nano.a(lib_a-findfp.o)
                0x0000000008013834                __sfp
 .text.fprintf  0x00000000080138c0       0x24 d:/stm32cubeide/stm32cubeide_1.11.2/stm32cubeide/plugins/com.st.stm32cube.ide.mcu.externaltools.gnu-tools-for-stm32.10.3-2021.10.win32_1.0.100.202210260954/tools/bin/../lib/gcc/arm-none-eabi/10.3.1/../../../../arm-none-eabi/lib/thumb/v7e-m+dp/hard\libc_nano.a(lib_a-fprintf.o)
                0x00000000080138c0                fiprintf
                0x00000000080138c0                fprintf
 .text._fwalk_reent
                0x00000000080138e4       0x3e d:/stm32cubeide/stm32cubeide_1.11.2/stm32cubeide/plugins/com.st.stm32cube.ide.mcu.externaltools.gnu-tools-for-stm32.10.3-2021.10.win32_1.0.100.202210260954/tools/bin/../lib/gcc/arm-none-eabi/10.3.1/../../../../arm-none-eabi/lib/thumb/v7e-m+dp/hard\libc_nano.a(lib_a-fwalk.o)
                0x00000000080138e4                _fwalk_reent
 .text.__retarget_lock_init_recursive
                0x0000000008013922        0x2 d:/stm32cubeide/stm32cubeide_1.11.2/stm32cubeide/plugins/com.st.stm32cube.ide.mcu.externaltools.gnu-tools-for-stm32.10.3-2021.10.win32_1.0.100.202210260954/tools/bin/../lib/gcc/arm-none-eabi/10.3.1/../../../../arm-none-eabi/lib/thumb/v7e-m+dp/hard\libc_nano.a(lib_a-lock.o)
                0x0000000008013922                __retarget_lock_init_recursive
 .text.__retarget_lock_acquire_recursive
                0x0000000008013924        0x2 d:/stm32cubeide/stm32cubeide_1.11.2/stm32cubeide/plugins/com.st.stm32cube.ide.mcu.externaltools.gnu-tools-for-stm32.10.3-2021.10.win32_1.0.100.202210260954/tools/bin/../lib/gcc/arm-none-eabi/10.3.1/../../../../arm-none-eabi/lib/thumb/v7e-m+dp/hard\libc_nano.a(lib_a-lock.o)
                0x0000000008013924                __retarget_lock_acquire_recursive
 .text.__retarget_lock_release_recursive
                0x0000000008013926        0x2 d:/stm32cubeide/stm32cubeide_1.11.2/stm32cubeide/plugins/com.st.stm32cube.ide.mcu.externaltools.gnu-tools-for-stm32.10.3-2021.10.win32_1.0.100.202210260954/tools/bin/../lib/gcc/arm-none-eabi/10.3.1/../../../../arm-none-eabi/lib/thumb/v7e-m+dp/hard\libc_nano.a(lib_a-lock.o)
                0x0000000008013926                __retarget_lock_release_recursive
 .text.malloc   0x0000000008013928       0x10 d:/stm32cubeide/stm32cubeide_1.11.2/stm32cubeide/plugins/com.st.stm32cube.ide.mcu.externaltools.gnu-tools-for-stm32.10.3-2021.10.win32_1.0.100.202210260954/tools/bin/../lib/gcc/arm-none-eabi/10.3.1/../../../../arm-none-eabi/lib/thumb/v7e-m+dp/hard\libc_nano.a(lib_a-malloc.o)
                0x0000000008013928                malloc
 .text._free_r  0x0000000008013938       0x98 d:/stm32cubeide/stm32cubeide_1.11.2/stm32cubeide/plugins/com.st.stm32cube.ide.mcu.externaltools.gnu-tools-for-stm32.10.3-2021.10.win32_1.0.100.202210260954/tools/bin/../lib/gcc/arm-none-eabi/10.3.1/../../../../arm-none-eabi/lib/thumb/v7e-m+dp/hard\libc_nano.a(lib_a-nano-freer.o)
                0x0000000008013938                _free_r
 .text.sbrk_aligned
                0x00000000080139d0       0x40 d:/stm32cubeide/stm32cubeide_1.11.2/stm32cubeide/plugins/com.st.stm32cube.ide.mcu.externaltools.gnu-tools-for-stm32.10.3-2021.10.win32_1.0.100.202210260954/tools/bin/../lib/gcc/arm-none-eabi/10.3.1/../../../../arm-none-eabi/lib/thumb/v7e-m+dp/hard\libc_nano.a(lib_a-nano-mallocr.o)
 .text._malloc_r
                0x0000000008013a10       0xe8 d:/stm32cubeide/stm32cubeide_1.11.2/stm32cubeide/plugins/com.st.stm32cube.ide.mcu.externaltools.gnu-tools-for-stm32.10.3-2021.10.win32_1.0.100.202210260954/tools/bin/../lib/gcc/arm-none-eabi/10.3.1/../../../../arm-none-eabi/lib/thumb/v7e-m+dp/hard\libc_nano.a(lib_a-nano-mallocr.o)
                0x0000000008013a10                _malloc_r
 .text.__sfputc_r
                0x0000000008013af8       0x2e d:/stm32cubeide/stm32cubeide_1.11.2/stm32cubeide/plugins/com.st.stm32cube.ide.mcu.externaltools.gnu-tools-for-stm32.10.3-2021.10.win32_1.0.100.202210260954/tools/bin/../lib/gcc/arm-none-eabi/10.3.1/../../../../arm-none-eabi/lib/thumb/v7e-m+dp/hard\libc_nano.a(lib_a-nano-vfprintf.o)
 .text.__sfputs_r
                0x0000000008013b26       0x24 d:/stm32cubeide/stm32cubeide_1.11.2/stm32cubeide/plugins/com.st.stm32cube.ide.mcu.externaltools.gnu-tools-for-stm32.10.3-2021.10.win32_1.0.100.202210260954/tools/bin/../lib/gcc/arm-none-eabi/10.3.1/../../../../arm-none-eabi/lib/thumb/v7e-m+dp/hard\libc_nano.a(lib_a-nano-vfprintf.o)
                0x0000000008013b26                __sfputs_r
 *fill*         0x0000000008013b4a        0x2 
 .text._vfprintf_r
                0x0000000008013b4c      0x260 d:/stm32cubeide/stm32cubeide_1.11.2/stm32cubeide/plugins/com.st.stm32cube.ide.mcu.externaltools.gnu-tools-for-stm32.10.3-2021.10.win32_1.0.100.202210260954/tools/bin/../lib/gcc/arm-none-eabi/10.3.1/../../../../arm-none-eabi/lib/thumb/v7e-m+dp/hard\libc_nano.a(lib_a-nano-vfprintf.o)
                0x0000000008013b4c                _vfprintf_r
                0x0000000008013b4c                _vfiprintf_r
 .text._printf_common
                0x0000000008013dac       0xda d:/stm32cubeide/stm32cubeide_1.11.2/stm32cubeide/plugins/com.st.stm32cube.ide.mcu.externaltools.gnu-tools-for-stm32.10.3-2021.10.win32_1.0.100.202210260954/tools/bin/../lib/gcc/arm-none-eabi/10.3.1/../../../../arm-none-eabi/lib/thumb/v7e-m+dp/hard\libc_nano.a(lib_a-nano-vfprintf_i.o)
                0x0000000008013dac                _printf_common
 *fill*         0x0000000008013e86        0x2 
 .text._printf_i
                0x0000000008013e88      0x24c d:/stm32cubeide/stm32cubeide_1.11.2/stm32cubeide/plugins/com.st.stm32cube.ide.mcu.externaltools.gnu-tools-for-stm32.10.3-2021.10.win32_1.0.100.202210260954/tools/bin/../lib/gcc/arm-none-eabi/10.3.1/../../../../arm-none-eabi/lib/thumb/v7e-m+dp/hard\libc_nano.a(lib_a-nano-vfprintf_i.o)
                0x0000000008013e88                _printf_i
 .text._sbrk_r  0x00000000080140d4       0x20 d:/stm32cubeide/stm32cubeide_1.11.2/stm32cubeide/plugins/com.st.stm32cube.ide.mcu.externaltools.gnu-tools-for-stm32.10.3-2021.10.win32_1.0.100.202210260954/tools/bin/../lib/gcc/arm-none-eabi/10.3.1/../../../../arm-none-eabi/lib/thumb/v7e-m+dp/hard\libc_nano.a(lib_a-sbrkr.o)
                0x00000000080140d4                _sbrk_r
 .text.__sread  0x00000000080140f4       0x22 d:/stm32cubeide/stm32cubeide_1.11.2/stm32cubeide/plugins/com.st.stm32cube.ide.mcu.externaltools.gnu-tools-for-stm32.10.3-2021.10.win32_1.0.100.202210260954/tools/bin/../lib/gcc/arm-none-eabi/10.3.1/../../../../arm-none-eabi/lib/thumb/v7e-m+dp/hard\libc_nano.a(lib_a-stdio.o)
                0x00000000080140f4                __sread
 .text.__swrite
                0x0000000008014116       0x38 d:/stm32cubeide/stm32cubeide_1.11.2/stm32cubeide/plugins/com.st.stm32cube.ide.mcu.externaltools.gnu-tools-for-stm32.10.3-2021.10.win32_1.0.100.202210260954/tools/bin/../lib/gcc/arm-none-eabi/10.3.1/../../../../arm-none-eabi/lib/thumb/v7e-m+dp/hard\libc_nano.a(lib_a-stdio.o)
                0x0000000008014116                __swrite
 .text.__sseek  0x000000000801414e       0x24 d:/stm32cubeide/stm32cubeide_1.11.2/stm32cubeide/plugins/com.st.stm32cube.ide.mcu.externaltools.gnu-tools-for-stm32.10.3-2021.10.win32_1.0.100.202210260954/tools/bin/../lib/gcc/arm-none-eabi/10.3.1/../../../../arm-none-eabi/lib/thumb/v7e-m+dp/hard\libc_nano.a(lib_a-stdio.o)
                0x000000000801414e                __sseek
 .text.__sclose
                0x0000000008014172        0x8 d:/stm32cubeide/stm32cubeide_1.11.2/stm32cubeide/plugins/com.st.stm32cube.ide.mcu.externaltools.gnu-tools-for-stm32.10.3-2021.10.win32_1.0.100.202210260954/tools/bin/../lib/gcc/arm-none-eabi/10.3.1/../../../../arm-none-eabi/lib/thumb/v7e-m+dp/hard\libc_nano.a(lib_a-stdio.o)
                0x0000000008014172                __sclose
 *fill*         0x000000000801417a        0x2 
 .text.__swbuf_r
                0x000000000801417c       0xa4 d:/stm32cubeide/stm32cubeide_1.11.2/stm32cubeide/plugins/com.st.stm32cube.ide.mcu.externaltools.gnu-tools-for-stm32.10.3-2021.10.win32_1.0.100.202210260954/tools/bin/../lib/gcc/arm-none-eabi/10.3.1/../../../../arm-none-eabi/lib/thumb/v7e-m+dp/hard\libc_nano.a(lib_a-wbuf.o)
                0x000000000801417c                __swbuf_r
 .text._write_r
                0x0000000008014220       0x24 d:/stm32cubeide/stm32cubeide_1.11.2/stm32cubeide/plugins/com.st.stm32cube.ide.mcu.externaltools.gnu-tools-for-stm32.10.3-2021.10.win32_1.0.100.202210260954/tools/bin/../lib/gcc/arm-none-eabi/10.3.1/../../../../arm-none-eabi/lib/thumb/v7e-m+dp/hard\libc_nano.a(lib_a-writer.o)
                0x0000000008014220                _write_r
 .text.__swsetup_r
                0x0000000008014244       0xdc d:/stm32cubeide/stm32cubeide_1.11.2/stm32cubeide/plugins/com.st.stm32cube.ide.mcu.externaltools.gnu-tools-for-stm32.10.3-2021.10.win32_1.0.100.202210260954/tools/bin/../lib/gcc/arm-none-eabi/10.3.1/../../../../arm-none-eabi/lib/thumb/v7e-m+dp/hard\libc_nano.a(lib_a-wsetup.o)
                0x0000000008014244                __swsetup_r
 .text.abort    0x0000000008014320        0xe d:/stm32cubeide/stm32cubeide_1.11.2/stm32cubeide/plugins/com.st.stm32cube.ide.mcu.externaltools.gnu-tools-for-stm32.10.3-2021.10.win32_1.0.100.202210260954/tools/bin/../lib/gcc/arm-none-eabi/10.3.1/../../../../arm-none-eabi/lib/thumb/v7e-m+dp/hard\libc_nano.a(lib_a-abort.o)
                0x0000000008014320                abort
 *fill*         0x000000000801432e        0x2 
 .text._close_r
                0x0000000008014330       0x20 d:/stm32cubeide/stm32cubeide_1.11.2/stm32cubeide/plugins/com.st.stm32cube.ide.mcu.externaltools.gnu-tools-for-stm32.10.3-2021.10.win32_1.0.100.202210260954/tools/bin/../lib/gcc/arm-none-eabi/10.3.1/../../../../arm-none-eabi/lib/thumb/v7e-m+dp/hard\libc_nano.a(lib_a-closer.o)
                0x0000000008014330                _close_r
 .text.__sflush_r
                0x0000000008014350      0x10c d:/stm32cubeide/stm32cubeide_1.11.2/stm32cubeide/plugins/com.st.stm32cube.ide.mcu.externaltools.gnu-tools-for-stm32.10.3-2021.10.win32_1.0.100.202210260954/tools/bin/../lib/gcc/arm-none-eabi/10.3.1/../../../../arm-none-eabi/lib/thumb/v7e-m+dp/hard\libc_nano.a(lib_a-fflush.o)
                0x0000000008014350                __sflush_r
 .text._fflush_r
                0x000000000801445c       0x78 d:/stm32cubeide/stm32cubeide_1.11.2/stm32cubeide/plugins/com.st.stm32cube.ide.mcu.externaltools.gnu-tools-for-stm32.10.3-2021.10.win32_1.0.100.202210260954/tools/bin/../lib/gcc/arm-none-eabi/10.3.1/../../../../arm-none-eabi/lib/thumb/v7e-m+dp/hard\libc_nano.a(lib_a-fflush.o)
                0x000000000801445c                _fflush_r
 .text._lseek_r
                0x00000000080144d4       0x24 d:/stm32cubeide/stm32cubeide_1.11.2/stm32cubeide/plugins/com.st.stm32cube.ide.mcu.externaltools.gnu-tools-for-stm32.10.3-2021.10.win32_1.0.100.202210260954/tools/bin/../lib/gcc/arm-none-eabi/10.3.1/../../../../arm-none-eabi/lib/thumb/v7e-m+dp/hard\libc_nano.a(lib_a-lseekr.o)
                0x00000000080144d4                _lseek_r
 .text.__swhatbuf_r
                0x00000000080144f8       0x4a d:/stm32cubeide/stm32cubeide_1.11.2/stm32cubeide/plugins/com.st.stm32cube.ide.mcu.externaltools.gnu-tools-for-stm32.10.3-2021.10.win32_1.0.100.202210260954/tools/bin/../lib/gcc/arm-none-eabi/10.3.1/../../../../arm-none-eabi/lib/thumb/v7e-m+dp/hard\libc_nano.a(lib_a-makebuf.o)
                0x00000000080144f8                __swhatbuf_r
 *fill*         0x0000000008014542        0x2 
 .text.__smakebuf_r
                0x0000000008014544       0x80 d:/stm32cubeide/stm32cubeide_1.11.2/stm32cubeide/plugins/com.st.stm32cube.ide.mcu.externaltools.gnu-tools-for-stm32.10.3-2021.10.win32_1.0.100.202210260954/tools/bin/../lib/gcc/arm-none-eabi/10.3.1/../../../../arm-none-eabi/lib/thumb/v7e-m+dp/hard\libc_nano.a(lib_a-makebuf.o)
                0x0000000008014544                __smakebuf_r
 .text.__malloc_lock
                0x00000000080145c4        0xc d:/stm32cubeide/stm32cubeide_1.11.2/stm32cubeide/plugins/com.st.stm32cube.ide.mcu.externaltools.gnu-tools-for-stm32.10.3-2021.10.win32_1.0.100.202210260954/tools/bin/../lib/gcc/arm-none-eabi/10.3.1/../../../../arm-none-eabi/lib/thumb/v7e-m+dp/hard\libc_nano.a(lib_a-mlock.o)
                0x00000000080145c4                __malloc_lock
 .text.__malloc_unlock
                0x00000000080145d0        0xc d:/stm32cubeide/stm32cubeide_1.11.2/stm32cubeide/plugins/com.st.stm32cube.ide.mcu.externaltools.gnu-tools-for-stm32.10.3-2021.10.win32_1.0.100.202210260954/tools/bin/../lib/gcc/arm-none-eabi/10.3.1/../../../../arm-none-eabi/lib/thumb/v7e-m+dp/hard\libc_nano.a(lib_a-mlock.o)
                0x00000000080145d0                __malloc_unlock
 .text._read_r  0x00000000080145dc       0x24 d:/stm32cubeide/stm32cubeide_1.11.2/stm32cubeide/plugins/com.st.stm32cube.ide.mcu.externaltools.gnu-tools-for-stm32.10.3-2021.10.win32_1.0.100.202210260954/tools/bin/../lib/gcc/arm-none-eabi/10.3.1/../../../../arm-none-eabi/lib/thumb/v7e-m+dp/hard\libc_nano.a(lib_a-readr.o)
                0x00000000080145dc                _read_r
 .text._raise_r
                0x0000000008014600       0x50 d:/stm32cubeide/stm32cubeide_1.11.2/stm32cubeide/plugins/com.st.stm32cube.ide.mcu.externaltools.gnu-tools-for-stm32.10.3-2021.10.win32_1.0.100.202210260954/tools/bin/../lib/gcc/arm-none-eabi/10.3.1/../../../../arm-none-eabi/lib/thumb/v7e-m+dp/hard\libc_nano.a(lib_a-signal.o)
                0x0000000008014600                _raise_r
 .text.raise    0x0000000008014650       0x10 d:/stm32cubeide/stm32cubeide_1.11.2/stm32cubeide/plugins/com.st.stm32cube.ide.mcu.externaltools.gnu-tools-for-stm32.10.3-2021.10.win32_1.0.100.202210260954/tools/bin/../lib/gcc/arm-none-eabi/10.3.1/../../../../arm-none-eabi/lib/thumb/v7e-m+dp/hard\libc_nano.a(lib_a-signal.o)
                0x0000000008014650                raise
 .text._kill_r  0x0000000008014660       0x24 d:/stm32cubeide/stm32cubeide_1.11.2/stm32cubeide/plugins/com.st.stm32cube.ide.mcu.externaltools.gnu-tools-for-stm32.10.3-2021.10.win32_1.0.100.202210260954/tools/bin/../lib/gcc/arm-none-eabi/10.3.1/../../../../arm-none-eabi/lib/thumb/v7e-m+dp/hard\libc_nano.a(lib_a-signalr.o)
                0x0000000008014660                _kill_r
 .text._getpid_r
                0x0000000008014684        0x4 d:/stm32cubeide/stm32cubeide_1.11.2/stm32cubeide/plugins/com.st.stm32cube.ide.mcu.externaltools.gnu-tools-for-stm32.10.3-2021.10.win32_1.0.100.202210260954/tools/bin/../lib/gcc/arm-none-eabi/10.3.1/../../../../arm-none-eabi/lib/thumb/v7e-m+dp/hard\libc_nano.a(lib_a-signalr.o)
                0x0000000008014684                _getpid_r
 .text._fstat_r
                0x0000000008014688       0x24 d:/stm32cubeide/stm32cubeide_1.11.2/stm32cubeide/plugins/com.st.stm32cube.ide.mcu.externaltools.gnu-tools-for-stm32.10.3-2021.10.win32_1.0.100.202210260954/tools/bin/../lib/gcc/arm-none-eabi/10.3.1/../../../../arm-none-eabi/lib/thumb/v7e-m+dp/hard\libc_nano.a(lib_a-fstatr.o)
                0x0000000008014688                _fstat_r
 .text._isatty_r
                0x00000000080146ac       0x20 d:/stm32cubeide/stm32cubeide_1.11.2/stm32cubeide/plugins/com.st.stm32cube.ide.mcu.externaltools.gnu-tools-for-stm32.10.3-2021.10.win32_1.0.100.202210260954/tools/bin/../lib/gcc/arm-none-eabi/10.3.1/../../../../arm-none-eabi/lib/thumb/v7e-m+dp/hard\libc_nano.a(lib_a-isattyr.o)
                0x00000000080146ac                _isatty_r
 *(.glue_7)
 .glue_7        0x00000000080146cc        0x0 linker stubs
 *(.glue_7t)
 .glue_7t       0x00000000080146cc        0x0 linker stubs
 *(.eh_frame)
 .eh_frame      0x00000000080146cc        0x0 d:/stm32cubeide/stm32cubeide_1.11.2/stm32cubeide/plugins/com.st.stm32cube.ide.mcu.externaltools.gnu-tools-for-stm32.10.3-2021.10.win32_1.0.100.202210260954/tools/bin/../lib/gcc/arm-none-eabi/10.3.1/thumb/v7e-m+dp/hard/crtbegin.o
 *(.init)
 .init          0x00000000080146cc        0x4 d:/stm32cubeide/stm32cubeide_1.11.2/stm32cubeide/plugins/com.st.stm32cube.ide.mcu.externaltools.gnu-tools-for-stm32.10.3-2021.10.win32_1.0.100.202210260954/tools/bin/../lib/gcc/arm-none-eabi/10.3.1/thumb/v7e-m+dp/hard/crti.o
                0x00000000080146cc                _init
 .init          0x00000000080146d0        0x8 d:/stm32cubeide/stm32cubeide_1.11.2/stm32cubeide/plugins/com.st.stm32cube.ide.mcu.externaltools.gnu-tools-for-stm32.10.3-2021.10.win32_1.0.100.202210260954/tools/bin/../lib/gcc/arm-none-eabi/10.3.1/thumb/v7e-m+dp/hard/crtn.o
 *(.fini)
 .fini          0x00000000080146d8        0x4 d:/stm32cubeide/stm32cubeide_1.11.2/stm32cubeide/plugins/com.st.stm32cube.ide.mcu.externaltools.gnu-tools-for-stm32.10.3-2021.10.win32_1.0.100.202210260954/tools/bin/../lib/gcc/arm-none-eabi/10.3.1/thumb/v7e-m+dp/hard/crti.o
                0x00000000080146d8                _fini
 .fini          0x00000000080146dc        0x8 d:/stm32cubeide/stm32cubeide_1.11.2/stm32cubeide/plugins/com.st.stm32cube.ide.mcu.externaltools.gnu-tools-for-stm32.10.3-2021.10.win32_1.0.100.202210260954/tools/bin/../lib/gcc/arm-none-eabi/10.3.1/thumb/v7e-m+dp/hard/crtn.o
                0x00000000080146e4                . = ALIGN (0x4)
                0x00000000080146e4                _etext = .

.vfp11_veneer   0x00000000080146e4        0x0
 .vfp11_veneer  0x00000000080146e4        0x0 linker stubs

.v4_bx          0x00000000080146e4        0x0
 .v4_bx         0x00000000080146e4        0x0 linker stubs

.iplt           0x00000000080146e4        0x0
 .iplt          0x00000000080146e4        0x0 d:/stm32cubeide/stm32cubeide_1.11.2/stm32cubeide/plugins/com.st.stm32cube.ide.mcu.externaltools.gnu-tools-for-stm32.10.3-2021.10.win32_1.0.100.202210260954/tools/bin/../lib/gcc/arm-none-eabi/10.3.1/thumb/v7e-m+dp/hard/crtbegin.o

.rodata         0x00000000080146e4     0x34e4
                0x00000000080146e4                . = ALIGN (0x4)
 *(.rodata)
 .rodata        0x00000000080146e4       0x2e ./Core/Src/main.o
 *fill*         0x0000000008014712        0x2 
 .rodata        0x0000000008014714       0xcc ./LWIP/App/lwip.o
 .rodata        0x00000000080147e0       0x54 ./LWIP/Target/ethernetif.o
 .rodata        0x0000000008014834      0x7ad ./Middlewares/Third_Party/LwIP/src/apps/mqtt/mqtt.o
 *fill*         0x0000000008014fe1        0x3 
 .rodata        0x0000000008014fe4      0x25b ./Middlewares/Third_Party/LwIP/src/core/mem.o
 *fill*         0x000000000801523f        0x1 
 .rodata        0x0000000008015240       0xeb ./Middlewares/Third_Party/LwIP/src/core/memp.o
 *fill*         0x000000000801532b        0x1 
 .rodata        0x000000000801532c      0x22f ./Middlewares/Third_Party/LwIP/src/core/netif.o
 *fill*         0x000000000801555b        0x1 
 .rodata        0x000000000801555c      0x485 ./Middlewares/Third_Party/LwIP/src/core/pbuf.o
 *fill*         0x00000000080159e1        0x3 
 .rodata        0x00000000080159e4      0x7e0 ./Middlewares/Third_Party/LwIP/src/core/tcp.o
 .rodata        0x00000000080161c4      0x47e ./Middlewares/Third_Party/LwIP/src/core/tcp_in.o
 *fill*         0x0000000008016642        0x2 
 .rodata        0x0000000008016644      0x81b ./Middlewares/Third_Party/LwIP/src/core/tcp_out.o
 *fill*         0x0000000008016e5f        0x1 
 .rodata        0x0000000008016e60       0xe6 ./Middlewares/Third_Party/LwIP/src/core/timeouts.o
 *fill*         0x0000000008016f46        0x2 
 .rodata        0x0000000008016f48      0x364 ./Middlewares/Third_Party/LwIP/src/core/udp.o
 .rodata        0x00000000080172ac      0x275 ./Middlewares/Third_Party/LwIP/src/core/ipv4/etharp.o
 *fill*         0x0000000008017521        0x3 
 .rodata        0x0000000008017524       0xf8 ./Middlewares/Third_Party/LwIP/src/core/ipv4/icmp.o
 .rodata        0x000000000801761c       0x95 ./Middlewares/Third_Party/LwIP/src/core/ipv4/ip4.o
 *fill*         0x00000000080176b1        0x3 
 .rodata        0x00000000080176b4      0x227 ./Middlewares/Third_Party/LwIP/src/core/ipv4/ip4_frag.o
 *fill*         0x00000000080178db        0x1 
 .rodata        0x00000000080178dc       0x94 ./Middlewares/Third_Party/LwIP/src/netif/ethernet.o
 *(.rodata*)
 .rodata.AHBPrescTable
                0x0000000008017970       0x10 ./Core/Src/system_stm32f7xx.o
                0x0000000008017970                AHBPrescTable
 .rodata.APBPrescTable
                0x0000000008017980        0x8 ./Core/Src/system_stm32f7xx.o
                0x0000000008017980                APBPrescTable
 .rodata.flagBitshiftOffset.0
                0x0000000008017988        0x8 ./Drivers/STM32F7xx_HAL_Driver/Src/stm32f7xx_hal_dma.o
 .rodata.memp_RX_POOL
                0x0000000008017990        0xc ./LWIP/Target/ethernetif.o
                0x0000000008017990                memp_RX_POOL
 .rodata.memp_UDP_PCB
                0x000000000801799c        0xc ./Middlewares/Third_Party/LwIP/src/core/memp.o
                0x000000000801799c                memp_UDP_PCB
 .rodata.memp_TCP_PCB
                0x00000000080179a8        0xc ./Middlewares/Third_Party/LwIP/src/core/memp.o
                0x00000000080179a8                memp_TCP_PCB
 .rodata.memp_TCP_PCB_LISTEN
                0x00000000080179b4        0xc ./Middlewares/Third_Party/LwIP/src/core/memp.o
                0x00000000080179b4                memp_TCP_PCB_LISTEN
 .rodata.memp_TCP_SEG
                0x00000000080179c0        0xc ./Middlewares/Third_Party/LwIP/src/core/memp.o
                0x00000000080179c0                memp_TCP_SEG
 .rodata.memp_REASSDATA
                0x00000000080179cc        0xc ./Middlewares/Third_Party/LwIP/src/core/memp.o
                0x00000000080179cc                memp_REASSDATA
 .rodata.memp_FRAG_PBUF
                0x00000000080179d8        0xc ./Middlewares/Third_Party/LwIP/src/core/memp.o
                0x00000000080179d8                memp_FRAG_PBUF
 .rodata.memp_SYS_TIMEOUT
                0x00000000080179e4        0xc ./Middlewares/Third_Party/LwIP/src/core/memp.o
                0x00000000080179e4                memp_SYS_TIMEOUT
 .rodata.memp_PBUF
                0x00000000080179f0        0xc ./Middlewares/Third_Party/LwIP/src/core/memp.o
                0x00000000080179f0                memp_PBUF
 .rodata.memp_PBUF_POOL
                0x00000000080179fc        0xc ./Middlewares/Third_Party/LwIP/src/core/memp.o
                0x00000000080179fc                memp_PBUF_POOL
 .rodata.memp_pools
                0x0000000008017a08       0x24 ./Middlewares/Third_Party/LwIP/src/core/memp.o
                0x0000000008017a08                memp_pools
 .rodata.tcp_backoff
                0x0000000008017a2c        0xd ./Middlewares/Third_Party/LwIP/src/core/tcp.o
 *fill*         0x0000000008017a39        0x3 
 .rodata.tcp_persist_backoff
                0x0000000008017a3c        0x7 ./Middlewares/Third_Party/LwIP/src/core/tcp.o
 *fill*         0x0000000008017a43        0x1 
 .rodata.tcp_pcb_lists
                0x0000000008017a44       0x10 ./Middlewares/Third_Party/LwIP/src/core/tcp.o
                0x0000000008017a44                tcp_pcb_lists
 .rodata.lwip_cyclic_timers
                0x0000000008017a54       0x18 ./Middlewares/Third_Party/LwIP/src/core/timeouts.o
                0x0000000008017a54                lwip_cyclic_timers
 .rodata.ip_addr_any
                0x0000000008017a6c        0x4 ./Middlewares/Third_Party/LwIP/src/core/ipv4/ip4_addr.o
                0x0000000008017a6c                ip_addr_any
 .rodata.ethbroadcast
                0x0000000008017a70        0x6 ./Middlewares/Third_Party/LwIP/src/netif/ethernet.o
                0x0000000008017a70                ethbroadcast
 *fill*         0x0000000008017a76        0x2 
 .rodata.ethzero
                0x0000000008017a78        0x6 ./Middlewares/Third_Party/LwIP/src/netif/ethernet.o
                0x0000000008017a78                ethzero
 *fill*         0x0000000008017a7e        0x2 
 .rodata._global_impure_ptr
                0x0000000008017a80        0x4 d:/stm32cubeide/stm32cubeide_1.11.2/stm32cubeide/plugins/com.st.stm32cube.ide.mcu.externaltools.gnu-tools-for-stm32.10.3-2021.10.win32_1.0.100.202210260954/tools/bin/../lib/gcc/arm-none-eabi/10.3.1/../../../../arm-none-eabi/lib/thumb/v7e-m+dp/hard\libc_nano.a(lib_a-impure.o)
                0x0000000008017a80                _global_impure_ptr
 .rodata.srand.str1.1
                0x0000000008017a84       0x72 d:/stm32cubeide/stm32cubeide_1.11.2/stm32cubeide/plugins/com.st.stm32cube.ide.mcu.externaltools.gnu-tools-for-stm32.10.3-2021.10.win32_1.0.100.202210260954/tools/bin/../lib/gcc/arm-none-eabi/10.3.1/../../../../arm-none-eabi/lib/thumb/v7e-m+dp/hard\libc_nano.a(lib_a-rand.o)
 .rodata.__assert_func.str1.1
                0x0000000008017af6       0x3c d:/stm32cubeide/stm32cubeide_1.11.2/stm32cubeide/plugins/com.st.stm32cube.ide.mcu.externaltools.gnu-tools-for-stm32.10.3-2021.10.win32_1.0.100.202210260954/tools/bin/../lib/gcc/arm-none-eabi/10.3.1/../../../../arm-none-eabi/lib/thumb/v7e-m+dp/hard\libc_nano.a(lib_a-assert.o)
                                         0x3d (size before relaxing)
 *fill*         0x0000000008017b32        0x2 
 .rodata.__sf_fake_stderr
                0x0000000008017b34       0x20 d:/stm32cubeide/stm32cubeide_1.11.2/stm32cubeide/plugins/com.st.stm32cube.ide.mcu.externaltools.gnu-tools-for-stm32.10.3-2021.10.win32_1.0.100.202210260954/tools/bin/../lib/gcc/arm-none-eabi/10.3.1/../../../../arm-none-eabi/lib/thumb/v7e-m+dp/hard\libc_nano.a(lib_a-findfp.o)
                0x0000000008017b34                __sf_fake_stderr
 .rodata.__sf_fake_stdin
                0x0000000008017b54       0x20 d:/stm32cubeide/stm32cubeide_1.11.2/stm32cubeide/plugins/com.st.stm32cube.ide.mcu.externaltools.gnu-tools-for-stm32.10.3-2021.10.win32_1.0.100.202210260954/tools/bin/../lib/gcc/arm-none-eabi/10.3.1/../../../../arm-none-eabi/lib/thumb/v7e-m+dp/hard\libc_nano.a(lib_a-findfp.o)
                0x0000000008017b54                __sf_fake_stdin
 .rodata.__sf_fake_stdout
                0x0000000008017b74       0x20 d:/stm32cubeide/stm32cubeide_1.11.2/stm32cubeide/plugins/com.st.stm32cube.ide.mcu.externaltools.gnu-tools-for-stm32.10.3-2021.10.win32_1.0.100.202210260954/tools/bin/../lib/gcc/arm-none-eabi/10.3.1/../../../../arm-none-eabi/lib/thumb/v7e-m+dp/hard\libc_nano.a(lib_a-findfp.o)
                0x0000000008017b74                __sf_fake_stdout
 .rodata._vfprintf_r.str1.1
                0x0000000008017b94       0x11 d:/stm32cubeide/stm32cubeide_1.11.2/stm32cubeide/plugins/com.st.stm32cube.ide.mcu.externaltools.gnu-tools-for-stm32.10.3-2021.10.win32_1.0.100.202210260954/tools/bin/../lib/gcc/arm-none-eabi/10.3.1/../../../../arm-none-eabi/lib/thumb/v7e-m+dp/hard\libc_nano.a(lib_a-nano-vfprintf.o)
 .rodata._printf_i.str1.1
                0x0000000008017ba5       0x22 d:/stm32cubeide/stm32cubeide_1.11.2/stm32cubeide/plugins/com.st.stm32cube.ide.mcu.externaltools.gnu-tools-for-stm32.10.3-2021.10.win32_1.0.100.202210260954/tools/bin/../lib/gcc/arm-none-eabi/10.3.1/../../../../arm-none-eabi/lib/thumb/v7e-m+dp/hard\libc_nano.a(lib_a-nano-vfprintf_i.o)
                0x0000000008017bc8                . = ALIGN (0x4)
 *fill*         0x0000000008017bc7        0x1 

.ARM.extab      0x0000000008017bc8        0x0
                0x0000000008017bc8                . = ALIGN (0x4)
 *(.ARM.extab* .gnu.linkonce.armextab.*)
                0x0000000008017bc8                . = ALIGN (0x4)

.ARM            0x0000000008017bc8        0x8
                0x0000000008017bc8                . = ALIGN (0x4)
                0x0000000008017bc8                __exidx_start = .
 *(.ARM.exidx*)
 .ARM.exidx     0x0000000008017bc8        0x8 d:/stm32cubeide/stm32cubeide_1.11.2/stm32cubeide/plugins/com.st.stm32cube.ide.mcu.externaltools.gnu-tools-for-stm32.10.3-2021.10.win32_1.0.100.202210260954/tools/bin/../lib/gcc/arm-none-eabi/10.3.1/thumb/v7e-m+dp/hard\libgcc.a(_udivmoddi4.o)
                0x0000000008017bd0                __exidx_end = .
                0x0000000008017bd0                . = ALIGN (0x4)

.rel.dyn        0x0000000008017bd0        0x0
 .rel.iplt      0x0000000008017bd0        0x0 d:/stm32cubeide/stm32cubeide_1.11.2/stm32cubeide/plugins/com.st.stm32cube.ide.mcu.externaltools.gnu-tools-for-stm32.10.3-2021.10.win32_1.0.100.202210260954/tools/bin/../lib/gcc/arm-none-eabi/10.3.1/thumb/v7e-m+dp/hard/crtbegin.o

.preinit_array  0x0000000008017bd0        0x0
                0x0000000008017bd0                . = ALIGN (0x4)
                0x0000000008017bd0                PROVIDE (__preinit_array_start = .)
 *(.preinit_array*)
                0x0000000008017bd0                PROVIDE (__preinit_array_end = .)
                0x0000000008017bd0                . = ALIGN (0x4)

.init_array     0x0000000008017bd0        0x4
                0x0000000008017bd0                . = ALIGN (0x4)
                0x0000000008017bd0                PROVIDE (__init_array_start = .)
 *(SORT_BY_NAME(.init_array.*))
 *(.init_array*)
 .init_array    0x0000000008017bd0        0x4 d:/stm32cubeide/stm32cubeide_1.11.2/stm32cubeide/plugins/com.st.stm32cube.ide.mcu.externaltools.gnu-tools-for-stm32.10.3-2021.10.win32_1.0.100.202210260954/tools/bin/../lib/gcc/arm-none-eabi/10.3.1/thumb/v7e-m+dp/hard/crtbegin.o
                0x0000000008017bd4                PROVIDE (__init_array_end = .)
                0x0000000008017bd4                . = ALIGN (0x4)

.fini_array     0x0000000008017bd4        0x4
                0x0000000008017bd4                . = ALIGN (0x4)
                [!provide]                        PROVIDE (__fini_array_start = .)
 *(SORT_BY_NAME(.fini_array.*))
 *(.fini_array*)
 .fini_array    0x0000000008017bd4        0x4 d:/stm32cubeide/stm32cubeide_1.11.2/stm32cubeide/plugins/com.st.stm32cube.ide.mcu.externaltools.gnu-tools-for-stm32.10.3-2021.10.win32_1.0.100.202210260954/tools/bin/../lib/gcc/arm-none-eabi/10.3.1/thumb/v7e-m+dp/hard/crtbegin.o
                [!provide]                        PROVIDE (__fini_array_end = .)
                0x0000000008017bd8                . = ALIGN (0x4)
                0x0000000008017bd8                _sidata = LOADADDR (.data)

.data           0x0000000020000000       0x94 load address 0x0000000008017bd8
                0x0000000020000000                . = ALIGN (0x4)
                0x0000000020000000                _sdata = .
 *(.data)
 *(.data*)
 .data.SystemCoreClock
                0x0000000020000000        0x4 ./Core/Src/system_stm32f7xx.o
                0x0000000020000000                SystemCoreClock
 .data.cmd      0x0000000020000004        0x1 ./Core/Src/usart.o
 *fill*         0x0000000020000005        0x3 
 .data.uwTickPrio
                0x0000000020000008        0x4 ./Drivers/STM32F7xx_HAL_Driver/Src/stm32f7xx_hal.o
                0x0000000020000008                uwTickPrio
 .data.uwTickFreq
                0x000000002000000c        0x1 ./Drivers/STM32F7xx_HAL_Driver/Src/stm32f7xx_hal.o
                0x000000002000000c                uwTickFreq
 *fill*         0x000000002000000d        0x3 
 .data.LAN8742_IOCtx
                0x0000000020000010       0x14 ./LWIP/Target/ethernetif.o
                0x0000000020000010                LAN8742_IOCtx
 .data.tcp_port
                0x0000000020000024        0x2 ./Middlewares/Third_Party/LwIP/src/core/tcp.o
 *fill*         0x0000000020000026        0x2 
 .data.iss.0    0x0000000020000028        0x4 ./Middlewares/Third_Party/LwIP/src/core/tcp.o
 .data.udp_port
                0x000000002000002c        0x2 ./Middlewares/Third_Party/LwIP/src/core/udp.o
 *fill*         0x000000002000002e        0x2 
 .data._impure_ptr
                0x0000000020000030        0x4 d:/stm32cubeide/stm32cubeide_1.11.2/stm32cubeide/plugins/com.st.stm32cube.ide.mcu.externaltools.gnu-tools-for-stm32.10.3-2021.10.win32_1.0.100.202210260954/tools/bin/../lib/gcc/arm-none-eabi/10.3.1/../../../../arm-none-eabi/lib/thumb/v7e-m+dp/hard\libc_nano.a(lib_a-impure.o)
                0x0000000020000030                _impure_ptr
 .data.impure_data
                0x0000000020000034       0x60 d:/stm32cubeide/stm32cubeide_1.11.2/stm32cubeide/plugins/com.st.stm32cube.ide.mcu.externaltools.gnu-tools-for-stm32.10.3-2021.10.win32_1.0.100.202210260954/tools/bin/../lib/gcc/arm-none-eabi/10.3.1/../../../../arm-none-eabi/lib/thumb/v7e-m+dp/hard\libc_nano.a(lib_a-impure.o)
 *(.RamFunc)
 *(.RamFunc*)
                0x0000000020000094                . = ALIGN (0x4)
                0x0000000020000094                _edata = .

.igot.plt       0x0000000020000094        0x0 load address 0x0000000008017c6c
 .igot.plt      0x0000000020000094        0x0 d:/stm32cubeide/stm32cubeide_1.11.2/stm32cubeide/plugins/com.st.stm32cube.ide.mcu.externaltools.gnu-tools-for-stm32.10.3-2021.10.win32_1.0.100.202210260954/tools/bin/../lib/gcc/arm-none-eabi/10.3.1/thumb/v7e-m+dp/hard/crtbegin.o

.RxDecripSection
                0x0000000020000094       0xa0 load address 0x0000000008017c6c
 .RxDecripSection
                0x0000000020000094       0xa0 ./LWIP/Target/ethernetif.o
                0x0000000020000094                DMARxDscrTab

.TxDecripSection
                0x0000000020000134       0xa0 load address 0x0000000008017d0c
 .TxDecripSection
                0x0000000020000134       0xa0 ./LWIP/Target/ethernetif.o
                0x0000000020000134                DMATxDscrTab
                0x00000000200001d4                . = ALIGN (0x4)

.bss            0x00000000200001d4     0x8338 load address 0x0000000008017dac
                0x00000000200001d4                _sbss = .
                0x00000000200001d4                __bss_start__ = _sbss
 *(.bss)
 .bss           0x00000000200001d4       0x1c d:/stm32cubeide/stm32cubeide_1.11.2/stm32cubeide/plugins/com.st.stm32cube.ide.mcu.externaltools.gnu-tools-for-stm32.10.3-2021.10.win32_1.0.100.202210260954/tools/bin/../lib/gcc/arm-none-eabi/10.3.1/thumb/v7e-m+dp/hard/crtbegin.o
 *(.bss*)
 .bss.LD2Time.1
                0x00000000200001f0        0x4 ./Core/Src/main.o
 .bss.uartTime.0
                0x00000000200001f4        0x4 ./Core/Src/main.o
 .bss.__sbrk_heap_end
                0x00000000200001f8        0x4 ./Core/Src/sysmem.o
 .bss.htim2     0x00000000200001fc       0x4c ./Core/Src/tim.o
                0x00000000200001fc                htim2
 .bss.recData   0x0000000020000248        0x1 ./Core/Src/usart.o
 *fill*         0x0000000020000249        0x3 
 .bss.huart3    0x000000002000024c       0x88 ./Core/Src/usart.o
                0x000000002000024c                huart3
 .bss.hdma_usart3_rx
                0x00000000200002d4       0x60 ./Core/Src/usart.o
                0x00000000200002d4                hdma_usart3_rx
 .bss.uwTick    0x0000000020000334        0x4 ./Drivers/STM32F7xx_HAL_Driver/Src/stm32f7xx_hal.o
                0x0000000020000334                uwTick
 .bss.EthernetLinkTimer
                0x0000000020000338        0x4 ./LWIP/App/lwip.o
                0x0000000020000338                EthernetLinkTimer
 .bss.gnetif    0x000000002000033c       0x34 ./LWIP/App/lwip.o
                0x000000002000033c                gnetif
 .bss.ipaddr    0x0000000020000370        0x4 ./LWIP/App/lwip.o
                0x0000000020000370                ipaddr
 .bss.netmask   0x0000000020000374        0x4 ./LWIP/App/lwip.o
                0x0000000020000374                netmask
 .bss.gw        0x0000000020000378        0x4 ./LWIP/App/lwip.o
                0x0000000020000378                gw
 .bss.IP_ADDRESS
                0x000000002000037c        0x4 ./LWIP/App/lwip.o
                0x000000002000037c                IP_ADDRESS
 .bss.NETMASK_ADDRESS
                0x0000000020000380        0x4 ./LWIP/App/lwip.o
                0x0000000020000380                NETMASK_ADDRESS
 .bss.GATEWAY_ADDRESS
                0x0000000020000384        0x4 ./LWIP/App/lwip.o
                0x0000000020000384                GATEWAY_ADDRESS
 .bss.mqtt_client
                0x0000000020000388        0x4 ./LWIP/App/lwip.o
                0x0000000020000388                mqtt_client
 .bss.memp_memory_RX_POOL_base
                0x000000002000038c     0x4983 ./LWIP/Target/ethernetif.o
                0x000000002000038c                memp_memory_RX_POOL_base
 *fill*         0x0000000020004d0f        0x1 
 .bss.memp_tab_RX_POOL
                0x0000000020004d10        0x4 ./LWIP/Target/ethernetif.o
 .bss.RxAllocStatus
                0x0000000020004d14        0x1 ./LWIP/Target/ethernetif.o
 *fill*         0x0000000020004d15        0x3 
 .bss.heth      0x0000000020004d18       0xb0 ./LWIP/Target/ethernetif.o
                0x0000000020004d18                heth
 .bss.TxConfig  0x0000000020004dc8       0x38 ./LWIP/Target/ethernetif.o
                0x0000000020004dc8                TxConfig
 .bss.LAN8742   0x0000000020004e00       0x20 ./LWIP/Target/ethernetif.o
                0x0000000020004e00                LAN8742
 .bss.ip_data   0x0000000020004e20       0x18 ./Middlewares/Third_Party/LwIP/src/core/ip.o
                0x0000000020004e20                ip_data
 .bss.ram_heap  0x0000000020004e38      0x653 ./Middlewares/Third_Party/LwIP/src/core/mem.o
                0x0000000020004e38                ram_heap
 *fill*         0x000000002000548b        0x1 
 .bss.ram       0x000000002000548c        0x4 ./Middlewares/Third_Party/LwIP/src/core/mem.o
 .bss.ram_end   0x0000000020005490        0x4 ./Middlewares/Third_Party/LwIP/src/core/mem.o
 .bss.lfree     0x0000000020005494        0x4 ./Middlewares/Third_Party/LwIP/src/core/mem.o
 .bss.memp_memory_UDP_PCB_base
                0x0000000020005498       0x83 ./Middlewares/Third_Party/LwIP/src/core/memp.o
                0x0000000020005498                memp_memory_UDP_PCB_base
 *fill*         0x000000002000551b        0x1 
 .bss.memp_tab_UDP_PCB
                0x000000002000551c        0x4 ./Middlewares/Third_Party/LwIP/src/core/memp.o
 .bss.memp_memory_TCP_PCB_base
                0x0000000020005520      0x30f ./Middlewares/Third_Party/LwIP/src/core/memp.o
                0x0000000020005520                memp_memory_TCP_PCB_base
 *fill*         0x000000002000582f        0x1 
 .bss.memp_tab_TCP_PCB
                0x0000000020005830        0x4 ./Middlewares/Third_Party/LwIP/src/core/memp.o
 .bss.memp_memory_TCP_PCB_LISTEN_base
                0x0000000020005834       0xe3 ./Middlewares/Third_Party/LwIP/src/core/memp.o
                0x0000000020005834                memp_memory_TCP_PCB_LISTEN_base
 *fill*         0x0000000020005917        0x1 
 .bss.memp_tab_TCP_PCB_LISTEN
                0x0000000020005918        0x4 ./Middlewares/Third_Party/LwIP/src/core/memp.o
 .bss.memp_memory_TCP_SEG_base
                0x000000002000591c      0x103 ./Middlewares/Third_Party/LwIP/src/core/memp.o
                0x000000002000591c                memp_memory_TCP_SEG_base
 *fill*         0x0000000020005a1f        0x1 
 .bss.memp_tab_TCP_SEG
                0x0000000020005a20        0x4 ./Middlewares/Third_Party/LwIP/src/core/memp.o
 .bss.memp_memory_REASSDATA_base
                0x0000000020005a24       0xa3 ./Middlewares/Third_Party/LwIP/src/core/memp.o
                0x0000000020005a24                memp_memory_REASSDATA_base
 *fill*         0x0000000020005ac7        0x1 
 .bss.memp_tab_REASSDATA
                0x0000000020005ac8        0x4 ./Middlewares/Third_Party/LwIP/src/core/memp.o
 .bss.memp_memory_FRAG_PBUF_base
                0x0000000020005acc      0x16b ./Middlewares/Third_Party/LwIP/src/core/memp.o
                0x0000000020005acc                memp_memory_FRAG_PBUF_base
 *fill*         0x0000000020005c37        0x1 
 .bss.memp_tab_FRAG_PBUF
                0x0000000020005c38        0x4 ./Middlewares/Third_Party/LwIP/src/core/memp.o
 .bss.memp_memory_SYS_TIMEOUT_base
                0x0000000020005c3c       0x33 ./Middlewares/Third_Party/LwIP/src/core/memp.o
                0x0000000020005c3c                memp_memory_SYS_TIMEOUT_base
 *fill*         0x0000000020005c6f        0x1 
 .bss.memp_tab_SYS_TIMEOUT
                0x0000000020005c70        0x4 ./Middlewares/Third_Party/LwIP/src/core/memp.o
 .bss.memp_memory_PBUF_base
                0x0000000020005c74      0x103 ./Middlewares/Third_Party/LwIP/src/core/memp.o
                0x0000000020005c74                memp_memory_PBUF_base
 *fill*         0x0000000020005d77        0x1 
 .bss.memp_tab_PBUF
                0x0000000020005d78        0x4 ./Middlewares/Third_Party/LwIP/src/core/memp.o
 .bss.memp_memory_PBUF_POOL_base
                0x0000000020005d7c     0x2603 ./Middlewares/Third_Party/LwIP/src/core/memp.o
                0x0000000020005d7c                memp_memory_PBUF_POOL_base
 *fill*         0x000000002000837f        0x1 
 .bss.memp_tab_PBUF_POOL
                0x0000000020008380        0x4 ./Middlewares/Third_Party/LwIP/src/core/memp.o
 .bss.netif_list
                0x0000000020008384        0x4 ./Middlewares/Third_Party/LwIP/src/core/netif.o
                0x0000000020008384                netif_list
 .bss.netif_default
                0x0000000020008388        0x4 ./Middlewares/Third_Party/LwIP/src/core/netif.o
                0x0000000020008388                netif_default
 .bss.netif_num
                0x000000002000838c        0x1 ./Middlewares/Third_Party/LwIP/src/core/netif.o
 .bss.pbuf_free_ooseq_pending
                0x000000002000838d        0x1 ./Middlewares/Third_Party/LwIP/src/core/pbuf.o
                0x000000002000838d                pbuf_free_ooseq_pending
 *fill*         0x000000002000838e        0x2 
 .bss.tcp_ticks
                0x0000000020008390        0x4 ./Middlewares/Third_Party/LwIP/src/core/tcp.o
                0x0000000020008390                tcp_ticks
 .bss.tcp_bound_pcbs
                0x0000000020008394        0x4 ./Middlewares/Third_Party/LwIP/src/core/tcp.o
                0x0000000020008394                tcp_bound_pcbs
 .bss.tcp_listen_pcbs
                0x0000000020008398        0x4 ./Middlewares/Third_Party/LwIP/src/core/tcp.o
                0x0000000020008398                tcp_listen_pcbs
 .bss.tcp_active_pcbs
                0x000000002000839c        0x4 ./Middlewares/Third_Party/LwIP/src/core/tcp.o
                0x000000002000839c                tcp_active_pcbs
 .bss.tcp_tw_pcbs
                0x00000000200083a0        0x4 ./Middlewares/Third_Party/LwIP/src/core/tcp.o
                0x00000000200083a0                tcp_tw_pcbs
 .bss.tcp_active_pcbs_changed
                0x00000000200083a4        0x1 ./Middlewares/Third_Party/LwIP/src/core/tcp.o
                0x00000000200083a4                tcp_active_pcbs_changed
 .bss.tcp_timer
                0x00000000200083a5        0x1 ./Middlewares/Third_Party/LwIP/src/core/tcp.o
 .bss.tcp_timer_ctr
                0x00000000200083a6        0x1 ./Middlewares/Third_Party/LwIP/src/core/tcp.o
 *fill*         0x00000000200083a7        0x1 
 .bss.inseg     0x00000000200083a8       0x10 ./Middlewares/Third_Party/LwIP/src/core/tcp_in.o
 .bss.tcphdr    0x00000000200083b8        0x4 ./Middlewares/Third_Party/LwIP/src/core/tcp_in.o
 .bss.tcphdr_optlen
                0x00000000200083bc        0x2 ./Middlewares/Third_Party/LwIP/src/core/tcp_in.o
 .bss.tcphdr_opt1len
                0x00000000200083be        0x2 ./Middlewares/Third_Party/LwIP/src/core/tcp_in.o
 .bss.tcphdr_opt2
                0x00000000200083c0        0x4 ./Middlewares/Third_Party/LwIP/src/core/tcp_in.o
 .bss.tcp_optidx
                0x00000000200083c4        0x2 ./Middlewares/Third_Party/LwIP/src/core/tcp_in.o
 *fill*         0x00000000200083c6        0x2 
 .bss.seqno     0x00000000200083c8        0x4 ./Middlewares/Third_Party/LwIP/src/core/tcp_in.o
 .bss.ackno     0x00000000200083cc        0x4 ./Middlewares/Third_Party/LwIP/src/core/tcp_in.o
 .bss.recv_acked
                0x00000000200083d0        0x2 ./Middlewares/Third_Party/LwIP/src/core/tcp_in.o
 .bss.tcplen    0x00000000200083d2        0x2 ./Middlewares/Third_Party/LwIP/src/core/tcp_in.o
 .bss.flags     0x00000000200083d4        0x1 ./Middlewares/Third_Party/LwIP/src/core/tcp_in.o
 .bss.recv_flags
                0x00000000200083d5        0x1 ./Middlewares/Third_Party/LwIP/src/core/tcp_in.o
 *fill*         0x00000000200083d6        0x2 
 .bss.recv_data
                0x00000000200083d8        0x4 ./Middlewares/Third_Party/LwIP/src/core/tcp_in.o
 .bss.tcp_input_pcb
                0x00000000200083dc        0x4 ./Middlewares/Third_Party/LwIP/src/core/tcp_in.o
                0x00000000200083dc                tcp_input_pcb
 .bss.next_timeout
                0x00000000200083e0        0x4 ./Middlewares/Third_Party/LwIP/src/core/timeouts.o
 .bss.current_timeout_due_time
                0x00000000200083e4        0x4 ./Middlewares/Third_Party/LwIP/src/core/timeouts.o
 .bss.tcpip_tcp_timer_active
                0x00000000200083e8        0x4 ./Middlewares/Third_Party/LwIP/src/core/timeouts.o
 .bss.udp_pcbs  0x00000000200083ec        0x4 ./Middlewares/Third_Party/LwIP/src/core/udp.o
                0x00000000200083ec                udp_pcbs
 .bss.arp_table
                0x00000000200083f0       0xf0 ./Middlewares/Third_Party/LwIP/src/core/ipv4/etharp.o
 .bss.etharp_cached_entry
                0x00000000200084e0        0x1 ./Middlewares/Third_Party/LwIP/src/core/ipv4/etharp.o
 *fill*         0x00000000200084e1        0x1 
 .bss.ip_id     0x00000000200084e2        0x2 ./Middlewares/Third_Party/LwIP/src/core/ipv4/ip4.o
 .bss.str.0     0x00000000200084e4       0x10 ./Middlewares/Third_Party/LwIP/src/core/ipv4/ip4_addr.o
 .bss.reassdatagrams
                0x00000000200084f4        0x4 ./Middlewares/Third_Party/LwIP/src/core/ipv4/ip4_frag.o
 .bss.ip_reass_pbufcount
                0x00000000200084f8        0x2 ./Middlewares/Third_Party/LwIP/src/core/ipv4/ip4_frag.o
 *fill*         0x00000000200084fa        0x2 
 .bss.errno     0x00000000200084fc        0x4 d:/stm32cubeide/stm32cubeide_1.11.2/stm32cubeide/plugins/com.st.stm32cube.ide.mcu.externaltools.gnu-tools-for-stm32.10.3-2021.10.win32_1.0.100.202210260954/tools/bin/../lib/gcc/arm-none-eabi/10.3.1/../../../../arm-none-eabi/lib/thumb/v7e-m+dp/hard\libc_nano.a(lib_a-reent.o)
                0x00000000200084fc                errno
 .bss.__lock___malloc_recursive_mutex
                0x0000000020008500        0x1 d:/stm32cubeide/stm32cubeide_1.11.2/stm32cubeide/plugins/com.st.stm32cube.ide.mcu.externaltools.gnu-tools-for-stm32.10.3-2021.10.win32_1.0.100.202210260954/tools/bin/../lib/gcc/arm-none-eabi/10.3.1/../../../../arm-none-eabi/lib/thumb/v7e-m+dp/hard\libc_nano.a(lib_a-lock.o)
                0x0000000020008500                __lock___malloc_recursive_mutex
 .bss.__lock___sfp_recursive_mutex
                0x0000000020008501        0x1 d:/stm32cubeide/stm32cubeide_1.11.2/stm32cubeide/plugins/com.st.stm32cube.ide.mcu.externaltools.gnu-tools-for-stm32.10.3-2021.10.win32_1.0.100.202210260954/tools/bin/../lib/gcc/arm-none-eabi/10.3.1/../../../../arm-none-eabi/lib/thumb/v7e-m+dp/hard\libc_nano.a(lib_a-lock.o)
                0x0000000020008501                __lock___sfp_recursive_mutex
 .bss.__lock___sinit_recursive_mutex
                0x0000000020008502        0x1 d:/stm32cubeide/stm32cubeide_1.11.2/stm32cubeide/plugins/com.st.stm32cube.ide.mcu.externaltools.gnu-tools-for-stm32.10.3-2021.10.win32_1.0.100.202210260954/tools/bin/../lib/gcc/arm-none-eabi/10.3.1/../../../../arm-none-eabi/lib/thumb/v7e-m+dp/hard\libc_nano.a(lib_a-lock.o)
                0x0000000020008502                __lock___sinit_recursive_mutex
 *fill*         0x0000000020008503        0x1 
 .bss.__malloc_free_list
                0x0000000020008504        0x4 d:/stm32cubeide/stm32cubeide_1.11.2/stm32cubeide/plugins/com.st.stm32cube.ide.mcu.externaltools.gnu-tools-for-stm32.10.3-2021.10.win32_1.0.100.202210260954/tools/bin/../lib/gcc/arm-none-eabi/10.3.1/../../../../arm-none-eabi/lib/thumb/v7e-m+dp/hard\libc_nano.a(lib_a-nano-mallocr.o)
                0x0000000020008504                __malloc_free_list
 .bss.__malloc_sbrk_start
                0x0000000020008508        0x4 d:/stm32cubeide/stm32cubeide_1.11.2/stm32cubeide/plugins/com.st.stm32cube.ide.mcu.externaltools.gnu-tools-for-stm32.10.3-2021.10.win32_1.0.100.202210260954/tools/bin/../lib/gcc/arm-none-eabi/10.3.1/../../../../arm-none-eabi/lib/thumb/v7e-m+dp/hard\libc_nano.a(lib_a-nano-mallocr.o)
                0x0000000020008508                __malloc_sbrk_start
 *(COMMON)
                0x000000002000850c                . = ALIGN (0x4)
                0x000000002000850c                _ebss = .
                0x000000002000850c                __bss_end__ = _ebss

._user_heap_stack
                0x000000002000850c      0x604 load address 0x0000000008017dac
                0x0000000020008510                . = ALIGN (0x8)
 *fill*         0x000000002000850c        0x4 
                [!provide]                        PROVIDE (end = .)
                0x0000000020008510                PROVIDE (_end = .)
                0x0000000020008710                . = (. + _Min_Heap_Size)
 *fill*         0x0000000020008510      0x200 
                0x0000000020008b10                . = (. + _Min_Stack_Size)
 *fill*         0x0000000020008710      0x400 
                0x0000000020008b10                . = ALIGN (0x8)

/DISCARD/
 libc.a(*)
 libm.a(*)
 libgcc.a(*)

.ARM.attributes
                0x0000000000000000       0x2e
 *(.ARM.attributes)
 .ARM.attributes
                0x0000000000000000       0x1e d:/stm32cubeide/stm32cubeide_1.11.2/stm32cubeide/plugins/com.st.stm32cube.ide.mcu.externaltools.gnu-tools-for-stm32.10.3-2021.10.win32_1.0.100.202210260954/tools/bin/../lib/gcc/arm-none-eabi/10.3.1/thumb/v7e-m+dp/hard/crti.o
 .ARM.attributes
                0x000000000000001e       0x32 d:/stm32cubeide/stm32cubeide_1.11.2/stm32cubeide/plugins/com.st.stm32cube.ide.mcu.externaltools.gnu-tools-for-stm32.10.3-2021.10.win32_1.0.100.202210260954/tools/bin/../lib/gcc/arm-none-eabi/10.3.1/thumb/v7e-m+dp/hard/crtbegin.o
 .ARM.attributes
                0x0000000000000050       0x32 ./Core/Src/dma.o
 .ARM.attributes
                0x0000000000000082       0x32 ./Core/Src/gpio.o
 .ARM.attributes
                0x00000000000000b4       0x32 ./Core/Src/main.o
 .ARM.attributes
                0x00000000000000e6       0x32 ./Core/Src/stm32f7xx_hal_msp.o
 .ARM.attributes
                0x0000000000000118       0x32 ./Core/Src/stm32f7xx_it.o
 .ARM.attributes
                0x000000000000014a       0x32 ./Core/Src/syscalls.o
 .ARM.attributes
                0x000000000000017c       0x32 ./Core/Src/sysmem.o
 .ARM.attributes
                0x00000000000001ae       0x32 ./Core/Src/system_stm32f7xx.o
 .ARM.attributes
                0x00000000000001e0       0x32 ./Core/Src/tim.o
 .ARM.attributes
                0x0000000000000212       0x32 ./Core/Src/usart.o
 .ARM.attributes
                0x0000000000000244       0x21 ./Core/Startup/startup_stm32f767zitx.o
 .ARM.attributes
                0x0000000000000265       0x32 ./Drivers/BSP/Components/lan8742/lan8742.o
 .ARM.attributes
                0x0000000000000297       0x32 ./Drivers/STM32F7xx_HAL_Driver/Src/stm32f7xx_hal.o
 .ARM.attributes
                0x00000000000002c9       0x32 ./Drivers/STM32F7xx_HAL_Driver/Src/stm32f7xx_hal_cortex.o
 .ARM.attributes
                0x00000000000002fb       0x32 ./Drivers/STM32F7xx_HAL_Driver/Src/stm32f7xx_hal_dma.o
 .ARM.attributes
                0x000000000000032d       0x32 ./Drivers/STM32F7xx_HAL_Driver/Src/stm32f7xx_hal_eth.o
 .ARM.attributes
                0x000000000000035f       0x32 ./Drivers/STM32F7xx_HAL_Driver/Src/stm32f7xx_hal_gpio.o
 .ARM.attributes
                0x0000000000000391       0x32 ./Drivers/STM32F7xx_HAL_Driver/Src/stm32f7xx_hal_pwr_ex.o
 .ARM.attributes
                0x00000000000003c3       0x32 ./Drivers/STM32F7xx_HAL_Driver/Src/stm32f7xx_hal_rcc.o
 .ARM.attributes
                0x00000000000003f5       0x32 ./Drivers/STM32F7xx_HAL_Driver/Src/stm32f7xx_hal_rcc_ex.o
 .ARM.attributes
                0x0000000000000427       0x32 ./Drivers/STM32F7xx_HAL_Driver/Src/stm32f7xx_hal_tim.o
 .ARM.attributes
                0x0000000000000459       0x32 ./Drivers/STM32F7xx_HAL_Driver/Src/stm32f7xx_hal_tim_ex.o
 .ARM.attributes
                0x000000000000048b       0x32 ./Drivers/STM32F7xx_HAL_Driver/Src/stm32f7xx_hal_uart.o
 .ARM.attributes
                0x00000000000004bd       0x32 ./LWIP/App/lwip.o
 .ARM.attributes
                0x00000000000004ef       0x32 ./LWIP/Target/ethernetif.o
 .ARM.attributes
                0x0000000000000521       0x32 ./Middlewares/Third_Party/LwIP/src/apps/mqtt/mqtt.o
 .ARM.attributes
                0x0000000000000553       0x32 ./Middlewares/Third_Party/LwIP/src/core/def.o
 .ARM.attributes
                0x0000000000000585       0x32 ./Middlewares/Third_Party/LwIP/src/core/init.o
 .ARM.attributes
                0x00000000000005b7       0x32 ./Middlewares/Third_Party/LwIP/src/core/ip.o
 .ARM.attributes
                0x00000000000005e9       0x32 ./Middlewares/Third_Party/LwIP/src/core/mem.o
 .ARM.attributes
                0x000000000000061b       0x32 ./Middlewares/Third_Party/LwIP/src/core/memp.o
 .ARM.attributes
                0x000000000000064d       0x32 ./Middlewares/Third_Party/LwIP/src/core/netif.o
 .ARM.attributes
                0x000000000000067f       0x32 ./Middlewares/Third_Party/LwIP/src/core/pbuf.o
 .ARM.attributes
                0x00000000000006b1       0x32 ./Middlewares/Third_Party/LwIP/src/core/tcp.o
 .ARM.attributes
                0x00000000000006e3       0x32 ./Middlewares/Third_Party/LwIP/src/core/tcp_in.o
 .ARM.attributes
                0x0000000000000715       0x32 ./Middlewares/Third_Party/LwIP/src/core/tcp_out.o
 .ARM.attributes
                0x0000000000000747       0x32 ./Middlewares/Third_Party/LwIP/src/core/timeouts.o
 .ARM.attributes
                0x0000000000000779       0x32 ./Middlewares/Third_Party/LwIP/src/core/udp.o
 .ARM.attributes
                0x00000000000007ab       0x32 ./Middlewares/Third_Party/LwIP/src/core/ipv4/etharp.o
 .ARM.attributes
                0x00000000000007dd       0x32 ./Middlewares/Third_Party/LwIP/src/core/ipv4/icmp.o
 .ARM.attributes
                0x000000000000080f       0x32 ./Middlewares/Third_Party/LwIP/src/core/ipv4/ip4.o
 .ARM.attributes
                0x0000000000000841       0x32 ./Middlewares/Third_Party/LwIP/src/core/ipv4/ip4_addr.o
 .ARM.attributes
                0x0000000000000873       0x32 ./Middlewares/Third_Party/LwIP/src/core/ipv4/ip4_frag.o
 .ARM.attributes
                0x00000000000008a5       0x32 ./Middlewares/Third_Party/LwIP/src/netif/ethernet.o
 .ARM.attributes
                0x00000000000008d7       0x32 d:/stm32cubeide/stm32cubeide_1.11.2/stm32cubeide/plugins/com.st.stm32cube.ide.mcu.externaltools.gnu-tools-for-stm32.10.3-2021.10.win32_1.0.100.202210260954/tools/bin/../lib/gcc/arm-none-eabi/10.3.1/../../../../arm-none-eabi/lib/thumb/v7e-m+dp/hard\libc_nano.a(lib_a-impure.o)
 .ARM.attributes
                0x0000000000000909       0x32 d:/stm32cubeide/stm32cubeide_1.11.2/stm32cubeide/plugins/com.st.stm32cube.ide.mcu.externaltools.gnu-tools-for-stm32.10.3-2021.10.win32_1.0.100.202210260954/tools/bin/../lib/gcc/arm-none-eabi/10.3.1/../../../../arm-none-eabi/lib/thumb/v7e-m+dp/hard\libc_nano.a(lib_a-init.o)
 .ARM.attributes
                0x000000000000093b       0x32 d:/stm32cubeide/stm32cubeide_1.11.2/stm32cubeide/plugins/com.st.stm32cube.ide.mcu.externaltools.gnu-tools-for-stm32.10.3-2021.10.win32_1.0.100.202210260954/tools/bin/../lib/gcc/arm-none-eabi/10.3.1/../../../../arm-none-eabi/lib/thumb/v7e-m+dp/hard\libc_nano.a(lib_a-memcmp.o)
 .ARM.attributes
                0x000000000000096d       0x32 d:/stm32cubeide/stm32cubeide_1.11.2/stm32cubeide/plugins/com.st.stm32cube.ide.mcu.externaltools.gnu-tools-for-stm32.10.3-2021.10.win32_1.0.100.202210260954/tools/bin/../lib/gcc/arm-none-eabi/10.3.1/../../../../arm-none-eabi/lib/thumb/v7e-m+dp/hard\libc_nano.a(lib_a-memcpy-stub.o)
 .ARM.attributes
                0x000000000000099f       0x32 d:/stm32cubeide/stm32cubeide_1.11.2/stm32cubeide/plugins/com.st.stm32cube.ide.mcu.externaltools.gnu-tools-for-stm32.10.3-2021.10.win32_1.0.100.202210260954/tools/bin/../lib/gcc/arm-none-eabi/10.3.1/../../../../arm-none-eabi/lib/thumb/v7e-m+dp/hard\libc_nano.a(lib_a-memset.o)
 .ARM.attributes
                0x00000000000009d1       0x32 d:/stm32cubeide/stm32cubeide_1.11.2/stm32cubeide/plugins/com.st.stm32cube.ide.mcu.externaltools.gnu-tools-for-stm32.10.3-2021.10.win32_1.0.100.202210260954/tools/bin/../lib/gcc/arm-none-eabi/10.3.1/../../../../arm-none-eabi/lib/thumb/v7e-m+dp/hard\libc_nano.a(lib_a-printf.o)
 .ARM.attributes
                0x0000000000000a03       0x32 d:/stm32cubeide/stm32cubeide_1.11.2/stm32cubeide/plugins/com.st.stm32cube.ide.mcu.externaltools.gnu-tools-for-stm32.10.3-2021.10.win32_1.0.100.202210260954/tools/bin/../lib/gcc/arm-none-eabi/10.3.1/../../../../arm-none-eabi/lib/thumb/v7e-m+dp/hard\libc_nano.a(lib_a-rand.o)
 .ARM.attributes
                0x0000000000000a35       0x32 d:/stm32cubeide/stm32cubeide_1.11.2/stm32cubeide/plugins/com.st.stm32cube.ide.mcu.externaltools.gnu-tools-for-stm32.10.3-2021.10.win32_1.0.100.202210260954/tools/bin/../lib/gcc/arm-none-eabi/10.3.1/../../../../arm-none-eabi/lib/thumb/v7e-m+dp/hard\libc_nano.a(lib_a-reent.o)
 .ARM.attributes
                0x0000000000000a67       0x17 d:/stm32cubeide/stm32cubeide_1.11.2/stm32cubeide/plugins/com.st.stm32cube.ide.mcu.externaltools.gnu-tools-for-stm32.10.3-2021.10.win32_1.0.100.202210260954/tools/bin/../lib/gcc/arm-none-eabi/10.3.1/../../../../arm-none-eabi/lib/thumb/v7e-m+dp/hard\libc_nano.a(lib_a-strlen.o)
 .ARM.attributes
                0x0000000000000a7e       0x32 d:/stm32cubeide/stm32cubeide_1.11.2/stm32cubeide/plugins/com.st.stm32cube.ide.mcu.externaltools.gnu-tools-for-stm32.10.3-2021.10.win32_1.0.100.202210260954/tools/bin/../lib/gcc/arm-none-eabi/10.3.1/../../../../arm-none-eabi/lib/thumb/v7e-m+dp/hard\libc_nano.a(lib_a-strncmp.o)
 .ARM.attributes
                0x0000000000000ab0       0x32 d:/stm32cubeide/stm32cubeide_1.11.2/stm32cubeide/plugins/com.st.stm32cube.ide.mcu.externaltools.gnu-tools-for-stm32.10.3-2021.10.win32_1.0.100.202210260954/tools/bin/../lib/gcc/arm-none-eabi/10.3.1/../../../../arm-none-eabi/lib/thumb/v7e-m+dp/hard\libc_nano.a(lib_a-assert.o)
 .ARM.attributes
                0x0000000000000ae2       0x32 d:/stm32cubeide/stm32cubeide_1.11.2/stm32cubeide/plugins/com.st.stm32cube.ide.mcu.externaltools.gnu-tools-for-stm32.10.3-2021.10.win32_1.0.100.202210260954/tools/bin/../lib/gcc/arm-none-eabi/10.3.1/../../../../arm-none-eabi/lib/thumb/v7e-m+dp/hard\libc_nano.a(lib_a-findfp.o)
 .ARM.attributes
                0x0000000000000b14       0x32 d:/stm32cubeide/stm32cubeide_1.11.2/stm32cubeide/plugins/com.st.stm32cube.ide.mcu.externaltools.gnu-tools-for-stm32.10.3-2021.10.win32_1.0.100.202210260954/tools/bin/../lib/gcc/arm-none-eabi/10.3.1/../../../../arm-none-eabi/lib/thumb/v7e-m+dp/hard\libc_nano.a(lib_a-fprintf.o)
 .ARM.attributes
                0x0000000000000b46       0x32 d:/stm32cubeide/stm32cubeide_1.11.2/stm32cubeide/plugins/com.st.stm32cube.ide.mcu.externaltools.gnu-tools-for-stm32.10.3-2021.10.win32_1.0.100.202210260954/tools/bin/../lib/gcc/arm-none-eabi/10.3.1/../../../../arm-none-eabi/lib/thumb/v7e-m+dp/hard\libc_nano.a(lib_a-fwalk.o)
 .ARM.attributes
                0x0000000000000b78       0x32 d:/stm32cubeide/stm32cubeide_1.11.2/stm32cubeide/plugins/com.st.stm32cube.ide.mcu.externaltools.gnu-tools-for-stm32.10.3-2021.10.win32_1.0.100.202210260954/tools/bin/../lib/gcc/arm-none-eabi/10.3.1/../../../../arm-none-eabi/lib/thumb/v7e-m+dp/hard\libc_nano.a(lib_a-lock.o)
 .ARM.attributes
                0x0000000000000baa       0x32 d:/stm32cubeide/stm32cubeide_1.11.2/stm32cubeide/plugins/com.st.stm32cube.ide.mcu.externaltools.gnu-tools-for-stm32.10.3-2021.10.win32_1.0.100.202210260954/tools/bin/../lib/gcc/arm-none-eabi/10.3.1/../../../../arm-none-eabi/lib/thumb/v7e-m+dp/hard\libc_nano.a(lib_a-malloc.o)
 .ARM.attributes
                0x0000000000000bdc       0x32 d:/stm32cubeide/stm32cubeide_1.11.2/stm32cubeide/plugins/com.st.stm32cube.ide.mcu.externaltools.gnu-tools-for-stm32.10.3-2021.10.win32_1.0.100.202210260954/tools/bin/../lib/gcc/arm-none-eabi/10.3.1/../../../../arm-none-eabi/lib/thumb/v7e-m+dp/hard\libc_nano.a(lib_a-nano-freer.o)
 .ARM.attributes
                0x0000000000000c0e       0x32 d:/stm32cubeide/stm32cubeide_1.11.2/stm32cubeide/plugins/com.st.stm32cube.ide.mcu.externaltools.gnu-tools-for-stm32.10.3-2021.10.win32_1.0.100.202210260954/tools/bin/../lib/gcc/arm-none-eabi/10.3.1/../../../../arm-none-eabi/lib/thumb/v7e-m+dp/hard\libc_nano.a(lib_a-nano-mallocr.o)
 .ARM.attributes
                0x0000000000000c40       0x32 d:/stm32cubeide/stm32cubeide_1.11.2/stm32cubeide/plugins/com.st.stm32cube.ide.mcu.externaltools.gnu-tools-for-stm32.10.3-2021.10.win32_1.0.100.202210260954/tools/bin/../lib/gcc/arm-none-eabi/10.3.1/../../../../arm-none-eabi/lib/thumb/v7e-m+dp/hard\libc_nano.a(lib_a-nano-vfprintf.o)
 .ARM.attributes
                0x0000000000000c72       0x32 d:/stm32cubeide/stm32cubeide_1.11.2/stm32cubeide/plugins/com.st.stm32cube.ide.mcu.externaltools.gnu-tools-for-stm32.10.3-2021.10.win32_1.0.100.202210260954/tools/bin/../lib/gcc/arm-none-eabi/10.3.1/../../../../arm-none-eabi/lib/thumb/v7e-m+dp/hard\libc_nano.a(lib_a-nano-vfprintf_i.o)
 .ARM.attributes
                0x0000000000000ca4       0x32 d:/stm32cubeide/stm32cubeide_1.11.2/stm32cubeide/plugins/com.st.stm32cube.ide.mcu.externaltools.gnu-tools-for-stm32.10.3-2021.10.win32_1.0.100.202210260954/tools/bin/../lib/gcc/arm-none-eabi/10.3.1/../../../../arm-none-eabi/lib/thumb/v7e-m+dp/hard\libc_nano.a(lib_a-sbrkr.o)
 .ARM.attributes
                0x0000000000000cd6       0x32 d:/stm32cubeide/stm32cubeide_1.11.2/stm32cubeide/plugins/com.st.stm32cube.ide.mcu.externaltools.gnu-tools-for-stm32.10.3-2021.10.win32_1.0.100.202210260954/tools/bin/../lib/gcc/arm-none-eabi/10.3.1/../../../../arm-none-eabi/lib/thumb/v7e-m+dp/hard\libc_nano.a(lib_a-stdio.o)
 .ARM.attributes
                0x0000000000000d08       0x32 d:/stm32cubeide/stm32cubeide_1.11.2/stm32cubeide/plugins/com.st.stm32cube.ide.mcu.externaltools.gnu-tools-for-stm32.10.3-2021.10.win32_1.0.100.202210260954/tools/bin/../lib/gcc/arm-none-eabi/10.3.1/../../../../arm-none-eabi/lib/thumb/v7e-m+dp/hard\libc_nano.a(lib_a-wbuf.o)
 .ARM.attributes
                0x0000000000000d3a       0x32 d:/stm32cubeide/stm32cubeide_1.11.2/stm32cubeide/plugins/com.st.stm32cube.ide.mcu.externaltools.gnu-tools-for-stm32.10.3-2021.10.win32_1.0.100.202210260954/tools/bin/../lib/gcc/arm-none-eabi/10.3.1/../../../../arm-none-eabi/lib/thumb/v7e-m+dp/hard\libc_nano.a(lib_a-writer.o)
 .ARM.attributes
                0x0000000000000d6c       0x32 d:/stm32cubeide/stm32cubeide_1.11.2/stm32cubeide/plugins/com.st.stm32cube.ide.mcu.externaltools.gnu-tools-for-stm32.10.3-2021.10.win32_1.0.100.202210260954/tools/bin/../lib/gcc/arm-none-eabi/10.3.1/../../../../arm-none-eabi/lib/thumb/v7e-m+dp/hard\libc_nano.a(lib_a-wsetup.o)
 .ARM.attributes
                0x0000000000000d9e       0x32 d:/stm32cubeide/stm32cubeide_1.11.2/stm32cubeide/plugins/com.st.stm32cube.ide.mcu.externaltools.gnu-tools-for-stm32.10.3-2021.10.win32_1.0.100.202210260954/tools/bin/../lib/gcc/arm-none-eabi/10.3.1/../../../../arm-none-eabi/lib/thumb/v7e-m+dp/hard\libc_nano.a(lib_a-abort.o)
 .ARM.attributes
                0x0000000000000dd0       0x32 d:/stm32cubeide/stm32cubeide_1.11.2/stm32cubeide/plugins/com.st.stm32cube.ide.mcu.externaltools.gnu-tools-for-stm32.10.3-2021.10.win32_1.0.100.202210260954/tools/bin/../lib/gcc/arm-none-eabi/10.3.1/../../../../arm-none-eabi/lib/thumb/v7e-m+dp/hard\libc_nano.a(lib_a-closer.o)
 .ARM.attributes
                0x0000000000000e02       0x32 d:/stm32cubeide/stm32cubeide_1.11.2/stm32cubeide/plugins/com.st.stm32cube.ide.mcu.externaltools.gnu-tools-for-stm32.10.3-2021.10.win32_1.0.100.202210260954/tools/bin/../lib/gcc/arm-none-eabi/10.3.1/../../../../arm-none-eabi/lib/thumb/v7e-m+dp/hard\libc_nano.a(lib_a-fflush.o)
 .ARM.attributes
                0x0000000000000e34       0x32 d:/stm32cubeide/stm32cubeide_1.11.2/stm32cubeide/plugins/com.st.stm32cube.ide.mcu.externaltools.gnu-tools-for-stm32.10.3-2021.10.win32_1.0.100.202210260954/tools/bin/../lib/gcc/arm-none-eabi/10.3.1/../../../../arm-none-eabi/lib/thumb/v7e-m+dp/hard\libc_nano.a(lib_a-lseekr.o)
 .ARM.attributes
                0x0000000000000e66       0x32 d:/stm32cubeide/stm32cubeide_1.11.2/stm32cubeide/plugins/com.st.stm32cube.ide.mcu.externaltools.gnu-tools-for-stm32.10.3-2021.10.win32_1.0.100.202210260954/tools/bin/../lib/gcc/arm-none-eabi/10.3.1/../../../../arm-none-eabi/lib/thumb/v7e-m+dp/hard\libc_nano.a(lib_a-makebuf.o)
 .ARM.attributes
                0x0000000000000e98       0x1c d:/stm32cubeide/stm32cubeide_1.11.2/stm32cubeide/plugins/com.st.stm32cube.ide.mcu.externaltools.gnu-tools-for-stm32.10.3-2021.10.win32_1.0.100.202210260954/tools/bin/../lib/gcc/arm-none-eabi/10.3.1/../../../../arm-none-eabi/lib/thumb/v7e-m+dp/hard\libc_nano.a(lib_a-memchr.o)
 .ARM.attributes
                0x0000000000000eb4       0x32 d:/stm32cubeide/stm32cubeide_1.11.2/stm32cubeide/plugins/com.st.stm32cube.ide.mcu.externaltools.gnu-tools-for-stm32.10.3-2021.10.win32_1.0.100.202210260954/tools/bin/../lib/gcc/arm-none-eabi/10.3.1/../../../../arm-none-eabi/lib/thumb/v7e-m+dp/hard\libc_nano.a(lib_a-mlock.o)
 .ARM.attributes
                0x0000000000000ee6       0x32 d:/stm32cubeide/stm32cubeide_1.11.2/stm32cubeide/plugins/com.st.stm32cube.ide.mcu.externaltools.gnu-tools-for-stm32.10.3-2021.10.win32_1.0.100.202210260954/tools/bin/../lib/gcc/arm-none-eabi/10.3.1/../../../../arm-none-eabi/lib/thumb/v7e-m+dp/hard\libc_nano.a(lib_a-readr.o)
 .ARM.attributes
                0x0000000000000f18       0x32 d:/stm32cubeide/stm32cubeide_1.11.2/stm32cubeide/plugins/com.st.stm32cube.ide.mcu.externaltools.gnu-tools-for-stm32.10.3-2021.10.win32_1.0.100.202210260954/tools/bin/../lib/gcc/arm-none-eabi/10.3.1/../../../../arm-none-eabi/lib/thumb/v7e-m+dp/hard\libc_nano.a(lib_a-signal.o)
 .ARM.attributes
                0x0000000000000f4a       0x32 d:/stm32cubeide/stm32cubeide_1.11.2/stm32cubeide/plugins/com.st.stm32cube.ide.mcu.externaltools.gnu-tools-for-stm32.10.3-2021.10.win32_1.0.100.202210260954/tools/bin/../lib/gcc/arm-none-eabi/10.3.1/../../../../arm-none-eabi/lib/thumb/v7e-m+dp/hard\libc_nano.a(lib_a-signalr.o)
 .ARM.attributes
                0x0000000000000f7c       0x32 d:/stm32cubeide/stm32cubeide_1.11.2/stm32cubeide/plugins/com.st.stm32cube.ide.mcu.externaltools.gnu-tools-for-stm32.10.3-2021.10.win32_1.0.100.202210260954/tools/bin/../lib/gcc/arm-none-eabi/10.3.1/../../../../arm-none-eabi/lib/thumb/v7e-m+dp/hard\libc_nano.a(lib_a-fstatr.o)
 .ARM.attributes
                0x0000000000000fae       0x32 d:/stm32cubeide/stm32cubeide_1.11.2/stm32cubeide/plugins/com.st.stm32cube.ide.mcu.externaltools.gnu-tools-for-stm32.10.3-2021.10.win32_1.0.100.202210260954/tools/bin/../lib/gcc/arm-none-eabi/10.3.1/../../../../arm-none-eabi/lib/thumb/v7e-m+dp/hard\libc_nano.a(lib_a-isattyr.o)
 .ARM.attributes
                0x0000000000000fe0       0x1e d:/stm32cubeide/stm32cubeide_1.11.2/stm32cubeide/plugins/com.st.stm32cube.ide.mcu.externaltools.gnu-tools-for-stm32.10.3-2021.10.win32_1.0.100.202210260954/tools/bin/../lib/gcc/arm-none-eabi/10.3.1/thumb/v7e-m+dp/hard\libgcc.a(_aeabi_uldivmod.o)
 .ARM.attributes
                0x0000000000000ffe       0x32 d:/stm32cubeide/stm32cubeide_1.11.2/stm32cubeide/plugins/com.st.stm32cube.ide.mcu.externaltools.gnu-tools-for-stm32.10.3-2021.10.win32_1.0.100.202210260954/tools/bin/../lib/gcc/arm-none-eabi/10.3.1/thumb/v7e-m+dp/hard\libgcc.a(_udivmoddi4.o)
 .ARM.attributes
                0x0000000000001030       0x1e d:/stm32cubeide/stm32cubeide_1.11.2/stm32cubeide/plugins/com.st.stm32cube.ide.mcu.externaltools.gnu-tools-for-stm32.10.3-2021.10.win32_1.0.100.202210260954/tools/bin/../lib/gcc/arm-none-eabi/10.3.1/thumb/v7e-m+dp/hard\libgcc.a(_dvmd_tls.o)
 .ARM.attributes
                0x000000000000104e       0x1e d:/stm32cubeide/stm32cubeide_1.11.2/stm32cubeide/plugins/com.st.stm32cube.ide.mcu.externaltools.gnu-tools-for-stm32.10.3-2021.10.win32_1.0.100.202210260954/tools/bin/../lib/gcc/arm-none-eabi/10.3.1/thumb/v7e-m+dp/hard/crtn.o
OUTPUT(f767zit6.elf elf32-littlearm)
LOAD linker stubs
LOAD d:/stm32cubeide/stm32cubeide_1.11.2/stm32cubeide/plugins/com.st.stm32cube.ide.mcu.externaltools.gnu-tools-for-stm32.10.3-2021.10.win32_1.0.100.202210260954/tools/bin/../lib/gcc/arm-none-eabi/10.3.1/../../../../arm-none-eabi/lib/thumb/v7e-m+dp/hard\libc.a
LOAD d:/stm32cubeide/stm32cubeide_1.11.2/stm32cubeide/plugins/com.st.stm32cube.ide.mcu.externaltools.gnu-tools-for-stm32.10.3-2021.10.win32_1.0.100.202210260954/tools/bin/../lib/gcc/arm-none-eabi/10.3.1/../../../../arm-none-eabi/lib/thumb/v7e-m+dp/hard\libm.a
LOAD d:/stm32cubeide/stm32cubeide_1.11.2/stm32cubeide/plugins/com.st.stm32cube.ide.mcu.externaltools.gnu-tools-for-stm32.10.3-2021.10.win32_1.0.100.202210260954/tools/bin/../lib/gcc/arm-none-eabi/10.3.1/thumb/v7e-m+dp/hard\libgcc.a

.debug_info     0x0000000000000000    0x27a8c
 .debug_info    0x0000000000000000      0x5b8 ./Core/Src/dma.o
 .debug_info    0x00000000000005b8      0x50f ./Core/Src/gpio.o
 .debug_info    0x0000000000000ac7      0x709 ./Core/Src/main.o
 .debug_info    0x00000000000011d0      0x2d2 ./Core/Src/stm32f7xx_hal_msp.o
 .debug_info    0x00000000000014a2     0x107d ./Core/Src/stm32f7xx_it.o
 .debug_info    0x000000000000251f      0x6e0 ./Core/Src/syscalls.o
 .debug_info    0x0000000000002bff      0x167 ./Core/Src/sysmem.o
 .debug_info    0x0000000000002d66      0x72c ./Core/Src/system_stm32f7xx.o
 .debug_info    0x0000000000003492      0xb2c ./Core/Src/tim.o
 .debug_info    0x0000000000003fbe     0x11da ./Core/Src/usart.o
 .debug_info    0x0000000000005198       0x22 ./Core/Startup/startup_stm32f767zitx.o
 .debug_info    0x00000000000051ba      0x635 ./Drivers/BSP/Components/lan8742/lan8742.o
 .debug_info    0x00000000000057ef      0xa82 ./Drivers/STM32F7xx_HAL_Driver/Src/stm32f7xx_hal.o
 .debug_info    0x0000000000006271     0x10d1 ./Drivers/STM32F7xx_HAL_Driver/Src/stm32f7xx_hal_cortex.o
 .debug_info    0x0000000000007342      0x94f ./Drivers/STM32F7xx_HAL_Driver/Src/stm32f7xx_hal_dma.o
 .debug_info    0x0000000000007c91     0x2368 ./Drivers/STM32F7xx_HAL_Driver/Src/stm32f7xx_hal_eth.o
 .debug_info    0x0000000000009ff9      0x7a2 ./Drivers/STM32F7xx_HAL_Driver/Src/stm32f7xx_hal_gpio.o
 .debug_info    0x000000000000a79b      0x92e ./Drivers/STM32F7xx_HAL_Driver/Src/stm32f7xx_hal_pwr_ex.o
 .debug_info    0x000000000000b0c9      0x9f8 ./Drivers/STM32F7xx_HAL_Driver/Src/stm32f7xx_hal_rcc.o
 .debug_info    0x000000000000bac1      0x78b ./Drivers/STM32F7xx_HAL_Driver/Src/stm32f7xx_hal_rcc_ex.o
 .debug_info    0x000000000000c24c     0x2d63 ./Drivers/STM32F7xx_HAL_Driver/Src/stm32f7xx_hal_tim.o
 .debug_info    0x000000000000efaf     0x1805 ./Drivers/STM32F7xx_HAL_Driver/Src/stm32f7xx_hal_tim_ex.o
 .debug_info    0x00000000000107b4     0x3d66 ./Drivers/STM32F7xx_HAL_Driver/Src/stm32f7xx_hal_uart.o
 .debug_info    0x000000000001451a      0xc58 ./LWIP/App/lwip.o
 .debug_info    0x0000000000015172     0x2689 ./LWIP/Target/ethernetif.o
 .debug_info    0x00000000000177fb     0x1d4d ./Middlewares/Third_Party/LwIP/src/apps/mqtt/mqtt.o
 .debug_info    0x0000000000019548      0x3a1 ./Middlewares/Third_Party/LwIP/src/core/def.o
 .debug_info    0x00000000000198e9       0xdd ./Middlewares/Third_Party/LwIP/src/core/init.o
 .debug_info    0x00000000000199c6      0x4fa ./Middlewares/Third_Party/LwIP/src/core/ip.o
 .debug_info    0x0000000000019ec0      0x5a6 ./Middlewares/Third_Party/LwIP/src/core/mem.o
 .debug_info    0x000000000001a466      0x638 ./Middlewares/Third_Party/LwIP/src/core/memp.o
 .debug_info    0x000000000001aa9e      0xc8a ./Middlewares/Third_Party/LwIP/src/core/netif.o
 .debug_info    0x000000000001b728     0x18ae ./Middlewares/Third_Party/LwIP/src/core/pbuf.o
 .debug_info    0x000000000001cfd6     0x1ea3 ./Middlewares/Third_Party/LwIP/src/core/tcp.o
 .debug_info    0x000000000001ee79     0x160e ./Middlewares/Third_Party/LwIP/src/core/tcp_in.o
 .debug_info    0x0000000000020487     0x1a70 ./Middlewares/Third_Party/LwIP/src/core/tcp_out.o
 .debug_info    0x0000000000021ef7      0xcf5 ./Middlewares/Third_Party/LwIP/src/core/timeouts.o
 .debug_info    0x0000000000022bec      0xf37 ./Middlewares/Third_Party/LwIP/src/core/udp.o
 .debug_info    0x0000000000023b23      0xeec ./Middlewares/Third_Party/LwIP/src/core/ipv4/etharp.o
 .debug_info    0x0000000000024a0f      0x976 ./Middlewares/Third_Party/LwIP/src/core/ipv4/icmp.o
 .debug_info    0x0000000000025385      0xa4a ./Middlewares/Third_Party/LwIP/src/core/ipv4/ip4.o
 .debug_info    0x0000000000025dcf      0x6f9 ./Middlewares/Third_Party/LwIP/src/core/ipv4/ip4_addr.o
 .debug_info    0x00000000000264c8      0xe5e ./Middlewares/Third_Party/LwIP/src/core/ipv4/ip4_frag.o
 .debug_info    0x0000000000027326      0x766 ./Middlewares/Third_Party/LwIP/src/netif/ethernet.o

.debug_abbrev   0x0000000000000000     0x6150
 .debug_abbrev  0x0000000000000000      0x10a ./Core/Src/dma.o
 .debug_abbrev  0x000000000000010a      0x146 ./Core/Src/gpio.o
 .debug_abbrev  0x0000000000000250      0x231 ./Core/Src/main.o
 .debug_abbrev  0x0000000000000481       0xd4 ./Core/Src/stm32f7xx_hal_msp.o
 .debug_abbrev  0x0000000000000555      0x1bd ./Core/Src/stm32f7xx_it.o
 .debug_abbrev  0x0000000000000712      0x1aa ./Core/Src/syscalls.o
 .debug_abbrev  0x00000000000008bc       0xa4 ./Core/Src/sysmem.o
 .debug_abbrev  0x0000000000000960      0x136 ./Core/Src/system_stm32f7xx.o
 .debug_abbrev  0x0000000000000a96      0x201 ./Core/Src/tim.o
 .debug_abbrev  0x0000000000000c97      0x263 ./Core/Src/usart.o
 .debug_abbrev  0x0000000000000efa       0x12 ./Core/Startup/startup_stm32f767zitx.o
 .debug_abbrev  0x0000000000000f0c      0x145 ./Drivers/BSP/Components/lan8742/lan8742.o
 .debug_abbrev  0x0000000000001051      0x20d ./Drivers/STM32F7xx_HAL_Driver/Src/stm32f7xx_hal.o
 .debug_abbrev  0x000000000000125e      0x30d ./Drivers/STM32F7xx_HAL_Driver/Src/stm32f7xx_hal_cortex.o
 .debug_abbrev  0x000000000000156b      0x25b ./Drivers/STM32F7xx_HAL_Driver/Src/stm32f7xx_hal_dma.o
 .debug_abbrev  0x00000000000017c6      0x343 ./Drivers/STM32F7xx_HAL_Driver/Src/stm32f7xx_hal_eth.o
 .debug_abbrev  0x0000000000001b09      0x1c4 ./Drivers/STM32F7xx_HAL_Driver/Src/stm32f7xx_hal_gpio.o
 .debug_abbrev  0x0000000000001ccd      0x1cb ./Drivers/STM32F7xx_HAL_Driver/Src/stm32f7xx_hal_pwr_ex.o
 .debug_abbrev  0x0000000000001e98      0x2d1 ./Drivers/STM32F7xx_HAL_Driver/Src/stm32f7xx_hal_rcc.o
 .debug_abbrev  0x0000000000002169      0x1b9 ./Drivers/STM32F7xx_HAL_Driver/Src/stm32f7xx_hal_rcc_ex.o
 .debug_abbrev  0x0000000000002322      0x264 ./Drivers/STM32F7xx_HAL_Driver/Src/stm32f7xx_hal_tim.o
 .debug_abbrev  0x0000000000002586      0x26c ./Drivers/STM32F7xx_HAL_Driver/Src/stm32f7xx_hal_tim_ex.o
 .debug_abbrev  0x00000000000027f2      0x2ce ./Drivers/STM32F7xx_HAL_Driver/Src/stm32f7xx_hal_uart.o
 .debug_abbrev  0x0000000000002ac0      0x2fc ./LWIP/App/lwip.o
 .debug_abbrev  0x0000000000002dbc      0x38c ./LWIP/Target/ethernetif.o
 .debug_abbrev  0x0000000000003148      0x376 ./Middlewares/Third_Party/LwIP/src/apps/mqtt/mqtt.o
 .debug_abbrev  0x00000000000034be      0x137 ./Middlewares/Third_Party/LwIP/src/core/def.o
 .debug_abbrev  0x00000000000035f5       0x8d ./Middlewares/Third_Party/LwIP/src/core/init.o
 .debug_abbrev  0x0000000000003682      0x12f ./Middlewares/Third_Party/LwIP/src/core/ip.o
 .debug_abbrev  0x00000000000037b1      0x1d5 ./Middlewares/Third_Party/LwIP/src/core/mem.o
 .debug_abbrev  0x0000000000003986      0x221 ./Middlewares/Third_Party/LwIP/src/core/memp.o
 .debug_abbrev  0x0000000000003ba7      0x300 ./Middlewares/Third_Party/LwIP/src/core/netif.o
 .debug_abbrev  0x0000000000003ea7      0x339 ./Middlewares/Third_Party/LwIP/src/core/pbuf.o
 .debug_abbrev  0x00000000000041e0      0x3d8 ./Middlewares/Third_Party/LwIP/src/core/tcp.o
 .debug_abbrev  0x00000000000045b8      0x324 ./Middlewares/Third_Party/LwIP/src/core/tcp_in.o
 .debug_abbrev  0x00000000000048dc      0x2f9 ./Middlewares/Third_Party/LwIP/src/core/tcp_out.o
 .debug_abbrev  0x0000000000004bd5      0x2f8 ./Middlewares/Third_Party/LwIP/src/core/timeouts.o
 .debug_abbrev  0x0000000000004ecd      0x352 ./Middlewares/Third_Party/LwIP/src/core/udp.o
 .debug_abbrev  0x000000000000521f      0x2a2 ./Middlewares/Third_Party/LwIP/src/core/ipv4/etharp.o
 .debug_abbrev  0x00000000000054c1      0x26b ./Middlewares/Third_Party/LwIP/src/core/ipv4/icmp.o
 .debug_abbrev  0x000000000000572c      0x266 ./Middlewares/Third_Party/LwIP/src/core/ipv4/ip4.o
 .debug_abbrev  0x0000000000005992      0x267 ./Middlewares/Third_Party/LwIP/src/core/ipv4/ip4_addr.o
 .debug_abbrev  0x0000000000005bf9      0x2f2 ./Middlewares/Third_Party/LwIP/src/core/ipv4/ip4_frag.o
 .debug_abbrev  0x0000000000005eeb      0x265 ./Middlewares/Third_Party/LwIP/src/netif/ethernet.o

.debug_aranges  0x0000000000000000     0x1cd8
 .debug_aranges
                0x0000000000000000       0x20 ./Core/Src/dma.o
 .debug_aranges
                0x0000000000000020       0x20 ./Core/Src/gpio.o
 .debug_aranges
                0x0000000000000040       0x30 ./Core/Src/main.o
 .debug_aranges
                0x0000000000000070       0x20 ./Core/Src/stm32f7xx_hal_msp.o
 .debug_aranges
                0x0000000000000090       0x78 ./Core/Src/stm32f7xx_it.o
 .debug_aranges
                0x0000000000000108       0xa8 ./Core/Src/syscalls.o
 .debug_aranges
                0x00000000000001b0       0x20 ./Core/Src/sysmem.o
 .debug_aranges
                0x00000000000001d0       0x28 ./Core/Src/system_stm32f7xx.o
 .debug_aranges
                0x00000000000001f8       0x40 ./Core/Src/tim.o
 .debug_aranges
                0x0000000000000238       0x58 ./Core/Src/usart.o
 .debug_aranges
                0x0000000000000290       0x28 ./Core/Startup/startup_stm32f767zitx.o
 .debug_aranges
                0x00000000000002b8       0x88 ./Drivers/BSP/Components/lan8742/lan8742.o
 .debug_aranges
                0x0000000000000340      0x110 ./Drivers/STM32F7xx_HAL_Driver/Src/stm32f7xx_hal.o
 .debug_aranges
                0x0000000000000450      0x128 ./Drivers/STM32F7xx_HAL_Driver/Src/stm32f7xx_hal_cortex.o
 .debug_aranges
                0x0000000000000578       0x90 ./Drivers/STM32F7xx_HAL_Driver/Src/stm32f7xx_hal_dma.o
 .debug_aranges
                0x0000000000000608      0x1e0 ./Drivers/STM32F7xx_HAL_Driver/Src/stm32f7xx_hal_eth.o
 .debug_aranges
                0x00000000000007e8       0x58 ./Drivers/STM32F7xx_HAL_Driver/Src/stm32f7xx_hal_gpio.o
 .debug_aranges
                0x0000000000000840       0x80 ./Drivers/STM32F7xx_HAL_Driver/Src/stm32f7xx_hal_pwr_ex.o
 .debug_aranges
                0x00000000000008c0       0x88 ./Drivers/STM32F7xx_HAL_Driver/Src/stm32f7xx_hal_rcc.o
 .debug_aranges
                0x0000000000000948       0x50 ./Drivers/STM32F7xx_HAL_Driver/Src/stm32f7xx_hal_rcc_ex.o
 .debug_aranges
                0x0000000000000998      0x3e0 ./Drivers/STM32F7xx_HAL_Driver/Src/stm32f7xx_hal_tim.o
 .debug_aranges
                0x0000000000000d78      0x180 ./Drivers/STM32F7xx_HAL_Driver/Src/stm32f7xx_hal_tim_ex.o
 .debug_aranges
                0x0000000000000ef8      0x230 ./Drivers/STM32F7xx_HAL_Driver/Src/stm32f7xx_hal_uart.o
 .debug_aranges
                0x0000000000001128       0x78 ./LWIP/App/lwip.o
 .debug_aranges
                0x00000000000011a0       0xb0 ./LWIP/Target/ethernetif.o
 .debug_aranges
                0x0000000000001250      0x148 ./Middlewares/Third_Party/LwIP/src/apps/mqtt/mqtt.o
 .debug_aranges
                0x0000000000001398       0x48 ./Middlewares/Third_Party/LwIP/src/core/def.o
 .debug_aranges
                0x00000000000013e0       0x20 ./Middlewares/Third_Party/LwIP/src/core/init.o
 .debug_aranges
                0x0000000000001400       0x18 ./Middlewares/Third_Party/LwIP/src/core/ip.o
 .debug_aranges
                0x0000000000001418       0x60 ./Middlewares/Third_Party/LwIP/src/core/mem.o
 .debug_aranges
                0x0000000000001478       0x58 ./Middlewares/Third_Party/LwIP/src/core/memp.o
 .debug_aranges
                0x00000000000014d0       0xe0 ./Middlewares/Third_Party/LwIP/src/core/netif.o
 .debug_aranges
                0x00000000000015b0      0x138 ./Middlewares/Third_Party/LwIP/src/core/pbuf.o
 .debug_aranges
                0x00000000000016e8      0x1b8 ./Middlewares/Third_Party/LwIP/src/core/tcp.o
 .debug_aranges
                0x00000000000018a0       0x70 ./Middlewares/Third_Party/LwIP/src/core/tcp_in.o
 .debug_aranges
                0x0000000000001910       0xd8 ./Middlewares/Third_Party/LwIP/src/core/tcp_out.o
 .debug_aranges
                0x00000000000019e8       0x68 ./Middlewares/Third_Party/LwIP/src/core/timeouts.o
 .debug_aranges
                0x0000000000001a50       0xa0 ./Middlewares/Third_Party/LwIP/src/core/udp.o
 .debug_aranges
                0x0000000000001af0       0x88 ./Middlewares/Third_Party/LwIP/src/core/ipv4/etharp.o
 .debug_aranges
                0x0000000000001b78       0x38 ./Middlewares/Third_Party/LwIP/src/core/ipv4/icmp.o
 .debug_aranges
