:020000040800F2
:1000000000000820F90F00081D0A0008230A000854
:10001000290A00082F0A0008350A0008000000001D
:100020000000000000000000000000003B0A000883
:10003000490A000800000000570A0008650A000885
:10004000491000084910000849100008491000082C
:10005000491000084910000849100008491000081C
:10006000491000084910000849100008491000080C
:10007000710A0008491000084910000849100008DA
:1000800049100008491000084910000849100008EC
:1000900049100008491000084910000849100008DC
:1000A00049100008491000084910000849100008CC
:1000B00049100008491000084910000849100008BC
:1000C00049100008491000084910000849100008AC
:1000D000491000084910000849100008850A000866
:1000E000491000084910000849100008491000088C
:1000F000491000084910000849100008491000087C
:10010000491000084910000849100008491000086B
:10011000491000084910000849100008491000085B
:10012000491000084910000849100008491000084B
:1001300049100008990A00084910000849100008F1
:10014000491000084910000849100008491000082B
:10015000491000084910000849100008491000081B
:10016000491000084910000849100008491000080B
:10017000491000084910000849100008000000005C
:1001800049100008491000084910000849100008EB
:1001900049100008491000084910000849100008DB
:1001A00049100008491000084910000849100008CB
:1001B00049100008491000084910000849100008BB
:1001C000491000084910000800000000491000080C
:1001D000491000084910000849100008491000089B
:1001E000491000084910000849100008491000088B
:0801F000491000084910000845
:1002000010B5054C237833B9044B13B10448AFF350
:1002100000800123237010BDD401002000000000E5
:10022000CC46010808B5034B1BB103490348AFF3A3
:10023000008008BD00000000D8010020CC46010865
:10024000034613F8012B002AFBD1181A0138704716
:1002500001F0FF01102A2BDB10F0070F08D010F877
:10026000013B013A8B422DD010F0070F42B3F6D17B
:10027000F0B441EA012141EA014122F007047FF094
:1002800000070023F0E80256083C85EA010586EAEB
:10029000010685FA47F5A3FA87F586FA47F6A5FA27
:1002A00087F68EB9EED1F0BC01F0FF0102F0070233
:1002B00032B110F8013B013A83EA010313B1F8D1DE
:1002C0000020704701387047002D06BF35460338BF
:1002D000073815F0010F07D1013015F4807F02BFF8
:1002E000013015F4C03F0130F0BC0138704700BF49
:1002F00053B94AB9002908BF00281CBF4FF0FF318D
:100300004FF0FF3000F074B9ADF1080C6DE904CE88
:1003100000F006F8DDF804E0DDE9022304B07047E0
:100320002DE9F047089D04468E46002B4DD18A42A8
:10033000944669D9B2FA82F252B101FA02F3C2F1DB
:10034000200120FA01F10CFA02FC41EA030E94406C
:100350004FEA1C48210CBEFBF8F61FFA8CF708FB8D
:1003600016E341EA034306FB07F199420AD91CEB65
:10037000030306F1FF3080F01F81994240F21C8197
:10038000023E63445B1AA4B2B3FBF8F008FB1033DF
:1003900044EA034400FB07F7A7420AD91CEB040414
:1003A00000F1FF3380F00A81A74240F207816444E4
:1003B000023840EA0640E41B00261DB1D440002369
:1003C000C5E900433146BDE8F0878B4209D9002DCD
:1003D00000F0EF800026C5E9000130463146BDE857
:1003E000F087B3FA83F6002E4AD18B4202D38242C1
:1003F00000F2F980841A61EB030301209E46002D70
:10040000E0D0C5E9004EDDE702B9FFDEB2FA82F2C4
:10041000002A40F09280A1EB0C014FEA1C471FFA22
:100420008CFE0126200CB1FBF7F307FB131140EA09
:1004300001410EFB03F0884208D91CEB010103F1D6
:10044000FF3802D2884200F2CB804346091AA4B298
:10045000B1FBF7F007FB101144EA01440EFB00FE6C
:10046000A64508D91CEB040400F1FF3102D2A645D1
:1004700000F2BB800846A4EB0E0440EA03409CE770
:10048000C6F12007B34022FA07FC4CEA030C20FA1D
:1004900007F401FA06F31C43F9404FEA1C4900FA3D
:1004A00006F3B1FBF9F8200C1FFA8CFE09FB1811BA
:1004B00040EA014108FB0EF0884202FA06F20BD92D
:1004C0001CEB010108F1FF3A80F08880884240F27D
:1004D0008580A8F102086144091AA4B2B1FBF9F0C1
:1004E00009FB101144EA014100FB0EFE8E4508D9BC
:1004F0001CEB010100F1FF346CD28E456AD9023841
:10050000614440EA0840A0FB0294A1EB0E01A14225
:10051000C846A64656D353D05DB1B3EB080261EB93
:100520000E0101FA07F722FA06F3F1401F43C5E96D
:10053000007100263146BDE8F087C2F12003D840A3
:100540000CFA02FC21FA03F3914001434FEA1C47E5
:100550001FFA8CFEB3FBF7F007FB10360B0C43EAD7
:10056000064300FB0EF69E4204FA02F408D91CEB87
:10057000030300F1FF382FD29E422DD90238634485
:100580009B1B89B2B3FBF7F607FB163341EA034125
:1005900006FB0EF38B4208D91CEB010106F1FF3874
:1005A00016D28B4214D9023E6144C91A46EA00466B
:1005B00038E72E46284605E70646E3E61846F8E6FD
:1005C0004B45A9D2B9EB020864EB0C0E0138A3E746
:1005D0004646EAE7204694E74046D1E7D0467BE727
:1005E000023B614432E7304609E76444023842E79F
:1005F000704700BF80B582B000AF0C4B1B6B0B4A3D
:1006000043F400131363094B1B6B03F400137B606B
:100610007B68002200210C2000F079FF0C2000F004
:1006200092FF00BF0837BD4680BD00BF00380240C2
:1006300080B58EB000AF07F1240300221A605A6023
:100640009A60DA601A616F4B1B6B6E4A43F01003BD
:1006500013636C4B1B6B03F010033B623B6A694BEB
:100660001B6B684A43F004031363664B1B6B03F078
:100670000403FB61FB69634B1B6B624A43F020037D
:100680001363604B1B6B03F02003BB61BB695D4BC5
:100690001B6B5C4A43F0800313635A4B1B6B03F0E4
:1006A00080037B617B69574B1B6B564A43F0010308
:1006B0001363544B1B6B03F001033B613B69514BCC
:1006C0001B6B504A43F0020313634E4B1B6B03F04A
:1006D0000203FB60FB684B4B1B6B4A4A43F0400331
:1006E0001363484B1B6B03F04003BB60BB68454B77
:1006F0001B6B444A43F008031363424B1B6B03F02C
:1007000008037B607B68002280213F4802F002FFE3
:100710004FF6FF737B620323BB620023FB6207F18A
:1007200024031946394802F049FD4FF6CD737B6228
:100730000323BB620023FB6207F1240319463448FC
:1007400002F03CFD4FF6FF737B620323BB62002384
:10075000FB6207F1240319462E4802F02FFD032304
:100760007B620323BB620023FB6207F1240319466B
:10077000294802F023FD49F679737B620323BB62AB
:100780000023FB6207F124031946244802F016FDFA
:100790004DF67F737B620323BB620023FB6207F18C
:1007A00024031946184802F009FD4DF2FF737B62DD
:1007B0000323BB620023FB6207F124031946184898
:1007C00002F0FCFC4FF6FF437B620323BB62002375
:1007D000FB6207F124031946124802F0EFFC802364
:1007E0007B620123BB620023FB6200233B6307F1B2
:1007F00024031946044802F0E1FC00BF3837BD4627
:1008000080BD00BF003802400004024000100240DA
:100810000008024000140240001C02400000024098
:1008200000180240000C024080B582B000AF00F01A
:1008300012FD00F05BF8FFF7FBFEFFF7DBFE00F0B8
:10084000A9FA00F00FFA05F0CDFE00F077FA00F0FB
:100850006DFB1F491F4800F07BFA4FF47A711E4868
:1008600000F076FA0346002B2FD100F0B1FB0346CF
:10087000FB7197F90730002B16D105F07DFD38602C
:100880000521164800F060FB3868FFF7D9FC0346E5
:100890009BB21946386800F057FB05F011FE0E2197
:1008A0000F4800F051FB10E097F90730012B04D1FD
:1008B0000A210C4805F06EFE07E097F90730022B7D
:1008C00003D10A21084805F065FE05F0D7FFC0E70F
:1008D000A0860100F0010020F4010020E446010898
:1008E000EC460108FC4601080847010880B594B0B1
:1008F00000AF07F11C0334220021184612F07AFEE3
:1009000007F1080300221A605A609A60DA601A61DF
:100910002B4B1B6C2A4A43F080531364284B1B6CEF
:1009200003F080537B607B68264B1B68254A43F4A9
:1009300040431360234B1B6803F440433B603B6818
:100940000223FB610123BB621023FB6202237B6352
:100950000023BB630823FB63D8233B6402237B642F
:100960000223BB640223FB6407F11C03184602F058
:100970003BFE0346002B01D000F026F802F0E4FD18
:100980000346002B01D000F01FF80F23BB600223A9
:10099000FB6000233B614FF4A0537B614FF4805315
:1009A000BB6107F108030721184603F0CBF80346A3
:1009B000002B01D000F008F800BF5037BD4680BDC5
:1009C000003802400070004080B400AF72B600BF33
:1009D000FEE7000080B483B000AF0F4B1B6C0E4AE3
:1009E00043F0805313640C4B1B6C03F080537B600B
:1009F0007B68094B5B6C084A43F480435364064BA5
:100A00005B6C03F480433B603B6800BF0C37BD4622
:100A10005DF8047B704700BF0038024080B400AF2F
:100A2000FEE780B400AFFEE780B400AFFEE780B41D
:100A300000AFFEE780B400AFFEE780B400AF00BFB8
:100A4000BD465DF8047B704780B400AF00BFBD4673
:100A50005DF8047B704780B400AF00BFBD465DF811
:100A6000047B704780B500AF00F032FC00BF80BD52
:100A700080B500AF024800F021FF00BF80BD00BF7D
:100A8000D402002080B500AF024804F0EBFA00BFAA
:100A900080BD00BF4C02002080B500AF024801F0CD
:100AA000A1FC00BF80BD00BF184D002080B400AF86
:100AB00001231846BD465DF8047B704780B483B0BF
:100AC00000AF78603960054B16221A604FF0FF3393
:100AD00018460C37BD465DF8047B7047FC84002047
:100AE00080B582B000AF78604FF0FF317868FFF7D3
:100AF000E5FFFEE780B586B000AFF860B9607A60C8
:100B000000237B610AE0AFF300800146BB685A1CFA
:100B1000BA60CAB21A707B6901337B617A697B68FB
:100B20009A42F0DB7B6818461837BD4680BD80B519
:100B300086B000AFF860B9607A6000237B6109E09D
:100B4000BB685A1CBA601B781846AFF300807B69FB
:100B500001337B617A697B689A42F1DB7B681846D6
:100B60001837BD4680BD80B483B000AF78604FF0C9
:100B7000FF3318460C37BD465DF8047B704780B4E0
:100B800083B000AF786039603B684FF400525A6020
:100B9000002318460C37BD465DF8047B704780B4CF
:100BA00083B000AF7860012318460C37BD465DF86E
:100BB000047B704780B485B000AFF860B9607A609C
:100BC000002318461437BD465DF8047B70470000CB
:100BD00080B487B000AF7860144A154BD31A7B619C
:100BE0007B693B61134B1B68002B02D1114B124AEE
:100BF0001A60104B1A687B6813443A699A4205D20E
:100C00000E4B0C221A604FF0FF3309E0094B1B68B2
:100C1000FB60084B1A687B681344064A1360FB6844
:100C200018461C37BD465DF8047B7047000008205D
:100C300000040000F801002010850020FC84002042
:100C400080B400AF064BD3F88830054A43F47003F4
:100C5000C2F8883000BFBD465DF8047B704700BF16
:100C600000ED00E080B588B000AF07F1100300226E
:100C70001A605A609A60DA603B1D00221A605A605E
:100C80009A601E4B4FF080421A601C4B6B225A60D8
:100C90001A4B00229A60194B4FF0FF32DA60174B63
:100CA00000221A61154B80229A61144803F058FD06
:100CB0000346002B01D0FFF787FE4FF480533B61C2
:100CC00007F1100319460D4803F012FE0346002BEE
:100CD00001D0FFF779FE00237B600023FB603B1D02
:100CE0001946064804F014F80346002B01D0FFF71C
:100CF0006BFE00BF2037BD4680BD00BFFC01002059
:100D000080B485B000AF78607B681B68B3F1804F1A
:100D10000BD1094B1B6C084A43F001031364064BCB
:100D20001B6C03F00103FB60FB6800BF1437BD467A
:100D30005DF8047B704700BF0038024080B500AF0B
:100D4000024803F065FD00BF80BD00BFFC0100202C
:100D500080B485B000AF786039600D4B1B685B6A6A
:100D6000FB607B681B68FA68D31ABB60BA683B6893
:100D70009A4204D37B68FA681A60002301E04FF0BE
:100D8000FF3318461437BD465DF8047B704700BF3B
:100D9000FC01002080B500AF144B154A1A60134BBC
:100DA0004FF4E1325A60114B00229A600F4B00223F
:100DB000DA600E4B00221A610C4B0C225A610B4B6D
:100DC00000229A61094B0022DA61084B00221A6264
:100DD000064B00225A62054804F028F80346002B0F
:100DE00001D0FFF7F1FD00BF80BD00BF4C02002025
:100DF0000048004080B5AEB000AF786007F1A403B2
:100E000000221A605A609A60DA601A6107F11403CE
:100E100090220021184612F0EDFB7B681B683E4AC9
:100E2000934274D14FF480737B6100233B6607F1DA
:100E30001403184603F06CF80346002B01D0FFF7AB
:100E4000C3FD364B1B6C354A43F480231364334B8C
:100E50001B6C03F480233B613B69304B1B6B2F4AB7
:100E600043F0080313632D4B1B6B03F00803FB6077
:100E7000FB684FF44073C7F8A4300223C7F8A830CA
:100E80000023C7F8AC300323C7F8B0300723C7F8F6
:100E9000B43007F1A4031946214802F08FF9214B21
:100EA000214A1A601F4B4FF000625A601D4B00220E
:100EB0009A601C4B0022DA601A4B4FF480621A6170
:100EC000184B00225A61174B00229A61154B4FF4C0
:100ED0008072DA61134B4FF440321A62114B0022D8
:100EE0005A62104800F04AFB0346002B01D0FFF77E
:100EF0006BFD7B680B4A5A670A4A7B689363002242
:100F00000021272000F003FB272000F01CFB00BF7E
:100F1000B837BD4680BD00BF0048004000380240E1
:100F2000000C0240D40200202860024080B500AFCF
:100F300001220349034804F050F800BF80BD00BF00
:100F4000480200204C02002080B582B000AF7860DB
:100F50000B467B807A884FF6FF737968034803F06D
:100F6000B3FF00BF0837BD4680BD00BF4C02002064
:100F700080B483B000AF78607B68074A934204D1A5
:100F8000064B1B785AB2064B1A7000BF0C37BD4691
:100F90005DF8047B704700BF4C020020480200202F
:100FA0000400002080B582B000AF78607B68064AFC
:100FB000934204D101220549034804F00EF800BF12
:100FC0000837BD4680BD00BF4C020020480200200B
:100FD00080B483B000AF074B1B78FB71054BFF2239
:100FE0001A7097F9073018460C37BD465DF8047B38
:100FF000704700BF04000020DFF834D0FFF720FE68
:101000000C480D490D4A002302E0D458C450043363
:10101000C4188C42F9D30A4A0A4C002301E0136039
:101020000432A242FBD312F0A3FAFFF7FDFB704794
:10103000000008200000002094000020D87B010858
:10104000D40100200C850020FEE780B483B000AFFF
:10105000786039607B68002B0BD03B68DB68002B25
:1010600007D03B689B68002B03D03B681B69002BB3
:1010700002D14FF0FF3314E03B681A687B689A6036
:101080003B685A687B68DA603B68DA687B685A615B
:101090003B689A687B681A613B681A697B689A6149
:1010A000002318460C37BD465DF8047B704780B5B9
:1010B00086B000AF78600023FB6000237B610023D3
:1010C0003B617B685B68002B39D17B689B68002B98
:1010D00002D07B689B6898477B6820221A600023B7
:1010E0007B611CE07B685B6907F10C021221786967
:1010F00098470346002B03DA6FF004033B610BE0D3
:10110000FB6803F01F037A699A4205D17B687A690C
:101110001A6000233B6105E07B6901337B617B69D9
:101120001F2BDFD97B681B681F2B02D96FF00203CE
:101130003B613B69002B02D17B6801225A603B690D
:1011400018461837BD4680BD80B584B000AF7860C2
:101150000023FB607B685B697A68106807F10C020A
:10116000012198470346002B02DA6FF004036EE07A
:101170007B685B697A68106807F10C020121984767
:101180000346002B02DA6FF0040360E0FB6803F013
:101190000403002B01D1012359E07B685B697A6865
:1011A000106807F10C02002198470346002B02DA71
:1011B0006FF004034BE0FB6803F48053002B1BD15A
:1011C000FB6803F40053002B06D0FB6803F4807324
:1011D000002B01D002233AE0FB6803F40053002BFC
:1011E00001D0032333E0FB6803F48073002B01D0AC
:1011F00004232CE005232AE07B685B697A68106889
:1012000007F10C021F2198470346002B02DA6FF00A
:1012100004031CE0FB6803F48053002B01D1062378
:1012200015E0FB6803F01C03182B01D102230EE02C
:10123000FB6803F01C03082B01D1032307E0FB68C4
:1012400003F01C03142B01D1042300E005231846EE
:101250001037BD4680BD80B500AF032000F04CF9CB
:101260000F2000F005F8FFF7B5FB0023184680BDFE
:1012700080B582B000AF7860124B1A68124B1B78B1
:1012800019464FF47A73B3FBF1F3B2FBF3F318464C
:1012900000F067F90346002B01D001230EE07B68C4
:1012A0000F2B0AD8002279684FF0FF3000F02FF999
:1012B000064A7B681360002300E0012318460837C4
:1012C000BD4680BD000000200C000020080000206A
:1012D00080B400AF064B1B781A46064B1B681344BC
:1012E000044A136000BFBD465DF8047B704700BF31
:1012F0000C0000203403002080B400AF034B1B68B7
:101300001846BD465DF8047B704700BF34030020DB
:1013100080B584B000AF7860FFF7EEFFB8607B68FF
:10132000FB60FB68B3F1FF3F05D00A4B1B781A4600
:10133000FB681344FB6000BFFFF7DEFF0246BB689B
:10134000D31AFA689A42F7D800BF00BF1037BD46DB
:1013500080BD00BF0C00002080B485B000AF786075
:101360007B6803F00703FB600B4BDB68BB60BA686C
:101370004FF6FF031340BB60FB681A02BB681A43B9
:10138000064B1343BB60044ABB68D36000BF1437ED
:10139000BD465DF8047B704700ED00E00000FA05F3
:1013A00080B400AF044BDB681B0A03F00703184648
:1013B000BD465DF8047B704700ED00E080B483B06B
:1013C00000AF0346FB7197F90730002B0BDBFB796D
:1013D00003F01F02074997F907305B09012000FA63
:1013E00002F241F8232000BF0C37BD465DF8047BB4
:1013F000704700BF00E100E080B483B000AF034657
:101400003960FB7197F90730002B0ADB3B68DAB2D1
:101410000C4997F907301201D2B20B4483F800232C
:101420000AE03B68DAB20849FB7903F00F03043B9A
:101430001201D2B20B441A7600BF0C37BD465DF8DC
:10144000047B704700E100E000ED00E080B489B06B
:1014500000AFF860B9607A60FB6803F00703FB61D6
:10146000FB69C3F10703042B28BF0423BB61FB699D
:101470000433062B02D9FB69033B00E000237B61A8
:101480004FF0FF32BB6902FA03F3DA43BB681A403C
:101490007B699A404FF0FF317B6901FA03F3D9432E
:1014A0007B680B40134318462437BD465DF8047B28
:1014B0007047000080B582B000AF78607B68013B68
:1014C000B3F1807F01D301230FE00A4A7B68013B1F
:1014D00053600F214FF0FF30FFF78EFF054B0022C6
:1014E0009A60044B07221A60002318460837BD464D
:1014F00080BD00BF10E000E080B582B000AF786032
:101500007868FFF729FF00BF0837BD4680BD80B56A
:1015100086B000AF0346B9607A60FB7300237B613D
:10152000FFF73EFF78617A68B9687869FFF78EFF48
:10153000024697F90F3011461846FFF75DFF00BFCE
:101540001837BD4680BD80B582B000AF0346FB7141
:1015500097F907301846FFF731FF00BF0837BD463F
:1015600080BD80B582B000AF78607868FFF7A2FFD9
:10157000034618460837BD4680BD000080B586B0DA
:1015800000AF786000237B61FFF7B6FE38617B68AF
:10159000002B01D1012399E07B68022283F83520DA
:1015A0007B68002283F834207B681B681A687B689C
:1015B0001B6822F001021A600FE0FFF79DFE024651
:1015C0003B69D31A052B08D97B6820225A657B68B2
:1015D000032283F83520032378E07B681B681B68AF
:1015E00003F00103002BE8D17B681B681B687B615B
:1015F0007A69384B13407B617B685A687B689B68CB
:101600001A437B68DB681A437B681B691A437B6853
:101610005B691A437B689B691A437B68DB691A43E1
:101620007B681B6A13437A6913437B617B685B6A3F
:10163000042B07D17B68DA6A7B681B6B13437A69DA
:1016400013437B617B681B687A691A607B681B683F
:101650005B697B617B6923F007037B617B685B6A65
:101660007A6913437B617B685B6A042B17D17B68C3
:101670009B6A7A6913437B617B68DB6A002B0ED01F
:10168000786800F009FB0346002B08D07B684022F5
:101690005A657B68002283F83520012316E07B68B9
:1016A0001B687A695A61786800F0C0FA0346FB60EB
:1016B0007B68DB6D3F229A40FB689A607B68002262
:1016C0005A657B68012283F83520002318461837B5
:1016D000BD4680BD3F8010E080B586B000AFF860A9
:1016E000B9607A603B600023FB75FB689B6D3B61D2
:1016F000FB6893F83430012B01D1022348E0FB68EA
:10170000012283F83420FB6893F83530DBB2012BDB
:1017100037D1FB68022283F83520FB6800225A6526
:101720003B687A68B968F86800F052FAFB68DB6DCC
:101730003F229A403B699A60FB681B681A68FB6805
:101740001B6842F016021A60FB681B685A69FB6846
:101750001B6842F080025A61FB681B6C002B07D0AB
:10176000FB681B681A68FB681B6842F008021A6075
:10177000FB681B681A68FB681B6842F001021A606C
:1017800005E0FB68002283F834200223FB75FB7D13
:1017900018461837BD4680BD80B584B000AF78606C
:1017A0007B689B6DFB60FFF7A7FDB8607B6893F8D3
:1017B0003530DBB2022B08D07B6880225A657B680B
:1017C000002283F83420012352E07B681B681A68EA
:1017D0007B681B6822F016021A607B681B685A69D6
:1017E0007B681B6822F080025A617B681B6C002BAF
:1017F00003D17B689B6C002B07D07B681B681A6841
:101800007B681B6822F008021A607B681B681A68F4
:101810007B681B6822F001021A6013E0FFF76CFD81
:101820000246BB68D31A052B0CD97B6820225A6567
:101830007B68032283F835207B68002283F83420FC
:10184000032315E07B681B681B6803F00103002B72
:10185000E4D17B68DB6D3F229A40FB689A607B682D
:10186000012283F835207B68002283F8342000238E
:1018700018461037BD4680BD80B483B000AF786095
:101880007B6893F83530DBB2022B04D07B68802272
:101890005A6501230CE07B68052283F835207B68BC
:1018A0001B681A687B681B6822F001021A6000231B
:1018B00018460C37BD465DF8047B704780B586B08E
:1018C00000AF78600023BB608E4B1B688E4AA2FB82
:1018D00003239B0A7B617B689B6D3B613B691B68B3
:1018E000FB607B68DB6D08229A40FB681340002B8D
:1018F0001AD07B681B681B6803F00403002B13D00D
:101900007B681B681A687B681B6822F004021A60F7
:101910007B68DB6D08229A403B699A607B685B6D4F
:1019200043F001027B685A657B68DB6D01229A40B7
:10193000FB681340002B12D07B681B685B6903F0C7
:101940008003002B0BD07B68DB6D01229A403B6942
:101950009A607B685B6D43F002027B685A657B6826
:10196000DB6D04229A40FB681340002B12D07B6889
:101970001B681B6803F00203002B0BD07B68DB6D38
:1019800004229A403B699A607B685B6D43F00402D5
:101990007B685A657B68DB6D10229A40FB681340B8
:1019A000002B43D07B681B681B6803F00803002BE7
:1019B0003CD07B68DB6D10229A403B699A607B6863
:1019C0001B681B6803F48023002B18D07B681B68FE
:1019D0001B6803F40023002B08D17B681B6C002BD1
:1019E00024D07B681B6C786898471FE07B689B6CF1
:1019F000002B1BD07B689B6C7868984716E07B684F
:101A00001B681B6803F48073002B07D17B681B687D
:101A10001A687B681B6822F008021A607B681B6CDE
:101A2000002B03D07B681B6C786898477B68DB6D64
:101A300020229A40FB681340002B00F08F807B68C7
:101A40001B681B6803F01003002B00F087807B6885
:101A5000DB6D20229A403B699A607B6893F83530B1
:101A6000DBB2052B36D17B681B681A687B681B6864
:101A700022F016021A607B681B685A697B681B6833
:101A800022F080025A617B681B6C002B03D17B68BB
:101A90009B6C002B07D07B681B681A687B681B68EF
:101AA00022F008021A607B68DB6D3F229A403B6996
:101AB0009A607B68012283F835207B68002283F8D6
:101AC00034207B681B6D002B7ED07B681B6D786893
:101AD000984779E07B681B681B6803F48023002B20
:101AE0001DD07B681B681B6803F40023002B0DD1FD
:101AF0007B685B6C002B31D07B685B6C78689847A7
:101B00002CE000BF00000020B5814E1B7B68DB6B22
:101B1000002B23D07B68DB6B786898471EE07B68DE
:101B20001B681B6803F48073002B0FD17B681B6854
:101B30001A687B681B6822F010021A607B68012219
:101B400083F835207B68002283F834207B68DB6BC8
:101B5000002B03D07B68DB6B786898477B685B6DF4
:101B6000002B32D07B685B6D03F00103002B22D089
:101B70007B68052283F835207B681B681A687B68C0
:101B80001B6822F001021A60BB680133BB607A69EE
:101B90009A4207D37B681B681B6803F00103002B84
:101BA000F2D100E000BF7B68012283F835207B681A
:101BB000002283F834207B68DB6C002B05D07B6827
:101BC000DB6C7868984700E000BF1837BD4680BDE1
:101BD00080B485B000AFF860B9607A603B60FB68A4
:101BE0001B681A68FB681B6822F480221A60FB6875
:101BF0001B683A685A60FB689B68402B08D1FB68F9
:101C00001B687A689A60FB681B68BA68DA6007E04C
:101C1000FB681B68BA689A60FB681B687A68DA60C0
:101C200000BF1437BD465DF8047B704780B485B0B3
:101C300000AF78607B681B68DBB2103B134AA2FBE5
:101C400003231B09FB60124AFB6813441B781A46E6
:101C50007B68DA65FB68032B08D97B681B681A462A
:101C60000C4B13401A1D7B689A6506E07B681B6865
:101C70001A46084B13407A6893657B689B6D18463B
:101C80001437BD465DF8047B704700BFABAAAAAA13
:101C90008879010800FCFFFF80B485B000AF786050
:101CA0000023FB737B689B6ABB607B689B69002B8E
:101CB0001FD1BB68032B56D801A252F823F000BFF6
:101CC000D11C0008E31C0008D11C0008671D000897
:101CD0007B68DB6A03F08073002B46D00123FB7323
:101CE00043E07B68DB6AB3F1C07F40D10123FB7323
:101CF0003DE07B689B69B3F5005F21D1BB68032B96
:101D000037D801A252F823F0191D00081F1D000842
:101D1000191D0008311D00080123FB7330E07B68AA
:101D2000DB6A03F08073002B25D00123FB7322E0D4
:101D30007B68DB6AB3F1C07F1FD10123FB731CE01A
:101D4000BB68022B03D9BB68032B03D018E0012327
:101D5000FB7315E07B68DB6A03F08073002B0ED009
:101D60000123FB730BE000BF0AE000BF08E000BFE7
:101D700006E000BF04E000BF02E000BF00E000BFDB
:101D8000FB7B18461437BD465DF8047B704700BFE7
:101D900080B584B000AF78607B68002B01D101234F
:101DA00086E07B68D3F88430002B06D17B68232241
:101DB000C3F88420786804F049FF3F4B5B6C3E4ACF
:101DC00043F4804353643C4B5B6C03F48043BB603F
:101DD000BB683A4B5B68394A23F400035360374BC6
:101DE0005A687B689B68354913434B60334B5B688B
:101DF0007B681B6803F580531B687A68126843F0A0
:101E0000010302F580521360FFF776FAF86011E0E3
:101E1000FFF772FA0246FB68D31AB3F5FA7F09D9C5
:101E20007B680422C3F888207B68E022C3F8842002
:101E300001233DE07B681B6803F580531B6803F0BA
:101E40000103002BE4D1786800F0FCFE786800F014
:101E5000A7FF786800F0FDFF7B685B681A460021E9
:101E6000786800F065FF7B681B68DA6B7B681B682D
:101E700042F40272DA637B681B68D3F80C117B684A
:101E80001A680F4B0B43C2F80C317B681B68D3F800
:101E900010217B681B6842F40312C3F810217B6891
:101EA0000022C3F888207B681022C3F88420002316
:101EB00018461037BD4680BD00380240003801404A
:101EC0006000020080B584B000AF78607B68D3F812
:101ED0008430102B50D17B682322C3F884207B6888
:101EE0000422DA66786800F0F9F97B681B681A68E2
:101EF0007B681B6842F008021A607B681B681B68DD
:101F0000FB600120FFF704FA7B681B68FA681A601F
:101F10007B681B681A687B681B6842F004021A60C1
:101F20007B681B681B68FB600120FFF7F1F97B6889
:101F30001B68FA681A60786800F020FD7B681B68EF
:101F400003F580539B697A68126843F4005302F5E5
:101F5000805293617B681B6803F580539B697A68A4
:101F6000126843F0020302F5805293617B682322DA
:101F7000C3F88420002300E0012318461037BD4633
:101F800080BD80B584B000AF78607B68D3F88430C2
:101F9000232B4AD17B682322C3F884207B681B68EB
:101FA00003F580539B697A68126823F4005302F5A5
:101FB000805293617B681B6803F580539B697A6844
:101FC000126823F0020302F5805293617B681B685C
:101FD0001A687B681B6822F004021A607B681B6821
:101FE0001B68FB600120FFF793F97B681B68FA68A8
:101FF0001A60786800F0C2FC7B681B681A687B680E
:102000001B6822F008021A607B681B681B68FB6073
:102010000120FFF77DF97B681B68FA681A607B680E
:102020001022C3F88420002300E001231846103753
:10203000BD4680BD80B586B000AFF860B9607A60FB
:10204000BB68002B09D1FB68D3F8883043F001024C
:10205000FB68C3F8882001237CE0FB68D3F8843058
:10206000232B76D10022B968F86800F061FF03469F
:10207000002B09D0FB68D3F8883043F00202FB68DC
:10208000C3F88820012365E0BFF34F8F00BFFB68D2
:102090009A6AFB68063253F822307B61FB689B6AC0
:1020A0005A1CFB689A62FB689B6A032B04D9FB6885
:1020B0009B6A1A1FFB689A62FB68996AFB681A6838
:1020C000FB68063153F8213002F580525360FFF768
:1020D00013F9386137E0FB681B6803F580535B69CF
:1020E00003F40053002B11D0FB68D3F8883043F081
:1020F0000802FB68C3F88820FB681B6803F580535F
:102100005A69FB68C3F88C20012323E07B68B3F194
:10211000FF3F18D0FFF7F0F802463B69D31A7A6800
:102120009A4202D37B68002B0DD1FB68D3F888302C
:1021300043F00402FB68C3F888207B694FF04052EB
:102140001A60012306E07B691B68002BC3DB0023B8
:1021500000E0012318461837BD4680BD80B588B021
:1021600000AF7860396000237B610023FB743B681B
:10217000002B09D17B68D3F8883043F001027B68DB
:10218000C3F888200123A4E07B68D3F88430232B94
:1021900001D001239DE07B68DB6DFB617B68FA6900
:1021A000123253F82230BB617B68DB6EC3F104034B
:1021B000FB6066E0BB691B6803F48073002B07D0EB
:1021C000BB69DA697B689A67BB699A697B685A67F9
:1021D000BB691B6803F40073002B03D17B68DB6FC2
:1021E000002B3CD0BB691B6803F40073002B05D0A7
:1021F0007B6800221A667B6800225A66BB691B68EE
:102200001B0CC3F30D03BB60BB691B6803F4807335
:10221000002B05D0BB691A687B681A670123FB7421
:10222000BB699A68BB691A627B6803F17C007B68B2
:1022300003F18001BB691B6A1A46BB689BB204F0BC
:10224000CFFE7B681B6E5A1C7B681A667B685A6ED1
:10225000BB681A447B685A66BB6900221A62FB6934
:102260000133FB61FB69032B02D9FB69043BFB6172
:102270007B68FA69123253F82230BB617B69013303
:102280007B61BB691B68002B06DB7A69FB689A429D
:1022900002D2FB7C002B8DD07B68DA6E7B691A44FE
:1022A0007B68DA667B68DB6E002B02D0786800F012
:1022B00015F87B68FA69DA65FB7C012B08D17B682D
:1022C000DA6F3B681A607B680022DA67002300E05F
:1022D000012318462037BD4680BD000080B588B078
:1022E00000AF78600023BB600123FB747B689B6EAA
:1022F000FB617B68FA69123253F822307B617B689C
:10230000DB6EBB6142E07B691B6A002B12D107F1D7
:102310000803184604F034FEBB68002B02D10023EA
:10232000FB7407E0BB681A467B691A62BB681A46F1
:102330007B699A60FB7C002B28D07B689B6D002B0F
:1023400006D17B685A69264B13437A69536005E0CE
:102350007B685B6943F480427B695A607B691B68D8
:1023600043F000427B691A60FB690133FB61FB6942
:10237000032B02D9FB69043BFB617B68FA691232CB
:1023800053F822307B61BB69013BBB61BB69002B09
:1023900002D0FB7C002BB6D17B68DB6EBA699A4217
:1023A0001AD0FB69013303F00303FB60BFF35F8FB7
:1023B00000BF7B681969FA6813469B001344DB0071
:1023C000CA187B681B6803F580539A607B68FA69BA
:1023D0009A667B68BA69DA6600BF2037BD4680BD61
:1023E0000040008080B586B000AF78607B681B68D5
:1023F0009B6B7B617B681B6803F580535B693B616A
:102400007B681B6803F58053DB69FB604B4B5B69A2
:10241000BB603B6903F04003002B0ED0FB6803F068
:102420004003002B09D07B681B6803F580531A46D4
:10243000434B5361786800F091F83B6903F0010366
:10244000002B0FD0FB6803F00103002B0AD07B6840
:102450001B6803F580531A464FF0011353617868E7
:1024600000F072F83B6903F40043002B42D0FB6894
:1024700003F40043002B3DD07B68D3F8883043F051
:1024800008027B68C3F888203B6903F40053002BE3
:102490001AD07B681B6803F580535A69294B134097
:1024A0007A68C2F88C307B681B6803F58053DB695F
:1024B0007A68126823F4C03302F58052D3617B68D6
:1024C000E022C3F8842012E07B681B6803F5805388
:1024D0005A6948F2806313407A68C2F88C307B688E
:1024E0001B6803F580531A4648F28063536178688D
:1024F00000F03EF87B6903F00803002B0ED07B68E8
:102500001B68DB6A03F060027B68C3F8942078687C
:1025100000F038F87B680022C3F89420BB6803F40D
:102520000023002B06D0054B4FF400225A61786837
:1025300000F032F800BF1837BD4680BD003C0140B6
:102540004000010000207E0080B483B000AF7860BE
:1025500000BF0C37BD465DF8047B704780B483B084
:1025600000AF786000BF0C37BD465DF8047B704754
:1025700080B483B000AF786000BF0C37BD465DF813
:10258000047B704780B483B000AF786000BF0C3725
:10259000BD465DF8047B704780B483B000AF7860BF
:1025A00000BF0C37BD465DF8047B704780B586B030
:1025B00000AFF860B9607A603B60FB681B681B691C
:1025C0007B617B6903F01C037B61BB68DB029BB210
:1025D0007A6913437B617B689B0103F4F8637A6932
:1025E00013437B617B6923F002037B617B6943F0CA
:1025F00001037B61FB681B687A691A61FEF77CFE48
:1026000038610DE0FEF778FE02463B69D31AB3F558
:10261000803F01D3012310E0FB681B681B697B61CD
:102620007B6903F00103002BECD1FB681B685B693D
:102630009BB21A463B681A60002318461837BD46FD
:1026400080BD80B586B000AFF860B9607A603B604D
:10265000FB681B681B697B617B6903F01C037B6162
:10266000BB68DB029BB27A6913437B617B689B0189
:1026700003F4F8637A6913437B617B6943F00203D7
:102680007B617B6943F001037B613B689AB2FB6825
:102690001B685A61FB681B687A691A61FEF72CFE99
:1026A00038610DE0FEF728FE02463B69D31AB3F508
:1026B000803F01D3012309E0FB681B681B697B6134
:1026C0007B6903F00103002BECD100231846183777
:1026D000BD4680BD80B483B000AF786039603B6890
:1026E000002B01D10123E6E07B681B681B6803F027
:1026F0001003002B14BF01230023DBB21A463B68F2
:1027000083F828207B681B681B6803F060023B6825
:102710005A627B681B681B6803F40073002B0CBFB4
:1027200001230023DBB21A463B6883F820207B6834
:102730001B681B6803F48033002B14BF01230023A4
:10274000DBB21A463B68DA777B681B681B6803F4C8
:102750000053002B0CBF01230023DBB21A463B6859
:102760009A777B681B681B6803F48053002B14BFA7
:1027700001230023DBB21A463B681A777B681B688B
:102780001B6803F400623B689A617B681B681B68E6
:1027900003F480423B685A617B681B681B6803F442
:1027A0008003002B0CBF01230023DBB21A463B68D9
:1027B0005A747B681B681B6803F40003002B0CBF72
:1027C00001230023DBB21A463B681A747B681B683E
:1027D0001B6803F08003002B14BF01230023DBB22E
:1027E0001A463B68DA737B681B681B6803F4602237
:1027F0003B689A607B681B681B6803F48063002B4E
:1028000014BF01230023DBB21A463B681A717B68B0
:102810001B681B6803F00073002B14BF0123002307
:10282000DBB21A463B689A737B681B689B6903F0AE
:102830000203002B14BF01230023DBB21A463B68BE
:1028400083F854207B681B689B6903F08003002B8E
:102850000CBF01230023DBB21A463B6883F84C20EF
:102860007B681B689B6903F030023B681A657B68D4
:102870001B689B691B0C9AB23B689A647B681B6857
:102880009B6903F00403002B14BF01230023DBB278
:102890001A463B6883F856207B681B689B6903F0E7
:1028A0000803002B14BF01230023DBB21A463B6848
:1028B00083F85520002318460C37BD465DF8047B8D
:1028C000704780B582B000AF786039603B68002BFC
:1028D00001D101230BE07B68D3F88430102B05D1A4
:1028E0003968786800F070F8002300E0012318468A
:1028F0000837BD4680BD000080B584B000AF786069
:102900007B681B681B69FB60FB6823F01C03FB6092
:1029100001F0CAFAB860BB68144A934204D8FB6855
:1029200043F00803FB6019E0BB68114A934204D2EC
:10293000FB6843F00C03FB6010E0BB680D4A934258
:102940000CD9BB680C4A934204D8FB6843F00403DB
:10295000FB6003E0FB6843F01003FB607B681B68CF
:10296000FA681A6100BF1037BD4680BDBF0E16025F
:1029700000879303FFE0F5057FD1F00880B584B0B0
:1029800000AF78600023FB607B681B6803F5805311
:102990009B697A68126843F4801302F58052936150
:1029A0007B681B6803F580539B69FB600120FEF781
:1029B000AFFC7B681A68FB6802F58052936100BF28
:1029C0001037BD4680BD000080B584B000AF786090
:1029D00039607B681B681B68FB60FA68534B1340C7
:1029E000FB603B689B7B5B063A68127C002A02D145
:1029F0004FF4000200E0002213433A68527C002AA0
:102A000002D14FF4800200E000221A433B689B6829
:102A10001A433B68DB7F1B041A433B685B69134323
:102A20003A68927F002A02D14FF4005200E000225F
:102A30001A433B681B7F1B031A433B689B691A437D
:102A40003B681B799B0213433A6892F82020002AC6
:102A500002D14FF4007200E000221A433B68DB7B96
:102A6000DB011A433B685B6A1A433B6893F82830E2
:102A70001B011343FA681343FB607B681B68FA6809
:102A80001A607B681B681B68FB600120FEF740FC36
:102A90007B681B68FA681A607B681B689B69FB602F
:102AA000FA684FF641731340FB603B689B6C1B0454
:102AB0003A6892F84C20002A01D1802200E00022DE
:102AC0001A433B681B6D13433A6892F85520012A5C
:102AD00001D1082200E0002213433A6892F8562000
:102AE000012A01D1042200E0002213433A6892F83F
:102AF0005420012A01D1022200E000221343FA6887
:102B00001343FB607B681B68FA689A617B681B68EB
:102B10009B69FB600120FEF7FBFB7B681B68FA6882
:102B20009A6100BF1037BD4680BD00BF0F8120FDF8
:102B300080B584B000AF786039607B681B6803F5AE
:102B400080539B69FB60FA683D4B1340FB603B6818
:102B50001B7B002B02D14FF0806200E000223B681B
:102B60005B7B5B0613433A68527F002A02D14FF425
:102B7000801200E000221A433B689B7B5B051A43EE
:102B80003B685B691A433B681B7FDB011A433B6868
:102B90009B7F9B011A433B681B6A1A433B6893F86F
:102BA00024309B001343FA681343FB607B681B6867
:102BB00003F580531A46FB6893617B681B6803F535
:102BC00080539B69FB600120FEF7A2FB7B681B68BA
:102BD00003F580531A46FB6893613B681B795A06DC
:102BE0003B689B681A433B689B691A433B681B69B7
:102BF0001A433B6893F82530DB011A433B689B6A14
:102C00009B001A433B681B6813437A68126843F4BD
:102C1000000302F5805213607B681B6803F5805344
:102C20001B68FB600120FEF773FB7B681B6803F5E4
:102C300080531A46FB68136000BF1037BD4680BD45
:102C4000233FDEF880B5A6B000AF7860012387F897
:102C50004430012387F845300023FB63002387F8C5
:102C60005330012387F85230002387F85030012376
:102C700087F84230012387F83830002387F8543032
:102C8000002387F843300023BB65002387F85C30BE
:102C90000023FB67002387F880300023C7F88430C7
:102CA000002387F88A30002387F888304FF4804368
:102CB000BB644FF40063FB64002387F8893007F19D
:102CC000340319467868FFF77FFE01233B75012323
:102CD0007B75012387F825300123BB750023FB6139
:102CE000002387F82430002387F826300023BB62B6
:102CF000012387F82C3001233B734FF480333B6171
:102D00004FF480033B624FF40053BB61012387F80B
:102D10002D3000233B630023BB6007F108031946F5
:102D20007868FFF705FF00BF9837BD4680BD0000FB
:102D300080B487B000AFF860B9607A607B68053313
:102D40001B781B027A680432127813437B61BA68DD
:102D5000114B13441A467B6913607B6803331B785D
:102D60001A067B6802331B781B041A437B68013305
:102D70001B781B0213437A68127813437B61BA688D
:102D8000064B13441A467B69136000BF1C37BD46CF
:102D90005DF8047B704700BF4080024044800240E1
:102DA00080B485B000AF78600023FB603EE07B68B4
:102DB000D968FA6813469B001344DB000B44BB60E0
:102DC000BB6800221A60BB6800225A60BB68002200
:102DD0009A60BB680022DA60B9687B68FA680632DC
:102DE00043F82210BB681B6843F48012BB681A606A
:102DF000FB68022B0CD87B68D968FB685A1C134609
:102E00009B001344DB000B441A46BB68DA6004E005
:102E10007B68DB681A46BB68DA60BB681B6843F4F2
:102E20004002BB681A60FB680133FB60FB68032B40
:102E3000BDD97B6800229A627B68DA687B681B6870
:102E400003F580531A6100BF1437BD465DF8047B5B
:102E5000704780B485B000AF78600023FB6048E025
:102E60007B681969FA6813469B001344DB000B4426
:102E7000BB60BB6800221A60BB6800225A60BB6856
:102E800000229A60BB680022DA60BB6800221A62E6
:102E9000BB6800225A62BB684FF000421A607B6830
:102EA0005B6943F48042BB685A60BB685B6823F08F
:102EB0000042BB685A60B9687B68FA68123243F80E
:102EC0002210FB68022B0CD87B681969FB685A1C1E
:102ED00013469B001344DB000B441A46BB68DA60C0
:102EE00004E07B681B691A46BB68DA60FB68013343
:102EF000FB60FB68032BB3D97B680022DA657B6833
:102F000000221A667B6800229A667B680022DA66D5
:102F10007B6800229A657B681A697B681B6803F5E9
:102F20008053DA6000BF1437BD465DF8047B7047FC
:102F300080B491B000AFF860B9607A60FB68183374
:102F40007B627B6A1B69FB637B6A1B693B620023B4
:102F50007B637B6AFA6B53F822303B63BB689B68E8
:102F6000FB620023BB623B6B1B6803F00043B3F1C1
:102F7000004F07D07A6AFB6B04339B0013445B68F5
:102F8000002B01D0022311E17B6B01337B63FB6AD1
:102F90001B681A463B6B9A603B6B5A68864B134022
:102FA000FA6A52681A433B6B5A60BB681B6803F0AD
:102FB0000103002B08D03B6B1B6823F44002BB6865
:102FC0005B691A433B6B1A60BB681B6803F0200304
:102FD000002B08D03B6B1B6823F04062BB681B6969
:102FE0001A433B6B1A60BB681B6803F00403002B99
:102FF00005D03B6B1B6843F080023B6B1A603B6B58
:103000001B6843F080523B6B1A6082E03B6B1B688D
:1030100023F000523B6B1A607B68002B06D03B6BA1
:103020001B6843F080423B6B1A6005E03B6B1B68FA
:1030300023F080423B6B1A60FB6B0133FB63FB6B3D
:10304000032B02D9FB6B043BFB637B6AFA6B53F8DF
:1030500022303B633B6B1B6803F00043B3F1004F2E
:1030600007D07A6AFB6B04339B0013445B68002B28
:1030700029D03B6AFB637B6AFA6B53F822303B63CF
:103080000023BB6319E0BFF35F8F00BF3B6B1B687E
:1030900023F000423B6B1A60FB6B0133FB63FB6B5D
:1030A000032B02D9FB6B043BFB637B6AFA6B53F87F
:1030B00022303B63BB6B0133BB63BA6B7B6B9A42C1
:1030C000E1D3022372E03B6B1B6823F080523B6B21
:1030D0001A607B6B01337B63FB6A9B68FB62FB6A54
:1030E0001B681A463B6B9A603B6B5A68324B134025
:1030F000FA6A52681A433B6B5A60BB6A0133BB627F
:10310000BFF35F8F00BF3B6B1B6843F000423B6B1C
:103110001A60FB6A9B68002B7FF478AF7B68002BFA
:1031200006D03B6B1B6843F080423B6B1A6005E0A6
:103130003B6B1B6823F080423B6B1A603B6B1B6848
:1031400043F000523B6B1A607B6A3A6A53F82230B4
:103150003B63BFF35F8F00BF3B6B1B6843F00042D4
:103160003B6B1A607B6A5A6A796AFB6B04339B007B
:103170000B445A607B6AFA6B1A61EFF310833B6170
:103180003B69FB6101237B617B6983F3108800BF8E
:103190007B6A9A6ABB6A13445A1C7B6A9A62FB690F
:1031A000BB61BB6983F3108800BF00231846443716
:1031B000BD465DF8047B704700E0FFFF80B489B036
:1031C00000AF786039600023FB6100237B6100233E
:1031D0003B610023BB610023FB6175E10122FB69B8
:1031E00002FA03F37B613B681B687A6913403B6119
:1031F0003A697B699A4240F064813B685B6803F0FE
:103200000303012B05D03B685B6803F00303022B2B
:1032100030D17B689B68BB61FB695B00032202FACB
:1032200003F3DB43BA691340BB613B68DA68FB69AF
:103230005B0002FA03F3BA691343BB617B68BA69A6
:103240009A607B685B68BB610122FB6902FA03F349
:10325000DB43BA691340BB613B685B681B0903F041
:103260000102FB6902FA03F3BA691343BB617B688D
:10327000BA695A603B685B6803F00303032B17D0FD
:103280007B68DB68BB61FB695B00032202FA03F326
:10329000DB43BA691340BB613B689A68FB695B001A
:1032A00002FA03F3BA691343BB617B68BA69DA6057
:1032B0003B685B6803F00303022B23D1FB69DA0848
:1032C0007B68083253F82230BB61FB6903F00703C7
:1032D0009B000F2202FA03F3DB43BA691340BB6180
:1032E0003B681A69FB6903F007039B0002FA03F3CA
:1032F000BA691343BB61FB69DA087B680832B969B4
:1033000043F822107B681B68BB61FB695B000322EA
:1033100002FA03F3DB43BA691340BB613B685B68A5
:1033200003F00302FB695B0002FA03F3BA6913437B
:10333000BB617B68BA691A603B685B6803F4403321
:10334000002B00F0BE80664B5B6C654A43F4804303
:103350005364634B5B6C03F48043FB60FB68614A1E
:10336000FB699B08023352F82330BB61FB6903F011
:1033700003039B000F2202FA03F3DB43BA691340F5
:10338000BB617B68584A934237D07B68574A934267
:1033900031D07B68564A93422BD07B68554A934282
:1033A00025D07B68544A93421FD07B68534A93428E
:1033B00019D07B68524A934213D07B68514A93429A
:1033C0000DD07B68504A934207D07B684F4A9342A6
:1033D00001D1092312E00A2310E008230EE007239D
:1033E0000CE006230AE0052308E0042306E003239B
:1033F00004E0022302E0012300E00023FA6902F066
:10340000030292009340BA691343BB613549FB69DB
:103410009B080233BA6941F823203D4B9B68BB618E
:103420003B69DB43BA691340BB613B685B6803F4EB
:103430008013002B03D0BA693B691343BB61344A44
:10344000BB699360324BDB68BB613B69DB43BA69A4
:103450001340BB613B685B6803F40013002B03D08F
:10346000BA693B691343BB61294ABB69D360284BE6
:103470005B68BB613B69DB43BA691340BB613B6876
:103480005B6803F40033002B03D0BA693B69134334
:10349000BB611F4ABB6953601D4B1B68BB613B6925
:1034A000DB43BA691340BB613B685B6803F480335C
:1034B000002B03D0BA693B691343BB61144ABB6953
:1034C0001360FB690133FB61FB690F2B7FF686AE4E
:1034D00000BF00BF2437BD465DF8047B704700BFC6
:1034E0000038024000380140000002400004024061
:1034F00000080240000C024000100240001402408C
:1035000000180240001C024000200240002402403B
:10351000003C014080B483B000AF78600B467B80F4
:1035200013467B707B78002B03D07A887B689A6186
:1035300003E07B881A047B689A6100BF0C37BD46A4
:103540005DF8047B7047000080B582B000AF0023B7
:103550007B60234B1B6C224A43F080531364204B47
:103560001B6C03F080533B603B681E4B1B681D4A7D
:1035700043F480331360FDF7BFFE786009E0FDF788
:10358000BBFE02467B68D31AB3F57A7F01D90323C9
:1035900022E0144B5B6803F48033B3F5803FEED137
:1035A000104B1B680F4A43F400331360FDF7A4FE71
:1035B000786009E0FDF7A0FE02467B68D31AB3F5F8
:1035C0007A7F01D9032307E0064B5B6803F40033DD
:1035D000B3F5003FEED1002318460837BD4680BD45
:1035E000003802400070004080B586B000AF7860BF
:1035F0000023FB757B68002B01D101239BE27B68D4
:103600001B6803F00103002B00F08780964B9B683A
:1036100003F00C03042B0CD0934B9B6803F00C03BA
:10362000082B12D1904B5B6803F48003B3F5800F35
:103630000BD18D4B1B6803F40033002B6CD07B68DF
:103640005B68002B68D1012375E27B685B68B3F58A
:10365000803F06D1844B1B68834A43F48033136058
:103660002EE07B685B68002B0CD17F4B1B687E4A89
:1036700023F4803313607C4B1B687B4A23F4802344
:1036800013601DE07B685B68B3F5A02F0CD1764B0F
:103690001B68754A43F480231360734B1B68724A9E
:1036A00043F4803313600BE06F4B1B686E4A23F4C6
:1036B000803313606C4B1B686B4A23F480231360C8
:1036C0007B685B68002B13D0FDF716FE386108E0BD
:1036D000FDF712FE02463B69D31A642B01D903237E
:1036E00029E2614B1B6803F40033002BF0D014E097
:1036F000FDF702FE386108E0FDF7FEFD02463B697A
:10370000D31A642B01D9032315E2574B1B6803F42A
:103710000033002BF0D100E000BF7B681B6803F092
:103720000203002B69D0504B9B6803F00C03002B65
:103730000BD04D4B9B6803F00C03082B1CD14A4B5C
:103740005B6803F48003002B16D1474B1B6803F022
:103750000203002B05D07B68DB68012B01D001231D
:10376000E9E1414B1B6823F0F8027B681B69DB0031
:103770003D4913430B6040E07B68DB68002B23D09E
:10378000394B1B68384A43F001031360FDF7B4FD61
:10379000386108E0FDF7B0FD02463B69D31A022B01
:1037A00001D90323C7E1304B1B6803F00203002B50
:1037B000F0D02D4B1B6823F0F8027B681B69DB00FF
:1037C000294913430B6018E0274B1B68264A23F056
:1037D00001031360FDF790FD386108E0FDF78CFDF3
:1037E00002463B69D31A022B01D90323A3E11E4BE6
:1037F0001B6803F00203002BF0D17B681B6803F009
:103800000803002B38D07B685B69002B19D0164B5E
:103810005B6F154A43F001035367FDF76DFD386197
:1038200008E0FDF769FD02463B69D31A022B01D976
:10383000032380E10C4B5B6F03F00203002BF0D0FD
:103840001AE0094B5B6F084A23F001035367FDF749
:1038500053FD38610AE0FDF74FFD02463B69D31A7C
:10386000022B03D9032366E100380240924B5B6FC1
:1038700003F00203002BEED17B681B6803F0040306
:10388000002B00F0A4808C4B1B6C03F08053002BAA
:103890000DD1894B1B6C884A43F080531364864BCF
:1038A0001B6C03F08053BB60BB680123FB75834B2B
:1038B0001B6803F48073002B18D1804B1B687F4A70
:1038C00043F480731360FDF717FD386108E0FDF7DE
:1038D00013FD02463B69D31A642B01D903232AE165
:1038E000764B1B6803F48073002BF0D07B689B68D9
:1038F000012B06D1704B1B6F6F4A43F00103136716
:103900002DE07B689B68002B0CD16B4B1B6F6A4AC8
:1039100023F001031367684B1B6F674A23F004030E
:1039200013671CE07B689B68052B0CD1624B1B6FF7
:10393000614A43F0040313675F4B1B6F5E4A43F019
:10394000010313670BE05C4B1B6F5B4A23F0010321
:103950001367594B1B6F584A23F0040313677B68A6
:103960009B68002B15D0FDF7C7FC38610AE0FDF716
:10397000C3FC02463B69D31A41F28832934201D913
:103980000323D8E04C4B1B6F03F00203002BEED057
:1039900014E0FDF7B1FC38610AE0FDF7ADFC02462A
:1039A0003B69D31A41F28832934201D90323C2E022
:1039B000414B1B6F03F00203002BEED1FB7D012B6B
:1039C00005D13D4B1B6C3C4A23F0805313647B684C
:1039D0009B69002B00F0AE80374B9B6803F00C0313
:1039E000082B6DD07B689B69022B4BD1324B1B6837
:1039F000314A23F080731360FDF77EFC386108E0E4
:103A0000FDF77AFC02463B69D31A022B01D9032346
:103A100091E0294B1B6803F00073002BF0D17B6809
:103A2000DA697B681B6A1A437B685B6A9B011A43ED
:103A30007B689B6A5B08013B1B041A437B68DB6A5B
:103A40001B061A437B681B6B1B071B4913434B6008
:103A5000194B1B68184A43F080731360FDF74CFC48
:103A6000386108E0FDF748FC02463B69D31A022B97
:103A700001D903235FE0104B1B6803F00073002B98
:103A8000F0D057E00C4B1B680B4A23F08073136097
:103A9000FDF732FC386108E0FDF72EFC02463B6979
:103AA000D31A022B01D9032345E0034B1B6803F013
:103AB0000073002BF0D13DE0003802400070004060
:103AC0001F4B5B68FB607B689B69012B30D0FB68F8
:103AD00003F480027B68DB699A4229D1FB6803F01A
:103AE0003F027B681B6A9A4222D1FA6847F6C0738C
:103AF00013407A68526A9201934219D1FB6803F429
:103B000040327B689B6A5B08013B1B049A420FD1E1
:103B1000FB6803F070627B68DB6A1B069A4207D180
:103B2000FB6803F0E0427B681B6B1B079A4201D0E5
:103B3000012300E0002318461837BD4680BD00BFB2
:103B40000038024080B584B000AF7860396000234F
:103B5000FB607B68002B01D10123D0E06A4B1B681E
:103B600003F00F033A689A4210D9674B1B6823F0A1
:103B70000F0265493B6813430B60634B1B6803F0FE
:103B80000F033A689A4201D00123B8E07B681B68B2
:103B900003F00203002B20D07B681B6803F00403B2
:103BA000002B05D0594B9B68584A43F4E05393606F
:103BB0007B681B6803F00803002B05D0534B9B6800
:103BC000524A43F460439360504B9B6823F0F002E9
:103BD0007B689B684D4913438B607B681B6803F0CF
:103BE0000103002B40D07B685B68012B07D1474B5A
:103BF0001B6803F40033002B15D101237FE07B68A1
:103C00005B68022B07D1414B1B6803F00073002B4C
:103C100009D1012373E03D4B1B6803F00203002B25
:103C200001D101236BE0394B9B6823F003027B68D1
:103C30005B68364913438B60FDF75EFBF8600AE072
:103C4000FDF75AFB0246FB68D31A41F288329342D1
:103C500001D9032353E02D4B9B6803F00C027B68D2
:103C60005B689B009A42EBD1274B1B6803F00F0364
:103C70003A689A4210D2244B1B6823F00F02224963
:103C80003B6813430B60204B1B6803F00F033A683B
:103C90009A4201D0012332E07B681B6803F00403E1
:103CA000002B08D0194B9B6823F4E0527B68DB683B
:103CB000164913438B607B681B6803F00803002BD5
:103CC00009D0124B9B6823F460427B681B69DB00C0
:103CD0000E4913438B6000F021F802460B4B9B68A2
:103CE0001B0903F00F030A49CB5C22FA03F3094ACC
:103CF0001360094B1B681846FDF7BAFA00231846F3
:103D00001037BD4680BD00BF003C02400038024075
:103D10007079010800000020080000202DE9B04F54
:103D200090B000AF00237B630023FB6300233B6361
:103D30000023BB63594B9B6803F00C03082B0DD089
:103D4000082B00F2A180002B02D0042B03D09BE0B3
:103D5000534BBB639BE0534BBB6398E04F4B5B689B
:103D600003F03F037B634D4B5B6803F48003002B40
:103D700028D04A4B5B689B0900223B627A623B6A0F
:103D8000C3F308000021474B03FB01F2002300FBB3
:103D900003F31344434AA0FB0212FA620A46BA62D2
:103DA000FA6A1344FB627B6B0022BB61FA61D7E9BC
:103DB0000623D7E90A01FCF79BFA02460B46134695
:103DC000FB6353E0354B5B689B0900223B617A61E2
:103DD0003B69C3F3080A4FF0000B52465B464FF0B5
:103DE00000004FF00001590141EAD2615001024642
:103DF0000B46B2EB0A0863EB0B094FF000024FF0E1
:103E000000034FEA891343EA98634FEA8812B2EB42
:103E1000080463EB09054FF000024FF00003EB00CC
:103E200043EA5473E20014461D4614EB0A033B6058
:103E300045EB0B037B604FF000024FF00003D7E926
:103E4000004529468B02214643EA915321468A02C6
:103E5000104619467B6B0022BB60FA60D7E902234B
:103E6000FCF746FA02460B461346FB630B4B5B68B6
:103E70001B0C03F0030301335B003B63FA6B3B6BEA
:103E8000B2FBF3F3BB6302E0054BBB6300BFBB6B4C
:103E900018464037BD46BDE8B08F00BF003802402D
:103EA0000024F40040787D0180B400AF034B1B6810
:103EB0001846BD465DF8047B704700BF0000002037
:103EC00080B500AFFFF7F0FF0246054B9B689B0AE9
:103ED00003F007030349CB5C22FA03F3184680BDC5
:103EE000003802408079010880B500AFFFF7DCFFA1
:103EF0000246054B9B685B0B03F007030349CB5C51
:103F000022FA03F3184680BD003802408079010888
:103F100080B588B000AF786000237B6100233B61EF
:103F20000023FB600023FB610023BB617B681B68EF
:103F300003F00103002B12D0694B9B68684A23F4FD
:103F400000039360664B9A687B685B6B644913431C
:103F50008B607B685B6B002B01D10123FB617B686D
:103F60001B6803F40023002B17D05D4BD3F88C3073
:103F700023F440127B68DB6B59491343C1F88C3042
:103F80007B68DB6BB3F5801F01D10123FB617B688C
:103F9000DB6B002B01D10123BB617B681B6803F441
:103FA0008013002B17D04E4BD3F88C3023F44002F3
:103FB0007B681B6C4A491343C1F88C307B681B6CCF
:103FC000B3F5800F01D10123FB617B681B6C002BD3
:103FD00001D10123BB617B681B6803F08073002B58
:103FE00001D00123FB617B681B6803F02003002BD9
:103FF00000F08B803A4B1B6C394A43F080531364BA
:10400000374B1B6C03F08053BB60BB68354B1B68A0
:10401000344A43F480731360FDF76EF9786108E069
:10402000FDF76AF902467B69D31A642B01D9032391
:104030008FE32C4B1B6803F48073002BF0D0284BCC
:104040001B6F03F440733B613B69002B35D07B68E9
:104050001B6B03F440733A699A422ED0204B1B6FBE
:1040600023F440733B611E4B1B6F1D4A43F48033A6
:1040700013671B4B1B6F1A4A23F480331367184ACC
:104080003B691367164B1B6F03F00103012B14D11F
:10409000FDF732F978610AE0FDF72EF902467B69F7
:1040A000D31A41F28832934201D9032351E30C4BD6
:1040B0001B6F03F00203002BEED07B681B6B03F435
:1040C0004073B3F5407F11D1054B9B6823F4F81280
:1040D0007B68196B044B0B40014913438B600BE069
:1040E0000038024000700040FFFCFF0FAC4B9B68A3
:1040F000AB4A23F4F8139360A94B1A6F7B681B6BD0
:10410000C3F30B03A64913430B677B681B6803F0DB
:104110001003002B10D0A24BD3F88C30A04A23F010
:104120008073C2F88C309E4BD3F88C207B689B6BDD
:104130009B491343C1F88C307B681B6803F48043B0
:10414000002B0AD0964BD3F8903023F440327B6892
:104150005B6E93491343C1F890307B681B6803F48E
:104160000043002B0AD08E4BD3F8903023F440222A
:104170007B689B6E8A491343C1F890307B681B684B
:1041800003F48033002B0AD0854BD3F8903023F40E
:1041900040127B68DB6E82491343C1F890307B6824
:1041A0001B6803F40033002B0AD07D4BD3F890300A
:1041B00023F440027B681B6F79491343C1F89030A8
:1041C0007B681B6803F04003002B0AD0744BD3F8C4
:1041D000903023F003027B685B6C71491343C1F894
:1041E00090307B681B6803F08003002B0AD06C4B77
:1041F000D3F8903023F00C027B689B6C6849134322
:10420000C1F890307B681B6803F48073002B0AD0E0
:10421000634BD3F8903023F030027B68DB6C60494D
:104220001343C1F890307B681B6803F40073002BC4
:104230000AD05B4BD3F8903023F0C0027B681B6D33
:1042400057491343C1F890307B681B6803F48063BF
:10425000002B0AD0524BD3F8903023F440727B6885
:104260005B6D4F491343C1F890307B681B6803F4C2
:104270000063002B0AD04A4BD3F8903023F44062FD
:104280007B689B6D46491343C1F890307B681B687F
:1042900003F48053002B0AD0414BD3F8903023F421
:1042A00040527B68DB6D3E491343C1F890307B6818
:1042B0001B6803F40053002B0AD0394BD3F890301D
:1042C00023F440427B681B6E35491343C1F890309C
:1042D0007B681B6803F48003002B0AD0304BD3F8B3
:1042E000903023F080627B689B6F2D491343C1F8A7
:1042F00090307B681B6803F40013002B11D0284B0F
:10430000D3F8903023F000627B68DB6F24491343BD
:10431000C1F890307B68DB6FB3F1006F01D10123EE
:10432000BB617B681B6803F00803002B01D00123ED
:10433000BB617B681B6803F48023002B0AD0184BF9
:10434000D3F8903023F040727B685B6F14491343BD
:10435000C1F890307B681B6803F40003002B0BD07E
:104360000F4BD3F8903023F080527B68D3F8803025
:104370000B491343C1F890307B681B6803F08063DE
:10438000002B0FD0064BD3F8903023F000527B68FF
:10439000D3F8843002491343C1F8903002E000BFE3
:1043A000003802407B681B6803F00063002B0BD0D1
:1043B0008A4BD3F88C3023F000727B68D3F88830B6
:1043C00086491343C1F88C307B681B6803F0805327
:1043D000002B0BD0814BD3F88C3023F080627B68AC
:1043E000D3F88C307D491343C1F88C30FB69012B25
:1043F00006D07B681B6803F00073002B00F0D680AA
:10440000764B1B68754A23F080631360FCF774FFDA
:10441000786108E0FCF770FF02467B69D31A642BD1
:1044200001D9032395E16D4B1B6803F00063002B5A
:10443000F0D17B681B6803F00103002B21D07B685F
:104440005B6B002B1DD1654BD3F884301B0C03F044
:1044500003033B61614BD3F884301B0E03F00F0361
:10446000FB607B685B689A013B691B041A43FB682D
:104470001B061A437B689B681B0758491343C1F806
:1044800084307B681B6803F40023002B04D07B6816
:10449000DB6BB3F5801F0AD07B681B6803F48013C5
:1044A000002B2ED07B681B6CB3F5800F29D14B4BB2
:1044B000D3F884301B0C03F003033B61474BD3F864
:1044C00084301B0F03F00703FB607B685B689A0175
:1044D0003B691B041A437B68DB681B061A43FB68B5
:1044E0001B073E491343C1F884303C4BD3F88C3052
:1044F00023F01F027B685B6A013B38491343C1F814
:104500008C307B681B6803F08073002B1DD0334B0D
:10451000D3F884301B0E03F00F033B612F4BD3F80D
:1045200084301B0F03F00703FB607B685B689A0114
:104530007B681B691B041A433B691B061A43FB6813
:104540001B0726491343C1F884307B681B6803F0BE
:104550000073002B11D07B685B689A017B681B6934
:104560001B041A437B68DB681B061A437B689B6845
:104570001B071A491343C1F88430184B1B68174AAC
:1045800043F080631360FCF7B7FE786108E0FCF746
:10459000B3FE02467B69D31A642B01D90323D8E00A
:1045A0000E4B1B6803F00063002BF0D0BB69012B9E
:1045B00040F0CE80094B1B68084A23F080531360FB
:1045C000FCF79AFE78610BE0FCF796FE02467B69E9
:1045D000D31A642B04D90323BBE000BF0038024088
:1045E0005E4B1B6803F00053B3F1005FECD07B68B7
:1045F0001B6803F40023002B03D07B68DB6B002BCC
:1046000009D07B681B6803F48013002B2ED07B68D5
:104610001B6C002B2AD1514BD3F888301B0C03F0B4
:1046200003033B614D4BD3F888301B0F03F00703A6
:10463000FB607B685B699A013B691B041A437B68DA
:104640009B691B061A43FB681B0744491343C1F8C7
:104650008830424BD3F88C3023F4F8527B689B6A45
:10466000013B1B023D491343C1F88C307B681B683A
:1046700003F40013002B22D07B68DB6FB3F1006FD3
:104680001DD1364BD3F888301B0E03F00F033B616E
:10469000324BD3F888301B0F03F00703FB607B68B5
:1046A0005B699A017B681B6A1B041A433B691B0602
:1046B0001A43FB681B0729491343C1F888307B68FC
:1046C0001B6803F00803002B28D0244BD3F8883054
:1046D0001B0E03F00F033B61204BD3F888301B0CFB
:1046E00003F00303FB607B685B699A01FB681B04B2
:1046F0001A433B691B061A437B68DB691B07174992
:104700001343C1F88830154BD3F88C3023F4403272
:104710007B68DB6A11491343C1F88C300F4B1B686F
:104720000E4A43F080531360FCF7E6FD786108E021
:10473000FCF7E2FD02467B69D31A642B01D90323FF
:1047400007E0064B1B6803F00053B3F1005FEFD1A5
:10475000002318462037BD4680BD00BF0038024008
:1047600080B582B000AF78607B68002B01D1012357
:1047700049E07B6893F83D30DBB2002B06D17B68C3
:10478000002283F83C207868FCF7BAFA7B680222A2
:1047900083F83D207B681A687B680433194610460D
:1047A00000F070F97B68012283F848207B680122C1
:1047B00083F83E207B68012283F83F207B6801223A
:1047C00083F840207B68012283F841207B68012226
:1047D00083F842207B68012283F843207B68012212
:1047E00083F844207B68012283F845207B680122FE
:1047F00083F846207B68012283F847207B680122EA
:1048000083F83D20002318460837BD4680BD0000D0
:1048100080B485B000AF78607B6893F83D30DBB240
:10482000012B01D001234CE07B68022283F83D205C
:104830007B681B68264A934222D07B681B68B3F1D1
:10484000804F1DD07B681B68224A934218D07B683A
:104850001B68214A934213D07B681B681F4A93420E
:104860000ED07B681B681E4A934209D07B681B6888
:104870001C4A934204D07B681B681B4A934215D1A3
:104880007B681B689A68194B1340FB60FB68062B1A
:1048900015D0FB68B3F5803F11D07B681B681A68A0
:1048A0007B681B6842F001021A6008E07B681B68A5
:1048B0001A687B681B6842F001021A6000E000BFC2
:1048C000002318461437BD465DF8047B704700BFCF
:1048D000000001400004004000080040000C0040BF
:1048E00000040140004001400018004007000100A2
:1048F00080B584B000AF786039600023FB737B68BB
:1049000093F83C30012B01D10223B4E07B680122F3
:1049100083F83C207B68022283F83D207B681B687B
:104920009B68BB60BA68564B1340BB60BB6823F4FE
:104930007F43BB607B681B68BA689A603B681B68F2
:10494000B3F5005F3ED0B3F5005F00F28780B3F5AA
:10495000805F00F08680B3F5805F7FD8702B1AD01F
:10496000702B7BD8602B50D0602B77D8502B3CD04D
:10497000502B73D8402B58D0402B6FD8302B64D09D
:10498000302B6BD8202B60D0202B67D8002B5CD02D
:10499000102B5AD062E07B6818683B6899683B68C6
:1049A0005A683B68DB6800F093F97B681B689B687A
:1049B000BB60BB6843F07703BB607B681B68BA6869
:1049C0009A604FE07B6818683B6899683B685A6852
:1049D0003B68DB6800F07CF97B681B689A687B6841
:1049E0001B6842F480429A603CE07B6818683B6830
:1049F00059683B68DB681A4600F0F0F87B681B6872
:104A00005021184600F049F92CE07B6818683B6893
:104A100059683B68DB681A4600F00FF97B681B6831
:104A20006021184600F039F91CE07B6818683B6883
:104A300059683B68DB681A4600F0D0F87B681B6851
:104A40004021184600F029F90CE07B681A683B68A1
:104A50001B681946104600F020F903E00123FB73A0
:104A600000E000BF7B68012283F83D207B680022C4
:104A700083F83C20FB7B18461037BD4680BD00BF45
:104A800088FFFEFF80B485B000AF786039607B6836
:104A90001B68FB607B68464A934213D07B68B3F186
:104AA000804F0FD07B68434A93420BD07B68424AC9
:104AB000934207D07B68414A934203D07B68404AC7
:104AC000934208D1FB6823F07003FB603B685B688E
:104AD000FA681343FB607B68354A93422BD07B68AE
:104AE000B3F1804F27D07B68324A934223D07B6852
:104AF000314A93421FD07B68304A93421BD07B6877
:104B00002F4A934217D07B682E4A934213D07B687A
:104B10002D4A93420FD07B682C4A93420BD07B687E
:104B20002B4A934207D07B682A4A934203D07B6882
:104B3000294A934208D1FB6823F44073FB603B6829
:104B4000DB68FA681343FB60FB6823F080023B6874
:104B50005B691343FB607B68FA681A603B689A687C
:104B60007B68DA623B681A687B689A627B68104AE5
:104B7000934203D07B68124A934203D13B681A697F
:104B80007B681A637B6801225A617B681B6903F0AA
:104B90000103012B05D17B681B6923F001027B68AF
:104BA0001A6100BF1437BD465DF8047B704700BF33
:104BB000000001400004004000080040000C0040DC
:104BC0000004014000400140004401400048014011
:104BD00000180040001C00400020004080B487B056
:104BE00000AFF860B9607A60FB681B6A7B61FB68A4
:104BF0001B6A23F00102FB681A62FB689B693B6138
:104C00003B6923F0F0033B617B681B013A69134366
:104C10003B617B6923F00A037B617A69BB681343BC
:104C20007B61FB683A699A61FB687A691A6200BF26
:104C30001C37BD465DF8047B704780B487B000AF79
:104C4000F860B9607A60FB681B6A7B61FB681B6A6D
:104C500023F01002FB681A62FB689B693B613B69A9
:104C600023F470433B617B681B033A6913433B6148
:104C70007B6923F0A0037B61BB681B017A69134346
:104C80007B61FB683A699A61FB687A691A6200BFC6
:104C90001C37BD465DF8047B704780B485B000AF1B
:104CA000786039607B689B68FB60FB6823F0700369
:104CB000FB603A68FB68134343F00703FB607B68C3
:104CC000FA689A6000BF1437BD465DF8047B7047F0
:104CD00080B487B000AFF860B9607A603B60FB6871
:104CE0009B687B617B6923F47F437B613B681A028D
:104CF0007B681A43BB6813437A6913437B61FB6883
:104D00007A699A6000BF1C37BD465DF8047B704726
:104D100080B485B000AF786039607B6893F83C3030
:104D2000012B01D102236DE07B68012283F83C2036
:104D30007B68022283F83D207B681B685B68FB6010
:104D40007B681B689B68BB607B681B68304A93422A
:104D500004D07B681B682F4A934208D1FB6823F478
:104D60007003FB603B685B68FA681343FB60FB6899
:104D700023F07003FB603B681B68FA681343FB6019
:104D80007B681B68FA685A607B681B68204A9342FC
:104D900022D07B681B68B3F1804F1DD07B681B68F5
:104DA0001D4A934218D07B681B681C4A934213D05B
:104DB0007B681B681A4A93420ED07B681B68154AB1
:104DC000934209D07B681B68164A934204D07B68E3
:104DD0001B68154A93420CD1BB6823F08003BB606B
:104DE0003B689B68BA681343BB607B681B68BA6802
:104DF0009A607B68012283F83D207B68002283F85B
:104E00003C20002318461437BD465DF8047B7047EC
:104E10000000014000040140000400400008004080
:104E2000000C0040004001400018004080B582B0F6
:104E300000AF78607B68002B01D1012340E07B68E4
:104E4000DB6F002B06D17B68002283F8782078681E
:104E5000FBF7D0FF7B682422DA677B681B681A683F
:104E60007B681B6822F001021A607B685B6A002B7A
:104E700002D0786800F06CFE786800F005FC03460C
:104E8000012B01D101231BE07B681B685A687B68FA
:104E90001B6822F490425A607B681B689A687B68A2
:104EA0001B6822F02A029A607B681B681A687B687C
:104EB0001B6842F001021A60786800F0EBFE0346BE
:104EC00018460837BD4680BD80B58AB002AFF8608D
:104ED000B9603B601346FB80FB68DB6F202B77D10A
:104EE000BB68002B02D0FB88002B01D1012370E0AE
:104EF000FB680022C3F88420FB682122DA67FCF7F4
:104F0000FBF97861FB68FA88A3F85020FB68FA88FF
:104F1000A3F85220FB689B68B3F5805F08D1FB685B
:104F20001B69002B04D10023FB61BB68BB6103E05C
:104F3000BB68FB610023BB612FE03B6800937B698A
:104F400000228021F86800F04DFF0346002B04D0BA
:104F5000FB682022DA6703233BE0FB69002B0BD1BF
:104F6000BB691B881A46FB681B68C2F308029A6279
:104F7000BB690233BB6107E0FB691A78FB681B68F9
:104F80009A62FB690133FB61FB68B3F852309BB254
:104F9000013B9AB2FB68A3F85220FB68B3F8523089
:104FA0009BB2002BC9D13B6800937B690022402152
:104FB000F86800F017FF0346002B04D0FB6820229E
:104FC000DA67032305E0FB682022DA67002300E0AC
:104FD000022318462037BD4680BD80B58AB000AF99
:104FE000F860B9601346FB80FB68D3F88030202B53
:104FF00032D1BB68002B02D0FB88002B01D10123EA
:105000002BE0FB6800221A66FB681B685B6803F4F0
:105010000003002B18D0FB681B687B617B6953E899
:10502000003F3B613B6943F080637B62FB681B6828
:105030001A467B6A3B62FA61F9693A6A41E80023E1
:10504000BB61BB69002BE6D1FB881A46B968F868DA
:1050500000F036FF034600E0022318462837BD461D
:1050600080BD000080B5BAB000AF78607B681B6877
:10507000DB69C7F8E4307B681B681B68C7F8E03061
:105080007B681B689B68C7F8DC30D7F8E42040F6E3
:105090000F031340C7F8D830D7F8D830002B15D1FC
:1050A000D7F8E43003F02003002B0FD0D7F8E0301E
:1050B00003F02003002B09D07B689B6E002B00F0CF
:1050C000AC827B689B6E78689847A6E2D7F8D830A8
:1050D000002B00F01781D7F8DC3003F00103002B20
:1050E00006D1D7F8E020854B1340002B00F00A8151
:1050F000D7F8E43003F00103002B11D0D7F8E030EB
:1051000003F48073002B0BD07B681B6801221A62AA
:105110007B68D3F8843043F001027B68C3F88420B5
:10512000D7F8E43003F00203002B11D0D7F8DC30BD
:1051300003F00103002B0BD07B681B6802221A626C
:105140007B68D3F8843043F004027B68C3F8842082
:10515000D7F8E43003F00403002B11D0D7F8DC308B
:1051600003F00103002B0BD07B681B6804221A623A
:105170007B68D3F8843043F002027B68C3F8842054
:10518000D7F8E43003F00803002B17D0D7F8E0304D
:1051900003F02003002B05D1D7F8DC3003F0010326
:1051A000002B0BD07B681B6808221A627B68D3F83F
:1051B000843043F008027B68C3F88420D7F8E430D9
:1051C00003F40063002B12D0D7F8E03003F08063C3
:1051D000002B0CD07B681B684FF400621A627B685E
:1051E000D3F8843043F020027B68C3F884207B68C6
:1051F000D3F88430002B00F01282D7F8E43003F0AB
:105200002003002B0DD0D7F8E03003F02003002B53
:1052100007D07B689B6E002B03D07B689B6E786801
:1052200098477B68D3F88430C7F8D4307B681B6814
:105230009B6803F04003402B05D0D7F8D43003F02F
:105240002803002B4FD0786800F000FF7B681B68B4
:105250009B6803F04003402B41D17B681B680833F7
:10526000C7F89C30D7F89C3053E8003FC7F8983017
:10527000D7F8983023F04003C7F8D0307B681B681C
:105280000833D7F8D020C7F8A820C7F8A430D7F83B
:10529000A410D7F8A82041E80023C7F8A030D7F819
:1052A000A030002BD9D17B685B6F002B13D07B68BB
:1052B0005B6F134A1A657B685B6F1846FCF7DCFA74
:1052C0000346002B17D07B685B6F1B6D7A68526FAB
:1052D000104698470FE07868FBF764FE0BE07868AB
:1052E000FBF760FE07E07868FBF75CFE7B68002256
:1052F000C3F8842093E100BF91E100BF20010004C6
:10530000F96200087B681B6E012B40F04C81D7F8D6
:10531000E43003F01003002B00F04581D7F8E030B3
:1053200003F01003002B00F03E817B681B68102205
:105330001A627B681B689B6803F04003402B40F0B7
:10534000B6807B685B6F1B685B68A7F8BE30B7F8F8
:10535000BE30002B00F065817B68B3F85830B7F899
:10536000BE209A4280F05D817B68B7F8BE20A3F82A
:105370005A207B685B6FDB69B3F5807F00F0868025
:105380007B681B68C7F88830D7F8883053E8003F3F
:10539000C7F88430D7F8843023F48073C7F8B83066
:1053A0007B681B681A46D7F8B830C7F89430C7F83E
:1053B0009020D7F89010D7F8942041E80023C7F840
:1053C0008C30D7F88C30002BDAD17B681B6808331F
:1053D0007B677B6F53E8003F3B673B6F23F0010324
:1053E000C7F8B4307B681B680833D7F8B420C7F817
:1053F0008020FB67F96FD7F8802041E80023BB6766
:10540000BB6F002BE1D17B681B6808333B663B6EAA
:1054100053E8003FFB65FB6D23F04003C7F8B03055
:105420007B681B680833D7F8B020FA66BB66B96E94
:10543000FA6E41E800237B667B6E002BE3D17B682C
:105440002022C3F880207B6800221A667B681B68D4
:10545000FB64FB6C53E8003FBB64BB6C23F01003A0
:10546000C7F8AC307B681B681A46D7F8AC30BB6510
:105470007A65796DBA6D41E800233B653B6D002B81
:10548000E4D17B685B6F1846FCF786F97B680222E3
:105490005A667B68B3F858207B68B3F85A309BB2E1
:1054A000D31A9BB21946786800F0D8F8B9E07B6847
:1054B000B3F858207B68B3F85A309BB2D31AA7F8D8
:1054C000CE307B68B3F85A309BB2002B00F0AB8033
:1054D000B7F8CE30002B00F0A6807B681B68BB635A
:1054E000BB6B53E8003F7B637B6B23F49073C7F87F
:1054F000C8307B681B681A46D7F8C8307B643A64AA
:10550000396C7A6C41E80023FB63FB6B002BE4D120
:105510007B681B6808337B627B6A53E8003F3B6211
:105520003B6A23F00103C7F8C4307B681B6808336B
:10553000D7F8C4203A63FB62F96A3A6B41E800236A
:10554000BB62BB6A002BE3D17B682022C3F88020BA
:105550007B6800221A667B6800229A667B681B685B
:105560003B613B6953E8003FFB60FB6823F010039D
:10557000C7F8C0307B681B681A46D7F8C030FB619B
:10558000BA61B969FA6941E800237B617B69002B44
:10559000E4D17B6802225A66B7F8CE3019467868A3
:1055A00000F05CF83FE0D7F8E43003F48013002B00
:1055B0000ED0D7F8DC3003F48003002B08D07B68D2
:1055C0001B684FF480121A62786800F053F82DE0DF
:1055D000D7F8E43003F08003002B0ED0D7F8E0308A
:1055E00003F08003002B08D07B68DB6E002B1CD0FF
:1055F0007B68DB6E7868984717E0D7F8E43003F0F3
:105600004003002B12D0D7F8E03003F04003002B0A
:105610000CD0786800F086FE08E000BF06E000BF0E
:1056200004E000BF02E000BF00E000BFE837BD4675
:1056300080BD00BF80B483B000AF786000BF0C377E
:10564000BD465DF8047B704780B483B000AF7860DE
:1056500000BF0C37BD465DF8047B704780B483B053
:1056600000AF78600B467B8000BF0C37BD465DF80D
:10567000047B704780B483B000AF786000BF0C3704
:10568000BD465DF8047B704780B588B000AF786098
:105690000023BB777B689A687B681B691A437B6829
:1056A0005B691A437B68DB6913437B617B681B681A
:1056B0001A68A64B13407A68126879690B43136025
:1056C0007B681B685B6823F440517B68DA687B6801
:1056D0001B680A435A607B689B697B617B681B6A15
:1056E0007A6913437B617B681B689B6823F4306194
:1056F0007B681B687A690A439A607B681B68944AD6
:10570000934220D1934BD3F8903003F00303032B43
:1057100016D801A252F823F029570008355700087F
:105720002F5700083B5700080123FB7750E1022365
:10573000FB774DE10423FB774AE10823FB7747E140
:105740001023FB7744E17B681B68834A934232D184
:10575000804BD3F8903003F00C030C2B28D801A217
:1057600052F823F099570008B1570008B1570008C4
:10577000B1570008A5570008B1570008B1570008F5
:10578000B15700089F570008B1570008B1570008EB
:10579000B1570008AB5700080023FB7718E102233C
:1057A000FB7715E10423FB7712E10823FB770FE178
:1057B0001023FB770CE17B681B68684A934220D179
:1057C000644BD3F8903003F03003302B13D0302BE0
:1057D00014D8202B09D0202B10D8002B02D0102B4E
:1057E00006D00BE00023FB77F2E00223FB77EFE02B
:1057F0000423FB77ECE00823FB77E9E01023FB7739
:10580000E6E07B681B68564A934220D1514BD3F89F
:10581000903003F0C003C02B13D0C02B14D8802BC2
:1058200009D0802B10D8002B02D0402B06D00BE0E3
:105830000023FB77CCE00223FB77C9E00423FB774E
:10584000C6E00823FB77C3E01023FB77C0E07B684A
:105850001B68444A934225D13E4BD3F8903003F461
:105860004073B3F5407F17D0B3F5407F17D8B3F539
:10587000007F0BD0B3F5007F11D8002B03D0B3F518
:10588000807F06D00BE00023FB77A1E00223FB77AB
:105890009EE00423FB779BE00823FB7798E010232E
:1058A000FB7795E07B681B682F4A934225D1294BF3
:1058B000D3F8903003F44063B3F5406F17D0B3F5DD
:1058C000406F17D8B3F5006F0BD0B3F5006F11D848
:1058D000002B03D0B3F5806F06D00BE00123FB77DC
:1058E00076E00223FB7773E00423FB7770E0082364
:1058F000FB776DE01023FB776AE07B681B681B4A2F
:10590000934238D1134BD3F8903003F44053B3F59E
:10591000405F17D0B3F5405F2AD8B3F5005F0BD0D6
:10592000B3F5005F24D8002B03D0B3F5805F06D019
:105930001EE00023FB774BE00223FB7748E00423C3
:10594000FB7745E00823FB7742E000BFF369FFEFF8
:105950000010014000380240004400400048004070
:10596000004C00400050004000140140007800400E
:105970001023FB772CE07B681B68724A934225D189
:10598000714BD3F8903003F44043B3F5404F17D038
:10599000B3F5404F17D8B3F5004F0BD0B3F5004F18
:1059A00011D8002B03D0B3F5804F06D00BE00023B5
:1059B000FB770DE00223FB770AE00423FB7707E087
:1059C0000823FB7704E01023FB7701E01023FB772B
:1059D0007B68DB69B3F5004F5BD1FB7F082B28D8D0
:1059E00001A252F823F000BF0D5A0008155A000812
:1059F0001D5A0008335A0008235A0008335A000879
:105A0000335A0008335A00082B5A0008FEF758FA98
:105A1000B86113E0FEF768FAB8610FE04B4BBB6169
:105A20000CE0FEF77BF9B86108E04FF40043BB617E
:105A300004E00023BB610123BB7700BFBB69002BDF
:105A400074D0BB695A007B685B685B081A447B684A
:105A50005B68B2FBF3F33B613B690F2B16D93B69E3
:105A6000B3F5803F12D23B699BB223F00F03FB8159
:105A70003B695B089BB203F007039AB2FB891343AF
:105A8000FB817B681B68FA89DA604FE00123BB77F2
:105A90004CE0FB7F082B28D801A252F823F000BF6E
:105AA000C55A0008CD5A0008D55A0008EB5A00081C
:105AB000DB5A0008EB5A0008EB5A0008EB5A0008C2
:105AC000E35A0008FEF7FCF9B86113E0FEF70CFAA0
:105AD000B8610FE01D4BBB610CE0FEF71FF9B86128
:105AE00008E04FF40043BB6104E00023BB610123E5
:105AF000BB7700BFBB69002B18D07B685B685A0876
:105B0000BB691A447B685B68B2FBF3F33B613B699A
:105B10000F2B09D93B69B3F5803F05D23B699AB297
:105B20007B681B68DA6001E00123BB777B68002299
:105B30009A667B680022DA66BB7F18462037BD462E
:105B400080BD00BF007C0040003802400024F4000B
:105B500080B483B000AF78607B685B6A03F00803B1
:105B6000002B0AD07B681B685B6823F400417B68CC
:105B70005A6B7B681B680A435A607B685B6A03F058
:105B80000103002B0AD07B681B685B6823F400319B
:105B90007B689A6A7B681B680A435A607B685B6A09
:105BA00003F00203002B0AD07B681B685B6823F4B8
:105BB00080317B68DA6A7B681B680A435A607B68BD
:105BC0005B6A03F00403002B0AD07B681B685B68E8
:105BD00023F480217B681A6B7B681B680A435A6038
:105BE0007B685B6A03F01003002B0AD07B681B689C
:105BF0009B6823F480517B689A6B7B681B680A431F
:105C00009A607B685B6A03F02003002B0AD07B68F4
:105C10001B689B6823F400517B68DA6B7B681B6808
:105C20000A439A607B685B6A03F04003002B1AD03A
:105C30007B681B685B6823F480117B681A6C7B6847
:105C40001B680A435A607B681B6CB3F5801F0AD13E
:105C50007B681B685B6823F4C0017B685A6C7B68B7
:105C60001B680A435A607B685B6A03F08003002B61
:105C70000AD07B681B685B6823F400217B689A6C00
:105C80007B681B680A435A6000BF0C37BD465DF84D
:105C9000047B704780B598B002AF78607B680022C3
:105CA000C3F88420FBF728FB78657B681B681B68BA
:105CB00003F00803082B2ED16FF07E4300937B6D19
:105CC00000224FF40011786800F08CF80346002B96
:105CD00021D07B681B68BB63BB6B53E8003F7B63D1
:105CE0007B6B23F080033B657B681B681A463B6D2A
:105CF0007B643A64396C7A6C41E80023FB63FB6B8C
:105D0000002BE6D17B682022DA677B68002283F8CB
:105D10007820032362E07B681B681B6803F00403A0
:105D2000042B49D16FF07E4300937B6D00224FF42A
:105D30008001786800F056F80346002B3CD07B6861
:105D40001B687B627B6A53E8003F3B623B6A23F43B
:105D50009073FB647B681B681A46FB6C3B63FA62BA
:105D6000F96A3A6B41E80023BB62BB6A002BE6D1BB
:105D70007B681B6808333B613B6953E8003FFB606D
:105D8000FB6823F00103BB647B681B680833BA6CB3
:105D9000FA61BB61B969FA6941E800237B617B69FB
:105DA000002BE5D17B682022C3F880207B6800228D
:105DB00083F87820032311E07B682022DA677B6870
:105DC0002022C3F880207B6800221A667B680022AC
:105DD0005A667B68002283F87820002318465837DB
:105DE000BD4680BD80B584B000AFF860B9603B604F
:105DF0001346FB714FE0BB69B3F1FF3F4BD0FBF79C
:105E00007BFA02463B68D31ABA699A4202D3BB694D
:105E1000002B01D103234EE0FB681B681B6803F0D5
:105E20000403002B37D0BB68802B34D0BB68402BD9
:105E300031D0FB681B68DB6903F00803082B10D125
:105E4000FB681B6808221A62F86800F0FFF8FB681C
:105E50000822C3F88420FB68002283F878200123FD
:105E600029E0FB681B68DB6903F40063B3F5006F8E
:105E700011D1FB681B684FF400621A62F86800F0E9
:105E8000E5F8FB682022C3F88420FB68002283F831
:105E9000782003230FE0FB681B68DA69BB681340B6
:105EA000BA689A420CBF01230023DBB21A46FB7981
:105EB0009A42A0D0002318461037BD4680BD00008E
:105EC00080B596B000AFF860B9601346FB80FB6800
:105ED000BA685A65FB68FA88A3F85820FB68002264
:105EE000C3F88420FB682222C3F88020FB685B6F24
:105EF000002B28D0FB685B6F3E4ADA63FB685B6F60
:105F00003D4A1A64FB685B6F3C4ADA64FB685B6F6E
:105F100000221A65FB68586FFB681B68243319461A
:105F2000FB685B6D1A46FB88FBF7D6FB0346002B2C
:105F300009D0FB681022C3F88420FB682022C3F834
:105F40008020012351E0FB681B69002B18D0FB68FF
:105F50001B68FB63FB6B53E8003FBB63BB6B43F405
:105F600080737B65FB681B681A467B6DBB647A6433
:105F7000796CBA6C41E800233B643B6C002BE6D1A2
:105F8000FB681B680833BB62BB6A53E8003F7B6257
:105F90007B6A43F001033B65FB681B6808333A6D7D
:105FA0007A633B63396B7A6B41E80023FB62FB6ADF
:105FB000002BE5D1FB681B6808337B617B6953E8E4
:105FC000003F3B613B6943F04003FB64FB681B6897
:105FD0000833FA6C3A62FB61F9693A6A41E80023D6
:105FE000BB61BB69002BE5D1002318465837BD467D
:105FF00080BD00BF156100083D6200087B6200089B
:1060000080B489B000AF78607B681B68FB60FB6878
:1060100053E8003FBB60BB6823F0C003FB617B68B3
:106020001B681A46FB69BB617A617969BA6941E804
:1060300000233B613B69002BE6D17B682022DA67B5
:1060400000BF2437BD465DF8047B704780B495B02F
:1060500000AF78607B681B687B637B6B53E8003F15
:106060003B633B6B23F49073FB647B681B681A46AD
:10607000FB6C3B64FA63F96B3A6C41E80023BB6349
:10608000BB6B002BE6D17B681B6808333B623B6A25
:1060900053E8003FFB61FB6923F00103BB647B68AD
:1060A0001B680833BA6CFA62BB62B96AFA6A41E8E3
:1060B00000237B627B6A002BE5D17B681B6E012B82
:1060C00018D17B681B68FB60FB6853E8003FBB602E
:1060D000BB6823F010037B647B681B681A467B6CEB
:1060E000BB617A617969BA6941E800233B613B6928
:1060F000002BE6D17B682022C3F880207B68002239
:106100001A667B6800229A6600BF5437BD465DF868
:10611000047B704780B59CB000AF78607B689B6B58
:10612000FB667B68DB69B3F5807F71D0FB6E002274
:10613000A3F85A20FB6E1B68FB64FB6C53E8003F1E
:10614000BB64BB6C23F48073BB66FB6E1B681A4692
:10615000BB6EBB657A65796DBA6D41E800233B651E
:106160003B6D002BE6D1FB6E1B680833BB63BB6B3A
:1061700053E8003F7B637B6B23F001037B66FB6E80
:106180001B6808337A6E7A643B64396C7A6C41E838
:106190000023FB63FB6B002BE5D1FB6E1B68083310
:1061A0007B627B6A53E8003F3B623B6A23F040031B
:1061B0003B66FB6E1B6808333A6E3A63FB62F96A12
:1061C0003A6B41E80023BB62BB6A002BE5D1FB6E52
:1061D0002022C3F88020FB6E1B6E012B18D1FB6EB2
:1061E0001B683B613B6953E8003FFB60FB6823F0A1
:1061F0001003FB65FB6E1B681A46FB6DFB61BA6101
:10620000B969FA6941E800237B617B69002BE6D11B
:10621000FB6E00225A66FB6E1B6E012B07D1FB6ED4
:10622000B3F858301946F86EFFF718FA02E0F86E26
:10623000FAF79EFE00BF7037BD4680BD80B584B0C2
:1062400000AF78607B689B6BFB60FB6801225A663D
:10625000FB681B6E012B09D1FB68B3F858305B0853
:106260009BB21946F868FFF7F9F902E0F868FFF702
:10627000EBF900BF1037BD4680BD80B586B000AFDA
:1062800078607B689B6B7B617B69DB6F3B617B69C3
:10629000D3F88030FB607B691B689B6803F0800348
:1062A000802B09D13B69212B06D17B690022A3F801
:1062B00052207869FFF7A4FE7B691B689B6803F096
:1062C0004003402B09D1FB68222B06D17B690022B9
:1062D000A3F85A207869FFF7B9FE7B69D3F88430B8
:1062E00043F010027B69C3F884207869FAF75AFEFC
:1062F00000BF1837BD4680BD80B584B000AF786060
:106300007B689B6BFB60FB680022A3F85A20FB684C
:106310000022A3F85220F868FAF744FE00BF1037B5
:10632000BD4680BD80B588B000AF78607B681B68D3
:10633000FB60FB6853E8003FBB60BB6823F0400391
:10634000FB617B681B681A46FB69BB617A617969EE
:10635000BA6941E800233B613B69002BE6D17B68C9
:106360002022DA677B680022DA667868FFF762F934
:1063700000BF2037BD4680BD80B500AF02480CF09D
:1063800053F90346184680BD4003002080B584B011
:1063900000AFF860B9607A6019210348FAF7D4FDBC
:1063A00000BF1037BD4680BD1447010880B584B0DA
:1063B00000AFF860B96011461A460B46FB801346E1
:1063C0007B717B7903F00103002B24D0FB881946F5
:1063D000B868FAF7B9FD01211048FAF7B5FD0922AE
:1063E0000F49B8680DF064F90346002B05D101226E
:1063F00080210C48FDF78EF80DE009220A49B868A3
:106400000DF056F90346002B05D1002280210548E6
:10641000FDF780F800BF1037BD4680BD304701084A
:1064200034470108000402404047010880B582B0AB
:1064300000AF78600B46FB7097F90330002B04D057
:106440000D210648FAF780FD03E00D210448FAF714
:106450007BFD00BF0837BD4680BD00BF4C4701082B
:106460005C47010880B586B002AFF860B96013469A
:10647000FB80FB88002B10D1BB680C4A0C49F868E4
:1064800002F060F801230193BB680093094B0122DD
:106490000949F86801F080FF03E00D210748FAF789
:1064A00053FD00BF1037BD4680BD00BFAD6300087F
:1064B0008D6300082D6400086C47010878470108C7
:1064C00080B58CB002AF1E4B1B68002B04D102F0CC
:1064D0005DF803461A4A136007F10C031C220021E1
:1064E00018460DF087F8174B3B61174B7B61174B34
:1064F000FB6000233B83164B7B60114B1868391DF2
:1065000007F10C03019300230093124B40F25B72DE
:1065100002F046F80346FB7297F90B30002B09D0C6
:1065200011210D48FAF710FD07F10B030121184660
:10653000FAF70AFD97F90B3018462837BD4680BD9B
:1065400088030020884701088C4701089447010808
:10655000C0A81F6D65640008A447010880B582B01B
:1065600000AF78600B46FB7097F90330002B04D026
:1065700013210648FAF7E8FC03E013210448FAF770
:10658000E3FC00BF0837BD4680BD00BFB847010827
:10659000CC47010880B586B004AF78600B467B809D
:1065A0000D4B1B68002B04D101F0F0FF03460A4A93
:1065B0001360094B18687B8800220392074A0292F5
:1065C00000220192002200927A68054901F010FE33
:1065D00000BF0837BD4680BD880300205D65000808
:1065E0006C47010880B584B004AF8D4BC0221A708F
:1065F0008B4BA8225A708A4B1F229A70884B2522F7
:10660000DA70884BFF221A70864BFF225A70854B36
:10661000FF229A70834B0022DA70834BC0221A70DB
:10662000814BA8225A70804B1F229A707E4B012208
:10663000DA7002F05FFA7A4B1B781A06784B5B78B7
:106640001B041A43764B9B781B021343744AD2787F
:1066500013431A06724B1B781906714B5B781B04A7
:1066600019436F4B9B781B020B436D49C9780B4351
:106670001B0203F47F031A43694B1B781906684B0E
:106680005B781B041943664B9B781B020B436449E0
:10669000C9780B431B0A03F47F431A43604B1B78F2
:1066A00019065F4B5B781B0419435D4B9B781B02FB
:1066B0000B435B49C9780B431B0E13435B4A1360C2
:1066C000584B1B781A06574B5B781B041A43554BE3
:1066D0009B781B021343534AD27813431A06514B3B
:1066E0001B7819064F4B5B781B0419434D4B9B7865
:1066F0001B020B434B49C9780B431B0203F47F0376
:106700001A43484B1B781906464B5B781B04194308
:10671000444B9B781B020B434249C9780B431B0A2D
:1067200003F47F431A433F4B1B7819063D4B5B78BC
:106730001B0419433B4B9B781B020B433949C97817
:106740000B431B0E13433A4A1360374B1B781A0650
:10675000354B5B781B041A43334B9B781B02134366
:10676000314AD27813431A062F4B1B7819062E4B49
:106770005B781B0419432C4B9B781B020B432A4963
:10678000C9780B431B0203F47F031A43264B1B7883
:106790001906254B5B781B041943234B9B781B027E
:1067A0000B432149C9780B431B0A03F47F431A4367
:1067B0001D4B1B7819061C4B5B781B0419431A4BA5
:1067C0009B781B020B431849C9780B431B0E1343DC
:1067D000184A1360184B0293184B0193002300933F
:1067E000144B134A1149164802F098FE144803F05E
:1067F00047F8134B93F82D309B0803F00103DBB2ED
:10680000002B03D00E4803F04BF802E00C4803F0D5
:10681000B3F80C490A4803F045F900BFBD4680BDF6
:106820007C030020800300208403002070030020EC
:106830007403002078030020C5330108AD6B000805
:106840003C0300209968000880B582B000AF7860F2
:10685000FAF752FD0246084B1B68D31A632B07D97F
:10686000FAF74AFD0346044A1360786800F0FCFA20
:1068700000BF0837BD4680BD3803002080B500AF9B
:10688000044800F073F90AF021F90248FFF7DCFF31
:1068900000BF80BD3C03002080B483B000AF7860AF
:1068A00000BF0C37BD465DF8047B704780B487B0ED
:1068B00000AF786039603B687B617B683B61202377
:1068C000FB60BFF34F8F00BF0BE00D4A3B69C2F87E
:1068D0005C32FB683A6913443B617A69FB68D31AFE
:1068E0007B617B69002BF0DCBFF34F8F00BFBFF3F0
:1068F0006F8F00BF00BF1C37BD465DF8047B70473B
:1069000000ED00E080B584B000AF78600023FB7339
:10691000404B414A1A6000233B7280237B72E12383
:10692000BB720023FB7200233B7300237B73394A45
:1069300007F108035360374B4FF400029A60354B60
:10694000364ADA60334B364A1A61324B4FF4C06232
:106950005A613048FBF71CFA0346FB7338220021CA
:1069600030480CF047FE2F4B21221A602D4B4FF47C
:1069700040025A612B4B00221A612B4802F096FC10
:106980007B68062283F82C20224B5B681A787B6890
:1069900083F826201F4B5B685A787B6883F8272092
:1069A0001C4B5B689A787B6883F82820194B5B68DE
:1069B000DA787B6883F82920164B5B681A797B6844
:1069C00083F82A20134B5B685A797B6883F82B2065
:1069D0007B6840F2DC529A847B6893F82D3043F058
:1069E0000A03DAB27B6883F82D2010491048FAF7C1
:1069F0002CFB0F48FAF75BFBFB7B002B03D178687D
:106A000000F032FA01E0F9F7DFFF00BF1037BD46B2
:106A100080BD00BF184D00200080024034010020DE
:106A200094000020C84D002090790108100000203B
:106A3000004E002080B592B000AF7860396000232E
:106A40007B6400233B64002387F83F3007F10C038D
:106A50003022002118460CF0CDFD07F10C03302246
:106A6000002118460CF0C6FD3B683B6445E07B6C9A
:106A7000032B02D96FF00B0355E03B6C59687A6C1D
:106A800013465B0013449B0048333B443C3B196076
:106A90003B6C5B8919467A6C13465B0013449B0080
:106AA00048333B44383B19607B6C002B11D07B6C26
:106AB0005A1E07F10C00796C0B465B000B449B00DF
:106AC000C11813465B0013449B0048333B44343BDE
:106AD00019603B6C1B68002B09D17A6C13465B0074
:106AE00013449B0048333B44343B00221A607B6CC8
:106AF00001337B643B6C1B683B643B6C002BB6D161
:106B00003B681B891A460A4B5A60094A07F10C0375
:106B10009360074A3B685363142205490548FBF715
:106B200089FA97F93F3018464837BD4680BD00BF07
:106B3000C84D0020184D002080B584B000AF7860AB
:106B40000023FB60074B1B78002B05D107F10C03DA
:106B500019460548FBF702FBFB6818461037BD468F
:106B600080BD00BF144D0020184D002080B584B0BA
:106B700000AF78600023FB607868FFF7DDFFF86006
:106B8000FB68002B0AD07B681B697968F868984716
:106B90000346002B02D0F86803F004FBFB68002BCF
:106BA000EAD100BF00BF1037BD4680BD80B582B0BE
:106BB00000AF78607B68002B06D10E4B4FF4BD729E
:106BC0000D490E480CF01EFD7B68732283F82E20C1
:106BD0007B68742283F82F207B68094A5A617B689E
:106BE000084A9A617868FFF78DFE00231846083737
:106BF000BD4680BDE0470108FC4701080C4801087C
:106C00005D170108356A000880B584B000AF786070
:106C10007B68FB60F968074802F02AFC064B1B788A
:106C2000012B02D1044B00221A7000BF1037BD4661
:106C300080BD00BF90790108144D002080B500AFE1
:106C4000FAF75AFB0346184680BD000080B58EB0A7
:106C500000AF786007F1240300221A605A609A603E
:106C6000DA601A617B681B68524A934240F09E804A
:106C7000514B1B6B504A43F0007313634E4B1B6B1D
:106C800003F000733B623B6A4B4B1B6B4A4A43F079
:106C900080631363484B1B6B03F08063FB61FB69EC
:106CA000454B1B6B444A43F000631363424B1B6B21
:106CB00003F00063BB61BB693F4B1B6B3E4A43F073
:106CC000040313633C4B1B6B03F004037B617B6980
:106CD000394B1B6B384A43F001031363364B1B6B74
:106CE00003F001033B613B69334B1B6B324A43F0BA
:106CF00002031363304B1B6B03F00203FB60FB6862
:106D00002D4B1B6B2C4A43F0400313632A4B1B6B28
:106D100003F04003BB60BB6832237B620223BB628B
:106D20000023FB6203233B630B237B6307F12403F4
:106D300019462248FCF742FA86237B620223BB6293
:106D40000023FB6203233B630B237B6307F12403D4
:106D500019461B48FCF732FA4FF400537B620223BA
:106D6000BB620023FB6203233B630B237B6307F1BE
:106D7000240319461348FCF721FA4FF420537B6291
:106D80000223BB620023FB6203233B630B237B6371
:106D900007F1240319460C48FCF710FA00220021E1
:106DA0003D20FAF7B4FB3D20FAF7CDFB00BF3837A2
:106DB000BD4680BD0080024000380240000802400D
:106DC00000000240000402400018024080B500AFFD
:106DD0000248FBF791FD0023184680BD184D0020A6
:106DE00080B400AF00231846BD465DF8047B7047B1
:106DF00080B584B000AFF860B9607A607B68BA682B
:106E0000F9680748FBF7D2FB0346002B02D04FF08E
:106E1000FF3300E0002318461037BD4680BD00BF99
:106E2000184D002080B584B000AFF860B9607A607A
:106E30007B68BA68F9680748FBF703FC0346002B38
:106E400002D04FF0FF3300E0002318461037BD4654
:106E500080BD00BF184D002080B500AFFAF74CFA96
:106E60000346184680BD000080B5A0B000AF786032
:106E700007F10C036422002118460CF0BBFB002331
:106E80003B670023FB670023BB6700237B673A480F
:106E9000FAF75AF938677B6893F82D309B0803F0AE
:106EA0000103DBB2002B0CD03B6F012B09DC334814
:106EB000FBF767F8786802F05FFD786802F0C2FDC2
:106EC00055E07B6893F82D3003F00403002B4ED17E
:106ED0003B6F012B4BDD3B6F023B032B2AD801A2FA
:106EE00052F823F0F56E0008076F0008176F0008CE
:106EF000276F00084FF400637B674FF48043BB6744
:106F00000123FB6717E000237B674FF48043BB67D7
:106F10000123FB670FE04FF400637B670023BB672F
:106F20000123FB6707E000237B670023BB67012386
:106F3000FB6700E000BFFB6F002B18D007F10C03CC
:106F400019460E48FBF7C6FB7B6F7B62BB6F3B624B
:106F500007F10C0319460948FBF7B3FC0748FAF799
:106F6000B1FF786802F09CFC786802F037FD00BF42
:106F70008037BD4680BD00BF004E0020184D002068
:106F800080B586B002AF7860124802F003FAF8606C
:106F9000FB68002B14D0FB6803F120027B681A60A9
:106FA000FB680D4A1A617B681B684FF4C06201924E
:106FB0000093FB6841220021002002F039FF05E028
:106FC000064B01221A707B6800221A6000BF10373E
:106FD000BD4680BD90790108096C0008144D002061
:106FE00080B588B000AFF860B9607A607B80FB68DC
:106FF000BB61BB687B610023FB617B68203BFB615D
:10700000FB6900221A60FB6900221A81FB697A88F9
:107010005A81BB691B68002B03D1BB69FA691A60EE
:1070200003E07B691B68FA691A607B69FA691A6078
:10703000BB691B68FB6109E0FB691A897B88134403
:107040009AB2FB691A81FB691B68FB61FB69002B23
:10705000F2D17B8819467868FFF728FC00BF2037FB
:10706000BD4680BD80B483B000AF78607B68DB88AC
:1070700001339AB27B68DA807B68DB88002B05D10C
:107080007B68DB8801339AB27B68DA807B68DB88B7
:1070900018460C37BD465DF8047B704780B483B05A
:1070A00000AF78600B46FB707B681B881A467B68D4
:1070B0001344FA781A717B681B8801339AB27B6893
:1070C0001A807B681B88FF2B02D97B6800221A80FC
:1070D00000BF0C37BD465DF8047B704780B483B0B9
:1070E00000AF78607B685B881A467B681344043382
:1070F00018460C37BD465DF8047B704780B582B0FA
:1071000000AF78600B467B807B88FF2B05D90E4B48
:10711000CB220E490E480CF075FA7B685A887B88A2
:1071200013449AB27B685A807B685B88FF2B06D930
:107130007B685B88A3F580739AB27B685A8000BF36
:107140000837BD4680BD00BF344801086C480108BF
:10715000AC48010880B485B000AF78607B681B88BC
:107160001A467B685B88D31AFB60FB68B3F5803FE7
:1071700003D3FB6803F58073FB60FB689BB2184682
:107180001437BD465DF8047B7047000090B585B0AC
:1071900000AF786039600023BB737868FFF7DAFFCF
:1071A00003461A467B685B88C3F580739A4204DA0B
:1071B0007868FFF7CFFF034604E07B685B88C3F580
:1071C00080739BB27B813B68B3F86430BB813B68C2
:1071D000002B05D1444BF022444945480CF012FAEB
:1071E000BB89002B7CD07B89002B79D0BA897B8925
:1071F0009A420DD97B89BB817868FFF7ABFF0346C4
:107200001A467B89934234BF01230023DBB2BB7350
:107210007868FFF763FF0146BB7B002B01D0032397
:1072200000E00123BA89386807F0AEFD0346FB731E
:1072300097F90F30002B46D1BB7B002B43D0BB8985
:1072400019467868FFF75AFF3B68B3F864301C466C
:107250007868FFF77FFF03461A467B685B88C3F5B3
:1072600080739A4204DA7868FFF774FF034603E0FC
:107270007B685B88C3F58073A34203DD3B68B3F88A
:10728000643014E07868FFF765FF03461A467B68B0
:107290005B88C3F580739A4204DA7868FFF75AFF77
:1072A000034604E07B685B88C3F580739BB2BB81B7
:1072B0007868FFF713FF0146BA890123386807F0A1
:1072C00063FD0346FB7397F90F30002B09D1BB898F
:1072D00019467868FFF712FF386808F03FFB00E0B6
:1072E00000BF1437BD4690BD34480108D44801089A
:1072F000AC48010880B586B000AFF860B9603B606B
:107300001346FB8000237B61FB68002B06D1194BE1
:1073100040F22312184919480CF074F90023FB7449
:107320001FE0FB7C1B01FA6813441A68FB7C1B01FD
:10733000F9680B449A4211D1FB7C1B01FA68134493
:107340007B617B6900221A607B693A685A607B69BD
:107350003A6A9A607B69FA889A8106E0FB7C01337D
:10736000FB74FB7CBA689A42DBD87B6918461837F5
:10737000BD4680BD34480108F4480108AC48010806
:1073800080B586B000AF7860396000237B61002350
:107390007B827B68002B06D11B4B40F23F121B49BE
:1073A0001B480CF02FF97B681B68FB600AE0FB6848
:1073B000DA897B8A13449BB27B82FB687B61FB6822
:1073C0001B68FB60FB68002BF1D1B7F912301E2B54
:1073D00006DD0D4B40F247120E490D480CF012F934
:1073E0007B8AC3F11E039AB23B68DA817B69002B6A
:1073F00003D17B683A681A6002E07B693A681A60D8
:1074000000BF1837BD4680BD34480108184901083F
:10741000AC4801083C49010880B483B000AF7860F3
:107420007B68002B02D07B687A681A6000BF0C373B
:10743000BD465DF8047B704780B584B000AF7860CE
:107440000B467B800023FB600023BB607B68002B26
:1074500006D11F4B40F267121E491F480CF0D2F8AC
:107460007B681B68FB6009E0FB689B897A889A420D
:1074700008D0FB68BB60FB681B68FB60FB68002BE7
:10748000F2D100E000BFFB68002B1CD0BB68002BD2
:1074900004D1FB681A687B681A6003E0FB681A680D
:1074A000BB681A60FB681B68002B09D0FB681B686F
:1074B000D989FB68DA89FB681B680A4492B2DA81D1
:1074C000FB6800221A60FB6818461037BD4680BD75
:1074D0003448010874490108AC48010880B584B0FB
:1074E00000AF78600B46FB707B68002B06D1214B08
:1074F0004FF4C572204921480CF084F87B681B6862
:10750000FB602CE0FB789AB2FB68DB899A421CD3C3
:10751000FB68DB89DBB2FA78D31AFB70FB681A6868
:107520007B681A60FB685B68002B07D0FB685B68B0
:10753000FA6892686FF0020110469847F868FFF702
:107540006BFF7B681B68FB6009E0FB68DA89FB78EE
:107550009BB2D31A9AB2FB68DA810023FB70FB78E6
:10756000002B02D0FB68002BCCD100BF1037BD46EA
:1075700080BD00BF3448010894490108AC480108A7
:1075800080B584B000AF78607B68002B06D10E4BCD
:1075900040F2A7120D490E480CF034F87B681B68C6
:1075A000FB6007E0FB681B68BB60F868FFF734FF0F
:1075B000BB68FB60FB68002BF4D17B6800221A607B
:1075C00000BF1037BD4680BD34480108BC490108E2
:1075D000AC48010880B584B000AF786039607B6842
:1075E000002B06D10F4B40F2B7120F490F480CF099
:1075F00009F80023FB730BE0FB7B1A01FB7B1B01EB
:1076000079680B4479680A441A60FB7B0133FB7389
:10761000FB7B3A689A42EFD800BF00BF1037BD46E7
:1076200080BD00BF34480108E0490108AC480108AA
:1076300080B582B000AF78600B46FB70FB781946CE
:107640007868FFF72BFD00BF0837BD4680BD80B5C9
:1076500082B000AF78600B467B807B881B0A9BB2B0
:10766000DBB219467868FFF719FD7B88DBB2194653
:107670007868FFF713FD00BF0837BD4680BD80B5B1
:1076800086B000AFF860B9601346FB800023FB8230
:107690000AE0FB8ABA6813441B781946F868FFF7BA
:1076A000FDFCFB8A0133FB82FA8AFB889A42F0D305
:1076B00000BF00BF1837BD4680BD80B586B000AFA3
:1076C000F860B9601346FB80FB881B0A9BB2DBB2F3
:1076D0001946F868FFF7E2FCFB88DBB21946F86848
:1076E000FFF7DCFC0023FB820AE0FB8ABA68134444
:1076F0001B781946F868FFF7D1FCFB8A0133FB823F
:10770000FA8AFB889A42F0D300BF00BF1837BD4603
:1077100080BD80B582B000AF7860084611461A4639
:107720000346FB700B46BB7013467B70FB781B0156
:107730005AB2BB78DB005BB203F008035BB21343C1
:107740005AB27B785B005BB203F006035BB2134373
:107750005AB297F9103003F001035BB213435BB2E6
:10776000DBB219467868FFF763FFBB8A5BB203F0B0
:107770007F035BB2BA8A7F2A02D96FF07F0200E0F2
:10778000002213435BB2DBB219467868FFF750FF63
:10779000BB8ADB09BB82BB8A002BE6D100BF00BFDE
:1077A0000837BD4680BD000090B585B000AF786059
:1077B0000B467B807B880133FB817B68002B06D1E5
:1077C0000F4B40F207220F490F480BF01BFFFB89BC
:1077D0000133FB817B88DB097B807B88002BF6D122
:1077E000FC897868FFF7B6FC0346C3F580739C42BA
:1077F000D4BF01230023DBB218461437BD4690BD29
:1078000034480108044A0108AC48010880B584B036
:1078100000AF78600B467B807B68002B06D1274B3E
:1078200040F21B22264927480BF0ECFE7B68DB6800
:10783000002B24D07B68DB680021184604F08CFB09
:107840007B68DB680021184604F0CAFB7B68DB68B4
:107850000021184604F0A2FB7B68DB68184603F0A1
:10786000A3F90346FB7397F90F30002B04D07B6814
:10787000DB68184603F082FA7B680022DA607B68D6
:1078800018331846FFF77CFE79680F4809F0E4F8D2
:107890007B689B7A002B0DD07B6800229A727B68F4
:1078A0005B69002B06D07B685B697A6811697A880E
:1078B0007868984700BF1037BD4680BD344801083E
:1078C000284A0108AC480108CD78000880B586B088
:1078D00002AF78600123FB737B68BB60BB68002B41
:1078E00006D1424B4FF41172414942480BF08AFED7
:1078F000BB689B7A022B15D1BB681B8801339AB2F7
:10790000BB681A80BB681B881A4613469B00134449
:10791000632B5EDD40F20111B868FFF777FF0023AB
:10792000FB7356E0BB689B7A032B50D1BB681833BE
:1079300005211846FFF7D2FDBB685B88002B48D0B5
:10794000BB689B8801339AB2BB689A80BB689B88EE
:107950001A4613469B001A44BB685B881946BB68ED
:107960005B885B089BB20B449A4206DD40F2011132
:10797000B868FFF74BFF0023FB73BB681B881A46F0
:1079800013469B001344BA685288934218DBBB68C5
:10799000EC3300211846FFF707FF0346002B18D0F1
:1079A000BB6803F1EC000023019300230093002344
:1079B00000220C21FFF7ADFEBB6800221A8008E010
:1079C000BB681B8801339AB2BB681A8001E00023B0
:1079D000FB73FB7B002B05D07A68074941F28830A6
:1079E00009F014F800BF1037BD4680BD34480108C7
:1079F000444A0108AC480108CD78000880B586B03B
:107A000002AF7860084611461A460346FB700B46E3
:107A10003B801346BB700023FB737B68EC33022171
:107A20001846FFF7C1FE0346002B1CD07B6803F10C
:107A3000EC00BB78F9780222019200220092002229
:107A4000FFF767FE7B68EC333A8811461846FFF76C
:107A5000FEFD7B6803F1EC027B68DB68194610468B
:107A6000FFF794FB01E0FF23FB7397F90F301846F3
:107A70001037BD4680BD80B582B000AF78600B4640
:107A8000FB707B685B68002B0CD07B685B687A6856
:107A90009068FA78022A01D8002201E06FF00C0207
:107AA0001146984700BF0837BD4680BD90B58FB0DE
:107AB00000AFF8607B600B46FB7213463B810023EE
:107AC000FB86FB6803F16C02FB7A1344FB62FB7AD2
:107AD000C3F18003BB62FB6893F86C301B0987F825
:107AE00027300023BB84FB689B6E7F2B06D9974B06
:107AF00040F2AB22964997480BF084FDFA7AFB6876
:107B00009B6E9A4206D9914B4FF42B729249914841
:107B10000BF078FDFA7A3B891344802B09DD8B4BFF
:107B200040F2AD228D498B480BF06CFD4FF4807311
:107B30006FE197F82730022B23D1FB689B7A022B49
:107B400040F052813B89012B40F25081FB6A0133A6
:107B50001B78FB86FB8E002B40F04681FB680022E1
:107B60001A80FB6803229A72FB685B69002B00F0A5
:107B70003B81FB685B69FA681169FA8EF86898477F
:107B800032E197F827300D2B00F02E8197F827303F
:107B9000032B40F0C0800023BB863B897B86FB68BB
:107BA00093F86C305B10DBB203F00303FB77FB68E8
:107BB0009B6E802B7DD8FB7F002B01D0022300E041
:107BC0000023BB83BB8B5A1C3B899A4280F21081F5
:107BD000FB6A1B787B837B8B1B029AB2FB6A0133A7
:107BE0001B789BB213447B837A8B3989BB8B02331E
:107BF000CB1A9A4200F3FE807A8BBB8BB96ACB1A00
:107C0000023B9A4200F2F680FB6A02337B617B8B77
:107C100002333B863B8EFA7F002A01D0022200E02D
:107C200001221344BA6A9A42C0F0E680FB7F002B1F
:107C30001AD03A893B8E02339A42C0F0DF803B8EE5
:107C4000FA6A13441B789BB21B029AB23B8E013333
:107C5000F96A0B441B789BB213449AB2FB681A81F1
:107C60003B8E02333B8602E0FB6800221A817B8B4D
:107C70007A6913441B78FB747B8B7A691344002266
:107C80001A703A893B8ED31A7B863B8EBB86FB6883
:107C90005B6E002B08D0FB685B6EFA68D06D798E46
:107CA0007A680A44796998477B8B7A691344FA7C2D
:107CB0001A707B8E002B03D17B68002B40F09480E0
:107CC0003B89B98E7A8E0A449342C0F09980FB6852
:107CD0001C6EFB68D86DBB8EFA6AD1187B68002BCE
:107CE0000CBF01230023DBB27A8EA0477B68002BF8
:107CF0007AD1FB7F002B77D0FB7F012B01D10423AE
:107D000000E00523BB74FB681A89B97C0023F8687E
:107D1000FFF774FE68E0FB6A1B789BB21B02BB8412
:107D2000FB6A01331B789AB2BB8C1343BB84BB8CB8
:107D3000002B67D097F82730052B11D1BA8C01237F
:107D40000621F868FFF75AFE4EE000BF34480108EC
:107D5000684A0108AC480108984A0108BC4A010871
:107D600097F82730062B06D1BA8C00230721F86834
:107D7000FFF744FE38E097F82730092B0BD097F82F
:107D800027300B2B07D097F82730072B03D097F815
:107D90002730042B38D1FB681833BA8C11461846AB
:107DA000FFF74AFB38623B6A002B1CD097F827305C
:107DB000092B0AD13B89022B28D9FB6A02331B7895
:107DC0001946386AFFF757FE0AE03B6A5B68002BEA
:107DD00006D03B6A5B683A6A926800211046984771
:107DE000386AFFF719FB00BFFB8E12E000BF0EE000
:107DF00000BF0CE000BF0AE000BF08E000BF06E0E3
:107E000000BF04E000BF02E000BF00E000BF4FF48D
:107E1000807318463C37BD4690BD00BF80B588B022
:107E200000AF786039600023FB830023BB6100232F
:107E3000FB750023BB75BCE0FB7D012B03D997F9D3
:107E40001630002B4DDAFA7D7B689B6E9A4206D283
:107E5000FB7D7A68134493F86C30BB7512E0FB8BA2
:107E60005A1CFA831946386802F054FC0346BB7565
:107E70007B689B6E591C7A6891667A681344BA7D58
:107E800083F86C20FB7D0133FB75FB7D012B40F2F9
:107E90009080BB7D03F07F01FB7D9A1E1346DB00C3
:107EA0009B1A01FA03F3BA691343BB6197F91630C1
:107EB000002B7EDBBB69002B0BD1F97D0023002258
:107EC0007868FFF7F3FD7B6800229A660023FB7554
:107ED0006FE0FA7DBB691A447B689B6ED31ABB6165
:107EE00067E07B689A6EFB7DD31AFA7DC2F180024F
:107EF000B3FBF2F101FB02F29B1A9AB2FB7D9BB23B
:107F000013447B823B681A89FB8BD31A9BB21A46B7
:107F1000BB69934205D93B681A89FB8BD31A9BB284
:107F200001E0BB699BB2BB827B8AC3F180033B82C9
:107F3000BA8A3B8A9A4201D93B8ABB827B6803F1A9
:107F40006C027B8AD118FB8BBA8A386802F014FB6A
:107F50007B689A6EBB8A1A447B689A66FA8BBB8AE6
:107F60001344FB83BB8ABA69D31ABB61BB69002B7C
:107F700003D0BA8A3B8A9A421BD17A8ABB8A1344BD
:107F80009AB2FB7D9BB2D31A9AB2F97DBB6978682D
:107F9000FFF78CFD0346FB81FB89002B01D0FB8999
:107FA0000EE0BB69002B04D17B6800229A66002397
:107FB000FB753B681B89FA8B9A42FFF43DAF0023A7
:107FC00018462037BD4680BD80B586B000AFF8604A
:107FD000B9607A60FB70FB687B617B69002B06D11E
:107FE000244B40F2A732244924480BF00BFB7B6959
:107FF000DB68BA689A4206D01E4B4FF46A72204979
:108000001E480BF0FFFA7B68002B05D14FF48071FE
:108010007869FFF7FBFB27E097F90330002B05D0C9
:10802000786802F0BFF897F903301EE07B681B897F
:108030001946B86802F0A0FF79687869FFF7EEFE8C
:1080400003467B82786802F0ADF87B8A002B04D06F
:108050007B8A19467869FFF7D9FB7B695B88002B1F
:1080600002D07B6900229A80002318461837BD464B
:1080700080BD00BF34480108D44A0108AC4801085B
:10808000F84A010880B586B000AFF860B9601346C1
:10809000FB80FB687B617B699B7A032B27D17B6923
:1080A00000221A807B6900229A800DE03B695B68A0
:1080B000002B06D03B695B683A6992680021104644
:1080C00098473869FFF7A8F97B69183300211846EB
:1080D000FFF7B2F938613B69002BE7D17B6903F107
:1080E000EC027B69DB6819461046FFF74FF8002366
:1080F00018461837BD4680BD80B584B000AF7860A3
:108100000B46FB707B68FB60FB68002B06D1094BBC
:1081100040F2F632084909480BF074FAFB68002275
:10812000DA604FF48071F868FFF770FB00BF10371A
:10813000BD4680BD34480108204B0108AC48010809
:1081400080B584B000AF786039607B68FB60FB6805
:108150009B7A032B05D1FB68EC3339681846FFF78F
:1081600015F8002318461037BD4680BD80B586B08F
:1081700000AFF860B9601346FB71FB687B6197F94B
:108180000730002B02D097F9073025E07B690022E9
:108190009A661349B86803F0DFFE1249B86803F025
:1081A000FDFE02221049B86803F03CFF7B69022201
:1081B0009A727A690D4941F2883008F027FC7B6990
:1081C00000221A807B6903F1EC027B69DB681946A7
:1081D0001046FEF7DBFF002318461837BD4680BD6A
:1081E000C97F00088580000841810008CD7800081B
:1081F00080B58CB002AFF860B9607A607B80FB68B4
:10820000002B06D15D4B40F254425D495D480BF0B6
:10821000F9F9BB68002B06D1584B40F255425A4938
:1082200058480BF0EFF9FB689B7A002B09D1534BB0
:1082300040F25642554953480BF0E4F96FF00A03F7
:1082400097E0B868F7F7FCFFF861FB694FF6FD723D
:10825000934209D9494B40F259424D4949480BF0E4
:10826000D1F96FF00F0384E0FB697B837B8B9A1C51
:108270007B8813443B6297F83030002B08D03B6A70
:1082800002333B62F868FEF7EDFE0346FB8401E033
:108290000023FB843B6AB3F5803F09D3374B40F2A0
:1082A00065423C4937480BF0ADF96FF00F0360E0D1
:1082B0003B6A3B83FB6803F11C00FA8CFB6B009369
:1082C000BB6B0421FFF716F878617B69002B02D1A4
:1082D0004FF0FF334DE0FB68EC333A8B1146184604
:1082E000FFF762FA0346002B05D17869FFF794F88F
:1082F0004FF0FF333DE0FB6803F1EC0097F83020CE
:108300003B8B019397F834300093134600220321EE
:10831000FFF7FFF9FB68EC337A8BB9681846FFF773
:10832000CCF997F83030002B06D0FB68EC33FA8C90
:1083300011461846FFF78BF97B68002B09D07B8824
:10834000002B06D0FB68EC337A8879681846FFF773
:1083500096F9FB68183379691846FFF711F8FB683E
:1083600003F1EC02FB68DB6819461046FEF70EFFCE
:10837000002318462837BD4680BD00BF3448010899
:10838000404B0108AC480108604B01087C4B0108D8
:108390009C4B0108C04B010880B58CB002AFF8605F
:1083A000B9603B601346FB71FB68002B06D15E4B46
:1083B00040F29F425D495E480BF024F9BB68002BF8
:1083C00006D1594B4FF494625A4959480BF01AF9A7
:1083D000B868F7F735FF78627B6A4FF6FD72934213
:1083E00009D9514B40F2A342534951480BF00AF9C5
:1083F0006FF00F0393E07B6A7B847B8C043397F8E8
:108400003420002A14BF01220022D2B21344FB619F
:10841000FB69B3F5803F09D3434B40F2A74247497C
:1084200043480BF0EFF86FF00F0378E0FB697B83B4
:10843000FB79022B06D93C4B40F2AA4240493C480A
:108440000BF0E0F8FB689B7A002B02D16FF00A0377
:1084500065E0F868FEF706FE03463B83FB6803F120
:108460001C003A8B3B6B00933B680421FEF742FFF4
:1084700078617B69002B02D14FF0FF334FE0FB683E
:10848000EC337A8B11461846FFF78EF90346002B22
:1084900005D17869FEF7C0FF4FF0FF333FE0FB687E
:1084A00003F1EC0097F83430002B01D0082100E0F4
:1084B0000A217B8B01930023009301230022FFF705
:1084C00028F9FB68EC333A8B11461846FFF7BFF8E2
:1084D000FB68EC337A8CB9681846FFF7EEF897F82A
:1084E0003430002B0BD0FB6803F1EC02FB79022B3C
:1084F00028BF0223DBB219461046FFF799F8FB6844
:10850000183379691846FEF73BFFFB6803F1EC026C
:10851000FB68DB6819461046FEF738FE0023184654
:108520002837BD4680BD00BF34480108E44B010830
:10853000AC480108044C0108244C01084C4C0108CB
:10854000744C010880B584B000AFF860B9607A60FF
:108550003B60FB68002B06D1094B40F2DA42094927
:1085600009480BF04FF8FB687A681A66FB68BA682E
:108570005A66FB683A68DA6500BF1037BD4680BDB1
:10858000344801088C4C0108AC48010880B500AFA4
:108590004FF4F871012000F061FE0346184680BDDB
:1085A00080B58CB002AFF860B9603B601346FB80C9
:1085B0000A23BB84002387F82330002387F8223066
:1085C000002387F821300023FB830023BB83FB6853
:1085D000002B06D19E4B40F20F529E499E480BF055
:1085E00011F8BB68002B06D1994B4FF4A2629B494E
:1085F00099480BF007F87B6B002B06D1944B40F2A7
:108600001152974994480AF0FDFF7B6B1B68002BC1
:1086100006D18F4B40F2125292498F480AF0F2FF76
:10862000FB689B7A002B02D06FF009031FE24FF426
:10863000F8720021F8680AF0DDFFFB683A6B1A61F6
:10864000FB683A685A617B6B9A89FB685A80FB68C1
:108650001C3304211846FEF7BDFF7B6B1B69002B02
:1086600073D07B6B5B69002B6FD097F8233043F09E
:10867000040387F823307B6B1B7EDB005BB203F0C7
:1086800018035AB297F9233013435BB287F82330AB
:108690007B6B5B7E002B05D097F8233043F02003E3
:1086A00087F823307B6B1B691846F7F7C9FDB86163
:1086B000BB69FF2B09D9664B4FF4A5626A4966482E
:1086C0000AF0A0FF6FF00503D1E1BB69002B09D1CF
:1086D0005F4B40F2295265495F480AF093FF6FF003
:1086E0000503C4E1BB6987F822307B6B5B691846E0
:1086F000F7F7A6FDB861BB69FF2B09D9544B40F2CF
:108700002C525B4954480AF07DFF6FF00503AEE13F
:10871000BB6987F82130BB8C9A1C97F82230134430
:108720009A1C97F821301344BB61BB69B3F5803FB5
:1087300009D3474B40F22F524E4947480AF062FF97
:108740006FF0050393E1BB69BB847B6B5B68002B17
:108750003DD097F8233063F07F0387F823307B6B9D
:108760005B681846F7F76CFDB861BB69B3F5803FED
:1087700009D3374B40F235523F4937480AF042FFA0
:108780006FF0050373E1BB69002B09D1304B40F258
:1087900036523A4930480AF035FF6FF0050366E17A
:1087A000BB69FB83BB8C9A1CFB8B1344BB61BB690D
:1087B000B3F5803F09D3264B40F239522D49264864
:1087C0000AF020FF6FF0050351E1BB69BB847B6BAE
:1087D0009B68002B5AD097F8233043F0400387F86A
:1087E00023307B6B9B681846F7F72AFDB861BB699D
:1087F000B3F5803F09D3164B40F23F52204916484B
:108800000AF000FF6FF0050331E1BB69002B09D1CD
:108810000F4B4FF4A8621B490F480AF0F3FE6FF0AC
:10882000050324E1BB69BB83BB8C9A1CBB8B13443F
:10883000BB61BB69B3F5803F26D3054B40F2435281
:108840000C4905480AF0DEFE6FF005030FE100BF9A
:1088500034480108B44C0108AC480108D84C010860
:10886000004D01082C4D0108604D0108A04D010884
:10887000E04D01081C4E01084C4E01088C4E0108C9
:10888000D04E0108104F0108BB69BB8497F8233014
:1088900043F0020387F823307B6B1B681846F7F719
:1088A000CFFCB861BB69B3F5803F09D3724B40F28E
:1088B0004B52724972480AF0A5FE6FF00503D6E0EC
:1088C000BB69FB82BB8C9A1CFB8A1344BB61BB69EE
:1088D000B3F5803F09D3684B40F24E52694968486E
:1088E0000AF090FE6FF00503C1E0BB69BB84FB6832
:1088F000EC33BA8C11461846FEF756FF0346002BA0
:1089000002D14FF0FF33B2E0002003F005FB024636
:10891000FB68DA60FB68DB68002B02D14FF0FF33A5
:10892000A5E0FB68DB68F968184603F003FBFB6809
:10893000DB6800225449184602F02CFA034687F8F7
:10894000273097F92730002B40F08480FB68D868E7
:10895000FA884E4BB96802F0A5FB034687F827302A
:1089600097F92730002B77D1FB68DB684849184618
:1089700003F036FBFB6801229A72FB6803F1EC00FE
:10898000BB8C019300230093002300220121FEF7FA
:10899000C0FEFB68EC3304223E491846FEF78DFE0C
:1089A000FB68EC3304211846FEF742FEFB68EC330B
:1089B00097F8232011461846FEF73AFEFB6803F1AC
:1089C000EC027B6B9B8919461046FEF740FEFB6864
:1089D00003F1EC007B6B1B68FA8A1946FEF76DFE0B
:1089E00097F8233003F00403002B15D0FB6803F144
:1089F000EC007B6B1B6997F8222092B21946FEF7B8
:108A00005CFEFB6803F1EC007B6B5B6997F821204F
:108A100092B21946FEF751FE97F92330002B08DA7F
:108A2000FB6803F1EC007B6B5B68FA8B1946FEF781
:108A300044FE97F8233003F04003002B08D0FB6876
:108A400003F1EC007B6B9B68BA8B1946FEF735FE91
:108A500000230CE000BF00E000BFFB68DB681846A5
:108A600002F08CF9FB680022DA6097F9273018468B
:108A70002837BD4680BD00BF34480108544F010867
:108A8000AC4801081C4E01086C7A01086D81000891
:108A9000F9800008904F010880B483B000AF03460E
:108AA000FB80FB881B021AB2FB881B0A9BB21BB21D
:108AB00013431BB29BB218460C37BD465DF8047BCE
:108AC000704780B483B000AF78607B681A067B681B
:108AD0001B0203F47F031A437B681B0A03F47F43E2
:108AE0001A437B681B0E134318460C37BD465DF8CE
:108AF000047B704780B582B000AF00237B6000F03C
:108B0000D5F800F003FC00F001FD08F021F801F0B9
:108B10003BFE07F059FF00BF0837BD4680BD00008F
:108B200080B483B000AF0346FB80054B1A68FB8816
:108B3000134418460C37BD465DF8047B704700BFF0
:108B40008C54002080B483B000AF7860054B1B6864
:108B50007A68D31A9BB218460C37BD465DF8047B81
:108B6000704700BF8C54002090B585B000AF78608E
:108B7000454B1B687A689A4206D2444B40F2DF129A
:108B8000434944480AF03EFD434B1B687A689A42C9
:108B900006D33E4B4FF4F07240493E480AF032FD96
:108BA0007B681B79002B06D0384B40F2E1123C4920
:108BB00038480AF027FD7B681B88B3F5C86F06D9D3
:108BC000324B4FF4F272374932480AF01BFD7B6892
:108BD0001B881846FFF7A4FFF8607A68FB689A4282
:108BE00024D0FB681B79002B20D12B4B1B68FA6823
:108BF0009A421BD02C4B1B68FA689A4202D12A4A2F
:108C00007B681360FB681A887B681A80FB681B8886
:108C1000B3F5C86F0AD0FB681B881846FFF780FFC2
:108C200004467868FFF78EFF034663807B685B88A5
:108C30001846FFF775FFB860BA687B689A421FD084
:108C4000BB681B79002B1BD1174B1B687A689A42B3
:108C500002D1154ABB6813607B681A88BB681A800A
:108C60007B681B88B3F5C86F0AD07B681B881846E1
:108C7000FFF756FF0446B868FFF764FF03466380BA
:108C800000BF1437BD4690BD8C540020E44F01084E
:108C9000145001082C500108905400205450010831
:108CA000705001088C5001089454002080B582B0A7
:108CB00000AF184B033323F003031A46164B1A6018
:108CC000154B1B687B607B684FF4C8621A807B6819
:108CD00000225A807B6800221A714FF4C860FFF7A7
:108CE0001FFF03460D4A13600C4B1B6801221A71CB
:108CF0000A4B1B684FF4C8621A80084B1B684FF47C
:108D0000C8625A80044B1B68054A136000BF0837CD
:108D1000BD4680BD384E00208C5400209054002069
:108D20009454002080B586B000AF78607868FFF773
:108D300009FF0346FB827B681B881846FFF7F0FE9D
:108D400038617B685B881846FFF7EAFEF8607B684D
:108D50001B88B3F5C86F18D87B685B88B3F5C86FFC
:108D600013D87B685B88FA8A9A4204D0FB681B8818
:108D7000FA8A9A4209D1084B1B683A699A4206D08E
:108D80003B695B88FA8A9A4201D0002300E0012304
:108D900018461837BD4680BD9054002080B584B079
:108DA00000AF78607B68002B4CD07B6803F0030336
:108DB000002B07D0254B40F27322254925480AF0A5
:108DC00021FC40E07B68083BFB60234B1B68FA6892
:108DD0009A4206D37B6803F10C02204B1B689A422F
:108DE00007D91A4B40F27F221D491A480AF00AFCA3
:108DF00029E0FB681B79002B07D1144B4FF4237239
:108E0000184914480AF0FEFB1DE0F868FFF78AFFD6
:108E10000346002B07D10D4B40F2952212490D4815
:108E20000AF0F0FB0FE0FB6800221A710F4B1B6881
:108E3000FA689A4202D20D4AFB681360F868FFF79D
:108E400093FE00E000BF1037BD4680BDE44F01082F
:108E5000B85001082C5001088C5400209054002078
:108E6000DC500108F85001082051010894540020FA
:108E700080B588B000AF78600B467B807B88033379
:108E80009BB223F00303FB83FB8B0B2B01D80C233A
:108E9000FB83FB8BB3F5C86F03D8FA8B7B889A42B0
:108EA00001D20023CCE0684B1B687A689A4204D355
:108EB000664B1B687A689A4206D3654B40F2D12212
:108EC000644965480AF09EFB5F4B1B687A689A42CA
:108ED00004D35E4B1B687A689A4201D37B68AFE08B
:108EE0007B68083BBB61B869FFF72CFE0346FB8239
:108EF000BB691A88FB8AD31A9BB2083BBB82FA8BE8
:108F0000BB8A9A4206D9524B4FF4397253495248A0
:108F10000AF078FBFA8BBB8A9A4201D900238FE0D2
:108F2000FA8BBB8A9A4201D17B6889E0BB691B88B6
:108F30001846FFF7F5FD38613B691B79002B3FD1DF
:108F4000BB691B88B3F5C86F06D1414B40F2F522CF
:108F5000434941480AF056FB3B691B88BB81FA8AAA
:108F6000FB8B13449BB20833FB813E4B1B683A6971
:108F70009A4206D1FB891846FFF7D2FD0346394ACB
:108F80001360FB891846FFF7CBFD38613B6900226F
:108F90001A713B69BA891A803B69FA8A5A80BB699F
:108FA000FA891A803B691B88B3F5C86F47D03B69C3
:108FB0001B881846FFF7B4FD0246FB8953803EE04C
:108FC000FB8B03F11402BB8A9A4238D8FA8AFB8BD6
:108FD00013449BB20833FB81BB691B88B3F5C86F90
:108FE00006D11B4B40F216321D491B480AF00AFB02
:108FF000FB891846FFF794FD38611A4B1B683A69E4
:109000009A4202D2174A3B6913603B6900221A71E7
:10901000BB691A883B691A803B69FA8A5A80BB6926
:10902000FA891A803B691B88B3F5C86F07D03B6982
:109030001B881846FFF774FD0246FB8953807B6846
:1090400018462037BD4680BD8C5400209054002027
:10905000E44F0108545101082C5001086C510108DB
:109060008C5101089454002080B588B000AF0346AD
:10907000FB80FB88002B01D10023D9E0FB88033360
:109080009BB223F00303BB83BB8B0B2B01D80C23B8
:10909000BB83BB8BB3F5C86F03D8BA8BFB889A42EE
:1090A00001D20023C4E0644B1B681846FFF74AFD59
:1090B0000346FB83B4E0FB8B1846FFF731FD786174
:1090C0007B691B79002B40F0A4807B691B881A46C2
:1090D000FB8BD31AA3F10802BB8B9A42C0F0998094
:1090E0007B691B881A46FB8BD31AA3F10802BB8B42
:1090F00014339A4233D3FA8BBB8B13449BB208339D
:109100007B827B8AB3F5C86F06D14C4B40F2873225
:109110004B494C480AF076FA7B8A1846FFF700FD67
:10912000F860FB6800221A717B691A88FB681A8054
:10913000FB68FA8B5A807B697A8A1A807B690122E4
:109140001A71FB681B88B3F5C86F0BD0FB681B88CE
:109150001846FFF7E5FC02467B8A538002E07B69F4
:1091600001221A71344B1B687A699A4227D1324B1B
:109170001B68BB6105E0BB691B881846FFF7D0FC84
:10918000B861BB691B79002B04D02F4B1B68BA69EF
:109190009A42F0D1284ABB691360274B1A682A4BC0
:1091A0001B689A420BD0244B1B681B79002B06D0FE
:1091B000224B40F2B532254922480AF023FABA8BF5
:1091C0007B6913440833204A1268934206D91B4B2B
:1091D00040F2B9321E491B480AF014FA7B6903F0C9
:1091E0000303002B06D0154B40F2BB32194915483A
:1091F0000AF008FA7B6903F00303002B06D00F4B3B
:1092000040F2BD3214490F480AF0FCF97B6908337B
:109210000EE0FB8B1846FFF783FC03461B88FB839D
:10922000FA8BBB8BC3F5C8639A42FFF444AF0023AB
:1092300018462037BD4680BD94540020E44F0108F5
:109240008C5101082C50010890540020A0510108B5
:10925000BC510108EC5101081C52010880B584B0D2
:1092600000AF03460A46FB801346BB80FB88BA88E2
:1092700002FB03F3FB60FB689BB21A46FB68934258
:1092800001D000230EE0FB689BB21846FFF7ECFE0E
:10929000B860BB68002B04D0FA680021B8680AF0F7
:1092A000A9F9BB6818461037BD4680BD80B485B0AB
:1092B00000AF78607B689B6800221A607B685B68FF
:1092C000033323F00303BB600023FB6011E07B68E2
:1092D0009B681A68BB681A607B689B68BA681A60EA
:1092E0007B681B881A46BB681344BB60FB6801336C
:1092F000FB607B685B881A46FB689342E7DB00BF34
:1093000000BF1437BD465DF8047B704780B582B05E
:1093100000AF0023FB8009E0FB88084A52F82330A5
:109320001846FFF7C3FFFB880133FB80FB88082B3F
:10933000F2D900BF00BF0837BD4680BD087A0108DA
:1093400080B584B000AF78607B689B681B68FB6069
:10935000FB68002B12D07B689B68FA6812681A6061
:10936000FB6803F00303002B06D0074B4FF48C720D
:10937000064907480AF046F9FB6800E00023184652
:109380001037BD4680BD00BF405201087052010831
:109390009452010880B582B000AF78607B68002BE2
:1093A00006D10A4B4FF49E7209490A480AF02AF97D
:1093B0007B68002B01D1002303E07868FFF7C0FF32
:1093C000034618460837BD4680BD00BF405201081D
:1093D000BC5201089452010880B584B000AF034626
:1093E000FB71FB79082B08D90A4B40F257120A4946
:1093F0000A480AF007F9002308E0FB79084A52F806
:1094000023301846FFF79CFFF860FB6818461037BA
:10941000BD4680BD40520108D05201089452010857
:10942000087A010880B584B000AF786039603B6885
:1094300003F00303002B06D00A4B4FF4B6720A491F
:109440000A480AF0DFF83B68FB607B689B681A6893
:10945000FB681A607B689B68FA681A6000BF103767
:10946000BD4680BD40520108F052010894520108E7
:1094700080B582B000AF786039607B68002B06D180
:109480000A4B40F295120A490A480AF0BBF87B6879
:10949000002B07D03B68002B04D039687868FFF7B1
:1094A000C1FF00E000BF0837BD4680BD4052010843
:1094B000BC5201089452010880B582B000AF034647
:1094C0003960FB71FB79082B07D90C4B4FF4D5722F
:1094D0000B490C480AF096F80CE03B68002B08D0CA
:1094E000FB79094A52F8233039681846FFF79AFF8A
:1094F00000E000BF0837BD4680BD00BF40520108F4
:109500001053010894520108087A010880B400AF92
:1095100000BFBD465DF8047B7047000080B586B093
:1095200000AFF860B9607A603B60FB68002B08D13F
:10953000574B40F22712574957480AF063F8002367
:10954000A2E07B6A002B08D1514B4FF4947253492F
:1095500051480AF057F8002396E0BB68002B01D170
:109560004F4BBB607B68002B01D14D4B7B603B6850
:10957000002B01D14A4B3B60FB6800225A60FB681C
:1095800000229A60FB680022DA60FB68454A5A6153
:10959000FB6800229A84FB68002283F82D20FB6878
:1095A0000022DA61FB683A6A1A623F4B1A78FB685C
:1095B00083F83020FB68BA6A1A613B687A68B96838
:1095C000F86800F013F97B6AF86898470346002BA7
:1095D00001D0002358E0FB6893F83030FF2B03D113
:1095E000FB68002283F8302000233B612F4B1B686F
:1095F0007B612BE07A69FB689A4206D1244B40F2EA
:109600008B122B49244809F0FDFF3B6901333B6174
:109610003B69FF2B06DD1E4B40F28D1225491E488B
:1096200009F0F0FF7B6993F83020FB6893F8303045
:109630009A4208D1FB6893F830300133DAB2FB6804
:1096400083F8302005E07B691B687B617B69002B18
:10965000D0D17B69002BBED1FB6893F83030FE2B54
:1096600003D1114B00221A7006E0FB6893F83030EA
:109670000133DAB20C4B1A700C4B1A68FB681A6093
:109680000A4AFB681360FB6818461837BD4680BD60
:109690002C530108C05301087C530108DC53010816
:1096A0006C7A0108C79A00088C830020848300200C
:1096B000005401081454010880B582B000AF7860EE
:1096C00039603968786802F053FE3968786807F0C5
:1096D000C9FB00BF0837BD4680BD000080B586B01D
:1096E00000AFF860B9607A60BB68002B06D11D4BF3
:1096F00040F2CB121C491D4809F084FF7B68002B07
:1097000006D1184B4FF4E6721749184809F07AFF52
:10971000BB681A68FB6804331B689A421CD0BB689C
:109720001B687B61FB6804331A687B681A6007F169
:10973000140319467868FFF7BFFFBB68002B02D0FF
:10974000BB681B6800E00023FA6853600121F868D9
:1097500000F0D2F8012300E0002318461837BD4678
:1097600080BD00BF2C530108445401087C530108FC
:1097700080B485B000AFF860B9607A60BB681A68E1
:10978000FB6808331B689A420AD0BB68002B02D0E2
:10979000BB681B6800E00023FA689360012300E0C7
:1097A000002318461437BD465DF8047B704780B42B
:1097B00085B000AFF860B9607A60BB681A68FB6872
:1097C0000C331B689A420AD0BB68002B02D0BB68DE
:1097D0001B6800E00023FA68D360012300E0002347
:1097E00018461437BD465DF8047B704780B588B0D5
:1097F00000AFF860B9607A603B600023FB61002332
:10980000BB61BB68002B01D11C4BBB607B68002B8C
:1098100001D11A4B7B603B68002B01D1174B3B6099
:10982000BB68002B03D0BB681B68002B01D1012350
:1098300000E000237B617B69002B06D007F1100359
:109840001A46B968F868FFF749FFFA697968F86855
:10985000FFF78EFFBA693968F868FFF7A8FF7B69E0
:10986000002B06D107F110031A46B968F868FFF714
:1098700035FF00BF2037BD4680BD00BF6C7A0108B0
:1098800080B483B000AF7860044A7B68136000BF87
:109890000C37BD465DF8047B704700BF888300200D
:1098A00080B582B000AF78607B68002B07D10F4B8A
:1098B0004FF454720E490F4809F0A4FE13E07B6880
:1098C00093F82D3003F00103002B0CD17B6893F843
:1098D0002D3043F00103DAB27B6883F82D20032199
:1098E000786800F009F80837BD4680BD2C530108A0
:1098F000B45401087C53010880B582B000AF786091
:109900000B46FB707B68002B06D1184B40F26D3282
:109910001749184809F076FE7B6893F82D3003F05C
:109920000403002B1ED07B6893F82D3003F0010355
:10993000002B17D0FB7803F00103002B13D07B68BA
:1099400004331B68002B0ED07B6893F82D3003F096
:109950000803002B07D07B6804331946786808F0A9
:10996000EBF900E000BF0837BD4680BD2C5301086D
:10997000D05401087C53010880B582B000AF7860F4
:109980007B68002B07D1124B40F29B3211491248E1
:1099900009F038FE19E07B6893F82D3003F00103DD
:1099A000002B12D07B6893F82D3023F00103DAB23C
:1099B0007B6883F82D207B6893F82D3003F0080333
:1099C000002B02D0786807F075FD0837BD4680BDD2
:1099D0002C530108F45401087C53010880B582B06F
:1099E00000AF78607B68002B07D1134B4FF478727F
:1099F0001249134809F006FE1BE07B6893F82D30EE
:109A000003F00403002B14D17B6893F82D3043F04E
:109A10000403DAB27B6883F82D2003217868FFF70E
:109A20006BFF7B68DB69002B03D07B68DB697868A0
:109A300098470837BD4680BD2C53010814550108CE
:109A40007C53010880B582B000AF78607B68002B42
:109A500007D1114B40F206421049114809F0D2FDDE
:109A600017E07B6893F82D3003F00403002B10D02F
:109A70007B6893F82D3023F00403DAB27B6883F817
:109A80002D207B68DB69002B03D07B68DB6978685D
:109A900098470837BD4680BD2C530108385501084A
:109AA0007C53010880B483B000AF786039607B6874
:109AB000002B02D07B683A68DA6100BF0C37BD46E4
:109AC0005DF8047B704780B485B000AFF860B96082
:109AD0007A606FF00B0318461437BD465DF8047BBF
:109AE0007047000080B485B000AF0346FB71FB797E
:109AF000002B13D00D4B1B68FB600CE0FB6893F848
:109B000030300133DBB2FA799A4201D1FB6806E0CA
:109B1000FB681B68FB60FB68002BEFD10023184635
:109B20001437BD465DF8047B704700BF8483002076
:109B300080B582B000AF0C4B00221A700B4B1B6833
:109B40007B600AE07B685B6F002B03D0786802F0D3
:109B50004DFC05E07B68DB687B607B68002BF1D106
:109B60000837BD4680BD00BF8D8300209C83002048
:109B700080B400AF034B01221A7000BFBD465DF8F0
:109B8000047B70478D83002080B485B000AFF860FF
:109B9000B96011461A460B46FB801346BB80FB6832
:109BA00000221A60FB68BA685A60FB68FA881A815A
:109BB000FB68BA885A813B8BDAB2FB681A73FB6880
:109BC0003A7F5A73FB6801229A73FB680022DA73AA
:109BD00000BF1437BD465DF8047B704780B58CB07C
:109BE00002AF0346FB710B46BB8013467B80FB79BB
:109BF0007B847B88B3F5207F7FD0B3F5207F00F393
:109C0000C880B3F5C17F10D0B3F5C17F00F3C18028
:109C1000012B02D0412B40F0BC807A88BB881946CA
:109C2000002000F0D1F87862BDE000237B620023C1
:109C3000FB61BB887B830820FFF7CEFB38613B6963
:109C4000002B09D1FFF794FF7B6A002B02D0786AC2
:109C500000F0A8FA0023A7E07B8C03339BB223F02B
:109C600003039BB2C3F514739BB27A8B934228BF54
:109C70001346FB817B8C10333A691344033323F082
:109C800003031846F9897A8B002301937B8800939C
:109C90000B4601463869FFF777FF3B695B6803F0C5
:109CA0000303002B06D0424B4FF4807241494248D7
:109CB00009F0A8FC7B8C033323F00303B3F5147F76
:109CC00006D13B4B4FF481723C493B4809F09AFC6A
:109CD0007B6A002B02D13B697B6202E0FB693A6937
:109CE0001A603B69FB617A8BFB89D31A7B83002363
:109CF0007B847B8B002B9ED155E07B8C03339BB206
:109D000023F003039AB2BB8803339BB223F003030F
:109D10009BB213443B833B8B1033FB823A8BBB8853
:109D2000033323F003039A4206D3FA8ABB88033332
:109D300023F003039A4201D2002335E0FB8A184640
:109D4000FFF792F978627B6A002B01D100232BE0A8
:109D50007B8C10337A6A1344033323F003031846D1
:109D6000B988BA88002301937B8800930B4601468B
:109D7000786AFFF709FF7B6A5B6803F00303002B37
:109D800010D00B4B4FF491720D490B4809F03AFC7F
:109D900008E0074B40F227120A49074809F032FC55
:109DA000002301E000BF7B6A18462837BD4680BD0E
:109DB0005C5501088C550108BC550108E4550108A3
:109DC000185601084456010880B586B002AF786085
:109DD0000B467B8013463B803B88412B09D03B8858
:109DE000012B06D00F4B4FF4A5720F490F4809F015
:109DF00009FC0720FFF7F0FAF860FB68002B01D19F
:109E000000230BE079887A88002301933B88009334
:109E10000B467968F868FFF7B7FEFB6818461037FD
:109E2000BD4680BD5C55010860560108BC5501085F
:109E300080B588B002AF7B600346FB730B46BB81E5
:109E400013467B81FB7B7B827B8A033323F00302F7
:109E5000BB891A44BB8C9A4201D9002318E03B6AA3
:109E6000002B07D07B8A033323F003033A6A1344A1
:109E70007B6101E000237B617868B989BA8902239C
:109E800001937B8900930B467969FFF77DFE7B6820
:109E900018461837BD4680BD80B584B000AF7860E5
:109EA0000B467B807B68002B06D13A4B4FF4CC727B
:109EB00039493A4809F0A6FB7B681B897A889A429F
:109EC00063D27B681A897B88D31A3B817B887B812C
:109ED0007B68FB6018E0FB685B897A89D31A7B8119
:109EE000FB681A893B89D31A9AB2FB681A81FB680E
:109EF0001B68FB60FB68002B06D1264B40F2AF12BB
:109F00002749264809F07EFBFB685B897A899A42DB
:109F1000E1D8FB681B7B03F00F03002B21D1FB680A
:109F20005B897A899A421CD0FB685B7B03F0020351
:109F3000002B16D1FB685A68FB68D31A9AB27B894A
:109F400013449BB21946F868FEF792FFF860FB686D
:109F5000002B06D10F4B40F2BD1212490F4809F0F9
:109F600051FBFB687A895A81FB685A89FB681A8120
:109F7000FB681B68002B04D0FB681B68184600F0C8
:109F800011F9FB6800221A6000E000BF1037BD46DF
:109F900080BD00BF5C55010874560108BC5501081E
:109FA0008C560108A456010880B586B000AFF86051
:109FB000B9601346FB71FB68002B06D12B4B40F2B6
:109FC000DF122B492B4809F01DFBFB68002B03D047
:109FD000BB68B3F5803F01D3012343E0BB68002B8E
:109FE00001D100233EE0BB687B82FB681A897B8A33
:109FF00013449BB27A8A9A4201D9012332E0FB686A
:10A000001B7B3B823B8A03F08003002B0CD0FB6858
:10A010005A68BB685B4213447B61FB6810337A6902
:10A020009A420DD201231DE0FB79002B06D0FB687C
:10A030005A68BB685B4213447B6101E0012311E075
:10A04000FB687A695A60FB685A897B8A13449AB222
:10A05000FB685A81FB681A897B8A13449AB2FB68B1
:10A060001A81002318461837BD4680BD5C5501088B
:10A07000C0560108BC55010880B582B000AF7860B9
:10A080003960002239687868FFF78EFF034618466A
:10A090000837BD4680BD000080B584B000AF786051
:10A0A00039607B68002B06D1204B40F24B222049BF
:10A0B000204809F0A7FA7B68002B03D03B68B3F572
:10A0C000803F01D301232CE03B68002B01D100230A
:10A0D00027E03B68FB817B685B89FA899A4208D953
:10A0E000124B40F255221449124809F08BFA012311
:10A0F00017E07B685B68BB607B685A683B681A4402
:10A100007B685A607B685A89FB89D31A9AB27B684C
:10A110005A817B681A89FB89D31A9AB27B681A81A3
:10A12000002318461037BD4680BD00BF5C550108AE
:10A13000C0560108BC550108CC56010880B582B054
:10A1400000AF78600B467B8013467B70B7F9023016
:10A15000002B08DAB7F902305B4219467868FFF73E
:10A160009BFF034607E0B7F902307A781946786812
:10A17000FFF71AFF034618460837BD4680BD80B575
:10A1800082B000AF78600B467B80B7F902300122C5
:10A1900019467868FFF7D2FF034618460837BD46D0
:10A1A00080BD000080B586B000AF78607B68002B72
:10A1B0000BD17B68002B06D1384B4FF437723849EE
:10A1C000384809F01FFA002363E00023FB755CE0C8
:10A1D0007B689B7B002B06D1304B40F2F122324949
:10A1E000304809F00FFA7B689B7B013BDAB27B6851
:10A1F0009A737B689B7BBB75BB7D002B43D17B68CF
:10A200001B683B617B681B7B03F00F03FB737B6860
:10A210005B7B03F00203002B11D07B68BB60BB6843
:10A220001B69002B06D11D4B40F2FF221F491D4820
:10A2300009F0E8F9BB681B69786898471DE0FB7B6B
:10A24000022B04D179680820FFF736F915E0FB7B73
:10A25000012B04D179680720FFF72EF90DE0FB7B75
:10A26000002B03D17868FEF799FD06E00B4B40F216
:10A270000F320F490B4809F0C5F9FB7D0133FB751F
:10A280003B697B6001E000237B607B68002B9FD1F2
:10A29000FB7D18461837BD4680BD00BF5C550108E0
:10A2A000C0560108BC550108EC56010804570108C6
:10A2B0002857010880B485B000AF78600023FB8187
:10A2C00005E0FB890133FB817B681B687B607B6851
:10A2D000002BF6D1FB8918461437BD465DF8047B88
:10A2E0007047000080B582B000AF78607B68002BBB
:10A2F00010D07B689B7B0133DAB27B689A737B68F2
:10A300009B7B002B06D1054B40F2423204490548A5
:10A3100009F078F900BF0837BD4680BD5C550108DB
:10A320003C570108BC55010880B584B000AF786087
:10A3300039607B68002B02D03B68002B07D1204B93
:10A3400040F259321F49204809F05CF934E07B683B
:10A35000FB600AE0FB681A893B681B8913449AB2C8
:10A36000FB681A81FB681B68FB60FB681B68002B9D
:10A37000F0D1FB681A89FB685B899A4206D0104BC2
:10A3800040F262321149104809F03CF9FB681B6841
:10A39000002B06D00A4B40F263320D490A4809F0FF
:10A3A00031F9FB681A893B681B8913449AB2FB6830
:10A3B0001A81FB683A681A601037BD4680BD00BF3D
:10A3C0005C55010850570108BC5501088857010821
:10A3D000B857010880B586B000AF786039600023B7
:10A3E0007B6100233B617B68002B08D03B68002B1E
:10A3F00005D07B681A893B681B899A4209D2574B62
:10A4000040F2C9325649574809F0FCF86FF00F0383
:10A410009FE07B685B891A467B69D21A3B685B893F
:10A4200019463B69CB1A9A4206D33B685B891A46A8
:10A430003B69D31AFB6005E07B685B891A467B6940
:10A44000D31AFB607B685A687B69D0183B685A68EE
:10A450003B691344FA68194609F0BEF87A69FB684B
:10A4600013447B613A69FB6813443B617B685B89F9
:10A470001A467B69934206D9384B40F2D9323A49A1
:10A48000384809F0BFF83B685B891A463B6993423C
:10A4900006D9324B40F2DA323449324809F0B2F888
:10A4A0003B685B891A463B69934204D300233B61B6
:10A4B0003B681B683B607B685B891A467B699342FB
:10A4C00014D100237B617B681B687B607B68002B59
:10A4D0000CD13B68002B09D0204B4FF479722449F2
:10A4E000204809F08FF86FF00F0332E03B68002B33
:10A4F00013D03B685A893B681B899A420DD13B684F
:10A500001B68002B09D0154B40F2E9321949154858
:10A5100009F078F86FF005031BE07B68002B13D07F
:10A520007B685A897B681B899A420DD17B681B68BE
:10A53000002B09D0094B40F2EE320E49094809F0D0
:10A5400061F86FF0050304E03B68002B7FF461AF16
:10A55000002318461837BD4680BD00BF5C55010872
:10A5600004580108BC550108345801084C5801082A
:10A57000685801087858010880B588B000AFF860C5
:10A58000B96011461A460B46FB801346BB80002378
:10A590007B830023FB82FB68002B08D12B4B40F20E
:10A5A0000A422B492B4809F02DF800234AE0BB68EA
:10A5B000002B08D1254B40F20B422749254809F0D2
:10A5C00021F800233EE0FB68FB6134E0BB88002BF0
:10A5D0000AD0FB695B89BA889A4205D3FB695B891B
:10A5E000BA88D31ABB8023E0FB695A89BB88D31A87
:10A5F0003B833A8BFB889A4201D9FB883B837B8B58
:10A60000BA68D018FB695A68BB8813443A8B19465C
:10A6100008F0E2FFFA8A3B8B1344FB827A8B3B8B78
:10A6200013447B83FA883B8BD31AFB800023BB80C7
:10A63000FB691B68FB61FB88002B02D0FB69002BC8
:10A64000C4D1FB8A18462037BD4680BD5C55010841
:10A65000A4580108BC550108C458010880B487B04B
:10A6600000AFF8600B467A607B817B89FB82FB68D8
:10A670003B6107E03B695B89FA8AD31AFB823B693D
:10A680001B683B613B69002B04D03B695B89FA8AFC
:10A690009A42EFD27B68002B02D07B68FA8A1A803C
:10A6A0003B6918461C37BD465DF8047B70470000C7
:10A6B00080B584B000AF03463A60FB710B46BB80A7
:10A6C0003B681989BA88FB791846FFF787FAF86062
:10A6D000FB68002B01D1002311E03968F868FFF70F
:10A6E00079FE0346FB7297F90B30002B06D0064B20
:10A6F00040F224520549064808F084FFFB681846DA
:10A700001037BD4680BD00BF5C550108D059010817
:10A71000BC55010880B584B000AF78600B467B80E3
:10A720007B881946786800F00CF8F860FB68002B0D
:10A7300002DBFB68DBB200E0002318461037BD46A1
:10A7400080BD80B584B000AF78600B467B8007F198
:10A750000A027B8819467868FFF780FFF860FB687B
:10A76000002B0AD0FB685A897B899A4205D9FB687D
:10A770005B687A8913441B7801E04FF0FF33184679
:10A780001037BD4680BD000080B500AF08F052FF15
:10A7900003469BB2C3F30D039BB2A3F580439AB269
:10A7A000014B1A8000BF80BD2400002080B582B01C
:10A7B00000AF78607B681B7D012B05D1064BD4224E
:10A7C0000649074808F01EFF79680120FEF774FE6D
:10A7D00000BF0837BD4680BD5C5A01088C5A01088D
:10A7E000A05A010880B582B000AF78607B681B7DFD
:10A7F000012B05D1064BDF220649074808F002FF6E
:10A8000079680220FEF758FE00BF0837BD4680BDBC
:10A810005C5A0108C85A0108A05A010880B500AF67
:10A8200001F098F8074B1B780133DAB2054B1A7028
:10A83000044B1B7803F00103002B01D000F04AFD0C
:10A8400000BF80BDA583002080B584B000AF7860D4
:10A8500039603B68002B05D10D4BFF220D490E4896
:10A8600008F0D0FE7B68FB600AE0FB68DB6F3A68AB
:10A870009A4202D1FB680022DA67FB68DB68FB6062
:10A88000FB68002BF1D100BF00BF1037BD4680BD73
:10A890005C5A0108E45A0108A05A010880B584B046
:10A8A00000AF78607B68002B06D1144B40F2111288
:10A8B0001349144808F0A6FE7B681B7D012B06D0C7
:10A8C0000E4B4FF4897210490E4808F09BFE01238D
:10A8D000FB600BE00D4AFB6852F823301B68796877
:10A8E0001846FFF7B1FFFB680133FB60FB68032BE1
:10A8F000F0D900BF00BF1037BD4680BD5C5A0108CB
:10A900000C5B0108A05A0108185B0108447A010891
:10A91000B0B588B004AF78600B46FB707B68002B45
:10A9200006D1634B4FF4AF726249634808F06AFE88
:10A93000FB78002B66D07B681B7D042B03D07B68E3
:10A940001B7D072B5ED17B689B6F002B04D17B683E
:10A950001B8DB3F5066F55D07B685B8B03F010033E
:10A96000002B06D1524B4FF4B2725449524808F0B2
:10A9700049FE7B68186D7B685C6A7D687B68043380
:10A980007A68D28A7968098B0291019200932B46EA
:10A9900022460146786805F095FD786801F072FB63
:10A9A000474B1B687A689A4205D1454B1B68DB68A8
:10A9B000434A136013E0424B1B68FB600CE0FB68EA
:10A9C000DB687A689A4204D17B68DA68FB68DA60EF
:10A9D00005E0FB68DB68FB60FB68002BEFD17B6860
:10A9E0000022DA60374B01221A70374B1B687A68F5
:10A9F0009A4202D104F00AF802E07868FFF7D6FE26
:10AA0000002350E07B681B7D022B3BD0022B44DCF3
:10AA1000002B02D0012B2AD03FE07B68DB8A002B81
:10AA200021D02A4B1B687A689A4205D1274B1B68B4
:10AA3000DB68264A136013E0244B1B68BB600CE004
:10AA4000BB68DB687A689A4204D17B68DA68BB68C5
:10AA5000DA6005E0BB68DB68BB60BB68002BEFD148
:10AA60007B680022DA607868FFF7A0FE1AE0786859
:10AA7000FFF714FF7968164801F054FB7868FFF778
:10AA8000B1FE0FE079680E4801F04CFB0D4B01223E
:10AA90001A707868FFF78AFE04E0786800F01AF808
:10AAA000034600E0002318461037BD46B0BD00BF86
:10AAB0005C5A0108305B0108A05A0108505B01088C
:10AAC0009C830020A4830020DC830020948300204A
:10AAD0009883002080B584B000AF78607B68002B3D
:10AAE00006D12E4B4FF4CE722D492E4808F08AFD28
:10AAF0007B681B7D072B20D0072B2BDC032B02D080
:10AB0000042B0DD026E0786804F0EAFD0346FB73C1
:10AB100097F90F30002B1FD17B6805221A751BE0B7
:10AB2000786804F0DDFD0346FB7397F90F30002BC6
:10AB300014D17B6805221A7510E0786804F0D0FD06
:10AB40000346FB7397F90F30002B09D17B6809226C
:10AB50001A7505E000231CE000BF02E000BF00E022
:10AB600000BF97F90F30002B03D1786804F0F6FE90
:10AB70000DE097F90F30B3F1FF3F08D17B685B8B95
:10AB800043F008039AB27B685A83002301E097F9E7
:10AB90000F3018461037BD4680BD00BF5C5A010813
:10ABA0000C5B0108A05A010880B582B000AF786044
:10ABB0007B68002B09D10F4B4FF4F4720E490F48FC
:10ABC00008F020FD6FF00F030FE07B681B7D012B69
:10ABD00006D07B685B8B43F010039AB27B685A8384
:10ABE00001217868FFF794FE034618460837BD46F2
:10ABF00080BD00BF5C5A01086C5B0108A05A0108C7
:10AC000080B58EB004AF786039607B68002B07D1C7
:10AC1000524B40F23D225249524808F0F3FC99E071
:10AC20007B681B7D012B06D14C4B4FF410724E49B3
:10AC30004C4808F0E7FC7B681B7D0A2B07D179683C
:10AC40004A4801F06FFA7868FFF7B0FD82E0002310
:10AC50007B6200237B847B681B6DBB617B685B6AC6
:10AC60007B617B68D3F890303B617B681B69FB603C
:10AC70007B681B7D002B26D17B68DB8A002B2ED0C6
:10AC80003B4B1B687A689A4205D1394B1B68DB68DD
:10AC9000374A136013E0364B1B68FB610CE0FB691D
:10ACA000DB687A689A4204D17B68DA68FB69DA600B
:10ACB00005E0FB69DB68FB61FB69002BEFD17B687A
:10ACC0000022DA600BE03B687B627B68DB8A7B8476
:10ACD0007968284801F026FA274B01221A707B6810
:10ACE0001B6F002B04D07B681B6F184600F012FF0F
:10ACF0007B68DB6E002B04D07B68DB6E184600F0AF
:10AD000009FF7B685B6F002B04D07B685B6F184684
:10AD100000F000FF7B6A002B0ED079687B6804335B
:10AD20007A68128B02927A8C019200930B467A69B0
:10AD3000B969786805F0C6FB7B681B7DFB72786893
:10AD4000FFF734FD3B69002B04D03B696FF00C0129
:10AD5000F86898472837BD4680BD00BF5C5A010897
:10AD6000A05B0108A05A0108BC5B0108A083002079
:10AD7000948300209C830020A483002080B582B0AF
:10AD800000AF786001217868FFF73AFF00BF08370D
:10AD9000BD4680BD80B588B000AFF860B96013468D
:10ADA000FB8004237B61BB68002B01D13E4BBB6061
:10ADB000FB68002B09D13D4B40F2A9223C493D489C
:10ADC00008F020FC6FF00F036AE0FB681B7D002B8E
:10ADD00009D0364B40F2AB223749364808F012FC16
:10ADE0006FF005035CE0FB88002B09D100F014F93B
:10ADF0000346FB80FB88002B35D16FF001034FE049
:10AE00000023FB612BE02D4AFB6952F823301B68BD
:10AE1000BB611EE0BB69DB8AFA889A4216D1BB6926
:10AE2000002B10D0BB691B68002B0CD0BB68002B1B
:10AE300009D0BB681B68002B05D0BB691A68BB68CA
:10AE40001B689A4202D16FF0070329E0BB69DB68F7
:10AE5000BB61BB69002BDDD1FB690133FB61FA6982
:10AE60007B699A42CFDBBB68002B0CD0BB681B68A8
:10AE7000002B08D0BB68002B02D0BB681B6800E029
:10AE80000023FA681360FB68FA88DA820C4B1A68B0
:10AE9000FB68DA600A4AFB68136005F0D5FC002302
:10AEA00018462037BD4680BD6C7A01085C5A0108FF
:10AEB000F05B0108A05A0108085C0108447A010807
:10AEC0009483002080B584B000AF78607B68002B4D
:10AED00006D1254B40F2A6322449254808F092FBC2
:10AEE0007B685B6A7A68128D1344FB607B68DB6A5F
:10AEF0007A68528EB2F5866F28BF4FF4866292B29E
:10AF00001344FA68D31A002B08DB7B681A8D7B6820
:10AF10005A857B68DB6AFA68D31A20E07B685A6A34
:10AF20007B68DB6AD31A002B03DD7B6800225A851D
:10AF300014E07B68DA6A7B685B6AD31ABB60BB6823
:10AF4000B3F5803F06D3084B40F2B63209490848B2
:10AF500008F058FBBB689AB27B685A8500231846F4
:10AF60001037BD4680BD00BF5C5A0108B85C0108BF
:10AF7000A05A0108DC5C010880B584B000AF78609D
:10AF80000B467B807B68002B07D11F4B40F2CF32F2
:10AF90001E491F4808F036FB32E07B681B7D012B01
:10AFA00006D1194B40F2D2321A49194808F02AFB4F
:10AFB0007B681A8D7B881344FB81FB89B3F5066F90
:10AFC00004D87B681B8DFA899A4204D27B684FF4BF
:10AFD00006621A8502E07B68FA891A857868FFF7AD
:10AFE00071FFB860BB68B3F5067F09D37B685B8BE4
:10AFF00043F002039AB27B685A83786804F0AEFC8F
:10B000001037BD4680BD00BF5C5A0108F85C0108DE
:10B01000A05A0108105D010880B483B000AF00237E
:10B02000BB801E4B1B8801339AB21C4B1A801B4BF2
:10B030001B884FF6FF72934203D1184B4FF44042E6
:10B040001A800023FB711EE0FB79154A52F8233069
:10B050001B683B6011E03B68DA8A104B1B889A4200
:10B0600008D1BB880133BB80BB88B3F5804FD8D3F0
:10B0700000230DE03B68DB683B603B68002BEAD1B6
:10B08000FB790133FB71FB79032BDDD9034B1B8863
:10B0900018460C37BD465DF8047B7047240000203D
:10B0A000447A010880B58AB000AFF860B9603B60AF
:10B0B0001346FB8000237B62FB68002B09D17D4B8C
:10B0C00040F235427C497D4808F09CFA6FF00F034E
:10B0D000ECE0BB68002B09D1764B40F23642784950
:10B0E000764808F08FFA6FF00F03DFE0FB681B7DF6
:10B0F000002B09D06F4B4FF4876272496F4808F0FC
:10B1000081FA6FF00903D1E0BB68002B02D0BB6865
:10B110001B6800E00023FA685360FB68FA881A8312
:10B12000FB681B7A002B06D0FB681B7A1846FEF7DB
:10B13000D9FC786205E0FB680433184606F09CFFF2
:10B1400078627B6A002B02D16FF00303AEE0FB68EC
:10B15000002B03D0FB681B68002B11D17B6A002BEE
:10B1600002D07B6A043300E00023FB61FB69002B03
:10B1700002D16FF0030399E0FB691A68FB681A605B
:10B18000FB68DB8A7B83FB68DB8A002B0CD1FFF733
:10B1900043FF03461A46FB68DA82FB68DB8A002B12
:10B1A00002D16FF0010381E0F86801F04FF8786197
:10B1B000FB6800225A62FB687A691A657B695A1E2D
:10B1C000FB685A647B695A1EFB689A657B695A1E44
:10B1D000FB68DA65FB684FF406625A85FB685A8D96
:10B1E000FB681A85FB685A6AFB68DA62FB684FF4F1
:10B1F0000662A3F86020FB684FF406725A86FB686B
:10B20000588EFB6804331A46796A01F045F8034604
:10B210001A46FB685A86FB680122A3F84820FB689F
:10B220003A68C3F888200221F86804F0A9FA0346B6
:10B23000FB7497F91330002B36D1FB6802221A7584
:10B240007B8B002B21D0204B1B68FA689A4205D1DA
:10B250001D4B1B68DB681C4A136013E01A4B1B680C
:10B260003B620CE03B6ADB68FA689A4204D1FB68F7
:10B27000DA683B6ADA6005E03B6ADB683B623B6A9E
:10B28000002BEFD1FB680022DA60104B1A68FB68D4
:10B29000DA600E4AFB68136005F0D6FA0C4B012207
:10B2A0001A70F86804F05AFB97F9133018462837DB
:10B2B000BD4680BD5C5A0108385D0108A05A0108EE
:10B2C000545D0108705D0108948300209C83002078
:10B2D000A4830020B0B590B004AF002387F82530D8
:10B2E000944B1B680133934A1360934B1B780133D3
:10B2F000DAB2914B1A700023BB62904B1B68FB6261
:10B300009DE2FB6A1B7D002B06D18D4B40F2BE42B5
:10B310008C498D4808F076F9FB6A1B7D012B06D11C
:10B32000874B40F2BF428949874808F06BF9FB6AB6
:10B330001B7D0A2B06D1824B4FF4986284498248C8
:10B3400008F060F9FB6A9A7F7B4B1B789A4205D123
:10B35000FB6ABB62FB6ADB68FB6270E2764B1A78C1
:10B36000FB6A9A77002387F82730002387F8263076
:10B37000FB6A1B7D022B0AD1FB6A93F84230052B36
:10B3800005D997F82730013387F827301EE1FB6A8B
:10B3900093F842300B2B05D997F82730013387F803
:10B3A000273013E1FB6A93F89930002B75D0FB6AC4
:10B3B0001B6F002B06D0624B40F2D44265496248B5
:10B3C00008F020F9FB6ADB6E002B06D15C4B40F2E3
:10B3D000D54261495C4808F015F9FB6A93F89A3048
:10B3E0000B2B05D997F82730013387F82730EDE08C
:10B3F000FB6A93F89930013B584AD35C7B74FB6A33
:10B4000093F898307A7C9A4207D9FB6A93F898307F
:10B410000133DAB2FB6A83F89820FB6A93F898301C
:10B420007A7C9A4200F2D28001233B62FB6AB3F835
:10B430006030002B08D1F86A05F038F90346002B7C
:10B4400014D000233B6211E0FB6AB3F86030194668
:10B45000F86A03F0FDFF0346002B07D1F86A04F0F9
:10B460007DFA0346002B01D100233B623B6A002B8F
:10B4700000F0AC80FB6A002283F89820FB6A93F806
:10B480009930062B00F2A280FB6A93F899300133C1
:10B49000DAB2FB6A83F8992098E0FB6AB3F930309E
:10B4A000002B0FDBFB6AB3F9303047F6FF72934293
:10B4B00008D0FB6AB3F930309BB201339BB21AB2A9
:10B4C000FB6A1A86FB6AB3F93020FB6AB3F9403095
:10B4D0009A427BDBF86A04F033FD0346002B07D069
:10B4E000FB6A1B6F002B71D1FB6ADB6E002B6DD0EA
:10B4F000FB6A1B7D022B3AD0FB6A93F842300C2B7F
:10B5000028BF0C23FB76FB6AB3F93C30DB101BB27F
:10B510001A46FB6AB3F93E301344FA7E10498A5C3E
:10B5200093407B617B6947F6FE7293421ADC7B692C
:10B530001AB219E090830020A68300209C8300208B
:10B540005C5A0108A05D0108A05A0108CC5D010801
:10B55000F85D0108285E01085C5E01083C7A01087C
:10B560002C7A010847F6FF72FB6AA3F84020FB6AB9
:10B5700000221A86FB6AB3F86020FB6AB3F84830F1
:10B58000934228BF13467B827B8A5B089AB2FB6A90
:10B59000A3F84A20FB6AB3F84A20FB6A5B8E5B0083
:10B5A0009BB29A4206D2FB6A5B8E5B009AB2FB6A40
:10B5B000A3F84A20FB6A5A8EFB6AA3F84820FB6A6C
:10B5C0000022A3F86A20F86A04F02AFDFB6A1B7DBA
:10B5D000062B11D1FB6A5B8B03F01003002B0BD001
:10B5E0009C4B1A68FB6A1B6AD31A282B04D997F85C
:10B5F0002730013387F82730FB6A5B7A03F00803B2
:10B60000002B4AD0FB6A1B7D042B03D0FB6A1B7DF9
:10B61000072B42D18F4B1A68FB6A1B6AD21AFB6A4E
:10B62000D3F894108C4B0B448C49A1FB03135B099A
:10B630009A420AD997F82730013387F8273097F8CC
:10B640002630013387F8263027E0824B1A68FB6AE0
:10B650001B6AD21AFB6AD3F89410FB6A93F89B30EA
:10B6600018467F4B00FB03F30B447C49A1FB0313FB
:10B670005B099A4211D9F86A04F0D8FF034687F8AB
:10B68000253097F92530002B07D1FB6A93F89B30C2
:10B690000133DAB2FB6A83F89B20FB6A5B6F002BF5
:10B6A00011D06C4B1A68FB6A1B6AD21AFB6AB3F999
:10B6B000403019460B465B000B445B009A4202D3B4
:10B6C000F86A00F093FEFB6A1B7D032B0BD1614BE4
:10B6D0001A68FB6A1B6AD31A282B04D997F82730FB
:10B6E000013387F82730FB6A1B7D092B0BD1594B9F
:10B6F0001A68FB6A1B6AD31AF02B04D997F8273013
:10B70000013387F8273097F82730002B60D0FB6A89
:10B71000D3F89030FB60F86A00F0B4FCBB6A002BF1
:10B7200010D0504B1B68FA6A9A4206D14E4B40F239
:10B730006D524E494E4807F065FFFB6ADA68BB6AF6
:10B74000DA600FE0474B1B68FA6A9A4206D0464B14
:10B7500040F271524749464807F054FFFB6ADB68E4
:10B76000404A136097F82630002B13D0FB6A186DFF
:10B77000FB6A5C6AFD6AFB6A0433FA6AD28AF96A78
:10B78000098B0291019200932B4622460146F86AEA
:10B7900004F098FEFB6A1B69BB60FB6A1B7DFB71B2
:10B7A000FB6A3B60FB6ADB68FB623868FEF7FEFF02
:10B7B000314B00221A70FB68002B04D0FB686FF03D
:10B7C0000C01B86898472C4B1B78002B37D092E5BA
:10B7D000FB6ABB62FB6ADB68FB62BB6A1B7F0133EF
:10B7E000DAB2BB6A1A77BB6A1A7FBB6A5B7F9A427E
:10B7F00025D3BB6A00221A771F4B00221A70BB6A3E
:10B80000D3F88C30002B0BD0BB6AD3F88C30BA6ADB
:10B810001269B96A10469847034687F8253002E056
:10B82000002387F82530144B1B78002B00D062E5ED
:10B8300097F92530002B02D1B86A04F08FF8FB6A23
:10B84000002B7FF45EAD0023BB620C4B1B68FB62D8
:10B8500069E000BF90830020B84C0A00D34D62100D
:10B86000F82401009C8300205C5A0108945E0108C2
:10B87000A05A0108C05E0108A4830020A083002014
:10B88000FB6A1B7D0A2B06D02B4B40F2A1522B49A1
:10B890002B4807F0B7FE002387F82730294B1A689A
:10B8A000FB6A1B6AD31AF02B04D997F827300133AF
:10B8B00087F8273097F82730002B2FD0F86A00F050
:10B8C000E1FBBB6A002B10D01F4B1B68FA6A9A423F
:10B8D00006D1194B40F2AF521C49194807F092FEAD
:10B8E000FB6ADA68BB6ADA600FE0174B1B68FA6A1A
:10B8F0009A4206D0104B40F2B3521549104807F057
:10B9000081FEFB6ADB68104A1360FB6AFB61FB6A1D
:10B91000DB68FB62F869FEF749FF04E0FB6ABB6283
:10B92000FB6ADB68FB62FB6A002BA9D100BF00BF8A
:10B930003037BD46B0BD00BF5C5A0108EC5E01085F
:10B94000A05A010890830020A08300201C5F0108FA
:10B95000445F010880B582B000AF2D4B1B780133E6
:10B96000DAB22B4B1A702B4B1B687B6048E07B686C
:10B970009A7F274B1B789A423FD0254B1A787B68D9
:10B980009A777B685B8B03F00103002B10D07B68F8
:10B990005B8B43F002039AB27B685A83786803F0AA
:10B9A000DDFF7B685B8B23F003039AB27B685A83CD
:10B9B0007B685B8B03F00803002B09D07B685B8BF3
:10B9C00023F008039AB27B685A837868FFF782F8FD
:10B9D0007B68DB683B607B689B6F002B0AD00E4B5B
:10B9E00000221A70786800F019F80B4B1B78002BB6
:10B9F00000D0B8E73B687B6002E07B68DB687B6077
:10BA00007B68002BB3D100BF00BF0837BD4680BDA7
:10BA1000A68300209C830020A483002090B585B0DD
:10BA200000AF78607B68002B09D1374B40F2096288
:10BA30003649374807F0E6FD6FF00F0360E07B689A
:10BA40009B6F5B7BBB737B689B6FBB607B680022DB
:10BA50009A677B68D3F88430002B0BD07B68D3F8CF
:10BA600084407B6818690023BA687968A047034658
:10BA7000FB7307E00023BA687968002000F0A4F89F
:10BA80000346FB7397F90F30002B2AD1BB7B03F0E1
:10BA90002003002B33D07B681B8DB3F5066F05D0D8
:10BAA0007B681B8D01339AB27B681A857B68D3F85B
:10BAB0008430002B0BD07B68D3F884407B681869F6
:10BAC000002300227968A0470346FB7301E00023AE
:10BAD000FB7397F90F3013F10D0F10D16FF00C03BA
:10BAE0000EE097F90F3013F10D0F02D16FF00C0338
:10BAF00006E07B68BA689A676FF0040300E00023F1
:10BB000018461437BD4690BD5C5A01086C5F0108A9
:10BB1000A05A010880B584B000AF786007E07B6868
:10BB20001B68FB60786800F00AF8FB687B607B6844
:10BB3000002BF4D100BF00BF1037BD4680BD80B5DB
:10BB400082B000AF78607B68002B0CD07B685B68AC
:10BB5000002B04D07B685B681846FEF723FB7968EE
:10BB60000320FDF7A9FC00BF0837BD4680BD0000DB
:10BB700080B584B000AF78607B68002B06D10F4B96
:10BB800040F282620E490F4807F03CFD0320FDF7AA
:10BB900023FCF860FB68002B01D100230AE010228F
:10BBA0007968F86807F018FDFB685B681846FEF7CF
:10BBB00099FBFB6818461037BD4680BD5C5A0108EA
:10BBC000B05F0108A05A010880B584B000AFF860EA
:10BBD000B9607A60FB70BB68002B09D1124B4FF43F
:10BBE000D3621249124807F00DFD6FF00F0316E003
:10BBF0007B68002B09D07B681B891946B868FFF762
:10BC0000BBF97868FEF7CEFA08E097F90330002B0D
:10BC100004D1B868FEF7C8FF034600E000231846C9
:10BC20001037BD4680BD00BF5C5A0108CC5F0108DB
:10BC3000A05A010880B586B000AF0346FB7197F9A2
:10BC40000730002B01DBFB7900E07F23FB72FB7ADE
:10BC5000002B34D0FB7A013BFB720023FB600023F6
:10BC60003B61194B1B687B611FE07B695B7DFA7A46
:10BC70009A420CD87B695B7DFA7A9A4212D1134BB7
:10BC80001A687B691B6AD31AFA689A420AD80F4B62
:10BC90001A687B691B6AD31AFB607B693B617B690D
:10BCA0005B7DFB727B69DB687B617B69002BDCD190
:10BCB0003B69002B04D03869FFF760F800E000BF53
:10BCC0001837BD4680BD00BF9C83002090830020B4
:10BCD00080B586B000AF0346FB71FB79082B09D015
:10BCE000FB79092B06D01A4B40F2DD6219491A483C
:10BCF00007F088FC0023FB6000233B61174B1B68A7
:10BD00007B6117E07B691B7DFA799A420FD1144B56
:10BD10001A687B691B6AD31AFA689A4207D8104BD3
:10BD20001A687B691B6AD31AFB607B693B617B697C
:10BD3000DB687B617B69002BE4D13B69002B03D07E
:10BD400000213869FEF75CFF00BF1837BD4680BD93
:10BD50005C5A0108E85F0108A05A01089C83002092
:10BD60009083002080B584B000AF00237B60002367
:10BD7000BB60124B1B68FB6012E0114B1A68FB683A
:10BD80001B6AD31A7A689A4207D80D4B1A68FB6867
:10BD90001B6AD31A7B60FB68BB60FB68DB68FB60D7
:10BDA000FB68002BE9D1BB68002B02D0B868FEF716
:10BDB000E5FF00BF1037BD4680BD00BFA083002057
:10BDC0009083002080B582B000AF104B1B687B6071
:10BDD00014E07B68DB683B607B685B8B03F00803E7
:10BDE000002B09D07B685B8B23F008039AB27B6839
:10BDF0005A837868FEF76EFE3B687B607B68002B99
:10BE0000E7D100BF00BF0837BD4680BD9C8300203E
:10BE100080B584B000AF0346FB710120FDF7DCFA6A
:10BE2000F860FB68002B26D1FFF7CCFFFFF79AFFE5
:10BE30000120FDF7D1FAF860FB68002B1BD1092027
:10BE4000FFF746FF0120FDF7C7FAF860FB68002BFB
:10BE500011D10820FFF73CFF0120FDF7BDFAF86083
:10BE6000FB68002B07D1FB791846FFF7E3FE0120A2
:10BE7000FDF7B2FAF860FB68002B3FD09C2200214E
:10BE8000F86807F0B7FBFB68FA795A75FB684FF45E
:10BE90008662A3F86420FB684FF406625A85FB684B
:10BEA0005A8DFB681A85FB68FF22DA72FB684FF433
:10BEB00006725A86FB680622A3F84020FB68062219
:10BEC000DA87FB684FF6FF721A86FB680122A3F837
:10BED00048200D4B1A68FB681A620C4B1A78FB68F5
:10BEE0009A77FB684FF48662A3F84A20FB68084AF9
:10BEF000C3F88420FB68074AC3F89420FB681846FF
:10BF00001037BD4680BD00BF90830020A68300206F
:10BF1000C9BB000800DD6D0080B584B000AF0346EA
:10BF2000FB714020FFF774FFF860FB68184610377C
:10BF3000BD4680BD80B483B000AF786039607B6857
:10BF4000002B02D07B683A681A6100BF0C37BD46EF
:10BF50005DF8047B7047000080B582B000AF786068
:10BF600039607B68002B0ED07B681B7D012B06D1CE
:10BF7000074B40F2DF720749074807F043FB7B6835
:10BF80003A68C3F8842000BF0837BD4680BD00BFB3
:10BF90005C5A0108F85F0108A05A010880B582B018
:10BFA00000AF786039607B68002B0ED07B681B7D0A
:10BFB000012B06D1074B40F2F3720749074807F0FF
:10BFC00021FB7B683A68C3F8802000BF0837BD4674
:10BFD00080BD00BF5C5A010820600108A05A01081A
:10BFE00080B582B000AF786039607B68002B0ED0DE
:10BFF0007B681B7D012B06D1074B40F60D020749DC
:10C00000074807F0FFFA7B683A68C3F8902000BF42
:10C010000837BD4680BD00BF5C5A01084860010872
:10C02000A05A010880B584B000AFF860B96013462B
:10C03000FB71FB68002B07D10E4B40F63D020E4909
:10C040000E4807F0DFFA11E0FB681B7D012B06D1DB
:10C05000084B40F63E020A49084807F0D3FAFB684D
:10C06000BA68C3F88C20FB68FA795A771037BD4656
:10C0700080BD00BF5C5A010870600108A05A010829
:10C080008860010880B582B000AF78607B68002BC3
:10C0900007D1214B40F651022049214807F0B2FA5E
:10C0A00037E07B681B7D002B33D07B681B7D0A2B20
:10C0B0002FD07B681B7D012B2BD07B689B6F002BC7
:10C0C00007D07B689B6F1846FEF76CF87B680022F0
:10C0D0009A677B685B6F002B02D0786800F086F966
:10C0E0007B684FF6FF721A867B68DB6E1846FFF797
:10C0F00011FD7B681B6F1846FFF70CFD7B68002263
:10C10000DA667B68DA6E7B681A677B680022A3F8C0
:10C1100068200837BD4680BD5C5A0108A860010848
:10C12000A05A010880B584B000AF786039603B68E0
:10C13000002B06D13E4B40F683023E493E4807F0B5
:10C1400061FA7B68002B06D1394B40F684023B49EB
:10C15000394807F057FA7B681B683A689A4205D15C
:10C160007B681B68DA687B681A6013E07B681B6871
:10C17000FB600CE0FB68DB683A689A4204D13B68DC
:10C18000DA68FB68DA6005E0FB68DB68FB60FB6887
:10C19000002BEFD13B680022DA603868FFF772FFAE
:10C1A0003B681B7D0A2B13D03B681B7D012B0FD0F6
:10C1B0003B685B8B03F00103002B09D03B685B8B72
:10C1C00043F002039AB23B685A83386803F0C6FB17
:10C1D0003B681B7D012B20D03B68DB6E002B06D01B
:10C1E000134B40F693021649134807F00BFA3B68CD
:10C1F0001B6F002B06D00E4B40F6940211490E48DF
:10C2000007F000FA3B685B6F002B06D0084B40F646
:10C2100096020D49084807F0F5F93B6800221A75A7
:10C220003B680022DA8200BF1037BD4680BD00BFE8
:10C230005C5A0108C4600108A05A0108E0600108C6
:10C2400000610108186101083461010880B582B0FD
:10C2500000AF78607B68002B06D10A4B40F6AF0236
:10C2600009490A4807F0CEF9094B1A68094B1B68BF
:10C270001344074A1360064B1B6818460837BD462F
:10C2800080BD00BF5C5A01084C610108A05A01083A
:10C29000280000209083002080B586B000AF0346C0
:10C2A000B9607A60FB817B68002B06D1144B40F6A5
:10C2B000C5021449144807F0A5F9BB68002B01D149
:10C2C000FB8919E0BB689B8CFB82FB8A002B12D098
:10C2D0002823BB82FA8ABB8A9A4204D9FA8ABB8A8B
:10C2E000D31A9BB200E000237B827A8AFB899342B7
:10C2F00028BF1346FB81FB8918461837BD4680BD11
:10C300005C5A010868610108A05A010880B584B030
:10C3100000AF786039603B68FB607B68002B19D107
:10C32000104B4FF410621049104807F06BF911E000
:10C33000FB681A687B681B689A4208D1FB68DB6857
:10C34000BB60F868FEF71AFDBB68FB6002E0FB68A3
:10C35000DB68FB60FB68002BEAD100BF00BF103731
:10C36000BD4680BD5C5A010890610108A05A0108D1
:10C3700080B584B000AF786039607B68002B2AD02C
:10C380007B681B68002B26D0154B1B681946786804
:10C39000FFF7BCFF134B1B6819467868FFF7B6FF21
:10C3A0003B68002B17D03B681B68002B13D00E4B4B
:10C3B0001B68FB600CE0FB681A687B681B689A428C
:10C3C00003D13B681A68FB681A60FB68DB68FB6096
:10C3D000FB68002BEFD100BF1037BD4680BD00BF0A
:10C3E0009C830020948300209883002080B582B035
:10C3F00000AF78607B685B6F002B07D07B685B6F5A
:10C400001846FFF787FB7B6800225A6700BF083792
:10C41000BD4680BD90B58DB004AF786039607B6853
:10C42000002B05D19B4B83229B499C4807F0EAF8DF
:10C430007B685B689A4A13607B685B89132B40F2C8
:10C44000D183984B5B69974A12681146184606F0EB
:10C45000A9F80346002B40F0C783924B5B6903F0B9
:10C46000F003E02B00F0C0838D4B1B689B899BB2CF
:10C470001846FCF711FB03461B0B9BB2DBB29B007B
:10C48000BB74BB7C132B40F2B183BB7C9AB27B683C
:10C490001B899A4200F2AA83BB7C9BB2143B9AB2DE
:10C4A000814B1A80814B00221A607B685A89BB7CC1
:10C4B0009BB29A4209D37C4B1A887D4B1A80BB7C75
:10C4C00019467868FDF7E8FD4EE07B681B68002B95
:10C4D00005D1704BC2227749704807F093F81421B8
:10C4E0007868FDF7D9FD7B685A89714B1A806E4BCD
:10C4F0001A886F4B1B88D31A3B826D4B1B881946D9
:10C500007868FDF7C9FD7B681B685B893A8A9A42A7
:10C5100000F26E837B681B685B68644A13607B680B
:10C520001B683A8A11461846FDF7B6FD7B681A89E2
:10C530003B8AD31A9AB27B681A817B685B89002B8D
:10C5400005D0544BDF225C49544807F05BF87B6808
:10C550001A897B681B681B899A4205D04D4BE022E3
:10C5600056494E4807F04EF84D4B1B681B889BB24E
:10C570004B4A14681846FCF78FFA03462380484B51
:10C580001B685B889BB2464A14681846FCF784FA1D
:10C5900003466380424B1B685B68414A1468184637
:10C5A000FCF78FFA034663606368454A13603C4BAF
:10C5B0001B689B683A4A14681846FCF782FA0346DF
:10C5C000A360A3683F4A1360354B1B68DB899BB2AD
:10C5D000334A14681846FCF75FFA0346E381304B90
:10C5E0001B689B899BB21846FCF756FA0346DBB2E0
:10C5F00003F03F03DAB2344B1A707B681A89334B6D
:10C600001A80314B1B7803F00303002B0CD02F4B07
:10C610001B8801339AB22D4B1A807B681A892B4BE9
:10C620001B889A4200F2E6820023BB61284B1B68FC
:10C63000FB619DE0FB691B7D002B05D1154BFB22A7
:10C640002449164806F0DEFFFB691B7D0A2B05D145
:10C65000104BFC222049114806F0D4FFFB691B7DDA
:10C66000012B05D10B4BFD221C490C4806F0CAFFDB
:10C67000FB691B7A002B33D0FB691A7A094B5B6884
:10C6800093F830300133DBB29A4229D0FB69BB61A9
:10C690006BE000BFC4610108F86101081062010885
:10C6A000B8830020204E0020BC830020C0830020DF
:10C6B000BE83002038620108486201085462010804
:10C6C000C8830020CC830020D4830020D2830020A4
:10C6D0009C830020746201089C620108C862010802
:10C6E000FB691A8B724B1B681B889BB29A423AD12A
:10C6F000FB69DA8A6E4B1B685B889BB29A4232D127
:10C70000FB695A686B4B1B699A422CD1FB691A680A
:10C71000684B5B699A4226D1FB69DB68FA699A42E9
:10C7200006D1654B40F20D126449654806F06AFF78
:10C73000BB69002B0AD0FB69DA68BB69DA60614B20
:10C740001A68FB69DA605F4AFB691360FB69DB68A2
:10C75000FA699A4211D1584B40F215125A49584879
:10C7600006F050FF09E0FB69BB61FB69DB68FB6118
:10C77000FB69002B7FF45EAF00E000BFFB69002B7C
:10C7800040F0AA80514B1B68FB613FE0FB691B7DB9
:10C790000A2B06D0484B40F21F124D49484806F07C
:10C7A00031FFFB691B7A002B09D0FB691A7A414BD8
:10C7B0005B6893F830300133DBB29A4222D1FB69D7
:10C7C0001A8B3B4B1B681B889BB29A421BD1FB699F
:10C7D000DA8A374B1B685B889BB29A4213D1FB699C
:10C7E0005A68344B1B699A420DD1FB691A68314B68
:10C7F0005B699A4207D1F86900F056FB7868FDF74B
:10C80000D1FCFDE100BFFB69DB68FB61FB69002B2C
:10C81000BCD10023BB612F4B1B687B612AE07B6985
:10C820001B7A002B0CD07B691A7A224B5B6893F839
:10C8300030300133DBB29A4202D07B69BB6116E033
:10C840007B69DA8A1A4B1B685B889BB29A420CD1CF
:10C850007B691A68174B5B699A420FD07B69002B82
:10C860000DD07B691B68002B09D07B69BB617B699C
:10C87000DB687B617B69002BD1D100E000BF7B6965
:10C88000002B29D0BB69002B0AD07B69DA68BB6911
:10C89000DA60104B1A687B69DA600E4A7B691360B4
:10C8A000786900F003FA7868FDF77CFCA8E100BF26
:10C8B000B8830020204E0020C4610108F062010806
:10C8C000106201089C8300201C630108A0830020E3
:10C8D0004863010898830020FB69002B00F0588111
:10C8E000954B00221A607B681A89934B1A81924AF1
:10C8F0007B685360914B1B688F4AD360904B00223A
:10C900001A60904B00221A708F4B00221A808F4BB6
:10C910001B7803F00803002B06D07B685B7B43F099
:10C920000103DAB27B685A73FB699B6F002B17D047
:10C93000F869FFF773F8034613F10D0F07D0FB6991
:10C940009B6F002B0CD0824B1B88002B08D0FB69FF
:10C950005B8D002B40F0E380F86903F005FEDEE01C
:10C960007C4AFB691360F86900F018FB0346FB740E
:10C9700097F9133013F10D0F00F0D380714B1B7832
:10C9800003F00803002B15D0FB69D3F89030002B7F
:10C9900008D0FB69D3F89030FA6912696FF00D0185
:10C9A00010469847F9696C48FFF7BCFBF869FDF73A
:10C9B000FDFEDAE00023FB74634B1B88002B1DD0C7
:10C9C000614B1B88FB81FB69D3F88030002B0AD0B8
:10C9D000FB69D3F88030FA691069FA89F9699847D8
:10C9E0000346FB7401E00023FB7497F9133013F145
:10C9F0000D0F00F09880544B00221A80F86900F067
:10CA000015F90346002B40F090804D4B1B68002B1E
:10CA100041D0FB699B6F002B06D0504B4FF4F37253
:10CA20004F49504806F0EEFDFB695B8B03F01003A5
:10CA3000002B08D0424B1B681846FDF7B3FBF86982
:10CA4000FEF79CF991E0FB69D3F88430002B0CD001
:10CA5000FB69D3F88440FB691869394B1A680023D5
:10CA6000F969A0470346FB7408E0354B1A680023B8
:10CA7000F9690020FFF7A8F80346FB7497F9133013
:10CA800013F10D0F53D097F91330002B03D02C4B1B
:10CA90001A68FB699A672B4B1B7803F02003002B65
:10CAA00030D0FB699B6F002B09D0FB699B6F5A7BD1
:10CAB000FB699B6F42F02002D2B25A7322E0FB69FD
:10CAC0001B8DB3F5066F05D0FB691B8D01339AB240
:10CAD000FB691A85FB69D3F88430002B0BD0FB6906
:10CAE000D3F88440FB69186900230022F969A04744
:10CAF0000346FB7401E00023FB7497F9133013F134
:10CB00000D0F16D0134B00221A60F86900F08EF852
:10CB10000346002B28D1F86902F020FF25E000BF72
:10CB200023E000BF21E000BF1FE000BF1DE000BF09
:10CB30001BE000BF19E000BFA8830020B8830020DD
:10CB4000D8830020D5830020D0830020D483002008
:10CB5000D2830020DC8300209C830020C461010874
:10CB6000786301081062010800BF274B00221A6099
:10CB7000264B00221A60264B5B68002B3FD0244BCB
:10CB80005B681846FDF70EFB214B00225A6036E029
:10CB9000204B1B689B899BB21846FBF77DFF034621
:10CBA000DBB203F00403002B18D11B4B19681B4B9D
:10CBB0001B881A461A4B1B68D018164B1B685B88DB
:10CBC0009BB2144A1268128892B202920193154BDA
:10CBD0000093154B0246002003F074FC7868FDF7C3
:10CBE000E1FA0CE000BF06E000BF04E000BF02E095
:10CBF00000BF00E000BF7868FDF7D4FA00E000BF96
:10CC00002437BD4690BD00BFDC830020D8830020C0
:10CC1000A8830020B8830020CC830020D28300208A
:10CC2000C8830020304E0020344E002080B582B0F2
:10CC300000AF78607B68002B06D1174B40F25A2278
:10CC40001649174806F0DEFC164B1B7803F010035C
:10CC5000002B1CD07B685B8B03F01003002B0DD1E5
:10CC60007B68D3F89030002B08D07B68D3F89030E5
:10CC70007A6812696FF00E011046984779680A4881
:10CC8000FFF750FA7868FDF791FD012300E00023DB
:10CC900018460837BD4680BDC46101089463010889
:10CCA00010620108D58300209C83002090B58BB0D2
:10CCB00004AF78606F4B1B7803F00403002B40F047
:10CCC000D2807B68002B06D16B4B40F281226B49EE
:10CCD0006B4806F097FC674B1B7803F01003002BA2
:10CCE00019D0684B1968684B1B881A46674B1B683C
:10CCF000D018674B1B685B889BB2654A1268128824
:10CD000092B202920193634B0093634B02467868A0
:10CD100003F0D8FBA9E0574B1B7803F00203002B6C
:10CD200000F0A3807B685B7D1846FFF771F878619F
:10CD30007B69002B11D17B689B69002B0AD07B6833
:10CD40009B697A6810694FF0FF32002198470346CB
:10CD5000BB738BE0F023BB7388E0504B5A697B694F
:10CD60001A604E4B1A697B695A607B68DA8A7B6964
:10CD7000DA82474B1B681B889AB27B691A837B69EE
:10CD800003221A75414B1B685A1C7B695A627B69E6
:10CD90005A6A7B69DA627869FFF758FA38617B6909
:10CDA0003A699A657B693A691A657B693A695A6496
:10CDB0007B693A69DA65354B1B685A1E7B695A658F
:10CDC0007B681A697B691A617B697A68DA677B68B4
:10CDD0005B7A03F00C03DAB27B695A727B681A7AC9
:10CDE0007B691A722E4B1A687B69DA602C4A7B6960
:10CDF000136003F029FD2B4B01221A70786901F0B2
:10CE00008FFD234B1B68DB899AB27B69A3F86020F6
:10CE10007B69B3F860207B69A3F862207B695C8E34
:10CE20007B690433184605F027F901467B69043312
:10CE30001A462046FFF730FA03461A467B695A869F
:10CE40001221786902F09CFC0346FB7397F90F30BE
:10CE5000002B04D000217869FDF7D2FE06E0786946
:10CE600002F07CFD01E000BF00E000BF1C37BD46C2
:10CE700090BD00BFD4830020C4610108BC630108D9
:10CE800010620108CC830020D2830020C8830020D8
:10CE9000B8830020304E0020344E0020204E002069
:10CEA0009C830020A483002080B586B004AF786006
:10CEB0002F4B1B7803F00403002B53D17B68002B0E
:10CEC00006D12C4B40F2EE222B492C4806F09AFB5F
:10CED000274B1B7803F00203002B2AD0284B1A683B
:10CEE0007B685B6AD31A002B2DDB254B1A687B68A5
:10CEF0005B6A7968098D0B44D31A002B23DC214B24
:10CF00001968214B1B881A461D4B1B68D0181F4BF4
:10CF10001B685B889BB21D4A1268128892B202920B
:10CF200001931B4B00931B4B0246786803F0CAFA2F
:10CF30001BE00F4B1B7803F00103002B03D0164BB3
:10CF40001A687B681A62104B1B88002B0CD07B6818
:10CF50005B8B43F002039AB27B685A83786802F0D5
:10CF6000FDFC01E000BF00E000BF0837BD4680BD0A
:10CF7000D4830020C4610108DC6301081062010849
:10CF8000C8830020CC830020D2830020B8830020F7
:10CF9000304E0020344E00209083002090B58DB09C
:10CFA00004AF78600023FB760023BB767B68002B00
:10CFB00006D19D4B4FF447729C499D4806F022FBD9
:10CFC0009C4B1B7803F00403002B4ED07B681B7D29
:10CFD000022B08D17B681A6D974B1B689A4223D1AC
:10CFE0000123FB7620E07B685A6A944B1B689A42C7
:10CFF00002D10123FB7617E0904B1A687B685B6ACD
:10D00000D31A002B10DB8D4B1A687B685B6A79683A
:10D01000098D0B44D31A002B06DC7B685B8B43F035
:10D0200002039AB27B685A83FB7E002B1BD07B687D
:10D030001B7D002B06D17C4B4FF44E7280497C48FF
:10D0400006F0E0FA7F4B1B7843F00803DAB27D4B21
:10D050001A707B685B8B23F001039AB27B685A835A
:10D060006FF00D037AE3002378E3724B1B7803F033
:10D070000203002B10D07B681B7D022B0CD07B6839
:10D080001B7D032B08D07B685B8B43F002039AB2B5
:10D090007B685A83002361E37B685B8B03F010039A
:10D0A000002B03D1684B1A687B681A627B680022E8
:10D0B00083F89B207B68002283F89A20786801F02F
:10D0C0002FFC7B681B7D023B072B00F2378301A2FC
:10D0D00052F823F0F5D0000825D300089DD40008AD
:10D0E000C7D40008EBD500089DD4000877D6000807
:10D0F00007D700084F4B1B7803F01003002B00F0FC
:10D10000E4804C4B1B7803F00203002B00F0DD8021
:10D110007B685B6C5A1C484B1B689A4240F0D58078
:10D12000464B1B685A1C7B685A627B685A6A7B684C
:10D13000DA62414B1A687B685A64444B1B68DB898E
:10D140009AB27B68A3F860207B68B3F860207B68A4
:10D15000A3F86220394B1B685A1E7B685A657B68AE
:10D1600004221A757B685C8E7B680433184604F0D1
:10D1700083FF01467B6804331A462046FFF78CF88C
:10D1800003461A467B685A867B685B8E9A007B68EA
:10D190005B8E5B0041F21C118B4238BF0B469A42FA
:10D1A00004D27B685B8E9B009BB20DE07B685B8E3C
:10D1B0005B0041F21C12934204D97B685B8E5B00DA
:10D1C0009BB201E041F21C137A68A2F848307B68F8
:10D1D000B3F86630002B06D1134B4FF45B721C4939
:10D1E000134806F00FFA7B68B3F86630013B9AB239
:10D1F0007B68A3F866207B681B6FFB61FB69002BD3
:10D200002AD17B68DB6EFB61FB69002B06D1064BE4
:10D210004FF45D720F49064806F0F4F9FB691A688D
:10D220007B68DA661CE000BFC4610108FC6301088A
:10D2300010620108D4830020CC830020C883002022
:10D2400018640108D583002090830020B883002053
:10D250003864010850640108FB691A687B681A6722
:10D26000F869FEF76CFC7B681B6F002B04D17B68B0
:10D270004FF6FF721A8606E07B6800221A867B68EA
:10D28000002283F842207B68D3F88830002B0AD034
:10D290007B68D3F888307A681069002279689847EB
:10D2A0000346BB7601E00023BB7697F91A3013F1F1
:10D2B0000D0F02D16FF00C0350E27B685B8B43F0E3
:10D2C00002039AB27B685A833AE2984B1B7803F0C8
:10D2D0001003002B00F03482954B1968954B1B8886
:10D2E0001A46954B1B68D018944B1B685B889BB201
:10D2F000924A1268128892B202920193904B009364
:10D30000904B0246786803F0DDF87B6893F8423072
:10D31000052B00F215827B6800221A86786802F0DD
:10D32000A7FE0DE2814B1B7803F01003002B00F0E9
:10D33000A1807F4B1A687B685B6CD31A013B002B82
:10D340007EDB7B4B1A687B681B6DD31A002B77DC66
:10D350007B6804221A757B68DB6F002B02D1FA23ED
:10D36000BB761DE07B68DB6F9B69002B06D1764B9B
:10D370004FF46A727549764806F044F97B68DB6FB2
:10D380009B69002B0AD07B68DB6F9B697A68106908
:10D390000022796898470346BB7601E0F023BB760C
:10D3A00097F91A30002B0AD097F91A3013F10D0FA4
:10D3B00002D07868FDF7E2FC6FF00C03CEE17868EC
:10D3C00000F0E0FA634B1B88002B05D0614B1B88F3
:10D3D000013B9AB25F4B1A807B685B8E9A007B6838
:10D3E0005B8E5B0041F21C118B4238BF0B469A42A8
:10D3F00004D27B685B8E9B009BB20DE07B685B8EEA
:10D400005B0041F21C12934204D97B685B8E5B0087
:10D410009BB201E041F21C137A68A2F848304E4BEF
:10D420001B7803F02003002B37D07B685B8B43F025
:10D4300002039AB27B685A837B6807221A752CE034
:10D440003B4B19683B4B1B881A463B4B1B68D0185B
:10D450003A4B1B685B889BB2384A1268128892B2BA
:10D4600002920193364B0093364B0246786803F0E4
:10D4700029F867E12D4B1B7803F00203002B00F025
:10D4800061817B685B6A5A1E2B4B1B689A4240F095
:10D490005981786802F00EFE54E153E1786800F09B
:10D4A00071FA2D4B1B7803F02003002B00F04C8108
:10D4B0007B685B8B43F002039AB27B685A837B687C
:10D4C00007221A7540E1786800F05CFA224B1B785D
:10D4D00003F02003002B71D0144B1B7803F01003D2
:10D4E000002B60D07B681A6D114B1B689A425AD191
:10D4F0007B68DB6E002B56D17B685B8B43F00203AD
:10D500009AB27B685A837868FEF7BCFD134B1B68A0
:10D510007A689A4205D1114B1B68DB680F4A136089
:10D520002EE00E4B1B687B6127E000BFD4830020F8
:10D53000CC830020D2830020C8830020B883002041
:10D54000304E0020344E0020C4610108646401089C
:10D5500010620108D0830020D58300209C83002026
:10D560007B69DB687A689A4204D17B68DA687B69F8
:10D57000DA6005E07B69DB687B617B69002BEFD1BA
:10D580007B680022DA60774B01221A707B680A22DE
:10D590001A75754B1A687B68DA60734A7B6813608A
:10D5A00003F052F9D2E07B685B8B43F002039AB23E
:10D5B0007B685A837B6808221A75C7E06B4B1B781F
:10D5C00003F01003002B00F0C1807B681A6D684BDC
:10D5D0001B689A4240F0BA807B68DB6E002B40F0FB
:10D5E000B5807B6806221A75B0E0786800F0CAF949
:10D5F000604B1B7803F02003002B00F0A9807B68B0
:10D600005B8B43F002039AB27B685A837868FEF71B
:10D6100039FD594B1B687A689A4205D1564B1B68F5
:10D62000DB68554A136013E0534B1B683B610CE009
:10D630003B69DB687A689A4204D17B68DA683B69A7
:10D64000DA6005E03B69DB683B613B69002BEFD1A9
:10D650007B680022DA60434B01221A707B680A2241
:10D660001A75414B1A687B68DA603F4A7B68136021
:10D6700003F0EAF86CE0786800F084F93B4B1B7823
:10D6800003F01003002B65D07B681A6D384B1B68C4
:10D690009A425FD17B68DB6E002B5BD17868FEF726
:10D6A000F1FC354B1B687A689A4205D1324B1B68F6
:10D6B000DB68314A136013E02F4B1B68FB600CE002
:10D6C000FB68DB687A689A4204D17B68DA68FB6899
:10D6D000DA6005E0FB68DB68FB60FB68002BEFD1DC
:10D6E0007B680022DA601F4B01221A707B680A22D5
:10D6F0001A751D4B1A687B68DA601B4A7B681360D9
:10D7000003F0A2F826E0786800F03CF9174B1B788C
:10D7100003F01003002B1FD07B681A6D144B1B689D
:10D720009A4219D17B68DB6E002B15D1114B1B7807
:10D7300043F01003DAB20F4B1A700DE000BF0CE09B
:10D7400000BF0AE000BF08E000BF06E000BF04E041
:10D7500000BF02E000BF00E000BF002318462437EE
:10D76000BD4690BDA4830020A0830020D483002068
:10D77000CC830020D58300209C83002090B585B009
:10D7800000AF786039607B68002B06D13B4B40F2DC
:10D790001F423B493B4805F035FF7B68DB689B89AE
:10D7A0009BB21846FBF778F90346DBB203F001039E
:10D7B000002B28D03868FEF7ADF900233B6056E017
:10D7C0003B68DB689B899BB21846FBF765F903460B
:10D7D000DBB203F00103002B0DD07B68DB689B8973
:10D7E0009CB20120FBF758F903461A467B68DB68B8
:10D7F000224392B29A813B68FB603B681B683B60A6
:10D80000F868FEF79CF93B68002B0ED07B681B89FB
:10D810001A461D4B1B681A443B68DB685B68396815
:10D8200009890B44D31A002BCADA3B68002B1ED09F
:10D830007B681B891A46144B1B681A443B68DB68DB
:10D840005B68D31A002B12DD3B68DB685B689AB219
:10D850000D4B1B689BB2D31A9AB27B681A817B6806
:10D860005A687B681B8919461046FCF715FB7B68D4
:10D870003A681A6000BF1437BD4690BDC461010804
:10D880008464010810620108C8830020B0B586B026
:10D8900000AFF860B9607A603B603EE0BB687B61D6
:10D8A000BB681B68BB607B695B681846FCF702FDC0
:10D8B00003467B82FB68B3F866307A8A9A4206D9BF
:10D8C0002A4B40F257422A492A4805F09BFEFB6842
:10D8D000B3F866207B8AD31A9AB2FB68A3F8662055
:10D8E0007B691A89244B1B8813449AB2224B1A80F5
:10D8F0007869FEF724F9FB68B3F86630002B0CD08A
:10D90000BB68002B09D13B68002B06D1174B40F2B6
:10D9100061421A49174805F075FEBB68002B20D0FC
:10D92000BB68DB685B681846FBF7CBF80446BB684E
:10D930001B891D46BB68DB689B899BB21846FBF7B9
:10D94000ABF80346DBB203F00303002B01D0012345
:10D9500000E000232B44E218094B1B68D31A002B6C
:10D960009CDDBB6818461837BD46B0BDC4610108D0
:10D97000AC64010810620108D0830020D46401085F
:10D98000CC830020B0B594B000AF78600023BB64B6
:10D990007B68002B06D1914B40F27B429049914825
:10D9A00005F030FE7B681B7D032B06D88B4B40F2C5
:10D9B0007C428D498B4805F025FE8C4B1B7803F08B
:10D9C0001003002B00F064827B68B3F860301A46C5
:10D9D0007B689B6D13443B637B685A6D844B1B686B
:10D9E000D31A002B1BDB7B685A6D814B1B689A4254
:10D9F00006D17B689A6D7F4B1B68D31A002B0EDB18
:10DA00007B689A6D7B4B1B689A4225D17A4B1B68C9
:10DA1000DB899AB27B68B3F860309A421CD9764BA6
:10DA20001B68DB899AB27B68A3F860207B68B3F837
:10DA300062207B68B3F860309A4205D27B68B3F805
:10DA400060207B68A3F86220694B1A687B685A657E
:10DA5000684B1A687B689A65664B1A687B685B6CD2
:10DA6000D31A002B58DC654B1B88002B4BD17B68ED
:10DA70009B6D7A68B2F8602013443A6B9A4242D1A7
:10DA80007B68B3F93030002B3DDB7B685A6C594B17
:10DA90001B689A4237D10123BB647B6893F84330FB
:10DAA000FF2B07D07B6893F843300133DAB27B68F1
:10DAB00083F843207B6893F84330032B1BD97B68A2
:10DAC000B3F848207B685B8E13449AB27B68B3F846
:10DAD00048309A420AD37B68B3F848207B685B8E53
:10DAE00013449AB27B68A3F8482004E07B684FF6A1
:10DAF000FF72A3F848207B6893F84330022B02D9C9
:10DB0000786802F043FBBB6C002B40F061817B68BE
:10DB1000002283F843205BE1364B1A687B685B6C1C
:10DB2000D31A013B002BC0F24E81324B1A687B683E
:10DB30001B6DD31A002B00F346817B685B8B03F0CF
:10DB40000403002B10D07B685B8B23F004039AB294
:10DB50007B685A837B68B3F84A207B68A3F8482027
:10DB60007B680022A3F86A207B68002283F84220A9
:10DB70007B68B3F93C30DB101BB29AB27B68B3F917
:10DB80003E309BB213449BB21AB27B68A3F840208C
:10DB9000184B1B689AB27B685B6C9BB2D31AFB85EF
:10DBA0007B68002283F84320124B1A687B685A6412
:10DBB0007B681B7D032B40F297807B68B3F848207D
:10DBC0007B68B3F84A309A4245D27B685B8B03F49A
:10DBD0000063002B14D0012313E000BFC4610108CF
:10DBE000F46401081062010810650108D483002064
:10DBF000C8830020CC830020B8830020D28300207B
:10DC0000022387F82D3097F82D309AB27B685B8E0F
:10DC100012FB03F39BB2FA8D934228BF13467B8518
:10DC20007B68B3F848207B8D13449AB27B68B3F8C5
:10DC300048309A4209D37B68B3F848207B8D13445F
:10DC40009AB27B68A3F848204EE07B684FF6FF72DB
:10DC5000A3F8482048E07B68B3F86A20FB8D1344A2
:10DC60009AB27B68B3F86A309A4209D37B68B3F8FA
:10DC70006A20FB8D13449AB27B68A3F86A2004E003
:10DC80007B684FF6FF72A3F86A207B68B3F86A20BE
:10DC90007B68B3F848309A4226D37B68B3F86A2091
:10DCA0007B68B3F84830D31A9AB27B68A3F86A202D
:10DCB0007B68B3F848207B685B8E13449AB27B681C
:10DCC000B3F848309A420AD37B68B3F848207B689F
:10DCD0005B8E13449AB27B68A3F8482004E07B680B
:10DCE0004FF6FF72A3F848207B68196F7B68DB6EE4
:10DCF000984A7868FFF7CAFD02467B681A677B6816
:10DD0000D96E7B681B6F944A7868FFF7BFFD0246A7
:10DD10007B68DA667B681B6F002B04D17B684FF64B
:10DD2000FF721A8602E07B6800221A867B68002256
:10DD30001A777B68DB6E002B03D17B680022A3F887
:10DD400068207B68B3F86420844B1B8813449AB224
:10DD50007B68A3F864207B685B8B03F40063002B73
:10DD600035D07B681B6F002B18D17B68DB6E002BD6
:10DD70000CD07B68DC6C7B68DB6EDB685B6818460C
:10DD8000FAF79FFE0346E31A002B20DC7B685B8BCF
:10DD900023F400639AB27B685A8318E07B68DC6CDA
:10DDA0007B681B6FDB685B681846FAF78AFE0346E0
:10DDB000E31A002B0BDC7B685B8B23F400639AB2C5
:10DDC0007B685A8303E0786802F0CEFB00E000BF76
:10DDD0007B685B6B002B5BD07B689A6B604B1B682E
:10DDE000D31A002B54DA5F4B1B689AB27B685B6BCB
:10DDF0009BB2D31A9BB2A7F84E30B7F84E207B687F
:10DE0000B3F93C30DB101BB29BB2D31A9BB2A7F81C
:10DE10004E307B68B3F93C309AB2B7F84E301344B9
:10DE20009BB21AB27B689A87B7F94E30002B05DA9D
:10DE3000B7F84E305B429BB2A7F84E30B7F84E2091
:10DE40007B68B3F93E309B101BB29BB2D31A9BB2D6
:10DE5000A7F84E307B68B3F93E309AB2B7F84E302F
:10DE600013449BB21AB27B68DA877B68B3F93C3003
:10DE7000DB101BB29AB27B68B3F93E309BB21344FD
:10DE80009BB21AB27B68A3F840207B6800225A63D9
:10DE9000354B1B88002B00F0E2847B681B7D062B32
:10DEA00000F2DD847B685A6A304B1B68D31A013B51
:10DEB000002BC0F28F807B685A6A2B4B1B88194657
:10DEC0002A4B1B680B44D31A0133002B00F38280CA
:10DED000274B5B687B647B685A6A244B1B68D31AA8
:10DEE0007B62234B5B68002B06D1224B40F294529D
:10DEF0002149224805F086FB7B6A4FF6FE72934269
:10DF000006D91C4B40F295521D491C4805F07AFB7E
:10DF10007B6AA7F84230164B5B681B89B7F8422032
:10DF20009A4206D9134B40F297521649134805F00E
:10DF300069FB0F4B1A89B7F84230D31A9AB20C4BCF
:10DF40001A810B4B5B681A89B7F84230D31A7B846D
:10DF50002AE000BF2C65010834650108D083002049
:10DF6000CC83002090830020D2830020C88300202F
:10DF7000A8830020C46101083C6501081062010803
:10DF80004C6501085C6501087B6C5B89B7F8422031
:10DF9000D31AA7F842307B6C7A8C1A817B6C0022F2
:10DFA0005A817B6C1B687B647B6C5B89B7F8422071
:10DFB0009A42E9D8B7F842301946786CFCF76CF809
:10DFC0007B685B6A914A1360914BDB688F4A1268E9
:10DFD0005A600DE08D4B1A687B685B6AD31A002B80
:10DFE00006DA7B685B8B43F002039AB27B685A8344
:10DFF000864B1A687B685B6AD31A002BC0F22A84AE
:10E00000824B1A687B685B6A7968098D0B44D31A66
:10E010000133002B00F31E847B685A6A7B4B1B681C
:10E020009A4240F09A827A4B1C89794BDB689B8933
:10E030009BB21846FAF730FD0346DBB203F0030348
:10E04000002B01D0012300E0002323449AB2714B3E
:10E050001A807B681A8D6F4B1B889A4275D26C4B65
:10E06000DB689B899BB21846FAF716FD0346DBB2C4
:10E0700003F00103002B1FD0654BDB689B899BB22B
:10E080001BB223F47C531CB2614BDB689B899BB2AF
:10E090001846FAF701FD0346DBB29BB203F03E03DC
:10E0A0009BB21846FAF7F8FC03461BB223431AB298
:10E0B000574BDB6892B29A817B681A8D544B1A8158
:10E0C000534BDB689B899BB21846FAF7E5FC034685
:10E0D000DBB203F00203002B05D04D4B1B89013B43
:10E0E0009AB24B4B1A814A4B5B68494A12891146D6
:10E0F0001846FBF7D1FE464B1C89454BDB689B89D4
:10E100009BB21846FAF7C8FC0346DBB203F00303E0
:10E11000002B01D0012300E0002323449AB23D4BA1
:10E120001A803C4B1B881A46384B1B681A447B6884
:10E130005B6A7968098D0B449A4206D0364B40F2EF
:10E14000CB523649364805F05DFA7B685B6F002B91
:10E1500000F0E7802E4BDB689B899BB21846FAF7EC
:10E160009BFC0346DBB203F00103002B10D00AE056
:10E170007B685B6FFB607B685B6F1A687B685A67C4
:10E18000F868FDF7DCFC7B685B6F002BF0D1C8E022
:10E190007B685B6FFB6352E0FB6BDB689B899BB228
:10E1A0001846FAF779FC0346DBB203F00103002BB3
:10E1B0003DD0174BDB689B899BB21846FAF76CFC85
:10E1C0000346DBB203F00203002B30D1104BDB68B7
:10E1D0009B899CB20120FAF75FFC03461A460C4B60
:10E1E000DB68224392B29A81094B1C89084BDB6899
:10E1F0009B899BB21846FAF74FFC0346DBB203F04B
:10E200000303002B0ED001230DE000BFC8830020C4
:10E21000A8830020D2830020C46101086C65010836
:10E2200010620108002323449AB2984B1A80FB6BBA
:10E230003B61FB6B1B68FB633869FDF780FCFB6B84
:10E24000002B0ED0914B1B881A46914B1B681A4429
:10E25000FB6BDB685B68F96B09890B44D31A002BF5
:10E260009ADAFB6B002B59D0884B1B881A46884BD7
:10E270001B681A44FB6BDB685B68D31A002B4DDD0F
:10E28000FB6BDB685B689AB2814B1B689BB2D31A4D
:10E290009AB2804B1A817F4BDB689B899BB21846F0
:10E2A000FAF7FAFB0346DBB203F00203002B05D0BA
:10E2B000784B1B89013B9AB2764B1A81754B5B6890
:10E2C000744A128911461846FBF7E6FD714B1C890A
:10E2D000704BDB689B899BB21846FAF7DDFB03465F
:10E2E000DBB203F00303002B01D0012300E0002385
:10E2F00023449AB2654B1A80644B1B881A46644BC0
:10E300001B681A44FB6BDB685B689A4206D0624B61
:10E3100040F2FC526149624805F074F97B68FA6B7F
:10E320005A675A4B1B881A46594B1B681A447B681C
:10E330005A627B681A8D554B1B889A4206D2564BFF
:10E3400040F207625749564805F05CF97B681A8D20
:10E350004E4B1B88D31A9AB27B681A857868FCF7F3
:10E36000B1FD4C4B5B681B89002B06D0494B5B68A9
:10E370004D4A1360474B00225A60464BDB689B892D
:10E380009BB21846FAF788FB0346DBB203F00103A1
:10E39000002B00F0B880454B1B7843F02003DAB225
:10E3A000424B1A70AFE07B685B6FBB607B685B6F52
:10E3B000DB685B68364A1360BB681B891C46BB6818
:10E3C000DB689B899BB21846FAF766FB0346DBB213
:10E3D00003F00303002B01D0012300E000231A19EE
:10E3E0007B685B6A1A447B685A627B681B8D1C469B
:10E3F000BB681B891D46BB68DB689B899BB21846BE
:10E40000FAF74AFB0346DBB203F00303002B01D00B
:10E41000012300E000232B449C4206D21E4B40F215
:10E420002B6223491E4805F0EDF8BB681B891C468A
:10E43000BB68DB689B899BB21846FAF72DFB034645
:10E44000DBB203F00303002B01D0012300E0002323
:10E4500019197B681A8D8BB2D31A9AB27B681A8508
:10E460007868FCF72FFDBB685B681B89002B28D000
:10E470000D4B1B68002B1DD00B4B1A68BB685B68EB
:10E4800019461046FBF750FF18E000BFD28300206A
:10E49000C8830020A8830020C4610108A465010886
:10E4A00010620108E0650108D8830020D5830020B0
:10E4B00000660108BB685B68704A1360BB68002295
:10E4C0005A60BB68DB689B899BB21846FAF7E4FA8E
:10E4D0000346DBB203F00103002B0DD0684B1B7821
:10E4E00043F02003DAB2664B1A707B681B7D042B65
:10E4F00002D17B6807221A75BB681A687B685A6765
:10E50000B868FDF71CFB7B685B6F002B08D07B684D
:10E510005B6FDB685A687B685B6A9A423FF443AF83
:10E520007B685B8B03F00103002B0ED07B685B8B59
:10E5300023F001039AB27B685A837B685B8B43F0BC
:10E5400002039AB27B685A8388E17B685B8B43F055
:10E5500001039AB27B685A8380E17B685B6F002B72
:10E5600006D14848FDF704FB02467B685A676DE117
:10E5700000237B637B685B6FBB6357E1BB6BDB682E
:10E580005A68414B1B689A421DD13E4B1A89BB6B9E
:10E590001B899A4240F24F813A48FDF7E9FA7861C7
:10E5A0007B69002B00F049817B6B002B03D07B6BD8
:10E5B0007A691A6002E07B687A695A67B96B786990
:10E5C000FFF7DCF839E17B6B002B17D12E4B1A6873
:10E5D000BB6BDB685B68D31A002B57DA2948FDF761
:10E5E000C7FAB861BB69002B00F029817B68BA6962
:10E5F0005A67B96BB869FFF7C1F820E1224B1A6876
:10E600007B6BDB685B68D31A013B002B3EDB1E4B48
:10E610001A68BB6BDB685B68D31A0133002B35DCEF
:10E620001848FDF7A5FAF861FB69002B00F0098195
:10E630007B6BDB685B687A6B12891A44124B1B6830
:10E64000D31A002B12DD104B1B689AB27B6BDB6870
:10E650005B689BB2D31A9AB27B6B1A817B6B5A6848
:10E660007B6B1B8919461046FBF716FC7B6BFA691E
:10E670001A60B96BF869FFF781F8E2E0D8830020EF
:10E68000D5830020A8830020C8830020BB6B7B6358
:10E69000BB6B1B68002B40F0C680804B1A68BB6BBD
:10E6A000DB685B68D31A002B40F3BD80BB6BDB6873
:10E6B0009B899BB21846FAF7EFF90346DBB203F0E9
:10E6C0000103002B40F0BF807548FDF751FA024668
:10E6D000BB6B1A60BB6B1B68002B00F0B680BB6B7A
:10E6E000DB685B68BA6B12891A446C4B1B68D31ADF
:10E6F000002B12DD694B1B689AB2BB6BDB685B6851
:10E700009BB2D31A9AB2BB6B1A81BB6B5A68BB6BB4
:10E710001B8919461046FBF7BFFB624B1B881A4644
:10E720005E4B1B681A447B685B6A7968098D0B44F1
:10E73000D31A002B40F38980BB6B1B68DB689B8975
:10E740009BB21846FAF7A8F90346DBB203F00103BF
:10E75000002B22D0BB6B1B68DB689B899BB21BB272
:10E7600023F47C531CB2BB6B1B68DB689B899BB298
:10E770001846FAF791F90346DBB29BB203F03E0369
:10E780009BB21846FAF788F903461BB223431AB224
:10E79000BB6B1B68DB6892B29A817B685B6A9AB23A
:10E7A0007B681B8D134499B23C4B1B689AB2BB6BC0
:10E7B0001B688A1A92B21A81BB6B1B685A68BB6BC2
:10E7C0001B681B8919461046FBF766FBBB6B1B6871
:10E7D0001C89BB6B1B68DB689B899BB21846FAF7E8
:10E7E0005BF90346DBB203F00303002B01D00123E6
:10E7F00000E0002323449AB22A4B1A80294B1B883D
:10E800001A46264B1B681A447B685B6A7968098D37
:10E810000B449A4219D0244B4FF4DF622349244819
:10E8200004F0F0FE11E0BB6B1B68BB63BB6B002BFD
:10E830007FF4A4AE0AE000BF08E000BF06E000BF1E
:10E8400004E000BF02E000BF00E000BF786801F014
:10E850008BFE03E0786801F087FE1AE019E00F4BA9
:10E860001A687B685B6AD31A002B0ADB0B4B1A68A9
:10E870007B685B6A7968098D0B44D31A0133002BDE
:10E8800007DD7B685B8B43F002039AB27B685A8397
:10E89000FFE700BF5037BD46B0BD00BFC8830020B2
:10E8A000A8830020D2830020C46101086C650108A0
:10E8B0001062010880B483B000AF154B1B885A1C4E
:10E8C00091B2134A1180FB80124B1B68002B04D0BD
:10E8D000114B1B88FA889A4208D2104B1B681433DC
:10E8E0003B60FB883A6813441B780BE0FB88DAB284
:10E8F000094B1B88DBB2D31A7B71064B1A687B79F4
:10E9000013441B7818460C37BD465DF8047B7047EE
:10E91000C4830020C0830020BE830020B883002071
:10E9200080B584B000AF78607B68002B06D1324B95
:10E9300040F27D723149324804F064FE314B1B884D
:10E94000002B55D0304B00221A8045E0FFF7B2FF74
:10E950000346FB73FB7B022B06D0022B2BDC002B28
:10E9600041D0012B27D137E0FFF7A4FF0346042B4A
:10E970003BD1254B1B880133224A1288934234DA5B
:10E98000FFF798FF03469BB21B02BB81FFF792FF84
:10E9900003469AB2BB891343BB81BB89B3F5067F9B
:10E9A00004D8BB89002B01D0BA8901E04FF406726C
:10E9B0007B685A8610E0FFF77DFF0346FB72FB7A07
:10E9C000012B14D9FB7A9AB20F4B1B8813449BB2CC
:10E9D000023B9AB20C4B1A800B4B1A88094B1B88CE
:10E9E0009A42B3D304E000BF02E000BF00E000BFE2
:10E9F0001037BD4680BD00BFC4610108286601080C
:10EA000010620108BC830020C483002080B400AFE2
:10EA1000054B1B7843F01003DAB2034B1A7000BFAA
:10EA2000BD465DF8047B7047D583002080B584B077
:10EA300000AFF860B9607A60FB68002B0AD0FB6811
:10EA40001B7A002B06D0FB681B7A1846FBF74AF8A6
:10EA5000034603E0786803F00FFB034618461037BF
:10EA6000BD4680BD90B587B000AFF860B9603B602F
:10EA70001346FB71FB68002B05D1444BA32244498C
:10EA8000444804F0BFFDBB68002B05D13F4BA422D6
:10EA90004149404804F0B6FD97F828309B00DBB2AE
:10EAA00003F00403FB750320FAF796FC38613B6919
:10EAB000002B04D1B868FBF775FB002361E03B69CC
:10EAC00097F828209A723B6900221A603B69BA685D
:10EAD0005A60BB681A89FB7D9BB29A4205D22B4BC8
:10EAE000B0222E492B4804F08DFDBB681A89FB7DAE
:10EAF0009BB2D31A9AB23B691A811421B868FBF70A
:10EB0000BBFA0346002B04D03869FDF718F8002340
:10EB100037E03B695B685A683B69DA60FB68DA8A10
:10EB20003B69DC681046F9F7B7FF03462380FB68B2
:10EB30001A8B3B69DC681046F9F7AEFF0346638029
:10EB40003B69DC683868F9F7BCFF03466360FB7D0E
:10EB50009B08DBB29BB205339BB21B039AB2FB79D5
:10EB60009BB213439AB23B69DC681046F9F794FFF5
:10EB70000346A3813B69DB6800229A740022DA74A1
:10EB80003B6918461C37BD4690BD00BF446601086E
:10EB90007866010898660108C0660108E466010805
:10EBA00080B586B000AF7B600346FB730B46BB812C
:10EBB00013467B81BB89FB827B68002B05D1304BE0
:10EBC000E8223049304804F01DFD3B6A002B05D196
:10EBD0002B4BE9222D492C4804F014FDBA897B897E
:10EBE0009A4221D297F8243003F00203002B11D16E
:10EBF0003B6A5B8B03F04003002B15D197F828305C
:10EC0000002B07D03B6ADB6E002B03D13B6A1B6FE6
:10EC1000002B09D0BB8903F21B2323F003027B895D
:10EC2000934228BF1346FB82F98AFB7B4FF4207284
:10EC30001846FAF7D3FF38613B69002B01D1002356
:10EC400019E03B691B68002B06D00D4B40F20B12FC
:10EC50000F490D4804F0D6FC3B695A89BB89D31A89
:10EC60009AB27B681A803B69BA891A813B691A8912
:10EC70003B695A813B6918461837BD4680BD00BFC5
:10EC800044660108FC6601089866010820670108CF
:10EC90004067010880B582B000AF78600B467B808A
:10ECA0007B68002B06D1334B40F233123249334894
:10ECB00004F0A8FC7B681B7D042B0ED07B681B7DB9
:10ECC000072B0AD07B681B7D022B06D07B681B7D3F
:10ECD000032B02D06FF00A0348E07B88002B01D1A0
:10ECE000002343E07B68B3F864307A889A4209D9FC
:10ECF0007B685B8B43F080039AB27B685A834FF04A
:10ED0000FF3333E07B68B3F86630082B09D97B68A2
:10ED10005B8B43F080039AB27B685A834FF0FF33DA
:10ED200024E07B68B3F86630002B0FD07B681B6F44
:10ED3000002B1AD17B68DB6E002B16D10D4B40F2F5
:10ED400055120F490D4804F05DFC0EE07B681B6F07
:10ED5000002B03D17B68DB6E002B06D0054B4FF4F4
:10ED6000AC720849054804F04DFC002318460837EA
:10ED7000BD4680BD446601085467010898660108D5
:10ED800074670108B067010890B59BB004AFF860E4
:10ED9000B96011461A460B46FB8013467B7100236F
:10EDA0007B6500233B650023FB640023BB640023D9
:10EDB0007B640023A7F84230002387F82730002324
:10EDC0007B820023FB870023BB87FB68002B09D1D4
:10EDD000A44B4FF4CF72A449A44804F013FC6FF085
:10EDE0000F032AE3FB68B3F862305B089AB2FB6852
:10EDF0005B8E934228BF1346BB84BB8C002B02D191
:10EE0000FB685B8E00E0BB8CBB84BB68002B09D128
:10EE1000944B40F2AD129649944804F0F3FB6FF026
:10EE20000F030AE3FB881946F868FFF733FF034630
:10EE300087F8233097F92330002B02D097F923303D
:10EE4000FBE2FB68B3F86630A7F84030002387F890
:10EE50002230FB68DB6E002B00F0F680FB68DB6E77
:10EE60003B6502E03B6D1B683B653B6D1B68002BFF
:10EE7000F8D13B6D9B7A9B009BB203F004033B846B
:10EE8000BA8C3B6D1B8919463B8C0B449A4206DABF
:10EE9000744B4FF4F3727749744804F0B3FB3B6D45
:10EEA0001A893B8C13449BB2BA8CD31A7B87FB68BC
:10EEB000B3F868307B827B8A002B26D07B8A7A8FDE
:10EEC0009A4206D2674B4FF4FC726B49674804F0D4
:10EED00099FB3B6DFB647B8AFA88934228BF1346FB
:10EEE0009BB27A8F934228BF1346FB87B7F8422024
:10EEF000FB8F1344A7F842307A8AFB8FD31A9BB258
:10EF00007B827A8FFB8FD31A7B877B8A002B0BD077
:10EF1000B7F84220FB889A4206D0524B4FF4007259
:10EF20005649524804F06EFBB7F84220FB889A42DB
:10EF300080F067817B8F002B00F063813B6D1B8924
:10EF4000002B00F05E81FA88B7F84230D21A7B8F2E
:10EF50009342A8BF1346FB833B6DFB647B7903F0B0
:10EF60000103002B27D007F112007A8FF98B0123C0
:10EF700002937B790193FB68009303460020FFF71F
:10EF80000FFE78657B6D002B00F025827B6D586845
:10EF9000B7F84230BA681344FA8B194604F01CFBE8
:10EFA000786DFBF787F903461A46B7F840301344EB
:10EFB000A7F8403041E03B6D5B687B6302E07B6B10
:10EFC0001B687B637B6B1B68002BF8D17B6B1B7B07
:10EFD00003F0C003002B15D17B6B5B687A6B528901
:10EFE0001344BA689A420DD1B7F84230002B06D0CC
:10EFF0001C4B40F2312222491C4804F003FBFB8BDE
:10F00000BB871AE0FB8B012219460020FAF7E6FDC8
:10F0100078657B6D002B00F0E081B7F84230BA686C
:10F020001A447B6D5A60786DFBF744F903461A4623
:10F03000B7F840301344A7F84030B7F84220FB8BB4
:10F040001344A7F84230DCE0FB68B3F86830002BCB
:10F0500000F0D780034B40F24A220A49034804F0EB
:10F06000D1FACEE044660108E46701089866010819
:10F07000FC670108306801084868010868680108F1
:10F0800088680108B4680108FA88B7F84230D31AD2
:10F09000BB8397F822309BB2BA8CD31A7B837A8BCE
:10F0A000BB8B934228BF13463B837B7903F001035C
:10F0B000002B36D097F822309AB23B8B134499B28A
:10F0C0007B6C002B0CBF01230023DBB207F1120085
:10F0D000BA8C02937B790193FB6800930346362038
:10F0E000FFF75EFD38633B6B002B00F078813B6BD4
:10F0F0005B893A8B9A4206D98C4B40F266228C4946
:10F100008C4804F07FFA3B6B5A6897F82230D0188D
:10F11000B7F84230BA6813443A8B194604F05CFAE7
:10F120002FE07B8A002B06D0804B40F2712282496F
:10F13000804804F067FA3B8B012219463620FAF723
:10F140004DFD78617B69002B00F04B81B7F84230B0
:10F15000BA681A447B695A6097F822309BB24FF420
:10F16000207219463620FAF739FD38633B6B002BC5
:10F1700003D17869FBF716F836E17969386BFBF74C
:10F18000D3F8386BFBF796F803461A46B7F84030C9
:10F190001344A7F84030B7F84030092B03D9386B37
:10F1A000FBF700F820E1FB68DA6DB7F842301A444B
:10F1B00097F82730009313460022396BF868FFF761
:10F1C00051FCF864FB6C002B00F00D817B6C002B74
:10F1D00002D1FB6C7B640CE0BB6C002B06D1534B63
:10F1E00040F2AB225549534804F00CFABB6CFA6C60
:10F1F0001A60FB6CBB64B7F842203B8B1344A7F842
:10F200004230B7F84220FB889A42FFF43DAFFB8FB3
:10F21000002B2CD03B6D5B68FB621EE0FB6A1A89F9
:10F22000FB8F13449AB2FB6A1A81FB6A1B68002B9E
:10F2300010D1FB6A5B68FA6A52891344FA8FB96885
:10F24000184604F0C9F9FB6A5A89FB8F13449AB235
:10F25000FB6A5A81FB6A1B68FB62FB6A002BDDD1EB
:10F260003B6D1A89FB8F13449AB23B6D1A817A8ADF
:10F27000FB68A3F868207B6D002B18D03B6D002B3A
:10F2800006D12A4B4FF438722D492A4804F0BAF9B6
:10F290003B6D5B68796D1846FBF746F83B6D1A8944
:10F2A0007B6D1B8913449AB23B6D1A8137E0BB8F8B
:10F2B000002B34D03B6D002B03D03B6D5B68002BE3
:10F2C00006D11A4B40F2E6221E491A4804F09AF978
:10F2D0003B6D5B68BB6209E0BB6A1A89BB8F134454
:10F2E0009AB2BB6A1A81BB6A1B68BB62BB6A1B68A5
:10F2F000002BF1D1BB6A1A89BB8F13449AB2BB6A47
:10F300001A81BB6A5A89BB8F13449AB2BB6A5A816D
:10F310003B6D1A89BB8F13449AB23B6D1A813B6DCA
:10F32000002B11D1FB687A6CDA6610E044660108A4
:10F33000E468010898660108246901083469010835
:10F3400048690108806901083B6D7A6C1A60FB68A6
:10F35000DA6DFB881A44FB68DA65FB68B3F8642051
:10F36000FB88D31A9AB2FB68A3F86420FB68B7F84D
:10F370004020A3F86620FB68B3F86630002B0ED05F
:10F38000FB681B6F002B0AD1FB68DB6E002B06D1DC
:10F390002C4B40F212322C492C4804F033F9FB6C10
:10F3A000002B16D0FB6CDB68002B12D07B7903F0AE
:10F3B0000203002B0DD1FB6CDB689B899CB20820FB
:10F3C000F9F76AFB03461A46FB6CDB68224392B2EC
:10F3D0009A81002331E000BF06E000BF04E000BFD7
:10F3E00002E000BF00E000BFFB685B8B43F08003DE
:10F3F0009AB2FB685A837B6D002B02D0786DFAF7C6
:10F40000D1FE7B6C002B02D0786CFCF783FBFB6891
:10F41000B3F86630002B0ED0FB681B6F002B0AD1AF
:10F42000FB68DB6E002B06D1064B40F22732064903
:10F43000064804F0E7F84FF0FF3318465C37BD4646
:10F4400090BD00BF44660108B869010898660108CC
:10F4500090B58BB002AF78600B467B800023FB61D8
:10F4600000237B6100233B617B68002B06D1954B19
:10F4700040F24B329449954804F0C4F87B68DB6E47
:10F480007B617B69002B02D14FF0FF3316E17B8853
:10F49000002B09D18B4B40F253328D498B4804F03D
:10F4A000B1F86FF0050309E17B691B897A889A42FC
:10F4B00001D3002302E17B685B8E7A889A4206D9E9
:10F4C000804B40F25B328349804804F09BF87B69B3
:10F4D0001B89002B06D17B4B4FF457727E497B482A
:10F4E00004F090F87B699B7AFB73FB7B9B00DBB29B
:10F4F00003F00403BB737B691A897B88D31ABB8131
:10F50000BB7B9AB2BB8913449BB24FF4207219465D
:10F510003620FAF763FB38613B69002B00F0B780B7
:10F520007B695B681A897B691B89D31A9AB27B88CD
:10F5300013447B817B6958683B695A68BB7BD1184F
:10F540007B89BA89FBF718F803461A46BB899342B0
:10F5500040F09F807B69DB689B899BB21846F9F776
:10F560009BFA0346DBB203F03F03FB760023BB7636
:10F57000FB7E03F00803002B07D0FB7E23F008037B
:10F58000FB76BB7E43F00803BB76FB7E03F00103F2
:10F59000002B07D0FB7E23F00103FB76BB7E43F0FC
:10F5A0000103BB767B69DB685B681846F9F789FA6B
:10F5B00002467B88D118BA7EFB7B00930B463969E3
:10F5C0007868FFF74FFAF861FB69002B63D07B691D
:10F5D0005B681846FAF76EFE03461A467B68B3F876
:10F5E00066309B1A9AB27B68A3F866207B695868DC
:10F5F0007B695B681A89BB89D31A9BB21946FAF7F3
:10F600004BFC7B691A89BB89D31A9AB27B691A8130
:10F610007B69DB689B899CB2FB7E9BB21846F9F73D
:10F620003BFA03461A467B69DB68224392B29A8111
:10F630007B695B681846FAF73DFE03461A467B680D
:10F64000B3F8663013449AB27B68A3F86620FB696E
:10F650005B681846FAF72EFE03461A467B68B3F835
:10F66000663013449AB27B68A3F866207B691A68F7
:10F67000FB691A607B69FA691A60FB691B68002BD9
:10F6800003D17B680022A3F86820002316E000BFA6
:10F6900002E000BF00E000BFFB69002B06D0094B71
:10F6A0004FF476720D49094803F0ACFF3B69002B1B
:10F6B00002D03869FAF776FD4FF0FF331846243749
:10F6C000BD4690BD44660108D869010898660108E6
:10F6D000FC690108206A0108306A0108406A0108D3
:10F6E00090B585B000AF78607B68002B06D1214BC8
:10F6F00040F2EB322049214803F084FF7B68DB6E47
:10F70000002B2ED07B68DB6EFB6002E0FB681B6881
:10F71000FB60FB681B68002BF8D1FB68DB689B89EA
:10F720009BB21846F9F7B8F90346DBB203F00703BA
:10F73000002B16D1FB68DB689B899CB20120F9F78E
:10F74000ABF903461A46FB68DB68224392B29A8102
:10F750007B685B8B43F020039AB27B685A8300235B
:10F7600004E00121786800F00BF8034618461437CE
:10F77000BD4690BD446601084C6A010898660108C0
:10F7800080B58AB002AF78600B46FB700023FB7730
:10F790000023FB75FB7803F00303002B06D1674BB6
:10F7A00040F211426649674803F02CFF7B68002B4A
:10F7B00006D1624B40F213426349624803F022FFD4
:10F7C000FB7803F00203002B01D00123FB77FB7FC2
:10F7D0009B00DBB203F00403FB75FB7D9BB24FF48F
:10F7E000207219463620FAF7F9F938613B69002B87
:10F7F00009D17B685B8B43F080039AB27B685A83A4
:10F800004FF0FF3395E03B695A89FB7D9BB29A42EA
:10F8100006D24A4B40F239424C494A4803F0F2FEC4
:10F820007B68D96DFA78FB7F00930B46396978685D
:10F83000FFF718F9F860FB68002B09D17B685B8B38
:10F8400043F080039AB27B685A834FF0FF3370E035
:10F85000FB68DB6803F00303002B06D0374B40F254
:10F8600042423B49374803F0CDFEFB681B89002B21
:10F8700006D0324B40F243423649324803F0C2FED2
:10F880007B68DB6E002B03D17B68FA68DA660DE0DB
:10F890007B68DB6EBB6102E0BB691B68BB61BB6957
:10F8A0001B68002BF8D1BB69FA681A607B680022DC
:10F8B000A3F86820FB7803F00203002B04D1FB7847
:10F8C00003F00103002B04D07B68DB6D5A1C7B68BE
:10F8D000DA65FB7803F00103002B06D07B685B8BB5
:10F8E00043F020039AB27B685A83FB685B68184632
:10F8F000FAF7E0FC03461A467B68B3F86630134417
:10F900009AB27B68A3F866207B68B3F86630002B58
:10F910000ED07B681B6F002B0AD17B68DB6E002B3F
:10F9200006D1064B40F265420B49064803F06AFED9
:10F93000002318462037BD4680BD00BF446601083D
:10F94000686A010898660108C06A0108E06A01084F
:10F950001C6B0108346B0108606B0108B0B58AB0FC
:10F9600000AF78607B68002B06D18A4B40F2E14201
:10F9700089498A4803F046FE7B681B7D012B06D12E
:10F98000844B40F2E3428649844803F03BFE854BBA
:10F990001B687A689A4201D10023CEE17B68B3F8F4
:10F9A00048207B68B3F86030934228BF13469BB26F
:10F9B000BB617B68DB6E7B627B6A002B0BD17B6853
:10F9C0005B8B03F00203002B00F0AA81786800F043
:10F9D000CBFD0346B1E179687B6804331A46786849
:10F9E000FFF724F878617B69002B02D16FF00303E5
:10F9F000A3E17B68002B03D07B681B68002B11D12F
:10FA00007B69002B02D07B69043300E000233B615B
:10FA10003B69002B02D16FF003038EE13B691A684A
:10FA20007B681A607B6ADB685B681846F9F749F8FF
:10FA300002467B685B6CD31A7A6A12891344BA69EE
:10FA40009A4227D27B68B3F860301A46BB6993426A
:10FA500014D17B681B6F002B10D17B6893F8993011
:10FA6000002B0BD17B68002283F898207B68012251
:10FA700083F899207B68002283F89A207B685B8B4F
:10FA800003F00203002B00F04D81786800F06CFD5C
:10FA9000034652E17B68002283F899207B681B6F44
:10FAA0003B623B6A002B00F01C8102E03B6A1B6852
:10FAB0003B623B6A1B68002BF8D112E17B6ADB6872
:10FAC0009B899BB21846F8F7E7FF0346DBB203F0C9
:10FAD0000403002B06D02F4B40F2365232492F48F8
:10FAE00003F090FD7B681B6F002B1FD07B685B8B46
:10FAF00003F04403002B19D17B68DB6E002B0BD085
:10FB00007B68DB6E1B68002B10D17B68DB6E1A896B
:10FB10007B685B8E9A4209D27B68B3F86430002B15
:10FB200004D07B68B3F86630082B01D9012300E0CC
:10FB30000023002B06D17B685B8B03F0A003002B16
:10FB400000F0E4807B681B7D022B0DD07B6ADB68B4
:10FB50009B899CB21020F8F79FFF03461A467B6AE8
:10FB6000DB68224392B29A817A697968786A00F0F8
:10FB700009F90346FB7397F90F30002B16D07B6809
:10FB80005B8B43F080039AB27B685A8397F90F30FE
:10FB9000D3E000BF44660108886B0108986601083D
:10FBA000A06B0108DC830020C86B01087B6A1A681F
:10FBB0007B68DA667B681B7D022B06D07B685B8BDB
:10FBC00023F003039AB27B685A837B6ADB685B6825
:10FBD0001846F8F776FF04467B6A1B891D467B6A48
:10FBE000DB689B899BB21846F8F756FF0346DBB2E9
:10FBF00003F00303002B01D0012300E000232B447A
:10FC00002344BB607B681A6DBB68D31A002B02DAF1
:10FC10007B68BA681A657B6A1B891C467B6ADB684D
:10FC20009B899BB21846F8F737FF0346DBB203F017
:10FC30000303002B01D0012300E000232344002B09
:10FC400049D07B6A00221A607B681B6F002B05D1AC
:10FC50007B687A6A1A677B6A3B623FE07B6ADB6893
:10FC60005B681846F8F72DFF04463B6ADB685B6863
:10FC70001846F8F726FF0346E31A002B24DA7B68C0
:10FC80007033FB6102E0FB691B68FB61FB691B6869
:10FC9000002B11D0FB691B68DB685B681846F8F71E
:10FCA00010FF04467B6ADB685B681846F8F709FFBB
:10FCB0000346E31A002BE6DBFB691A687B6A1A60CD
:10FCC000FB697A6A1A6009E03B6A7A6A1A603B6AE1
:10FCD0001B683B6202E0786AFBF731FF7B68DB6EF2
:10FCE0007B627B6A002B12D07B6ADB685B681846FC
:10FCF000F8F7E7FE02467B685B6CD31A7A6A1289D2
:10FD00001344BA699A42BFF4D9AE00E000BF7B68E1
:10FD1000DB6E002B08D17B680022A3F8682004E08A
:10FD200000BF02E000BF00E000BF7B685B8B23F0F8
:10FD300080039AB27B685A83002318462837BD4651
:10FD4000B0BD00BF80B582B000AF78607B68002B8B
:10FD500006D1094B40F29A520849094803F052FC77
:10FD60007B685B689B7B012B01D0012300E00023B3
:10FD700018460837BD4680BD44660108E06B01089F
:10FD800098660108B0B58CB004AFF860B9607A60CD
:10FD9000FB68002B06D1634B4FF4B762624963489E
:10FDA00003F030FCBB68002B06D15E4B40F2B95229
:10FDB0005F495E4803F026FC7B68002B06D1594B57
:10FDC00040F2BA525B49594803F01CFCF868FFF74F
:10FDD000B9FF0346002B01D000239FE0BB685A6A9D
:10FDE000FB68DC681046F8F76CFE0346A360BB684E
:10FDF0005A8DFB68DC681046F8F74EFE0346E38137
:10FE0000BB685B6ABA68528D1A44BB68DA62FB68E9
:10FE1000DB681433FB61FB689B7A03F00103002B62
:10FE200015D0BB6804331A4679684FF40670FCF7A6
:10FE300033FA03467B837B8B43F001731846F8F754
:10FE400040FE0246FB691A60FB690433FB61BB6834
:10FE5000B3F93030002B02DABB6800221A86BB6887
:10FE60005B6B002B0CD1344B1A68BB685A63FB6880
:10FE7000DB685B681846F8F724FE0246BB689A63A5
:10FE8000FB68DA68FB685B685B68D31A3B83FB68D6
:10FE90005B685989FB685B683A8B8A1A92B25A810F
:10FEA000FB685B681989FB685B683A8B8A1A92B2B7
:10FEB0001A81FB685B68FA68D2685A60FB68DB6885
:10FEC00000221A7400225A74FB68DB6803F11402E2
:10FED000FB689B7A9B0003F004031344FA699A427F
:10FEE00006D0104B40F21C621449104803F08AFB04
:10FEF000FB685868B968BB681C1DBB68DD7ABB68C5
:10FF00009B7A7A6802920622019200932B4622463F
:10FF100002F070FA0346FB7597F917301846203740
:10FF2000BD46B0BD44660108086C0108986601082A
:10FF3000286C0108486C0108908300206C6C010853
:10FF4000B0B584B000AF78607B68002B06D1314B30
:10FF500040F263623049314803F054FB7B681B6F09
:10FF6000002B02D16FF0050350E07B681B6FFB6034
:10FF70000BE0F868FFF7E6FE0346002B02D06FF0B7
:10FF8000050343E0FB681B68FB60FB681B68002BF4
:10FF9000EFD1F868FFF7D6FE0346002B02D06FF0D2
:10FFA000050333E07B68DA6EFB681A607B681A6FC2
:10FFB0007B68DA667B6800221A677B685B8B43F498
:10FFC00000639AB27B685A83FB68DB685B681846FB
:10FFD000F8F777FD0446FB681B891D46FB68DB6864
:10FFE0009B899BB21846F8F757FD0346DBB203F036
:10FFF0000303002B01D0012300E000232B44E2186F
:020000040801F1
:100000007B68DA647B6800225A6300231846103745
:10001000BD46B0BD44660108806C010898660108C1
:1000200080B582B000AF78607B68002B06D10D4BA5
:100030004FF4D3620C490D4803F0E4FA7B6893F85F
:100040004230FF2B07D07B6893F842300133DAB29D
:100050007B6883F842207868FFF780FC00BF083790
:10006000BD4680BD44660108A46C0108986601087D
:1000700080B582B000AF78607B68002B06D10A4B58
:1000800040F2AD6209490A4803F0BCFA7868FFF70C
:1000900057FF0346002B02D17868FFF7C1FF00BF6E
:1000A0000837BD4680BD00BF44660108C86C010822
:1000B0009866010890B585B000AF78607B68002B2A
:1000C00006D12F4B40F2C1622E492F4803F09AFA15
:1000D0007B681B6F002B02D16FF005034CE07B683F
:1000E0001B6FBB60B868FFF72DFE0346002B02D0E4
:1000F0006FF0050340E0BB681A687B681A677B688D
:100100006C33FB6002E0FB681B68FB60FB681B68EC
:10011000002B11D0FB681B68DB685B681846F8F79A
:10012000D0FC0446BB68DB685B681846F8F7C9FC7E
:100130000346E31A002BE6DBFB681A68BB681A600B
:10014000FB68BA681A60BB681B68002B03D17B6828
:100150000022A3F868207B6893F84230FF2B07D079
:100160007B6893F842300133DAB27B6883F842202F
:100170007B6800225A63002318461437BD4690BDA1
:1001800044660108E46C01089866010880B582B0F5
:1001900000AF78607B68002B06D12A4B40F2F962F1
:1001A00029492A4803F02EFA7B681B6F002B45D0A3
:1001B0007B685B8B03F00403002B3FD17868FFF76B
:1001C00079FF0346002B39D17B68B3F860207B6848
:1001D000B3F84830934228BF13469BB2002B00DA95
:1001E00001335B109AB27B68A3F84A207B68B3F8AE
:1001F0004A301A467B685B8E5B009A4206D27B6867
:100200005B8E5B009AB27B68A3F84A207B68B3F8E8
:100210004A207B685B8E194649000B449BB213440D
:100220009AB27B68A3F848207B685B8B43F0040399
:100230009AB27B685A837B6800221A8600BF08370F
:10024000BD4680BD44660108FC6C01089866010843
:1002500080B586B000AFF8607B600B467B811346AB
:100260003B817A893B8913449BB214339BB24FF490
:10027000207219462220F9F7B1FC78617B69002BC6
:100280004DD07B8913337A695289934206DB264B22
:1002900040F223722549264803F0B4F97B695B6874
:1002A0003B613B8C1846F8F7F7FB03461A463B695F
:1002B0001A80BB8C1846F8F7EFFB03461A463B69D9
:1002C0005A803B697A685A60F868F8F7FAFB024688
:1002D0003B699A607B899B089BB205339BB21B03E9
:1002E0009AB297F828309BB213439BB21846F8F79E
:1002F000D3FB03461A463B699A81BB8D1846F8F733
:10030000CBFB03461A463B69DA813B6900221A742B
:1003100000225A743B6900229A740022DA747B69C5
:1003200018461837BD4680BD446601081C6D01089B
:1003300098660108B0B58AB004AFF8607B600B46E0
:100340007B8113463B81FB68002B06D1154B40F2A5
:1003500042721549154803F055F9FB68586AFB6865
:10036000DB8AFA68128BF968498D3D897C89039193
:1003700010210291019200937B682A462146FFF7E3
:1003800067FF78617B69002B06D0FB685B6AFA68BF
:10039000528D1A44FB68DA627B6918461837BD46ED
:1003A000B0BD00BF446601084C6D010898660108A5
:1003B00080B588B000AFF860B96011461A460B46A8
:1003C000FB711346BB710023FB83BB68002B06D176
:1003D000134B40F256721349134803F013F9BB68EC
:1003E0005B68BB61BB6914337B61BB6903F11402B9
:1003F000FB8B9B001946FB799B0003F004030B4425
:1004000013447A699A4206D0054B40F27572074947
:10041000054803F0F7F800BF2037BD4680BD00BF98
:1004200044660108746D0108986601086C6C010847
:1004300080B58AB004AFF860B9607A603B60BB6891
:10044000002B06D11C4B40F287721C491C4803F05C
:10045000D9F83A687968F868FEF7E8FA38613B69D4
:10046000002B02D1FC23FB751CE0FB68002B06D09F
:10047000FB68DB7ABB75FB689B7A7B7503E0FF2327
:10048000BB7500237B75BA7D3B69029306230193FC
:100490007B7D009313463A687968B86801F0AAFF3B
:1004A0000346FB75B868F9F77DFE97F917301846D3
:1004B0001837BD4680BD00BF446601089C6D010829
:1004C0009866010890B58BB004AFF860B9607A60A7
:1004D0003B603B68002B06D11F4B40F2C4721F49A2
:1004E0001F4803F08FF8BB6A002B06D11A4B40F26D
:1004F000C5721C491A4803F085F80023FB7546F2C3
:100500000803BB82FB7D9CB2B868F8F7DAFA0246B2
:10051000BB8A0393142302933B8E0193BB8D0093FC
:100520001346002221467868FFF792FE38613B6946
:10053000002B0CD0FB7D00223969F868FFF738FFEB
:10054000BB6A3A683969F868FFF772FF00E000BFDC
:100550001C37BD4690BD00BF44660108C86D010848
:1005600098660108E46D010890B587B000AF786027
:100570000023FB750023BB757B68002B06D1284B3D
:1005800040F2EA722749284803F03CF8FB7D9B00C3
:10059000DBB203F004037B757B7D9CB27B681B6D33
:1005A0001846F8F78EFA0346002221467868FFF7CE
:1005B000C1FE38613B69002B09D17B685B8B43F03E
:1005C00003039AB27B685A836FF0010323E0BB7D7B
:1005D000FA7D39697868FFF7EBFE7A687B68043347
:1005E00039697868FFF724FF0346FB7397F90F30EA
:1005F000002B07D07B685B8B43F003039AB27B68C8
:100600005A8306E07B685B8B23F003039AB27B6816
:100610005A8397F90F3018461C37BD4690BD00BF6E
:1006200044660108006E01089866010890B587B01D
:1006300000AF78600023FB757B68002B06D1184B58
:1006400040F624021749184802F0DCFFFB7D9CB2FB
:100650007B681B6D013B1846F8F733FA034600220E
:1006600021467868FFF766FE38613B69002B02D1AE
:100670004FF0FF3310E0FB7D002239697868FFF707
:1006800097FE7A687B68043339697868FFF7D0FE93
:100690000346FB7397F90F3018461C37BD4690BDD3
:1006A00044660108206E01089866010890B58BB079
:1006B00000AF7860002387F827307B68002B06D1D5
:1006C0004C4B40F64F024C494C4802F09BFF7B6874
:1006D000DB6E3B623B6A002B01D1002386E07B6826
:1006E00093F89A30FF2B07D07B6893F89A30013348
:1006F000DAB27B6883F89A203B6ADB689B899BB2FD
:100700001846F8F7C9F90346DBB203F00103002BE2
:1007100005D03B6A1B89002B01D1012300E0002397
:10072000FB77FB7F002B0CBF01230023DBB2BB83D5
:1007300097F8273099B23B6ADB685B68BA8B7868B8
:10074000FFF7F8FDB861BB69002B02D14FF0FF3312
:100750004CE0BB695B687B61FB7F002B11D07B6940
:100760009B899BB21BB223F47C531CB21120F8F777
:1007700093F903461BB223431BB29AB27B699A8159
:1007800010E0BB695B6814333B613B6A58683B6AA5
:100790005B681A893B6A1B89D31A9BB201223969AB
:1007A000F9F7EAFE3B6ADB685B681846F8F789F9F7
:1007B00003460133FB607B681A6DFB68D31A002B7C
:1007C00002DA7B68FA681A6597F827300022B9695F
:1007D0007868FFF7EDFD7A687B680433B96978685B
:1007E000FFF726FE0346FB7297F90B3018462C37AD
:1007F000BD4690BD446601083C6E0108986601083C
:1008000080B582B000AF7860FAF708F80A4B1B6831
:10081000002B03D1094B1B68002B05D0002208498F
:10082000FA2000F0F3F803E0064B00221A6000BF44
:1008300000BF0837BD4680BD9C830020A0830020F8
:1008400001080108E883002080B500AF0A4B1B684F
:10085000002B0FD1094B1B68002B03D1084B1B68E1
:10086000002B07D0044B01221A6000220549FA2010
:1008700000F0CCF800BF80BDE88300209C830020FE
:10088000A08300200108010880B586B000AFF860A1
:10089000B9607A600620F8F79FFD38613B69002B4C
:1008A00009D13B69002B51D12A4BBE222A492B4842
:1008B00002F0A8FE4AE03B6900221A603B69BA6870
:1008C0009A603B697A68DA603B69FA685A60244B3F
:1008D0001B68002B03D1224A3B69136037E03B6958
:1008E0005A681F4B1B685B68D31ADB0F03F00103C8
:1008F000DBB2002B07D01A4B1A683B691A60184A02
:100900003B69136023E0164B1B687B611AE07B692F
:100910001B68002B0BD03B695A687B691B685B68BE
:10092000D31ADB0F03F00103DBB2002B07D07B6986
:100930001A683B691A607B693A691A6007E07B694B
:100940001B687B617B69002BE1D100E000BF183799
:10095000BD4680BD606E0108946E0108D46E01082A
:10096000E083002080B586B000AF78607B687B6153
:100970007B695B689847F6F761F938617B691A68AB
:100980000F4B1B681344FB60FA683B69D31ADB0FFB
:1009900003F00103DBB2002B09D07B691A683B69C5
:1009A00013447A6807491846FFF76EFF04E07A6837
:1009B0000449F868FFF768FF00BF1837BD4680BDDF
:1009C000E48300206509010880B582B000AF0123EF
:1009D0007B600EE00B4A7B6852F833007B68DB00DB
:1009E000084A13441A46084900F010F87B6801339E
:1009F0007B607B68022BEDD900BF00BF0837BD4686
:100A000080BD00BF547A01086509010880B586B031
:100A100000AFF860B9607A60FB68B3F1804F06D32D
:100A20000A4B40F229120A490A4802F0EBFDF6F798
:100A300005F90246FB6813447B617A68B9687869F6
:100A4000FFF722FF00BF1837BD4680BD606E01086A
:100A5000FC6E0108D46E010880B584B000AF7860E8
:100A60003960194B1B68002B29D0174B1B68BB60E2
:100A70000023FB601FE0BB689B687A689A4215D12F
:100A8000BB68DB683A689A4210D1FB68002B04D13E
:100A9000BB681B680C4A136003E0BB681A68FB68FC
:100AA0001A60B9680620F8F707FD09E0BB68FB602B
:100AB000BB681B68BB60BB68002BDCD100E000BFDB
:100AC0001037BD4680BD00BFE083002080B584B0F4
:100AD00000AFF6F7B3F8F8601A4B1B78DBB2002BC7
:100AE00001D0F9F725F8184B1B68BB60BB68002BD9
:100AF00022D0BB685B68FA68D31ADB0F03F00103EE
:100B0000DBB2002B1AD1BB681B680F4A1360BB68AD
:100B10009B687B60BB68DB683B60BB685B680B4ABB
:100B20001360B9680620F8F7C7FC7B68002BD3D0A8
:100B30007B6838689847CFE700BF00E000BF1037F8
:100B4000BD4680BD8D830020E0830020E48300202B
:100B500080B500AF02F06EFD03469BB2C3F30D03F8
:100B60009BB2A3F580439AB2014B1A8000BF80BDAF
:100B70002C00002080B584B000AFF860B960134647
:100B8000FB71FB68002B05D1274B8722274928489A
:100B900002F038FDBB68002B05D1234B8822254984
:100BA000234802F02FFDFB681B7A002B0BD0FB685B
:100BB0001A7A214B5B6893F830300133DBB29A42EA
:100BC00001D000232BE0FB79002B18D0FB68002B11
:100BD00013D0FB681B68002B0FD0174B5B69B3F178
:100BE000FF3F0AD0FB681A68134B5B695A40BB6829
:100BF00008331B681340002B10D101230FE0FB6862
:100C0000002B09D0FB681B68002B05D0FB681A6815
:100C1000094B5B699A4201D1012300E00023184689
:100C20001037BD4680BD00BF486F0108786F0108CE
:100C30009C6F0108C46F0108204E002090B58DB054
:100C400002AF786039600023FB767B68002B05D10A
:100C50007C4BCF227C497D4802F0D4FC3B68002BC2
:100C600005D1784BD0227A49784802F0CBFC7B68DA
:100C70005B89072B03D87868F9F794FADEE07B6884
:100C80005B687B61734B5B69724A12681146184658
:100C900001F088FC0346FB747B691B889BB21846F5
:100CA000F7F7FAFE03463B827B695B889BB21846E6
:100CB000F7F7F2FE0346FB8100237B6200233B62D1
:100CC0000023FB61644B1B687B6254E07B6A5B8A98
:100CD000FA899A424AD1FB7C1A463968786AFFF74A
:100CE00049FF0346002B41D07B6A1B7C03F00403C1
:100CF000002B1DD1FB69002B02D17B6AFB6117E041
:100D0000FB7C002B14D0534B5B69B3F1FF3F0FD139
:100D1000FB691A683B6804331B689A4208D07B6AF7
:100D20001A683B6804331B689A4201D17B6AFB61F5
:100D30007B6A9B8A3A8A9A4218D17B6A5B68002B4D
:100D400005D07B6A5A68434B1B699A420ED13B6AB5
:100D5000002B14D07B6ADA683B6ADA603E4B1A6873
:100D60007B6ADA603C4A7B6A136008E07B6A3B621C
:100D70007B6ADB687B627B6A002BA7D100E000BF47
:100D80007B6A002B01D1FB697B627B6A002B02D05E
:100D90000123FB760AE03B6804331A682D4B5B693C
:100DA0009A420CBF01230023DBB2FB76FB7E002BB3
:100DB00041D008217868F9F76FF90346002B0AD073
:100DC000204B4FF4B8722549204802F01BFC78688C
:100DD000F9F7E8F932E07B6A002B12D07B6A9B6955
:100DE000002B0AD07B6A9C697B6AD8693B8A009396
:100DF0001B4B7A68796AA04721E07868F9F7D2F945
:100E00001CE0FB7C002B12D1124B5B6903F0F0035A
:100E1000E02B0CD00F4B9B8908339BB21BB21946B9
:100E20007868F9F7ACF90321786801F09BF87868E5
:100E3000F9F7B8F903E07868F9F7B4F900BF2C378F
:100E4000BD4690BD486F0108EC6F01089C6F01081A
:100E500004700108204E0020EC830020207001085F
:100E6000304E002080B485B000AF786039607B6878
:100E7000002B1ED07B681B68002B1AD03B68002B10
:100E800017D03B681B68002B13D00D4B1B68FB6011
:100E90000CE0FB681A687B681B689A4203D13B68C8
:100EA0001A68FB681A60FB68DB68FB60FB68002B54
:100EB000EFD100BF1437BD465DF8047B704700BF1B
:100EC000EC83002080B582B000AF786015497A6865
:100ED00013465B001344DB000B441B68002B13D04C
:100EE00010497A6813465B001344DB000B441B680F
:100EF0001846F9F757F90B497A6813465B00134413
:100F0000DB000B4400221A6006497A6813465B0036
:100F10001344DB000B44143300221A7000BF08375F
:100F2000BD4680BDF083002080B582B000AF0023B5
:100F30007B6096E04F497A6813465B001344DB0000
:100F40000B4414331B78FB70FB78002B00F0868079
:100F500048497A6813465B001344DB000B441233A4
:100F60001B88013398B243497A6813465B001344E7
:100F7000DB000B44123302461A803E497A6813465E
:100F80005B001344DB000B4412331B88B3F5967FE0
:100F900015D238497A6813465B001344DB000B44D2
:100FA00014331B78012B0ED132497A6813465B004B
:100FB0001344DB000B4412331B88042B03D97868DD
:100FC000FFF780FF4AE02B497A6813465B00134421
:100FD000DB000B4414331B78032B0AD125497A68B4
:100FE00013465B001344DB000B44143304221A70D5
:100FF00034E020497A6813465B001344DB000B445D
:1010000014331B78042B0AD11A497A6813465B0003
:101010001344DB000B44143302221A701EE01549FE
:101020007A6813465B001344DB000B4414331B78CF
:10103000012B13D10F497A6813465B001344DB0080
:101040000B44083318687A6813465B001344DB00CE
:10105000084A13440433194600F06EFE7B680133DE
:101060007B607B68092B7FF765AF00BF00BF083747
:10107000BD4680BDF083002080B58AB000AFF86027
:101080000B467A60FB720A23FB840A23BB840A2383
:101090007B8400233B840A23FB830023BB83002340
:1010A0007B8300233B8300233B84AEE0B7F9202001
:1010B000A64913465B001344DB000B4414331B7832
:1010C000FB75B7F922300A2B05D1FB7D002B02D12D
:1010D0003B8C7B8495E0FB7D002B00F09280FB7DB8
:1010E000012B09D0FB7D012B06D8994B40F223122E
:1010F0009849994802F086FAFB68002B20D0FB68DB
:101100001968B7F92020914813465B001344DB00AF
:10111000034404331B68994212D17B68002B0CD026
:10112000B7F92020894913465B001344DB000B44C8
:1011300008331B687A689A4202D1B7F9203000E17F
:10114000FB7D012B40D1B7F92020804913465B007D
:101150001344DB000B441B68002B1AD0B7F9202086
:101160007A4913465B001344DB000B4412331B889F
:10117000BA8B9A4245D83B8CFB83B7F92020734940
:1011800013465B001344DB000B4412331B88BB8304
:1011900037E0B7F920206D4913465B001344DB00AC
:1011A0000B4412331B887A8B9A422AD83B8CFB84DF
:1011B000B7F92020654913465B001344DB000B445C
:1011C00012331B887B831CE0FB7D012B19D9B7F9F7
:1011D00020205E4913465B001344DB000B441233AE
:1011E0001B883A8B9A420CD83B8CBB84B7F92020E1
:1011F000564913465B001344DB000B4412331B8833
:101200003B833B8C01339BB23B84B7F92030092BE5
:101210007FF74CAFFB7A03F00203002B08D1B7F93C
:1012200022300A2B07D1FB7A03F00103002B02D1F5
:101230004FF0FF3385E0B7F92230092B02DC7B8CBD
:101240003B8439E0B7F92430092B14DCBB8C3B8498
:10125000B7F920203D4913465B001344DB000B44E3
:101260001B68002B18D03A4B40F26D123B493A48AC
:1012700002F0C8F910E0B7F92630092B02DCFB8C2C
:101280003B8409E0B7F91E30092B02DCFB8B3B8461
:1012900002E04FF0FF3354E0B7F92030092B06DDB0
:1012A0002B4B40F27F122E492B4802F0ABF9B7F9D5
:1012B00020301846FFF706FEB7F92030092B06DD6F
:1012C000234B40F283122649234802F09BF9B7F9D9
:1012D00020201E4913465B001344DB000B441433EB
:1012E0001B78002B06D01A4B4FF4C2721D491A48C6
:1012F00002F088F9FB68002B0BD0B7F92020FB68BF
:101300001968124813465B001344DB00034404339E
:101310001960B7F920200D4913465B001344DB0028
:101320000B44123300221A80B7F9202007491346D4
:101330005B001344DB000B4408337A681A60B7F98A
:10134000203018462837BD4680BD00BFF0830020FE
:10135000AC720108E4720108247301084C7301089F
:10136000647301087873010880B588B002AFF86033
:10137000B9607A60FB70FB6893F82C30062B06D0BE
:10138000484B40F2A9124849484802F03BF9BB6873
:10139000002B12D0BB681B68002B0ED0BB681B68EB
:1013A000F968184601F0FEF80346002B05D1BB682A
:1013B0001B6803F0F003E02B02D16FF00F036CE029
:1013C000FB78FA681946B868FFF756FE0346FB82B9
:1013D000B7F91630002B02DAFB8A5BB25DE0B7F991
:1013E0001620334913465B001344DB000B441433CF
:1013F00002221A70B7F916202D4913465B001344D8
:10140000DB000B440833FA681A60B7F9162013465C
:101410005B001344DB000833254A134404330622DF
:101420007968184602F0D8F8B7F916202049134613
:101430005B001344DB000B44123300221A80B7F91F
:1014400016201B4913465B001344DB000B441B684A
:10145000002B21D0B7F91620154913465B00134421
:10146000DB000B441B683B61B7F91620104913469B
:101470005B001344DB000B4400221A60FB6803F19D
:1014800026024FF4006300937B683969F86802F024
:1014900027F83869F8F786FE002318461837BD4646
:1014A00080BD00BFAC720108A47301082473010859
:1014B000F083002080B584B000AF78600023FB602B
:1014C0001EE01349FA6813465B001344DB000B442B
:1014D00014331B78FB72FB7A002B0ED00C49FA6890
:1014E00013465B001344DB000B4408331B687A6827
:1014F0009A4202D1F868FFF7E5FCFB680133FB6014
:10150000FB68092BDDDD00BF00BF1037BD4680BD85
:10151000F0830020B0B58AB004AF786039603B68D2
:10152000002B07D13D4B40F28A223D493D4802F055
:1015300069F86FE07B685B683B613B691B889BB225
:10154000B3F5807F0CD13B691B79062B08D13B6931
:101550005B79042B04D13B695B889BB2082B03D0D9
:101560007868F8F71FFE55E03B690E331B68FB6097
:101570003B6918331B68BB603B6804331B68002B56
:1015800002D10023FB7509E0BA683B6804331B688D
:101590009A420CBF01230023DBB2FB753B6903F1C8
:1015A0000802FB7D002B01D0012300E0022307F19C
:1015B0000C013868FFF7D8FE3B69DB889BB2B3F5B6
:1015C000807F03D0B3F5007F1ED020E0FB7D002B91
:1015D0001CD03B6803F126003B6903F108043B681B
:1015E00003F126053B6804333A690832022103916E
:1015F00007F10C010291019200932B46224601460D
:10160000386800F0EBFA01E000BF00E000BF786846
:10161000F8F7C8FD1837BD46B0BD00BFAC72010871
:10162000FC7301082473010880B586B002AFF8602E
:10163000B9601346FB71FA79444913465B001344C1
:10164000DB000B4414331B78012B06D8404B40F2CF
:10165000EE224049404801F0D5FFFA793B49134654
:101660005B001344DB000B4414331B78022B53D173
:10167000FA79364913465B001344DB000B441233FE
:101680001B88B3F58E7F19D9FA7913465B00134492
:10169000DB002E4A134404331946F86800F04CFB73
:1016A0000346002B38D1FA79284913465B001344CE
:1016B000DB000B44143303221A702DE0FA7923491E
:1016C00013465B001344DB000B4412331B88B3F555
:1016D000877F21D3FA7913465B001344DB001B4A52
:1016E0001344191DFA7913465B001344DB000833D9
:1016F000164A134404331A46F86800F0FBFA03460E
:10170000002B09D1FA79114913465B001344DB0021
:101710000B44143303221A70FB6803F12601FA7993
:1017200013465B001344DB000833084A13440433B8
:101730004FF4006200920A46B968F86801F0D0FEE2
:10174000034618461037BD4680BD00BFF083002019
:10175000AC7201081C7401082473010880B58AB0BA
:1017600002AFF860B9607A607B68BB61FB68002BF0
:1017700006D1734B40F21E327249734801F042FFAA
:10178000BB68002B06D16E4B40F21F326F496E488A
:1017900001F038FF7B68002B06D1694B4FF448728B
:1017A0006B49694801F02EFF7B681B68F968184691
:1017B00000F0F8FE0346002B02D0664BFB61AFE061
:1017C0007B681B6803F0F003E02B18D101233B7406
:1017D00000237B745E23BB747B6801331B7803F0AA
:1017E0007F03DBB2FB747B6802331B783B757B683D
:1017F00003331B787B7507F11003FB6190E07B6876
:101800001A68FB6804331B685A40FB6808331B687E
:101810001340002B12D07B681B689BB24FF6A96265
:1018200093420BD0FB680C331B68002B03D0FB6882
:101830000C33BB6102E06FF003037DE0464B1B7885
:101840001946464A0B465B000B44DB001344143335
:101850001B78012B25D9404B1B7819463F4A0B4674
:101860005B000B44DB00134408331B68FA689A42A0
:1018700017D1BB691A68384B1B781846374903469D
:101880005B000344DB000B4404331B689A4208D11D
:10189000314B1B781A46B968F868FFF7C5FE034656
:1018A0004AE00023FB7531E0FA7D2C4913465B00CA
:1018B0001344DB000B4414331B78012B23D9FA7D2E
:1018C000264913465B001344DB000B4408331B68B6
:1018D000FA689A4217D1BB691968FA7D1F48134606
:1018E0005B001344DB00034404331B6899420AD1B4
:1018F000194AFB7D1370FB7D1A46B968F868FFF73B
:1019000093FE034618E0FB7D0133FB75FB7D092B3D
:10191000CAD9BA68B969F86800F022F803460BE042
:10192000FB6803F126024FF400630093FB69B9687A
:10193000F86801F0D5FD034618462037BD4680BD46
:10194000AC720108FC730108247301084C7401088F
:10195000EC730108707A0108E0840020F083002015
:1019600080B58CB002AFF860B9607A60FB6826334E
:101970007B61FF2387F8273000233B62BB681B682D
:10198000F968184600F00EFE0346002B0CD1BB6828
:101990001B6803F0F003E02B06D0BB68002B03D0DC
:1019A000BB681B68002B02D16FF00F0301E1FA68DE
:1019B0000121B868FFF760FB03467B82B7F912305C
:1019C000002B02DA7B8A5BB2F3E07B8A7E2B06D99E
:1019D0007A4B40F2C1327A497A4801F013FE7B8A91
:1019E0007B747A7C784913465B001344DB000B441C
:1019F00014331B78002B15D101233B627A7C72498A
:101A000013465B001344DB000B44143301221A70AD
:101A10007A7C6D4913465B001344DB000B440833AA
:101A2000FA681A607A7C684913465B001344DB004D
:101A30000B4414331B78012B11D07A7C6249134676
:101A40005B001344DB000B4414331B78012B06D8D6
:101A50005A4B40F2CD325D495A4801F0D3FD3B6A02
:101A6000002B02D17B68002B0CD1B968F86800F01C
:101A700063F9034687F827307B68002B02D197F97A
:101A8000273096E07B68002B06D14C4B40F2E132C8
:101A90004F494C4801F0B6FD7A7C4B4913465B0038
:101AA0001344DB000B4414331B78012B17D9494A2C
:101AB0007B7C13707A7C13465B001344DB00083395
:101AC000414A134404334FF4006200927A69796802
:101AD000F86801F005FD034687F8273067E07A7C57
:101AE000394913465B001344DB000B4414331B7865
:101AF000012B5CD10023BB617B68FB611CE0FB69AF
:101B00005A89FB691B899A420AD1FB691B68002B21
:101B100006D02A4B40F2F1322F492A4801F072FDDB
:101B2000FB691B7B03F04003002B02D00123BB6148
:101B300005E0FB691B68FB61FB69002BDFD1BB691A
:101B4000002B07D07A684FF420710E20F8F7B0FD13
:101B5000F86104E07B68FB61F869F8F7C3FBFB6997
:101B6000002B21D07A7C184913465B001344DB001C
:101B70000B441B68002B0AD07A7C134913465B0088
:101B80001344DB000B441B681846F8F70BFB7A7C08
:101B90000D4913465B001344DB000B44FA691A60DD
:101BA000002387F8273002E0FF2387F8273097F9D2
:101BB000273018462837BD4680BD00BFAC720108EB
:101BC0005874010824730108F08300206874010828
:101BD0004C740108E08400209074010880B58AB03C
:101BE00002AFF860B9607A603B600023FB77FB6866
:101BF000002B06D13A4B40F257423A493A4801F09D
:101C000001FD4FF420721C210E20F7F7E7FFB861A9
