
f767zit6.elf:     file format elf32-littlearm

Sections:
Idx Name          Size      VMA       LMA       File off  Algn
  0 .isr_vector   000001f8  08000000  08000000  00010000  2**0
                  CONTENTS, ALLOC, LOAD, READONLY, DATA
  1 .text         000144e4  08000200  08000200  00010200  2**4
                  CONTENTS, ALLOC, LOAD, READONLY, CODE
  2 .rodata       000034e4  080146e4  080146e4  000246e4  2**2
                  CONTENTS, ALLOC, LOAD, READONLY, DATA
  3 .ARM.extab    00000000  08017bc8  08017bc8  000301d4  2**0
                  CONTENTS
  4 .ARM          00000008  08017bc8  08017bc8  00027bc8  2**2
                  CONTENTS, ALLOC, LOAD, READONLY, DATA
  5 .preinit_array 00000000  08017bd0  08017bd0  000301d4  2**0
                  CONTENTS, ALLOC, LOAD, DATA
  6 .init_array   00000004  08017bd0  08017bd0  00027bd0  2**2
                  CONTENTS, ALLOC, LOAD, DATA
  7 .fini_array   00000004  08017bd4  08017bd4  00027bd4  2**2
                  CONTENTS, ALLOC, LOAD, DATA
  8 .data         00000094  20000000  08017bd8  00030000  2**2
                  CONTENTS, ALLOC, LOAD, DATA
  9 .RxDecripSection 000000a0  20000094  08017c6c  00030094  2**2
                  CONTENTS, ALLOC, LOAD, DATA
 10 .TxDecripSection 000000a0  20000134  08017d0c  00030134  2**2
                  CONTENTS, ALLOC, LOAD, DATA
 11 .bss          00008338  200001d4  08017dac  000301d4  2**2
                  ALLOC
 12 ._user_heap_stack 00000604  2000850c  08017dac  0003850c  2**0
                  ALLOC
 13 .ARM.attributes 0000002e  00000000  00000000  000301d4  2**0
                  CONTENTS, READONLY
 14 .debug_info   00027a8c  00000000  00000000  00030202  2**0
                  CONTENTS, READONLY, DEBUGGING, OCTETS
 15 .debug_abbrev 00006150  00000000  00000000  00057c8e  2**0
                  CONTENTS, READONLY, DEBUGGING, OCTETS
 16 .debug_aranges 00001cd8  00000000  00000000  0005dde0  2**3
                  CONTENTS, READONLY, DEBUGGING, OCTETS
 17 .debug_ranges 00001c10  00000000  00000000  0005fab8  2**3
                  CONTENTS, READONLY, DEBUGGING, OCTETS
 18 .debug_macro  00035974  00000000  00000000  000616c8  2**0
                  CONTENTS, READONLY, DEBUGGING, OCTETS
 19 .debug_line   0002f3a8  00000000  00000000  0009703c  2**0
                  CONTENTS, READONLY, DEBUGGING, OCTETS
 20 .debug_str    00114c89  00000000  00000000  000c63e4  2**0
                  CONTENTS, READONLY, DEBUGGING, OCTETS
 21 .comment      00000050  00000000  00000000  001db06d  2**0
                  CONTENTS, READONLY
 22 .debug_frame  00007fb0  00000000  00000000  001db0c0  2**2
                  CONTENTS, READONLY, DEBUGGING, OCTETS

Disassembly of section .text:

08000200 <__do_global_dtors_aux>:
 8000200:	b510      	push	{r4, lr}
 8000202:	4c05      	ldr	r4, [pc, #20]	; (8000218 <__do_global_dtors_aux+0x18>)
 8000204:	7823      	ldrb	r3, [r4, #0]
 8000206:	b933      	cbnz	r3, 8000216 <__do_global_dtors_aux+0x16>
 8000208:	4b04      	ldr	r3, [pc, #16]	; (800021c <__do_global_dtors_aux+0x1c>)
 800020a:	b113      	cbz	r3, 8000212 <__do_global_dtors_aux+0x12>
 800020c:	4804      	ldr	r0, [pc, #16]	; (8000220 <__do_global_dtors_aux+0x20>)
 800020e:	f3af 8000 	nop.w
 8000212:	2301      	movs	r3, #1
 8000214:	7023      	strb	r3, [r4, #0]
 8000216:	bd10      	pop	{r4, pc}
 8000218:	200001d4 	.word	0x200001d4
 800021c:	00000000 	.word	0x00000000
 8000220:	080146cc 	.word	0x080146cc

08000224 <frame_dummy>:
 8000224:	b508      	push	{r3, lr}
 8000226:	4b03      	ldr	r3, [pc, #12]	; (8000234 <frame_dummy+0x10>)
 8000228:	b11b      	cbz	r3, 8000232 <frame_dummy+0xe>
 800022a:	4903      	ldr	r1, [pc, #12]	; (8000238 <frame_dummy+0x14>)
 800022c:	4803      	ldr	r0, [pc, #12]	; (800023c <frame_dummy+0x18>)
 800022e:	f3af 8000 	nop.w
 8000232:	bd08      	pop	{r3, pc}
 8000234:	00000000 	.word	0x00000000
 8000238:	200001d8 	.word	0x200001d8
 800023c:	080146cc 	.word	0x080146cc

08000240 <strlen>:
 8000240:	4603      	mov	r3, r0
 8000242:	f813 2b01 	ldrb.w	r2, [r3], #1
 8000246:	2a00      	cmp	r2, #0
 8000248:	d1fb      	bne.n	8000242 <strlen+0x2>
 800024a:	1a18      	subs	r0, r3, r0
 800024c:	3801      	subs	r0, #1
 800024e:	4770      	bx	lr

08000250 <memchr>:
 8000250:	f001 01ff 	and.w	r1, r1, #255	; 0xff
 8000254:	2a10      	cmp	r2, #16
 8000256:	db2b      	blt.n	80002b0 <memchr+0x60>
 8000258:	f010 0f07 	tst.w	r0, #7
 800025c:	d008      	beq.n	8000270 <memchr+0x20>
 800025e:	f810 3b01 	ldrb.w	r3, [r0], #1
 8000262:	3a01      	subs	r2, #1
 8000264:	428b      	cmp	r3, r1
 8000266:	d02d      	beq.n	80002c4 <memchr+0x74>
 8000268:	f010 0f07 	tst.w	r0, #7
 800026c:	b342      	cbz	r2, 80002c0 <memchr+0x70>
 800026e:	d1f6      	bne.n	800025e <memchr+0xe>
 8000270:	b4f0      	push	{r4, r5, r6, r7}
 8000272:	ea41 2101 	orr.w	r1, r1, r1, lsl #8
 8000276:	ea41 4101 	orr.w	r1, r1, r1, lsl #16
 800027a:	f022 0407 	bic.w	r4, r2, #7
 800027e:	f07f 0700 	mvns.w	r7, #0
 8000282:	2300      	movs	r3, #0
 8000284:	e8f0 5602 	ldrd	r5, r6, [r0], #8
 8000288:	3c08      	subs	r4, #8
 800028a:	ea85 0501 	eor.w	r5, r5, r1
 800028e:	ea86 0601 	eor.w	r6, r6, r1
 8000292:	fa85 f547 	uadd8	r5, r5, r7
 8000296:	faa3 f587 	sel	r5, r3, r7
 800029a:	fa86 f647 	uadd8	r6, r6, r7
 800029e:	faa5 f687 	sel	r6, r5, r7
 80002a2:	b98e      	cbnz	r6, 80002c8 <memchr+0x78>
 80002a4:	d1ee      	bne.n	8000284 <memchr+0x34>
 80002a6:	bcf0      	pop	{r4, r5, r6, r7}
 80002a8:	f001 01ff 	and.w	r1, r1, #255	; 0xff
 80002ac:	f002 0207 	and.w	r2, r2, #7
 80002b0:	b132      	cbz	r2, 80002c0 <memchr+0x70>
 80002b2:	f810 3b01 	ldrb.w	r3, [r0], #1
 80002b6:	3a01      	subs	r2, #1
 80002b8:	ea83 0301 	eor.w	r3, r3, r1
 80002bc:	b113      	cbz	r3, 80002c4 <memchr+0x74>
 80002be:	d1f8      	bne.n	80002b2 <memchr+0x62>
 80002c0:	2000      	movs	r0, #0
 80002c2:	4770      	bx	lr
 80002c4:	3801      	subs	r0, #1
 80002c6:	4770      	bx	lr
 80002c8:	2d00      	cmp	r5, #0
 80002ca:	bf06      	itte	eq
 80002cc:	4635      	moveq	r5, r6
 80002ce:	3803      	subeq	r0, #3
 80002d0:	3807      	subne	r0, #7
 80002d2:	f015 0f01 	tst.w	r5, #1
 80002d6:	d107      	bne.n	80002e8 <memchr+0x98>
 80002d8:	3001      	adds	r0, #1
 80002da:	f415 7f80 	tst.w	r5, #256	; 0x100
 80002de:	bf02      	ittt	eq
 80002e0:	3001      	addeq	r0, #1
 80002e2:	f415 3fc0 	tsteq.w	r5, #98304	; 0x18000
 80002e6:	3001      	addeq	r0, #1
 80002e8:	bcf0      	pop	{r4, r5, r6, r7}
 80002ea:	3801      	subs	r0, #1
 80002ec:	4770      	bx	lr
 80002ee:	bf00      	nop

080002f0 <__aeabi_uldivmod>:
 80002f0:	b953      	cbnz	r3, 8000308 <__aeabi_uldivmod+0x18>
 80002f2:	b94a      	cbnz	r2, 8000308 <__aeabi_uldivmod+0x18>
 80002f4:	2900      	cmp	r1, #0
 80002f6:	bf08      	it	eq
 80002f8:	2800      	cmpeq	r0, #0
 80002fa:	bf1c      	itt	ne
 80002fc:	f04f 31ff 	movne.w	r1, #4294967295
 8000300:	f04f 30ff 	movne.w	r0, #4294967295
 8000304:	f000 b974 	b.w	80005f0 <__aeabi_idiv0>
 8000308:	f1ad 0c08 	sub.w	ip, sp, #8
 800030c:	e96d ce04 	strd	ip, lr, [sp, #-16]!
 8000310:	f000 f806 	bl	8000320 <__udivmoddi4>
 8000314:	f8dd e004 	ldr.w	lr, [sp, #4]
 8000318:	e9dd 2302 	ldrd	r2, r3, [sp, #8]
 800031c:	b004      	add	sp, #16
 800031e:	4770      	bx	lr

08000320 <__udivmoddi4>:
 8000320:	e92d 47f0 	stmdb	sp!, {r4, r5, r6, r7, r8, r9, sl, lr}
 8000324:	9d08      	ldr	r5, [sp, #32]
 8000326:	4604      	mov	r4, r0
 8000328:	468e      	mov	lr, r1
 800032a:	2b00      	cmp	r3, #0
 800032c:	d14d      	bne.n	80003ca <__udivmoddi4+0xaa>
 800032e:	428a      	cmp	r2, r1
 8000330:	4694      	mov	ip, r2
 8000332:	d969      	bls.n	8000408 <__udivmoddi4+0xe8>
 8000334:	fab2 f282 	clz	r2, r2
 8000338:	b152      	cbz	r2, 8000350 <__udivmoddi4+0x30>
 800033a:	fa01 f302 	lsl.w	r3, r1, r2
 800033e:	f1c2 0120 	rsb	r1, r2, #32
 8000342:	fa20 f101 	lsr.w	r1, r0, r1
 8000346:	fa0c fc02 	lsl.w	ip, ip, r2
 800034a:	ea41 0e03 	orr.w	lr, r1, r3
 800034e:	4094      	lsls	r4, r2
 8000350:	ea4f 481c 	mov.w	r8, ip, lsr #16
 8000354:	0c21      	lsrs	r1, r4, #16
 8000356:	fbbe f6f8 	udiv	r6, lr, r8
 800035a:	fa1f f78c 	uxth.w	r7, ip
 800035e:	fb08 e316 	mls	r3, r8, r6, lr
 8000362:	ea41 4303 	orr.w	r3, r1, r3, lsl #16
 8000366:	fb06 f107 	mul.w	r1, r6, r7
 800036a:	4299      	cmp	r1, r3
 800036c:	d90a      	bls.n	8000384 <__udivmoddi4+0x64>
 800036e:	eb1c 0303 	adds.w	r3, ip, r3
 8000372:	f106 30ff 	add.w	r0, r6, #4294967295
 8000376:	f080 811f 	bcs.w	80005b8 <__udivmoddi4+0x298>
 800037a:	4299      	cmp	r1, r3
 800037c:	f240 811c 	bls.w	80005b8 <__udivmoddi4+0x298>
 8000380:	3e02      	subs	r6, #2
 8000382:	4463      	add	r3, ip
 8000384:	1a5b      	subs	r3, r3, r1
 8000386:	b2a4      	uxth	r4, r4
 8000388:	fbb3 f0f8 	udiv	r0, r3, r8
 800038c:	fb08 3310 	mls	r3, r8, r0, r3
 8000390:	ea44 4403 	orr.w	r4, r4, r3, lsl #16
 8000394:	fb00 f707 	mul.w	r7, r0, r7
 8000398:	42a7      	cmp	r7, r4
 800039a:	d90a      	bls.n	80003b2 <__udivmoddi4+0x92>
 800039c:	eb1c 0404 	adds.w	r4, ip, r4
 80003a0:	f100 33ff 	add.w	r3, r0, #4294967295
 80003a4:	f080 810a 	bcs.w	80005bc <__udivmoddi4+0x29c>
 80003a8:	42a7      	cmp	r7, r4
 80003aa:	f240 8107 	bls.w	80005bc <__udivmoddi4+0x29c>
 80003ae:	4464      	add	r4, ip
 80003b0:	3802      	subs	r0, #2
 80003b2:	ea40 4006 	orr.w	r0, r0, r6, lsl #16
 80003b6:	1be4      	subs	r4, r4, r7
 80003b8:	2600      	movs	r6, #0
 80003ba:	b11d      	cbz	r5, 80003c4 <__udivmoddi4+0xa4>
 80003bc:	40d4      	lsrs	r4, r2
 80003be:	2300      	movs	r3, #0
 80003c0:	e9c5 4300 	strd	r4, r3, [r5]
 80003c4:	4631      	mov	r1, r6
 80003c6:	e8bd 87f0 	ldmia.w	sp!, {r4, r5, r6, r7, r8, r9, sl, pc}
 80003ca:	428b      	cmp	r3, r1
 80003cc:	d909      	bls.n	80003e2 <__udivmoddi4+0xc2>
 80003ce:	2d00      	cmp	r5, #0
 80003d0:	f000 80ef 	beq.w	80005b2 <__udivmoddi4+0x292>
 80003d4:	2600      	movs	r6, #0
 80003d6:	e9c5 0100 	strd	r0, r1, [r5]
 80003da:	4630      	mov	r0, r6
 80003dc:	4631      	mov	r1, r6
 80003de:	e8bd 87f0 	ldmia.w	sp!, {r4, r5, r6, r7, r8, r9, sl, pc}
 80003e2:	fab3 f683 	clz	r6, r3
 80003e6:	2e00      	cmp	r6, #0
 80003e8:	d14a      	bne.n	8000480 <__udivmoddi4+0x160>
 80003ea:	428b      	cmp	r3, r1
 80003ec:	d302      	bcc.n	80003f4 <__udivmoddi4+0xd4>
 80003ee:	4282      	cmp	r2, r0
 80003f0:	f200 80f9 	bhi.w	80005e6 <__udivmoddi4+0x2c6>
 80003f4:	1a84      	subs	r4, r0, r2
 80003f6:	eb61 0303 	sbc.w	r3, r1, r3
 80003fa:	2001      	movs	r0, #1
 80003fc:	469e      	mov	lr, r3
 80003fe:	2d00      	cmp	r5, #0
 8000400:	d0e0      	beq.n	80003c4 <__udivmoddi4+0xa4>
 8000402:	e9c5 4e00 	strd	r4, lr, [r5]
 8000406:	e7dd      	b.n	80003c4 <__udivmoddi4+0xa4>
 8000408:	b902      	cbnz	r2, 800040c <__udivmoddi4+0xec>
 800040a:	deff      	udf	#255	; 0xff
 800040c:	fab2 f282 	clz	r2, r2
 8000410:	2a00      	cmp	r2, #0
 8000412:	f040 8092 	bne.w	800053a <__udivmoddi4+0x21a>
 8000416:	eba1 010c 	sub.w	r1, r1, ip
 800041a:	ea4f 471c 	mov.w	r7, ip, lsr #16
 800041e:	fa1f fe8c 	uxth.w	lr, ip
 8000422:	2601      	movs	r6, #1
 8000424:	0c20      	lsrs	r0, r4, #16
 8000426:	fbb1 f3f7 	udiv	r3, r1, r7
 800042a:	fb07 1113 	mls	r1, r7, r3, r1
 800042e:	ea40 4101 	orr.w	r1, r0, r1, lsl #16
 8000432:	fb0e f003 	mul.w	r0, lr, r3
 8000436:	4288      	cmp	r0, r1
 8000438:	d908      	bls.n	800044c <__udivmoddi4+0x12c>
 800043a:	eb1c 0101 	adds.w	r1, ip, r1
 800043e:	f103 38ff 	add.w	r8, r3, #4294967295
 8000442:	d202      	bcs.n	800044a <__udivmoddi4+0x12a>
 8000444:	4288      	cmp	r0, r1
 8000446:	f200 80cb 	bhi.w	80005e0 <__udivmoddi4+0x2c0>
 800044a:	4643      	mov	r3, r8
 800044c:	1a09      	subs	r1, r1, r0
 800044e:	b2a4      	uxth	r4, r4
 8000450:	fbb1 f0f7 	udiv	r0, r1, r7
 8000454:	fb07 1110 	mls	r1, r7, r0, r1
 8000458:	ea44 4401 	orr.w	r4, r4, r1, lsl #16
 800045c:	fb0e fe00 	mul.w	lr, lr, r0
 8000460:	45a6      	cmp	lr, r4
 8000462:	d908      	bls.n	8000476 <__udivmoddi4+0x156>
 8000464:	eb1c 0404 	adds.w	r4, ip, r4
 8000468:	f100 31ff 	add.w	r1, r0, #4294967295
 800046c:	d202      	bcs.n	8000474 <__udivmoddi4+0x154>
 800046e:	45a6      	cmp	lr, r4
 8000470:	f200 80bb 	bhi.w	80005ea <__udivmoddi4+0x2ca>
 8000474:	4608      	mov	r0, r1
 8000476:	eba4 040e 	sub.w	r4, r4, lr
 800047a:	ea40 4003 	orr.w	r0, r0, r3, lsl #16
 800047e:	e79c      	b.n	80003ba <__udivmoddi4+0x9a>
 8000480:	f1c6 0720 	rsb	r7, r6, #32
 8000484:	40b3      	lsls	r3, r6
 8000486:	fa22 fc07 	lsr.w	ip, r2, r7
 800048a:	ea4c 0c03 	orr.w	ip, ip, r3
 800048e:	fa20 f407 	lsr.w	r4, r0, r7
 8000492:	fa01 f306 	lsl.w	r3, r1, r6
 8000496:	431c      	orrs	r4, r3
 8000498:	40f9      	lsrs	r1, r7
 800049a:	ea4f 491c 	mov.w	r9, ip, lsr #16
 800049e:	fa00 f306 	lsl.w	r3, r0, r6
 80004a2:	fbb1 f8f9 	udiv	r8, r1, r9
 80004a6:	0c20      	lsrs	r0, r4, #16
 80004a8:	fa1f fe8c 	uxth.w	lr, ip
 80004ac:	fb09 1118 	mls	r1, r9, r8, r1
 80004b0:	ea40 4101 	orr.w	r1, r0, r1, lsl #16
 80004b4:	fb08 f00e 	mul.w	r0, r8, lr
 80004b8:	4288      	cmp	r0, r1
 80004ba:	fa02 f206 	lsl.w	r2, r2, r6
 80004be:	d90b      	bls.n	80004d8 <__udivmoddi4+0x1b8>
 80004c0:	eb1c 0101 	adds.w	r1, ip, r1
 80004c4:	f108 3aff 	add.w	sl, r8, #4294967295
 80004c8:	f080 8088 	bcs.w	80005dc <__udivmoddi4+0x2bc>
 80004cc:	4288      	cmp	r0, r1
 80004ce:	f240 8085 	bls.w	80005dc <__udivmoddi4+0x2bc>
 80004d2:	f1a8 0802 	sub.w	r8, r8, #2
 80004d6:	4461      	add	r1, ip
 80004d8:	1a09      	subs	r1, r1, r0
 80004da:	b2a4      	uxth	r4, r4
 80004dc:	fbb1 f0f9 	udiv	r0, r1, r9
 80004e0:	fb09 1110 	mls	r1, r9, r0, r1
 80004e4:	ea44 4101 	orr.w	r1, r4, r1, lsl #16
 80004e8:	fb00 fe0e 	mul.w	lr, r0, lr
 80004ec:	458e      	cmp	lr, r1
 80004ee:	d908      	bls.n	8000502 <__udivmoddi4+0x1e2>
 80004f0:	eb1c 0101 	adds.w	r1, ip, r1
 80004f4:	f100 34ff 	add.w	r4, r0, #4294967295
 80004f8:	d26c      	bcs.n	80005d4 <__udivmoddi4+0x2b4>
 80004fa:	458e      	cmp	lr, r1
 80004fc:	d96a      	bls.n	80005d4 <__udivmoddi4+0x2b4>
 80004fe:	3802      	subs	r0, #2
 8000500:	4461      	add	r1, ip
 8000502:	ea40 4008 	orr.w	r0, r0, r8, lsl #16
 8000506:	fba0 9402 	umull	r9, r4, r0, r2
 800050a:	eba1 010e 	sub.w	r1, r1, lr
 800050e:	42a1      	cmp	r1, r4
 8000510:	46c8      	mov	r8, r9
 8000512:	46a6      	mov	lr, r4
 8000514:	d356      	bcc.n	80005c4 <__udivmoddi4+0x2a4>
 8000516:	d053      	beq.n	80005c0 <__udivmoddi4+0x2a0>
 8000518:	b15d      	cbz	r5, 8000532 <__udivmoddi4+0x212>
 800051a:	ebb3 0208 	subs.w	r2, r3, r8
 800051e:	eb61 010e 	sbc.w	r1, r1, lr
 8000522:	fa01 f707 	lsl.w	r7, r1, r7
 8000526:	fa22 f306 	lsr.w	r3, r2, r6
 800052a:	40f1      	lsrs	r1, r6
 800052c:	431f      	orrs	r7, r3
 800052e:	e9c5 7100 	strd	r7, r1, [r5]
 8000532:	2600      	movs	r6, #0
 8000534:	4631      	mov	r1, r6
 8000536:	e8bd 87f0 	ldmia.w	sp!, {r4, r5, r6, r7, r8, r9, sl, pc}
 800053a:	f1c2 0320 	rsb	r3, r2, #32
 800053e:	40d8      	lsrs	r0, r3
 8000540:	fa0c fc02 	lsl.w	ip, ip, r2
 8000544:	fa21 f303 	lsr.w	r3, r1, r3
 8000548:	4091      	lsls	r1, r2
 800054a:	4301      	orrs	r1, r0
 800054c:	ea4f 471c 	mov.w	r7, ip, lsr #16
 8000550:	fa1f fe8c 	uxth.w	lr, ip
 8000554:	fbb3 f0f7 	udiv	r0, r3, r7
 8000558:	fb07 3610 	mls	r6, r7, r0, r3
 800055c:	0c0b      	lsrs	r3, r1, #16
 800055e:	ea43 4306 	orr.w	r3, r3, r6, lsl #16
 8000562:	fb00 f60e 	mul.w	r6, r0, lr
 8000566:	429e      	cmp	r6, r3
 8000568:	fa04 f402 	lsl.w	r4, r4, r2
 800056c:	d908      	bls.n	8000580 <__udivmoddi4+0x260>
 800056e:	eb1c 0303 	adds.w	r3, ip, r3
 8000572:	f100 38ff 	add.w	r8, r0, #4294967295
 8000576:	d22f      	bcs.n	80005d8 <__udivmoddi4+0x2b8>
 8000578:	429e      	cmp	r6, r3
 800057a:	d92d      	bls.n	80005d8 <__udivmoddi4+0x2b8>
 800057c:	3802      	subs	r0, #2
 800057e:	4463      	add	r3, ip
 8000580:	1b9b      	subs	r3, r3, r6
 8000582:	b289      	uxth	r1, r1
 8000584:	fbb3 f6f7 	udiv	r6, r3, r7
 8000588:	fb07 3316 	mls	r3, r7, r6, r3
 800058c:	ea41 4103 	orr.w	r1, r1, r3, lsl #16
 8000590:	fb06 f30e 	mul.w	r3, r6, lr
 8000594:	428b      	cmp	r3, r1
 8000596:	d908      	bls.n	80005aa <__udivmoddi4+0x28a>
 8000598:	eb1c 0101 	adds.w	r1, ip, r1
 800059c:	f106 38ff 	add.w	r8, r6, #4294967295
 80005a0:	d216      	bcs.n	80005d0 <__udivmoddi4+0x2b0>
 80005a2:	428b      	cmp	r3, r1
 80005a4:	d914      	bls.n	80005d0 <__udivmoddi4+0x2b0>
 80005a6:	3e02      	subs	r6, #2
 80005a8:	4461      	add	r1, ip
 80005aa:	1ac9      	subs	r1, r1, r3
 80005ac:	ea46 4600 	orr.w	r6, r6, r0, lsl #16
 80005b0:	e738      	b.n	8000424 <__udivmoddi4+0x104>
 80005b2:	462e      	mov	r6, r5
 80005b4:	4628      	mov	r0, r5
 80005b6:	e705      	b.n	80003c4 <__udivmoddi4+0xa4>
 80005b8:	4606      	mov	r6, r0
 80005ba:	e6e3      	b.n	8000384 <__udivmoddi4+0x64>
 80005bc:	4618      	mov	r0, r3
 80005be:	e6f8      	b.n	80003b2 <__udivmoddi4+0x92>
 80005c0:	454b      	cmp	r3, r9
 80005c2:	d2a9      	bcs.n	8000518 <__udivmoddi4+0x1f8>
 80005c4:	ebb9 0802 	subs.w	r8, r9, r2
 80005c8:	eb64 0e0c 	sbc.w	lr, r4, ip
 80005cc:	3801      	subs	r0, #1
 80005ce:	e7a3      	b.n	8000518 <__udivmoddi4+0x1f8>
 80005d0:	4646      	mov	r6, r8
 80005d2:	e7ea      	b.n	80005aa <__udivmoddi4+0x28a>
 80005d4:	4620      	mov	r0, r4
 80005d6:	e794      	b.n	8000502 <__udivmoddi4+0x1e2>
 80005d8:	4640      	mov	r0, r8
 80005da:	e7d1      	b.n	8000580 <__udivmoddi4+0x260>
 80005dc:	46d0      	mov	r8, sl
 80005de:	e77b      	b.n	80004d8 <__udivmoddi4+0x1b8>
 80005e0:	3b02      	subs	r3, #2
 80005e2:	4461      	add	r1, ip
 80005e4:	e732      	b.n	800044c <__udivmoddi4+0x12c>
 80005e6:	4630      	mov	r0, r6
 80005e8:	e709      	b.n	80003fe <__udivmoddi4+0xde>
 80005ea:	4464      	add	r4, ip
 80005ec:	3802      	subs	r0, #2
 80005ee:	e742      	b.n	8000476 <__udivmoddi4+0x156>

080005f0 <__aeabi_idiv0>:
 80005f0:	4770      	bx	lr
 80005f2:	bf00      	nop

080005f4 <MX_DMA_Init>:

/**
  * Enable DMA controller clock
  */
void MX_DMA_Init(void)
{
 80005f4:	b580      	push	{r7, lr}
 80005f6:	b082      	sub	sp, #8
 80005f8:	af00      	add	r7, sp, #0

  /* DMA controller clock enable */
  __HAL_RCC_DMA1_CLK_ENABLE();
 80005fa:	4b0c      	ldr	r3, [pc, #48]	; (800062c <MX_DMA_Init+0x38>)
 80005fc:	6b1b      	ldr	r3, [r3, #48]	; 0x30
 80005fe:	4a0b      	ldr	r2, [pc, #44]	; (800062c <MX_DMA_Init+0x38>)
 8000600:	f443 1300 	orr.w	r3, r3, #2097152	; 0x200000
 8000604:	6313      	str	r3, [r2, #48]	; 0x30
 8000606:	4b09      	ldr	r3, [pc, #36]	; (800062c <MX_DMA_Init+0x38>)
 8000608:	6b1b      	ldr	r3, [r3, #48]	; 0x30
 800060a:	f403 1300 	and.w	r3, r3, #2097152	; 0x200000
 800060e:	607b      	str	r3, [r7, #4]
 8000610:	687b      	ldr	r3, [r7, #4]

  /* DMA interrupt init */
  /* DMA1_Stream1_IRQn interrupt configuration */
  HAL_NVIC_SetPriority(DMA1_Stream1_IRQn, 0, 0);
 8000612:	2200      	movs	r2, #0
 8000614:	2100      	movs	r1, #0
 8000616:	200c      	movs	r0, #12
 8000618:	f000 ff79 	bl	800150e <HAL_NVIC_SetPriority>
  HAL_NVIC_EnableIRQ(DMA1_Stream1_IRQn);
 800061c:	200c      	movs	r0, #12
 800061e:	f000 ff92 	bl	8001546 <HAL_NVIC_EnableIRQ>

}
 8000622:	bf00      	nop
 8000624:	3708      	adds	r7, #8
 8000626:	46bd      	mov	sp, r7
 8000628:	bd80      	pop	{r7, pc}
 800062a:	bf00      	nop
 800062c:	40023800 	.word	0x40023800

08000630 <MX_GPIO_Init>:
        * EXTI
        * Free pins are configured automatically as Analog (this feature is enabled through
        * the Code Generation settings)
*/
void MX_GPIO_Init(void)
{
 8000630:	b580      	push	{r7, lr}
 8000632:	b08e      	sub	sp, #56	; 0x38
 8000634:	af00      	add	r7, sp, #0

  GPIO_InitTypeDef GPIO_InitStruct = {0};
 8000636:	f107 0324 	add.w	r3, r7, #36	; 0x24
 800063a:	2200      	movs	r2, #0
 800063c:	601a      	str	r2, [r3, #0]
 800063e:	605a      	str	r2, [r3, #4]
 8000640:	609a      	str	r2, [r3, #8]
 8000642:	60da      	str	r2, [r3, #12]
 8000644:	611a      	str	r2, [r3, #16]

  /* GPIO Ports Clock Enable */
  __HAL_RCC_GPIOE_CLK_ENABLE();
 8000646:	4b6f      	ldr	r3, [pc, #444]	; (8000804 <MX_GPIO_Init+0x1d4>)
 8000648:	6b1b      	ldr	r3, [r3, #48]	; 0x30
 800064a:	4a6e      	ldr	r2, [pc, #440]	; (8000804 <MX_GPIO_Init+0x1d4>)
 800064c:	f043 0310 	orr.w	r3, r3, #16
 8000650:	6313      	str	r3, [r2, #48]	; 0x30
 8000652:	4b6c      	ldr	r3, [pc, #432]	; (8000804 <MX_GPIO_Init+0x1d4>)
 8000654:	6b1b      	ldr	r3, [r3, #48]	; 0x30
 8000656:	f003 0310 	and.w	r3, r3, #16
 800065a:	623b      	str	r3, [r7, #32]
 800065c:	6a3b      	ldr	r3, [r7, #32]
  __HAL_RCC_GPIOC_CLK_ENABLE();
 800065e:	4b69      	ldr	r3, [pc, #420]	; (8000804 <MX_GPIO_Init+0x1d4>)
 8000660:	6b1b      	ldr	r3, [r3, #48]	; 0x30
 8000662:	4a68      	ldr	r2, [pc, #416]	; (8000804 <MX_GPIO_Init+0x1d4>)
 8000664:	f043 0304 	orr.w	r3, r3, #4
 8000668:	6313      	str	r3, [r2, #48]	; 0x30
 800066a:	4b66      	ldr	r3, [pc, #408]	; (8000804 <MX_GPIO_Init+0x1d4>)
 800066c:	6b1b      	ldr	r3, [r3, #48]	; 0x30
 800066e:	f003 0304 	and.w	r3, r3, #4
 8000672:	61fb      	str	r3, [r7, #28]
 8000674:	69fb      	ldr	r3, [r7, #28]
  __HAL_RCC_GPIOF_CLK_ENABLE();
 8000676:	4b63      	ldr	r3, [pc, #396]	; (8000804 <MX_GPIO_Init+0x1d4>)
 8000678:	6b1b      	ldr	r3, [r3, #48]	; 0x30
 800067a:	4a62      	ldr	r2, [pc, #392]	; (8000804 <MX_GPIO_Init+0x1d4>)
 800067c:	f043 0320 	orr.w	r3, r3, #32
 8000680:	6313      	str	r3, [r2, #48]	; 0x30
 8000682:	4b60      	ldr	r3, [pc, #384]	; (8000804 <MX_GPIO_Init+0x1d4>)
 8000684:	6b1b      	ldr	r3, [r3, #48]	; 0x30
 8000686:	f003 0320 	and.w	r3, r3, #32
 800068a:	61bb      	str	r3, [r7, #24]
 800068c:	69bb      	ldr	r3, [r7, #24]
  __HAL_RCC_GPIOH_CLK_ENABLE();
 800068e:	4b5d      	ldr	r3, [pc, #372]	; (8000804 <MX_GPIO_Init+0x1d4>)
 8000690:	6b1b      	ldr	r3, [r3, #48]	; 0x30
 8000692:	4a5c      	ldr	r2, [pc, #368]	; (8000804 <MX_GPIO_Init+0x1d4>)
 8000694:	f043 0380 	orr.w	r3, r3, #128	; 0x80
 8000698:	6313      	str	r3, [r2, #48]	; 0x30
 800069a:	4b5a      	ldr	r3, [pc, #360]	; (8000804 <MX_GPIO_Init+0x1d4>)
 800069c:	6b1b      	ldr	r3, [r3, #48]	; 0x30
 800069e:	f003 0380 	and.w	r3, r3, #128	; 0x80
 80006a2:	617b      	str	r3, [r7, #20]
 80006a4:	697b      	ldr	r3, [r7, #20]
  __HAL_RCC_GPIOA_CLK_ENABLE();
 80006a6:	4b57      	ldr	r3, [pc, #348]	; (8000804 <MX_GPIO_Init+0x1d4>)
 80006a8:	6b1b      	ldr	r3, [r3, #48]	; 0x30
 80006aa:	4a56      	ldr	r2, [pc, #344]	; (8000804 <MX_GPIO_Init+0x1d4>)
 80006ac:	f043 0301 	orr.w	r3, r3, #1
 80006b0:	6313      	str	r3, [r2, #48]	; 0x30
 80006b2:	4b54      	ldr	r3, [pc, #336]	; (8000804 <MX_GPIO_Init+0x1d4>)
 80006b4:	6b1b      	ldr	r3, [r3, #48]	; 0x30
 80006b6:	f003 0301 	and.w	r3, r3, #1
 80006ba:	613b      	str	r3, [r7, #16]
 80006bc:	693b      	ldr	r3, [r7, #16]
  __HAL_RCC_GPIOB_CLK_ENABLE();
 80006be:	4b51      	ldr	r3, [pc, #324]	; (8000804 <MX_GPIO_Init+0x1d4>)
 80006c0:	6b1b      	ldr	r3, [r3, #48]	; 0x30
 80006c2:	4a50      	ldr	r2, [pc, #320]	; (8000804 <MX_GPIO_Init+0x1d4>)
 80006c4:	f043 0302 	orr.w	r3, r3, #2
 80006c8:	6313      	str	r3, [r2, #48]	; 0x30
 80006ca:	4b4e      	ldr	r3, [pc, #312]	; (8000804 <MX_GPIO_Init+0x1d4>)
 80006cc:	6b1b      	ldr	r3, [r3, #48]	; 0x30
 80006ce:	f003 0302 	and.w	r3, r3, #2
 80006d2:	60fb      	str	r3, [r7, #12]
 80006d4:	68fb      	ldr	r3, [r7, #12]
  __HAL_RCC_GPIOG_CLK_ENABLE();
 80006d6:	4b4b      	ldr	r3, [pc, #300]	; (8000804 <MX_GPIO_Init+0x1d4>)
 80006d8:	6b1b      	ldr	r3, [r3, #48]	; 0x30
 80006da:	4a4a      	ldr	r2, [pc, #296]	; (8000804 <MX_GPIO_Init+0x1d4>)
 80006dc:	f043 0340 	orr.w	r3, r3, #64	; 0x40
 80006e0:	6313      	str	r3, [r2, #48]	; 0x30
 80006e2:	4b48      	ldr	r3, [pc, #288]	; (8000804 <MX_GPIO_Init+0x1d4>)
 80006e4:	6b1b      	ldr	r3, [r3, #48]	; 0x30
 80006e6:	f003 0340 	and.w	r3, r3, #64	; 0x40
 80006ea:	60bb      	str	r3, [r7, #8]
 80006ec:	68bb      	ldr	r3, [r7, #8]
  __HAL_RCC_GPIOD_CLK_ENABLE();
 80006ee:	4b45      	ldr	r3, [pc, #276]	; (8000804 <MX_GPIO_Init+0x1d4>)
 80006f0:	6b1b      	ldr	r3, [r3, #48]	; 0x30
 80006f2:	4a44      	ldr	r2, [pc, #272]	; (8000804 <MX_GPIO_Init+0x1d4>)
 80006f4:	f043 0308 	orr.w	r3, r3, #8
 80006f8:	6313      	str	r3, [r2, #48]	; 0x30
 80006fa:	4b42      	ldr	r3, [pc, #264]	; (8000804 <MX_GPIO_Init+0x1d4>)
 80006fc:	6b1b      	ldr	r3, [r3, #48]	; 0x30
 80006fe:	f003 0308 	and.w	r3, r3, #8
 8000702:	607b      	str	r3, [r7, #4]
 8000704:	687b      	ldr	r3, [r7, #4]

  /*Configure GPIO pin Output Level */
  HAL_GPIO_WritePin(LD2_GPIO_Port, LD2_Pin, GPIO_PIN_RESET);
 8000706:	2200      	movs	r2, #0
 8000708:	2180      	movs	r1, #128	; 0x80
 800070a:	483f      	ldr	r0, [pc, #252]	; (8000808 <MX_GPIO_Init+0x1d8>)
 800070c:	f002 ff02 	bl	8003514 <HAL_GPIO_WritePin>

  /*Configure GPIO pins : PE2 PE3 PE4 PE5
                           PE6 PE7 PE8 PE9
                           PE10 PE11 PE12 PE13
                           PE14 PE15 PE0 PE1 */
  GPIO_InitStruct.Pin = GPIO_PIN_2|GPIO_PIN_3|GPIO_PIN_4|GPIO_PIN_5
 8000710:	f64f 73ff 	movw	r3, #65535	; 0xffff
 8000714:	627b      	str	r3, [r7, #36]	; 0x24
                          |GPIO_PIN_6|GPIO_PIN_7|GPIO_PIN_8|GPIO_PIN_9
                          |GPIO_PIN_10|GPIO_PIN_11|GPIO_PIN_12|GPIO_PIN_13
                          |GPIO_PIN_14|GPIO_PIN_15|GPIO_PIN_0|GPIO_PIN_1;
  GPIO_InitStruct.Mode = GPIO_MODE_ANALOG;
 8000716:	2303      	movs	r3, #3
 8000718:	62bb      	str	r3, [r7, #40]	; 0x28
  GPIO_InitStruct.Pull = GPIO_NOPULL;
 800071a:	2300      	movs	r3, #0
 800071c:	62fb      	str	r3, [r7, #44]	; 0x2c
  HAL_GPIO_Init(GPIOE, &GPIO_InitStruct);
 800071e:	f107 0324 	add.w	r3, r7, #36	; 0x24
 8000722:	4619      	mov	r1, r3
 8000724:	4839      	ldr	r0, [pc, #228]	; (800080c <MX_GPIO_Init+0x1dc>)
 8000726:	f002 fd49 	bl	80031bc <HAL_GPIO_Init>

  /*Configure GPIO pins : PC13 PC14 PC15 PC0
                           PC2 PC3 PC6 PC7
                           PC8 PC9 PC10 PC11
                           PC12 */
  GPIO_InitStruct.Pin = GPIO_PIN_13|GPIO_PIN_14|GPIO_PIN_15|GPIO_PIN_0
 800072a:	f64f 73cd 	movw	r3, #65485	; 0xffcd
 800072e:	627b      	str	r3, [r7, #36]	; 0x24
                          |GPIO_PIN_2|GPIO_PIN_3|GPIO_PIN_6|GPIO_PIN_7
                          |GPIO_PIN_8|GPIO_PIN_9|GPIO_PIN_10|GPIO_PIN_11
                          |GPIO_PIN_12;
  GPIO_InitStruct.Mode = GPIO_MODE_ANALOG;
 8000730:	2303      	movs	r3, #3
 8000732:	62bb      	str	r3, [r7, #40]	; 0x28
  GPIO_InitStruct.Pull = GPIO_NOPULL;
 8000734:	2300      	movs	r3, #0
 8000736:	62fb      	str	r3, [r7, #44]	; 0x2c
  HAL_GPIO_Init(GPIOC, &GPIO_InitStruct);
 8000738:	f107 0324 	add.w	r3, r7, #36	; 0x24
 800073c:	4619      	mov	r1, r3
 800073e:	4834      	ldr	r0, [pc, #208]	; (8000810 <MX_GPIO_Init+0x1e0>)
 8000740:	f002 fd3c 	bl	80031bc <HAL_GPIO_Init>

  /*Configure GPIO pins : PF0 PF1 PF2 PF3
                           PF4 PF5 PF6 PF7
                           PF8 PF9 PF10 PF11
                           PF12 PF13 PF14 PF15 */
  GPIO_InitStruct.Pin = GPIO_PIN_0|GPIO_PIN_1|GPIO_PIN_2|GPIO_PIN_3
 8000744:	f64f 73ff 	movw	r3, #65535	; 0xffff
 8000748:	627b      	str	r3, [r7, #36]	; 0x24
                          |GPIO_PIN_4|GPIO_PIN_5|GPIO_PIN_6|GPIO_PIN_7
                          |GPIO_PIN_8|GPIO_PIN_9|GPIO_PIN_10|GPIO_PIN_11
                          |GPIO_PIN_12|GPIO_PIN_13|GPIO_PIN_14|GPIO_PIN_15;
  GPIO_InitStruct.Mode = GPIO_MODE_ANALOG;
 800074a:	2303      	movs	r3, #3
 800074c:	62bb      	str	r3, [r7, #40]	; 0x28
  GPIO_InitStruct.Pull = GPIO_NOPULL;
 800074e:	2300      	movs	r3, #0
 8000750:	62fb      	str	r3, [r7, #44]	; 0x2c
  HAL_GPIO_Init(GPIOF, &GPIO_InitStruct);
 8000752:	f107 0324 	add.w	r3, r7, #36	; 0x24
 8000756:	4619      	mov	r1, r3
 8000758:	482e      	ldr	r0, [pc, #184]	; (8000814 <MX_GPIO_Init+0x1e4>)
 800075a:	f002 fd2f 	bl	80031bc <HAL_GPIO_Init>

  /*Configure GPIO pins : PH0 PH1 */
  GPIO_InitStruct.Pin = GPIO_PIN_0|GPIO_PIN_1;
 800075e:	2303      	movs	r3, #3
 8000760:	627b      	str	r3, [r7, #36]	; 0x24
  GPIO_InitStruct.Mode = GPIO_MODE_ANALOG;
 8000762:	2303      	movs	r3, #3
 8000764:	62bb      	str	r3, [r7, #40]	; 0x28
  GPIO_InitStruct.Pull = GPIO_NOPULL;
 8000766:	2300      	movs	r3, #0
 8000768:	62fb      	str	r3, [r7, #44]	; 0x2c
  HAL_GPIO_Init(GPIOH, &GPIO_InitStruct);
 800076a:	f107 0324 	add.w	r3, r7, #36	; 0x24
 800076e:	4619      	mov	r1, r3
 8000770:	4829      	ldr	r0, [pc, #164]	; (8000818 <MX_GPIO_Init+0x1e8>)
 8000772:	f002 fd23 	bl	80031bc <HAL_GPIO_Init>

  /*Configure GPIO pins : PA0 PA3 PA4 PA5
                           PA6 PA8 PA9 PA10
                           PA11 PA12 PA15 */
  GPIO_InitStruct.Pin = GPIO_PIN_0|GPIO_PIN_3|GPIO_PIN_4|GPIO_PIN_5
 8000776:	f649 7379 	movw	r3, #40825	; 0x9f79
 800077a:	627b      	str	r3, [r7, #36]	; 0x24
                          |GPIO_PIN_6|GPIO_PIN_8|GPIO_PIN_9|GPIO_PIN_10
                          |GPIO_PIN_11|GPIO_PIN_12|GPIO_PIN_15;
  GPIO_InitStruct.Mode = GPIO_MODE_ANALOG;
 800077c:	2303      	movs	r3, #3
 800077e:	62bb      	str	r3, [r7, #40]	; 0x28
  GPIO_InitStruct.Pull = GPIO_NOPULL;
 8000780:	2300      	movs	r3, #0
 8000782:	62fb      	str	r3, [r7, #44]	; 0x2c
  HAL_GPIO_Init(GPIOA, &GPIO_InitStruct);
 8000784:	f107 0324 	add.w	r3, r7, #36	; 0x24
 8000788:	4619      	mov	r1, r3
 800078a:	4824      	ldr	r0, [pc, #144]	; (800081c <MX_GPIO_Init+0x1ec>)
 800078c:	f002 fd16 	bl	80031bc <HAL_GPIO_Init>

  /*Configure GPIO pins : PB0 PB1 PB2 PB10
                           PB11 PB12 PB14 PB15
                           PB3 PB4 PB5 PB6
                           PB8 PB9 */
  GPIO_InitStruct.Pin = GPIO_PIN_0|GPIO_PIN_1|GPIO_PIN_2|GPIO_PIN_10
 8000790:	f64d 737f 	movw	r3, #57215	; 0xdf7f
 8000794:	627b      	str	r3, [r7, #36]	; 0x24
                          |GPIO_PIN_11|GPIO_PIN_12|GPIO_PIN_14|GPIO_PIN_15
                          |GPIO_PIN_3|GPIO_PIN_4|GPIO_PIN_5|GPIO_PIN_6
                          |GPIO_PIN_8|GPIO_PIN_9;
  GPIO_InitStruct.Mode = GPIO_MODE_ANALOG;
 8000796:	2303      	movs	r3, #3
 8000798:	62bb      	str	r3, [r7, #40]	; 0x28
  GPIO_InitStruct.Pull = GPIO_NOPULL;
 800079a:	2300      	movs	r3, #0
 800079c:	62fb      	str	r3, [r7, #44]	; 0x2c
  HAL_GPIO_Init(GPIOB, &GPIO_InitStruct);
 800079e:	f107 0324 	add.w	r3, r7, #36	; 0x24
 80007a2:	4619      	mov	r1, r3
 80007a4:	4818      	ldr	r0, [pc, #96]	; (8000808 <MX_GPIO_Init+0x1d8>)
 80007a6:	f002 fd09 	bl	80031bc <HAL_GPIO_Init>

  /*Configure GPIO pins : PG0 PG1 PG2 PG3
                           PG4 PG5 PG6 PG7
                           PG8 PG9 PG10 PG12
                           PG14 PG15 */
  GPIO_InitStruct.Pin = GPIO_PIN_0|GPIO_PIN_1|GPIO_PIN_2|GPIO_PIN_3
 80007aa:	f24d 73ff 	movw	r3, #55295	; 0xd7ff
 80007ae:	627b      	str	r3, [r7, #36]	; 0x24
                          |GPIO_PIN_4|GPIO_PIN_5|GPIO_PIN_6|GPIO_PIN_7
                          |GPIO_PIN_8|GPIO_PIN_9|GPIO_PIN_10|GPIO_PIN_12
                          |GPIO_PIN_14|GPIO_PIN_15;
  GPIO_InitStruct.Mode = GPIO_MODE_ANALOG;
 80007b0:	2303      	movs	r3, #3
 80007b2:	62bb      	str	r3, [r7, #40]	; 0x28
  GPIO_InitStruct.Pull = GPIO_NOPULL;
 80007b4:	2300      	movs	r3, #0
 80007b6:	62fb      	str	r3, [r7, #44]	; 0x2c
  HAL_GPIO_Init(GPIOG, &GPIO_InitStruct);
 80007b8:	f107 0324 	add.w	r3, r7, #36	; 0x24
 80007bc:	4619      	mov	r1, r3
 80007be:	4818      	ldr	r0, [pc, #96]	; (8000820 <MX_GPIO_Init+0x1f0>)
 80007c0:	f002 fcfc 	bl	80031bc <HAL_GPIO_Init>

  /*Configure GPIO pins : PD10 PD11 PD12 PD13
                           PD14 PD15 PD0 PD1
                           PD2 PD3 PD4 PD5
                           PD6 PD7 */
  GPIO_InitStruct.Pin = GPIO_PIN_10|GPIO_PIN_11|GPIO_PIN_12|GPIO_PIN_13
 80007c4:	f64f 43ff 	movw	r3, #64767	; 0xfcff
 80007c8:	627b      	str	r3, [r7, #36]	; 0x24
                          |GPIO_PIN_14|GPIO_PIN_15|GPIO_PIN_0|GPIO_PIN_1
                          |GPIO_PIN_2|GPIO_PIN_3|GPIO_PIN_4|GPIO_PIN_5
                          |GPIO_PIN_6|GPIO_PIN_7;
  GPIO_InitStruct.Mode = GPIO_MODE_ANALOG;
 80007ca:	2303      	movs	r3, #3
 80007cc:	62bb      	str	r3, [r7, #40]	; 0x28
  GPIO_InitStruct.Pull = GPIO_NOPULL;
 80007ce:	2300      	movs	r3, #0
 80007d0:	62fb      	str	r3, [r7, #44]	; 0x2c
  HAL_GPIO_Init(GPIOD, &GPIO_InitStruct);
 80007d2:	f107 0324 	add.w	r3, r7, #36	; 0x24
 80007d6:	4619      	mov	r1, r3
 80007d8:	4812      	ldr	r0, [pc, #72]	; (8000824 <MX_GPIO_Init+0x1f4>)
 80007da:	f002 fcef 	bl	80031bc <HAL_GPIO_Init>

  /*Configure GPIO pin : PtPin */
  GPIO_InitStruct.Pin = LD2_Pin;
 80007de:	2380      	movs	r3, #128	; 0x80
 80007e0:	627b      	str	r3, [r7, #36]	; 0x24
  GPIO_InitStruct.Mode = GPIO_MODE_OUTPUT_PP;
 80007e2:	2301      	movs	r3, #1
 80007e4:	62bb      	str	r3, [r7, #40]	; 0x28
  GPIO_InitStruct.Pull = GPIO_NOPULL;
 80007e6:	2300      	movs	r3, #0
 80007e8:	62fb      	str	r3, [r7, #44]	; 0x2c
  GPIO_InitStruct.Speed = GPIO_SPEED_FREQ_LOW;
 80007ea:	2300      	movs	r3, #0
 80007ec:	633b      	str	r3, [r7, #48]	; 0x30
  HAL_GPIO_Init(LD2_GPIO_Port, &GPIO_InitStruct);
 80007ee:	f107 0324 	add.w	r3, r7, #36	; 0x24
 80007f2:	4619      	mov	r1, r3
 80007f4:	4804      	ldr	r0, [pc, #16]	; (8000808 <MX_GPIO_Init+0x1d8>)
 80007f6:	f002 fce1 	bl	80031bc <HAL_GPIO_Init>

}
 80007fa:	bf00      	nop
 80007fc:	3738      	adds	r7, #56	; 0x38
 80007fe:	46bd      	mov	sp, r7
 8000800:	bd80      	pop	{r7, pc}
 8000802:	bf00      	nop
 8000804:	40023800 	.word	0x40023800
 8000808:	40020400 	.word	0x40020400
 800080c:	40021000 	.word	0x40021000
 8000810:	40020800 	.word	0x40020800
 8000814:	40021400 	.word	0x40021400
 8000818:	40021c00 	.word	0x40021c00
 800081c:	40020000 	.word	0x40020000
 8000820:	40021800 	.word	0x40021800
 8000824:	40020c00 	.word	0x40020c00

08000828 <main>:
/**
  * @brief  The application entry point.
  * @retval int
  */
int main(void)
{
 8000828:	b580      	push	{r7, lr}
 800082a:	b082      	sub	sp, #8
 800082c:	af00      	add	r7, sp, #0
  /* USER CODE END 1 */

  /* MCU Configuration--------------------------------------------------------*/

  /* Reset of all peripherals, Initializes the Flash interface and the Systick. */
  HAL_Init();
 800082e:	f000 fd12 	bl	8001256 <HAL_Init>
  /* USER CODE BEGIN Init */

  /* USER CODE END Init */

  /* Configure the system clock */
  SystemClock_Config();
 8000832:	f000 f85b 	bl	80008ec <SystemClock_Config>
  /* USER CODE BEGIN SysInit */

  /* USER CODE END SysInit */

  /* Initialize all configured peripherals */
  MX_GPIO_Init();
 8000836:	f7ff fefb 	bl	8000630 <MX_GPIO_Init>
  MX_DMA_Init();
 800083a:	f7ff fedb 	bl	80005f4 <MX_DMA_Init>
  MX_USART3_UART_Init();
 800083e:	f000 faa9 	bl	8000d94 <MX_USART3_UART_Init>
  MX_TIM2_Init();
 8000842:	f000 fa0f 	bl	8000c64 <MX_TIM2_Init>
  MX_LWIP_Init();
 8000846:	f005 fecd 	bl	80065e4 <MX_LWIP_Init>
  /* USER CODE BEGIN 2 */
  CMY_TIM_ENABLE();
 800084a:	f000 fa77 	bl	8000d3c <CMY_TIM_ENABLE>
  CMY_UART_RX_ENABLE();
 800084e:	f000 fb6d 	bl	8000f2c <CMY_UART_RX_ENABLE>
  while (1)
  {
    /* USER CODE END WHILE */

    /* USER CODE BEGIN 3 */
	  if (!CMY_cycle(&LD2Time, 100000)) {
 8000852:	491f      	ldr	r1, [pc, #124]	; (80008d0 <main+0xa8>)
 8000854:	481f      	ldr	r0, [pc, #124]	; (80008d4 <main+0xac>)
 8000856:	f000 fa7b 	bl	8000d50 <CMY_cycle>
//		  HAL_GPIO_TogglePin(LD2_GPIO_Port, LD2_Pin);
	  }
	  if (!CMY_cycle(&uartTime, 1000)) {
 800085a:	f44f 717a 	mov.w	r1, #1000	; 0x3e8
 800085e:	481e      	ldr	r0, [pc, #120]	; (80008d8 <main+0xb0>)
 8000860:	f000 fa76 	bl	8000d50 <CMY_cycle>
 8000864:	4603      	mov	r3, r0
 8000866:	2b00      	cmp	r3, #0
 8000868:	d12f      	bne.n	80008ca <main+0xa2>
		  int8_t cmd = getCmd();
 800086a:	f000 fbb1 	bl	8000fd0 <getCmd>
 800086e:	4603      	mov	r3, r0
 8000870:	71fb      	strb	r3, [r7, #7]
		  if (cmd == 0) {
 8000872:	f997 3007 	ldrsb.w	r3, [r7, #7]
 8000876:	2b00      	cmp	r3, #0
 8000878:	d116      	bne.n	80008a8 <main+0x80>
			  // 发送ip地址
			  char *ip = get_ip();
 800087a:	f005 fd7d 	bl	8006378 <get_ip>
 800087e:	6038      	str	r0, [r7, #0]
			  CMY_UART_TX("ip = ", strlen("ip = "));
 8000880:	2105      	movs	r1, #5
 8000882:	4816      	ldr	r0, [pc, #88]	; (80008dc <main+0xb4>)
 8000884:	f000 fb60 	bl	8000f48 <CMY_UART_TX>
			  CMY_UART_TX((uint8_t *)ip, strlen(ip));
 8000888:	6838      	ldr	r0, [r7, #0]
 800088a:	f7ff fcd9 	bl	8000240 <strlen>
 800088e:	4603      	mov	r3, r0
 8000890:	b29b      	uxth	r3, r3
 8000892:	4619      	mov	r1, r3
 8000894:	6838      	ldr	r0, [r7, #0]
 8000896:	f000 fb57 	bl	8000f48 <CMY_UART_TX>
			  connect_mqtt();
 800089a:	f005 fe11 	bl	80064c0 <connect_mqtt>
			  CMY_UART_TX("mq订阅完成", strlen("mq订阅完成"));
 800089e:	210e      	movs	r1, #14
 80008a0:	480f      	ldr	r0, [pc, #60]	; (80008e0 <main+0xb8>)
 80008a2:	f000 fb51 	bl	8000f48 <CMY_UART_TX>
 80008a6:	e010      	b.n	80008ca <main+0xa2>
		  } else if (cmd == 1) {
 80008a8:	f997 3007 	ldrsb.w	r3, [r7, #7]
 80008ac:	2b01      	cmp	r3, #1
 80008ae:	d104      	bne.n	80008ba <main+0x92>
			  topic_publish("开蓝灯", sizeof("开蓝灯"));
 80008b0:	210a      	movs	r1, #10
 80008b2:	480c      	ldr	r0, [pc, #48]	; (80008e4 <main+0xbc>)
 80008b4:	f005 fe6e 	bl	8006594 <topic_publish>
 80008b8:	e007      	b.n	80008ca <main+0xa2>
		  } else if (cmd == 2) {
 80008ba:	f997 3007 	ldrsb.w	r3, [r7, #7]
 80008be:	2b02      	cmp	r3, #2
 80008c0:	d103      	bne.n	80008ca <main+0xa2>
			  topic_publish("关蓝灯", sizeof("关蓝灯"));
 80008c2:	210a      	movs	r1, #10
 80008c4:	4808      	ldr	r0, [pc, #32]	; (80008e8 <main+0xc0>)
 80008c6:	f005 fe65 	bl	8006594 <topic_publish>
		  }
	  }

	  MX_LWIP_Process();
 80008ca:	f005 ffd7 	bl	800687c <MX_LWIP_Process>
	  if (!CMY_cycle(&LD2Time, 100000)) {
 80008ce:	e7c0      	b.n	8000852 <main+0x2a>
 80008d0:	000186a0 	.word	0x000186a0
 80008d4:	200001f0 	.word	0x200001f0
 80008d8:	200001f4 	.word	0x200001f4
 80008dc:	080146e4 	.word	0x080146e4
 80008e0:	080146ec 	.word	0x080146ec
 80008e4:	080146fc 	.word	0x080146fc
 80008e8:	08014708 	.word	0x08014708

080008ec <SystemClock_Config>:
/**
  * @brief System Clock Configuration
  * @retval None
  */
void SystemClock_Config(void)
{
 80008ec:	b580      	push	{r7, lr}
 80008ee:	b094      	sub	sp, #80	; 0x50
 80008f0:	af00      	add	r7, sp, #0
  RCC_OscInitTypeDef RCC_OscInitStruct = {0};
 80008f2:	f107 031c 	add.w	r3, r7, #28
 80008f6:	2234      	movs	r2, #52	; 0x34
 80008f8:	2100      	movs	r1, #0
 80008fa:	4618      	mov	r0, r3
 80008fc:	f012 fe7a 	bl	80135f4 <memset>
  RCC_ClkInitTypeDef RCC_ClkInitStruct = {0};
 8000900:	f107 0308 	add.w	r3, r7, #8
 8000904:	2200      	movs	r2, #0
 8000906:	601a      	str	r2, [r3, #0]
 8000908:	605a      	str	r2, [r3, #4]
 800090a:	609a      	str	r2, [r3, #8]
 800090c:	60da      	str	r2, [r3, #12]
 800090e:	611a      	str	r2, [r3, #16]

  /** Configure the main internal regulator output voltage
  */
  __HAL_RCC_PWR_CLK_ENABLE();
 8000910:	4b2b      	ldr	r3, [pc, #172]	; (80009c0 <SystemClock_Config+0xd4>)
 8000912:	6c1b      	ldr	r3, [r3, #64]	; 0x40
 8000914:	4a2a      	ldr	r2, [pc, #168]	; (80009c0 <SystemClock_Config+0xd4>)
 8000916:	f043 5380 	orr.w	r3, r3, #268435456	; 0x10000000
 800091a:	6413      	str	r3, [r2, #64]	; 0x40
 800091c:	4b28      	ldr	r3, [pc, #160]	; (80009c0 <SystemClock_Config+0xd4>)
 800091e:	6c1b      	ldr	r3, [r3, #64]	; 0x40
 8000920:	f003 5380 	and.w	r3, r3, #268435456	; 0x10000000
 8000924:	607b      	str	r3, [r7, #4]
 8000926:	687b      	ldr	r3, [r7, #4]
  __HAL_PWR_VOLTAGESCALING_CONFIG(PWR_REGULATOR_VOLTAGE_SCALE1);
 8000928:	4b26      	ldr	r3, [pc, #152]	; (80009c4 <SystemClock_Config+0xd8>)
 800092a:	681b      	ldr	r3, [r3, #0]
 800092c:	4a25      	ldr	r2, [pc, #148]	; (80009c4 <SystemClock_Config+0xd8>)
 800092e:	f443 4340 	orr.w	r3, r3, #49152	; 0xc000
 8000932:	6013      	str	r3, [r2, #0]
 8000934:	4b23      	ldr	r3, [pc, #140]	; (80009c4 <SystemClock_Config+0xd8>)
 8000936:	681b      	ldr	r3, [r3, #0]
 8000938:	f403 4340 	and.w	r3, r3, #49152	; 0xc000
 800093c:	603b      	str	r3, [r7, #0]
 800093e:	683b      	ldr	r3, [r7, #0]

  /** Initializes the RCC Oscillators according to the specified parameters
  * in the RCC_OscInitTypeDef structure.
  */
  RCC_OscInitStruct.OscillatorType = RCC_OSCILLATORTYPE_HSI;
 8000940:	2302      	movs	r3, #2
 8000942:	61fb      	str	r3, [r7, #28]
  RCC_OscInitStruct.HSIState = RCC_HSI_ON;
 8000944:	2301      	movs	r3, #1
 8000946:	62bb      	str	r3, [r7, #40]	; 0x28
  RCC_OscInitStruct.HSICalibrationValue = RCC_HSICALIBRATION_DEFAULT;
 8000948:	2310      	movs	r3, #16
 800094a:	62fb      	str	r3, [r7, #44]	; 0x2c
  RCC_OscInitStruct.PLL.PLLState = RCC_PLL_ON;
 800094c:	2302      	movs	r3, #2
 800094e:	637b      	str	r3, [r7, #52]	; 0x34
  RCC_OscInitStruct.PLL.PLLSource = RCC_PLLSOURCE_HSI;
 8000950:	2300      	movs	r3, #0
 8000952:	63bb      	str	r3, [r7, #56]	; 0x38
  RCC_OscInitStruct.PLL.PLLM = 8;
 8000954:	2308      	movs	r3, #8
 8000956:	63fb      	str	r3, [r7, #60]	; 0x3c
  RCC_OscInitStruct.PLL.PLLN = 216;
 8000958:	23d8      	movs	r3, #216	; 0xd8
 800095a:	643b      	str	r3, [r7, #64]	; 0x40
  RCC_OscInitStruct.PLL.PLLP = RCC_PLLP_DIV2;
 800095c:	2302      	movs	r3, #2
 800095e:	647b      	str	r3, [r7, #68]	; 0x44
  RCC_OscInitStruct.PLL.PLLQ = 2;
 8000960:	2302      	movs	r3, #2
 8000962:	64bb      	str	r3, [r7, #72]	; 0x48
  RCC_OscInitStruct.PLL.PLLR = 2;
 8000964:	2302      	movs	r3, #2
 8000966:	64fb      	str	r3, [r7, #76]	; 0x4c
  if (HAL_RCC_OscConfig(&RCC_OscInitStruct) != HAL_OK)
 8000968:	f107 031c 	add.w	r3, r7, #28
 800096c:	4618      	mov	r0, r3
 800096e:	f002 fe3b 	bl	80035e8 <HAL_RCC_OscConfig>
 8000972:	4603      	mov	r3, r0
 8000974:	2b00      	cmp	r3, #0
 8000976:	d001      	beq.n	800097c <SystemClock_Config+0x90>
  {
    Error_Handler();
 8000978:	f000 f826 	bl	80009c8 <Error_Handler>
  }

  /** Activate the Over-Drive mode
  */
  if (HAL_PWREx_EnableOverDrive() != HAL_OK)
 800097c:	f002 fde4 	bl	8003548 <HAL_PWREx_EnableOverDrive>
 8000980:	4603      	mov	r3, r0
 8000982:	2b00      	cmp	r3, #0
 8000984:	d001      	beq.n	800098a <SystemClock_Config+0x9e>
  {
    Error_Handler();
 8000986:	f000 f81f 	bl	80009c8 <Error_Handler>
  }

  /** Initializes the CPU, AHB and APB buses clocks
  */
  RCC_ClkInitStruct.ClockType = RCC_CLOCKTYPE_HCLK|RCC_CLOCKTYPE_SYSCLK
 800098a:	230f      	movs	r3, #15
 800098c:	60bb      	str	r3, [r7, #8]
                              |RCC_CLOCKTYPE_PCLK1|RCC_CLOCKTYPE_PCLK2;
  RCC_ClkInitStruct.SYSCLKSource = RCC_SYSCLKSOURCE_PLLCLK;
 800098e:	2302      	movs	r3, #2
 8000990:	60fb      	str	r3, [r7, #12]
  RCC_ClkInitStruct.AHBCLKDivider = RCC_SYSCLK_DIV1;
 8000992:	2300      	movs	r3, #0
 8000994:	613b      	str	r3, [r7, #16]
  RCC_ClkInitStruct.APB1CLKDivider = RCC_HCLK_DIV4;
 8000996:	f44f 53a0 	mov.w	r3, #5120	; 0x1400
 800099a:	617b      	str	r3, [r7, #20]
  RCC_ClkInitStruct.APB2CLKDivider = RCC_HCLK_DIV2;
 800099c:	f44f 5380 	mov.w	r3, #4096	; 0x1000
 80009a0:	61bb      	str	r3, [r7, #24]

  if (HAL_RCC_ClockConfig(&RCC_ClkInitStruct, FLASH_LATENCY_7) != HAL_OK)
 80009a2:	f107 0308 	add.w	r3, r7, #8
 80009a6:	2107      	movs	r1, #7
 80009a8:	4618      	mov	r0, r3
 80009aa:	f003 f8cb 	bl	8003b44 <HAL_RCC_ClockConfig>
 80009ae:	4603      	mov	r3, r0
 80009b0:	2b00      	cmp	r3, #0
 80009b2:	d001      	beq.n	80009b8 <SystemClock_Config+0xcc>
  {
    Error_Handler();
 80009b4:	f000 f808 	bl	80009c8 <Error_Handler>
  }
}
 80009b8:	bf00      	nop
 80009ba:	3750      	adds	r7, #80	; 0x50
 80009bc:	46bd      	mov	sp, r7
 80009be:	bd80      	pop	{r7, pc}
 80009c0:	40023800 	.word	0x40023800
 80009c4:	40007000 	.word	0x40007000

080009c8 <Error_Handler>:
/**
  * @brief  This function is executed in case of error occurrence.
  * @retval None
  */
void Error_Handler(void)
{
 80009c8:	b480      	push	{r7}
 80009ca:	af00      	add	r7, sp, #0
  \details Disables IRQ interrupts by setting the I-bit in the CPSR.
           Can only be executed in Privileged modes.
 */
__STATIC_FORCEINLINE void __disable_irq(void)
{
  __ASM volatile ("cpsid i" : : : "memory");
 80009cc:	b672      	cpsid	i
}
 80009ce:	bf00      	nop
  /* USER CODE BEGIN Error_Handler_Debug */
  /* User can add his own implementation to report the HAL error return state */
  __disable_irq();
  while (1)
 80009d0:	e7fe      	b.n	80009d0 <Error_Handler+0x8>
	...

080009d4 <HAL_MspInit>:
/* USER CODE END 0 */
/**
  * Initializes the Global MSP.
  */
void HAL_MspInit(void)
{
 80009d4:	b480      	push	{r7}
 80009d6:	b083      	sub	sp, #12
 80009d8:	af00      	add	r7, sp, #0
  /* USER CODE BEGIN MspInit 0 */

  /* USER CODE END MspInit 0 */

  __HAL_RCC_PWR_CLK_ENABLE();
 80009da:	4b0f      	ldr	r3, [pc, #60]	; (8000a18 <HAL_MspInit+0x44>)
 80009dc:	6c1b      	ldr	r3, [r3, #64]	; 0x40
 80009de:	4a0e      	ldr	r2, [pc, #56]	; (8000a18 <HAL_MspInit+0x44>)
 80009e0:	f043 5380 	orr.w	r3, r3, #268435456	; 0x10000000
 80009e4:	6413      	str	r3, [r2, #64]	; 0x40
 80009e6:	4b0c      	ldr	r3, [pc, #48]	; (8000a18 <HAL_MspInit+0x44>)
 80009e8:	6c1b      	ldr	r3, [r3, #64]	; 0x40
 80009ea:	f003 5380 	and.w	r3, r3, #268435456	; 0x10000000
 80009ee:	607b      	str	r3, [r7, #4]
 80009f0:	687b      	ldr	r3, [r7, #4]
  __HAL_RCC_SYSCFG_CLK_ENABLE();
 80009f2:	4b09      	ldr	r3, [pc, #36]	; (8000a18 <HAL_MspInit+0x44>)
 80009f4:	6c5b      	ldr	r3, [r3, #68]	; 0x44
 80009f6:	4a08      	ldr	r2, [pc, #32]	; (8000a18 <HAL_MspInit+0x44>)
 80009f8:	f443 4380 	orr.w	r3, r3, #16384	; 0x4000
 80009fc:	6453      	str	r3, [r2, #68]	; 0x44
 80009fe:	4b06      	ldr	r3, [pc, #24]	; (8000a18 <HAL_MspInit+0x44>)
 8000a00:	6c5b      	ldr	r3, [r3, #68]	; 0x44
 8000a02:	f403 4380 	and.w	r3, r3, #16384	; 0x4000
 8000a06:	603b      	str	r3, [r7, #0]
 8000a08:	683b      	ldr	r3, [r7, #0]
  /* System interrupt init*/

  /* USER CODE BEGIN MspInit 1 */

  /* USER CODE END MspInit 1 */
}
 8000a0a:	bf00      	nop
 8000a0c:	370c      	adds	r7, #12
 8000a0e:	46bd      	mov	sp, r7
 8000a10:	f85d 7b04 	ldr.w	r7, [sp], #4
 8000a14:	4770      	bx	lr
 8000a16:	bf00      	nop
 8000a18:	40023800 	.word	0x40023800

08000a1c <NMI_Handler>:
/******************************************************************************/
/**
  * @brief This function handles Non maskable interrupt.
  */
void NMI_Handler(void)
{
 8000a1c:	b480      	push	{r7}
 8000a1e:	af00      	add	r7, sp, #0
  /* USER CODE BEGIN NonMaskableInt_IRQn 0 */

  /* USER CODE END NonMaskableInt_IRQn 0 */
  /* USER CODE BEGIN NonMaskableInt_IRQn 1 */
  while (1)
 8000a20:	e7fe      	b.n	8000a20 <NMI_Handler+0x4>

08000a22 <HardFault_Handler>:

/**
  * @brief This function handles Hard fault interrupt.
  */
void HardFault_Handler(void)
{
 8000a22:	b480      	push	{r7}
 8000a24:	af00      	add	r7, sp, #0
  /* USER CODE BEGIN HardFault_IRQn 0 */

  /* USER CODE END HardFault_IRQn 0 */
  while (1)
 8000a26:	e7fe      	b.n	8000a26 <HardFault_Handler+0x4>

08000a28 <MemManage_Handler>:

/**
  * @brief This function handles Memory management fault.
  */
void MemManage_Handler(void)
{
 8000a28:	b480      	push	{r7}
 8000a2a:	af00      	add	r7, sp, #0
  /* USER CODE BEGIN MemoryManagement_IRQn 0 */

  /* USER CODE END MemoryManagement_IRQn 0 */
  while (1)
 8000a2c:	e7fe      	b.n	8000a2c <MemManage_Handler+0x4>

08000a2e <BusFault_Handler>:

/**
  * @brief This function handles Pre-fetch fault, memory access fault.
  */
void BusFault_Handler(void)
{
 8000a2e:	b480      	push	{r7}
 8000a30:	af00      	add	r7, sp, #0
  /* USER CODE BEGIN BusFault_IRQn 0 */

  /* USER CODE END BusFault_IRQn 0 */
  while (1)
 8000a32:	e7fe      	b.n	8000a32 <BusFault_Handler+0x4>

08000a34 <UsageFault_Handler>:

/**
  * @brief This function handles Undefined instruction or illegal state.
  */
void UsageFault_Handler(void)
{
 8000a34:	b480      	push	{r7}
 8000a36:	af00      	add	r7, sp, #0
  /* USER CODE BEGIN UsageFault_IRQn 0 */

  /* USER CODE END UsageFault_IRQn 0 */
  while (1)
 8000a38:	e7fe      	b.n	8000a38 <UsageFault_Handler+0x4>

08000a3a <SVC_Handler>:

/**
  * @brief This function handles System service call via SWI instruction.
  */
void SVC_Handler(void)
{
 8000a3a:	b480      	push	{r7}
 8000a3c:	af00      	add	r7, sp, #0

  /* USER CODE END SVCall_IRQn 0 */
  /* USER CODE BEGIN SVCall_IRQn 1 */

  /* USER CODE END SVCall_IRQn 1 */
}
 8000a3e:	bf00      	nop
 8000a40:	46bd      	mov	sp, r7
 8000a42:	f85d 7b04 	ldr.w	r7, [sp], #4
 8000a46:	4770      	bx	lr

08000a48 <DebugMon_Handler>:

/**
  * @brief This function handles Debug monitor.
  */
void DebugMon_Handler(void)
{
 8000a48:	b480      	push	{r7}
 8000a4a:	af00      	add	r7, sp, #0

  /* USER CODE END DebugMonitor_IRQn 0 */
  /* USER CODE BEGIN DebugMonitor_IRQn 1 */

  /* USER CODE END DebugMonitor_IRQn 1 */
}
 8000a4c:	bf00      	nop
 8000a4e:	46bd      	mov	sp, r7
 8000a50:	f85d 7b04 	ldr.w	r7, [sp], #4
 8000a54:	4770      	bx	lr

08000a56 <PendSV_Handler>:

/**
  * @brief This function handles Pendable request for system service.
  */
void PendSV_Handler(void)
{
 8000a56:	b480      	push	{r7}
 8000a58:	af00      	add	r7, sp, #0

  /* USER CODE END PendSV_IRQn 0 */
  /* USER CODE BEGIN PendSV_IRQn 1 */

  /* USER CODE END PendSV_IRQn 1 */
}
 8000a5a:	bf00      	nop
 8000a5c:	46bd      	mov	sp, r7
 8000a5e:	f85d 7b04 	ldr.w	r7, [sp], #4
 8000a62:	4770      	bx	lr

08000a64 <SysTick_Handler>:

/**
  * @brief This function handles System tick timer.
  */
void SysTick_Handler(void)
{
 8000a64:	b580      	push	{r7, lr}
 8000a66:	af00      	add	r7, sp, #0
  /* USER CODE BEGIN SysTick_IRQn 0 */

  /* USER CODE END SysTick_IRQn 0 */
  HAL_IncTick();
 8000a68:	f000 fc32 	bl	80012d0 <HAL_IncTick>
  /* USER CODE BEGIN SysTick_IRQn 1 */

  /* USER CODE END SysTick_IRQn 1 */
}
 8000a6c:	bf00      	nop
 8000a6e:	bd80      	pop	{r7, pc}

08000a70 <DMA1_Stream1_IRQHandler>:

/**
  * @brief This function handles DMA1 stream1 global interrupt.
  */
void DMA1_Stream1_IRQHandler(void)
{
 8000a70:	b580      	push	{r7, lr}
 8000a72:	af00      	add	r7, sp, #0
  /* USER CODE BEGIN DMA1_Stream1_IRQn 0 */

  /* USER CODE END DMA1_Stream1_IRQn 0 */
  HAL_DMA_IRQHandler(&hdma_usart3_rx);
 8000a74:	4802      	ldr	r0, [pc, #8]	; (8000a80 <DMA1_Stream1_IRQHandler+0x10>)
 8000a76:	f000 ff21 	bl	80018bc <HAL_DMA_IRQHandler>
  /* USER CODE BEGIN DMA1_Stream1_IRQn 1 */

  /* USER CODE END DMA1_Stream1_IRQn 1 */
}
 8000a7a:	bf00      	nop
 8000a7c:	bd80      	pop	{r7, pc}
 8000a7e:	bf00      	nop
 8000a80:	200002d4 	.word	0x200002d4

08000a84 <USART3_IRQHandler>:

/**
  * @brief This function handles USART3 global interrupt.
  */
void USART3_IRQHandler(void)
{
 8000a84:	b580      	push	{r7, lr}
 8000a86:	af00      	add	r7, sp, #0
  /* USER CODE BEGIN USART3_IRQn 0 */

  /* USER CODE END USART3_IRQn 0 */
  HAL_UART_IRQHandler(&huart3);
 8000a88:	4802      	ldr	r0, [pc, #8]	; (8000a94 <USART3_IRQHandler+0x10>)
 8000a8a:	f004 faeb 	bl	8005064 <HAL_UART_IRQHandler>
  /* USER CODE BEGIN USART3_IRQn 1 */

  /* USER CODE END USART3_IRQn 1 */
}
 8000a8e:	bf00      	nop
 8000a90:	bd80      	pop	{r7, pc}
 8000a92:	bf00      	nop
 8000a94:	2000024c 	.word	0x2000024c

08000a98 <ETH_IRQHandler>:

/**
  * @brief This function handles Ethernet global interrupt.
  */
void ETH_IRQHandler(void)
{
 8000a98:	b580      	push	{r7, lr}
 8000a9a:	af00      	add	r7, sp, #0
  /* USER CODE BEGIN ETH_IRQn 0 */

  /* USER CODE END ETH_IRQn 0 */
  HAL_ETH_IRQHandler(&heth);
 8000a9c:	4802      	ldr	r0, [pc, #8]	; (8000aa8 <ETH_IRQHandler+0x10>)
 8000a9e:	f001 fca1 	bl	80023e4 <HAL_ETH_IRQHandler>
  /* USER CODE BEGIN ETH_IRQn 1 */

  /* USER CODE END ETH_IRQn 1 */
}
 8000aa2:	bf00      	nop
 8000aa4:	bd80      	pop	{r7, pc}
 8000aa6:	bf00      	nop
 8000aa8:	20004d18 	.word	0x20004d18

08000aac <_getpid>:
void initialise_monitor_handles()
{
}

int _getpid(void)
{
 8000aac:	b480      	push	{r7}
 8000aae:	af00      	add	r7, sp, #0
  return 1;
 8000ab0:	2301      	movs	r3, #1
}
 8000ab2:	4618      	mov	r0, r3
 8000ab4:	46bd      	mov	sp, r7
 8000ab6:	f85d 7b04 	ldr.w	r7, [sp], #4
 8000aba:	4770      	bx	lr

08000abc <_kill>:

int _kill(int pid, int sig)
{
 8000abc:	b480      	push	{r7}
 8000abe:	b083      	sub	sp, #12
 8000ac0:	af00      	add	r7, sp, #0
 8000ac2:	6078      	str	r0, [r7, #4]
 8000ac4:	6039      	str	r1, [r7, #0]
  (void)pid;
  (void)sig;
  errno = EINVAL;
 8000ac6:	4b05      	ldr	r3, [pc, #20]	; (8000adc <_kill+0x20>)
 8000ac8:	2216      	movs	r2, #22
 8000aca:	601a      	str	r2, [r3, #0]
  return -1;
 8000acc:	f04f 33ff 	mov.w	r3, #4294967295
}
 8000ad0:	4618      	mov	r0, r3
 8000ad2:	370c      	adds	r7, #12
 8000ad4:	46bd      	mov	sp, r7
 8000ad6:	f85d 7b04 	ldr.w	r7, [sp], #4
 8000ada:	4770      	bx	lr
 8000adc:	200084fc 	.word	0x200084fc

08000ae0 <_exit>:

void _exit (int status)
{
 8000ae0:	b580      	push	{r7, lr}
 8000ae2:	b082      	sub	sp, #8
 8000ae4:	af00      	add	r7, sp, #0
 8000ae6:	6078      	str	r0, [r7, #4]
  _kill(status, -1);
 8000ae8:	f04f 31ff 	mov.w	r1, #4294967295
 8000aec:	6878      	ldr	r0, [r7, #4]
 8000aee:	f7ff ffe5 	bl	8000abc <_kill>
  while (1) {}    /* Make sure we hang here */
 8000af2:	e7fe      	b.n	8000af2 <_exit+0x12>

08000af4 <_read>:
}

__attribute__((weak)) int _read(int file, char *ptr, int len)
{
 8000af4:	b580      	push	{r7, lr}
 8000af6:	b086      	sub	sp, #24
 8000af8:	af00      	add	r7, sp, #0
 8000afa:	60f8      	str	r0, [r7, #12]
 8000afc:	60b9      	str	r1, [r7, #8]
 8000afe:	607a      	str	r2, [r7, #4]
  (void)file;
  int DataIdx;

  for (DataIdx = 0; DataIdx < len; DataIdx++)
 8000b00:	2300      	movs	r3, #0
 8000b02:	617b      	str	r3, [r7, #20]
 8000b04:	e00a      	b.n	8000b1c <_read+0x28>
  {
    *ptr++ = __io_getchar();
 8000b06:	f3af 8000 	nop.w
 8000b0a:	4601      	mov	r1, r0
 8000b0c:	68bb      	ldr	r3, [r7, #8]
 8000b0e:	1c5a      	adds	r2, r3, #1
 8000b10:	60ba      	str	r2, [r7, #8]
 8000b12:	b2ca      	uxtb	r2, r1
 8000b14:	701a      	strb	r2, [r3, #0]
  for (DataIdx = 0; DataIdx < len; DataIdx++)
 8000b16:	697b      	ldr	r3, [r7, #20]
 8000b18:	3301      	adds	r3, #1
 8000b1a:	617b      	str	r3, [r7, #20]
 8000b1c:	697a      	ldr	r2, [r7, #20]
 8000b1e:	687b      	ldr	r3, [r7, #4]
 8000b20:	429a      	cmp	r2, r3
 8000b22:	dbf0      	blt.n	8000b06 <_read+0x12>
  }

  return len;
 8000b24:	687b      	ldr	r3, [r7, #4]
}
 8000b26:	4618      	mov	r0, r3
 8000b28:	3718      	adds	r7, #24
 8000b2a:	46bd      	mov	sp, r7
 8000b2c:	bd80      	pop	{r7, pc}

08000b2e <_write>:

__attribute__((weak)) int _write(int file, char *ptr, int len)
{
 8000b2e:	b580      	push	{r7, lr}
 8000b30:	b086      	sub	sp, #24
 8000b32:	af00      	add	r7, sp, #0
 8000b34:	60f8      	str	r0, [r7, #12]
 8000b36:	60b9      	str	r1, [r7, #8]
 8000b38:	607a      	str	r2, [r7, #4]
  (void)file;
  int DataIdx;

  for (DataIdx = 0; DataIdx < len; DataIdx++)
 8000b3a:	2300      	movs	r3, #0
 8000b3c:	617b      	str	r3, [r7, #20]
 8000b3e:	e009      	b.n	8000b54 <_write+0x26>
  {
    __io_putchar(*ptr++);
 8000b40:	68bb      	ldr	r3, [r7, #8]
 8000b42:	1c5a      	adds	r2, r3, #1
 8000b44:	60ba      	str	r2, [r7, #8]
 8000b46:	781b      	ldrb	r3, [r3, #0]
 8000b48:	4618      	mov	r0, r3
 8000b4a:	f3af 8000 	nop.w
  for (DataIdx = 0; DataIdx < len; DataIdx++)
 8000b4e:	697b      	ldr	r3, [r7, #20]
 8000b50:	3301      	adds	r3, #1
 8000b52:	617b      	str	r3, [r7, #20]
 8000b54:	697a      	ldr	r2, [r7, #20]
 8000b56:	687b      	ldr	r3, [r7, #4]
 8000b58:	429a      	cmp	r2, r3
 8000b5a:	dbf1      	blt.n	8000b40 <_write+0x12>
  }
  return len;
 8000b5c:	687b      	ldr	r3, [r7, #4]
}
 8000b5e:	4618      	mov	r0, r3
 8000b60:	3718      	adds	r7, #24
 8000b62:	46bd      	mov	sp, r7
 8000b64:	bd80      	pop	{r7, pc}

08000b66 <_close>:

int _close(int file)
{
 8000b66:	b480      	push	{r7}
 8000b68:	b083      	sub	sp, #12
 8000b6a:	af00      	add	r7, sp, #0
 8000b6c:	6078      	str	r0, [r7, #4]
  (void)file;
  return -1;
 8000b6e:	f04f 33ff 	mov.w	r3, #4294967295
}
 8000b72:	4618      	mov	r0, r3
 8000b74:	370c      	adds	r7, #12
 8000b76:	46bd      	mov	sp, r7
 8000b78:	f85d 7b04 	ldr.w	r7, [sp], #4
 8000b7c:	4770      	bx	lr

08000b7e <_fstat>:


int _fstat(int file, struct stat *st)
{
 8000b7e:	b480      	push	{r7}
 8000b80:	b083      	sub	sp, #12
 8000b82:	af00      	add	r7, sp, #0
 8000b84:	6078      	str	r0, [r7, #4]
 8000b86:	6039      	str	r1, [r7, #0]
  (void)file;
  st->st_mode = S_IFCHR;
 8000b88:	683b      	ldr	r3, [r7, #0]
 8000b8a:	f44f 5200 	mov.w	r2, #8192	; 0x2000
 8000b8e:	605a      	str	r2, [r3, #4]
  return 0;
 8000b90:	2300      	movs	r3, #0
}
 8000b92:	4618      	mov	r0, r3
 8000b94:	370c      	adds	r7, #12
 8000b96:	46bd      	mov	sp, r7
 8000b98:	f85d 7b04 	ldr.w	r7, [sp], #4
 8000b9c:	4770      	bx	lr

08000b9e <_isatty>:

int _isatty(int file)
{
 8000b9e:	b480      	push	{r7}
 8000ba0:	b083      	sub	sp, #12
 8000ba2:	af00      	add	r7, sp, #0
 8000ba4:	6078      	str	r0, [r7, #4]
  (void)file;
  return 1;
 8000ba6:	2301      	movs	r3, #1
}
 8000ba8:	4618      	mov	r0, r3
 8000baa:	370c      	adds	r7, #12
 8000bac:	46bd      	mov	sp, r7
 8000bae:	f85d 7b04 	ldr.w	r7, [sp], #4
 8000bb2:	4770      	bx	lr

08000bb4 <_lseek>:

int _lseek(int file, int ptr, int dir)
{
 8000bb4:	b480      	push	{r7}
 8000bb6:	b085      	sub	sp, #20
 8000bb8:	af00      	add	r7, sp, #0
 8000bba:	60f8      	str	r0, [r7, #12]
 8000bbc:	60b9      	str	r1, [r7, #8]
 8000bbe:	607a      	str	r2, [r7, #4]
  (void)file;
  (void)ptr;
  (void)dir;
  return 0;
 8000bc0:	2300      	movs	r3, #0
}
 8000bc2:	4618      	mov	r0, r3
 8000bc4:	3714      	adds	r7, #20
 8000bc6:	46bd      	mov	sp, r7
 8000bc8:	f85d 7b04 	ldr.w	r7, [sp], #4
 8000bcc:	4770      	bx	lr
	...

08000bd0 <_sbrk>:
 *
 * @param incr Memory size
 * @return Pointer to allocated memory
 */
void *_sbrk(ptrdiff_t incr)
{
 8000bd0:	b480      	push	{r7}
 8000bd2:	b087      	sub	sp, #28
 8000bd4:	af00      	add	r7, sp, #0
 8000bd6:	6078      	str	r0, [r7, #4]
  extern uint8_t _end; /* Symbol defined in the linker script */
  extern uint8_t _estack; /* Symbol defined in the linker script */
  extern uint32_t _Min_Stack_Size; /* Symbol defined in the linker script */
  const uint32_t stack_limit = (uint32_t)&_estack - (uint32_t)&_Min_Stack_Size;
 8000bd8:	4a14      	ldr	r2, [pc, #80]	; (8000c2c <_sbrk+0x5c>)
 8000bda:	4b15      	ldr	r3, [pc, #84]	; (8000c30 <_sbrk+0x60>)
 8000bdc:	1ad3      	subs	r3, r2, r3
 8000bde:	617b      	str	r3, [r7, #20]
  const uint8_t *max_heap = (uint8_t *)stack_limit;
 8000be0:	697b      	ldr	r3, [r7, #20]
 8000be2:	613b      	str	r3, [r7, #16]
  uint8_t *prev_heap_end;

  /* Initialize heap end at first call */
  if (NULL == __sbrk_heap_end)
 8000be4:	4b13      	ldr	r3, [pc, #76]	; (8000c34 <_sbrk+0x64>)
 8000be6:	681b      	ldr	r3, [r3, #0]
 8000be8:	2b00      	cmp	r3, #0
 8000bea:	d102      	bne.n	8000bf2 <_sbrk+0x22>
  {
    __sbrk_heap_end = &_end;
 8000bec:	4b11      	ldr	r3, [pc, #68]	; (8000c34 <_sbrk+0x64>)
 8000bee:	4a12      	ldr	r2, [pc, #72]	; (8000c38 <_sbrk+0x68>)
 8000bf0:	601a      	str	r2, [r3, #0]
  }

  /* Protect heap from growing into the reserved MSP stack */
  if (__sbrk_heap_end + incr > max_heap)
 8000bf2:	4b10      	ldr	r3, [pc, #64]	; (8000c34 <_sbrk+0x64>)
 8000bf4:	681a      	ldr	r2, [r3, #0]
 8000bf6:	687b      	ldr	r3, [r7, #4]
 8000bf8:	4413      	add	r3, r2
 8000bfa:	693a      	ldr	r2, [r7, #16]
 8000bfc:	429a      	cmp	r2, r3
 8000bfe:	d205      	bcs.n	8000c0c <_sbrk+0x3c>
  {
    errno = ENOMEM;
 8000c00:	4b0e      	ldr	r3, [pc, #56]	; (8000c3c <_sbrk+0x6c>)
 8000c02:	220c      	movs	r2, #12
 8000c04:	601a      	str	r2, [r3, #0]
    return (void *)-1;
 8000c06:	f04f 33ff 	mov.w	r3, #4294967295
 8000c0a:	e009      	b.n	8000c20 <_sbrk+0x50>
  }

  prev_heap_end = __sbrk_heap_end;
 8000c0c:	4b09      	ldr	r3, [pc, #36]	; (8000c34 <_sbrk+0x64>)
 8000c0e:	681b      	ldr	r3, [r3, #0]
 8000c10:	60fb      	str	r3, [r7, #12]
  __sbrk_heap_end += incr;
 8000c12:	4b08      	ldr	r3, [pc, #32]	; (8000c34 <_sbrk+0x64>)
 8000c14:	681a      	ldr	r2, [r3, #0]
 8000c16:	687b      	ldr	r3, [r7, #4]
 8000c18:	4413      	add	r3, r2
 8000c1a:	4a06      	ldr	r2, [pc, #24]	; (8000c34 <_sbrk+0x64>)
 8000c1c:	6013      	str	r3, [r2, #0]

  return (void *)prev_heap_end;
 8000c1e:	68fb      	ldr	r3, [r7, #12]
}
 8000c20:	4618      	mov	r0, r3
 8000c22:	371c      	adds	r7, #28
 8000c24:	46bd      	mov	sp, r7
 8000c26:	f85d 7b04 	ldr.w	r7, [sp], #4
 8000c2a:	4770      	bx	lr
 8000c2c:	20080000 	.word	0x20080000
 8000c30:	00000400 	.word	0x00000400
 8000c34:	200001f8 	.word	0x200001f8
 8000c38:	20008510 	.word	0x20008510
 8000c3c:	200084fc 	.word	0x200084fc

08000c40 <SystemInit>:
  *         SystemFrequency variable.
  * @param  None
  * @retval None
  */
void SystemInit(void)
{
 8000c40:	b480      	push	{r7}
 8000c42:	af00      	add	r7, sp, #0
  /* FPU settings ------------------------------------------------------------*/
#if (__FPU_PRESENT == 1) && (__FPU_USED == 1)
  SCB->CPACR |= ((3UL << 10*2)|(3UL << 11*2));  /* set CP10 and CP11 Full Access */
 8000c44:	4b06      	ldr	r3, [pc, #24]	; (8000c60 <SystemInit+0x20>)
 8000c46:	f8d3 3088 	ldr.w	r3, [r3, #136]	; 0x88
 8000c4a:	4a05      	ldr	r2, [pc, #20]	; (8000c60 <SystemInit+0x20>)
 8000c4c:	f443 0370 	orr.w	r3, r3, #15728640	; 0xf00000
 8000c50:	f8c2 3088 	str.w	r3, [r2, #136]	; 0x88

  /* Configure the Vector Table location -------------------------------------*/
#if defined(USER_VECT_TAB_ADDRESS)
  SCB->VTOR = VECT_TAB_BASE_ADDRESS | VECT_TAB_OFFSET; /* Vector Table Relocation in Internal SRAM */
#endif /* USER_VECT_TAB_ADDRESS */
}
 8000c54:	bf00      	nop
 8000c56:	46bd      	mov	sp, r7
 8000c58:	f85d 7b04 	ldr.w	r7, [sp], #4
 8000c5c:	4770      	bx	lr
 8000c5e:	bf00      	nop
 8000c60:	e000ed00 	.word	0xe000ed00

08000c64 <MX_TIM2_Init>:

TIM_HandleTypeDef htim2;

/* TIM2 init function */
void MX_TIM2_Init(void)
{
 8000c64:	b580      	push	{r7, lr}
 8000c66:	b088      	sub	sp, #32
 8000c68:	af00      	add	r7, sp, #0

  /* USER CODE BEGIN TIM2_Init 0 */

  /* USER CODE END TIM2_Init 0 */

  TIM_ClockConfigTypeDef sClockSourceConfig = {0};
 8000c6a:	f107 0310 	add.w	r3, r7, #16
 8000c6e:	2200      	movs	r2, #0
 8000c70:	601a      	str	r2, [r3, #0]
 8000c72:	605a      	str	r2, [r3, #4]
 8000c74:	609a      	str	r2, [r3, #8]
 8000c76:	60da      	str	r2, [r3, #12]
  TIM_MasterConfigTypeDef sMasterConfig = {0};
 8000c78:	1d3b      	adds	r3, r7, #4
 8000c7a:	2200      	movs	r2, #0
 8000c7c:	601a      	str	r2, [r3, #0]
 8000c7e:	605a      	str	r2, [r3, #4]
 8000c80:	609a      	str	r2, [r3, #8]

  /* USER CODE BEGIN TIM2_Init 1 */

  /* USER CODE END TIM2_Init 1 */
  htim2.Instance = TIM2;
 8000c82:	4b1e      	ldr	r3, [pc, #120]	; (8000cfc <MX_TIM2_Init+0x98>)
 8000c84:	f04f 4280 	mov.w	r2, #1073741824	; 0x40000000
 8000c88:	601a      	str	r2, [r3, #0]
  htim2.Init.Prescaler = 107;
 8000c8a:	4b1c      	ldr	r3, [pc, #112]	; (8000cfc <MX_TIM2_Init+0x98>)
 8000c8c:	226b      	movs	r2, #107	; 0x6b
 8000c8e:	605a      	str	r2, [r3, #4]
  htim2.Init.CounterMode = TIM_COUNTERMODE_UP;
 8000c90:	4b1a      	ldr	r3, [pc, #104]	; (8000cfc <MX_TIM2_Init+0x98>)
 8000c92:	2200      	movs	r2, #0
 8000c94:	609a      	str	r2, [r3, #8]
  htim2.Init.Period = 4294967295;
 8000c96:	4b19      	ldr	r3, [pc, #100]	; (8000cfc <MX_TIM2_Init+0x98>)
 8000c98:	f04f 32ff 	mov.w	r2, #4294967295
 8000c9c:	60da      	str	r2, [r3, #12]
  htim2.Init.ClockDivision = TIM_CLOCKDIVISION_DIV1;
 8000c9e:	4b17      	ldr	r3, [pc, #92]	; (8000cfc <MX_TIM2_Init+0x98>)
 8000ca0:	2200      	movs	r2, #0
 8000ca2:	611a      	str	r2, [r3, #16]
  htim2.Init.AutoReloadPreload = TIM_AUTORELOAD_PRELOAD_ENABLE;
 8000ca4:	4b15      	ldr	r3, [pc, #84]	; (8000cfc <MX_TIM2_Init+0x98>)
 8000ca6:	2280      	movs	r2, #128	; 0x80
 8000ca8:	619a      	str	r2, [r3, #24]
  if (HAL_TIM_Base_Init(&htim2) != HAL_OK)
 8000caa:	4814      	ldr	r0, [pc, #80]	; (8000cfc <MX_TIM2_Init+0x98>)
 8000cac:	f003 fd58 	bl	8004760 <HAL_TIM_Base_Init>
 8000cb0:	4603      	mov	r3, r0
 8000cb2:	2b00      	cmp	r3, #0
 8000cb4:	d001      	beq.n	8000cba <MX_TIM2_Init+0x56>
  {
    Error_Handler();
 8000cb6:	f7ff fe87 	bl	80009c8 <Error_Handler>
  }
  sClockSourceConfig.ClockSource = TIM_CLOCKSOURCE_INTERNAL;
 8000cba:	f44f 5380 	mov.w	r3, #4096	; 0x1000
 8000cbe:	613b      	str	r3, [r7, #16]
  if (HAL_TIM_ConfigClockSource(&htim2, &sClockSourceConfig) != HAL_OK)
 8000cc0:	f107 0310 	add.w	r3, r7, #16
 8000cc4:	4619      	mov	r1, r3
 8000cc6:	480d      	ldr	r0, [pc, #52]	; (8000cfc <MX_TIM2_Init+0x98>)
 8000cc8:	f003 fe12 	bl	80048f0 <HAL_TIM_ConfigClockSource>
 8000ccc:	4603      	mov	r3, r0
 8000cce:	2b00      	cmp	r3, #0
 8000cd0:	d001      	beq.n	8000cd6 <MX_TIM2_Init+0x72>
  {
    Error_Handler();
 8000cd2:	f7ff fe79 	bl	80009c8 <Error_Handler>
  }
  sMasterConfig.MasterOutputTrigger = TIM_TRGO_RESET;
 8000cd6:	2300      	movs	r3, #0
 8000cd8:	607b      	str	r3, [r7, #4]
  sMasterConfig.MasterSlaveMode = TIM_MASTERSLAVEMODE_DISABLE;
 8000cda:	2300      	movs	r3, #0
 8000cdc:	60fb      	str	r3, [r7, #12]
  if (HAL_TIMEx_MasterConfigSynchronization(&htim2, &sMasterConfig) != HAL_OK)
 8000cde:	1d3b      	adds	r3, r7, #4
 8000ce0:	4619      	mov	r1, r3
 8000ce2:	4806      	ldr	r0, [pc, #24]	; (8000cfc <MX_TIM2_Init+0x98>)
 8000ce4:	f004 f814 	bl	8004d10 <HAL_TIMEx_MasterConfigSynchronization>
 8000ce8:	4603      	mov	r3, r0
 8000cea:	2b00      	cmp	r3, #0
 8000cec:	d001      	beq.n	8000cf2 <MX_TIM2_Init+0x8e>
  {
    Error_Handler();
 8000cee:	f7ff fe6b 	bl	80009c8 <Error_Handler>
  }
  /* USER CODE BEGIN TIM2_Init 2 */

  /* USER CODE END TIM2_Init 2 */

}
 8000cf2:	bf00      	nop
 8000cf4:	3720      	adds	r7, #32
 8000cf6:	46bd      	mov	sp, r7
 8000cf8:	bd80      	pop	{r7, pc}
 8000cfa:	bf00      	nop
 8000cfc:	200001fc 	.word	0x200001fc

08000d00 <HAL_TIM_Base_MspInit>:

void HAL_TIM_Base_MspInit(TIM_HandleTypeDef* tim_baseHandle)
{
 8000d00:	b480      	push	{r7}
 8000d02:	b085      	sub	sp, #20
 8000d04:	af00      	add	r7, sp, #0
 8000d06:	6078      	str	r0, [r7, #4]

  if(tim_baseHandle->Instance==TIM2)
 8000d08:	687b      	ldr	r3, [r7, #4]
 8000d0a:	681b      	ldr	r3, [r3, #0]
 8000d0c:	f1b3 4f80 	cmp.w	r3, #1073741824	; 0x40000000
 8000d10:	d10b      	bne.n	8000d2a <HAL_TIM_Base_MspInit+0x2a>
  {
  /* USER CODE BEGIN TIM2_MspInit 0 */

  /* USER CODE END TIM2_MspInit 0 */
    /* TIM2 clock enable */
    __HAL_RCC_TIM2_CLK_ENABLE();
 8000d12:	4b09      	ldr	r3, [pc, #36]	; (8000d38 <HAL_TIM_Base_MspInit+0x38>)
 8000d14:	6c1b      	ldr	r3, [r3, #64]	; 0x40
 8000d16:	4a08      	ldr	r2, [pc, #32]	; (8000d38 <HAL_TIM_Base_MspInit+0x38>)
 8000d18:	f043 0301 	orr.w	r3, r3, #1
 8000d1c:	6413      	str	r3, [r2, #64]	; 0x40
 8000d1e:	4b06      	ldr	r3, [pc, #24]	; (8000d38 <HAL_TIM_Base_MspInit+0x38>)
 8000d20:	6c1b      	ldr	r3, [r3, #64]	; 0x40
 8000d22:	f003 0301 	and.w	r3, r3, #1
 8000d26:	60fb      	str	r3, [r7, #12]
 8000d28:	68fb      	ldr	r3, [r7, #12]
  /* USER CODE BEGIN TIM2_MspInit 1 */

  /* USER CODE END TIM2_MspInit 1 */
  }
}
 8000d2a:	bf00      	nop
 8000d2c:	3714      	adds	r7, #20
 8000d2e:	46bd      	mov	sp, r7
 8000d30:	f85d 7b04 	ldr.w	r7, [sp], #4
 8000d34:	4770      	bx	lr
 8000d36:	bf00      	nop
 8000d38:	40023800 	.word	0x40023800

08000d3c <CMY_TIM_ENABLE>:
}

/* USER CODE BEGIN 1 */

void CMY_TIM_ENABLE(void)
{
 8000d3c:	b580      	push	{r7, lr}
 8000d3e:	af00      	add	r7, sp, #0
	HAL_TIM_Base_Start(&htim2);
 8000d40:	4802      	ldr	r0, [pc, #8]	; (8000d4c <CMY_TIM_ENABLE+0x10>)
 8000d42:	f003 fd65 	bl	8004810 <HAL_TIM_Base_Start>
}
 8000d46:	bf00      	nop
 8000d48:	bd80      	pop	{r7, pc}
 8000d4a:	bf00      	nop
 8000d4c:	200001fc 	.word	0x200001fc

08000d50 <CMY_cycle>:

int8_t CMY_cycle(uint32_t *time, uint32_t interval)
{
 8000d50:	b480      	push	{r7}
 8000d52:	b085      	sub	sp, #20
 8000d54:	af00      	add	r7, sp, #0
 8000d56:	6078      	str	r0, [r7, #4]
 8000d58:	6039      	str	r1, [r7, #0]
	uint32_t count = __HAL_TIM_GET_COUNTER(&htim2);
 8000d5a:	4b0d      	ldr	r3, [pc, #52]	; (8000d90 <CMY_cycle+0x40>)
 8000d5c:	681b      	ldr	r3, [r3, #0]
 8000d5e:	6a5b      	ldr	r3, [r3, #36]	; 0x24
 8000d60:	60fb      	str	r3, [r7, #12]
	uint32_t range = count - *time;
 8000d62:	687b      	ldr	r3, [r7, #4]
 8000d64:	681b      	ldr	r3, [r3, #0]
 8000d66:	68fa      	ldr	r2, [r7, #12]
 8000d68:	1ad3      	subs	r3, r2, r3
 8000d6a:	60bb      	str	r3, [r7, #8]
	if (range >= interval){
 8000d6c:	68ba      	ldr	r2, [r7, #8]
 8000d6e:	683b      	ldr	r3, [r7, #0]
 8000d70:	429a      	cmp	r2, r3
 8000d72:	d304      	bcc.n	8000d7e <CMY_cycle+0x2e>
		*time = count;
 8000d74:	687b      	ldr	r3, [r7, #4]
 8000d76:	68fa      	ldr	r2, [r7, #12]
 8000d78:	601a      	str	r2, [r3, #0]
		return 0;
 8000d7a:	2300      	movs	r3, #0
 8000d7c:	e001      	b.n	8000d82 <CMY_cycle+0x32>
	}
	return -1;
 8000d7e:	f04f 33ff 	mov.w	r3, #4294967295
}
 8000d82:	4618      	mov	r0, r3
 8000d84:	3714      	adds	r7, #20
 8000d86:	46bd      	mov	sp, r7
 8000d88:	f85d 7b04 	ldr.w	r7, [sp], #4
 8000d8c:	4770      	bx	lr
 8000d8e:	bf00      	nop
 8000d90:	200001fc 	.word	0x200001fc

08000d94 <MX_USART3_UART_Init>:
DMA_HandleTypeDef hdma_usart3_rx;

/* USART3 init function */

void MX_USART3_UART_Init(void)
{
 8000d94:	b580      	push	{r7, lr}
 8000d96:	af00      	add	r7, sp, #0
  /* USER CODE END USART3_Init 0 */

  /* USER CODE BEGIN USART3_Init 1 */

  /* USER CODE END USART3_Init 1 */
  huart3.Instance = USART3;
 8000d98:	4b14      	ldr	r3, [pc, #80]	; (8000dec <MX_USART3_UART_Init+0x58>)
 8000d9a:	4a15      	ldr	r2, [pc, #84]	; (8000df0 <MX_USART3_UART_Init+0x5c>)
 8000d9c:	601a      	str	r2, [r3, #0]
  huart3.Init.BaudRate = 115200;
 8000d9e:	4b13      	ldr	r3, [pc, #76]	; (8000dec <MX_USART3_UART_Init+0x58>)
 8000da0:	f44f 32e1 	mov.w	r2, #115200	; 0x1c200
 8000da4:	605a      	str	r2, [r3, #4]
  huart3.Init.WordLength = UART_WORDLENGTH_8B;
 8000da6:	4b11      	ldr	r3, [pc, #68]	; (8000dec <MX_USART3_UART_Init+0x58>)
 8000da8:	2200      	movs	r2, #0
 8000daa:	609a      	str	r2, [r3, #8]
  huart3.Init.StopBits = UART_STOPBITS_1;
 8000dac:	4b0f      	ldr	r3, [pc, #60]	; (8000dec <MX_USART3_UART_Init+0x58>)
 8000dae:	2200      	movs	r2, #0
 8000db0:	60da      	str	r2, [r3, #12]
  huart3.Init.Parity = UART_PARITY_NONE;
 8000db2:	4b0e      	ldr	r3, [pc, #56]	; (8000dec <MX_USART3_UART_Init+0x58>)
 8000db4:	2200      	movs	r2, #0
 8000db6:	611a      	str	r2, [r3, #16]
  huart3.Init.Mode = UART_MODE_TX_RX;
 8000db8:	4b0c      	ldr	r3, [pc, #48]	; (8000dec <MX_USART3_UART_Init+0x58>)
 8000dba:	220c      	movs	r2, #12
 8000dbc:	615a      	str	r2, [r3, #20]
  huart3.Init.HwFlowCtl = UART_HWCONTROL_NONE;
 8000dbe:	4b0b      	ldr	r3, [pc, #44]	; (8000dec <MX_USART3_UART_Init+0x58>)
 8000dc0:	2200      	movs	r2, #0
 8000dc2:	619a      	str	r2, [r3, #24]
  huart3.Init.OverSampling = UART_OVERSAMPLING_16;
 8000dc4:	4b09      	ldr	r3, [pc, #36]	; (8000dec <MX_USART3_UART_Init+0x58>)
 8000dc6:	2200      	movs	r2, #0
 8000dc8:	61da      	str	r2, [r3, #28]
  huart3.Init.OneBitSampling = UART_ONE_BIT_SAMPLE_DISABLE;
 8000dca:	4b08      	ldr	r3, [pc, #32]	; (8000dec <MX_USART3_UART_Init+0x58>)
 8000dcc:	2200      	movs	r2, #0
 8000dce:	621a      	str	r2, [r3, #32]
  huart3.AdvancedInit.AdvFeatureInit = UART_ADVFEATURE_NO_INIT;
 8000dd0:	4b06      	ldr	r3, [pc, #24]	; (8000dec <MX_USART3_UART_Init+0x58>)
 8000dd2:	2200      	movs	r2, #0
 8000dd4:	625a      	str	r2, [r3, #36]	; 0x24
  if (HAL_UART_Init(&huart3) != HAL_OK)
 8000dd6:	4805      	ldr	r0, [pc, #20]	; (8000dec <MX_USART3_UART_Init+0x58>)
 8000dd8:	f004 f828 	bl	8004e2c <HAL_UART_Init>
 8000ddc:	4603      	mov	r3, r0
 8000dde:	2b00      	cmp	r3, #0
 8000de0:	d001      	beq.n	8000de6 <MX_USART3_UART_Init+0x52>
  {
    Error_Handler();
 8000de2:	f7ff fdf1 	bl	80009c8 <Error_Handler>
  }
  /* USER CODE BEGIN USART3_Init 2 */

  /* USER CODE END USART3_Init 2 */

}
 8000de6:	bf00      	nop
 8000de8:	bd80      	pop	{r7, pc}
 8000dea:	bf00      	nop
 8000dec:	2000024c 	.word	0x2000024c
 8000df0:	40004800 	.word	0x40004800

08000df4 <HAL_UART_MspInit>:

void HAL_UART_MspInit(UART_HandleTypeDef* uartHandle)
{
 8000df4:	b580      	push	{r7, lr}
 8000df6:	b0ae      	sub	sp, #184	; 0xb8
 8000df8:	af00      	add	r7, sp, #0
 8000dfa:	6078      	str	r0, [r7, #4]

  GPIO_InitTypeDef GPIO_InitStruct = {0};
 8000dfc:	f107 03a4 	add.w	r3, r7, #164	; 0xa4
 8000e00:	2200      	movs	r2, #0
 8000e02:	601a      	str	r2, [r3, #0]
 8000e04:	605a      	str	r2, [r3, #4]
 8000e06:	609a      	str	r2, [r3, #8]
 8000e08:	60da      	str	r2, [r3, #12]
 8000e0a:	611a      	str	r2, [r3, #16]
  RCC_PeriphCLKInitTypeDef PeriphClkInitStruct = {0};
 8000e0c:	f107 0314 	add.w	r3, r7, #20
 8000e10:	2290      	movs	r2, #144	; 0x90
 8000e12:	2100      	movs	r1, #0
 8000e14:	4618      	mov	r0, r3
 8000e16:	f012 fbed 	bl	80135f4 <memset>
  if(uartHandle->Instance==USART3)
 8000e1a:	687b      	ldr	r3, [r7, #4]
 8000e1c:	681b      	ldr	r3, [r3, #0]
 8000e1e:	4a3e      	ldr	r2, [pc, #248]	; (8000f18 <HAL_UART_MspInit+0x124>)
 8000e20:	4293      	cmp	r3, r2
 8000e22:	d174      	bne.n	8000f0e <HAL_UART_MspInit+0x11a>

  /* USER CODE END USART3_MspInit 0 */

  /** Initializes the peripherals clock
  */
    PeriphClkInitStruct.PeriphClockSelection = RCC_PERIPHCLK_USART3;
 8000e24:	f44f 7380 	mov.w	r3, #256	; 0x100
 8000e28:	617b      	str	r3, [r7, #20]
    PeriphClkInitStruct.Usart3ClockSelection = RCC_USART3CLKSOURCE_PCLK1;
 8000e2a:	2300      	movs	r3, #0
 8000e2c:	663b      	str	r3, [r7, #96]	; 0x60
    if (HAL_RCCEx_PeriphCLKConfig(&PeriphClkInitStruct) != HAL_OK)
 8000e2e:	f107 0314 	add.w	r3, r7, #20
 8000e32:	4618      	mov	r0, r3
 8000e34:	f003 f86c 	bl	8003f10 <HAL_RCCEx_PeriphCLKConfig>
 8000e38:	4603      	mov	r3, r0
 8000e3a:	2b00      	cmp	r3, #0
 8000e3c:	d001      	beq.n	8000e42 <HAL_UART_MspInit+0x4e>
    {
      Error_Handler();
 8000e3e:	f7ff fdc3 	bl	80009c8 <Error_Handler>
    }

    /* USART3 clock enable */
    __HAL_RCC_USART3_CLK_ENABLE();
 8000e42:	4b36      	ldr	r3, [pc, #216]	; (8000f1c <HAL_UART_MspInit+0x128>)
 8000e44:	6c1b      	ldr	r3, [r3, #64]	; 0x40
 8000e46:	4a35      	ldr	r2, [pc, #212]	; (8000f1c <HAL_UART_MspInit+0x128>)
 8000e48:	f443 2380 	orr.w	r3, r3, #262144	; 0x40000
 8000e4c:	6413      	str	r3, [r2, #64]	; 0x40
 8000e4e:	4b33      	ldr	r3, [pc, #204]	; (8000f1c <HAL_UART_MspInit+0x128>)
 8000e50:	6c1b      	ldr	r3, [r3, #64]	; 0x40
 8000e52:	f403 2380 	and.w	r3, r3, #262144	; 0x40000
 8000e56:	613b      	str	r3, [r7, #16]
 8000e58:	693b      	ldr	r3, [r7, #16]

    __HAL_RCC_GPIOD_CLK_ENABLE();
 8000e5a:	4b30      	ldr	r3, [pc, #192]	; (8000f1c <HAL_UART_MspInit+0x128>)
 8000e5c:	6b1b      	ldr	r3, [r3, #48]	; 0x30
 8000e5e:	4a2f      	ldr	r2, [pc, #188]	; (8000f1c <HAL_UART_MspInit+0x128>)
 8000e60:	f043 0308 	orr.w	r3, r3, #8
 8000e64:	6313      	str	r3, [r2, #48]	; 0x30
 8000e66:	4b2d      	ldr	r3, [pc, #180]	; (8000f1c <HAL_UART_MspInit+0x128>)
 8000e68:	6b1b      	ldr	r3, [r3, #48]	; 0x30
 8000e6a:	f003 0308 	and.w	r3, r3, #8
 8000e6e:	60fb      	str	r3, [r7, #12]
 8000e70:	68fb      	ldr	r3, [r7, #12]
    /**USART3 GPIO Configuration
    PD8     ------> USART3_TX
    PD9     ------> USART3_RX
    */
    GPIO_InitStruct.Pin = GPIO_PIN_8|GPIO_PIN_9;
 8000e72:	f44f 7340 	mov.w	r3, #768	; 0x300
 8000e76:	f8c7 30a4 	str.w	r3, [r7, #164]	; 0xa4
    GPIO_InitStruct.Mode = GPIO_MODE_AF_PP;
 8000e7a:	2302      	movs	r3, #2
 8000e7c:	f8c7 30a8 	str.w	r3, [r7, #168]	; 0xa8
    GPIO_InitStruct.Pull = GPIO_NOPULL;
 8000e80:	2300      	movs	r3, #0
 8000e82:	f8c7 30ac 	str.w	r3, [r7, #172]	; 0xac
    GPIO_InitStruct.Speed = GPIO_SPEED_FREQ_VERY_HIGH;
 8000e86:	2303      	movs	r3, #3
 8000e88:	f8c7 30b0 	str.w	r3, [r7, #176]	; 0xb0
    GPIO_InitStruct.Alternate = GPIO_AF7_USART3;
 8000e8c:	2307      	movs	r3, #7
 8000e8e:	f8c7 30b4 	str.w	r3, [r7, #180]	; 0xb4
    HAL_GPIO_Init(GPIOD, &GPIO_InitStruct);
 8000e92:	f107 03a4 	add.w	r3, r7, #164	; 0xa4
 8000e96:	4619      	mov	r1, r3
 8000e98:	4821      	ldr	r0, [pc, #132]	; (8000f20 <HAL_UART_MspInit+0x12c>)
 8000e9a:	f002 f98f 	bl	80031bc <HAL_GPIO_Init>

    /* USART3 DMA Init */
    /* USART3_RX Init */
    hdma_usart3_rx.Instance = DMA1_Stream1;
 8000e9e:	4b21      	ldr	r3, [pc, #132]	; (8000f24 <HAL_UART_MspInit+0x130>)
 8000ea0:	4a21      	ldr	r2, [pc, #132]	; (8000f28 <HAL_UART_MspInit+0x134>)
 8000ea2:	601a      	str	r2, [r3, #0]
    hdma_usart3_rx.Init.Channel = DMA_CHANNEL_4;
 8000ea4:	4b1f      	ldr	r3, [pc, #124]	; (8000f24 <HAL_UART_MspInit+0x130>)
 8000ea6:	f04f 6200 	mov.w	r2, #134217728	; 0x8000000
 8000eaa:	605a      	str	r2, [r3, #4]
    hdma_usart3_rx.Init.Direction = DMA_PERIPH_TO_MEMORY;
 8000eac:	4b1d      	ldr	r3, [pc, #116]	; (8000f24 <HAL_UART_MspInit+0x130>)
 8000eae:	2200      	movs	r2, #0
 8000eb0:	609a      	str	r2, [r3, #8]
    hdma_usart3_rx.Init.PeriphInc = DMA_PINC_DISABLE;
 8000eb2:	4b1c      	ldr	r3, [pc, #112]	; (8000f24 <HAL_UART_MspInit+0x130>)
 8000eb4:	2200      	movs	r2, #0
 8000eb6:	60da      	str	r2, [r3, #12]
    hdma_usart3_rx.Init.MemInc = DMA_MINC_ENABLE;
 8000eb8:	4b1a      	ldr	r3, [pc, #104]	; (8000f24 <HAL_UART_MspInit+0x130>)
 8000eba:	f44f 6280 	mov.w	r2, #1024	; 0x400
 8000ebe:	611a      	str	r2, [r3, #16]
    hdma_usart3_rx.Init.PeriphDataAlignment = DMA_PDATAALIGN_BYTE;
 8000ec0:	4b18      	ldr	r3, [pc, #96]	; (8000f24 <HAL_UART_MspInit+0x130>)
 8000ec2:	2200      	movs	r2, #0
 8000ec4:	615a      	str	r2, [r3, #20]
    hdma_usart3_rx.Init.MemDataAlignment = DMA_MDATAALIGN_BYTE;
 8000ec6:	4b17      	ldr	r3, [pc, #92]	; (8000f24 <HAL_UART_MspInit+0x130>)
 8000ec8:	2200      	movs	r2, #0
 8000eca:	619a      	str	r2, [r3, #24]
    hdma_usart3_rx.Init.Mode = DMA_CIRCULAR;
 8000ecc:	4b15      	ldr	r3, [pc, #84]	; (8000f24 <HAL_UART_MspInit+0x130>)
 8000ece:	f44f 7280 	mov.w	r2, #256	; 0x100
 8000ed2:	61da      	str	r2, [r3, #28]
    hdma_usart3_rx.Init.Priority = DMA_PRIORITY_VERY_HIGH;
 8000ed4:	4b13      	ldr	r3, [pc, #76]	; (8000f24 <HAL_UART_MspInit+0x130>)
 8000ed6:	f44f 3240 	mov.w	r2, #196608	; 0x30000
 8000eda:	621a      	str	r2, [r3, #32]
    hdma_usart3_rx.Init.FIFOMode = DMA_FIFOMODE_DISABLE;
 8000edc:	4b11      	ldr	r3, [pc, #68]	; (8000f24 <HAL_UART_MspInit+0x130>)
 8000ede:	2200      	movs	r2, #0
 8000ee0:	625a      	str	r2, [r3, #36]	; 0x24
    if (HAL_DMA_Init(&hdma_usart3_rx) != HAL_OK)
 8000ee2:	4810      	ldr	r0, [pc, #64]	; (8000f24 <HAL_UART_MspInit+0x130>)
 8000ee4:	f000 fb4a 	bl	800157c <HAL_DMA_Init>
 8000ee8:	4603      	mov	r3, r0
 8000eea:	2b00      	cmp	r3, #0
 8000eec:	d001      	beq.n	8000ef2 <HAL_UART_MspInit+0xfe>
    {
      Error_Handler();
 8000eee:	f7ff fd6b 	bl	80009c8 <Error_Handler>
    }

    __HAL_LINKDMA(uartHandle,hdmarx,hdma_usart3_rx);
 8000ef2:	687b      	ldr	r3, [r7, #4]
 8000ef4:	4a0b      	ldr	r2, [pc, #44]	; (8000f24 <HAL_UART_MspInit+0x130>)
 8000ef6:	675a      	str	r2, [r3, #116]	; 0x74
 8000ef8:	4a0a      	ldr	r2, [pc, #40]	; (8000f24 <HAL_UART_MspInit+0x130>)
 8000efa:	687b      	ldr	r3, [r7, #4]
 8000efc:	6393      	str	r3, [r2, #56]	; 0x38

    /* USART3 interrupt Init */
    HAL_NVIC_SetPriority(USART3_IRQn, 0, 0);
 8000efe:	2200      	movs	r2, #0
 8000f00:	2100      	movs	r1, #0
 8000f02:	2027      	movs	r0, #39	; 0x27
 8000f04:	f000 fb03 	bl	800150e <HAL_NVIC_SetPriority>
    HAL_NVIC_EnableIRQ(USART3_IRQn);
 8000f08:	2027      	movs	r0, #39	; 0x27
 8000f0a:	f000 fb1c 	bl	8001546 <HAL_NVIC_EnableIRQ>
  /* USER CODE BEGIN USART3_MspInit 1 */

  /* USER CODE END USART3_MspInit 1 */
  }
}
 8000f0e:	bf00      	nop
 8000f10:	37b8      	adds	r7, #184	; 0xb8
 8000f12:	46bd      	mov	sp, r7
 8000f14:	bd80      	pop	{r7, pc}
 8000f16:	bf00      	nop
 8000f18:	40004800 	.word	0x40004800
 8000f1c:	40023800 	.word	0x40023800
 8000f20:	40020c00 	.word	0x40020c00
 8000f24:	200002d4 	.word	0x200002d4
 8000f28:	40026028 	.word	0x40026028

08000f2c <CMY_UART_RX_ENABLE>:
  }
}

/* USER CODE BEGIN 1 */
void CMY_UART_RX_ENABLE(void)
{
 8000f2c:	b580      	push	{r7, lr}
 8000f2e:	af00      	add	r7, sp, #0
	HAL_UART_Receive_DMA(&huart3, recData, sizeof(recData));
 8000f30:	2201      	movs	r2, #1
 8000f32:	4903      	ldr	r1, [pc, #12]	; (8000f40 <CMY_UART_RX_ENABLE+0x14>)
 8000f34:	4803      	ldr	r0, [pc, #12]	; (8000f44 <CMY_UART_RX_ENABLE+0x18>)
 8000f36:	f004 f850 	bl	8004fda <HAL_UART_Receive_DMA>
}
 8000f3a:	bf00      	nop
 8000f3c:	bd80      	pop	{r7, pc}
 8000f3e:	bf00      	nop
 8000f40:	20000248 	.word	0x20000248
 8000f44:	2000024c 	.word	0x2000024c

08000f48 <CMY_UART_TX>:

void CMY_UART_TX(const uint8_t *pData, uint16_t Size)
{
 8000f48:	b580      	push	{r7, lr}
 8000f4a:	b082      	sub	sp, #8
 8000f4c:	af00      	add	r7, sp, #0
 8000f4e:	6078      	str	r0, [r7, #4]
 8000f50:	460b      	mov	r3, r1
 8000f52:	807b      	strh	r3, [r7, #2]
	HAL_UART_Transmit(&huart3, pData, Size, 0xffff);
 8000f54:	887a      	ldrh	r2, [r7, #2]
 8000f56:	f64f 73ff 	movw	r3, #65535	; 0xffff
 8000f5a:	6879      	ldr	r1, [r7, #4]
 8000f5c:	4803      	ldr	r0, [pc, #12]	; (8000f6c <CMY_UART_TX+0x24>)
 8000f5e:	f003 ffb3 	bl	8004ec8 <HAL_UART_Transmit>
}
 8000f62:	bf00      	nop
 8000f64:	3708      	adds	r7, #8
 8000f66:	46bd      	mov	sp, r7
 8000f68:	bd80      	pop	{r7, pc}
 8000f6a:	bf00      	nop
 8000f6c:	2000024c 	.word	0x2000024c

08000f70 <HAL_UART_RxCpltCallback>:

void HAL_UART_RxCpltCallback(UART_HandleTypeDef *huart)
{
 8000f70:	b480      	push	{r7}
 8000f72:	b083      	sub	sp, #12
 8000f74:	af00      	add	r7, sp, #0
 8000f76:	6078      	str	r0, [r7, #4]
	if (huart == &huart3) {
 8000f78:	687b      	ldr	r3, [r7, #4]
 8000f7a:	4a07      	ldr	r2, [pc, #28]	; (8000f98 <HAL_UART_RxCpltCallback+0x28>)
 8000f7c:	4293      	cmp	r3, r2
 8000f7e:	d104      	bne.n	8000f8a <HAL_UART_RxCpltCallback+0x1a>
		cmd = recData[0];
 8000f80:	4b06      	ldr	r3, [pc, #24]	; (8000f9c <HAL_UART_RxCpltCallback+0x2c>)
 8000f82:	781b      	ldrb	r3, [r3, #0]
 8000f84:	b25a      	sxtb	r2, r3
 8000f86:	4b06      	ldr	r3, [pc, #24]	; (8000fa0 <HAL_UART_RxCpltCallback+0x30>)
 8000f88:	701a      	strb	r2, [r3, #0]
	}
}
 8000f8a:	bf00      	nop
 8000f8c:	370c      	adds	r7, #12
 8000f8e:	46bd      	mov	sp, r7
 8000f90:	f85d 7b04 	ldr.w	r7, [sp], #4
 8000f94:	4770      	bx	lr
 8000f96:	bf00      	nop
 8000f98:	2000024c 	.word	0x2000024c
 8000f9c:	20000248 	.word	0x20000248
 8000fa0:	20000004 	.word	0x20000004

08000fa4 <HAL_UART_ErrorCallback>:

void HAL_UART_ErrorCallback(UART_HandleTypeDef *huart)
{
 8000fa4:	b580      	push	{r7, lr}
 8000fa6:	b082      	sub	sp, #8
 8000fa8:	af00      	add	r7, sp, #0
 8000faa:	6078      	str	r0, [r7, #4]
	if (huart == &huart3) {
 8000fac:	687b      	ldr	r3, [r7, #4]
 8000fae:	4a06      	ldr	r2, [pc, #24]	; (8000fc8 <HAL_UART_ErrorCallback+0x24>)
 8000fb0:	4293      	cmp	r3, r2
 8000fb2:	d104      	bne.n	8000fbe <HAL_UART_ErrorCallback+0x1a>
		  HAL_UART_Receive_DMA(&huart3, recData, sizeof(recData));
 8000fb4:	2201      	movs	r2, #1
 8000fb6:	4905      	ldr	r1, [pc, #20]	; (8000fcc <HAL_UART_ErrorCallback+0x28>)
 8000fb8:	4803      	ldr	r0, [pc, #12]	; (8000fc8 <HAL_UART_ErrorCallback+0x24>)
 8000fba:	f004 f80e 	bl	8004fda <HAL_UART_Receive_DMA>
	}
}
 8000fbe:	bf00      	nop
 8000fc0:	3708      	adds	r7, #8
 8000fc2:	46bd      	mov	sp, r7
 8000fc4:	bd80      	pop	{r7, pc}
 8000fc6:	bf00      	nop
 8000fc8:	2000024c 	.word	0x2000024c
 8000fcc:	20000248 	.word	0x20000248

08000fd0 <getCmd>:

int8_t getCmd(void)
{
 8000fd0:	b480      	push	{r7}
 8000fd2:	b083      	sub	sp, #12
 8000fd4:	af00      	add	r7, sp, #0
	int8_t _cmd = cmd;
 8000fd6:	4b07      	ldr	r3, [pc, #28]	; (8000ff4 <getCmd+0x24>)
 8000fd8:	781b      	ldrb	r3, [r3, #0]
 8000fda:	71fb      	strb	r3, [r7, #7]
	cmd = -1;
 8000fdc:	4b05      	ldr	r3, [pc, #20]	; (8000ff4 <getCmd+0x24>)
 8000fde:	22ff      	movs	r2, #255	; 0xff
 8000fe0:	701a      	strb	r2, [r3, #0]
	return _cmd;
 8000fe2:	f997 3007 	ldrsb.w	r3, [r7, #7]
}
 8000fe6:	4618      	mov	r0, r3
 8000fe8:	370c      	adds	r7, #12
 8000fea:	46bd      	mov	sp, r7
 8000fec:	f85d 7b04 	ldr.w	r7, [sp], #4
 8000ff0:	4770      	bx	lr
 8000ff2:	bf00      	nop
 8000ff4:	20000004 	.word	0x20000004

08000ff8 <Reset_Handler>:

    .section  .text.Reset_Handler
  .weak  Reset_Handler
  .type  Reset_Handler, %function
Reset_Handler:  
  ldr   sp, =_estack      /* set stack pointer */
 8000ff8:	f8df d034 	ldr.w	sp, [pc, #52]	; 8001030 <LoopFillZerobss+0xe>

/* Call the clock system initialization function.*/
  bl  SystemInit   
 8000ffc:	f7ff fe20 	bl	8000c40 <SystemInit>

/* Copy the data segment initializers from flash to SRAM */  
  ldr r0, =_sdata
 8001000:	480c      	ldr	r0, [pc, #48]	; (8001034 <LoopFillZerobss+0x12>)
  ldr r1, =_edata
 8001002:	490d      	ldr	r1, [pc, #52]	; (8001038 <LoopFillZerobss+0x16>)
  ldr r2, =_sidata
 8001004:	4a0d      	ldr	r2, [pc, #52]	; (800103c <LoopFillZerobss+0x1a>)
  movs r3, #0
 8001006:	2300      	movs	r3, #0
  b LoopCopyDataInit
 8001008:	e002      	b.n	8001010 <LoopCopyDataInit>

0800100a <CopyDataInit>:

CopyDataInit:
  ldr r4, [r2, r3]
 800100a:	58d4      	ldr	r4, [r2, r3]
  str r4, [r0, r3]
 800100c:	50c4      	str	r4, [r0, r3]
  adds r3, r3, #4
 800100e:	3304      	adds	r3, #4

08001010 <LoopCopyDataInit>:

LoopCopyDataInit:
  adds r4, r0, r3
 8001010:	18c4      	adds	r4, r0, r3
  cmp r4, r1
 8001012:	428c      	cmp	r4, r1
  bcc CopyDataInit
 8001014:	d3f9      	bcc.n	800100a <CopyDataInit>
  
/* Zero fill the bss segment. */
  ldr r2, =_sbss
 8001016:	4a0a      	ldr	r2, [pc, #40]	; (8001040 <LoopFillZerobss+0x1e>)
  ldr r4, =_ebss
 8001018:	4c0a      	ldr	r4, [pc, #40]	; (8001044 <LoopFillZerobss+0x22>)
  movs r3, #0
 800101a:	2300      	movs	r3, #0
  b LoopFillZerobss
 800101c:	e001      	b.n	8001022 <LoopFillZerobss>

0800101e <FillZerobss>:

FillZerobss:
  str  r3, [r2]
 800101e:	6013      	str	r3, [r2, #0]
  adds r2, r2, #4
 8001020:	3204      	adds	r2, #4

08001022 <LoopFillZerobss>:

LoopFillZerobss:
  cmp r2, r4
 8001022:	42a2      	cmp	r2, r4
  bcc FillZerobss
 8001024:	d3fb      	bcc.n	800101e <FillZerobss>
  
/* Call static constructors */
    bl __libc_init_array
 8001026:	f012 faa3 	bl	8013570 <__libc_init_array>
/* Call the application's entry point.*/
  bl  main
 800102a:	f7ff fbfd 	bl	8000828 <main>
  bx  lr    
 800102e:	4770      	bx	lr
  ldr   sp, =_estack      /* set stack pointer */
 8001030:	20080000 	.word	0x20080000
  ldr r0, =_sdata
 8001034:	20000000 	.word	0x20000000
  ldr r1, =_edata
 8001038:	20000094 	.word	0x20000094
  ldr r2, =_sidata
 800103c:	08017bd8 	.word	0x08017bd8
  ldr r2, =_sbss
 8001040:	200001d4 	.word	0x200001d4
  ldr r4, =_ebss
 8001044:	2000850c 	.word	0x2000850c

08001048 <ADC_IRQHandler>:
 * @retval None       
*/
    .section  .text.Default_Handler,"ax",%progbits
Default_Handler:
Infinite_Loop:
  b  Infinite_Loop
 8001048:	e7fe      	b.n	8001048 <ADC_IRQHandler>

0800104a <LAN8742_RegisterBusIO>:
  * @param  ioctx: holds device IO functions.
  * @retval LAN8742_STATUS_OK  if OK
  *         LAN8742_STATUS_ERROR if missing mandatory function
  */
int32_t  LAN8742_RegisterBusIO(lan8742_Object_t *pObj, lan8742_IOCtx_t *ioctx)
{
 800104a:	b480      	push	{r7}
 800104c:	b083      	sub	sp, #12
 800104e:	af00      	add	r7, sp, #0
 8001050:	6078      	str	r0, [r7, #4]
 8001052:	6039      	str	r1, [r7, #0]
  if(!pObj || !ioctx->ReadReg || !ioctx->WriteReg || !ioctx->GetTick)
 8001054:	687b      	ldr	r3, [r7, #4]
 8001056:	2b00      	cmp	r3, #0
 8001058:	d00b      	beq.n	8001072 <LAN8742_RegisterBusIO+0x28>
 800105a:	683b      	ldr	r3, [r7, #0]
 800105c:	68db      	ldr	r3, [r3, #12]
 800105e:	2b00      	cmp	r3, #0
 8001060:	d007      	beq.n	8001072 <LAN8742_RegisterBusIO+0x28>
 8001062:	683b      	ldr	r3, [r7, #0]
 8001064:	689b      	ldr	r3, [r3, #8]
 8001066:	2b00      	cmp	r3, #0
 8001068:	d003      	beq.n	8001072 <LAN8742_RegisterBusIO+0x28>
 800106a:	683b      	ldr	r3, [r7, #0]
 800106c:	691b      	ldr	r3, [r3, #16]
 800106e:	2b00      	cmp	r3, #0
 8001070:	d102      	bne.n	8001078 <LAN8742_RegisterBusIO+0x2e>
  {
    return LAN8742_STATUS_ERROR;
 8001072:	f04f 33ff 	mov.w	r3, #4294967295
 8001076:	e014      	b.n	80010a2 <LAN8742_RegisterBusIO+0x58>
  }

  pObj->IO.Init = ioctx->Init;
 8001078:	683b      	ldr	r3, [r7, #0]
 800107a:	681a      	ldr	r2, [r3, #0]
 800107c:	687b      	ldr	r3, [r7, #4]
 800107e:	609a      	str	r2, [r3, #8]
  pObj->IO.DeInit = ioctx->DeInit;
 8001080:	683b      	ldr	r3, [r7, #0]
 8001082:	685a      	ldr	r2, [r3, #4]
 8001084:	687b      	ldr	r3, [r7, #4]
 8001086:	60da      	str	r2, [r3, #12]
  pObj->IO.ReadReg = ioctx->ReadReg;
 8001088:	683b      	ldr	r3, [r7, #0]
 800108a:	68da      	ldr	r2, [r3, #12]
 800108c:	687b      	ldr	r3, [r7, #4]
 800108e:	615a      	str	r2, [r3, #20]
  pObj->IO.WriteReg = ioctx->WriteReg;
 8001090:	683b      	ldr	r3, [r7, #0]
 8001092:	689a      	ldr	r2, [r3, #8]
 8001094:	687b      	ldr	r3, [r7, #4]
 8001096:	611a      	str	r2, [r3, #16]
  pObj->IO.GetTick = ioctx->GetTick;
 8001098:	683b      	ldr	r3, [r7, #0]
 800109a:	691a      	ldr	r2, [r3, #16]
 800109c:	687b      	ldr	r3, [r7, #4]
 800109e:	619a      	str	r2, [r3, #24]

  return LAN8742_STATUS_OK;
 80010a0:	2300      	movs	r3, #0
}
 80010a2:	4618      	mov	r0, r3
 80010a4:	370c      	adds	r7, #12
 80010a6:	46bd      	mov	sp, r7
 80010a8:	f85d 7b04 	ldr.w	r7, [sp], #4
 80010ac:	4770      	bx	lr

080010ae <LAN8742_Init>:
  * @retval LAN8742_STATUS_OK  if OK
  *         LAN8742_STATUS_ADDRESS_ERROR if cannot find device address
  *         LAN8742_STATUS_READ_ERROR if cannot read register
  */
 int32_t LAN8742_Init(lan8742_Object_t *pObj)
 {
 80010ae:	b580      	push	{r7, lr}
 80010b0:	b086      	sub	sp, #24
 80010b2:	af00      	add	r7, sp, #0
 80010b4:	6078      	str	r0, [r7, #4]
   uint32_t regvalue = 0, addr = 0;
 80010b6:	2300      	movs	r3, #0
 80010b8:	60fb      	str	r3, [r7, #12]
 80010ba:	2300      	movs	r3, #0
 80010bc:	617b      	str	r3, [r7, #20]
   int32_t status = LAN8742_STATUS_OK;
 80010be:	2300      	movs	r3, #0
 80010c0:	613b      	str	r3, [r7, #16]

   if(pObj->Is_Initialized == 0)
 80010c2:	687b      	ldr	r3, [r7, #4]
 80010c4:	685b      	ldr	r3, [r3, #4]
 80010c6:	2b00      	cmp	r3, #0
 80010c8:	d139      	bne.n	800113e <LAN8742_Init+0x90>
   {
     if(pObj->IO.Init != 0)
 80010ca:	687b      	ldr	r3, [r7, #4]
 80010cc:	689b      	ldr	r3, [r3, #8]
 80010ce:	2b00      	cmp	r3, #0
 80010d0:	d002      	beq.n	80010d8 <LAN8742_Init+0x2a>
     {
       /* GPIO and Clocks initialization */
       pObj->IO.Init();
 80010d2:	687b      	ldr	r3, [r7, #4]
 80010d4:	689b      	ldr	r3, [r3, #8]
 80010d6:	4798      	blx	r3
     }

     /* for later check */
     pObj->DevAddr = LAN8742_MAX_DEV_ADDR + 1;
 80010d8:	687b      	ldr	r3, [r7, #4]
 80010da:	2220      	movs	r2, #32
 80010dc:	601a      	str	r2, [r3, #0]

     /* Get the device address from special mode register */
     for(addr = 0; addr <= LAN8742_MAX_DEV_ADDR; addr ++)
 80010de:	2300      	movs	r3, #0
 80010e0:	617b      	str	r3, [r7, #20]
 80010e2:	e01c      	b.n	800111e <LAN8742_Init+0x70>
     {
       if(pObj->IO.ReadReg(addr, LAN8742_SMR, &regvalue) < 0)
 80010e4:	687b      	ldr	r3, [r7, #4]
 80010e6:	695b      	ldr	r3, [r3, #20]
 80010e8:	f107 020c 	add.w	r2, r7, #12
 80010ec:	2112      	movs	r1, #18
 80010ee:	6978      	ldr	r0, [r7, #20]
 80010f0:	4798      	blx	r3
 80010f2:	4603      	mov	r3, r0
 80010f4:	2b00      	cmp	r3, #0
 80010f6:	da03      	bge.n	8001100 <LAN8742_Init+0x52>
       {
         status = LAN8742_STATUS_READ_ERROR;
 80010f8:	f06f 0304 	mvn.w	r3, #4
 80010fc:	613b      	str	r3, [r7, #16]
         /* Can't read from this device address
            continue with next address */
         continue;
 80010fe:	e00b      	b.n	8001118 <LAN8742_Init+0x6a>
       }

       if((regvalue & LAN8742_SMR_PHY_ADDR) == addr)
 8001100:	68fb      	ldr	r3, [r7, #12]
 8001102:	f003 031f 	and.w	r3, r3, #31
 8001106:	697a      	ldr	r2, [r7, #20]
 8001108:	429a      	cmp	r2, r3
 800110a:	d105      	bne.n	8001118 <LAN8742_Init+0x6a>
       {
         pObj->DevAddr = addr;
 800110c:	687b      	ldr	r3, [r7, #4]
 800110e:	697a      	ldr	r2, [r7, #20]
 8001110:	601a      	str	r2, [r3, #0]
         status = LAN8742_STATUS_OK;
 8001112:	2300      	movs	r3, #0
 8001114:	613b      	str	r3, [r7, #16]
         break;
 8001116:	e005      	b.n	8001124 <LAN8742_Init+0x76>
     for(addr = 0; addr <= LAN8742_MAX_DEV_ADDR; addr ++)
 8001118:	697b      	ldr	r3, [r7, #20]
 800111a:	3301      	adds	r3, #1
 800111c:	617b      	str	r3, [r7, #20]
 800111e:	697b      	ldr	r3, [r7, #20]
 8001120:	2b1f      	cmp	r3, #31
 8001122:	d9df      	bls.n	80010e4 <LAN8742_Init+0x36>
       }
     }

     if(pObj->DevAddr > LAN8742_MAX_DEV_ADDR)
 8001124:	687b      	ldr	r3, [r7, #4]
 8001126:	681b      	ldr	r3, [r3, #0]
 8001128:	2b1f      	cmp	r3, #31
 800112a:	d902      	bls.n	8001132 <LAN8742_Init+0x84>
     {
       status = LAN8742_STATUS_ADDRESS_ERROR;
 800112c:	f06f 0302 	mvn.w	r3, #2
 8001130:	613b      	str	r3, [r7, #16]
     }

     /* if device address is matched */
     if(status == LAN8742_STATUS_OK)
 8001132:	693b      	ldr	r3, [r7, #16]
 8001134:	2b00      	cmp	r3, #0
 8001136:	d102      	bne.n	800113e <LAN8742_Init+0x90>
     {
       pObj->Is_Initialized = 1;
 8001138:	687b      	ldr	r3, [r7, #4]
 800113a:	2201      	movs	r2, #1
 800113c:	605a      	str	r2, [r3, #4]
     }
   }

   return status;
 800113e:	693b      	ldr	r3, [r7, #16]
 }
 8001140:	4618      	mov	r0, r3
 8001142:	3718      	adds	r7, #24
 8001144:	46bd      	mov	sp, r7
 8001146:	bd80      	pop	{r7, pc}

08001148 <LAN8742_GetLinkState>:
  *         LAN8742_STATUS_10MBITS_HALFDUPLEX  if 10Mb/s HD
  *         LAN8742_STATUS_READ_ERROR if cannot read register
  *         LAN8742_STATUS_WRITE_ERROR if cannot write to register
  */
int32_t LAN8742_GetLinkState(lan8742_Object_t *pObj)
{
 8001148:	b580      	push	{r7, lr}
 800114a:	b084      	sub	sp, #16
 800114c:	af00      	add	r7, sp, #0
 800114e:	6078      	str	r0, [r7, #4]
  uint32_t readval = 0;
 8001150:	2300      	movs	r3, #0
 8001152:	60fb      	str	r3, [r7, #12]

  /* Read Status register  */
  if(pObj->IO.ReadReg(pObj->DevAddr, LAN8742_BSR, &readval) < 0)
 8001154:	687b      	ldr	r3, [r7, #4]
 8001156:	695b      	ldr	r3, [r3, #20]
 8001158:	687a      	ldr	r2, [r7, #4]
 800115a:	6810      	ldr	r0, [r2, #0]
 800115c:	f107 020c 	add.w	r2, r7, #12
 8001160:	2101      	movs	r1, #1
 8001162:	4798      	blx	r3
 8001164:	4603      	mov	r3, r0
 8001166:	2b00      	cmp	r3, #0
 8001168:	da02      	bge.n	8001170 <LAN8742_GetLinkState+0x28>
  {
    return LAN8742_STATUS_READ_ERROR;
 800116a:	f06f 0304 	mvn.w	r3, #4
 800116e:	e06e      	b.n	800124e <LAN8742_GetLinkState+0x106>
  }

  /* Read Status register again */
  if(pObj->IO.ReadReg(pObj->DevAddr, LAN8742_BSR, &readval) < 0)
 8001170:	687b      	ldr	r3, [r7, #4]
 8001172:	695b      	ldr	r3, [r3, #20]
 8001174:	687a      	ldr	r2, [r7, #4]
 8001176:	6810      	ldr	r0, [r2, #0]
 8001178:	f107 020c 	add.w	r2, r7, #12
 800117c:	2101      	movs	r1, #1
 800117e:	4798      	blx	r3
 8001180:	4603      	mov	r3, r0
 8001182:	2b00      	cmp	r3, #0
 8001184:	da02      	bge.n	800118c <LAN8742_GetLinkState+0x44>
  {
    return LAN8742_STATUS_READ_ERROR;
 8001186:	f06f 0304 	mvn.w	r3, #4
 800118a:	e060      	b.n	800124e <LAN8742_GetLinkState+0x106>
  }

  if((readval & LAN8742_BSR_LINK_STATUS) == 0)
 800118c:	68fb      	ldr	r3, [r7, #12]
 800118e:	f003 0304 	and.w	r3, r3, #4
 8001192:	2b00      	cmp	r3, #0
 8001194:	d101      	bne.n	800119a <LAN8742_GetLinkState+0x52>
  {
    /* Return Link Down status */
    return LAN8742_STATUS_LINK_DOWN;
 8001196:	2301      	movs	r3, #1
 8001198:	e059      	b.n	800124e <LAN8742_GetLinkState+0x106>
  }

  /* Check Auto negotiation */
  if(pObj->IO.ReadReg(pObj->DevAddr, LAN8742_BCR, &readval) < 0)
 800119a:	687b      	ldr	r3, [r7, #4]
 800119c:	695b      	ldr	r3, [r3, #20]
 800119e:	687a      	ldr	r2, [r7, #4]
 80011a0:	6810      	ldr	r0, [r2, #0]
 80011a2:	f107 020c 	add.w	r2, r7, #12
 80011a6:	2100      	movs	r1, #0
 80011a8:	4798      	blx	r3
 80011aa:	4603      	mov	r3, r0
 80011ac:	2b00      	cmp	r3, #0
 80011ae:	da02      	bge.n	80011b6 <LAN8742_GetLinkState+0x6e>
  {
    return LAN8742_STATUS_READ_ERROR;
 80011b0:	f06f 0304 	mvn.w	r3, #4
 80011b4:	e04b      	b.n	800124e <LAN8742_GetLinkState+0x106>
  }

  if((readval & LAN8742_BCR_AUTONEGO_EN) != LAN8742_BCR_AUTONEGO_EN)
 80011b6:	68fb      	ldr	r3, [r7, #12]
 80011b8:	f403 5380 	and.w	r3, r3, #4096	; 0x1000
 80011bc:	2b00      	cmp	r3, #0
 80011be:	d11b      	bne.n	80011f8 <LAN8742_GetLinkState+0xb0>
  {
    if(((readval & LAN8742_BCR_SPEED_SELECT) == LAN8742_BCR_SPEED_SELECT) && ((readval & LAN8742_BCR_DUPLEX_MODE) == LAN8742_BCR_DUPLEX_MODE))
 80011c0:	68fb      	ldr	r3, [r7, #12]
 80011c2:	f403 5300 	and.w	r3, r3, #8192	; 0x2000
 80011c6:	2b00      	cmp	r3, #0
 80011c8:	d006      	beq.n	80011d8 <LAN8742_GetLinkState+0x90>
 80011ca:	68fb      	ldr	r3, [r7, #12]
 80011cc:	f403 7380 	and.w	r3, r3, #256	; 0x100
 80011d0:	2b00      	cmp	r3, #0
 80011d2:	d001      	beq.n	80011d8 <LAN8742_GetLinkState+0x90>
    {
      return LAN8742_STATUS_100MBITS_FULLDUPLEX;
 80011d4:	2302      	movs	r3, #2
 80011d6:	e03a      	b.n	800124e <LAN8742_GetLinkState+0x106>
    }
    else if ((readval & LAN8742_BCR_SPEED_SELECT) == LAN8742_BCR_SPEED_SELECT)
 80011d8:	68fb      	ldr	r3, [r7, #12]
 80011da:	f403 5300 	and.w	r3, r3, #8192	; 0x2000
 80011de:	2b00      	cmp	r3, #0
 80011e0:	d001      	beq.n	80011e6 <LAN8742_GetLinkState+0x9e>
    {
      return LAN8742_STATUS_100MBITS_HALFDUPLEX;
 80011e2:	2303      	movs	r3, #3
 80011e4:	e033      	b.n	800124e <LAN8742_GetLinkState+0x106>
    }
    else if ((readval & LAN8742_BCR_DUPLEX_MODE) == LAN8742_BCR_DUPLEX_MODE)
 80011e6:	68fb      	ldr	r3, [r7, #12]
 80011e8:	f403 7380 	and.w	r3, r3, #256	; 0x100
 80011ec:	2b00      	cmp	r3, #0
 80011ee:	d001      	beq.n	80011f4 <LAN8742_GetLinkState+0xac>
    {
      return LAN8742_STATUS_10MBITS_FULLDUPLEX;
 80011f0:	2304      	movs	r3, #4
 80011f2:	e02c      	b.n	800124e <LAN8742_GetLinkState+0x106>
    }
    else
    {
      return LAN8742_STATUS_10MBITS_HALFDUPLEX;
 80011f4:	2305      	movs	r3, #5
 80011f6:	e02a      	b.n	800124e <LAN8742_GetLinkState+0x106>
    }
  }
  else /* Auto Nego enabled */
  {
    if(pObj->IO.ReadReg(pObj->DevAddr, LAN8742_PHYSCSR, &readval) < 0)
 80011f8:	687b      	ldr	r3, [r7, #4]
 80011fa:	695b      	ldr	r3, [r3, #20]
 80011fc:	687a      	ldr	r2, [r7, #4]
 80011fe:	6810      	ldr	r0, [r2, #0]
 8001200:	f107 020c 	add.w	r2, r7, #12
 8001204:	211f      	movs	r1, #31
 8001206:	4798      	blx	r3
 8001208:	4603      	mov	r3, r0
 800120a:	2b00      	cmp	r3, #0
 800120c:	da02      	bge.n	8001214 <LAN8742_GetLinkState+0xcc>
    {
      return LAN8742_STATUS_READ_ERROR;
 800120e:	f06f 0304 	mvn.w	r3, #4
 8001212:	e01c      	b.n	800124e <LAN8742_GetLinkState+0x106>
    }

    /* Check if auto nego not done */
    if((readval & LAN8742_PHYSCSR_AUTONEGO_DONE) == 0)
 8001214:	68fb      	ldr	r3, [r7, #12]
 8001216:	f403 5380 	and.w	r3, r3, #4096	; 0x1000
 800121a:	2b00      	cmp	r3, #0
 800121c:	d101      	bne.n	8001222 <LAN8742_GetLinkState+0xda>
    {
      return LAN8742_STATUS_AUTONEGO_NOTDONE;
 800121e:	2306      	movs	r3, #6
 8001220:	e015      	b.n	800124e <LAN8742_GetLinkState+0x106>
    }

    if((readval & LAN8742_PHYSCSR_HCDSPEEDMASK) == LAN8742_PHYSCSR_100BTX_FD)
 8001222:	68fb      	ldr	r3, [r7, #12]
 8001224:	f003 031c 	and.w	r3, r3, #28
 8001228:	2b18      	cmp	r3, #24
 800122a:	d101      	bne.n	8001230 <LAN8742_GetLinkState+0xe8>
    {
      return LAN8742_STATUS_100MBITS_FULLDUPLEX;
 800122c:	2302      	movs	r3, #2
 800122e:	e00e      	b.n	800124e <LAN8742_GetLinkState+0x106>
    }
    else if ((readval & LAN8742_PHYSCSR_HCDSPEEDMASK) == LAN8742_PHYSCSR_100BTX_HD)
 8001230:	68fb      	ldr	r3, [r7, #12]
 8001232:	f003 031c 	and.w	r3, r3, #28
 8001236:	2b08      	cmp	r3, #8
 8001238:	d101      	bne.n	800123e <LAN8742_GetLinkState+0xf6>
    {
      return LAN8742_STATUS_100MBITS_HALFDUPLEX;
 800123a:	2303      	movs	r3, #3
 800123c:	e007      	b.n	800124e <LAN8742_GetLinkState+0x106>
    }
    else if ((readval & LAN8742_PHYSCSR_HCDSPEEDMASK) == LAN8742_PHYSCSR_10BT_FD)
 800123e:	68fb      	ldr	r3, [r7, #12]
 8001240:	f003 031c 	and.w	r3, r3, #28
 8001244:	2b14      	cmp	r3, #20
 8001246:	d101      	bne.n	800124c <LAN8742_GetLinkState+0x104>
    {
      return LAN8742_STATUS_10MBITS_FULLDUPLEX;
 8001248:	2304      	movs	r3, #4
 800124a:	e000      	b.n	800124e <LAN8742_GetLinkState+0x106>
    }
    else
    {
      return LAN8742_STATUS_10MBITS_HALFDUPLEX;
 800124c:	2305      	movs	r3, #5
    }
  }
}
 800124e:	4618      	mov	r0, r3
 8001250:	3710      	adds	r7, #16
 8001252:	46bd      	mov	sp, r7
 8001254:	bd80      	pop	{r7, pc}

08001256 <HAL_Init>:
  *         need to ensure that the SysTick time base is always set to 1 millisecond
  *         to have correct HAL operation.
  * @retval HAL status
  */
HAL_StatusTypeDef HAL_Init(void)
{
 8001256:	b580      	push	{r7, lr}
 8001258:	af00      	add	r7, sp, #0
#if (PREFETCH_ENABLE != 0U)
  __HAL_FLASH_PREFETCH_BUFFER_ENABLE();
#endif /* PREFETCH_ENABLE */

  /* Set Interrupt Group Priority */
  HAL_NVIC_SetPriorityGrouping(NVIC_PRIORITYGROUP_4);
 800125a:	2003      	movs	r0, #3
 800125c:	f000 f94c 	bl	80014f8 <HAL_NVIC_SetPriorityGrouping>

  /* Use systick as time base source and configure 1ms tick (default clock after Reset is HSI) */
  HAL_InitTick(TICK_INT_PRIORITY);
 8001260:	200f      	movs	r0, #15
 8001262:	f000 f805 	bl	8001270 <HAL_InitTick>

  /* Init the low level hardware */
  HAL_MspInit();
 8001266:	f7ff fbb5 	bl	80009d4 <HAL_MspInit>

  /* Return function status */
  return HAL_OK;
 800126a:	2300      	movs	r3, #0
}
 800126c:	4618      	mov	r0, r3
 800126e:	bd80      	pop	{r7, pc}

08001270 <HAL_InitTick>:
  *       implementation  in user file.
  * @param TickPriority Tick interrupt priority.
  * @retval HAL status
  */
__weak HAL_StatusTypeDef HAL_InitTick(uint32_t TickPriority)
{
 8001270:	b580      	push	{r7, lr}
 8001272:	b082      	sub	sp, #8
 8001274:	af00      	add	r7, sp, #0
 8001276:	6078      	str	r0, [r7, #4]
  /* Configure the SysTick to have interrupt in 1ms time basis*/
  if (HAL_SYSTICK_Config(SystemCoreClock / (1000U / uwTickFreq)) > 0U)
 8001278:	4b12      	ldr	r3, [pc, #72]	; (80012c4 <HAL_InitTick+0x54>)
 800127a:	681a      	ldr	r2, [r3, #0]
 800127c:	4b12      	ldr	r3, [pc, #72]	; (80012c8 <HAL_InitTick+0x58>)
 800127e:	781b      	ldrb	r3, [r3, #0]
 8001280:	4619      	mov	r1, r3
 8001282:	f44f 737a 	mov.w	r3, #1000	; 0x3e8
 8001286:	fbb3 f3f1 	udiv	r3, r3, r1
 800128a:	fbb2 f3f3 	udiv	r3, r2, r3
 800128e:	4618      	mov	r0, r3
 8001290:	f000 f967 	bl	8001562 <HAL_SYSTICK_Config>
 8001294:	4603      	mov	r3, r0
 8001296:	2b00      	cmp	r3, #0
 8001298:	d001      	beq.n	800129e <HAL_InitTick+0x2e>
  {
    return HAL_ERROR;
 800129a:	2301      	movs	r3, #1
 800129c:	e00e      	b.n	80012bc <HAL_InitTick+0x4c>
  }

  /* Configure the SysTick IRQ priority */
  if (TickPriority < (1UL << __NVIC_PRIO_BITS))
 800129e:	687b      	ldr	r3, [r7, #4]
 80012a0:	2b0f      	cmp	r3, #15
 80012a2:	d80a      	bhi.n	80012ba <HAL_InitTick+0x4a>
  {
    HAL_NVIC_SetPriority(SysTick_IRQn, TickPriority, 0U);
 80012a4:	2200      	movs	r2, #0
 80012a6:	6879      	ldr	r1, [r7, #4]
 80012a8:	f04f 30ff 	mov.w	r0, #4294967295
 80012ac:	f000 f92f 	bl	800150e <HAL_NVIC_SetPriority>
    uwTickPrio = TickPriority;
 80012b0:	4a06      	ldr	r2, [pc, #24]	; (80012cc <HAL_InitTick+0x5c>)
 80012b2:	687b      	ldr	r3, [r7, #4]
 80012b4:	6013      	str	r3, [r2, #0]
  {
    return HAL_ERROR;
  }

  /* Return function status */
  return HAL_OK;
 80012b6:	2300      	movs	r3, #0
 80012b8:	e000      	b.n	80012bc <HAL_InitTick+0x4c>
    return HAL_ERROR;
 80012ba:	2301      	movs	r3, #1
}
 80012bc:	4618      	mov	r0, r3
 80012be:	3708      	adds	r7, #8
 80012c0:	46bd      	mov	sp, r7
 80012c2:	bd80      	pop	{r7, pc}
 80012c4:	20000000 	.word	0x20000000
 80012c8:	2000000c 	.word	0x2000000c
 80012cc:	20000008 	.word	0x20000008

080012d0 <HAL_IncTick>:
 * @note This function is declared as __weak to be overwritten in case of other 
  *      implementations in user file.
  * @retval None
  */
__weak void HAL_IncTick(void)
{
 80012d0:	b480      	push	{r7}
 80012d2:	af00      	add	r7, sp, #0
  uwTick += uwTickFreq;
 80012d4:	4b06      	ldr	r3, [pc, #24]	; (80012f0 <HAL_IncTick+0x20>)
 80012d6:	781b      	ldrb	r3, [r3, #0]
 80012d8:	461a      	mov	r2, r3
 80012da:	4b06      	ldr	r3, [pc, #24]	; (80012f4 <HAL_IncTick+0x24>)
 80012dc:	681b      	ldr	r3, [r3, #0]
 80012de:	4413      	add	r3, r2
 80012e0:	4a04      	ldr	r2, [pc, #16]	; (80012f4 <HAL_IncTick+0x24>)
 80012e2:	6013      	str	r3, [r2, #0]
}
 80012e4:	bf00      	nop
 80012e6:	46bd      	mov	sp, r7
 80012e8:	f85d 7b04 	ldr.w	r7, [sp], #4
 80012ec:	4770      	bx	lr
 80012ee:	bf00      	nop
 80012f0:	2000000c 	.word	0x2000000c
 80012f4:	20000334 	.word	0x20000334

080012f8 <HAL_GetTick>:
  * @note This function is declared as __weak to be overwritten in case of other 
  *       implementations in user file.
  * @retval tick value
  */
__weak uint32_t HAL_GetTick(void)
{
 80012f8:	b480      	push	{r7}
 80012fa:	af00      	add	r7, sp, #0
  return uwTick;
 80012fc:	4b03      	ldr	r3, [pc, #12]	; (800130c <HAL_GetTick+0x14>)
 80012fe:	681b      	ldr	r3, [r3, #0]
}
 8001300:	4618      	mov	r0, r3
 8001302:	46bd      	mov	sp, r7
 8001304:	f85d 7b04 	ldr.w	r7, [sp], #4
 8001308:	4770      	bx	lr
 800130a:	bf00      	nop
 800130c:	20000334 	.word	0x20000334

08001310 <HAL_Delay>:
  *       implementations in user file.
  * @param Delay  specifies the delay time length, in milliseconds.
  * @retval None
  */
__weak void HAL_Delay(uint32_t Delay)
{
 8001310:	b580      	push	{r7, lr}
 8001312:	b084      	sub	sp, #16
 8001314:	af00      	add	r7, sp, #0
 8001316:	6078      	str	r0, [r7, #4]
  uint32_t tickstart = HAL_GetTick();
 8001318:	f7ff ffee 	bl	80012f8 <HAL_GetTick>
 800131c:	60b8      	str	r0, [r7, #8]
  uint32_t wait = Delay;
 800131e:	687b      	ldr	r3, [r7, #4]
 8001320:	60fb      	str	r3, [r7, #12]

  /* Add a freq to guarantee minimum wait */
  if (wait < HAL_MAX_DELAY)
 8001322:	68fb      	ldr	r3, [r7, #12]
 8001324:	f1b3 3fff 	cmp.w	r3, #4294967295
 8001328:	d005      	beq.n	8001336 <HAL_Delay+0x26>
  {
    wait += (uint32_t)(uwTickFreq);
 800132a:	4b0a      	ldr	r3, [pc, #40]	; (8001354 <HAL_Delay+0x44>)
 800132c:	781b      	ldrb	r3, [r3, #0]
 800132e:	461a      	mov	r2, r3
 8001330:	68fb      	ldr	r3, [r7, #12]
 8001332:	4413      	add	r3, r2
 8001334:	60fb      	str	r3, [r7, #12]
  }

  while ((HAL_GetTick() - tickstart) < wait)
 8001336:	bf00      	nop
 8001338:	f7ff ffde 	bl	80012f8 <HAL_GetTick>
 800133c:	4602      	mov	r2, r0
 800133e:	68bb      	ldr	r3, [r7, #8]
 8001340:	1ad3      	subs	r3, r2, r3
 8001342:	68fa      	ldr	r2, [r7, #12]
 8001344:	429a      	cmp	r2, r3
 8001346:	d8f7      	bhi.n	8001338 <HAL_Delay+0x28>
  {
  }
}
 8001348:	bf00      	nop
 800134a:	bf00      	nop
 800134c:	3710      	adds	r7, #16
 800134e:	46bd      	mov	sp, r7
 8001350:	bd80      	pop	{r7, pc}
 8001352:	bf00      	nop
 8001354:	2000000c 	.word	0x2000000c

08001358 <__NVIC_SetPriorityGrouping>:
           In case of a conflict between priority grouping and available
           priority bits (__NVIC_PRIO_BITS), the smallest possible priority group is set.
  \param [in]      PriorityGroup  Priority grouping field.
 */
__STATIC_INLINE void __NVIC_SetPriorityGrouping(uint32_t PriorityGroup)
{
 8001358:	b480      	push	{r7}
 800135a:	b085      	sub	sp, #20
 800135c:	af00      	add	r7, sp, #0
 800135e:	6078      	str	r0, [r7, #4]
  uint32_t reg_value;
  uint32_t PriorityGroupTmp = (PriorityGroup & (uint32_t)0x07UL);             /* only values 0..7 are used          */
 8001360:	687b      	ldr	r3, [r7, #4]
 8001362:	f003 0307 	and.w	r3, r3, #7
 8001366:	60fb      	str	r3, [r7, #12]

  reg_value  =  SCB->AIRCR;                                                   /* read old register configuration    */
 8001368:	4b0b      	ldr	r3, [pc, #44]	; (8001398 <__NVIC_SetPriorityGrouping+0x40>)
 800136a:	68db      	ldr	r3, [r3, #12]
 800136c:	60bb      	str	r3, [r7, #8]
  reg_value &= ~((uint32_t)(SCB_AIRCR_VECTKEY_Msk | SCB_AIRCR_PRIGROUP_Msk)); /* clear bits to change               */
 800136e:	68ba      	ldr	r2, [r7, #8]
 8001370:	f64f 03ff 	movw	r3, #63743	; 0xf8ff
 8001374:	4013      	ands	r3, r2
 8001376:	60bb      	str	r3, [r7, #8]
  reg_value  =  (reg_value                                   |
                ((uint32_t)0x5FAUL << SCB_AIRCR_VECTKEY_Pos) |
                (PriorityGroupTmp << SCB_AIRCR_PRIGROUP_Pos)  );              /* Insert write key and priority group */
 8001378:	68fb      	ldr	r3, [r7, #12]
 800137a:	021a      	lsls	r2, r3, #8
                ((uint32_t)0x5FAUL << SCB_AIRCR_VECTKEY_Pos) |
 800137c:	68bb      	ldr	r3, [r7, #8]
 800137e:	431a      	orrs	r2, r3
  reg_value  =  (reg_value                                   |
 8001380:	4b06      	ldr	r3, [pc, #24]	; (800139c <__NVIC_SetPriorityGrouping+0x44>)
 8001382:	4313      	orrs	r3, r2
 8001384:	60bb      	str	r3, [r7, #8]
  SCB->AIRCR =  reg_value;
 8001386:	4a04      	ldr	r2, [pc, #16]	; (8001398 <__NVIC_SetPriorityGrouping+0x40>)
 8001388:	68bb      	ldr	r3, [r7, #8]
 800138a:	60d3      	str	r3, [r2, #12]
}
 800138c:	bf00      	nop
 800138e:	3714      	adds	r7, #20
 8001390:	46bd      	mov	sp, r7
 8001392:	f85d 7b04 	ldr.w	r7, [sp], #4
 8001396:	4770      	bx	lr
 8001398:	e000ed00 	.word	0xe000ed00
 800139c:	05fa0000 	.word	0x05fa0000

080013a0 <__NVIC_GetPriorityGrouping>:
  \brief   Get Priority Grouping
  \details Reads the priority grouping field from the NVIC Interrupt Controller.
  \return                Priority grouping field (SCB->AIRCR [10:8] PRIGROUP field).
 */
__STATIC_INLINE uint32_t __NVIC_GetPriorityGrouping(void)
{
 80013a0:	b480      	push	{r7}
 80013a2:	af00      	add	r7, sp, #0
  return ((uint32_t)((SCB->AIRCR & SCB_AIRCR_PRIGROUP_Msk) >> SCB_AIRCR_PRIGROUP_Pos));
 80013a4:	4b04      	ldr	r3, [pc, #16]	; (80013b8 <__NVIC_GetPriorityGrouping+0x18>)
 80013a6:	68db      	ldr	r3, [r3, #12]
 80013a8:	0a1b      	lsrs	r3, r3, #8
 80013aa:	f003 0307 	and.w	r3, r3, #7
}
 80013ae:	4618      	mov	r0, r3
 80013b0:	46bd      	mov	sp, r7
 80013b2:	f85d 7b04 	ldr.w	r7, [sp], #4
 80013b6:	4770      	bx	lr
 80013b8:	e000ed00 	.word	0xe000ed00

080013bc <__NVIC_EnableIRQ>:
  \details Enables a device specific interrupt in the NVIC interrupt controller.
  \param [in]      IRQn  Device specific interrupt number.
  \note    IRQn must not be negative.
 */
__STATIC_INLINE void __NVIC_EnableIRQ(IRQn_Type IRQn)
{
 80013bc:	b480      	push	{r7}
 80013be:	b083      	sub	sp, #12
 80013c0:	af00      	add	r7, sp, #0
 80013c2:	4603      	mov	r3, r0
 80013c4:	71fb      	strb	r3, [r7, #7]
  if ((int32_t)(IRQn) >= 0)
 80013c6:	f997 3007 	ldrsb.w	r3, [r7, #7]
 80013ca:	2b00      	cmp	r3, #0
 80013cc:	db0b      	blt.n	80013e6 <__NVIC_EnableIRQ+0x2a>
  {
    NVIC->ISER[(((uint32_t)IRQn) >> 5UL)] = (uint32_t)(1UL << (((uint32_t)IRQn) & 0x1FUL));
 80013ce:	79fb      	ldrb	r3, [r7, #7]
 80013d0:	f003 021f 	and.w	r2, r3, #31
 80013d4:	4907      	ldr	r1, [pc, #28]	; (80013f4 <__NVIC_EnableIRQ+0x38>)
 80013d6:	f997 3007 	ldrsb.w	r3, [r7, #7]
 80013da:	095b      	lsrs	r3, r3, #5
 80013dc:	2001      	movs	r0, #1
 80013de:	fa00 f202 	lsl.w	r2, r0, r2
 80013e2:	f841 2023 	str.w	r2, [r1, r3, lsl #2]
  }
}
 80013e6:	bf00      	nop
 80013e8:	370c      	adds	r7, #12
 80013ea:	46bd      	mov	sp, r7
 80013ec:	f85d 7b04 	ldr.w	r7, [sp], #4
 80013f0:	4770      	bx	lr
 80013f2:	bf00      	nop
 80013f4:	e000e100 	.word	0xe000e100

080013f8 <__NVIC_SetPriority>:
  \param [in]      IRQn  Interrupt number.
  \param [in]  priority  Priority to set.
  \note    The priority cannot be set for every processor exception.
 */
__STATIC_INLINE void __NVIC_SetPriority(IRQn_Type IRQn, uint32_t priority)
{
 80013f8:	b480      	push	{r7}
 80013fa:	b083      	sub	sp, #12
 80013fc:	af00      	add	r7, sp, #0
 80013fe:	4603      	mov	r3, r0
 8001400:	6039      	str	r1, [r7, #0]
 8001402:	71fb      	strb	r3, [r7, #7]
  if ((int32_t)(IRQn) >= 0)
 8001404:	f997 3007 	ldrsb.w	r3, [r7, #7]
 8001408:	2b00      	cmp	r3, #0
 800140a:	db0a      	blt.n	8001422 <__NVIC_SetPriority+0x2a>
  {
    NVIC->IP[((uint32_t)IRQn)]                = (uint8_t)((priority << (8U - __NVIC_PRIO_BITS)) & (uint32_t)0xFFUL);
 800140c:	683b      	ldr	r3, [r7, #0]
 800140e:	b2da      	uxtb	r2, r3
 8001410:	490c      	ldr	r1, [pc, #48]	; (8001444 <__NVIC_SetPriority+0x4c>)
 8001412:	f997 3007 	ldrsb.w	r3, [r7, #7]
 8001416:	0112      	lsls	r2, r2, #4
 8001418:	b2d2      	uxtb	r2, r2
 800141a:	440b      	add	r3, r1
 800141c:	f883 2300 	strb.w	r2, [r3, #768]	; 0x300
  }
  else
  {
    SCB->SHPR[(((uint32_t)IRQn) & 0xFUL)-4UL] = (uint8_t)((priority << (8U - __NVIC_PRIO_BITS)) & (uint32_t)0xFFUL);
  }
}
 8001420:	e00a      	b.n	8001438 <__NVIC_SetPriority+0x40>
    SCB->SHPR[(((uint32_t)IRQn) & 0xFUL)-4UL] = (uint8_t)((priority << (8U - __NVIC_PRIO_BITS)) & (uint32_t)0xFFUL);
 8001422:	683b      	ldr	r3, [r7, #0]
 8001424:	b2da      	uxtb	r2, r3
 8001426:	4908      	ldr	r1, [pc, #32]	; (8001448 <__NVIC_SetPriority+0x50>)
 8001428:	79fb      	ldrb	r3, [r7, #7]
 800142a:	f003 030f 	and.w	r3, r3, #15
 800142e:	3b04      	subs	r3, #4
 8001430:	0112      	lsls	r2, r2, #4
 8001432:	b2d2      	uxtb	r2, r2
 8001434:	440b      	add	r3, r1
 8001436:	761a      	strb	r2, [r3, #24]
}
 8001438:	bf00      	nop
 800143a:	370c      	adds	r7, #12
 800143c:	46bd      	mov	sp, r7
 800143e:	f85d 7b04 	ldr.w	r7, [sp], #4
 8001442:	4770      	bx	lr
 8001444:	e000e100 	.word	0xe000e100
 8001448:	e000ed00 	.word	0xe000ed00

0800144c <NVIC_EncodePriority>:
  \param [in]   PreemptPriority  Preemptive priority value (starting from 0).
  \param [in]       SubPriority  Subpriority value (starting from 0).
  \return                        Encoded priority. Value can be used in the function \ref NVIC_SetPriority().
 */
__STATIC_INLINE uint32_t NVIC_EncodePriority (uint32_t PriorityGroup, uint32_t PreemptPriority, uint32_t SubPriority)
{
 800144c:	b480      	push	{r7}
 800144e:	b089      	sub	sp, #36	; 0x24
 8001450:	af00      	add	r7, sp, #0
 8001452:	60f8      	str	r0, [r7, #12]
 8001454:	60b9      	str	r1, [r7, #8]
 8001456:	607a      	str	r2, [r7, #4]
  uint32_t PriorityGroupTmp = (PriorityGroup & (uint32_t)0x07UL);   /* only values 0..7 are used          */
 8001458:	68fb      	ldr	r3, [r7, #12]
 800145a:	f003 0307 	and.w	r3, r3, #7
 800145e:	61fb      	str	r3, [r7, #28]
  uint32_t PreemptPriorityBits;
  uint32_t SubPriorityBits;

  PreemptPriorityBits = ((7UL - PriorityGroupTmp) > (uint32_t)(__NVIC_PRIO_BITS)) ? (uint32_t)(__NVIC_PRIO_BITS) : (uint32_t)(7UL - PriorityGroupTmp);
 8001460:	69fb      	ldr	r3, [r7, #28]
 8001462:	f1c3 0307 	rsb	r3, r3, #7
 8001466:	2b04      	cmp	r3, #4
 8001468:	bf28      	it	cs
 800146a:	2304      	movcs	r3, #4
 800146c:	61bb      	str	r3, [r7, #24]
  SubPriorityBits     = ((PriorityGroupTmp + (uint32_t)(__NVIC_PRIO_BITS)) < (uint32_t)7UL) ? (uint32_t)0UL : (uint32_t)((PriorityGroupTmp - 7UL) + (uint32_t)(__NVIC_PRIO_BITS));
 800146e:	69fb      	ldr	r3, [r7, #28]
 8001470:	3304      	adds	r3, #4
 8001472:	2b06      	cmp	r3, #6
 8001474:	d902      	bls.n	800147c <NVIC_EncodePriority+0x30>
 8001476:	69fb      	ldr	r3, [r7, #28]
 8001478:	3b03      	subs	r3, #3
 800147a:	e000      	b.n	800147e <NVIC_EncodePriority+0x32>
 800147c:	2300      	movs	r3, #0
 800147e:	617b      	str	r3, [r7, #20]

  return (
           ((PreemptPriority & (uint32_t)((1UL << (PreemptPriorityBits)) - 1UL)) << SubPriorityBits) |
 8001480:	f04f 32ff 	mov.w	r2, #4294967295
 8001484:	69bb      	ldr	r3, [r7, #24]
 8001486:	fa02 f303 	lsl.w	r3, r2, r3
 800148a:	43da      	mvns	r2, r3
 800148c:	68bb      	ldr	r3, [r7, #8]
 800148e:	401a      	ands	r2, r3
 8001490:	697b      	ldr	r3, [r7, #20]
 8001492:	409a      	lsls	r2, r3
           ((SubPriority     & (uint32_t)((1UL << (SubPriorityBits    )) - 1UL)))
 8001494:	f04f 31ff 	mov.w	r1, #4294967295
 8001498:	697b      	ldr	r3, [r7, #20]
 800149a:	fa01 f303 	lsl.w	r3, r1, r3
 800149e:	43d9      	mvns	r1, r3
 80014a0:	687b      	ldr	r3, [r7, #4]
 80014a2:	400b      	ands	r3, r1
           ((PreemptPriority & (uint32_t)((1UL << (PreemptPriorityBits)) - 1UL)) << SubPriorityBits) |
 80014a4:	4313      	orrs	r3, r2
         );
}
 80014a6:	4618      	mov	r0, r3
 80014a8:	3724      	adds	r7, #36	; 0x24
 80014aa:	46bd      	mov	sp, r7
 80014ac:	f85d 7b04 	ldr.w	r7, [sp], #4
 80014b0:	4770      	bx	lr
	...

080014b4 <SysTick_Config>:
  \note    When the variable <b>__Vendor_SysTickConfig</b> is set to 1, then the
           function <b>SysTick_Config</b> is not included. In this case, the file <b><i>device</i>.h</b>
           must contain a vendor-specific implementation of this function.
 */
__STATIC_INLINE uint32_t SysTick_Config(uint32_t ticks)
{
 80014b4:	b580      	push	{r7, lr}
 80014b6:	b082      	sub	sp, #8
 80014b8:	af00      	add	r7, sp, #0
 80014ba:	6078      	str	r0, [r7, #4]
  if ((ticks - 1UL) > SysTick_LOAD_RELOAD_Msk)
 80014bc:	687b      	ldr	r3, [r7, #4]
 80014be:	3b01      	subs	r3, #1
 80014c0:	f1b3 7f80 	cmp.w	r3, #16777216	; 0x1000000
 80014c4:	d301      	bcc.n	80014ca <SysTick_Config+0x16>
  {
    return (1UL);                                                   /* Reload value impossible */
 80014c6:	2301      	movs	r3, #1
 80014c8:	e00f      	b.n	80014ea <SysTick_Config+0x36>
  }

  SysTick->LOAD  = (uint32_t)(ticks - 1UL);                         /* set reload register */
 80014ca:	4a0a      	ldr	r2, [pc, #40]	; (80014f4 <SysTick_Config+0x40>)
 80014cc:	687b      	ldr	r3, [r7, #4]
 80014ce:	3b01      	subs	r3, #1
 80014d0:	6053      	str	r3, [r2, #4]
  NVIC_SetPriority (SysTick_IRQn, (1UL << __NVIC_PRIO_BITS) - 1UL); /* set Priority for Systick Interrupt */
 80014d2:	210f      	movs	r1, #15
 80014d4:	f04f 30ff 	mov.w	r0, #4294967295
 80014d8:	f7ff ff8e 	bl	80013f8 <__NVIC_SetPriority>
  SysTick->VAL   = 0UL;                                             /* Load the SysTick Counter Value */
 80014dc:	4b05      	ldr	r3, [pc, #20]	; (80014f4 <SysTick_Config+0x40>)
 80014de:	2200      	movs	r2, #0
 80014e0:	609a      	str	r2, [r3, #8]
  SysTick->CTRL  = SysTick_CTRL_CLKSOURCE_Msk |
 80014e2:	4b04      	ldr	r3, [pc, #16]	; (80014f4 <SysTick_Config+0x40>)
 80014e4:	2207      	movs	r2, #7
 80014e6:	601a      	str	r2, [r3, #0]
                   SysTick_CTRL_TICKINT_Msk   |
                   SysTick_CTRL_ENABLE_Msk;                         /* Enable SysTick IRQ and SysTick Timer */
  return (0UL);                                                     /* Function successful */
 80014e8:	2300      	movs	r3, #0
}
 80014ea:	4618      	mov	r0, r3
 80014ec:	3708      	adds	r7, #8
 80014ee:	46bd      	mov	sp, r7
 80014f0:	bd80      	pop	{r7, pc}
 80014f2:	bf00      	nop
 80014f4:	e000e010 	.word	0xe000e010

080014f8 <HAL_NVIC_SetPriorityGrouping>:
  * @note   When the NVIC_PriorityGroup_0 is selected, IRQ preemption is no more possible. 
  *         The pending IRQ priority will be managed only by the subpriority. 
  * @retval None
  */
void HAL_NVIC_SetPriorityGrouping(uint32_t PriorityGroup)
{
 80014f8:	b580      	push	{r7, lr}
 80014fa:	b082      	sub	sp, #8
 80014fc:	af00      	add	r7, sp, #0
 80014fe:	6078      	str	r0, [r7, #4]
  /* Check the parameters */
  assert_param(IS_NVIC_PRIORITY_GROUP(PriorityGroup));
  
  /* Set the PRIGROUP[10:8] bits according to the PriorityGroup parameter value */
  NVIC_SetPriorityGrouping(PriorityGroup);
 8001500:	6878      	ldr	r0, [r7, #4]
 8001502:	f7ff ff29 	bl	8001358 <__NVIC_SetPriorityGrouping>
}
 8001506:	bf00      	nop
 8001508:	3708      	adds	r7, #8
 800150a:	46bd      	mov	sp, r7
 800150c:	bd80      	pop	{r7, pc}

0800150e <HAL_NVIC_SetPriority>:
  *         This parameter can be a value between 0 and 15
  *         A lower priority value indicates a higher priority.          
  * @retval None
  */
void HAL_NVIC_SetPriority(IRQn_Type IRQn, uint32_t PreemptPriority, uint32_t SubPriority)
{ 
 800150e:	b580      	push	{r7, lr}
 8001510:	b086      	sub	sp, #24
 8001512:	af00      	add	r7, sp, #0
 8001514:	4603      	mov	r3, r0
 8001516:	60b9      	str	r1, [r7, #8]
 8001518:	607a      	str	r2, [r7, #4]
 800151a:	73fb      	strb	r3, [r7, #15]
  uint32_t prioritygroup = 0x00;
 800151c:	2300      	movs	r3, #0
 800151e:	617b      	str	r3, [r7, #20]
  
  /* Check the parameters */
  assert_param(IS_NVIC_SUB_PRIORITY(SubPriority));
  assert_param(IS_NVIC_PREEMPTION_PRIORITY(PreemptPriority));
  
  prioritygroup = NVIC_GetPriorityGrouping();
 8001520:	f7ff ff3e 	bl	80013a0 <__NVIC_GetPriorityGrouping>
 8001524:	6178      	str	r0, [r7, #20]
  
  NVIC_SetPriority(IRQn, NVIC_EncodePriority(prioritygroup, PreemptPriority, SubPriority));
 8001526:	687a      	ldr	r2, [r7, #4]
 8001528:	68b9      	ldr	r1, [r7, #8]
 800152a:	6978      	ldr	r0, [r7, #20]
 800152c:	f7ff ff8e 	bl	800144c <NVIC_EncodePriority>
 8001530:	4602      	mov	r2, r0
 8001532:	f997 300f 	ldrsb.w	r3, [r7, #15]
 8001536:	4611      	mov	r1, r2
 8001538:	4618      	mov	r0, r3
 800153a:	f7ff ff5d 	bl	80013f8 <__NVIC_SetPriority>
}
 800153e:	bf00      	nop
 8001540:	3718      	adds	r7, #24
 8001542:	46bd      	mov	sp, r7
 8001544:	bd80      	pop	{r7, pc}

08001546 <HAL_NVIC_EnableIRQ>:
  *         This parameter can be an enumerator of IRQn_Type enumeration
  *         (For the complete STM32 Devices IRQ Channels list, please refer to the appropriate CMSIS device file (stm32f7xxxx.h))
  * @retval None
  */
void HAL_NVIC_EnableIRQ(IRQn_Type IRQn)
{
 8001546:	b580      	push	{r7, lr}
 8001548:	b082      	sub	sp, #8
 800154a:	af00      	add	r7, sp, #0
 800154c:	4603      	mov	r3, r0
 800154e:	71fb      	strb	r3, [r7, #7]
  /* Check the parameters */
  assert_param(IS_NVIC_DEVICE_IRQ(IRQn));
  
  /* Enable interrupt */
  NVIC_EnableIRQ(IRQn);
 8001550:	f997 3007 	ldrsb.w	r3, [r7, #7]
 8001554:	4618      	mov	r0, r3
 8001556:	f7ff ff31 	bl	80013bc <__NVIC_EnableIRQ>
}
 800155a:	bf00      	nop
 800155c:	3708      	adds	r7, #8
 800155e:	46bd      	mov	sp, r7
 8001560:	bd80      	pop	{r7, pc}

08001562 <HAL_SYSTICK_Config>:
  * @param  TicksNumb Specifies the ticks Number of ticks between two interrupts.
  * @retval status:  - 0  Function succeeded.
  *                  - 1  Function failed.
  */
uint32_t HAL_SYSTICK_Config(uint32_t TicksNumb)
{
 8001562:	b580      	push	{r7, lr}
 8001564:	b082      	sub	sp, #8
 8001566:	af00      	add	r7, sp, #0
 8001568:	6078      	str	r0, [r7, #4]
   return SysTick_Config(TicksNumb);
 800156a:	6878      	ldr	r0, [r7, #4]
 800156c:	f7ff ffa2 	bl	80014b4 <SysTick_Config>
 8001570:	4603      	mov	r3, r0
}
 8001572:	4618      	mov	r0, r3
 8001574:	3708      	adds	r7, #8
 8001576:	46bd      	mov	sp, r7
 8001578:	bd80      	pop	{r7, pc}
	...

0800157c <HAL_DMA_Init>:
  * @param  hdma Pointer to a DMA_HandleTypeDef structure that contains
  *               the configuration information for the specified DMA Stream.  
  * @retval HAL status
  */
HAL_StatusTypeDef HAL_DMA_Init(DMA_HandleTypeDef *hdma)
{
 800157c:	b580      	push	{r7, lr}
 800157e:	b086      	sub	sp, #24
 8001580:	af00      	add	r7, sp, #0
 8001582:	6078      	str	r0, [r7, #4]
  uint32_t tmp = 0U;
 8001584:	2300      	movs	r3, #0
 8001586:	617b      	str	r3, [r7, #20]
  uint32_t tickstart = HAL_GetTick();
 8001588:	f7ff feb6 	bl	80012f8 <HAL_GetTick>
 800158c:	6138      	str	r0, [r7, #16]
  DMA_Base_Registers *regs;

  /* Check the DMA peripheral state */
  if(hdma == NULL)
 800158e:	687b      	ldr	r3, [r7, #4]
 8001590:	2b00      	cmp	r3, #0
 8001592:	d101      	bne.n	8001598 <HAL_DMA_Init+0x1c>
  {
    return HAL_ERROR;
 8001594:	2301      	movs	r3, #1
 8001596:	e099      	b.n	80016cc <HAL_DMA_Init+0x150>
    assert_param(IS_DMA_MEMORY_BURST(hdma->Init.MemBurst));
    assert_param(IS_DMA_PERIPHERAL_BURST(hdma->Init.PeriphBurst));
  }
  
  /* Change DMA peripheral state */
  hdma->State = HAL_DMA_STATE_BUSY;
 8001598:	687b      	ldr	r3, [r7, #4]
 800159a:	2202      	movs	r2, #2
 800159c:	f883 2035 	strb.w	r2, [r3, #53]	; 0x35
  
  /* Allocate lock resource */
  __HAL_UNLOCK(hdma);
 80015a0:	687b      	ldr	r3, [r7, #4]
 80015a2:	2200      	movs	r2, #0
 80015a4:	f883 2034 	strb.w	r2, [r3, #52]	; 0x34

  
  /* Disable the peripheral */
  __HAL_DMA_DISABLE(hdma);
 80015a8:	687b      	ldr	r3, [r7, #4]
 80015aa:	681b      	ldr	r3, [r3, #0]
 80015ac:	681a      	ldr	r2, [r3, #0]
 80015ae:	687b      	ldr	r3, [r7, #4]
 80015b0:	681b      	ldr	r3, [r3, #0]
 80015b2:	f022 0201 	bic.w	r2, r2, #1
 80015b6:	601a      	str	r2, [r3, #0]
  
  /* Check if the DMA Stream is effectively disabled */
  while((hdma->Instance->CR & DMA_SxCR_EN) != RESET)
 80015b8:	e00f      	b.n	80015da <HAL_DMA_Init+0x5e>
  {
    /* Check for the Timeout */
    if((HAL_GetTick() - tickstart ) > HAL_TIMEOUT_DMA_ABORT)
 80015ba:	f7ff fe9d 	bl	80012f8 <HAL_GetTick>
 80015be:	4602      	mov	r2, r0
 80015c0:	693b      	ldr	r3, [r7, #16]
 80015c2:	1ad3      	subs	r3, r2, r3
 80015c4:	2b05      	cmp	r3, #5
 80015c6:	d908      	bls.n	80015da <HAL_DMA_Init+0x5e>
    {
      /* Update error code */
      hdma->ErrorCode = HAL_DMA_ERROR_TIMEOUT;
 80015c8:	687b      	ldr	r3, [r7, #4]
 80015ca:	2220      	movs	r2, #32
 80015cc:	655a      	str	r2, [r3, #84]	; 0x54
      
      /* Change the DMA state */
      hdma->State = HAL_DMA_STATE_TIMEOUT;
 80015ce:	687b      	ldr	r3, [r7, #4]
 80015d0:	2203      	movs	r2, #3
 80015d2:	f883 2035 	strb.w	r2, [r3, #53]	; 0x35
      
      return HAL_TIMEOUT;
 80015d6:	2303      	movs	r3, #3
 80015d8:	e078      	b.n	80016cc <HAL_DMA_Init+0x150>
  while((hdma->Instance->CR & DMA_SxCR_EN) != RESET)
 80015da:	687b      	ldr	r3, [r7, #4]
 80015dc:	681b      	ldr	r3, [r3, #0]
 80015de:	681b      	ldr	r3, [r3, #0]
 80015e0:	f003 0301 	and.w	r3, r3, #1
 80015e4:	2b00      	cmp	r3, #0
 80015e6:	d1e8      	bne.n	80015ba <HAL_DMA_Init+0x3e>
    }
  }
  
  /* Get the CR register value */
  tmp = hdma->Instance->CR;
 80015e8:	687b      	ldr	r3, [r7, #4]
 80015ea:	681b      	ldr	r3, [r3, #0]
 80015ec:	681b      	ldr	r3, [r3, #0]
 80015ee:	617b      	str	r3, [r7, #20]

  /* Clear CHSEL, MBURST, PBURST, PL, MSIZE, PSIZE, MINC, PINC, CIRC, DIR, CT and DBM bits */
  tmp &= ((uint32_t)~(DMA_SxCR_CHSEL | DMA_SxCR_MBURST | DMA_SxCR_PBURST | \
 80015f0:	697a      	ldr	r2, [r7, #20]
 80015f2:	4b38      	ldr	r3, [pc, #224]	; (80016d4 <HAL_DMA_Init+0x158>)
 80015f4:	4013      	ands	r3, r2
 80015f6:	617b      	str	r3, [r7, #20]
                      DMA_SxCR_PL    | DMA_SxCR_MSIZE  | DMA_SxCR_PSIZE  | \
                      DMA_SxCR_MINC  | DMA_SxCR_PINC   | DMA_SxCR_CIRC   | \
                      DMA_SxCR_DIR   | DMA_SxCR_CT     | DMA_SxCR_DBM));

  /* Prepare the DMA Stream configuration */
  tmp |=  hdma->Init.Channel             | hdma->Init.Direction        |
 80015f8:	687b      	ldr	r3, [r7, #4]
 80015fa:	685a      	ldr	r2, [r3, #4]
 80015fc:	687b      	ldr	r3, [r7, #4]
 80015fe:	689b      	ldr	r3, [r3, #8]
 8001600:	431a      	orrs	r2, r3
          hdma->Init.PeriphInc           | hdma->Init.MemInc           |
 8001602:	687b      	ldr	r3, [r7, #4]
 8001604:	68db      	ldr	r3, [r3, #12]
  tmp |=  hdma->Init.Channel             | hdma->Init.Direction        |
 8001606:	431a      	orrs	r2, r3
          hdma->Init.PeriphInc           | hdma->Init.MemInc           |
 8001608:	687b      	ldr	r3, [r7, #4]
 800160a:	691b      	ldr	r3, [r3, #16]
 800160c:	431a      	orrs	r2, r3
          hdma->Init.PeriphDataAlignment | hdma->Init.MemDataAlignment |
 800160e:	687b      	ldr	r3, [r7, #4]
 8001610:	695b      	ldr	r3, [r3, #20]
          hdma->Init.PeriphInc           | hdma->Init.MemInc           |
 8001612:	431a      	orrs	r2, r3
          hdma->Init.PeriphDataAlignment | hdma->Init.MemDataAlignment |
 8001614:	687b      	ldr	r3, [r7, #4]
 8001616:	699b      	ldr	r3, [r3, #24]
 8001618:	431a      	orrs	r2, r3
          hdma->Init.Mode                | hdma->Init.Priority;
 800161a:	687b      	ldr	r3, [r7, #4]
 800161c:	69db      	ldr	r3, [r3, #28]
          hdma->Init.PeriphDataAlignment | hdma->Init.MemDataAlignment |
 800161e:	431a      	orrs	r2, r3
          hdma->Init.Mode                | hdma->Init.Priority;
 8001620:	687b      	ldr	r3, [r7, #4]
 8001622:	6a1b      	ldr	r3, [r3, #32]
 8001624:	4313      	orrs	r3, r2
  tmp |=  hdma->Init.Channel             | hdma->Init.Direction        |
 8001626:	697a      	ldr	r2, [r7, #20]
 8001628:	4313      	orrs	r3, r2
 800162a:	617b      	str	r3, [r7, #20]

  /* the Memory burst and peripheral burst are not used when the FIFO is disabled */
  if(hdma->Init.FIFOMode == DMA_FIFOMODE_ENABLE)
 800162c:	687b      	ldr	r3, [r7, #4]
 800162e:	6a5b      	ldr	r3, [r3, #36]	; 0x24
 8001630:	2b04      	cmp	r3, #4
 8001632:	d107      	bne.n	8001644 <HAL_DMA_Init+0xc8>
  {
    /* Get memory burst and peripheral burst */
    tmp |=  hdma->Init.MemBurst | hdma->Init.PeriphBurst;
 8001634:	687b      	ldr	r3, [r7, #4]
 8001636:	6ada      	ldr	r2, [r3, #44]	; 0x2c
 8001638:	687b      	ldr	r3, [r7, #4]
 800163a:	6b1b      	ldr	r3, [r3, #48]	; 0x30
 800163c:	4313      	orrs	r3, r2
 800163e:	697a      	ldr	r2, [r7, #20]
 8001640:	4313      	orrs	r3, r2
 8001642:	617b      	str	r3, [r7, #20]
  }
  
  /* Write to DMA Stream CR register */
  hdma->Instance->CR = tmp;  
 8001644:	687b      	ldr	r3, [r7, #4]
 8001646:	681b      	ldr	r3, [r3, #0]
 8001648:	697a      	ldr	r2, [r7, #20]
 800164a:	601a      	str	r2, [r3, #0]

  /* Get the FCR register value */
  tmp = hdma->Instance->FCR;
 800164c:	687b      	ldr	r3, [r7, #4]
 800164e:	681b      	ldr	r3, [r3, #0]
 8001650:	695b      	ldr	r3, [r3, #20]
 8001652:	617b      	str	r3, [r7, #20]

  /* Clear Direct mode and FIFO threshold bits */
  tmp &= (uint32_t)~(DMA_SxFCR_DMDIS | DMA_SxFCR_FTH);
 8001654:	697b      	ldr	r3, [r7, #20]
 8001656:	f023 0307 	bic.w	r3, r3, #7
 800165a:	617b      	str	r3, [r7, #20]

  /* Prepare the DMA Stream FIFO configuration */
  tmp |= hdma->Init.FIFOMode;
 800165c:	687b      	ldr	r3, [r7, #4]
 800165e:	6a5b      	ldr	r3, [r3, #36]	; 0x24
 8001660:	697a      	ldr	r2, [r7, #20]
 8001662:	4313      	orrs	r3, r2
 8001664:	617b      	str	r3, [r7, #20]

  /* The FIFO threshold is not used when the FIFO mode is disabled */
  if(hdma->Init.FIFOMode == DMA_FIFOMODE_ENABLE)
 8001666:	687b      	ldr	r3, [r7, #4]
 8001668:	6a5b      	ldr	r3, [r3, #36]	; 0x24
 800166a:	2b04      	cmp	r3, #4
 800166c:	d117      	bne.n	800169e <HAL_DMA_Init+0x122>
  {
    /* Get the FIFO threshold */
    tmp |= hdma->Init.FIFOThreshold;
 800166e:	687b      	ldr	r3, [r7, #4]
 8001670:	6a9b      	ldr	r3, [r3, #40]	; 0x28
 8001672:	697a      	ldr	r2, [r7, #20]
 8001674:	4313      	orrs	r3, r2
 8001676:	617b      	str	r3, [r7, #20]
    
    /* Check compatibility between FIFO threshold level and size of the memory burst */
    /* for INCR4, INCR8, INCR16 bursts */
    if (hdma->Init.MemBurst != DMA_MBURST_SINGLE)
 8001678:	687b      	ldr	r3, [r7, #4]
 800167a:	6adb      	ldr	r3, [r3, #44]	; 0x2c
 800167c:	2b00      	cmp	r3, #0
 800167e:	d00e      	beq.n	800169e <HAL_DMA_Init+0x122>
    {
      if (DMA_CheckFifoParam(hdma) != HAL_OK)
 8001680:	6878      	ldr	r0, [r7, #4]
 8001682:	f000 fb09 	bl	8001c98 <DMA_CheckFifoParam>
 8001686:	4603      	mov	r3, r0
 8001688:	2b00      	cmp	r3, #0
 800168a:	d008      	beq.n	800169e <HAL_DMA_Init+0x122>
      {
        /* Update error code */
        hdma->ErrorCode = HAL_DMA_ERROR_PARAM;
 800168c:	687b      	ldr	r3, [r7, #4]
 800168e:	2240      	movs	r2, #64	; 0x40
 8001690:	655a      	str	r2, [r3, #84]	; 0x54
        
        /* Change the DMA state */
        hdma->State = HAL_DMA_STATE_RESET;
 8001692:	687b      	ldr	r3, [r7, #4]
 8001694:	2200      	movs	r2, #0
 8001696:	f883 2035 	strb.w	r2, [r3, #53]	; 0x35
        
        return HAL_ERROR; 
 800169a:	2301      	movs	r3, #1
 800169c:	e016      	b.n	80016cc <HAL_DMA_Init+0x150>
      }
    }
  }
  
  /* Write to DMA Stream FCR */
  hdma->Instance->FCR = tmp;
 800169e:	687b      	ldr	r3, [r7, #4]
 80016a0:	681b      	ldr	r3, [r3, #0]
 80016a2:	697a      	ldr	r2, [r7, #20]
 80016a4:	615a      	str	r2, [r3, #20]

  /* Initialize StreamBaseAddress and StreamIndex parameters to be used to calculate
     DMA steam Base Address needed by HAL_DMA_IRQHandler() and HAL_DMA_PollForTransfer() */
  regs = (DMA_Base_Registers *)DMA_CalcBaseAndBitshift(hdma);
 80016a6:	6878      	ldr	r0, [r7, #4]
 80016a8:	f000 fac0 	bl	8001c2c <DMA_CalcBaseAndBitshift>
 80016ac:	4603      	mov	r3, r0
 80016ae:	60fb      	str	r3, [r7, #12]
  
  /* Clear all interrupt flags */
  regs->IFCR = 0x3FU << hdma->StreamIndex;
 80016b0:	687b      	ldr	r3, [r7, #4]
 80016b2:	6ddb      	ldr	r3, [r3, #92]	; 0x5c
 80016b4:	223f      	movs	r2, #63	; 0x3f
 80016b6:	409a      	lsls	r2, r3
 80016b8:	68fb      	ldr	r3, [r7, #12]
 80016ba:	609a      	str	r2, [r3, #8]

  /* Initialize the error code */
  hdma->ErrorCode = HAL_DMA_ERROR_NONE;
 80016bc:	687b      	ldr	r3, [r7, #4]
 80016be:	2200      	movs	r2, #0
 80016c0:	655a      	str	r2, [r3, #84]	; 0x54
                                                                                     
  /* Initialize the DMA state */
  hdma->State = HAL_DMA_STATE_READY;
 80016c2:	687b      	ldr	r3, [r7, #4]
 80016c4:	2201      	movs	r2, #1
 80016c6:	f883 2035 	strb.w	r2, [r3, #53]	; 0x35

  return HAL_OK;
 80016ca:	2300      	movs	r3, #0
}
 80016cc:	4618      	mov	r0, r3
 80016ce:	3718      	adds	r7, #24
 80016d0:	46bd      	mov	sp, r7
 80016d2:	bd80      	pop	{r7, pc}
 80016d4:	e010803f 	.word	0xe010803f

080016d8 <HAL_DMA_Start_IT>:
  * @param  DstAddress The destination memory Buffer address
  * @param  DataLength The length of data to be transferred from source to destination
  * @retval HAL status
  */
HAL_StatusTypeDef HAL_DMA_Start_IT(DMA_HandleTypeDef *hdma, uint32_t SrcAddress, uint32_t DstAddress, uint32_t DataLength)
{
 80016d8:	b580      	push	{r7, lr}
 80016da:	b086      	sub	sp, #24
 80016dc:	af00      	add	r7, sp, #0
 80016de:	60f8      	str	r0, [r7, #12]
 80016e0:	60b9      	str	r1, [r7, #8]
 80016e2:	607a      	str	r2, [r7, #4]
 80016e4:	603b      	str	r3, [r7, #0]
  HAL_StatusTypeDef status = HAL_OK;
 80016e6:	2300      	movs	r3, #0
 80016e8:	75fb      	strb	r3, [r7, #23]

  /* calculate DMA base and stream number */
  DMA_Base_Registers *regs = (DMA_Base_Registers *)hdma->StreamBaseAddress;
 80016ea:	68fb      	ldr	r3, [r7, #12]
 80016ec:	6d9b      	ldr	r3, [r3, #88]	; 0x58
 80016ee:	613b      	str	r3, [r7, #16]
  
  /* Check the parameters */
  assert_param(IS_DMA_BUFFER_SIZE(DataLength));
 
  /* Process locked */
  __HAL_LOCK(hdma);
 80016f0:	68fb      	ldr	r3, [r7, #12]
 80016f2:	f893 3034 	ldrb.w	r3, [r3, #52]	; 0x34
 80016f6:	2b01      	cmp	r3, #1
 80016f8:	d101      	bne.n	80016fe <HAL_DMA_Start_IT+0x26>
 80016fa:	2302      	movs	r3, #2
 80016fc:	e048      	b.n	8001790 <HAL_DMA_Start_IT+0xb8>
 80016fe:	68fb      	ldr	r3, [r7, #12]
 8001700:	2201      	movs	r2, #1
 8001702:	f883 2034 	strb.w	r2, [r3, #52]	; 0x34
  
  if(HAL_DMA_STATE_READY == hdma->State)
 8001706:	68fb      	ldr	r3, [r7, #12]
 8001708:	f893 3035 	ldrb.w	r3, [r3, #53]	; 0x35
 800170c:	b2db      	uxtb	r3, r3
 800170e:	2b01      	cmp	r3, #1
 8001710:	d137      	bne.n	8001782 <HAL_DMA_Start_IT+0xaa>
  {
    /* Change DMA peripheral state */
    hdma->State = HAL_DMA_STATE_BUSY;
 8001712:	68fb      	ldr	r3, [r7, #12]
 8001714:	2202      	movs	r2, #2
 8001716:	f883 2035 	strb.w	r2, [r3, #53]	; 0x35
    
    /* Initialize the error code */
    hdma->ErrorCode = HAL_DMA_ERROR_NONE;
 800171a:	68fb      	ldr	r3, [r7, #12]
 800171c:	2200      	movs	r2, #0
 800171e:	655a      	str	r2, [r3, #84]	; 0x54
    
    /* Configure the source, destination address and the data length */
    DMA_SetConfig(hdma, SrcAddress, DstAddress, DataLength);
 8001720:	683b      	ldr	r3, [r7, #0]
 8001722:	687a      	ldr	r2, [r7, #4]
 8001724:	68b9      	ldr	r1, [r7, #8]
 8001726:	68f8      	ldr	r0, [r7, #12]
 8001728:	f000 fa52 	bl	8001bd0 <DMA_SetConfig>
    
    /* Clear all interrupt flags at correct offset within the register */
    regs->IFCR = 0x3FU << hdma->StreamIndex;
 800172c:	68fb      	ldr	r3, [r7, #12]
 800172e:	6ddb      	ldr	r3, [r3, #92]	; 0x5c
 8001730:	223f      	movs	r2, #63	; 0x3f
 8001732:	409a      	lsls	r2, r3
 8001734:	693b      	ldr	r3, [r7, #16]
 8001736:	609a      	str	r2, [r3, #8]
    
    /* Enable Common interrupts*/
    hdma->Instance->CR  |= DMA_IT_TC | DMA_IT_TE | DMA_IT_DME;
 8001738:	68fb      	ldr	r3, [r7, #12]
 800173a:	681b      	ldr	r3, [r3, #0]
 800173c:	681a      	ldr	r2, [r3, #0]
 800173e:	68fb      	ldr	r3, [r7, #12]
 8001740:	681b      	ldr	r3, [r3, #0]
 8001742:	f042 0216 	orr.w	r2, r2, #22
 8001746:	601a      	str	r2, [r3, #0]
    hdma->Instance->FCR |= DMA_IT_FE;
 8001748:	68fb      	ldr	r3, [r7, #12]
 800174a:	681b      	ldr	r3, [r3, #0]
 800174c:	695a      	ldr	r2, [r3, #20]
 800174e:	68fb      	ldr	r3, [r7, #12]
 8001750:	681b      	ldr	r3, [r3, #0]
 8001752:	f042 0280 	orr.w	r2, r2, #128	; 0x80
 8001756:	615a      	str	r2, [r3, #20]
    
    if(hdma->XferHalfCpltCallback != NULL)
 8001758:	68fb      	ldr	r3, [r7, #12]
 800175a:	6c1b      	ldr	r3, [r3, #64]	; 0x40
 800175c:	2b00      	cmp	r3, #0
 800175e:	d007      	beq.n	8001770 <HAL_DMA_Start_IT+0x98>
    {
      hdma->Instance->CR  |= DMA_IT_HT;
 8001760:	68fb      	ldr	r3, [r7, #12]
 8001762:	681b      	ldr	r3, [r3, #0]
 8001764:	681a      	ldr	r2, [r3, #0]
 8001766:	68fb      	ldr	r3, [r7, #12]
 8001768:	681b      	ldr	r3, [r3, #0]
 800176a:	f042 0208 	orr.w	r2, r2, #8
 800176e:	601a      	str	r2, [r3, #0]
    }
    
    /* Enable the Peripheral */
    __HAL_DMA_ENABLE(hdma);
 8001770:	68fb      	ldr	r3, [r7, #12]
 8001772:	681b      	ldr	r3, [r3, #0]
 8001774:	681a      	ldr	r2, [r3, #0]
 8001776:	68fb      	ldr	r3, [r7, #12]
 8001778:	681b      	ldr	r3, [r3, #0]
 800177a:	f042 0201 	orr.w	r2, r2, #1
 800177e:	601a      	str	r2, [r3, #0]
 8001780:	e005      	b.n	800178e <HAL_DMA_Start_IT+0xb6>
  }
  else
  {
    /* Process unlocked */
    __HAL_UNLOCK(hdma);	  
 8001782:	68fb      	ldr	r3, [r7, #12]
 8001784:	2200      	movs	r2, #0
 8001786:	f883 2034 	strb.w	r2, [r3, #52]	; 0x34
    
    /* Return error status */
    status = HAL_BUSY;
 800178a:	2302      	movs	r3, #2
 800178c:	75fb      	strb	r3, [r7, #23]
  }
  
  return status;
 800178e:	7dfb      	ldrb	r3, [r7, #23]
}
 8001790:	4618      	mov	r0, r3
 8001792:	3718      	adds	r7, #24
 8001794:	46bd      	mov	sp, r7
 8001796:	bd80      	pop	{r7, pc}

08001798 <HAL_DMA_Abort>:
  *        and the Stream will be effectively disabled only after the transfer of
  *        this single data is finished.  
  * @retval HAL status
  */
HAL_StatusTypeDef HAL_DMA_Abort(DMA_HandleTypeDef *hdma)
{
 8001798:	b580      	push	{r7, lr}
 800179a:	b084      	sub	sp, #16
 800179c:	af00      	add	r7, sp, #0
 800179e:	6078      	str	r0, [r7, #4]
  /* calculate DMA base and stream number */
  DMA_Base_Registers *regs = (DMA_Base_Registers *)hdma->StreamBaseAddress;
 80017a0:	687b      	ldr	r3, [r7, #4]
 80017a2:	6d9b      	ldr	r3, [r3, #88]	; 0x58
 80017a4:	60fb      	str	r3, [r7, #12]
  
  uint32_t tickstart = HAL_GetTick();
 80017a6:	f7ff fda7 	bl	80012f8 <HAL_GetTick>
 80017aa:	60b8      	str	r0, [r7, #8]
  
  if(hdma->State != HAL_DMA_STATE_BUSY)
 80017ac:	687b      	ldr	r3, [r7, #4]
 80017ae:	f893 3035 	ldrb.w	r3, [r3, #53]	; 0x35
 80017b2:	b2db      	uxtb	r3, r3
 80017b4:	2b02      	cmp	r3, #2
 80017b6:	d008      	beq.n	80017ca <HAL_DMA_Abort+0x32>
  {
    hdma->ErrorCode = HAL_DMA_ERROR_NO_XFER;
 80017b8:	687b      	ldr	r3, [r7, #4]
 80017ba:	2280      	movs	r2, #128	; 0x80
 80017bc:	655a      	str	r2, [r3, #84]	; 0x54
    
    /* Process Unlocked */
    __HAL_UNLOCK(hdma);
 80017be:	687b      	ldr	r3, [r7, #4]
 80017c0:	2200      	movs	r2, #0
 80017c2:	f883 2034 	strb.w	r2, [r3, #52]	; 0x34
    
    return HAL_ERROR;
 80017c6:	2301      	movs	r3, #1
 80017c8:	e052      	b.n	8001870 <HAL_DMA_Abort+0xd8>
  }
  else
  {
    /* Disable all the transfer interrupts */
    hdma->Instance->CR  &= ~(DMA_IT_TC | DMA_IT_TE | DMA_IT_DME);
 80017ca:	687b      	ldr	r3, [r7, #4]
 80017cc:	681b      	ldr	r3, [r3, #0]
 80017ce:	681a      	ldr	r2, [r3, #0]
 80017d0:	687b      	ldr	r3, [r7, #4]
 80017d2:	681b      	ldr	r3, [r3, #0]
 80017d4:	f022 0216 	bic.w	r2, r2, #22
 80017d8:	601a      	str	r2, [r3, #0]
    hdma->Instance->FCR &= ~(DMA_IT_FE);
 80017da:	687b      	ldr	r3, [r7, #4]
 80017dc:	681b      	ldr	r3, [r3, #0]
 80017de:	695a      	ldr	r2, [r3, #20]
 80017e0:	687b      	ldr	r3, [r7, #4]
 80017e2:	681b      	ldr	r3, [r3, #0]
 80017e4:	f022 0280 	bic.w	r2, r2, #128	; 0x80
 80017e8:	615a      	str	r2, [r3, #20]
    
    if((hdma->XferHalfCpltCallback != NULL) || (hdma->XferM1HalfCpltCallback != NULL))
 80017ea:	687b      	ldr	r3, [r7, #4]
 80017ec:	6c1b      	ldr	r3, [r3, #64]	; 0x40
 80017ee:	2b00      	cmp	r3, #0
 80017f0:	d103      	bne.n	80017fa <HAL_DMA_Abort+0x62>
 80017f2:	687b      	ldr	r3, [r7, #4]
 80017f4:	6c9b      	ldr	r3, [r3, #72]	; 0x48
 80017f6:	2b00      	cmp	r3, #0
 80017f8:	d007      	beq.n	800180a <HAL_DMA_Abort+0x72>
    {
      hdma->Instance->CR  &= ~(DMA_IT_HT);
 80017fa:	687b      	ldr	r3, [r7, #4]
 80017fc:	681b      	ldr	r3, [r3, #0]
 80017fe:	681a      	ldr	r2, [r3, #0]
 8001800:	687b      	ldr	r3, [r7, #4]
 8001802:	681b      	ldr	r3, [r3, #0]
 8001804:	f022 0208 	bic.w	r2, r2, #8
 8001808:	601a      	str	r2, [r3, #0]
    }
    
    /* Disable the stream */
    __HAL_DMA_DISABLE(hdma);
 800180a:	687b      	ldr	r3, [r7, #4]
 800180c:	681b      	ldr	r3, [r3, #0]
 800180e:	681a      	ldr	r2, [r3, #0]
 8001810:	687b      	ldr	r3, [r7, #4]
 8001812:	681b      	ldr	r3, [r3, #0]
 8001814:	f022 0201 	bic.w	r2, r2, #1
 8001818:	601a      	str	r2, [r3, #0]
    
    /* Check if the DMA Stream is effectively disabled */
    while((hdma->Instance->CR & DMA_SxCR_EN) != RESET)
 800181a:	e013      	b.n	8001844 <HAL_DMA_Abort+0xac>
    {
      /* Check for the Timeout */
      if((HAL_GetTick() - tickstart ) > HAL_TIMEOUT_DMA_ABORT)
 800181c:	f7ff fd6c 	bl	80012f8 <HAL_GetTick>
 8001820:	4602      	mov	r2, r0
 8001822:	68bb      	ldr	r3, [r7, #8]
 8001824:	1ad3      	subs	r3, r2, r3
 8001826:	2b05      	cmp	r3, #5
 8001828:	d90c      	bls.n	8001844 <HAL_DMA_Abort+0xac>
      {
        /* Update error code */
        hdma->ErrorCode = HAL_DMA_ERROR_TIMEOUT;
 800182a:	687b      	ldr	r3, [r7, #4]
 800182c:	2220      	movs	r2, #32
 800182e:	655a      	str	r2, [r3, #84]	; 0x54
        
        /* Change the DMA state */
        hdma->State = HAL_DMA_STATE_TIMEOUT;
 8001830:	687b      	ldr	r3, [r7, #4]
 8001832:	2203      	movs	r2, #3
 8001834:	f883 2035 	strb.w	r2, [r3, #53]	; 0x35
        
        /* Process Unlocked */
        __HAL_UNLOCK(hdma);
 8001838:	687b      	ldr	r3, [r7, #4]
 800183a:	2200      	movs	r2, #0
 800183c:	f883 2034 	strb.w	r2, [r3, #52]	; 0x34

        return HAL_TIMEOUT;
 8001840:	2303      	movs	r3, #3
 8001842:	e015      	b.n	8001870 <HAL_DMA_Abort+0xd8>
    while((hdma->Instance->CR & DMA_SxCR_EN) != RESET)
 8001844:	687b      	ldr	r3, [r7, #4]
 8001846:	681b      	ldr	r3, [r3, #0]
 8001848:	681b      	ldr	r3, [r3, #0]
 800184a:	f003 0301 	and.w	r3, r3, #1
 800184e:	2b00      	cmp	r3, #0
 8001850:	d1e4      	bne.n	800181c <HAL_DMA_Abort+0x84>
      }
    }
    
    /* Clear all interrupt flags at correct offset within the register */
    regs->IFCR = 0x3FU << hdma->StreamIndex;
 8001852:	687b      	ldr	r3, [r7, #4]
 8001854:	6ddb      	ldr	r3, [r3, #92]	; 0x5c
 8001856:	223f      	movs	r2, #63	; 0x3f
 8001858:	409a      	lsls	r2, r3
 800185a:	68fb      	ldr	r3, [r7, #12]
 800185c:	609a      	str	r2, [r3, #8]
    
    /* Change the DMA state*/
    hdma->State = HAL_DMA_STATE_READY;
 800185e:	687b      	ldr	r3, [r7, #4]
 8001860:	2201      	movs	r2, #1
 8001862:	f883 2035 	strb.w	r2, [r3, #53]	; 0x35
    
    /* Process Unlocked */
    __HAL_UNLOCK(hdma);
 8001866:	687b      	ldr	r3, [r7, #4]
 8001868:	2200      	movs	r2, #0
 800186a:	f883 2034 	strb.w	r2, [r3, #52]	; 0x34
    
  }
  return HAL_OK;
 800186e:	2300      	movs	r3, #0
}
 8001870:	4618      	mov	r0, r3
 8001872:	3710      	adds	r7, #16
 8001874:	46bd      	mov	sp, r7
 8001876:	bd80      	pop	{r7, pc}

08001878 <HAL_DMA_Abort_IT>:
  * @param  hdma   pointer to a DMA_HandleTypeDef structure that contains
  *                 the configuration information for the specified DMA Stream.
  * @retval HAL status
  */
HAL_StatusTypeDef HAL_DMA_Abort_IT(DMA_HandleTypeDef *hdma)
{
 8001878:	b480      	push	{r7}
 800187a:	b083      	sub	sp, #12
 800187c:	af00      	add	r7, sp, #0
 800187e:	6078      	str	r0, [r7, #4]
  if(hdma->State != HAL_DMA_STATE_BUSY)
 8001880:	687b      	ldr	r3, [r7, #4]
 8001882:	f893 3035 	ldrb.w	r3, [r3, #53]	; 0x35
 8001886:	b2db      	uxtb	r3, r3
 8001888:	2b02      	cmp	r3, #2
 800188a:	d004      	beq.n	8001896 <HAL_DMA_Abort_IT+0x1e>
  {
    hdma->ErrorCode = HAL_DMA_ERROR_NO_XFER;
 800188c:	687b      	ldr	r3, [r7, #4]
 800188e:	2280      	movs	r2, #128	; 0x80
 8001890:	655a      	str	r2, [r3, #84]	; 0x54
    return HAL_ERROR;
 8001892:	2301      	movs	r3, #1
 8001894:	e00c      	b.n	80018b0 <HAL_DMA_Abort_IT+0x38>
  }
  else
  {
    /* Set Abort State  */
    hdma->State = HAL_DMA_STATE_ABORT;
 8001896:	687b      	ldr	r3, [r7, #4]
 8001898:	2205      	movs	r2, #5
 800189a:	f883 2035 	strb.w	r2, [r3, #53]	; 0x35
    
    /* Disable the stream */
    __HAL_DMA_DISABLE(hdma);
 800189e:	687b      	ldr	r3, [r7, #4]
 80018a0:	681b      	ldr	r3, [r3, #0]
 80018a2:	681a      	ldr	r2, [r3, #0]
 80018a4:	687b      	ldr	r3, [r7, #4]
 80018a6:	681b      	ldr	r3, [r3, #0]
 80018a8:	f022 0201 	bic.w	r2, r2, #1
 80018ac:	601a      	str	r2, [r3, #0]
  }

  return HAL_OK;
 80018ae:	2300      	movs	r3, #0
}
 80018b0:	4618      	mov	r0, r3
 80018b2:	370c      	adds	r7, #12
 80018b4:	46bd      	mov	sp, r7
 80018b6:	f85d 7b04 	ldr.w	r7, [sp], #4
 80018ba:	4770      	bx	lr

080018bc <HAL_DMA_IRQHandler>:
  * @param  hdma pointer to a DMA_HandleTypeDef structure that contains
  *               the configuration information for the specified DMA Stream.  
  * @retval None
  */
void HAL_DMA_IRQHandler(DMA_HandleTypeDef *hdma)
{
 80018bc:	b580      	push	{r7, lr}
 80018be:	b086      	sub	sp, #24
 80018c0:	af00      	add	r7, sp, #0
 80018c2:	6078      	str	r0, [r7, #4]
  uint32_t tmpisr;
  __IO uint32_t count = 0;
 80018c4:	2300      	movs	r3, #0
 80018c6:	60bb      	str	r3, [r7, #8]
  uint32_t timeout = SystemCoreClock / 9600;
 80018c8:	4b8e      	ldr	r3, [pc, #568]	; (8001b04 <HAL_DMA_IRQHandler+0x248>)
 80018ca:	681b      	ldr	r3, [r3, #0]
 80018cc:	4a8e      	ldr	r2, [pc, #568]	; (8001b08 <HAL_DMA_IRQHandler+0x24c>)
 80018ce:	fba2 2303 	umull	r2, r3, r2, r3
 80018d2:	0a9b      	lsrs	r3, r3, #10
 80018d4:	617b      	str	r3, [r7, #20]

  /* calculate DMA base and stream number */
  DMA_Base_Registers *regs = (DMA_Base_Registers *)hdma->StreamBaseAddress;
 80018d6:	687b      	ldr	r3, [r7, #4]
 80018d8:	6d9b      	ldr	r3, [r3, #88]	; 0x58
 80018da:	613b      	str	r3, [r7, #16]

  tmpisr = regs->ISR;
 80018dc:	693b      	ldr	r3, [r7, #16]
 80018de:	681b      	ldr	r3, [r3, #0]
 80018e0:	60fb      	str	r3, [r7, #12]

  /* Transfer Error Interrupt management ***************************************/
  if ((tmpisr & (DMA_FLAG_TEIF0_4 << hdma->StreamIndex)) != RESET)
 80018e2:	687b      	ldr	r3, [r7, #4]
 80018e4:	6ddb      	ldr	r3, [r3, #92]	; 0x5c
 80018e6:	2208      	movs	r2, #8
 80018e8:	409a      	lsls	r2, r3
 80018ea:	68fb      	ldr	r3, [r7, #12]
 80018ec:	4013      	ands	r3, r2
 80018ee:	2b00      	cmp	r3, #0
 80018f0:	d01a      	beq.n	8001928 <HAL_DMA_IRQHandler+0x6c>
  {
    if(__HAL_DMA_GET_IT_SOURCE(hdma, DMA_IT_TE) != RESET)
 80018f2:	687b      	ldr	r3, [r7, #4]
 80018f4:	681b      	ldr	r3, [r3, #0]
 80018f6:	681b      	ldr	r3, [r3, #0]
 80018f8:	f003 0304 	and.w	r3, r3, #4
 80018fc:	2b00      	cmp	r3, #0
 80018fe:	d013      	beq.n	8001928 <HAL_DMA_IRQHandler+0x6c>
    {
      /* Disable the transfer error interrupt */
      hdma->Instance->CR  &= ~(DMA_IT_TE);
 8001900:	687b      	ldr	r3, [r7, #4]
 8001902:	681b      	ldr	r3, [r3, #0]
 8001904:	681a      	ldr	r2, [r3, #0]
 8001906:	687b      	ldr	r3, [r7, #4]
 8001908:	681b      	ldr	r3, [r3, #0]
 800190a:	f022 0204 	bic.w	r2, r2, #4
 800190e:	601a      	str	r2, [r3, #0]
      
      /* Clear the transfer error flag */
      regs->IFCR = DMA_FLAG_TEIF0_4 << hdma->StreamIndex;
 8001910:	687b      	ldr	r3, [r7, #4]
 8001912:	6ddb      	ldr	r3, [r3, #92]	; 0x5c
 8001914:	2208      	movs	r2, #8
 8001916:	409a      	lsls	r2, r3
 8001918:	693b      	ldr	r3, [r7, #16]
 800191a:	609a      	str	r2, [r3, #8]
      
      /* Update error code */
      hdma->ErrorCode |= HAL_DMA_ERROR_TE;
 800191c:	687b      	ldr	r3, [r7, #4]
 800191e:	6d5b      	ldr	r3, [r3, #84]	; 0x54
 8001920:	f043 0201 	orr.w	r2, r3, #1
 8001924:	687b      	ldr	r3, [r7, #4]
 8001926:	655a      	str	r2, [r3, #84]	; 0x54
    }
  }
  /* FIFO Error Interrupt management ******************************************/
  if ((tmpisr & (DMA_FLAG_FEIF0_4 << hdma->StreamIndex)) != RESET)
 8001928:	687b      	ldr	r3, [r7, #4]
 800192a:	6ddb      	ldr	r3, [r3, #92]	; 0x5c
 800192c:	2201      	movs	r2, #1
 800192e:	409a      	lsls	r2, r3
 8001930:	68fb      	ldr	r3, [r7, #12]
 8001932:	4013      	ands	r3, r2
 8001934:	2b00      	cmp	r3, #0
 8001936:	d012      	beq.n	800195e <HAL_DMA_IRQHandler+0xa2>
  {
    if(__HAL_DMA_GET_IT_SOURCE(hdma, DMA_IT_FE) != RESET)
 8001938:	687b      	ldr	r3, [r7, #4]
 800193a:	681b      	ldr	r3, [r3, #0]
 800193c:	695b      	ldr	r3, [r3, #20]
 800193e:	f003 0380 	and.w	r3, r3, #128	; 0x80
 8001942:	2b00      	cmp	r3, #0
 8001944:	d00b      	beq.n	800195e <HAL_DMA_IRQHandler+0xa2>
    {
      /* Clear the FIFO error flag */
      regs->IFCR = DMA_FLAG_FEIF0_4 << hdma->StreamIndex;
 8001946:	687b      	ldr	r3, [r7, #4]
 8001948:	6ddb      	ldr	r3, [r3, #92]	; 0x5c
 800194a:	2201      	movs	r2, #1
 800194c:	409a      	lsls	r2, r3
 800194e:	693b      	ldr	r3, [r7, #16]
 8001950:	609a      	str	r2, [r3, #8]

      /* Update error code */
      hdma->ErrorCode |= HAL_DMA_ERROR_FE;
 8001952:	687b      	ldr	r3, [r7, #4]
 8001954:	6d5b      	ldr	r3, [r3, #84]	; 0x54
 8001956:	f043 0202 	orr.w	r2, r3, #2
 800195a:	687b      	ldr	r3, [r7, #4]
 800195c:	655a      	str	r2, [r3, #84]	; 0x54
    }
  }
  /* Direct Mode Error Interrupt management ***********************************/
  if ((tmpisr & (DMA_FLAG_DMEIF0_4 << hdma->StreamIndex)) != RESET)
 800195e:	687b      	ldr	r3, [r7, #4]
 8001960:	6ddb      	ldr	r3, [r3, #92]	; 0x5c
 8001962:	2204      	movs	r2, #4
 8001964:	409a      	lsls	r2, r3
 8001966:	68fb      	ldr	r3, [r7, #12]
 8001968:	4013      	ands	r3, r2
 800196a:	2b00      	cmp	r3, #0
 800196c:	d012      	beq.n	8001994 <HAL_DMA_IRQHandler+0xd8>
  {
    if(__HAL_DMA_GET_IT_SOURCE(hdma, DMA_IT_DME) != RESET)
 800196e:	687b      	ldr	r3, [r7, #4]
 8001970:	681b      	ldr	r3, [r3, #0]
 8001972:	681b      	ldr	r3, [r3, #0]
 8001974:	f003 0302 	and.w	r3, r3, #2
 8001978:	2b00      	cmp	r3, #0
 800197a:	d00b      	beq.n	8001994 <HAL_DMA_IRQHandler+0xd8>
    {
      /* Clear the direct mode error flag */
      regs->IFCR = DMA_FLAG_DMEIF0_4 << hdma->StreamIndex;
 800197c:	687b      	ldr	r3, [r7, #4]
 800197e:	6ddb      	ldr	r3, [r3, #92]	; 0x5c
 8001980:	2204      	movs	r2, #4
 8001982:	409a      	lsls	r2, r3
 8001984:	693b      	ldr	r3, [r7, #16]
 8001986:	609a      	str	r2, [r3, #8]

      /* Update error code */
      hdma->ErrorCode |= HAL_DMA_ERROR_DME;
 8001988:	687b      	ldr	r3, [r7, #4]
 800198a:	6d5b      	ldr	r3, [r3, #84]	; 0x54
 800198c:	f043 0204 	orr.w	r2, r3, #4
 8001990:	687b      	ldr	r3, [r7, #4]
 8001992:	655a      	str	r2, [r3, #84]	; 0x54
    }
  }
  /* Half Transfer Complete Interrupt management ******************************/
  if ((tmpisr & (DMA_FLAG_HTIF0_4 << hdma->StreamIndex)) != RESET)
 8001994:	687b      	ldr	r3, [r7, #4]
 8001996:	6ddb      	ldr	r3, [r3, #92]	; 0x5c
 8001998:	2210      	movs	r2, #16
 800199a:	409a      	lsls	r2, r3
 800199c:	68fb      	ldr	r3, [r7, #12]
 800199e:	4013      	ands	r3, r2
 80019a0:	2b00      	cmp	r3, #0
 80019a2:	d043      	beq.n	8001a2c <HAL_DMA_IRQHandler+0x170>
  {
    if(__HAL_DMA_GET_IT_SOURCE(hdma, DMA_IT_HT) != RESET)
 80019a4:	687b      	ldr	r3, [r7, #4]
 80019a6:	681b      	ldr	r3, [r3, #0]
 80019a8:	681b      	ldr	r3, [r3, #0]
 80019aa:	f003 0308 	and.w	r3, r3, #8
 80019ae:	2b00      	cmp	r3, #0
 80019b0:	d03c      	beq.n	8001a2c <HAL_DMA_IRQHandler+0x170>
    {
      /* Clear the half transfer complete flag */
      regs->IFCR = DMA_FLAG_HTIF0_4 << hdma->StreamIndex;
 80019b2:	687b      	ldr	r3, [r7, #4]
 80019b4:	6ddb      	ldr	r3, [r3, #92]	; 0x5c
 80019b6:	2210      	movs	r2, #16
 80019b8:	409a      	lsls	r2, r3
 80019ba:	693b      	ldr	r3, [r7, #16]
 80019bc:	609a      	str	r2, [r3, #8]
      
      /* Multi_Buffering mode enabled */
      if(((hdma->Instance->CR) & (uint32_t)(DMA_SxCR_DBM)) != RESET)
 80019be:	687b      	ldr	r3, [r7, #4]
 80019c0:	681b      	ldr	r3, [r3, #0]
 80019c2:	681b      	ldr	r3, [r3, #0]
 80019c4:	f403 2380 	and.w	r3, r3, #262144	; 0x40000
 80019c8:	2b00      	cmp	r3, #0
 80019ca:	d018      	beq.n	80019fe <HAL_DMA_IRQHandler+0x142>
      {
        /* Current memory buffer used is Memory 0 */
        if((hdma->Instance->CR & DMA_SxCR_CT) == RESET)
 80019cc:	687b      	ldr	r3, [r7, #4]
 80019ce:	681b      	ldr	r3, [r3, #0]
 80019d0:	681b      	ldr	r3, [r3, #0]
 80019d2:	f403 2300 	and.w	r3, r3, #524288	; 0x80000
 80019d6:	2b00      	cmp	r3, #0
 80019d8:	d108      	bne.n	80019ec <HAL_DMA_IRQHandler+0x130>
        {
          if(hdma->XferHalfCpltCallback != NULL)
 80019da:	687b      	ldr	r3, [r7, #4]
 80019dc:	6c1b      	ldr	r3, [r3, #64]	; 0x40
 80019de:	2b00      	cmp	r3, #0
 80019e0:	d024      	beq.n	8001a2c <HAL_DMA_IRQHandler+0x170>
          {
            /* Half transfer callback */
            hdma->XferHalfCpltCallback(hdma);
 80019e2:	687b      	ldr	r3, [r7, #4]
 80019e4:	6c1b      	ldr	r3, [r3, #64]	; 0x40
 80019e6:	6878      	ldr	r0, [r7, #4]
 80019e8:	4798      	blx	r3
 80019ea:	e01f      	b.n	8001a2c <HAL_DMA_IRQHandler+0x170>
          }
        }
        /* Current memory buffer used is Memory 1 */
        else
        {
          if(hdma->XferM1HalfCpltCallback != NULL)
 80019ec:	687b      	ldr	r3, [r7, #4]
 80019ee:	6c9b      	ldr	r3, [r3, #72]	; 0x48
 80019f0:	2b00      	cmp	r3, #0
 80019f2:	d01b      	beq.n	8001a2c <HAL_DMA_IRQHandler+0x170>
          {
            /* Half transfer callback */
            hdma->XferM1HalfCpltCallback(hdma);
 80019f4:	687b      	ldr	r3, [r7, #4]
 80019f6:	6c9b      	ldr	r3, [r3, #72]	; 0x48
 80019f8:	6878      	ldr	r0, [r7, #4]
 80019fa:	4798      	blx	r3
 80019fc:	e016      	b.n	8001a2c <HAL_DMA_IRQHandler+0x170>
        }
      }
      else
      {
        /* Disable the half transfer interrupt if the DMA mode is not CIRCULAR */
        if((hdma->Instance->CR & DMA_SxCR_CIRC) == RESET)
 80019fe:	687b      	ldr	r3, [r7, #4]
 8001a00:	681b      	ldr	r3, [r3, #0]
 8001a02:	681b      	ldr	r3, [r3, #0]
 8001a04:	f403 7380 	and.w	r3, r3, #256	; 0x100
 8001a08:	2b00      	cmp	r3, #0
 8001a0a:	d107      	bne.n	8001a1c <HAL_DMA_IRQHandler+0x160>
        {
          /* Disable the half transfer interrupt */
          hdma->Instance->CR  &= ~(DMA_IT_HT);
 8001a0c:	687b      	ldr	r3, [r7, #4]
 8001a0e:	681b      	ldr	r3, [r3, #0]
 8001a10:	681a      	ldr	r2, [r3, #0]
 8001a12:	687b      	ldr	r3, [r7, #4]
 8001a14:	681b      	ldr	r3, [r3, #0]
 8001a16:	f022 0208 	bic.w	r2, r2, #8
 8001a1a:	601a      	str	r2, [r3, #0]
        }
        
        if(hdma->XferHalfCpltCallback != NULL)
 8001a1c:	687b      	ldr	r3, [r7, #4]
 8001a1e:	6c1b      	ldr	r3, [r3, #64]	; 0x40
 8001a20:	2b00      	cmp	r3, #0
 8001a22:	d003      	beq.n	8001a2c <HAL_DMA_IRQHandler+0x170>
        {
          /* Half transfer callback */
          hdma->XferHalfCpltCallback(hdma);
 8001a24:	687b      	ldr	r3, [r7, #4]
 8001a26:	6c1b      	ldr	r3, [r3, #64]	; 0x40
 8001a28:	6878      	ldr	r0, [r7, #4]
 8001a2a:	4798      	blx	r3
        }
      }
    }
  }
  /* Transfer Complete Interrupt management ***********************************/
  if ((tmpisr & (DMA_FLAG_TCIF0_4 << hdma->StreamIndex)) != RESET)
 8001a2c:	687b      	ldr	r3, [r7, #4]
 8001a2e:	6ddb      	ldr	r3, [r3, #92]	; 0x5c
 8001a30:	2220      	movs	r2, #32
 8001a32:	409a      	lsls	r2, r3
 8001a34:	68fb      	ldr	r3, [r7, #12]
 8001a36:	4013      	ands	r3, r2
 8001a38:	2b00      	cmp	r3, #0
 8001a3a:	f000 808f 	beq.w	8001b5c <HAL_DMA_IRQHandler+0x2a0>
  {
    if(__HAL_DMA_GET_IT_SOURCE(hdma, DMA_IT_TC) != RESET)
 8001a3e:	687b      	ldr	r3, [r7, #4]
 8001a40:	681b      	ldr	r3, [r3, #0]
 8001a42:	681b      	ldr	r3, [r3, #0]
 8001a44:	f003 0310 	and.w	r3, r3, #16
 8001a48:	2b00      	cmp	r3, #0
 8001a4a:	f000 8087 	beq.w	8001b5c <HAL_DMA_IRQHandler+0x2a0>
    {
      /* Clear the transfer complete flag */
      regs->IFCR = DMA_FLAG_TCIF0_4 << hdma->StreamIndex;
 8001a4e:	687b      	ldr	r3, [r7, #4]
 8001a50:	6ddb      	ldr	r3, [r3, #92]	; 0x5c
 8001a52:	2220      	movs	r2, #32
 8001a54:	409a      	lsls	r2, r3
 8001a56:	693b      	ldr	r3, [r7, #16]
 8001a58:	609a      	str	r2, [r3, #8]
      
      if(HAL_DMA_STATE_ABORT == hdma->State)
 8001a5a:	687b      	ldr	r3, [r7, #4]
 8001a5c:	f893 3035 	ldrb.w	r3, [r3, #53]	; 0x35
 8001a60:	b2db      	uxtb	r3, r3
 8001a62:	2b05      	cmp	r3, #5
 8001a64:	d136      	bne.n	8001ad4 <HAL_DMA_IRQHandler+0x218>
      {
        /* Disable all the transfer interrupts */
        hdma->Instance->CR  &= ~(DMA_IT_TC | DMA_IT_TE | DMA_IT_DME);
 8001a66:	687b      	ldr	r3, [r7, #4]
 8001a68:	681b      	ldr	r3, [r3, #0]
 8001a6a:	681a      	ldr	r2, [r3, #0]
 8001a6c:	687b      	ldr	r3, [r7, #4]
 8001a6e:	681b      	ldr	r3, [r3, #0]
 8001a70:	f022 0216 	bic.w	r2, r2, #22
 8001a74:	601a      	str	r2, [r3, #0]
        hdma->Instance->FCR &= ~(DMA_IT_FE);
 8001a76:	687b      	ldr	r3, [r7, #4]
 8001a78:	681b      	ldr	r3, [r3, #0]
 8001a7a:	695a      	ldr	r2, [r3, #20]
 8001a7c:	687b      	ldr	r3, [r7, #4]
 8001a7e:	681b      	ldr	r3, [r3, #0]
 8001a80:	f022 0280 	bic.w	r2, r2, #128	; 0x80
 8001a84:	615a      	str	r2, [r3, #20]
        
        if((hdma->XferHalfCpltCallback != NULL) || (hdma->XferM1HalfCpltCallback != NULL))
 8001a86:	687b      	ldr	r3, [r7, #4]
 8001a88:	6c1b      	ldr	r3, [r3, #64]	; 0x40
 8001a8a:	2b00      	cmp	r3, #0
 8001a8c:	d103      	bne.n	8001a96 <HAL_DMA_IRQHandler+0x1da>
 8001a8e:	687b      	ldr	r3, [r7, #4]
 8001a90:	6c9b      	ldr	r3, [r3, #72]	; 0x48
 8001a92:	2b00      	cmp	r3, #0
 8001a94:	d007      	beq.n	8001aa6 <HAL_DMA_IRQHandler+0x1ea>
        {
          hdma->Instance->CR  &= ~(DMA_IT_HT);
 8001a96:	687b      	ldr	r3, [r7, #4]
 8001a98:	681b      	ldr	r3, [r3, #0]
 8001a9a:	681a      	ldr	r2, [r3, #0]
 8001a9c:	687b      	ldr	r3, [r7, #4]
 8001a9e:	681b      	ldr	r3, [r3, #0]
 8001aa0:	f022 0208 	bic.w	r2, r2, #8
 8001aa4:	601a      	str	r2, [r3, #0]
        }

        /* Clear all interrupt flags at correct offset within the register */
        regs->IFCR = 0x3FU << hdma->StreamIndex;
 8001aa6:	687b      	ldr	r3, [r7, #4]
 8001aa8:	6ddb      	ldr	r3, [r3, #92]	; 0x5c
 8001aaa:	223f      	movs	r2, #63	; 0x3f
 8001aac:	409a      	lsls	r2, r3
 8001aae:	693b      	ldr	r3, [r7, #16]
 8001ab0:	609a      	str	r2, [r3, #8]

        /* Change the DMA state */
        hdma->State = HAL_DMA_STATE_READY;
 8001ab2:	687b      	ldr	r3, [r7, #4]
 8001ab4:	2201      	movs	r2, #1
 8001ab6:	f883 2035 	strb.w	r2, [r3, #53]	; 0x35

        /* Process Unlocked */
        __HAL_UNLOCK(hdma);
 8001aba:	687b      	ldr	r3, [r7, #4]
 8001abc:	2200      	movs	r2, #0
 8001abe:	f883 2034 	strb.w	r2, [r3, #52]	; 0x34

        if(hdma->XferAbortCallback != NULL)
 8001ac2:	687b      	ldr	r3, [r7, #4]
 8001ac4:	6d1b      	ldr	r3, [r3, #80]	; 0x50
 8001ac6:	2b00      	cmp	r3, #0
 8001ac8:	d07e      	beq.n	8001bc8 <HAL_DMA_IRQHandler+0x30c>
        {
          hdma->XferAbortCallback(hdma);
 8001aca:	687b      	ldr	r3, [r7, #4]
 8001acc:	6d1b      	ldr	r3, [r3, #80]	; 0x50
 8001ace:	6878      	ldr	r0, [r7, #4]
 8001ad0:	4798      	blx	r3
        }
        return;
 8001ad2:	e079      	b.n	8001bc8 <HAL_DMA_IRQHandler+0x30c>
      }

      if(((hdma->Instance->CR) & (uint32_t)(DMA_SxCR_DBM)) != RESET)
 8001ad4:	687b      	ldr	r3, [r7, #4]
 8001ad6:	681b      	ldr	r3, [r3, #0]
 8001ad8:	681b      	ldr	r3, [r3, #0]
 8001ada:	f403 2380 	and.w	r3, r3, #262144	; 0x40000
 8001ade:	2b00      	cmp	r3, #0
 8001ae0:	d01d      	beq.n	8001b1e <HAL_DMA_IRQHandler+0x262>
      {
        /* Current memory buffer used is Memory 0 */
        if((hdma->Instance->CR & DMA_SxCR_CT) == RESET)
 8001ae2:	687b      	ldr	r3, [r7, #4]
 8001ae4:	681b      	ldr	r3, [r3, #0]
 8001ae6:	681b      	ldr	r3, [r3, #0]
 8001ae8:	f403 2300 	and.w	r3, r3, #524288	; 0x80000
 8001aec:	2b00      	cmp	r3, #0
 8001aee:	d10d      	bne.n	8001b0c <HAL_DMA_IRQHandler+0x250>
        {
          if(hdma->XferM1CpltCallback != NULL)
 8001af0:	687b      	ldr	r3, [r7, #4]
 8001af2:	6c5b      	ldr	r3, [r3, #68]	; 0x44
 8001af4:	2b00      	cmp	r3, #0
 8001af6:	d031      	beq.n	8001b5c <HAL_DMA_IRQHandler+0x2a0>
          {
            /* Transfer complete Callback for memory1 */
            hdma->XferM1CpltCallback(hdma);
 8001af8:	687b      	ldr	r3, [r7, #4]
 8001afa:	6c5b      	ldr	r3, [r3, #68]	; 0x44
 8001afc:	6878      	ldr	r0, [r7, #4]
 8001afe:	4798      	blx	r3
 8001b00:	e02c      	b.n	8001b5c <HAL_DMA_IRQHandler+0x2a0>
 8001b02:	bf00      	nop
 8001b04:	20000000 	.word	0x20000000
 8001b08:	1b4e81b5 	.word	0x1b4e81b5
          }
        }
        /* Current memory buffer used is Memory 1 */
        else
        {
          if(hdma->XferCpltCallback != NULL)
 8001b0c:	687b      	ldr	r3, [r7, #4]
 8001b0e:	6bdb      	ldr	r3, [r3, #60]	; 0x3c
 8001b10:	2b00      	cmp	r3, #0
 8001b12:	d023      	beq.n	8001b5c <HAL_DMA_IRQHandler+0x2a0>
          {
            /* Transfer complete Callback for memory0 */
            hdma->XferCpltCallback(hdma);
 8001b14:	687b      	ldr	r3, [r7, #4]
 8001b16:	6bdb      	ldr	r3, [r3, #60]	; 0x3c
 8001b18:	6878      	ldr	r0, [r7, #4]
 8001b1a:	4798      	blx	r3
 8001b1c:	e01e      	b.n	8001b5c <HAL_DMA_IRQHandler+0x2a0>
        }
      }
      /* Disable the transfer complete interrupt if the DMA mode is not CIRCULAR */
      else
      {
        if((hdma->Instance->CR & DMA_SxCR_CIRC) == RESET)
 8001b1e:	687b      	ldr	r3, [r7, #4]
 8001b20:	681b      	ldr	r3, [r3, #0]
 8001b22:	681b      	ldr	r3, [r3, #0]
 8001b24:	f403 7380 	and.w	r3, r3, #256	; 0x100
 8001b28:	2b00      	cmp	r3, #0
 8001b2a:	d10f      	bne.n	8001b4c <HAL_DMA_IRQHandler+0x290>
        {
          /* Disable the transfer complete interrupt */
          hdma->Instance->CR  &= ~(DMA_IT_TC);
 8001b2c:	687b      	ldr	r3, [r7, #4]
 8001b2e:	681b      	ldr	r3, [r3, #0]
 8001b30:	681a      	ldr	r2, [r3, #0]
 8001b32:	687b      	ldr	r3, [r7, #4]
 8001b34:	681b      	ldr	r3, [r3, #0]
 8001b36:	f022 0210 	bic.w	r2, r2, #16
 8001b3a:	601a      	str	r2, [r3, #0]

          /* Change the DMA state */
          hdma->State = HAL_DMA_STATE_READY;
 8001b3c:	687b      	ldr	r3, [r7, #4]
 8001b3e:	2201      	movs	r2, #1
 8001b40:	f883 2035 	strb.w	r2, [r3, #53]	; 0x35

          /* Process Unlocked */
          __HAL_UNLOCK(hdma);
 8001b44:	687b      	ldr	r3, [r7, #4]
 8001b46:	2200      	movs	r2, #0
 8001b48:	f883 2034 	strb.w	r2, [r3, #52]	; 0x34

        }

        if(hdma->XferCpltCallback != NULL)
 8001b4c:	687b      	ldr	r3, [r7, #4]
 8001b4e:	6bdb      	ldr	r3, [r3, #60]	; 0x3c
 8001b50:	2b00      	cmp	r3, #0
 8001b52:	d003      	beq.n	8001b5c <HAL_DMA_IRQHandler+0x2a0>
        {
          /* Transfer complete callback */
          hdma->XferCpltCallback(hdma);
 8001b54:	687b      	ldr	r3, [r7, #4]
 8001b56:	6bdb      	ldr	r3, [r3, #60]	; 0x3c
 8001b58:	6878      	ldr	r0, [r7, #4]
 8001b5a:	4798      	blx	r3
      }
    }
  }
  
  /* manage error case */
  if(hdma->ErrorCode != HAL_DMA_ERROR_NONE)
 8001b5c:	687b      	ldr	r3, [r7, #4]
 8001b5e:	6d5b      	ldr	r3, [r3, #84]	; 0x54
 8001b60:	2b00      	cmp	r3, #0
 8001b62:	d032      	beq.n	8001bca <HAL_DMA_IRQHandler+0x30e>
  {
    if((hdma->ErrorCode & HAL_DMA_ERROR_TE) != RESET)
 8001b64:	687b      	ldr	r3, [r7, #4]
 8001b66:	6d5b      	ldr	r3, [r3, #84]	; 0x54
 8001b68:	f003 0301 	and.w	r3, r3, #1
 8001b6c:	2b00      	cmp	r3, #0
 8001b6e:	d022      	beq.n	8001bb6 <HAL_DMA_IRQHandler+0x2fa>
    {
      hdma->State = HAL_DMA_STATE_ABORT;
 8001b70:	687b      	ldr	r3, [r7, #4]
 8001b72:	2205      	movs	r2, #5
 8001b74:	f883 2035 	strb.w	r2, [r3, #53]	; 0x35

      /* Disable the stream */
      __HAL_DMA_DISABLE(hdma);
 8001b78:	687b      	ldr	r3, [r7, #4]
 8001b7a:	681b      	ldr	r3, [r3, #0]
 8001b7c:	681a      	ldr	r2, [r3, #0]
 8001b7e:	687b      	ldr	r3, [r7, #4]
 8001b80:	681b      	ldr	r3, [r3, #0]
 8001b82:	f022 0201 	bic.w	r2, r2, #1
 8001b86:	601a      	str	r2, [r3, #0]

      do
      {
        if (++count > timeout)
 8001b88:	68bb      	ldr	r3, [r7, #8]
 8001b8a:	3301      	adds	r3, #1
 8001b8c:	60bb      	str	r3, [r7, #8]
 8001b8e:	697a      	ldr	r2, [r7, #20]
 8001b90:	429a      	cmp	r2, r3
 8001b92:	d307      	bcc.n	8001ba4 <HAL_DMA_IRQHandler+0x2e8>
        {
          break;
        }
      }
      while((hdma->Instance->CR & DMA_SxCR_EN) != RESET);
 8001b94:	687b      	ldr	r3, [r7, #4]
 8001b96:	681b      	ldr	r3, [r3, #0]
 8001b98:	681b      	ldr	r3, [r3, #0]
 8001b9a:	f003 0301 	and.w	r3, r3, #1
 8001b9e:	2b00      	cmp	r3, #0
 8001ba0:	d1f2      	bne.n	8001b88 <HAL_DMA_IRQHandler+0x2cc>
 8001ba2:	e000      	b.n	8001ba6 <HAL_DMA_IRQHandler+0x2ea>
          break;
 8001ba4:	bf00      	nop

      /* Change the DMA state */
      hdma->State = HAL_DMA_STATE_READY;
 8001ba6:	687b      	ldr	r3, [r7, #4]
 8001ba8:	2201      	movs	r2, #1
 8001baa:	f883 2035 	strb.w	r2, [r3, #53]	; 0x35

      /* Process Unlocked */
      __HAL_UNLOCK(hdma);
 8001bae:	687b      	ldr	r3, [r7, #4]
 8001bb0:	2200      	movs	r2, #0
 8001bb2:	f883 2034 	strb.w	r2, [r3, #52]	; 0x34

    }

    if(hdma->XferErrorCallback != NULL)
 8001bb6:	687b      	ldr	r3, [r7, #4]
 8001bb8:	6cdb      	ldr	r3, [r3, #76]	; 0x4c
 8001bba:	2b00      	cmp	r3, #0
 8001bbc:	d005      	beq.n	8001bca <HAL_DMA_IRQHandler+0x30e>
    {
      /* Transfer error callback */
      hdma->XferErrorCallback(hdma);
 8001bbe:	687b      	ldr	r3, [r7, #4]
 8001bc0:	6cdb      	ldr	r3, [r3, #76]	; 0x4c
 8001bc2:	6878      	ldr	r0, [r7, #4]
 8001bc4:	4798      	blx	r3
 8001bc6:	e000      	b.n	8001bca <HAL_DMA_IRQHandler+0x30e>
        return;
 8001bc8:	bf00      	nop
    }
  }
}
 8001bca:	3718      	adds	r7, #24
 8001bcc:	46bd      	mov	sp, r7
 8001bce:	bd80      	pop	{r7, pc}

08001bd0 <DMA_SetConfig>:
  * @param  DstAddress The destination memory Buffer address
  * @param  DataLength The length of data to be transferred from source to destination
  * @retval HAL status
  */
static void DMA_SetConfig(DMA_HandleTypeDef *hdma, uint32_t SrcAddress, uint32_t DstAddress, uint32_t DataLength)
{
 8001bd0:	b480      	push	{r7}
 8001bd2:	b085      	sub	sp, #20
 8001bd4:	af00      	add	r7, sp, #0
 8001bd6:	60f8      	str	r0, [r7, #12]
 8001bd8:	60b9      	str	r1, [r7, #8]
 8001bda:	607a      	str	r2, [r7, #4]
 8001bdc:	603b      	str	r3, [r7, #0]
  /* Clear DBM bit */
  hdma->Instance->CR &= (uint32_t)(~DMA_SxCR_DBM);
 8001bde:	68fb      	ldr	r3, [r7, #12]
 8001be0:	681b      	ldr	r3, [r3, #0]
 8001be2:	681a      	ldr	r2, [r3, #0]
 8001be4:	68fb      	ldr	r3, [r7, #12]
 8001be6:	681b      	ldr	r3, [r3, #0]
 8001be8:	f422 2280 	bic.w	r2, r2, #262144	; 0x40000
 8001bec:	601a      	str	r2, [r3, #0]

  /* Configure DMA Stream data length */
  hdma->Instance->NDTR = DataLength;
 8001bee:	68fb      	ldr	r3, [r7, #12]
 8001bf0:	681b      	ldr	r3, [r3, #0]
 8001bf2:	683a      	ldr	r2, [r7, #0]
 8001bf4:	605a      	str	r2, [r3, #4]

  /* Memory to Peripheral */
  if((hdma->Init.Direction) == DMA_MEMORY_TO_PERIPH)
 8001bf6:	68fb      	ldr	r3, [r7, #12]
 8001bf8:	689b      	ldr	r3, [r3, #8]
 8001bfa:	2b40      	cmp	r3, #64	; 0x40
 8001bfc:	d108      	bne.n	8001c10 <DMA_SetConfig+0x40>
  {
    /* Configure DMA Stream destination address */
    hdma->Instance->PAR = DstAddress;
 8001bfe:	68fb      	ldr	r3, [r7, #12]
 8001c00:	681b      	ldr	r3, [r3, #0]
 8001c02:	687a      	ldr	r2, [r7, #4]
 8001c04:	609a      	str	r2, [r3, #8]

    /* Configure DMA Stream source address */
    hdma->Instance->M0AR = SrcAddress;
 8001c06:	68fb      	ldr	r3, [r7, #12]
 8001c08:	681b      	ldr	r3, [r3, #0]
 8001c0a:	68ba      	ldr	r2, [r7, #8]
 8001c0c:	60da      	str	r2, [r3, #12]
    hdma->Instance->PAR = SrcAddress;

    /* Configure DMA Stream destination address */
    hdma->Instance->M0AR = DstAddress;
  }
}
 8001c0e:	e007      	b.n	8001c20 <DMA_SetConfig+0x50>
    hdma->Instance->PAR = SrcAddress;
 8001c10:	68fb      	ldr	r3, [r7, #12]
 8001c12:	681b      	ldr	r3, [r3, #0]
 8001c14:	68ba      	ldr	r2, [r7, #8]
 8001c16:	609a      	str	r2, [r3, #8]
    hdma->Instance->M0AR = DstAddress;
 8001c18:	68fb      	ldr	r3, [r7, #12]
 8001c1a:	681b      	ldr	r3, [r3, #0]
 8001c1c:	687a      	ldr	r2, [r7, #4]
 8001c1e:	60da      	str	r2, [r3, #12]
}
 8001c20:	bf00      	nop
 8001c22:	3714      	adds	r7, #20
 8001c24:	46bd      	mov	sp, r7
 8001c26:	f85d 7b04 	ldr.w	r7, [sp], #4
 8001c2a:	4770      	bx	lr

08001c2c <DMA_CalcBaseAndBitshift>:
  * @param  hdma       pointer to a DMA_HandleTypeDef structure that contains
  *                     the configuration information for the specified DMA Stream. 
  * @retval Stream base address
  */
static uint32_t DMA_CalcBaseAndBitshift(DMA_HandleTypeDef *hdma)
{
 8001c2c:	b480      	push	{r7}
 8001c2e:	b085      	sub	sp, #20
 8001c30:	af00      	add	r7, sp, #0
 8001c32:	6078      	str	r0, [r7, #4]
  uint32_t stream_number = (((uint32_t)hdma->Instance & 0xFFU) - 16U) / 24U;
 8001c34:	687b      	ldr	r3, [r7, #4]
 8001c36:	681b      	ldr	r3, [r3, #0]
 8001c38:	b2db      	uxtb	r3, r3
 8001c3a:	3b10      	subs	r3, #16
 8001c3c:	4a13      	ldr	r2, [pc, #76]	; (8001c8c <DMA_CalcBaseAndBitshift+0x60>)
 8001c3e:	fba2 2303 	umull	r2, r3, r2, r3
 8001c42:	091b      	lsrs	r3, r3, #4
 8001c44:	60fb      	str	r3, [r7, #12]
  
  /* lookup table for necessary bitshift of flags within status registers */
  static const uint8_t flagBitshiftOffset[8U] = {0U, 6U, 16U, 22U, 0U, 6U, 16U, 22U};
  hdma->StreamIndex = flagBitshiftOffset[stream_number];
 8001c46:	4a12      	ldr	r2, [pc, #72]	; (8001c90 <DMA_CalcBaseAndBitshift+0x64>)
 8001c48:	68fb      	ldr	r3, [r7, #12]
 8001c4a:	4413      	add	r3, r2
 8001c4c:	781b      	ldrb	r3, [r3, #0]
 8001c4e:	461a      	mov	r2, r3
 8001c50:	687b      	ldr	r3, [r7, #4]
 8001c52:	65da      	str	r2, [r3, #92]	; 0x5c
  
  if (stream_number > 3U)
 8001c54:	68fb      	ldr	r3, [r7, #12]
 8001c56:	2b03      	cmp	r3, #3
 8001c58:	d908      	bls.n	8001c6c <DMA_CalcBaseAndBitshift+0x40>
  {
    /* return pointer to HISR and HIFCR */
    hdma->StreamBaseAddress = (((uint32_t)hdma->Instance & (uint32_t)(~0x3FFU)) + 4U);
 8001c5a:	687b      	ldr	r3, [r7, #4]
 8001c5c:	681b      	ldr	r3, [r3, #0]
 8001c5e:	461a      	mov	r2, r3
 8001c60:	4b0c      	ldr	r3, [pc, #48]	; (8001c94 <DMA_CalcBaseAndBitshift+0x68>)
 8001c62:	4013      	ands	r3, r2
 8001c64:	1d1a      	adds	r2, r3, #4
 8001c66:	687b      	ldr	r3, [r7, #4]
 8001c68:	659a      	str	r2, [r3, #88]	; 0x58
 8001c6a:	e006      	b.n	8001c7a <DMA_CalcBaseAndBitshift+0x4e>
  }
  else
  {
    /* return pointer to LISR and LIFCR */
    hdma->StreamBaseAddress = ((uint32_t)hdma->Instance & (uint32_t)(~0x3FFU));
 8001c6c:	687b      	ldr	r3, [r7, #4]
 8001c6e:	681b      	ldr	r3, [r3, #0]
 8001c70:	461a      	mov	r2, r3
 8001c72:	4b08      	ldr	r3, [pc, #32]	; (8001c94 <DMA_CalcBaseAndBitshift+0x68>)
 8001c74:	4013      	ands	r3, r2
 8001c76:	687a      	ldr	r2, [r7, #4]
 8001c78:	6593      	str	r3, [r2, #88]	; 0x58
  }
  
  return hdma->StreamBaseAddress;
 8001c7a:	687b      	ldr	r3, [r7, #4]
 8001c7c:	6d9b      	ldr	r3, [r3, #88]	; 0x58
}
 8001c7e:	4618      	mov	r0, r3
 8001c80:	3714      	adds	r7, #20
 8001c82:	46bd      	mov	sp, r7
 8001c84:	f85d 7b04 	ldr.w	r7, [sp], #4
 8001c88:	4770      	bx	lr
 8001c8a:	bf00      	nop
 8001c8c:	aaaaaaab 	.word	0xaaaaaaab
 8001c90:	08017988 	.word	0x08017988
 8001c94:	fffffc00 	.word	0xfffffc00

08001c98 <DMA_CheckFifoParam>:
  * @param  hdma       pointer to a DMA_HandleTypeDef structure that contains
  *                     the configuration information for the specified DMA Stream. 
  * @retval HAL status
  */
static HAL_StatusTypeDef DMA_CheckFifoParam(DMA_HandleTypeDef *hdma)
{
 8001c98:	b480      	push	{r7}
 8001c9a:	b085      	sub	sp, #20
 8001c9c:	af00      	add	r7, sp, #0
 8001c9e:	6078      	str	r0, [r7, #4]
  HAL_StatusTypeDef status = HAL_OK;
 8001ca0:	2300      	movs	r3, #0
 8001ca2:	73fb      	strb	r3, [r7, #15]
  uint32_t tmp = hdma->Init.FIFOThreshold;
 8001ca4:	687b      	ldr	r3, [r7, #4]
 8001ca6:	6a9b      	ldr	r3, [r3, #40]	; 0x28
 8001ca8:	60bb      	str	r3, [r7, #8]
  
  /* Memory Data size equal to Byte */
  if(hdma->Init.MemDataAlignment == DMA_MDATAALIGN_BYTE)
 8001caa:	687b      	ldr	r3, [r7, #4]
 8001cac:	699b      	ldr	r3, [r3, #24]
 8001cae:	2b00      	cmp	r3, #0
 8001cb0:	d11f      	bne.n	8001cf2 <DMA_CheckFifoParam+0x5a>
  {
    switch (tmp)
 8001cb2:	68bb      	ldr	r3, [r7, #8]
 8001cb4:	2b03      	cmp	r3, #3
 8001cb6:	d856      	bhi.n	8001d66 <DMA_CheckFifoParam+0xce>
 8001cb8:	a201      	add	r2, pc, #4	; (adr r2, 8001cc0 <DMA_CheckFifoParam+0x28>)
 8001cba:	f852 f023 	ldr.w	pc, [r2, r3, lsl #2]
 8001cbe:	bf00      	nop
 8001cc0:	08001cd1 	.word	0x08001cd1
 8001cc4:	08001ce3 	.word	0x08001ce3
 8001cc8:	08001cd1 	.word	0x08001cd1
 8001ccc:	08001d67 	.word	0x08001d67
    {
    case DMA_FIFO_THRESHOLD_1QUARTERFULL:
    case DMA_FIFO_THRESHOLD_3QUARTERSFULL:
      if ((hdma->Init.MemBurst & DMA_SxCR_MBURST_1) == DMA_SxCR_MBURST_1)
 8001cd0:	687b      	ldr	r3, [r7, #4]
 8001cd2:	6adb      	ldr	r3, [r3, #44]	; 0x2c
 8001cd4:	f003 7380 	and.w	r3, r3, #16777216	; 0x1000000
 8001cd8:	2b00      	cmp	r3, #0
 8001cda:	d046      	beq.n	8001d6a <DMA_CheckFifoParam+0xd2>
      {
        status = HAL_ERROR;
 8001cdc:	2301      	movs	r3, #1
 8001cde:	73fb      	strb	r3, [r7, #15]
      }
      break;
 8001ce0:	e043      	b.n	8001d6a <DMA_CheckFifoParam+0xd2>
    case DMA_FIFO_THRESHOLD_HALFFULL:
      if (hdma->Init.MemBurst == DMA_MBURST_INC16)
 8001ce2:	687b      	ldr	r3, [r7, #4]
 8001ce4:	6adb      	ldr	r3, [r3, #44]	; 0x2c
 8001ce6:	f1b3 7fc0 	cmp.w	r3, #25165824	; 0x1800000
 8001cea:	d140      	bne.n	8001d6e <DMA_CheckFifoParam+0xd6>
      {
        status = HAL_ERROR;
 8001cec:	2301      	movs	r3, #1
 8001cee:	73fb      	strb	r3, [r7, #15]
      }
      break;
 8001cf0:	e03d      	b.n	8001d6e <DMA_CheckFifoParam+0xd6>
      break;
    }
  }
  
  /* Memory Data size equal to Half-Word */
  else if (hdma->Init.MemDataAlignment == DMA_MDATAALIGN_HALFWORD)
 8001cf2:	687b      	ldr	r3, [r7, #4]
 8001cf4:	699b      	ldr	r3, [r3, #24]
 8001cf6:	f5b3 5f00 	cmp.w	r3, #8192	; 0x2000
 8001cfa:	d121      	bne.n	8001d40 <DMA_CheckFifoParam+0xa8>
  {
    switch (tmp)
 8001cfc:	68bb      	ldr	r3, [r7, #8]
 8001cfe:	2b03      	cmp	r3, #3
 8001d00:	d837      	bhi.n	8001d72 <DMA_CheckFifoParam+0xda>
 8001d02:	a201      	add	r2, pc, #4	; (adr r2, 8001d08 <DMA_CheckFifoParam+0x70>)
 8001d04:	f852 f023 	ldr.w	pc, [r2, r3, lsl #2]
 8001d08:	08001d19 	.word	0x08001d19
 8001d0c:	08001d1f 	.word	0x08001d1f
 8001d10:	08001d19 	.word	0x08001d19
 8001d14:	08001d31 	.word	0x08001d31
    {
    case DMA_FIFO_THRESHOLD_1QUARTERFULL:
    case DMA_FIFO_THRESHOLD_3QUARTERSFULL:
      status = HAL_ERROR;
 8001d18:	2301      	movs	r3, #1
 8001d1a:	73fb      	strb	r3, [r7, #15]
      break;
 8001d1c:	e030      	b.n	8001d80 <DMA_CheckFifoParam+0xe8>
    case DMA_FIFO_THRESHOLD_HALFFULL:
      if ((hdma->Init.MemBurst & DMA_SxCR_MBURST_1) == DMA_SxCR_MBURST_1)
 8001d1e:	687b      	ldr	r3, [r7, #4]
 8001d20:	6adb      	ldr	r3, [r3, #44]	; 0x2c
 8001d22:	f003 7380 	and.w	r3, r3, #16777216	; 0x1000000
 8001d26:	2b00      	cmp	r3, #0
 8001d28:	d025      	beq.n	8001d76 <DMA_CheckFifoParam+0xde>
      {
        status = HAL_ERROR;
 8001d2a:	2301      	movs	r3, #1
 8001d2c:	73fb      	strb	r3, [r7, #15]
      }
      break;
 8001d2e:	e022      	b.n	8001d76 <DMA_CheckFifoParam+0xde>
    case DMA_FIFO_THRESHOLD_FULL:
      if (hdma->Init.MemBurst == DMA_MBURST_INC16)
 8001d30:	687b      	ldr	r3, [r7, #4]
 8001d32:	6adb      	ldr	r3, [r3, #44]	; 0x2c
 8001d34:	f1b3 7fc0 	cmp.w	r3, #25165824	; 0x1800000
 8001d38:	d11f      	bne.n	8001d7a <DMA_CheckFifoParam+0xe2>
      {
        status = HAL_ERROR;
 8001d3a:	2301      	movs	r3, #1
 8001d3c:	73fb      	strb	r3, [r7, #15]
      }
      break;   
 8001d3e:	e01c      	b.n	8001d7a <DMA_CheckFifoParam+0xe2>
  }
  
  /* Memory Data size equal to Word */
  else
  {
    switch (tmp)
 8001d40:	68bb      	ldr	r3, [r7, #8]
 8001d42:	2b02      	cmp	r3, #2
 8001d44:	d903      	bls.n	8001d4e <DMA_CheckFifoParam+0xb6>
 8001d46:	68bb      	ldr	r3, [r7, #8]
 8001d48:	2b03      	cmp	r3, #3
 8001d4a:	d003      	beq.n	8001d54 <DMA_CheckFifoParam+0xbc>
      {
        status = HAL_ERROR;
      }
      break;
    default:
      break;
 8001d4c:	e018      	b.n	8001d80 <DMA_CheckFifoParam+0xe8>
      status = HAL_ERROR;
 8001d4e:	2301      	movs	r3, #1
 8001d50:	73fb      	strb	r3, [r7, #15]
      break;
 8001d52:	e015      	b.n	8001d80 <DMA_CheckFifoParam+0xe8>
      if ((hdma->Init.MemBurst & DMA_SxCR_MBURST_1) == DMA_SxCR_MBURST_1)
 8001d54:	687b      	ldr	r3, [r7, #4]
 8001d56:	6adb      	ldr	r3, [r3, #44]	; 0x2c
 8001d58:	f003 7380 	and.w	r3, r3, #16777216	; 0x1000000
 8001d5c:	2b00      	cmp	r3, #0
 8001d5e:	d00e      	beq.n	8001d7e <DMA_CheckFifoParam+0xe6>
        status = HAL_ERROR;
 8001d60:	2301      	movs	r3, #1
 8001d62:	73fb      	strb	r3, [r7, #15]
      break;
 8001d64:	e00b      	b.n	8001d7e <DMA_CheckFifoParam+0xe6>
      break;
 8001d66:	bf00      	nop
 8001d68:	e00a      	b.n	8001d80 <DMA_CheckFifoParam+0xe8>
      break;
 8001d6a:	bf00      	nop
 8001d6c:	e008      	b.n	8001d80 <DMA_CheckFifoParam+0xe8>
      break;
 8001d6e:	bf00      	nop
 8001d70:	e006      	b.n	8001d80 <DMA_CheckFifoParam+0xe8>
      break;
 8001d72:	bf00      	nop
 8001d74:	e004      	b.n	8001d80 <DMA_CheckFifoParam+0xe8>
      break;
 8001d76:	bf00      	nop
 8001d78:	e002      	b.n	8001d80 <DMA_CheckFifoParam+0xe8>
      break;   
 8001d7a:	bf00      	nop
 8001d7c:	e000      	b.n	8001d80 <DMA_CheckFifoParam+0xe8>
      break;
 8001d7e:	bf00      	nop
    }
  } 
  
  return status; 
 8001d80:	7bfb      	ldrb	r3, [r7, #15]
}
 8001d82:	4618      	mov	r0, r3
 8001d84:	3714      	adds	r7, #20
 8001d86:	46bd      	mov	sp, r7
 8001d88:	f85d 7b04 	ldr.w	r7, [sp], #4
 8001d8c:	4770      	bx	lr
 8001d8e:	bf00      	nop

08001d90 <HAL_ETH_Init>:
  * @param  heth: pointer to a ETH_HandleTypeDef structure that contains
  *         the configuration information for ETHERNET module
  * @retval HAL status
  */
HAL_StatusTypeDef HAL_ETH_Init(ETH_HandleTypeDef *heth)
{
 8001d90:	b580      	push	{r7, lr}
 8001d92:	b084      	sub	sp, #16
 8001d94:	af00      	add	r7, sp, #0
 8001d96:	6078      	str	r0, [r7, #4]
  uint32_t tickstart;

  if (heth == NULL)
 8001d98:	687b      	ldr	r3, [r7, #4]
 8001d9a:	2b00      	cmp	r3, #0
 8001d9c:	d101      	bne.n	8001da2 <HAL_ETH_Init+0x12>
  {
    return HAL_ERROR;
 8001d9e:	2301      	movs	r3, #1
 8001da0:	e086      	b.n	8001eb0 <HAL_ETH_Init+0x120>
  }
  if (heth->gState == HAL_ETH_STATE_RESET)
 8001da2:	687b      	ldr	r3, [r7, #4]
 8001da4:	f8d3 3084 	ldr.w	r3, [r3, #132]	; 0x84
 8001da8:	2b00      	cmp	r3, #0
 8001daa:	d106      	bne.n	8001dba <HAL_ETH_Init+0x2a>
  {
    heth->gState = HAL_ETH_STATE_BUSY;
 8001dac:	687b      	ldr	r3, [r7, #4]
 8001dae:	2223      	movs	r2, #35	; 0x23
 8001db0:	f8c3 2084 	str.w	r2, [r3, #132]	; 0x84

    /* Init the low level hardware */
    heth->MspInitCallback(heth);
#else
    /* Init the low level hardware : GPIO, CLOCK, NVIC. */
    HAL_ETH_MspInit(heth);
 8001db4:	6878      	ldr	r0, [r7, #4]
 8001db6:	f004 ff49 	bl	8006c4c <HAL_ETH_MspInit>

#endif /* (USE_HAL_ETH_REGISTER_CALLBACKS) */
  }

  __HAL_RCC_SYSCFG_CLK_ENABLE();
 8001dba:	4b3f      	ldr	r3, [pc, #252]	; (8001eb8 <HAL_ETH_Init+0x128>)
 8001dbc:	6c5b      	ldr	r3, [r3, #68]	; 0x44
 8001dbe:	4a3e      	ldr	r2, [pc, #248]	; (8001eb8 <HAL_ETH_Init+0x128>)
 8001dc0:	f443 4380 	orr.w	r3, r3, #16384	; 0x4000
 8001dc4:	6453      	str	r3, [r2, #68]	; 0x44
 8001dc6:	4b3c      	ldr	r3, [pc, #240]	; (8001eb8 <HAL_ETH_Init+0x128>)
 8001dc8:	6c5b      	ldr	r3, [r3, #68]	; 0x44
 8001dca:	f403 4380 	and.w	r3, r3, #16384	; 0x4000
 8001dce:	60bb      	str	r3, [r7, #8]
 8001dd0:	68bb      	ldr	r3, [r7, #8]

  /* Select MII or RMII Mode*/
  SYSCFG->PMC &= ~(SYSCFG_PMC_MII_RMII_SEL);
 8001dd2:	4b3a      	ldr	r3, [pc, #232]	; (8001ebc <HAL_ETH_Init+0x12c>)
 8001dd4:	685b      	ldr	r3, [r3, #4]
 8001dd6:	4a39      	ldr	r2, [pc, #228]	; (8001ebc <HAL_ETH_Init+0x12c>)
 8001dd8:	f423 0300 	bic.w	r3, r3, #8388608	; 0x800000
 8001ddc:	6053      	str	r3, [r2, #4]
  SYSCFG->PMC |= (uint32_t)heth->Init.MediaInterface;
 8001dde:	4b37      	ldr	r3, [pc, #220]	; (8001ebc <HAL_ETH_Init+0x12c>)
 8001de0:	685a      	ldr	r2, [r3, #4]
 8001de2:	687b      	ldr	r3, [r7, #4]
 8001de4:	689b      	ldr	r3, [r3, #8]
 8001de6:	4935      	ldr	r1, [pc, #212]	; (8001ebc <HAL_ETH_Init+0x12c>)
 8001de8:	4313      	orrs	r3, r2
 8001dea:	604b      	str	r3, [r1, #4]
  /* Dummy read to sync SYSCFG with ETH */
  (void)SYSCFG->PMC;
 8001dec:	4b33      	ldr	r3, [pc, #204]	; (8001ebc <HAL_ETH_Init+0x12c>)
 8001dee:	685b      	ldr	r3, [r3, #4]

  /* Ethernet Software reset */
  /* Set the SWR bit: resets all MAC subsystem internal registers and logic */
  /* After reset all the registers holds their respective reset values */
  SET_BIT(heth->Instance->DMABMR, ETH_DMABMR_SR);
 8001df0:	687b      	ldr	r3, [r7, #4]
 8001df2:	681b      	ldr	r3, [r3, #0]
 8001df4:	f503 5380 	add.w	r3, r3, #4096	; 0x1000
 8001df8:	681b      	ldr	r3, [r3, #0]
 8001dfa:	687a      	ldr	r2, [r7, #4]
 8001dfc:	6812      	ldr	r2, [r2, #0]
 8001dfe:	f043 0301 	orr.w	r3, r3, #1
 8001e02:	f502 5280 	add.w	r2, r2, #4096	; 0x1000
 8001e06:	6013      	str	r3, [r2, #0]

  /* Get tick */
  tickstart = HAL_GetTick();
 8001e08:	f7ff fa76 	bl	80012f8 <HAL_GetTick>
 8001e0c:	60f8      	str	r0, [r7, #12]

  /* Wait for software reset */
  while (READ_BIT(heth->Instance->DMABMR, ETH_DMABMR_SR) > 0U)
 8001e0e:	e011      	b.n	8001e34 <HAL_ETH_Init+0xa4>
  {
    if (((HAL_GetTick() - tickstart) > ETH_SWRESET_TIMEOUT))
 8001e10:	f7ff fa72 	bl	80012f8 <HAL_GetTick>
 8001e14:	4602      	mov	r2, r0
 8001e16:	68fb      	ldr	r3, [r7, #12]
 8001e18:	1ad3      	subs	r3, r2, r3
 8001e1a:	f5b3 7ffa 	cmp.w	r3, #500	; 0x1f4
 8001e1e:	d909      	bls.n	8001e34 <HAL_ETH_Init+0xa4>
    {
      /* Set Error Code */
      heth->ErrorCode = HAL_ETH_ERROR_TIMEOUT;
 8001e20:	687b      	ldr	r3, [r7, #4]
 8001e22:	2204      	movs	r2, #4
 8001e24:	f8c3 2088 	str.w	r2, [r3, #136]	; 0x88
      /* Set State as Error */
      heth->gState = HAL_ETH_STATE_ERROR;
 8001e28:	687b      	ldr	r3, [r7, #4]
 8001e2a:	22e0      	movs	r2, #224	; 0xe0
 8001e2c:	f8c3 2084 	str.w	r2, [r3, #132]	; 0x84
      /* Return Error */
      return HAL_ERROR;
 8001e30:	2301      	movs	r3, #1
 8001e32:	e03d      	b.n	8001eb0 <HAL_ETH_Init+0x120>
  while (READ_BIT(heth->Instance->DMABMR, ETH_DMABMR_SR) > 0U)
 8001e34:	687b      	ldr	r3, [r7, #4]
 8001e36:	681b      	ldr	r3, [r3, #0]
 8001e38:	f503 5380 	add.w	r3, r3, #4096	; 0x1000
 8001e3c:	681b      	ldr	r3, [r3, #0]
 8001e3e:	f003 0301 	and.w	r3, r3, #1
 8001e42:	2b00      	cmp	r3, #0
 8001e44:	d1e4      	bne.n	8001e10 <HAL_ETH_Init+0x80>
    }
  }


  /*------------------ MAC, MTL and DMA default Configuration ----------------*/
  ETH_MACDMAConfig(heth);
 8001e46:	6878      	ldr	r0, [r7, #4]
 8001e48:	f000 fefc 	bl	8002c44 <ETH_MACDMAConfig>


  /*------------------ DMA Tx Descriptors Configuration ----------------------*/
  ETH_DMATxDescListInit(heth);
 8001e4c:	6878      	ldr	r0, [r7, #4]
 8001e4e:	f000 ffa7 	bl	8002da0 <ETH_DMATxDescListInit>

  /*------------------ DMA Rx Descriptors Configuration ----------------------*/
  ETH_DMARxDescListInit(heth);
 8001e52:	6878      	ldr	r0, [r7, #4]
 8001e54:	f000 fffd 	bl	8002e52 <ETH_DMARxDescListInit>

  /*--------------------- ETHERNET MAC Address Configuration ------------------*/
  ETH_MACAddressConfig(heth, ETH_MAC_ADDRESS0, heth->Init.MACAddr);
 8001e58:	687b      	ldr	r3, [r7, #4]
 8001e5a:	685b      	ldr	r3, [r3, #4]
 8001e5c:	461a      	mov	r2, r3
 8001e5e:	2100      	movs	r1, #0
 8001e60:	6878      	ldr	r0, [r7, #4]
 8001e62:	f000 ff65 	bl	8002d30 <ETH_MACAddressConfig>

  /* Disable MMC Interrupts */
  SET_BIT(heth->Instance->MACIMR, ETH_MACIMR_TSTIM | ETH_MACIMR_PMTIM);
 8001e66:	687b      	ldr	r3, [r7, #4]
 8001e68:	681b      	ldr	r3, [r3, #0]
 8001e6a:	6bda      	ldr	r2, [r3, #60]	; 0x3c
 8001e6c:	687b      	ldr	r3, [r7, #4]
 8001e6e:	681b      	ldr	r3, [r3, #0]
 8001e70:	f442 7202 	orr.w	r2, r2, #520	; 0x208
 8001e74:	63da      	str	r2, [r3, #60]	; 0x3c

  /* Disable Rx MMC Interrupts */
  SET_BIT(heth->Instance->MMCRIMR, ETH_MMCRIMR_RGUFM | ETH_MMCRIMR_RFAEM | \
 8001e76:	687b      	ldr	r3, [r7, #4]
 8001e78:	681b      	ldr	r3, [r3, #0]
 8001e7a:	f8d3 110c 	ldr.w	r1, [r3, #268]	; 0x10c
 8001e7e:	687b      	ldr	r3, [r7, #4]
 8001e80:	681a      	ldr	r2, [r3, #0]
 8001e82:	4b0f      	ldr	r3, [pc, #60]	; (8001ec0 <HAL_ETH_Init+0x130>)
 8001e84:	430b      	orrs	r3, r1
 8001e86:	f8c2 310c 	str.w	r3, [r2, #268]	; 0x10c
          ETH_MMCRIMR_RFCEM);

  /* Disable Tx MMC Interrupts */
  SET_BIT(heth->Instance->MMCTIMR, ETH_MMCTIMR_TGFM | ETH_MMCTIMR_TGFMSCM | \
 8001e8a:	687b      	ldr	r3, [r7, #4]
 8001e8c:	681b      	ldr	r3, [r3, #0]
 8001e8e:	f8d3 2110 	ldr.w	r2, [r3, #272]	; 0x110
 8001e92:	687b      	ldr	r3, [r7, #4]
 8001e94:	681b      	ldr	r3, [r3, #0]
 8001e96:	f442 1203 	orr.w	r2, r2, #2146304	; 0x20c000
 8001e9a:	f8c3 2110 	str.w	r2, [r3, #272]	; 0x110
          ETH_MMCTIMR_TGFSCM);

  heth->ErrorCode = HAL_ETH_ERROR_NONE;
 8001e9e:	687b      	ldr	r3, [r7, #4]
 8001ea0:	2200      	movs	r2, #0
 8001ea2:	f8c3 2088 	str.w	r2, [r3, #136]	; 0x88
  heth->gState = HAL_ETH_STATE_READY;
 8001ea6:	687b      	ldr	r3, [r7, #4]
 8001ea8:	2210      	movs	r2, #16
 8001eaa:	f8c3 2084 	str.w	r2, [r3, #132]	; 0x84

  return HAL_OK;
 8001eae:	2300      	movs	r3, #0
}
 8001eb0:	4618      	mov	r0, r3
 8001eb2:	3710      	adds	r7, #16
 8001eb4:	46bd      	mov	sp, r7
 8001eb6:	bd80      	pop	{r7, pc}
 8001eb8:	40023800 	.word	0x40023800
 8001ebc:	40013800 	.word	0x40013800
 8001ec0:	00020060 	.word	0x00020060

08001ec4 <HAL_ETH_Start>:
  * @param  heth: pointer to a ETH_HandleTypeDef structure that contains
  *         the configuration information for ETHERNET module
  * @retval HAL status
  */
HAL_StatusTypeDef HAL_ETH_Start(ETH_HandleTypeDef *heth)
{
 8001ec4:	b580      	push	{r7, lr}
 8001ec6:	b084      	sub	sp, #16
 8001ec8:	af00      	add	r7, sp, #0
 8001eca:	6078      	str	r0, [r7, #4]
  uint32_t tmpreg1;

  if (heth->gState == HAL_ETH_STATE_READY)
 8001ecc:	687b      	ldr	r3, [r7, #4]
 8001ece:	f8d3 3084 	ldr.w	r3, [r3, #132]	; 0x84
 8001ed2:	2b10      	cmp	r3, #16
 8001ed4:	d150      	bne.n	8001f78 <HAL_ETH_Start+0xb4>
  {
    heth->gState = HAL_ETH_STATE_BUSY;
 8001ed6:	687b      	ldr	r3, [r7, #4]
 8001ed8:	2223      	movs	r2, #35	; 0x23
 8001eda:	f8c3 2084 	str.w	r2, [r3, #132]	; 0x84

    /* Set number of descriptors to build */
    heth->RxDescList.RxBuildDescCnt = ETH_RX_DESC_CNT;
 8001ede:	687b      	ldr	r3, [r7, #4]
 8001ee0:	2204      	movs	r2, #4
 8001ee2:	66da      	str	r2, [r3, #108]	; 0x6c

    /* Build all descriptors */
    ETH_UpdateDescriptor(heth);
 8001ee4:	6878      	ldr	r0, [r7, #4]
 8001ee6:	f000 f9f9 	bl	80022dc <ETH_UpdateDescriptor>

    /* Enable the MAC transmission */
    SET_BIT(heth->Instance->MACCR, ETH_MACCR_TE);
 8001eea:	687b      	ldr	r3, [r7, #4]
 8001eec:	681b      	ldr	r3, [r3, #0]
 8001eee:	681a      	ldr	r2, [r3, #0]
 8001ef0:	687b      	ldr	r3, [r7, #4]
 8001ef2:	681b      	ldr	r3, [r3, #0]
 8001ef4:	f042 0208 	orr.w	r2, r2, #8
 8001ef8:	601a      	str	r2, [r3, #0]

    /* Wait until the write operation will be taken into account :
    at least four TX_CLK/RX_CLK clock cycles */
    tmpreg1 = (heth->Instance)->MACCR;
 8001efa:	687b      	ldr	r3, [r7, #4]
 8001efc:	681b      	ldr	r3, [r3, #0]
 8001efe:	681b      	ldr	r3, [r3, #0]
 8001f00:	60fb      	str	r3, [r7, #12]
    HAL_Delay(ETH_REG_WRITE_DELAY);
 8001f02:	2001      	movs	r0, #1
 8001f04:	f7ff fa04 	bl	8001310 <HAL_Delay>
    (heth->Instance)->MACCR = tmpreg1;
 8001f08:	687b      	ldr	r3, [r7, #4]
 8001f0a:	681b      	ldr	r3, [r3, #0]
 8001f0c:	68fa      	ldr	r2, [r7, #12]
 8001f0e:	601a      	str	r2, [r3, #0]

    /* Enable the MAC reception */
    SET_BIT(heth->Instance->MACCR, ETH_MACCR_RE);
 8001f10:	687b      	ldr	r3, [r7, #4]
 8001f12:	681b      	ldr	r3, [r3, #0]
 8001f14:	681a      	ldr	r2, [r3, #0]
 8001f16:	687b      	ldr	r3, [r7, #4]
 8001f18:	681b      	ldr	r3, [r3, #0]
 8001f1a:	f042 0204 	orr.w	r2, r2, #4
 8001f1e:	601a      	str	r2, [r3, #0]

    /* Wait until the write operation will be taken into account :
    at least four TX_CLK/RX_CLK clock cycles */
    tmpreg1 = (heth->Instance)->MACCR;
 8001f20:	687b      	ldr	r3, [r7, #4]
 8001f22:	681b      	ldr	r3, [r3, #0]
 8001f24:	681b      	ldr	r3, [r3, #0]
 8001f26:	60fb      	str	r3, [r7, #12]
    HAL_Delay(ETH_REG_WRITE_DELAY);
 8001f28:	2001      	movs	r0, #1
 8001f2a:	f7ff f9f1 	bl	8001310 <HAL_Delay>
    (heth->Instance)->MACCR = tmpreg1;
 8001f2e:	687b      	ldr	r3, [r7, #4]
 8001f30:	681b      	ldr	r3, [r3, #0]
 8001f32:	68fa      	ldr	r2, [r7, #12]
 8001f34:	601a      	str	r2, [r3, #0]

    /* Flush Transmit FIFO */
    ETH_FlushTransmitFIFO(heth);
 8001f36:	6878      	ldr	r0, [r7, #4]
 8001f38:	f000 fd20 	bl	800297c <ETH_FlushTransmitFIFO>

    /* Enable the DMA transmission */
    SET_BIT(heth->Instance->DMAOMR, ETH_DMAOMR_ST);
 8001f3c:	687b      	ldr	r3, [r7, #4]
 8001f3e:	681b      	ldr	r3, [r3, #0]
 8001f40:	f503 5380 	add.w	r3, r3, #4096	; 0x1000
 8001f44:	699b      	ldr	r3, [r3, #24]
 8001f46:	687a      	ldr	r2, [r7, #4]
 8001f48:	6812      	ldr	r2, [r2, #0]
 8001f4a:	f443 5300 	orr.w	r3, r3, #8192	; 0x2000
 8001f4e:	f502 5280 	add.w	r2, r2, #4096	; 0x1000
 8001f52:	6193      	str	r3, [r2, #24]

    /* Enable the DMA reception */
    SET_BIT(heth->Instance->DMAOMR, ETH_DMAOMR_SR);
 8001f54:	687b      	ldr	r3, [r7, #4]
 8001f56:	681b      	ldr	r3, [r3, #0]
 8001f58:	f503 5380 	add.w	r3, r3, #4096	; 0x1000
 8001f5c:	699b      	ldr	r3, [r3, #24]
 8001f5e:	687a      	ldr	r2, [r7, #4]
 8001f60:	6812      	ldr	r2, [r2, #0]
 8001f62:	f043 0302 	orr.w	r3, r3, #2
 8001f66:	f502 5280 	add.w	r2, r2, #4096	; 0x1000
 8001f6a:	6193      	str	r3, [r2, #24]

    heth->gState = HAL_ETH_STATE_STARTED;
 8001f6c:	687b      	ldr	r3, [r7, #4]
 8001f6e:	2223      	movs	r2, #35	; 0x23
 8001f70:	f8c3 2084 	str.w	r2, [r3, #132]	; 0x84

    return HAL_OK;
 8001f74:	2300      	movs	r3, #0
 8001f76:	e000      	b.n	8001f7a <HAL_ETH_Start+0xb6>
  }
  else
  {
    return HAL_ERROR;
 8001f78:	2301      	movs	r3, #1
  }
}
 8001f7a:	4618      	mov	r0, r3
 8001f7c:	3710      	adds	r7, #16
 8001f7e:	46bd      	mov	sp, r7
 8001f80:	bd80      	pop	{r7, pc}

08001f82 <HAL_ETH_Stop>:
  * @param  heth: pointer to a ETH_HandleTypeDef structure that contains
  *         the configuration information for ETHERNET module
  * @retval HAL status
  */
HAL_StatusTypeDef HAL_ETH_Stop(ETH_HandleTypeDef *heth)
{
 8001f82:	b580      	push	{r7, lr}
 8001f84:	b084      	sub	sp, #16
 8001f86:	af00      	add	r7, sp, #0
 8001f88:	6078      	str	r0, [r7, #4]
  uint32_t tmpreg1;

  if (heth->gState == HAL_ETH_STATE_STARTED)
 8001f8a:	687b      	ldr	r3, [r7, #4]
 8001f8c:	f8d3 3084 	ldr.w	r3, [r3, #132]	; 0x84
 8001f90:	2b23      	cmp	r3, #35	; 0x23
 8001f92:	d14a      	bne.n	800202a <HAL_ETH_Stop+0xa8>
  {
    /* Set the ETH peripheral state to BUSY */
    heth->gState = HAL_ETH_STATE_BUSY;
 8001f94:	687b      	ldr	r3, [r7, #4]
 8001f96:	2223      	movs	r2, #35	; 0x23
 8001f98:	f8c3 2084 	str.w	r2, [r3, #132]	; 0x84

    /* Disable the DMA transmission */
    CLEAR_BIT(heth->Instance->DMAOMR, ETH_DMAOMR_ST);
 8001f9c:	687b      	ldr	r3, [r7, #4]
 8001f9e:	681b      	ldr	r3, [r3, #0]
 8001fa0:	f503 5380 	add.w	r3, r3, #4096	; 0x1000
 8001fa4:	699b      	ldr	r3, [r3, #24]
 8001fa6:	687a      	ldr	r2, [r7, #4]
 8001fa8:	6812      	ldr	r2, [r2, #0]
 8001faa:	f423 5300 	bic.w	r3, r3, #8192	; 0x2000
 8001fae:	f502 5280 	add.w	r2, r2, #4096	; 0x1000
 8001fb2:	6193      	str	r3, [r2, #24]

    /* Disable the DMA reception */
    CLEAR_BIT(heth->Instance->DMAOMR, ETH_DMAOMR_SR);
 8001fb4:	687b      	ldr	r3, [r7, #4]
 8001fb6:	681b      	ldr	r3, [r3, #0]
 8001fb8:	f503 5380 	add.w	r3, r3, #4096	; 0x1000
 8001fbc:	699b      	ldr	r3, [r3, #24]
 8001fbe:	687a      	ldr	r2, [r7, #4]
 8001fc0:	6812      	ldr	r2, [r2, #0]
 8001fc2:	f023 0302 	bic.w	r3, r3, #2
 8001fc6:	f502 5280 	add.w	r2, r2, #4096	; 0x1000
 8001fca:	6193      	str	r3, [r2, #24]

    /* Disable the MAC reception */
    CLEAR_BIT(heth->Instance->MACCR, ETH_MACCR_RE);
 8001fcc:	687b      	ldr	r3, [r7, #4]
 8001fce:	681b      	ldr	r3, [r3, #0]
 8001fd0:	681a      	ldr	r2, [r3, #0]
 8001fd2:	687b      	ldr	r3, [r7, #4]
 8001fd4:	681b      	ldr	r3, [r3, #0]
 8001fd6:	f022 0204 	bic.w	r2, r2, #4
 8001fda:	601a      	str	r2, [r3, #0]

    /* Wait until the write operation will be taken into account :
    at least four TX_CLK/RX_CLK clock cycles */
    tmpreg1 = (heth->Instance)->MACCR;
 8001fdc:	687b      	ldr	r3, [r7, #4]
 8001fde:	681b      	ldr	r3, [r3, #0]
 8001fe0:	681b      	ldr	r3, [r3, #0]
 8001fe2:	60fb      	str	r3, [r7, #12]
    HAL_Delay(ETH_REG_WRITE_DELAY);
 8001fe4:	2001      	movs	r0, #1
 8001fe6:	f7ff f993 	bl	8001310 <HAL_Delay>
    (heth->Instance)->MACCR = tmpreg1;
 8001fea:	687b      	ldr	r3, [r7, #4]
 8001fec:	681b      	ldr	r3, [r3, #0]
 8001fee:	68fa      	ldr	r2, [r7, #12]
 8001ff0:	601a      	str	r2, [r3, #0]

    /* Flush Transmit FIFO */
    ETH_FlushTransmitFIFO(heth);
 8001ff2:	6878      	ldr	r0, [r7, #4]
 8001ff4:	f000 fcc2 	bl	800297c <ETH_FlushTransmitFIFO>

    /* Disable the MAC transmission */
    CLEAR_BIT(heth->Instance->MACCR, ETH_MACCR_TE);
 8001ff8:	687b      	ldr	r3, [r7, #4]
 8001ffa:	681b      	ldr	r3, [r3, #0]
 8001ffc:	681a      	ldr	r2, [r3, #0]
 8001ffe:	687b      	ldr	r3, [r7, #4]
 8002000:	681b      	ldr	r3, [r3, #0]
 8002002:	f022 0208 	bic.w	r2, r2, #8
 8002006:	601a      	str	r2, [r3, #0]

    /* Wait until the write operation will be taken into account :
    at least four TX_CLK/RX_CLK clock cycles */
    tmpreg1 = (heth->Instance)->MACCR;
 8002008:	687b      	ldr	r3, [r7, #4]
 800200a:	681b      	ldr	r3, [r3, #0]
 800200c:	681b      	ldr	r3, [r3, #0]
 800200e:	60fb      	str	r3, [r7, #12]
    HAL_Delay(ETH_REG_WRITE_DELAY);
 8002010:	2001      	movs	r0, #1
 8002012:	f7ff f97d 	bl	8001310 <HAL_Delay>
    (heth->Instance)->MACCR = tmpreg1;
 8002016:	687b      	ldr	r3, [r7, #4]
 8002018:	681b      	ldr	r3, [r3, #0]
 800201a:	68fa      	ldr	r2, [r7, #12]
 800201c:	601a      	str	r2, [r3, #0]

    heth->gState = HAL_ETH_STATE_READY;
 800201e:	687b      	ldr	r3, [r7, #4]
 8002020:	2210      	movs	r2, #16
 8002022:	f8c3 2084 	str.w	r2, [r3, #132]	; 0x84

    /* Return function status */
    return HAL_OK;
 8002026:	2300      	movs	r3, #0
 8002028:	e000      	b.n	800202c <HAL_ETH_Stop+0xaa>
  }
  else
  {
    return HAL_ERROR;
 800202a:	2301      	movs	r3, #1
  }
}
 800202c:	4618      	mov	r0, r3
 800202e:	3710      	adds	r7, #16
 8002030:	46bd      	mov	sp, r7
 8002032:	bd80      	pop	{r7, pc}

08002034 <HAL_ETH_Transmit>:
  * @param  pTxConfig: Hold the configuration of packet to be transmitted
  * @param  Timeout: timeout value
  * @retval HAL status
  */
HAL_StatusTypeDef HAL_ETH_Transmit(ETH_HandleTypeDef *heth, ETH_TxPacketConfigTypeDef *pTxConfig, uint32_t Timeout)
{
 8002034:	b580      	push	{r7, lr}
 8002036:	b086      	sub	sp, #24
 8002038:	af00      	add	r7, sp, #0
 800203a:	60f8      	str	r0, [r7, #12]
 800203c:	60b9      	str	r1, [r7, #8]
 800203e:	607a      	str	r2, [r7, #4]
  uint32_t tickstart;
  ETH_DMADescTypeDef *dmatxdesc;

  if (pTxConfig == NULL)
 8002040:	68bb      	ldr	r3, [r7, #8]
 8002042:	2b00      	cmp	r3, #0
 8002044:	d109      	bne.n	800205a <HAL_ETH_Transmit+0x26>
  {
    heth->ErrorCode |= HAL_ETH_ERROR_PARAM;
 8002046:	68fb      	ldr	r3, [r7, #12]
 8002048:	f8d3 3088 	ldr.w	r3, [r3, #136]	; 0x88
 800204c:	f043 0201 	orr.w	r2, r3, #1
 8002050:	68fb      	ldr	r3, [r7, #12]
 8002052:	f8c3 2088 	str.w	r2, [r3, #136]	; 0x88
    return HAL_ERROR;
 8002056:	2301      	movs	r3, #1
 8002058:	e07c      	b.n	8002154 <HAL_ETH_Transmit+0x120>
  }

  if (heth->gState == HAL_ETH_STATE_STARTED)
 800205a:	68fb      	ldr	r3, [r7, #12]
 800205c:	f8d3 3084 	ldr.w	r3, [r3, #132]	; 0x84
 8002060:	2b23      	cmp	r3, #35	; 0x23
 8002062:	d176      	bne.n	8002152 <HAL_ETH_Transmit+0x11e>
  {
    /* Config DMA Tx descriptor by Tx Packet info */
    if (ETH_Prepare_Tx_Descriptors(heth, pTxConfig, 0) != HAL_ETH_ERROR_NONE)
 8002064:	2200      	movs	r2, #0
 8002066:	68b9      	ldr	r1, [r7, #8]
 8002068:	68f8      	ldr	r0, [r7, #12]
 800206a:	f000 ff61 	bl	8002f30 <ETH_Prepare_Tx_Descriptors>
 800206e:	4603      	mov	r3, r0
 8002070:	2b00      	cmp	r3, #0
 8002072:	d009      	beq.n	8002088 <HAL_ETH_Transmit+0x54>
    {
      /* Set the ETH error code */
      heth->ErrorCode |= HAL_ETH_ERROR_BUSY;
 8002074:	68fb      	ldr	r3, [r7, #12]
 8002076:	f8d3 3088 	ldr.w	r3, [r3, #136]	; 0x88
 800207a:	f043 0202 	orr.w	r2, r3, #2
 800207e:	68fb      	ldr	r3, [r7, #12]
 8002080:	f8c3 2088 	str.w	r2, [r3, #136]	; 0x88
      return HAL_ERROR;
 8002084:	2301      	movs	r3, #1
 8002086:	e065      	b.n	8002154 <HAL_ETH_Transmit+0x120>
  \details Acts as a special kind of Data Memory Barrier.
           It completes when all explicit memory accesses before this instruction complete.
 */
__STATIC_FORCEINLINE void __DSB(void)
{
  __ASM volatile ("dsb 0xF":::"memory");
 8002088:	f3bf 8f4f 	dsb	sy
}
 800208c:	bf00      	nop
    }

    /* Ensure completion of descriptor preparation before transmission start */
    __DSB();

    dmatxdesc = (ETH_DMADescTypeDef *)(&heth->TxDescList)->TxDesc[heth->TxDescList.CurTxDesc];
 800208e:	68fb      	ldr	r3, [r7, #12]
 8002090:	6a9a      	ldr	r2, [r3, #40]	; 0x28
 8002092:	68fb      	ldr	r3, [r7, #12]
 8002094:	3206      	adds	r2, #6
 8002096:	f853 3022 	ldr.w	r3, [r3, r2, lsl #2]
 800209a:	617b      	str	r3, [r7, #20]

    /* Incr current tx desc index */
    INCR_TX_DESC_INDEX(heth->TxDescList.CurTxDesc, 1U);
 800209c:	68fb      	ldr	r3, [r7, #12]
 800209e:	6a9b      	ldr	r3, [r3, #40]	; 0x28
 80020a0:	1c5a      	adds	r2, r3, #1
 80020a2:	68fb      	ldr	r3, [r7, #12]
 80020a4:	629a      	str	r2, [r3, #40]	; 0x28
 80020a6:	68fb      	ldr	r3, [r7, #12]
 80020a8:	6a9b      	ldr	r3, [r3, #40]	; 0x28
 80020aa:	2b03      	cmp	r3, #3
 80020ac:	d904      	bls.n	80020b8 <HAL_ETH_Transmit+0x84>
 80020ae:	68fb      	ldr	r3, [r7, #12]
 80020b0:	6a9b      	ldr	r3, [r3, #40]	; 0x28
 80020b2:	1f1a      	subs	r2, r3, #4
 80020b4:	68fb      	ldr	r3, [r7, #12]
 80020b6:	629a      	str	r2, [r3, #40]	; 0x28

    /* Start transmission */
    /* issue a poll command to Tx DMA by writing address of next immediate free descriptor */
    WRITE_REG(heth->Instance->DMATPDR, (uint32_t)(heth->TxDescList.TxDesc[heth->TxDescList.CurTxDesc]));
 80020b8:	68fb      	ldr	r3, [r7, #12]
 80020ba:	6a99      	ldr	r1, [r3, #40]	; 0x28
 80020bc:	68fb      	ldr	r3, [r7, #12]
 80020be:	681a      	ldr	r2, [r3, #0]
 80020c0:	68fb      	ldr	r3, [r7, #12]
 80020c2:	3106      	adds	r1, #6
 80020c4:	f853 3021 	ldr.w	r3, [r3, r1, lsl #2]
 80020c8:	f502 5280 	add.w	r2, r2, #4096	; 0x1000
 80020cc:	6053      	str	r3, [r2, #4]

    tickstart = HAL_GetTick();
 80020ce:	f7ff f913 	bl	80012f8 <HAL_GetTick>
 80020d2:	6138      	str	r0, [r7, #16]

    /* Wait for data to be transmitted or timeout occurred */
    while ((dmatxdesc->DESC0 & ETH_DMATXDESC_OWN) != (uint32_t)RESET)
 80020d4:	e037      	b.n	8002146 <HAL_ETH_Transmit+0x112>
    {
      if ((heth->Instance->DMASR & ETH_DMASR_FBES) != (uint32_t)RESET)
 80020d6:	68fb      	ldr	r3, [r7, #12]
 80020d8:	681b      	ldr	r3, [r3, #0]
 80020da:	f503 5380 	add.w	r3, r3, #4096	; 0x1000
 80020de:	695b      	ldr	r3, [r3, #20]
 80020e0:	f403 5300 	and.w	r3, r3, #8192	; 0x2000
 80020e4:	2b00      	cmp	r3, #0
