:020000040800F2
:10000000000008205D0E0008B9090008BF090008BB
:10001000C5090008CB090008D1090008000000004C
:10002000000000000000000000000000D7090008E8
:10003000E509000800000000F3090008010A0008B3
:10004000AD0E0008AD0E0008AD0E0008AD0E0008A4
:10005000AD0E0008AD0E0008AD0E0008AD0E000894
:10006000AD0E0008AD0E0008AD0E0008AD0E000884
:100070000D0A0008AD0E0008AD0E0008AD0E000818
:10008000AD0E0008AD0E0008AD0E0008AD0E000864
:10009000AD0E0008AD0E0008AD0E0008AD0E000854
:1000A000AD0E0008AD0E0008AD0E0008AD0E000844
:1000B000AD0E0008AD0E0008AD0E0008AD0E000834
:1000C000AD0E0008AD0E0008AD0E0008AD0E000824
:1000D000AD0E0008AD0E0008AD0E0008210A0008A4
:1000E000AD0E0008AD0E0008AD0E0008AD0E000804
:1000F000AD0E0008AD0E0008AD0E0008AD0E0008F4
:10010000AD0E0008AD0E0008AD0E0008AD0E0008E3
:10011000AD0E0008AD0E0008AD0E0008AD0E0008D3
:10012000AD0E0008AD0E0008AD0E0008AD0E0008C3
:10013000AD0E0008AD0E0008AD0E0008AD0E0008B3
:10014000AD0E0008AD0E0008AD0E0008350A00081F
:10015000AD0E0008AD0E0008AD0E0008AD0E000893
:10016000AD0E0008AD0E0008AD0E0008AD0E000883
:10017000AD0E0008AD0E0008AD0E00080000000036
:10018000AD0E0008AD0E0008AD0E0008AD0E000863
:10019000AD0E0008AD0E0008AD0E0008AD0E000853
:1001A000AD0E0008AD0E0008AD0E0008AD0E000843
:1001B000AD0E0008AD0E0008AD0E0008AD0E000833
:1001C000AD0E0008AD0E000800000000AD0E0008E6
:1001D000AD0E0008AD0E0008AD0E0008AD0E000813
:1001E000AD0E0008AD0E0008AD0E0008AD0E000803
:0801F000AD0E0008AD0E000881
:1001F80010B5054C237833B9044B13B10448AFF359
:1002080000800123237010BD84010020000000003D
:100218008CAD000808B5034B1BB103490348AFF385
:10022800008008BD00000000880100208CAD000897
:1002380053B94AB9002908BF00281CBF4FF0FF3145
:100248004FF0FF3000F074B9ADF1080C6DE904CE41
:1002580000F006F8DDF804E0DDE9022304B0704799
:100268002DE9F047089D04468E46002B4DD18A4261
:10027800944669D9B2FA82F252B101FA02F3C2F194
:10028800200120FA01F10CFA02FC41EA030E944025
:100298004FEA1C48210CBEFBF8F61FFA8CF708FB46
:1002A80016E341EA034306FB07F199420AD91CEB1E
:1002B800030306F1FF3080F01F81994240F21C8150
:1002C800023E63445B1AA4B2B3FBF8F008FB103398
:1002D80044EA034400FB07F7A7420AD91CEB0404CD
:1002E80000F1FF3380F00A81A74240F2078164449D
:1002F800023840EA0640E41B00261DB1D440002322
:10030800C5E900433146BDE8F0878B4209D9002D85
:1003180000F0EF800026C5E9000130463146BDE80F
:10032800F087B3FA83F6002E4AD18B4202D3824279
:1003380000F2F980841A61EB030301209E46002D28
:10034800E0D0C5E9004EDDE702B9FFDEB2FA82F27D
:10035800002A40F09280A1EB0C014FEA1C471FFADB
:100368008CFE0126200CB1FBF7F307FB131140EAC2
:1003780001410EFB03F0884208D91CEB010103F18F
:10038800FF3802D2884200F2CB804346091AA4B251
:10039800B1FBF7F007FB101144EA01440EFB00FE25
:1003A800A64508D91CEB040400F1FF3102D2A6458A
:1003B80000F2BB800846A4EB0E0440EA03409CE729
:1003C800C6F12007B34022FA07FC4CEA030C20FAD6
:1003D80007F401FA06F31C43F9404FEA1C4900FAF6
:1003E80006F3B1FBF9F8200C1FFA8CFE09FB181173
:1003F80040EA014108FB0EF0884202FA06F20BD9E6
:100408001CEB010108F1FF3A80F08880884240F235
:100418008580A8F102086144091AA4B2B1FBF9F079
:1004280009FB101144EA014100FB0EFE8E4508D974
:100438001CEB010100F1FF346CD28E456AD90238F9
:10044800614440EA0840A0FB0294A1EB0E01A142DE
:10045800C846A64656D353D05DB1B3EB080261EB4C
:100468000E0101FA07F722FA06F3F1401F43C5E926
:10047800007100263146BDE8F087C2F12003D8405C
:100488000CFA02FC21FA03F3914001434FEA1C479E
:100498001FFA8CFEB3FBF7F007FB10360B0C43EA90
:1004A800064300FB0EF69E4204FA02F408D91CEB40
:1004B800030300F1FF382FD29E422DD9023863443E
:1004C8009B1B89B2B3FBF7F607FB163341EA0341DE
:1004D80006FB0EF38B4208D91CEB010106F1FF382D
:1004E80016D28B4214D9023E6144C91A46EA004624
:1004F80038E72E46284605E70646E3E61846F8E6B6
:100508004B45A9D2B9EB020864EB0C0E0138A3E7FE
:100518004646EAE7204694E74046D1E7D0467BE7DF
:10052800023B614432E7304609E76444023842E757
:10053800704700BF80B582B000AF0C4B1B6B0B4AF5
:1005480043F400131363094B1B6B03F400137B6024
:100558007B68002200210C2000F001FE0C2000F036
:100568001AFE00BF0837BD4680BD00BF00380240F4
:1005780080B58EB000AF07F1240300221A605A60DC
:100588009A60DA601A616F4B1B6B6E4A43F0100376
:1005980013636C4B1B6B03F010033B623B6A694BA4
:1005A8001B6B684A43F004031363664B1B6B03F031
:1005B8000403FB61FB69634B1B6B624A43F0200336
:1005C8001363604B1B6B03F02003BB61BB695D4B7E
:1005D8001B6B5C4A43F0800313635A4B1B6B03F09D
:1005E80080037B617B69574B1B6B564A43F00103C1
:1005F8001363544B1B6B03F001033B613B69514B85
:100608001B6B504A43F0020313634E4B1B6B03F002
:100618000203FB60FB684B4B1B6B4A4A43F04003E9
:100628001363484B1B6B03F04003BB60BB68454B2F
:100638001B6B444A43F008031363424B1B6B03F0E4
:1006480008037B607B68002280213F4801F074FB2F
:100658004FF6FF737B620323BB620023FB6207F143
:1006680024031946394801F0BBF94FF6FF737B6242
:100678000323BB620023FB6207F1240319463448B5
:1006880001F0AEF94FF6FF737B620323BB620023D0
:10069800FB6207F1240319462E4801F0A1F9032350
:1006A8007B620323BB620023FB6207F12403194624
:1006B800294801F095F948F2FF737B620323BB6276
:1006C8000023FB6207F124031946244801F088F946
:1006D8004FF67F737B620323BB620023FB6207F143
:1006E80024031946184801F07BF94FF6FF737B6223
:1006F8000323BB620023FB6207F124031946184851
:1007080001F06EF94FF6FF437B620323BB620023BF
:10071800FB6207F124031946124801F061F98023AE
:100728007B620123BB620023FB6200233B6307F16A
:1007380024031946044801F053F900BF3837BD4671
:1007480080BD00BF00380240000402400010024093
:100758000008024000140240001C02400000024051
:1007680000180240000C024080B5A0B000AF00F0B5
:100778009AFB00F085F8FFF7FBFEFFF7DBFE00F0C1
:100788003FFA00F0A5F908F0D1FE00F00DFA00F0EC
:1007980003FB002387F87F300023BB6729E0BB6F8A
:1007A80007EE903AB8EEE77B37EE077B9FED2A6BB2
:1007B80027EE066B9FED2A5B86EE057B87ED1C7B9B
:1007C80097ED1C0B09F0E8FCB0EE407B9FED266B23
:1007D80027EE067BFDEEC77BC7ED017A3B7959B260
:1007E80007F10C02BB6F13440A461A70BB6F013342
:1007F800BB67BB6F632BD2DD1D491E4800F0DEF9D5
:100808000346002B03D180211B4801F0AEFA47F2C2
:1008180030511A4800F0D2F90346002BECD100F011
:100828000DFB0346002BE7D197F87F3007F10C0248
:1008380013440121184600F0BDFA97F87F300133C0
:1008480087F87F3097F87F30632BD5D9002387F856
:100858007F30D1E7AFF30080182D4454FB210940C5
:1008680000000000000059400000000000C05F4088
:10087800A0860100A001002000040240A40100207D
:1008880080B594B000AF07F11C033422002118464C
:1008980009F07AFB07F1080300221A605A609A608F
:1008A800DA601A612B4B1B6C2A4A43F0805313649D
:1008B800284B1B6C03F080537B607B68264B1B68BE
:1008C800254A43F440431360234B1B6803F4404319
:1008D8003B603B680223FB610123BB621023FB6280
:1008E80002237B630023BB630823FB63D8233B6499
:1008F80002237B640923BB640223FB6407F11C0306
:10090800184602F00DFD0346002B01D000F026F832
:1009180002F0B6FC0346002B01D000F01FF80F23AD
:10092800BB600223FB6000233B614FF4A0537B6153
:100938004FF48053BB6107F108030721184602F002
:100948009DFF0346002B01D000F008F800BF503788
:10095800BD4680BD003802400070004080B400AF42
:1009680072B600BFFEE7000080B483B000AF0F4B43
:100978001B6C0E4A43F0805313640C4B1B6C03F042
:1009880080537B607B68094B5B6C084A43F4804367
:100998005364064B5B6C03F480433B603B6800BFC9
:1009A8000C37BD465DF8047B704700BF0038024035
:1009B80080B400AFFEE780B400AFFEE780B400AFBC
:1009C800FEE780B400AFFEE780B400AFFEE780B476
:1009D80000AF00BFBD465DF8047B704780B400AF30
:1009E80000BFBD465DF8047B704780B400AF00BF10
:1009F800BD465DF8047B704780B500AF00F090FA03
:100A080000BF80BD80B500AF024800F07FFD00BF89
:100A180080BD00BF8402002080B500AF024804F00A
:100A2800BDF900BF80BD00BFFC01002080B500AF4C
:100A3800024801F0ECFA00BF80BD00BF08080020A2
:100A480080B586B000AF7860144A154BD31A7B6125
:100A58007B693B61134B1B68002B02D1114B124A77
:100A68001A60104B1A687B6813443A699A4207D295
:100A780009F050FA03460C221A604FF0FF3309E0E0
:100A8800084B1B68FB60074B1A687B681344054AD0
:100A98001360FB6818461837BD4680BD0000082063
:100AA80000040000A8010020F80C002080B400AF6A
:100AB800064BD3F88830054A43F47003C2F88830EF
:100AC80000BFBD465DF8047B704700BF00ED00E045
:100AD80080B588B000AF07F1100300221A605A6091
:100AE8009A60DA603B1D00221A605A609A601E4BB9
:100AF8004FF080421A601C4B6B225A601A4B00223E
:100B08009A60194B4FF0FF32DA60174B00221A61D6
:100B1800154B80229A61144803F0BEFC0346002B53
:100B280001D0FFF71BFF4FF480533B6107F110031F
:100B380019460D4803F078FD0346002B01D0FFF756
:100B48000DFF00237B600023FB603B1D1946064810
:100B580003F07AFF0346002B01D0FFF7FFFE00BF2A
:100B68002037BD4680BD00BFAC01002080B485B0F1
:100B780000AF78607B681B68B3F1804F0BD1094BDD
:100B88001B6C084A43F001031364064B1B6C03F00B
:100B98000103FB60FB6800BF1437BD465DF8047BAA
:100BA800704700BF0038024080B500AF024803F02C
:100BB800CBFC00BF80BD00BFAC01002080B485B075
:100BC80000AF786039600D4B1B685B6AFB607B681F
:100BD8001B68FA68D31ABB60BA683B689A4204D3A8
:100BE8007B68FA681A60002301E04FF0FF3318466B
:100BF8001437BD465DF8047B704700BFAC01002088
:100C080080B500AF144B154A1A60134B4FF4E1320C
:100C18005A60114B00229A600F4B0022DA600E4B8B
:100C280000221A610C4B0C225A610B4B00229A616C
:100C3800094B0022DA61084B00221A62064B002297
:100C48005A62054803F08EFF0346002B01D0FFF7D8
:100C580085FE00BF80BD00BFFC01002000480040A9
:100C680080B5AEB000AF786007F1A40300221A6027
:100C78005A609A60DA601A6107F114039022002121
:100C8800184609F081F97B681B683E4A934274D183
:100C98004FF480737B6100233B6607F11403184609
:100CA80002F0D2FF0346002B01D0FFF757FE364B68
:100CB8001B6C354A43F480231364334B1B6C03F4D9
:100CC80080233B613B69304B1B6B2F4A43F0080381
:100CD80013632D4B1B6B03F00803FB60FB684FF499
:100CE8004073C7F8A4300223C7F8A8300023C7F818
:100CF800AC300323C7F8B0300723C7F8B43007F186
:100D0800A4031946214800F06BFE214B214A1A60C2
:100D18001F4B4FF000625A601D4B00229A601C4B1B
:100D28000022DA601A4B4FF480621A61184B0022D5
:100D38005A61174B00229A61154B4FF48072DA61A1
:100D4800134B4FF440321A62114B00225A6210487A
:100D580000F03CFA0346002B01D0FFF7FFFD7B684B
:100D68000B4A5A670A4A7B689363002200212720AE
:100D780000F0F5F9272000F00EFA00BFB837BD469D
:100D880080BD00BF0048004000380240000C02400F
:100D9800840200202860024080B500AF0122034988
:100DA800034803F0B6FF00BF80BD00BFF801002074
:100DB800FC01002080B582B000AF78600B467B80D4
:100DC8007A884FF6FF737968034803F019FF00BF6C
:100DD8000837BD4680BD00BFFC01002080B483B049
:100DE80000AF78607B68074A934204D1064B1B78B2
:100DF8005AB2064B1A7000BF0C37BD465DF8047B2B
:100E0800704700BFFC010020F8010020040000200A
:100E180080B582B000AF78607B68064A934204D1FF
:100E280001220549034803F074FF00BF0837BD4697
:100E380080BD00BFFC010020F801002080B400AF95
:100E4800034B93F900301846BD465DF8047B7047A4
:100E580004000020DFF834D0FFF728FE0C480D49C5
:100E68000D4A002302E0D458C4500433C4188C42FD
:100E7800F9D30A4A0A4C002301E013600432A24263
:100E8800FBD309F04DF8FFF76FFC7047000008200E
:100E9800000000208401002000B000088401002028
:100EA800F80C0020FEE780B500AF032000F04CF9F5
:100EB8000F2000F005F8FFF757FD0023184680BD06
:100EC80080B582B000AF7860124B1A68124B1B785D
:100ED80019464FF47A73B3FBF1F3B2FBF3F31846F8
:100EE80000F067F90346002B01D001230EE07B6870
:100EF8000F2B0AD8002279684FF0FF3000F02FF945
:100F0800064A7B681360002300E00123184608376F
:100F1800BD4680BD000000200C0000200800002015
:100F280080B400AF064B1B781A46064B1B68134467
:100F3800044A136000BFBD465DF8047B704700BFDC
:100F48000C000020E402002080B400AF034B1B68B3
:100F58001846BD465DF8047B704700BFE4020020D8
:100F680080B584B000AF7860FFF7EEFFB8607B68AB
:100F7800FB60FB68B3F1FF3F05D00A4B1B781A46AC
:100F8800FB681344FB6000BFFFF7DEFF0246BB6847
:100F9800D31AFA689A42F7D800BF00BF1037BD4687
:100FA80080BD00BF0C00002080B485B000AF786021
:100FB8007B6803F00703FB600B4BDB68BB60BA6818
:100FC8004FF6FF031340BB60FB681A02BB681A4365
:100FD800064B1343BB60044ABB68D36000BF143799
:100FE800BD465DF8047B704700ED00E00000FA059F
:100FF80080B400AF044BDB681B0A03F007031846F4
:10100800BD465DF8047B704700ED00E080B483B016
:1010180000AF0346FB7197F90730002B0BDBFB7918
:1010280003F01F02074997F907305B09012000FA0E
:1010380002F241F8232000BF0C37BD465DF8047B5F
:10104800704700BF00E100E080B483B000AF034602
:101058003960FB7197F90730002B0ADB3B68DAB27D
:101068000C4997F907301201D2B20B4483F80023D8
:101078000AE03B68DAB20849FB7903F00F03043B46
:101088001201D2B20B441A7600BF0C37BD465DF888
:10109800047B704700E100E000ED00E080B489B017
:1010A80000AFF860B9607A60FB6803F00703FB6182
:1010B800FB69C3F10703042B28BF0423BB61FB6949
:1010C8000433062B02D9FB69033B00E000237B6154
:1010D8004FF0FF32BB6902FA03F3DA43BB681A40E8
:1010E8007B699A404FF0FF317B6901FA03F3D943DA
:1010F8007B680B40134318462437BD465DF8047BD4
:101108007047000080B582B000AF78607B68013B13
:10111800B3F1807F01D301230FE00A4A7B68013BCA
:1011280053600F214FF0FF30FFF78EFF054B002271
:101138009A60044B07221A60002318460837BD46F8
:1011480080BD00BF10E000E080B582B000AF7860DD
:101158007868FFF729FF00BF0837BD4680BD80B516
:1011680086B000AF0346B9607A60FB7300237B61E9
:10117800FFF73EFF78617A68B9687869FFF78EFFF4
:10118800024697F90F3011461846FFF75DFF00BF7A
:101198001837BD4680BD80B582B000AF0346FB71ED
:1011A80097F907301846FFF731FF00BF0837BD46EB
:1011B80080BD80B582B000AF78607868FFF7A2FF85
:1011C800034618460837BD4680BD000080B586B086
:1011D80000AF786000237B61FFF7B6FE38617B685B
:1011E800002B01D1012399E07B68022283F8352086
:1011F8007B68002283F834207B681B681A687B6848
:101208001B6822F001021A600FE0FFF79DFE0246FC
:101218003B69D31A052B08D97B6820225A657B685D
:10122800032283F83520032378E07B681B681B685A
:1012380003F00103002BE8D17B681B681B687B6106
:101248007A69384B13407B617B685A687B689B6876
:101258001A437B68DB681A437B681B691A437B68FF
:101268005B691A437B689B691A437B68DB691A438D
:101278007B681B6A13437A6913437B617B685B6AEB
:10128800042B07D17B68DA6A7B681B6B13437A6986
:1012980013437B617B681B687A691A607B681B68EB
:1012A8005B697B617B6923F007037B617B685B6A11
:1012B8007A6913437B617B685B6A042B17D17B686F
:1012C8009B6A7A6913437B617B68DB6A002B0ED0CB
:1012D800786800F009FB0346002B08D07B684022A1
:1012E8005A657B68002283F83520012316E07B6865
:1012F8001B687A695A61786800F0C0FA0346FB6097
:101308007B68DB6D3F229A40FB689A607B6800220D
:101318005A657B68012283F8352000231846183760
:10132800BD4680BD3F8010E080B586B000AFF86054
:10133800B9607A603B600023FB75FB689B6D3B617D
:10134800FB6893F83430012B01D1022348E0FB6895
:10135800012283F83420FB6893F83530DBB2012B87
:1013680037D1FB68022283F83520FB6800225A65D2
:101378003B687A68B968F86800F052FAFB68DB6D78
:101388003F229A403B699A60FB681B681A68FB68B1
:101398001B6842F016021A60FB681B685A69FB68F2
:1013A8001B6842F080025A61FB681B6C002B07D057
:1013B800FB681B681A68FB681B6842F008021A6021
:1013C800FB681B681A68FB681B6842F001021A6018
:1013D80005E0FB68002283F834200223FB75FB7DBF
:1013E80018461837BD4680BD80B584B000AF786018
:1013F8007B689B6DFB60FFF7A7FDB8607B6893F87F
:101408003530DBB2022B08D07B6880225A657B68B6
:10141800002283F83420012352E07B681B681A6895
:101428007B681B6822F016021A607B681B685A6981
:101438007B681B6822F080025A617B681B6C002B5A
:1014480003D17B689B6C002B07D07B681B681A68EC
:101458007B681B6822F008021A607B681B681A68A0
:101468007B681B6822F001021A6013E0FFF76CFD2D
:101478000246BB68D31A052B0CD97B6820225A6513
:101488007B68032283F835207B68002283F83420A8
:10149800032315E07B681B681B6803F00103002B1E
:1014A800E4D17B68DB6D3F229A40FB689A607B68D9
:1014B800012283F835207B68002283F8342000233A
:1014C80018461037BD4680BD80B483B000AF786041
:1014D8007B6893F83530DBB2022B04D07B6880221E
:1014E8005A6501230CE07B68052283F835207B6868
:1014F8001B681A687B681B6822F001021A600023C7
:1015080018460C37BD465DF8047B704780B586B039
:1015180000AF78600023BB608E4B1B688E4AA2FB2D
:1015280003239B0A7B617B689B6D3B613B691B685E
:10153800FB607B68DB6D08229A40FB681340002B38
:101548001AD07B681B681B6803F00403002B13D0B8
:101558007B681B681A687B681B6822F004021A60A3
:101568007B68DB6D08229A403B699A607B685B6DFB
:1015780043F001027B685A657B68DB6D01229A4063
:10158800FB681340002B12D07B681B685B6903F073
:101598008003002B0BD07B68DB6D01229A403B69EE
:1015A8009A607B685B6D43F002027B685A657B68D2
:1015B800DB6D04229A40FB681340002B12D07B6835
:1015C8001B681B6803F00203002B0BD07B68DB6DE4
:1015D80004229A403B699A607B685B6D43F0040281
:1015E8007B685A657B68DB6D10229A40FB68134064
:1015F800002B43D07B681B681B6803F00803002B93
:101608003CD07B68DB6D10229A403B699A607B680E
:101618001B681B6803F48023002B18D07B681B68A9
:101628001B6803F40023002B08D17B681B6C002B7C
:1016380024D07B681B6C786898471FE07B689B6C9C
:10164800002B1BD07B689B6C7868984716E07B68FA
:101658001B681B6803F48073002B07D17B681B6829
:101668001A687B681B6822F008021A607B681B6C8A
:10167800002B03D07B681B6C786898477B68DB6D10
:1016880020229A40FB681340002B00F08F807B6873
:101698001B681B6803F01003002B00F087807B6831
:1016A800DB6D20229A403B699A607B6893F835305D
:1016B800DBB2052B36D17B681B681A687B681B6810
:1016C80022F016021A607B681B685A697B681B68DF
:1016D80022F080025A617B681B6C002B03D17B6867
:1016E8009B6C002B07D07B681B681A687B681B689B
:1016F80022F008021A607B68DB6D3F229A403B6942
:101708009A607B68012283F835207B68002283F881
:1017180034207B681B6D002B7ED07B681B6D78683E
:10172800984779E07B681B681B6803F48023002BCB
:101738001DD07B681B681B6803F40023002B0DD1A8
:101748007B685B6C002B31D07B685B6C7868984752
:101758002CE000BF00000020B5814E1B7B68DB6BCE
:10176800002B23D07B68DB6B786898471EE07B688A
:101778001B681B6803F48073002B0FD17B681B6800
:101788001A687B681B6822F010021A607B680122C5
:1017980083F835207B68002283F834207B68DB6B74
:1017A800002B03D07B68DB6B786898477B685B6DA0
:1017B800002B32D07B685B6D03F00103002B22D035
:1017C8007B68052283F835207B681B681A687B686C
:1017D8001B6822F001021A60BB680133BB607A699A
:1017E8009A4207D37B681B681B6803F00103002B30
:1017F800F2D100E000BF7B68012283F835207B68C6
:10180800002283F834207B68DB6C002B05D07B68D2
:10181800DB6C7868984700E000BF1837BD4680BD8C
:1018280080B485B000AFF860B9607A603B60FB684F
:101838001B681A68FB681B6822F480221A60FB6820
:101848001B683A685A60FB689B68402B08D1FB68A4
:101858001B687A689A60FB681B68BA68DA6007E0F8
:10186800FB681B68BA689A60FB681B687A68DA606C
:1018780000BF1437BD465DF8047B704780B485B05F
:1018880000AF78607B681B68DBB2103B134AA2FB91
:1018980003231B09FB60124AFB6813441B781A4692
:1018A8007B68DA65FB68032B08D97B681B681A46D6
:1018B8000C4B13401A1D7B689A6506E07B681B6811
:1018C8001A46084B13407A6893657B689B6D1846E7
:1018D8001437BD465DF8047B704700BFABAAAAAABF
:1018E80010AE000800FCFFFF80B485B000AF786040
:1018F8000023FB737B689B6ABB607B689B69002B3A
:101908001FD1BB68032B56D801A252F823F000BFA1
:10191800291900083B19000829190008BF190008EF
:101928007B68DB6A03F08073002B46D00123FB73CE
:1019380043E07B68DB6AB3F1C07F40D10123FB73CE
:101948003DE07B689B69B3F5005F21D1BB68032B41
:1019580037D801A252F823F0711900087719000846
:1019680071190008891900080123FB7330E07B68AE
:10197800DB6A03F08073002B25D00123FB7322E080
:101988007B68DB6AB3F1C07F1FD10123FB731CE0C6
:10199800BB68022B03D9BB68032B03D018E00123D3
:1019A800FB7315E07B68DB6A03F08073002B0ED0B5
:1019B8000123FB730BE000BF0AE000BF08E000BF93
:1019C80006E000BF04E000BF02E000BF00E000BF87
:1019D800FB7B18461437BD465DF8047B704700BF93
:1019E80080B489B000AF786039600023FB610023C0
:1019F8007B6100233B610023BB610023FB6175E130
:101A08000122FB6902FA03F37B613B681B687A6970
:101A180013403B613A697B699A4240F064813B68B4
:101A28005B6803F00303012B05D03B685B6803F098
:101A38000303022B30D17B689B68BB61FB695B00A9
:101A4800032202FA03F3DB43BA691340BB613B6824
:101A5800DA68FB695B0002FA03F3BA691343BB61F6
:101A68007B68BA699A607B685B68BB610122FB6925
:101A780002FA03F3DB43BA691340BB613B685B6856
:101A88001B0903F00102FB6902FA03F3BA69134365
:101A9800BB617B68BA695A603B685B6803F0030303
:101AA800032B17D07B68DB68BB61FB695B000322F3
:101AB80002FA03F3DB43BA691340BB613B689A68D7
:101AC800FB695B0002FA03F3BA691343BB617B68E5
:101AD800BA69DA603B685B6803F00303022B23D121
:101AE800FB69DA087B68083253F82230BB61FB696E
:101AF80003F007039B000F2202FA03F3DB43BA69E2
:101B08001340BB613B681A69FB6903F007039B003C
:101B180002FA03F3BA691343BB61FB69DA087B680D
:101B28000832B96943F822107B681B68BB61FB69FE
:101B38005B00032202FA03F3DB43BA691340BB617B
:101B48003B685B6803F00302FB695B0002FA03F37E
:101B5800BA691343BB617B68BA691A603B685B6802
:101B680003F44033002B00F0BE80664B5B6C654A83
:101B780043F480435364634B5B6C03F48043FB6022
:101B8800FB68614AFB699B08023352F82330BB614A
:101B9800FB6903F003039B000F2202FA03F3DB4304
:101BA800BA691340BB617B68584A934237D07B6857
:101BB800574A934231D07B68564A93422BD07B6870
:101BC800554A934225D07B68544A93421FD07B687C
:101BD800534A934219D07B68524A934213D07B6888
:101BE800514A93420DD07B68504A934207D07B6894
:101BF8004F4A934201D1092312E00A2310E0082337
:101C08000EE007230CE006230AE0052308E004237E
:101C180006E0032304E0022302E0012300E000239E
:101C2800FA6902F0030292009340BA691343BB6158
:101C38003549FB699B080233BA6941F823203D4BBB
:101C48009B68BB613B69DB43BA691340BB613B6876
:101C58005B6803F48013002B03D0BA693B69134314
:101C6800BB61344ABB699360324BDB68BB613B693B
:101C7800DB43BA691340BB613B685B6803F400133C
:101C8800002B03D0BA693B691343BB61294ABB697E
:101C9800D360284B5B68BB613B69DB43BA6913407F
:101CA800BB613B685B6803F40033002B03D0BA695F
:101CB8003B691343BB611F4ABB6953601D4B1B68DB
:101CC800BB613B69DB43BA691340BB613B685B6836
:101CD80003F48033002B03D0BA693B691343BB611B
:101CE800144ABB691360FB690133FB61FB690F2B65
:101CF8007FF686AE00BF00BF2437BD465DF8047B83
:101D0800704700BF00380240003801400000024020
:101D18000004024000080240000C0240001002408B
:101D28000014024000180240001C0240002002403B
:101D380000240240003C014080B483B000AF7860CA
:101D48000B467B8013467B707B78002B03D07A8808
:101D58007B689A6103E07B881A047B689A6100BFFC
:101D68000C37BD465DF8047B704780B485B000AF82
:101D780078600B467B807B685B69FB607A88FB68D0
:101D880013401A04FB68D9437B880B401A437B68CD
:101D98009A6100BF1437BD465DF8047B704780B573
:101DA80086B002AF78607B68002B01D1012308E17F
:101DB8007B681B68BB607B6893F89534DBB2002BAB
:101DC80006D17B68002283F89424786807F046FDE2
:101DD8007B68032283F89524BB68B3F1A04F02D136
:101DE8007B6800229A717B681B68184604F06DFABC
:101DF8007B6818687B681A7C8DF8002004330ECB4A
:101E080004F056F90346002B05D07B68022283F8BC
:101E180095240123D5E07B681B680021184604F04F
:101E280065FA0346002B05D07B68022283F89524C7
:101E38000123C6E00023FB734AE0FA7B7968134666
:101E4800DB0013449B000B44153301221A70FA7B04
:101E580079681346DB0013449B000B441433FA7B68
:101E68001A70FA7BFB7B98B279681346DB0013443F
:101E78009B000B442E3302461A80FA7B796813467E
:101E8800DB0013449B000B44183300221A70FA7BC2
:101E980079681346DB0013449B000B441C33002273
:101EA8001A60FA7B79681346DB0013449B000B44E5
:101EB800203300221A60FA7B79681346DB0013444A
:101EC8009B000B44243300221A60FB7B0133FB7315
:101ED8007B681B79FA7B9A42AFD30023FB7344E0FB
:101EE800FA7B79681346DB0013449B000B4403F22A
:101EF800552300221A70FA7B79681346DB001344D5
:101F08009B000B4403F51573FA7B1A70FA7B79680A
:101F18001346DB0013449B000B4403F516730022A1
:101F28001A70FA7B79681346DB0013449B000B4454
:101F380003F5177300221A60FA7B79681346DB00F1
:101F480013449B000B4403F5187300221A60FA7BB4
:101F580079681346DB0013449B000B4403F519739F
:101F680000221A60FB7B0133FB737B681B79FA7BC9
:101F78009A42B5D37B6818687B681A7C8DF8002074
:101F880004330ECB04F0FEF90346002B05D07B6822
:101F9800022283F89524012313E07B6800225A74F7
:101FA8007B68012283F895247B681B7B012B02D177
:101FB800786801F041F97B681B68184605F03DFA1E
:101FC800002318461037BD4680BD80B582B000AFEB
:101FD80078607B6893F89434012B01D1022312E0D6
:101FE8007B68012283F894247B681B68184604F0F8
:101FF8005BF97B681B68184605F0FEF97B680022D0
:1020080083F89424002318460837BD4680BD90B550
:102018008DB000AF78607B681B683B623B6AFB61F0
:102028007B681B68184605F0BCFA0346002B40F095
:10203800B9847B681B68184605F020FA0346002B14
:1020480000F0AF84FB6903F500639B681B0AC3F3C8
:102058000D027B68C3F8D4247B681B68184605F01A
:102068000DFA034603F00203022B07D17B681B68B5
:102078005A697B681B6802F002025A617B681B6818
:10208800184605F0FBF9034603F01003102B61D145
:102098007B681B689A697B681B6822F010029A614A
:1020A8003B6A1B6ABB61BB6903F00F021346DB0086
:1020B80013449B0003F514737A68134404337B615B
:1020C800BB695B0C03F00F03022B24D1BA6947F6F6
:1020D800F0731340002B35D07B69D968BB691B09A5
:1020E8009BB2C3F30A039BB21A46386A05F032F86A
:1020F8007B69DA68BB691B09C3F30A031A447B6965
:10210800DA607B695A69BB691B09C3F30A031A447D
:102118007B695A6116E0BB695B0C03F00F03062B61
:1021280010D17B6803F29C4308221946386A05F0EF
:1021380011F87B695A69BB691B09C3F30A031A447E
:102148007B695A617B681B689A697B681B6842F0E7
:1021580010029A617B681B68184605F08FF90346E0
:1021680003F40023B3F5002F40F0A78000237B621F
:102178007B681B68184605F094F9B86299E0BB6A59
:1021880003F00103002B00F08E807B681B687A6ADD
:10219800D2B21146184605F0B8F938613B6903F028
:1021A8000103002B0CD07B6A5A01FB69134403F529
:1021B80030631A4601239360796A786800F0B6FEA6
:1021C8003B6903F00803002B0CD07B6A5A01FB69BA
:1021D800134403F530631A4608239360796A7868D4
:1021E80000F08CFF3B6903F01003002B08D07B6ADA
:1021F8005A01FB69134403F530631A4610239360B0
:102208003B6903F00203002B30D03B6A5B6903F0A3
:102218008003802B09D1FB6903F500635B68FA69C9
:1022280002F5006243F4806353607A6A1346DB0068
:1022380013449B0003F514737A68134404337B61D9
:102248007B69DB78012B08D17B690022DA707B6A15
:10225800DBB21946786807F025FC7B6A5A01FB69EE
:10226800134403F530631A46022393603B6903F075
:102278002003002B08D07B6A5A01FB69134403F53D
:1022880030631A46202393603B6903F40053002B04
:1022980009D07B6A5A01FB69134403F530631A4677
:1022A8004FF4005393607B6A01337B62BB6A5B081F
:1022B800BB62BB6A002B7FF462AF7B681B68184661
:1022C80005F0DCF8034603F48023B3F5802F40F0D3
:1022D800DB807B681B68184605F0FDF8B8620023B0
:1022E8007B62CDE0BB6A03F00103002B00F0C280E3
:1022F8007B681B687A6AD2B21146184605F023F942
:1023080038613B6903F00103002B57D07B6A03F067
:102318000F03012202FA03F3FB60FB6903F5006374
:102328005A6BFB68DB43F96901F5006113404B63A5
:102338007B6A5A01FB69134403F510631A460123AB
:1023480093607B689B79012B32D179687A6A13464E
:10235800DB0013449B000B442033196878687A6AC1
:102368001346DB0013449B0003441C331B681944C9
:1023780078687A6A1346DB0013449B0003442033D1
:1023880019607B6A002B13D179687A6A1346DB00DF
:1023980013449B000B4424331B68002B08D17B6833
:1023A80018687B6803F29C431A46012105F02CF952
:1023B8007B6ADBB21946786807F0EFFA3B6903F0ED
:1023C8000803002B08D07B6A5A01FB69134403F504
:1023D80010631A46082393603B6903F01003002B2F
:1023E80008D07B6A5A01FB69134403F510631A4647
:1023F800102393603B6903F04003002B08D07B6AED
:102408005A01FB69134403F510631A46402393608D
:102418003B6903F00203002B23D0796A386A04F081
:102428000FF97A6A1346DB0013449B0010337A686D
:10243800134404337B617B69DB78012B08D17B690A
:102448000022DA707B6ADBB21946786807F03CFB39
:102458007B6A5A01FB69134403F510631A46022389
:1024680093603B6903F08003002B03D0796A786896
:1024780000F0D0FC7B6A01337B62BB6A5B08BB62FD
:10248800BB6A002B7FF42EAF7B681B68184604F0EC
:10249800F5FF034603F00043B3F1004F22D1FB6977
:1024A80003F500635B68FA6902F5006223F0010333
:1024B80053607B6893F8CC34012B08D17B680022E9
:1024C80083F8CC240021786807F0A4FC02E078683F
:1024D80007F0DAFA7B681B685A697B681B6802F0A8
:1024E80000425A617B681B68184604F0C7FF034620
:1024F80003F40063B3F5006F12D1FB6903F50063C1
:102508009B6803F00103012B02D1786807F096FA63
:102518007B681B685A697B681B6802F400625A6111
:102528007B681B68184604F0A9FF034603F00063A4
:10253800B3F1006F21D17B681B685A697B681B68FF
:1025480002F000625A617B6893F8CC34002B11D1F9
:102558007B68012283F8CC247B681B685B6D9B0831
:1025680003F00F027B68C3F8D0240121786807F0D4
:1025780051FC02E0786807F061FA7B681B6818462E
:1025880004F07CFF034603F48053B3F5805F40F00A
:10259800B780FB6903F500635B68FA6902F50062BE
:1025A80023F0010353607B681B681021184604F070
:1025B80047F80023FB6246E0FB6A5A01FB691344B3
:1025C80003F510631A464FF67F339360FB6A5A018E
:1025D800FB69134403F510631B68FA6A5101FA6931
:1025E8000A4402F5106223F400131360FB6A5A01CF
:1025F800FB69134403F530631A464FF67F33936043
:10260800FB6A5A01FB69134403F530631B68FA6AD5
:102618005101FA690A4402F5306223F40013136089
:10262800FB6A5A01FB69134403F530631B68FA6AB5
:102638005101FA690A4402F5306243F000631360FD
:10264800FB6A0133FB627B681B791A46FB6A93427B
:10265800B2D3FB6903F50063DB69FA6902F500622E
:1026680043F00113D3617B68DB7B002B16D0FB6939
:1026780003F50063D3F88430FA6902F5006243F089
:102688000B03C2F88430FB6903F500635B6CFA69DD
:1026980002F5006243F00B03536415E0FB6903F590
:1026A80000635A69FB6903F50063194642F22B037C
:1026B80013434B61FB6903F500631B69FA6902F573
:1026C800006243F00B031361FB6903F500631B68A9
:1026D800FA6902F5006223F4FE6313607B681868E8
:1026E8007B6899797B6803F29C431A4604F08CFF57
:1026F8007B681B685A697B681B6802F480525A61C0
:102708007B681B68184604F0B9FE034603F40053BF
:10271800B3F5005F23D17B681B68184604F050FFAF
:102728007B681B68184604F004F803461A467B6861
:10273800DA717B681C6801F053FA01467B68DB7923
:102748001A46204603F00EFD786807F04EF97B68BC
:102758001B685A697B681B6802F400525A617B68DF
:102768001B68184604F08AFE034603F00803082B8A
:102778000AD1786807F02BF97B681B685A697B686F
:102788001B6802F008025A617B681B68184604F04F
:1027980075FE034603F08003802B23D13B6A9B69B7
:1027A80023F080023B6A9A6101237B6214E0796816
:1027B8007A6A1346DB0013449B000B4403F2572349
:1027C8001B78012B05D17B6ADBB21946786800F0CB
:1027D800F0FA7B6A01337B627B681B791A467B6A55
:1027E8009342E4D37B681B68184604F047FE03460F
:1027F80003F48013B3F5801F3CD101237B622BE0E7
:102808007B6A5A01FB69134403F510631B68BB61BB
:1028180079687A6A1346DB0013449B000B4418332B
:102828001B78012B15D1BB69002B12DA79687A6AFB
:102838001346DB0013449B000B44173301221A7024
:102848007B6ADBB263F07F03DBB21946786800F07D
:10285800B0FA7B6A01337B627B681B791A467B6A14
:102868009342CDD37B681B685A697B681B6802F466
:1028780080125A617B681B68184604F0FFFD034606
:1028880003F40013B3F5001F56D101237B6245E022
:102898007B6A5A01FB69134403F530631B68BB610B
:1028A80079687A6A1346DB0013449B000B4403F5EE
:1028B80016731B78012B2ED1BB69002B2BDABB6951
:1028C80003F480327B68D3F8D43403F001039A42CE
:1028D80021D179687A6A1346DB0013449B000B44C4
:1028E80003F2572301221A703B6A9B6943F0800266
:1028F8003B6A9A613B6A5B6903F08003002B0AD14B
:10290800FB6903F500635B68FA6902F5006243F44A
:102918000073536008E07B6A01337B627B681B7934
:102928001A467B6A9342B3D37B681B685A697B68F3
:102938001B6802F400125A617B681B68184604F091
:102948009DFD034603F08043B3F1804F0AD17868B8
:1029580007F0CCF87B681B685A697B681B6802F033
:1029680080425A617B681B68184604F087FD03465D
:1029780003F00403042B15D17B681B685B68BB61FB
:10298800BB6903F00403002B02D0786807F0BCF899
:102998007B681B6859687B681B68BA690A435A6078
:1029A80000E000BF3437BD4690BD80B582B000AFAF
:1029B80078600B46FB707B6893F89434012B01D147
:1029C800022312E07B68012283F894247B68FA785A
:1029D8005A747B681B68FA781146184604F0E6FCBE
:1029E8007B68002283F89424002318460837BD46E4
:1029F80080BD80B584B000AF7860084611461A469D
:102A08000346FB700B463B801346BB700023FB72EA
:102A180097F90330002B0FDAFB7803F00F02134607
:102A2800DB0013449B0010337A6813440433FB60C3
:102A3800FB6801225A700FE0FB7803F00F0213467F
:102A4800DB0013449B0003F514737A6813440433C2
:102A5800FB60FB6800225A70FB7803F00F03DAB2C0
:102A6800FB681A703A88FB689A60FB68BA781A7132
:102A7800FB685B78002B04D0FB681B789AB2FB6874
:102A88005A83BB78022B02D1FB6800225A717B68FB
:102A980093F89434012B01D102230EE07B680122C4
:102AA80083F894247B681B68F968184603F066FE6F
:102AB8007B68002283F89424FB7A18461037BD46B9
:102AC80080BD80B584B000AF78600B46FB7097F985
:102AD8000330002B0FDAFB7803F00F021346DB00FC
:102AE80013449B0010337A6813440433FB60FB687B
:102AF80001225A700FE0FB7803F00F021346DB0047
:102B080013449B0003F514737A6813440433FB6081
:102B1800FB6800225A70FB7803F00F03DAB2FB68F7
:102B28001A707B6893F89434012B01D102230EE0CC
:102B38007B68012283F894247B681B68F96818462F
:102B480003F0A4FE7B68002283F89424002318462F
:102B58001037BD4680BD80B586B000AFF8607A609A
:102B68003B600B46FB72FB7A03F00F021346DB0057
:102B780013449B0003F51473FA68134404337B6110
:102B88007B697A68DA607B693A681A617B69002236
:102B98005A617B6900225A70FB7A03F00F03DAB29C
:102BA8007B691A70FB689B79012B02D17A687B6973
:102BB800DA61FB681868FB689B791A46796903F043
:102BC80041FF002318461837BD4680BD80B586B042
:102BD80000AFF8607A603B600B46FB72FB7A03F04B
:102BE8000F021346DB0013449B001033FA681344AA
:102BF80004337B617B697A68DA607B693A681A61B9
:102C08007B6900225A617B6901225A70FB7A03F0C2
:102C18000F03DAB27B691A70FB689B79012B02D12A
:102C28007A687B69DA61FB681868FB689B791A46E1
:102C3800796903F007FF002318461837BD4680BDA1
:102C480080B584B000AF78600B46FB70FB7803F06A
:102C58000F037A681279934201D901234FE097F95B
:102C68000330002B0FDAFB7803F00F021346DB006A
:102C780013449B0010337A6813440433FB60FB68E9
:102C880001225A700DE0FA781346DB0013449B00CA
:102C980003F514737A6813440433FB60FB6800225D
:102CA8005A70FB6801229A70FB7803F00F03DAB2BE
:102CB800FB681A707B6893F89434012B01D10223C6
:102CC8001DE07B68012283F894247B681B68F968FF
:102CD800184604F097FAFB7803F00F03002B09D18C
:102CE8007B6818687B6899797B6803F29C431A466D
:102CF80004F08AFC7B68002283F894240023184699
:102D08001037BD4680BD80B584B000AF78600B46F3
:102D1800FB70FB7803F00F037A681279934201D9AC
:102D2800012342E097F90330002B0FDAFB7803F018
:102D38000F021346DB0013449B0010337A681344D8
:102D48000433FB60FB6801225A700FE0FB7803F044
:102D58000F021346DB0013449B0003F514737A68D3
:102D680013440433FB60FB6800225A70FB6800229E
:102D78009A70FB7803F00F03DAB2FB681A707B686D
:102D880093F89434012B01D102230EE07B680122D1
:102D980083F894247B681B68F968184604F0A0FA45
:102DA8007B68002283F89424002318461037BD4618
:102DB80080BD80B584B000AF78600B46FB7097F992
:102DC8000330002B0CDAFB7803F00F021346DB000C
:102DD80013449B0010337A6813440433FB600CE0FF
:102DE800FB7803F00F021346DB0013449B0003F546
:102DF80014737A6813440433FB607B681B68F968B2
:102E0800184604F0BFF80346FB72FB7A18461037E1
:102E1800BD4680BD80B58AB002AF786039607B68F6
:102E28001B687B617B693B613A681346DB0013448E
:102E38009B0010337A6813440433FB60FB685A69BB
:102E4800FB681B699A4201D901236BE0FB681A6988
:102E5800FB685B69D31AFB61FB689B68FA699A4255
:102E680002D9FB689B68FB61FB6903339B08BB6164
:102E78002AE0FB681A69FB685B69D31AFB61FB6887
:102E88009B68FA699A4202D9FB689B68FB61FB69F7
:102E980003339B08BB61FB68D9683B68DAB2FB69FE
:102EA80098B27B689B7900930346786904F014F91B
:102EB800FB68DA68FB691A44FB68DA60FB685A69E0
:102EC800FB691A44FB685A613B685A013B69134421
:102ED80003F510639B699BB2BA699A4209D8FB68EB
:102EE8005A69FB681B699A4203D2FB681B69002B6D
:102EF800BFD1FB681A69FB685B699A4211D83B68C5
:102F080003F00F03012202FA03F3BB603B6903F5E8
:102F180000635A6BBB68DB43396901F500611340F4
:102F28004B63002318462037BD4680BD80B588B066
:102F380000AF786039607B681B68FB61FB69BB6127
:102F4800FB693C3304331B687B613B685A01BB69EE
:102F5800134403F530639B683B617B689B79012BC5
:102F68007BD13B6903F00803002B15D07B69614ACC
:102F7800934240F2B9803B6903F40043002B00F010
:102F8800B3803B685A01BB69134403F530631A46A2
:102F98004FF400439360A7E03B6903F02003002B44
:102FA80009D03B685A01BB69134403F530631A46DC
:102FB8002023936098E03B6903F02803002B40F03E
:102FC80093807B694B4A93420FD93B6903F40043D2
:102FD800002B0AD03B685A01BB69134403F53063E0
:102FE8001A464FF4004393607EE03A681346DB00CC
:102FF80013449B0003F514737A6813440433FB608D
:10300800FB681A6A3B685901BB690B4403F53063D6
:103018001B69C3F31203D21AFB685A613B68002B81
:1030280014D1FB681B69002B09D17B6818687B6881
:1030380003F29C431A46012104F0E6FA06E0FB6815
:10304800DA68FB685B691A44FB68DA603B68DBB2E4
:103058001946786806F086FC46E07B69264A934262
:1030680024D13B6903F40043002B0AD03B685A0182
:10307800BB69134403F530631A464FF40043936069
:1030880032E03B6903F02003002B08D03B685A016B
:10309800BB69134403F530631A46202393603B68E9
:1030A800DBB21946786806F05DFC1DE03B68002B32
:1030B80014D179683A681346DB0013449B000B442B
:1030C80003F519731B68002B08D17B6818687B68A7
:1030D80003F29C431A46002104F096FA3B68DBB2DF
:1030E8001946786806F03EFC002318462037BD468E
:1030F80080BD00BF0A30544F0A31544F80B586B0A6
:1031080000AF786039607B681B687B617B693B61D5
:103118007B693C3304331B68FB603B685A013B699D
:10312800134403F530639B68BB60FB68154A934200
:103138000ED9BB6803F40043002B09D03B685A0141
:103148003B69134403F530631A464FF40043936018
:10315800786806F0F5FBFB680A4A93420CD97B684D
:103168009B79012B08D17B6818687B6803F29C4324
:103178001A46012104F048FA002318461837BD46BC
:1031880080BD00BF0A30544F80B485B000AF78606E
:103198000B46FB7013463B807B681B685B6ABB6011
:1031A800FB78002B07D13B8819047B681B68BA6839
:1031B8000A439A6228E07B681B689B6A1B0CBA6802
:1031C8001344BB600023FB730DE07B681A68FB7B2C
:1031D80040339B0013445B681B0CBA681344BB6004
:1031E800FB7B0133FB73FA7BFB78013B9A42ECD300
:1031F8003B8818047B681968FB78013BBA6802436E
:1032080040339B000B445A60002318461437BD46D0
:103218005DF8047B704780B483B000AF78600B46DC
:103228007B807B681B687A885A62002318460C37B3
:10323800BD465DF8047B704780B485B000AF786008
:103248007B681B68FB607B680122C3F8D8247B6815
:10325800002283F8CC24FB689B6943F00062FB687A
:103268009A61FB685A6D054B1343FA68536500234E
:1032780018461437BD465DF8047B704703000010FC
:1032880080B582B000AF00237B60234B1B6C224AC1
:1032980043F080531364204B1B6C03F080533B6056
:1032A8003B681E4B1B681D4A43F480331360FDF7CF
:1032B8004BFE786009E0FDF747FE02467B68D31AAB
:1032C800B3F57A7F01D9032322E0144B5B6803F43A
:1032D8008033B3F5803FEED1104B1B680F4A43F49F
:1032E80000331360FDF730FE786009E0FDF72CFE2F
:1032F80002467B68D31AB3F57A7F01D9032307E026
:10330800064B5B6803F40033B3F5003FEED10023AE
:1033180018460837BD4680BD00380240007000409E
:1033280080B586B000AF78600023FB757B68002B02
:1033380001D101239BE27B681B6803F00103002B8A
:1033480000F08780964B9B6803F00C03042B0CD08D
:10335800934B9B6803F00C03082B12D1904B5B68CE
:1033680003F48003B3F5800F0BD18D4B1B6803F476
:103378000033002B6CD07B685B68002B68D101237D
:1033880075E27B685B68B3F5803F06D1844B1B68A8
:10339800834A43F4803313602EE07B685B68002B1C
:1033A8000CD17F4B1B687E4A23F4803313607C4B1F
:1033B8001B687B4A23F4802313601DE07B685B68ED
:1033C800B3F5A02F0CD1764B1B68754A43F48023C4
:1033D8001360734B1B68724A43F4803313600BE02D
:1033E8006F4B1B686E4A23F4803313606C4B1B6869
:1033F8006B4A23F4802313607B685B68002B13D02F
:10340800FDF7A2FD386108E0FDF79EFD02463B6925
:10341800D31A642B01D9032329E2614B1B6803F4F7
:103428000033002BF0D014E0FDF78EFD386108E082
:10343800FDF78AFD02463B69D31A642B01D90323A1
:1034480015E2574B1B6803F40033002BF0D100E062
:1034580000BF7B681B6803F00203002B69D0504B48
:103468009B6803F00C03002B0BD04D4B9B6803F0BB
:103478000C03082B1CD14A4B5B6803F48003002B18
:1034880016D1474B1B6803F00203002B05D07B685D
:10349800DB68012B01D00123E9E1414B1B6823F0D4
:1034A800F8027B681B69DB003D4913430B6040E071
:1034B8007B68DB68002B23D0394B1B68384A43F004
:1034C80001031360FDF740FD386108E0FDF73CFD9E
:1034D80002463B69D31A022B01D90323C7E1304BBB
:1034E8001B6803F00203002BF0D02D4B1B6823F060
:1034F800F8027B681B69DB00294913430B6018E05D
:10350800274B1B68264A23F001031360FDF71CFDB7
:10351800386108E0FDF718FD02463B69D31A022B13
:1035280001D90323A3E11E4B1B6803F00203002B00
:10353800F0D17B681B6803F00803002B38D07B6848
:103548005B69002B19D0164B5B6F154A43F00103DA
:103558005367FDF7F9FC386108E0FDF7F5FC024612
:103568003B69D31A022B01D9032380E10C4B5B6F13
:1035780003F00203002BF0D01AE0094B5B6F084AF6
:1035880023F001035367FDF7DFFC38610AE0FDF71C
:10359800DBFC02463B69D31A022B03D9032366E1FD
:1035A80000380240924B5B6F03F00203002BEED110
:1035B8007B681B6803F00403002B00F0A4808C4B8D
:1035C8001B6C03F08053002B0DD1894B1B6C884A70
:1035D80043F080531364864B1B6C03F08053BB602D
:1035E800BB680123FB75834B1B6803F48073002BB6
:1035F80018D1804B1B687F4A43F480731360FDF732
:10360800A3FC386108E0FDF79FFC02463B69D31A2A
:10361800642B01D903232AE1764B1B6803F48073DA
:10362800002BF0D07B689B68012B06D1704B1B6F79
:103638006F4A43F0010313672DE07B689B68002BFA
:103648000CD16B4B1B6F6A4A23F001031367684B5D
:103658001B6F674A23F0040313671CE07B689B68B1
:10366800052B0CD1624B1B6F614A43F004031367AF
:103678005F4B1B6F5E4A43F0010313670BE05C4B23
:103688001B6F5B4A23F001031367594B1B6F584AA2
:1036980023F0040313677B689B68002B15D0FDF7A4
:1036A80053FC38610AE0FDF74FFC02463B69D31A28
:1036B80041F28832934201D90323D8E04C4B1B6F67
:1036C80003F00203002BEED014E0FDF73DFC386157
:1036D8000AE0FDF739FC02463B69D31A41F2883209
:1036E800934201D90323C2E0414B1B6F03F002034D
:1036F800002BEED1FB7D012B05D13D4B1B6C3C4AC9
:1037080023F0805313647B689B69002B00F0AE8024
:10371800374B9B6803F00C03082B6DD07B689B69C3
:10372800022B4BD1324B1B68314A23F08073136054
:10373800FDF70AFC386108E0FDF706FC02463B6924
:10374800D31A022B01D9032391E0294B1B6803F0FC
:103758000073002BF0D17B68DA697B681B6A1A4317
:103768007B685B6A9B011A437B689B6A5B08013B29
:103778001B041A437B68DB6A1B061A437B681B6BB6
:103788001B071B4913434B60194B1B68184A43F02E
:1037980080731360FDF7D8FB386108E0FDF7D4FBB0
:1037A80002463B69D31A022B01D903235FE0104B71
:1037B8001B6803F00073002BF0D057E00C4B1B681C
:1037C8000B4A23F080731360FDF7BEFB386108E0F5
:1037D800FDF7BAFB02463B69D31A022B01D9032332
:1037E80045E0034B1B6803F00073002BF0D13DE06C
:1037F80000380240007000401F4B5B68FB607B682C
:103808009B69012B30D0FB6803F480027B68DB697D
:103818009A4229D1FB6803F03F027B681B6A9A42EF
:1038280022D1FA6847F6C07313407A68526A920147
:10383800934219D1FB6803F440327B689B6A5B08AA
:10384800013B1B049A420FD1FB6803F070627B684E
:10385800DB6A1B069A4207D1FB6803F0E0427B68EB
:103868001B6B1B079A4201D0012300E00023184676
:103878001837BD4680BD00BF0038024080B584B00F
:1038880000AF786039600023FB607B68002B01D1B2
:103898000123D0E06A4B1B6803F00F033A689A4291
:1038A80010D9674B1B6823F00F0265493B68134327
:1038B8000B60634B1B6803F00F033A689A4201D010
:1038C8000123B8E07B681B6803F00203002B20D0BB
:1038D8007B681B6803F00403002B05D0594B9B68D9
:1038E800584A43F4E05393607B681B6803F008036D
:1038F800002B05D0534B9B68524A43F460439360B6
:10390800504B9B6823F0F0027B689B684D4913433A
:103918008B607B681B6803F00103002B40D07B6839
:103928005B68012B07D1474B1B6803F40033002B5E
:1039380015D101237FE07B685B68022B07D1414BDF
:103948001B6803F00073002B09D1012373E03D4B82
:103958001B6803F00203002B01D101236BE0394BF4
:103968009B6823F003027B685B68364913438B60CE
:10397800FDF7EAFAF8600AE0FDF7E6FA0246FB68A6
:10398800D31A41F28832934201D9032353E02D4BD5
:103998009B6803F00C027B685B689B009A42EBD142
:1039A800274B1B6803F00F033A689A4210D2244B46
:1039B8001B6823F00F0222493B6813430B60204B1E
:1039C8001B6803F00F033A689A4201D0012332E0E2
:1039D8007B681B6803F00403002B08D0194B9B6815
:1039E80023F4E0527B68DB68164913438B607B68DD
:1039F8001B6803F00803002B09D0124B9B6823F4C3
:103A080060427B681B69DB000E4913438B6000F042
:103A180021F802460B4B9B681B0903F00F030A4968
:103A2800CB5C22FA03F3094A1360094B1B6818465A
:103A3800FDF746FA002318461037BD4680BD00BF83
:103A4800003C024000380240F8AD000800000020A9
:103A5800080000202DE9B04F90B000AF00237B6331
:103A68000023FB6300233B630023BB63594B9B6824
:103A780003F00C03082B0DD0082B00F2A180002BBB
:103A880002D0042B03D09BE0534BBB639BE0534B0A
:103A9800BB6398E04F4B5B6803F03F037B634D4B80
:103AA8005B6803F48003002B28D04A4B5B689B09B2
:103AB80000223B627A623B6AC3F308000021474B4D
:103AC80003FB01F2002300FB03F31344434AA0FB6A
:103AD8000212FA620A46BA62FA6A1344FB627B6B04
:103AE8000022BB61FA61D7E90623D7E90A01FCF78E
:103AF8009FFB02460B461346FB6353E0354B5B685E
:103B08009B0900223B617A613B69C3F3080A4FF0C5
:103B1800000B52465B464FF000004FF00001590180
:103B280041EAD261500102460B46B2EB0A0863EB48
:103B38000B094FF000024FF000034FEA891343EAE4
:103B480098634FEA8812B2EB080463EB09054FF05B
:103B580000024FF00003EB0043EA5473E2001446FE
:103B68001D4614EB0A033B6045EB0B037B604FF0EB
:103B780000024FF00003D7E9004529468B02214691
:103B880043EA915321468A02104619467B6B00226C
:103B9800BB60FA60D7E90223FCF74AFB02460B46F2
:103BA8001346FB630B4B5B681B0C03F003030133E9
:103BB8005B003B63FA6B3B6BB2FBF3F3BB6302E066
:103BC800054BBB6300BFBB6B18464037BD46BDE81D
:103BD800B08F00BF003802400024F40040787D0117
:103BE80080B400AF034B1B681846BD465DF8047BE4
:103BF800704700BF0000002080B500AFFFF7F0FF5E
:103C08000246054B9B689B0A03F007030349CB5CFC
:103C180022FA03F3184680BD0038024008AE0008B7
:103C280080B500AFFFF7DCFF0246054B9B685B0BD6
:103C380003F007030349CB5C22FA03F3184680BD5F
:103C48000038024008AE000880B588B000AF786040
:103C580000237B6100233B610023FB600023FB61A1
:103C68000023BB617B681B6803F00103002B12D0A3
:103C7800694B9B68684A23F400039360664B9A6813
:103C88007B685B6B644913438B607B685B6B002BC1
:103C980001D10123FB617B681B6803F40023002B1F
:103CA80017D05D4BD3F88C3023F440127B68DB6B64
:103CB80059491343C1F88C307B68DB6BB3F5801F1F
:103CC80001D10123FB617B68DB6B002B01D1012350
:103CD800BB617B681B6803F48013002B17D04E4B25
:103CE800D3F88C3023F440027B681B6C4A49134399
:103CF800C1F88C307B681B6CB3F5800F01D10123B0
:103D0800FB617B681B6C002B01D10123BB617B68C5
:103D18001B6803F08073002B01D00123FB617B68D3
:103D28001B6803F02003002B00F08B803A4B1B6CC0
:103D3800394A43F080531364374B1B6C03F08053AC
:103D4800BB60BB68354B1B68344A43F4807313600F
:103D5800FDF7FAF8786108E0FDF7F6F802467B69A6
:103D6800D31A642B01D903238FE32C4B1B6803F46C
:103D78008073002BF0D0284B1B6F03F440733B611A
:103D88003B69002B35D07B681B6B03F440733A69A1
:103D98009A422ED0204B1B6F23F440733B611E4B7D
:103DA8001B6F1D4A43F4803313671B4B1B6F1A4A62
:103DB80023F480331367184A3B691367164B1B6F4C
:103DC80003F00103012B14D1FDF7BEF878610AE076
:103DD800FDF7BAF802467B69D31A41F2883293425A
:103DE80001D9032351E30C4B1B6F03F00203002B93
:103DF800EED07B681B6B03F44073B3F5407F11D1A1
:103E0800054B9B6823F4F8127B68196B044B0B4035
:103E1800014913438B600BE00038024000700040FA
:103E2800FFFCFF0FAC4B9B68AB4A23F4F81393607D
:103E3800A94B1A6F7B681B6BC3F30B03A64913438B
:103E48000B677B681B6803F01003002B10D0A24B94
:103E5800D3F88C30A04A23F08073C2F88C309E4B84
:103E6800D3F88C207B689B6B9B491343C1F88C303B
:103E78007B681B6803F48043002B0AD0964BD3F869
:103E8800903023F440327B685B6E93491343C1F84A
:103E980090307B681B6803F40043002B0AD08E4BDC
:103EA800D3F8903023F440227B689B6E8A491343F1
:103EB800C1F890307B681B6803F48033002B0AD06C
:103EC800854BD3F8903023F440127B68DB6E82492F
:103ED8001343C1F890307B681B6803F40033002B50
:103EE8000AD07D4BD3F8903023F440027B681B6FD7
:103EF80079491343C1F890307B681B6803F040038D
:103F0800002B0AD0744BD3F8903023F003027B685F
:103F18005B6C71491343C1F890307B681B6803F0F0
:103F28008003002B0AD06C4BD3F8903023F00C029E
:103F38007B689B6C68491343C1F890307B681B68A9
:103F480003F48073002B0AD0634BD3F8903023F02E
:103F580030027B68DB6C60491343C1F890307B68A2
:103F68001B6803F40073002B0AD05B4BD3F8903026
:103F780023F0C0027B681B6D57491343C1F890308A
:103F88007B681B6803F48063002B0AD0524BD3F87C
:103F9800903023F440727B685B6D4F491343C1F83E
:103FA80090307B681B6803F40063002B0AD04A4BEF
:103FB800D3F8903023F440627B689B6D46491343E5
:103FC800C1F890307B681B6803F48053002B0AD03B
:103FD800414BD3F8903023F440527B68DB6D3E4967
:103FE8001343C1F890307B681B6803F40053002B1F
:103FF8000AD0394BD3F8903023F440427B681B6ECB
:1040080035491343C1F890307B681B6803F480037B
:10401800002B0AD0304BD3F8903023F080627B68B5
:104028009B6F2D491343C1F890307B681B6803F4DC
:104038000013002B11D0284BD3F8903023F00062E6
:104048007B68DB6F24491343C1F890307B68DB6FD2
:10405800B3F1006F01D10123BB617B681B6803F0DA
:104068000803002B01D00123BB617B681B6803F4A4
:104078008023002B0AD0184BD3F8903023F04072DD
:104088007B685B6F14491343C1F890307B681B68E9
:1040980003F40003002B0BD00F4BD3F8903023F020
:1040A80080527B68D3F880300B491343C1F89030B5
:1040B8007B681B6803F08063002B0FD0064BD3F896
:1040C800903023F000527B68D3F8843002491343C0
:1040D800C1F8903002E000BF003802407B681B68DE
:1040E80003F00063002B0BD08A4BD3F88C3023F0FD
:1040F80000727B68D3F8883086491343C1F88C3046
:104108007B681B6803F08053002B0BD0814BD3F8DE
:104118008C3023F080627B68D3F88C307D49134360
:10412800C1F88C30FB69012B06D07B681B6803F053
:104138000073002B00F0D680764B1B68754A23F07D
:1041480080631360FCF700FF786108E0FCF7FCFE71
:1041580002467B69D31A642B01D9032395E16D4B81
:104168001B6803F00063002BF0D17B681B6803F029
:104178000103002B21D07B685B6B002B1DD1654BA5
:10418800D3F884301B0C03F003033B61614BD3F875
:1041980084301B0E03F00F03FB607B685B689A0199
:1041A8003B691B041A43FB681B061A437B689B6820
:1041B8001B0758491343C1F884307B681B6803F414
:1041C8000023002B04D07B68DB6BB3F5801F0AD07B
:1041D8007B681B6803F48013002B2ED07B681B6C54
:1041E800B3F5800F29D14B4BD3F884301B0C03F067
:1041F80003033B61474BD3F884301B0F03F00703DD
:10420800FB607B685B689A013B691B041A437B6807
:10421800DB681B061A43FB681B073E491343C1F8BA
:1042280084303C4BD3F88C3023F01F027B685B6AE8
:10423800013B38491343C1F88C307B681B6803F095
:104248008073002B1DD0334BD3F884301B0E03F042
:104258000F033B612F4BD3F884301B0F03F0070388
:10426800FB607B685B689A017B681B691B041A43C7
:104278003B691B061A43FB681B0726491343C1F811
:1042880084307B681B6803F00073002B11D07B68B7
:104298005B689A017B681B691B041A437B68DB68AF
:1042A8001B061A437B689B681B071A491343C1F80E
:1042B8008430184B1B68174A43F080631360FCF77F
:1042C80043FE786108E0FCF73FFE02467B69D31A9B
:1042D800642B01D90323D8E00E4B1B6803F000635D
:1042E800002BF0D0BB69012B40F0CE80094B1B6836
:1042F800084A23F080531360FCF726FE78610BE030
:10430800FCF722FE02467B69D31A642B04D90323E7
:10431800BBE000BF003802405E4B1B6803F000534F
:10432800B3F1005FECD07B681B6803F40023002B1B
:1043380003D07B68DB6B002B09D07B681B6803F418
:104348008013002B2ED07B681B6C002B2AD1514B7D
:10435800D3F888301B0C03F003033B614D4BD3F8B3
:1043680088301B0F03F00703FB607B685B699A01C9
:104378003B691B041A437B689B691B061A43FB684D
:104388001B0744491343C1F88830424BD3F88C309B
:1043980023F4F8527B689B6A013B1B023D49134397
:1043A800C1F88C307B681B6803F40013002B22D003
:1043B8007B68DB6FB3F1006F1DD1364BD3F88830C3
:1043C8001B0E03F00F033B61324BD3F888301B0FF1
:1043D80003F00703FB607B685B699A017B681B6AD3
:1043E8001B041A433B691B061A43FB681B07294930
:1043F8001343C1F888307B681B6803F00803002B5F
:1044080028D0244BD3F888301B0E03F00F033B61F0
:10441800204BD3F888301B0C03F00303FB607B6848
:104428005B699A01FB681B041A433B691B061A4324
:104438007B68DB691B0717491343C1F88830154BA4
:10444800D3F88C3023F440327B68DB6A114913437C
:10445800C1F88C300F4B1B680E4A43F08053136031
:10446800FCF772FD786108E0FCF76EFD02467B6997
:10447800D31A642B01D9032307E0064B1B6803F00A
:104488000053B3F1005FEFD1002318462037BD4633
:1044980080BD00BF0038024080B582B000AF7860B0
:1044A8007B68002B01D1012349E07B6893F83D30FC
:1044B800DBB2002B06D17B68002283F83C207868A9
:1044C800FCF754FB7B68022283F83D207B681A685E
:1044D8007B6804331946104600F070F97B680122A6
:1044E80083F848207B68012283F83E207B680122FC
:1044F80083F83F207B68012283F840207B680122F3
:1045080083F841207B68012283F842207B680122DE
:1045180083F843207B68012283F844207B680122CA
:1045280083F845207B68012283F846207B680122B6
:1045380083F847207B68012283F83D200023184632
:104548000837BD4680BD000080B485B000AF7860F4
:104558007B6893F83D30DBB2012B01D001234CE09E
:104568007B68022283F83D207B681B68264A9342B9
:1045780022D07B681B68B3F1804F1DD07B681B6815
:10458800224A934218D07B681B68214A934213D071
:104598007B681B681F4A93420ED07B681B681E4AC3
:1045A800934209D07B681B681C4A934204D07B68FD
:1045B8001B681B4A934215D17B681B689A68194B84
:1045C8001340FB60FB68062B15D0FB68B3F5803FF2
:1045D80011D07B681B681A687B681B6842F001026F
:1045E8001A6008E07B681B681A687B681B6842F0E1
:1045F80001021A6000E000BF002318461437BD46C8
:104608005DF8047B704700BF0000014000040040D3
:1046180000080040000C0040000401400040014038
:10462800001800400700010080B584B000AF786032
:1046380039600023FB737B6893F83C30012B01D170
:104648000223B4E07B68012283F83C207B680222C5
:1046580083F83D207B681B689B68BB60BA68564B33
:104668001340BB60BB6823F47F43BB607B681B6857
:10467800BA689A603B681B68B3F5005F3ED0B3F533
:10468800005F00F28780B3F5805F00F08680B3F5A5
:10469800805F7FD8702B1AD0702B7BD8602B50D0BE
:1046A800602B77D8502B3CD0502B73D8402B58D048
:1046B800402B6FD8302B64D0302B6BD8202B60D098
:1046C800202B67D8002B5CD0102B5AD062E07B6877
:1046D80018683B6899683B685A683B68DB6800F073
:1046E80093F97B681B689B68BB60BB6843F07703E2
:1046F800BB607B681B68BA689A604FE07B68186883
:104708003B6899683B685A683B68DB6800F07CF94D
:104718007B681B689A687B681B6842F480429A60D1
:104728003CE07B6818683B6859683B68DB681A4658
:1047380000F0F0F87B681B685021184600F049F932
:104748002CE07B6818683B6859683B68DB681A4648
:1047580000F00FF97B681B686021184600F039F9F2
:104768001CE07B6818683B6859683B68DB681A4638
:1047780000F0D0F87B681B684021184600F029F942
:104788000CE07B681A683B681B681946104600F005
:1047980020F903E00123FB7300E000BF7B680122DE
:1047A80083F83D207B68002283F83C20FB7B184679
:1047B8001037BD4680BD00BF88FFFEFF80B485B0BE
:1047C80000AF786039607B681B68FB607B68464A8D
:1047D800934213D07B68B3F1804F0FD07B68434A74
:1047E80093420BD07B68424A934207D07B68414A88
:1047F800934203D07B68404A934208D1FB6823F078
:104808007003FB603B685B68FA681343FB607B6876
:10481800354A93422BD07B68B3F1804F27D07B6811
:10482800324A934223D07B68314A93421FD07B6837
:10483800304A93421BD07B682F4A934217D07B683B
:104848002E4A934213D07B682D4A93420FD07B683F
:104858002C4A93420BD07B682B4A934207D07B6843
:104868002A4A934203D07B68294A934208D1FB68BD
:1048780023F44073FB603B68DB68FA681343FB6012
:10488800FB6823F080023B685B691343FB607B682D
:10489800FA681A603B689A687B68DA623B681A684B
:1048A8007B689A627B68104A934203D07B68124AFD
:1048B800934203D13B681A697B681A637B680122BB
:1048C8005A617B681B6903F00103012B05D17B68E2
:1048D8001B6923F001027B681A6100BF1437BD46CB
:1048E8005DF8047B704700BF0000014000040040F1
:1048F80000080040000C0040000401400040014056
:10490800004401400048014000180040001C0040DD
:104918000020004080B487B000AFF860B9607A60CA
:10492800FB681B6A7B61FB681B6A23F00102FB685A
:104938001A62FB689B693B613B6923F0F0033B61AA
:104948007B681B013A6913433B617B6923F00A03C7
:104958007B617A69BB6813437B61FB683A699A613A
:10496800FB687A691A6200BF1C37BD465DF8047B94
:10497800704780B487B000AFF860B9607A60FB68B0
:104988001B6A7B61FB681B6A23F01002FB681A62D2
:10499800FB689B693B613B6923F470433B617B681F
:1049A8001B033A6913433B617B6923F0A0037B61D6
:1049B800BB681B017A6913437B61FB683A699A619A
:1049C800FB687A691A6200BF1C37BD465DF8047B34
:1049D800704780B485B000AF786039607B689B68A9
:1049E800FB60FB6823F07003FB603A68FB681343C5
:1049F80043F00703FB607B68FA689A6000BF1437CE
:104A0800BD465DF8047B704780B487B000AFF8609E
:104A1800B9607A603B60FB689B687B617B6923F4C3
:104A28007F437B613B681A027B681A43BB68134368
:104A38007A6913437B61FB687A699A6000BF1C3707
:104A4800BD465DF8047B704780B485B000AF7860E0
:104A580039607B6893F83C30012B01D102236DE06B
:104A68007B68012283F83C207B68022283F83D2082
:104A78007B681B685B68FB607B681B689B68BB6026
:104A88007B681B68304A934204D07B681B682F4AB6
:104A9800934208D1FB6823F47003FB603B685B68B2
:104AA800FA681343FB60FB6823F07003FB603B6804
:104AB8001B68FA681343FB607B681B68FA685A60D6
:104AC8007B681B68204A934222D07B681B68B3F13D
:104AD800804F1DD07B681B681D4A934218D07B68A5
:104AE8001B681C4A934213D07B681B681A4A93427E
:104AF8000ED07B681B68154A934209D07B681B68F7
:104B0800164A934204D07B681B68154A93420CD11D
:104B1800BB6823F08003BB603B689B68BA6813439B
:104B2800BB607B681B68BA689A607B68012283F85F
:104B38003D207B68002283F83C2000231846143768
:104B4800BD465DF8047B7047000001400004014049
:104B58000004004000080040000C004000400140F4
:104B68000018004080B582B000AF78607B68002BE9
:104B780001D1012340E07B68DB6F002B06D17B6805
:104B8800002283F878207868FCF76AF87B6824228A
:104B9800DA677B681B681A687B681B6822F0010269
:104BA8001A607B685B6A002B02D0786800F06CFEA4
:104BB800786800F005FC0346012B01D101231BE0B6
:104BC8007B681B685A687B681B6822F490425A60AD
:104BD8007B681B689A687B681B6822F02A029A60C7
:104BE8007B681B681A687B681B6842F001021A60C0
:104BF800786800F0EBFE034618460837BD4680BDCE
:104C080080B58AB002AFF860B9603B601346FB809C
:104C1800FB68DB6F202B77D1BB68002B02D0FB88A9
:104C2800002B01D1012370E0FB680022C3F8842027
:104C3800FB682122DA67FCF787F97861FB68FA8854
:104C4800A3F85020FB68FA88A3F85220FB689B68F9
:104C5800B3F5805F08D1FB681B69002B04D10023E2
:104C6800FB61BB68BB6103E0BB68FB610023BB6100
:104C78002FE03B6800937B6900228021F86800F0F0
:104C88004DFF0346002B04D0FB682022DA6703237C
:104C98003BE0FB69002B0BD1BB691B881A46FB68FC
:104CA8001B68C2F308029A62BB690233BB6107E062
:104CB800FB691A78FB681B689A62FB690133FB6120
:104CC800FB68B3F852309BB2013B9AB2FB68A3F879
:104CD8005220FB68B3F852309BB2002BC9D13B6815
:104CE80000937B6900224021F86800F017FF034613
:104CF800002B04D0FB682022DA67032305E0FB6859
:104D08002022DA67002300E0022318462037BD4638
:104D180080BD80B58AB000AFF860B9601346FB80EB
:104D2800FB68D3F88030202B32D1BB68002B02D02F
:104D3800FB88002B01D101232BE0FB6800221A66B7
:104D4800FB681B685B6803F40003002B18D0FB6842
:104D58001B687B617B6953E8003F3B613B6943F01B
:104D680080637B62FB681B681A467B6A3B62FA6158
:104D7800F9693A6A41E80023BB61BB69002BE6D1B7
:104D8800FB881A46B968F86800F036FF034600E069
:104D9800022318462837BD4680BD000080B5BAB04A
:104DA80000AF78607B681B68DB69C7F8E4307B6814
:104DB8001B681B68C7F8E0307B681B689B68C7F8EE
:104DC800DC30D7F8E42040F60F031340C7F8D8309A
:104DD800D7F8D830002B15D1D7F8E43003F02003EA
:104DE800002B0FD0D7F8E03003F02003002B09D0B8
:104DF8007B689B6E002B00F0AC827B689B6E7868AA
:104E08009847A6E2D7F8D830002B00F01781D7F8DA
:104E1800DC3003F00103002B06D1D7F8E020854BE6
:104E28001340002B00F00A81D7F8E43003F00103A7
:104E3800002B11D0D7F8E03003F48073002B0BD08F
:104E48007B681B6801221A627B68D3F8843043F0C0
:104E580001027B68C3F88420D7F8E43003F002032A
:104E6800002B11D0D7F8DC3003F00103002B0BD056
:104E78007B681B6802221A627B68D3F8843043F08F
:104E880004027B68C3F88420D7F8E43003F00403F5
:104E9800002B11D0D7F8DC3003F00103002B0BD026
:104EA8007B681B6804221A627B68D3F8843043F05D
:104EB80002027B68C3F88420D7F8E43003F00803C3
:104EC800002B17D0D7F8E03003F02003002B05D1D2
:104ED800D7F8DC3003F00103002B0BD07B681B688C
:104EE80008221A627B68D3F8843043F008027B6892
:104EF800C3F88420D7F8E43003F40063002B12D001
:104F0800D7F8E03003F08063002B0CD07B681B6877
:104F18004FF400621A627B68D3F8843043F02002B1
:104F28007B68C3F884207B68D3F88430002B00F0BA
:104F38001282D7F8E43003F02003002B0DD0D7F805
:104F4800E03003F02003002B07D07B689B6E002B1A
:104F580003D07B689B6E786898477B68D3F8843069
:104F6800C7F8D4307B681B689B6803F04003402B6C
:104F780005D0D7F8D43003F02803002B4FD0786839
:104F880000F000FF7B681B689B6803F04003402B20
:104F980041D17B681B680833C7F89C30D7F89C3030
:104FA80053E8003FC7F89830D7F8983023F040030B
:104FB800C7F8D0307B681B680833D7F8D020C7F80B
:104FC800A820C7F8A430D7F8A410D7F8A82041E83B
:104FD8000023C7F8A030D7F8A030002BD9D17B68C0
:104FE8005B6F002B13D07B685B6F134A1A657B6875
:104FF8005B6F1846FCF768FA0346002B17D07B68EE
:105008005B6F1B6D7A68526F104698470FE078689F
:10501800FBF7FEFE0BE07868FBF7FAFE07E078681E
:10502800FBF7F6FE7B680022C3F8842093E100BFFB
:1050380091E100BF20010004396000087B681B6E05
:10504800012B40F04C81D7F8E43003F01003002B1B
:1050580000F04581D7F8E03003F01003002B00F092
:105068003E817B681B6810221A627B681B689B68FC
:1050780003F04003402B40F0B6807B685B6F1B68F1
:105088005B68A7F8BE30B7F8BE30002B00F065812A
:105098007B68B3F85830B7F8BE209A4280F05D813B
:1050A8007B68B7F8BE20A3F85A207B685B6FDB6982
:1050B800B3F5807F00F086807B681B68C7F888306E
:1050C800D7F8883053E8003FC7F88430D7F88430E1
:1050D80023F48073C7F8B8307B681B681A46D7F882
:1050E800B830C7F89430C7F89020D7F89010D7F8A0
:1050F800942041E80023C7F88C30D7F88C30002B77
:10510800DAD17B681B6808337B677B6F53E8003F05
:105118003B673B6F23F00103C7F8B4307B681B681B
:105128000833D7F8B420C7F88020FB67F96FD7F8A1
:10513800802041E80023BB67BB6F002BE1D17B686F
:105148001B6808333B663B6E53E8003FFB65FB6D0D
:1051580023F04003C7F8B0307B681B680833D7F8E2
:10516800B020FA66BB66B96EFA6E41E800237B662A
:105178007B6E002BE3D17B682022C3F880207B68FC
:1051880000221A667B681B68FB64FB6C53E8003FCF
:10519800BB64BB6C23F01003C7F8AC307B681B689A
:1051A8001A46D7F8AC30BB657A65796DBA6D41E8B7
:1051B80000233B653B6D002BE4D17B685B6F184691
:1051C800FCF712F97B6802225A667B68B3F858200C
:1051D8007B68B3F85A309BB2D31A9BB219467868E9
:1051E80000F0D8F8B9E07B68B3F858207B68B3F8CA
:1051F8005A309BB2D31AA7F8CE307B68B3F85A302E
:105208009BB2002B00F0AB80B7F8CE30002B00F03B
:10521800A6807B681B68BB63BB6B53E8003F7B635E
:105228007B6B23F49073C7F8C8307B681B681A46F9
:10523800D7F8C8307B643A64396C7A6C41E800234B
:10524800FB63FB6B002BE4D17B681B6808337B6234
:105258007B6A53E8003F3B623B6A23F00103C7F8CF
:10526800C4307B681B680833D7F8C4203A63FB62F4
:10527800F96A3A6B41E80023BB62BB6A002BE3D1B1
:105288007B682022C3F880207B6800221A667B682E
:1052980000229A667B681B683B613B6953E8003FC4
:1052A800FB60FB6823F01003C7F8C0307B681B68FD
:1052B8001A46D7F8C030FB61BA61B969FA6941E8A2
:1052C80000237B617B69002BE4D17B6802225A664C
:1052D800B7F8CE301946786800F05CF83FE0D7F8A8
:1052E800E43003F48013002B0ED0D7F8DC3003F43D
:1052F8008003002B08D07B681B684FF480121A6269
:10530800786800F053F82DE0D7F8E43003F0800314
:10531800002B0ED0D7F8E03003F08003002B08D024
:105328007B68DB6E002B1CD07B68DB6E7868984747
:1053380017E0D7F8E43003F04003002B12D0D7F879
:10534800E03003F04003002B0CD0786800F086FEB4
:1053580008E000BF06E000BF04E000BF02E000BFB5
:1053680000E000BFE837BD4680BD00BF80B483B011
:1053780000AF786000BF0C37BD465DF8047B70470E
:1053880080B483B000AF786000BF0C37BD465DF8CD
:10539800047B704780B483B000AF78600B467B8095
:1053A80000BF0C37BD465DF8047B704780B483B0FE
:1053B80000AF786000BF0C37BD465DF8047B7047CE
:1053C80080B588B000AF78600023BB777B689A68A7
:1053D8007B681B691A437B685B691A437B68DB69D6
:1053E80013437B617B681B681A68A64B13407A6875
:1053F800126879690B4313607B681B685B6823F448
:1054080040517B68DA687B681B680A435A607B688E
:105418009B697B617B681B6A7A6913437B617B6844
:105428001B689B6823F430617B681B687A690A43B0
:105438009A607B681B68944A934220D1934BD3F8B7
:10544800903003F00303032B16D801A252F823F07F
:1054580069540008755400086F5400087B5400080C
:105468000123FB7750E10223FB774DE10423FB770F
:105478004AE10823FB7747E11023FB7744E17B6887
:105488001B68834A934232D1804BD3F8903003F0A3
:105498000C030C2B28D801A252F823F0D954000889
:1054A800F1540008F1540008F1540008E5540008CC
:1054B800F1540008F1540008F1540008DF540008C2
:1054C800F1540008F1540008F1540008EB540008A6
:1054D8000023FB7718E10223FB7715E10423FB7710
:1054E80012E10823FB770FE11023FB770CE17B68BF
:1054F8001B68684A934220D1644BD3F8903003F07C
:105508003003302B13D0302B14D8202B09D0202B6C
:1055180010D8002B02D0102B06D00BE00023FB770D
:10552800F2E00223FB77EFE00423FB77ECE00823AB
:10553800FB77E9E01023FB77E6E07B681B68564AB7
:10554800934220D1514BD3F8903003F0C003C02BC5
:1055580013D0C02B14D8802B09D0802B10D8002B47
:1055680002D0402B06D00BE00023FB77CCE00223CF
:10557800FB77C9E00423FB77C6E00823FB77C3E089
:105588001023FB77C0E07B681B68444A934225D10F
:105598003E4BD3F8903003F44073B3F5407F17D0F7
:1055A800B3F5407F17D8B3F5007F0BD0B3F5007F74
:1055B80011D8002B03D0B3F5807F06D00BE0002371
:1055C800FB77A1E00223FB779EE00423FB779BE0B7
:1055D8000823FB7798E01023FB7795E07B681B682E
:1055E8002F4A934225D1294BD3F8903003F44063D6
:1055F800B3F5406F17D0B3F5406F17D8B3F5006F08
:105608000BD0B3F5006F11D8002B03D0B3F5806F22
:1056180006D00BE00123FB7776E00223FB7773E0EB
:105628000423FB7770E00823FB776DE01023FB77FA
:105638006AE07B681B681B4A934238D1134BD3F846
:10564800903003F44053B3F5405F17D0B3F5405F93
:105658002AD8B3F5005F0BD0B3F5005F24D8002B30
:1056680003D0B3F5805F06D01EE00023FB774BE044
:105678000223FB7748E00423FB7745E00823FB7708
:1056880042E000BFF369FFEF00100140003802401C
:105698000044004000480040004C004000500040DA
:1056A80000140140007800401023FB772CE07B6851
:1056B8001B68724A934225D1714BD3F8903003F49A
:1056C8004043B3F5404F17D0B3F5404F17D8B3F563
:1056D800004F0BD0B3F5004F11D8002B03D0B3F512
:1056E800804F06D00BE00023FB770DE00223FB7709
:1056F8000AE00423FB7707E00823FB7704E0102384
:10570800FB7701E01023FB777B68DB69B3F5004F7B
:105718005BD1FB7F082B28D801A252F823F000BFE9
:105728004D570008555700085D5700087357000883
:105738006357000873570008735700087357000829
:105748006B570008FEF758FAB86113E0FEF768FADD
:10575800B8610FE04B4BBB610CE0FEF77BF9B86119
:1057680008E04FF40043BB6104E00023BB61012360
:10577800BB7700BFBB69002B74D0BB695A007B683C
:105788005B685B081A447B685B68B2FBF3F33B61B8
:105798003B690F2B16D93B69B3F5803F12D23B69A1
:1057A8009BB223F00F03FB813B695B089BB203F0BC
:1057B80007039AB2FB891343FB817B681B68FA894C
:1057C800DA604FE00123BB774CE0FB7F082B28D839
:1057D80001A252F823F000BF055800080D58000830
:1057E800155800082B5800081B5800082B580008AB
:1057F8002B5800082B58000823580008FEF7FCF91E
:10580800B86113E0FEF70CFAB8610FE01D4BBB61FD
:105818000CE0FEF71FF9B86108E04FF40043BB61E4
:1058280004E00023BB610123BB7700BFBB69002BE9
:1058380018D07B685B685A08BB691A447B685B6848
:10584800B2FBF3F33B613B690F2B09D93B69B3F515
:10585800803F05D23B699AB27B681B68DA6001E039
:105868000123BB777B6800229A667B680022DA6690
:10587800BB7F18462037BD4680BD00BF007C004076
:10588800003802400024F40080B483B000AF786090
:105898007B685B6A03F00803002B0AD07B681B68EF
:1058A8005B6823F400417B685A6B7B681B680A437A
:1058B8005A607B685B6A03F00103002B0AD07B689F
:1058C8001B685B6823F400317B689A6A7B681B68F5
:1058D8000A435A607B685B6A03F00203002B0AD014
:1058E8007B681B685B6823F480317B68DA6A7B68B5
:1058F8001B680A435A607B685B6A03F00403002B49
:105908000AD07B681B685B6823F480217B681A6B6C
:105918007B681B680A435A607B685B6A03F0100364
:10592800002B0AD07B681B689B6823F480517B6836
:105938009A6B7B681B680A439A607B685B6A03F012
:105948002003002B0AD07B681B689B6823F4005156
:105958007B68DA6B7B681B680A439A607B685B6AC2
:1059680003F04003002B1AD07B681B685B6823F4A4
:1059780080117B681A6C7B681B680A435A607B68D5
:105988001B6CB3F5801F0AD17B681B685B6823F426
:10599800C0017B685A6C7B681B680A435A607B6845
:1059A8005B6A03F08003002B0AD07B681B685B6886
:1059B80023F400217B689A6C7B681B680A435A6051
:1059C80000BF0C37BD465DF8047B704780B598B0C2
:1059D80002AF78607B680022C3F88420FBF7B4FA32
:1059E80078657B681B681B6803F00803082B2ED1B9
:1059F8006FF07E4300937B6D00224FF400117868AE
:105A080000F08CF80346002B21D07B681B68BB6331
:105A1800BB6B53E8003F7B637B6B23F080033B65E4
:105A28007B681B681A463B6D7B643A64396C7A6CF8
:105A380041E80023FB63FB6B002BE6D17B68202247
:105A4800DA677B68002283F87820032362E07B68AA
:105A58001B681B6803F00403042B49D16FF07E43D5
:105A680000937B6D00224FF48001786800F056F8AF
:105A78000346002B3CD07B681B687B627B6A53E83B
:105A8800003F3B623B6A23F49073FB647B681B68AE
:105A98001A46FB6C3B63FA62F96A3A6B41E80023E9
:105AA800BB62BB6A002BE6D17B681B6808333B618D
:105AB8003B6953E8003FFB60FB6823F00103BB64CC
:105AC8007B681B680833BA6CFA61BB61B969FA690B
:105AD80041E800237B617B69002BE5D17B682022AC
:105AE800C3F880207B68002283F87820032311E024
:105AF8007B682022DA677B682022C3F880207B68D5
:105B080000221A667B6800225A667B68002283F8A6
:105B18007820002318465837BD4680BD80B584B02C
:105B280000AFF860B9603B601346FB714FE0BB699A
:105B3800B3F1FF3F4BD0FBF707FA02463B68D31A95
:105B4800BA699A4202D3BB69002B01D103234EE004
:105B5800FB681B681B6803F00403002B37D0BB6885
:105B6800802B34D0BB68402B31D0FB681B68DB69C5
:105B780003F00803082B10D1FB681B6808221A627F
:105B8800F86800F0FFF8FB680822C3F88420FB6877
:105B9800002283F87820012329E0FB681B68DB6971
:105BA80003F40063B3F5006F11D1FB681B684FF471
:105BB80000621A62F86800F0E5F8FB682022C3F872
:105BC8008420FB68002283F8782003230FE0FB6819
:105BD8001B68DA69BB681340BA689A420CBF012394
:105BE8000023DBB21A46FB799A42A0D0002318465C
:105BF8001037BD4680BD000080B596B000AFF86094
:105C0800B9601346FB80FB68BA685A65FB68FA8876
:105C1800A3F85820FB680022C3F88420FB682222DE
:105C2800C3F88020FB685B6F002B28D0FB685B6F94
:105C38003E4ADA63FB685B6F3D4A1A64FB685B6F38
:105C48003C4ADA64FB685B6F00221A65FB68586F90
:105C5800FB681B6824331946FB685B6D1A46FB8892
:105C6800FBF762FB0346002B09D0FB681022C3F840
:105C78008420FB682022C3F88020012351E0FB68C0
:105C88001B69002B18D0FB681B68FB63FB6B53E890
:105C9800003FBB63BB6B43F480737B65FB681B6889
:105CA8001A467B6DBB647A64796CBA6C41E8002350
:105CB8003B643B6C002BE6D1FB681B680833BB6276
:105CC800BB6A53E8003F7B627B6A43F001033B6594
:105CD800FB681B6808333A6D7A633B63396B7A6BF0
:105CE80041E80023FB62FB6A002BE5D1FB681B68D7
:105CF80008337B617B6953E8003F3B613B6943F0B4
:105D08004003FB64FB681B680833FA6C3A62FB616A
:105D1800F9693A6A41E80023BB61BB69002BE5D108
:105D2800002318465837BD4680BD00BF555E0008A1
:105D38007D5F0008BB5F000880B489B000AF786061
:105D48007B681B68FB60FB6853E8003FBB60BB686F
:105D580023F0C003FB617B681B681A46FB69BB61C3
:105D68007A617969BA6941E800233B613B69002B94
:105D7800E6D17B682022DA6700BF2437BD465DF88C
:105D8800047B704780B495B000AF78607B681B686F
:105D98007B637B6B53E8003F3B633B6B23F490735F
:105DA800FB647B681B681A46FB6C3B64FA63F96BFF
:105DB8003A6C41E80023BB63BB6B002BE6D17B68E0
:105DC8001B6808333B623B6A53E8003FFB61FB6991
:105DD80023F00103BB647B681B680833BA6CFA6262
:105DE800BB62B96AFA6A41E800237B627B6A002BCE
:105DF800E5D17B681B6E012B18D17B681B68FB60A3
:105E0800FB6853E8003FBB60BB6823F010037B646A
:105E18007B681B681A467B6CBB617A617969BA69D1
:105E280041E800233B613B69002BE6D17B682022D7
:105E3800C3F880207B6800221A667B6800229A6675
:105E480000BF5437BD465DF8047B704780B59CB0F1
:105E580000AF78607B689B6BFB667B68DB69B3F59A
:105E6800807F71D0FB6E0022A3F85A20FB6E1B685E
:105E7800FB64FB6C53E8003FBB64BB6C23F480738A
:105E8800BB66FB6E1B681A46BB6EBB657A65796D8F
:105E9800BA6D41E800233B653B6D002BE6D1FB6EF4
:105EA8001B680833BB63BB6B53E8003F7B637B6BAA
:105EB80023F001037B66FB6E1B6808337A6E7A64F5
:105EC8003B64396C7A6C41E80023FB63FB6B002B65
:105ED800E5D1FB6E1B6808337B627B6A53E8003FA1
:105EE8003B623B6A23F040033B66FB6E1B6808334A
:105EF8003A6E3A63FB62F96A3A6B41E80023BB6287
:105F0800BB6A002BE5D1FB6E2022C3F88020FB6E14
:105F18001B6E012B18D1FB6E1B683B613B6953E874
:105F2800003FFB60FB6823F01003FB65FB6E1B68FA
:105F38001A46FB6DFB61BA61B969FA6941E8002349
:105F48007B617B69002BE6D1FB6E00225A66FB6EF3
:105F58001B6E012B07D1FB6EB3F858301946F86E4B
:105F6800FFF718FA02E0F86EFAF738FF00BF70374B
:105F7800BD4680BD80B584B000AF78607B689B6B00
:105F8800FB60FB6801225A66FB681B6E012B09D176
:105F9800FB68B3F858305B089BB21946F868FFF7FE
:105FA800F9F902E0F868FFF7EBF900BF1037BD46D2
:105FB80080BD80B586B000AF78607B689B6B7B61E5
:105FC8007B69DB6F3B617B69D3F88030FB607B6961
:105FD8001B689B6803F08003802B09D13B69212B48
:105FE80006D17B690022A3F852207869FFF7A4FE46
:105FF8007B691B689B6803F04003402B09D1FB6851
:10600800222B06D17B690022A3F85A207869FFF772
:10601800B9FE7B69D3F8843043F010027B69C3F87A
:1060280084207869FAF7F4FE00BF1837BD4680BDB2
:1060380080B584B000AF78607B689B6BFB60FB68C1
:106048000022A3F85A20FB680022A3F85220F8681F
:10605800FAF7DEFE00BF1037BD4680BD80B588B0B8
:1060680000AF78607B681B68FB60FB6853E8003F03
:10607800BB60BB6823F04003FB617B681B681A4662
:10608800FB69BB617A617969BA6941E800233B61C0
:106098003B69002BE6D17B682022DA677B68002207
:1060A800DA667868FFF762F900BF2037BD4680BD21
:1060B80084B080B584B000AF786007F11C0080E838
:1060C8000E0097F82130012B21D17B689B6B23F4BC
:1060D80080327B689A637B68DA68214B13407A6860
:1060E800D3607B68DB6823F440127B68DA6097F83A
:1060F8002830012B05D17B68DB6843F480127B686C
:10610800DA60786801F0DEFA0346FB7310E07B681A
:10611800DB6843F040027B68DA60786801F0D2FA05
:106128000346FB737B689B6B43F480327B689A63FE
:10613800BB7F012B0BD17B689B6843F006027B6811
:106148009A607B689B6843F020027B689A60FB7BBF
:1061580018461037BD46BDE8804004B0704700BF00
:10616800BFFFBDFF80B487B000AFF860B9601346C9
:10617800FB71FB79022B65D1BB68414A934206D972
:10618800BB68404A934202D20F237B6162E0BB683E
:106198003C4A934206D3BB683B4A934202D20E2341
:1061A8007B6157E0BB68384A934206D3BB68374ADD
:1061B800934202D20D237B614CE0BB68334A934281
:1061C80006D3BB68324A934202D80C237B6141E074
:1061D800BB682F4A934206D9BB682E4A934202D81D
:1061E8000B237B6136E0BB682A4A934206D9BB6819
:1061F800294A934202D80A237B612BE0BB68264ACE
:10620800934206D9BB68254A934202D209237B618F
:1062180020E0BB68214A934206D3BB68204A9342D8
:1062280002D808237B6115E0BB681D4A934206D952
:10623800BB681C4A934202D207237B610AE006230B
:106248007B6107E0FB79002B02D109237B6101E028
:1062580009237B61FB68DB6823F47052FB68DA6012
:10626800FB68DA687B699B0203F470531A43FB6886
:10627800DA60002318461C37BD465DF8047B70477A
:10628800BFACD800C0E1E4000024F400807306012C
:106298009F491A01FF2C31013FA44C0100366E01C1
:1062A8001FABA6010048E80180B483B000AF786056
:1062B8007B689B6843F001027B689A60002318465C
:1062C8000C37BD465DF8047B704780B483B000AFDF
:1062D80078607B689B6823F001027B689A600023E2
:1062E80018460C37BD465DF8047B704780B584B00E
:1062F80000AF78600B46FB700023FB607B68DB68AF
:1063080023F0C0427B68DA60FB78012B15D17B68EB
:10631800DB6843F000527B68DA600A20FAF720FE57
:10632800FB680A33FB60786801F03BF90346012BF0
:106338001ED0FB68C72BF0D91AE0FB78002B15D1CB
:106348007B68DB6843F080427B68DA600A20FAF7F2
:1063580007FEFB680A33FB60786801F022F9034600
:10636800002B05D0FB68C72BF0D901E0012305E01D
:10637800FB68C82B01D1012300E000231846103721
:10638800BD4680BD84B080B586B000AF786007F1A7
:10639800240080E80E000023FB757B68FB60002367
:1063A8003B6109E07A683B6940339B001344002253
:1063B8005A603B6901333B613B690E2BF2D997F870
:1063C8002E30002B1CD1FB6803F500635B68FA686C
:1063D80002F5006243F0020353607B689B6B23F471
:1063E80000127B689A637B681B6843F040027B68F5
:1063F8001A607B681B6843F080027B681A6005E0BE
:106408007B689B6B43F400127B689A63FB6803F517
:1064180060631A460023136097F82930012B0DD1C9
:1064280097F82730002B04D10021786800F068F92C
:1064380008E00121786800F063F903E00321786837
:1064480000F05EF91021786800F0FAF80346002B96
:1064580001D00123FB75786800F024F90346002B6E
:1064680001D00123FB75FB6803F500631A4600237E
:106478001361FB6803F500631A4600235361FB6848
:1064880003F500631A460023D36100233B6143E010
:106498003B695A01FB68134403F510631B6803F05A
:1064A8000043B3F1004F18D13B69002B0AD13B6977
:1064B8005A01FB68134403F510631A464FF0006352
:1064C800136013E03B695A01FB68134403F510633A
:1064D8001A464FF09043136008E03B695A01FB6885
:1064E800134403F510631A46002313603B695A01ED
:1064F800FB68134403F510631A46002313613B69D4
:106508005A01FB68134403F510631A464FF67F33AC
:1065180093603B6901333B6197F824301A463B6925
:106528009342B5D300233B6143E03B695A01FB68C2
:10653800134403F530631B6803F00043B3F1004FC5
:1065480018D13B69002B0AD13B695A01FB681344F7
:1065580003F530631A464FF00063136013E03B699C
:106568005A01FB68134403F530631A464FF0904311
:10657800136008E03B695A01FB68134403F5306374
:106588001A46002313603B695A01FB68134403F55C
:1065980030631A46002313613B695A01FB681344B0
:1065A80003F530631A464FF67F3393603B69013336
:1065B8003B6197F824301A463B699342B5D3FB6890
:1065C80003F500631B69FA6802F5006223F480731F
:1065D80013617B6800229A617B686FF080425A6180
:1065E80097F82630002B05D17B689B6943F0100291
:1065F8007B689A617B689A690F4B13437A68936149
:1066080097F82A30002B05D07B689B6943F0080275
:106618007B689A6197F82E30012B05D17B689A69BF
:10662800064B13437A689361FB7D18461837BD46BD
:10663800BDE8804004B0704700383C80040000404A
:1066480080B485B000AF786039600023FB60FB68D8
:106658000133FB60FB68B3F1706F01D903231BE0C2
:106668007B681B69002BF2DA0023FB603B689B0107
:1066780043F020027B681A61FB680133FB60FB680A
:10668800B3F1706F01D9032306E07B681B6903F03F
:106698002003202BF0D0002318461437BD465DF8A0
:1066A800047B704780B485B000AF78600023FB603E
:1066B800FB680133FB60FB68B3F1706F01D90323FA
:1066C80018E07B681B69002BF2DA0023FB607B680B
:1066D80010221A61FB680133FB60FB68B3F1706F2D
:1066E80001D9032306E07B681B6903F01003102B14
:1066F800F0D0002318461437BD465DF8047B704778
:1067080080B485B000AF78600B46FB707B68FB6097
:10671800FB6803F500631A68FB78F96801F5006106
:1067280013430B60002318461437BD465DF8047BFD
:10673800704780B487B000AF78607B683B613B6985
:1067480003F500639B6803F00603FB60FB68002BFE
:1067580002D10023FB750AE0FB68022B02D0FB681C
:10676800062B02D10223FB7501E00F23FB75FB7D8D
:1067780018461C37BD465DF8047B704780B485B069
:1067880000AF786039607B68FB603B681B78BB6052
:106798003B685B78012B39D1FB6803F50063DA6944
:1067A8003B681B7803F00F03012101FA03F39BB246
:1067B800F96801F500611343CB61BB685A01FB68B6
:1067C800134403F510631B6803F40043002B53D1F3
:1067D800BB685A01FB68134403F510631A683B68E9
:1067E8009B68C3F30A013B681B799B041943BB6888
:1067F8009B050B431A43BB685901FB680B4403F51F
:1068080010631946204B13430B6035E0FB6803F512
:106818000063DA693B681B7803F00F03012101FA72
:1068280003F31B04F96801F500611343CB61BB68EE
:106838005A01FB68134403F530631B6803F40043F3
:10684800002B19D1BB685A01FB68134403F5306368
:106858001A683B689B68C3F30A013B681B799B0471
:106868000B431A43BB685901FB680B4403F53063BB
:106878001946054B13430B60002318461437BD46D1
:106888005DF8047B704700BF0080001080B485B0BD
:1068980000AF786039607B68FB603B681B78BB6041
:1068A8003B685B78012B61D1BB685A01FB681344D4
:1068B80003F510631B6803F00043B3F1004F1FD1C9
:1068C800BB685A01FB68134403F510631B68BA6878
:1068D8005101FA680A4402F5106243F0006313603C
:1068E800BB685A01FB68134403F510631B68BA6858
:1068F8005101FA680A4402F5106243F080431360BC
:10690800FB6803F50063DA6B3B681B7803F00F0341
:10691800012101FA03F39BB2DB43F96801F5006139
:106928001340CB63FB6803F50063DA693B681B78A7
:1069380003F00F03012101FA03F39BB2DB43F9686B
:1069480001F500611340CB61BB685A01FB68134431
:1069580003F510631A68BB685901FB680B4403F51B
:1069680010631946354B13400B6060E0BB685A0151
:10697800FB68134403F530631B6803F00043B3F16D
:10698800004F1FD1BB685A01FB68134403F53063FD
:106998001B68BA685101FA680A4402F5306243F08C
:1069A80000631360BB685A01FB68134403F5306346
:1069B8001B68BA685101FA680A4402F5306243F06C
:1069C80080431360FB6803F50063DA6B3B681B7850
:1069D80003F00F03012101FA03F31B04DB43F968F9
:1069E80001F500611340CB63FB6803F50063DA69C6
:1069F8003B681B7803F00F03012101FA03F31B0422
:106A0800DB43F96801F500611340CB61BB685A01AB
:106A1800FB68134403F530631A68BB685901FB68C7
:106A28000B4403F530631946054B13400B600023F4
:106A380018461437BD465DF8047B7047007833EC80
:106A48000078F3EF80B58AB002AFF860B9601346FA
:106A5800FB71FB68FB61BB681B78BB61BB685B783B
:106A6800012B40F08181BB681B69002B32D1BB69C7
:106A78005A01FB69134403F510631A69BB6959018C
:106A8800FB690B4403F510631946A54B13400B61D2
:106A9800BB695A01FB69134403F510631B69BA69A2
:106AA8005101FA690A4402F5106243F400231361A4
:106AB800BB695A01FB69134403F510631A69BB6982
:106AC8005901FB690B4403F510631946954B1340B4
:106AD8000B6192E0BB695A01FB69134403F510632B
:106AE8001A69BB695901FB690B4403F51063194620
:106AF8008C4B13400B61BB695A01FB69134403F5C6
:106B080010631A69BB695901FB690B4403F51063EB
:106B18001946834B13400B61BB69002B1AD1BB6824
:106B28001A69BB689B689A4203D9BB689A68BB68B4
:106B38001A61BB695A01FB69134403F510631B69A9
:106B4800BA695101FA690A4402F5106243F4002354
:106B580013611BE0BB695A01FB69134403F5106319
:106B68001A69BB681969BB689B680B44591EBB68E6
:106B78009B68B1FBF3F3D9046B4B0B40B96948012F
:106B8800F969014401F5106113430B61BB695A01AE
:106B9800FB69134403F510631A69BB681B69C3F3E7
:106BA8001203B9694801F969014401F510611343F9
:106BB8000B61BB681B79012B1FD1BB695A01FB69AB
:106BC800134403F510631B69BA695101FA690A4451
:106BD80002F5106223F0C0431361BB695A01FB69D7
:106BE800134403F510631B69BA695101FA690A4431
:106BF80002F5106243F000531361FB79012B4BD16E
:106C0800BB68DB69002B09D0BB695A01FB691344D7
:106C180003F510631A46BB68DB695361BB681B79CF
:106C2800012B28D1FB6903F500639B6803F480738B
:106C3800002B10D1BB695A01FB69134403F510639B
:106C48001B68BA695101FA690A4402F5106243F0F7
:106C5800005313600FE0BB695A01FB69134403F545
:106C680010631B68BA695101FA690A4402F5106297
:106C780043F080531360BB695A01FB69134403F561
:106C880010631B68BA695101FA690A4402F5106277
:106C980043F0044313606AE1BB695A01FB6913447A
:106CA80003F510631B68BA695101FA690A4402F5D1
:106CB800106243F004431360BB681B79012B15D0A5
:106CC800BB681B69002B00F05281FB6903F5006368
:106CD8005A6BBB681B7803F00F03012101FA03F319
:106CE800F96901F5006113434B6340E1FB6903F562
:106CF80000639B6803F48073002B17D1BB695A01AA
:106D0800FB69134403F510631B68BA695101FA69FA
:106D18000A4402F5106243F00053136016E000BF06
:106D2800FFFF07E00000F8FF0000F81FBB695A01E9
:106D3800FB69134403F510631B68BA695101FA69CA
:106D48000A4402F5106243F080531360BB68D968A7
:106D5800BB681A78BB681B6998B2FB790093034635
:106D6800F86800F0B9F902E1BB695A01FB691344FC
:106D780003F530631A69BB695901FB690B4403F5D4
:106D8800306319467C4B13400B61BB695A01FB69A0
:106D9800134403F530631A69BB695901FB690B4455
:106DA80003F530631946754B13400B61BB69002B23
:106DB8002FD1BB681B69002B03D0BB689A68BB68DE
:106DC8001A61BB689A68BB681A62BB695A01FB6999
:106DD800134403F530631A69BB681B6AC3F31203D3
:106DE800B9694801F969014401F5306113430B6140
:106DF800BB695A01FB69134403F530631B69BA691F
:106E08005101FA690A4402F5306243F40023136120
:106E18005FE0BB681B69002B23D1BB695A01FB6982
:106E2800134403F530631A69BB689B68C3F3120304
:106E3800B9694801F969014401F5306113430B61EF
:106E4800BB695A01FB69134403F530631B69BA69CE
:106E58005101FA690A4402F5306243F400231361D0
:106E680037E0BB681A69BB689B6813445A1EBB6845
:106E78009B68B2FBF3F3FB82BB689B68FA8A03FB4F
:106E880002F2BB681A62BB695A01FB69134403F535
:106E980030631A69FB8AD904394B0B40B969480138
:106EA800F969014401F5306113430B61BB695A016B
:106EB800FB69134403F530631A69BB681B6AC3F3A3
:106EC8001203B9694801F969014401F530611343B6
:106ED8000B61FB79012B0DD1BB68DB68002B09D056
:106EE800BB68D968BB695A01FB69134403F5306371
:106EF8000A465A61BB681B79012B28D1FB6903F547
:106F080000639B6803F48073002B10D1BB695A019E
:106F1800FB69134403F530631B68BA695101FA69C8
:106F28000A4402F5306243F0005313600FE0BB6976
:106F38005A01FB69134403F530631B68BA695101B0
:106F4800FA690A4402F5306243F080531360BB6962
:106F58005A01FB69134403F530631B68BA69510190
:106F6800FA690A4402F5306243F0044313600023CF
:106F780018462037BD4680BD0000F8FFFFFF07E038
:106F88000000F81F80B487B000AF78603960002334
:106F9800FB600023FB757B683B613B685B78012BDA
:106FA8004AD13B681B785A013B69134403F51063C7
:106FB8001B6803F00043B3F1004F40F086803B6844
:106FC8001B785A013B69134403F510631B683A6840
:106FD800127851013A690A4402F5106243F00063DD
:106FE80013603B681B785A013B69134403F510632F
:106FF8001B683A68127851013A690A4402F510622E
:1070080043F080431360FB680133FB60FB6842F286
:107018001072934202D90123FB7556E03B681B7836
:107028005A013B69134403F510631B6803F00043DE
:10703800B3F1004FE7D048E03B681B785A013B6941
:10704800134403F530631B6803F00043B3F1004FAA
:107058003BD13B681B785A013B69134403F5306305
:107068001B683A68127851013A690A4402F530629D
:1070780043F0006313603B681B785A013B69134473
:1070880003F530631B683A68127851013A690A447B
:1070980002F5306243F080431360FB680133FB6004
:1070A800FB6842F21072934202D90123FB750CE08F
:1070B8003B681B785A013B69134403F530631B682E
:1070C80003F00043B3F1004FE7D0FB7D18461C37AF
:1070D800BD465DF8047B704780B489B000AFF860A6
:1070E800B96011461A460B46FB711346BB80FB6814
:1070F8007B61BB68FB6197F82830002B23D1BB88E4
:1071080003339B083B610023BB6118E0FB791A033A
:107118007B69134403F580531A46FB691B681360A7
:10712800FB690133FB61FB690133FB61FB690133D7
:10713800FB61FB690133FB61BB690133BB61BA6960
:107148003B699A42E2D3002318462437BD465DF8CE
:10715800047B704780B48BB000AFF860B960134609
:10716800FB80FB68BB61BB687B62FB889B089BB2AA
:107178007B61FB8803F00303FB8300233B6214E07D
:10718800BB6903F580531A687B6A1A607B6A01330E
:107198007B627B6A01337B627B6A01337B627B6A39
:1071A80001337B623B6A01333B623A6A7B699A42EC
:1071B800E6D3FB8B002B1ED000233B62BB6903F593
:1071C80080531A4607F1100312681A603A693B6A3D
:1071D800DBB2DB0022FA03F3DAB27B6A1A703B6A8D
:1071E80001333B627B6A01337B62FB8B013BFB8390
:1071F800FB8B002BEAD17B6A18462C37BD465DF81D
:10720800047B704780B485B000AF786039607B68D4
:10721800FB603B681B78BB603B685B78012B2CD11B
:10722800BB685A01FB68134403F510631B68002B05
:1072380012DBBB68002B0FD0BB685A01FB681344F4
:1072480003F510631B68BA685101FA680A4402F52D
:10725800106223F080431360BB685A01FB68134433
:1072680003F510631B68BA685101FA680A4402F50D
:10727800106243F4001313602BE0BB685A01FB68EB
:10728800134403F530631B68002B12DBBB68002B2B
:107298000FD0BB685A01FB68134403F530631B68C1
:1072A800BA685101FA680A4402F5306223F0804353
:1072B8001360BB685A01FB68134403F530631B680D
:1072C800BA685101FA680A4402F5306243F40013BF
:1072D8001360002318461437BD465DF8047B7047D9
:1072E80080B485B000AF786039607B68FB603B682C
:1072F8001B78BB603B685B78012B28D1BB685A01BF
:10730800FB68134403F510631B68BA685101FA68F7
:107318000A4402F5106223F4001313603B681B79DA
:10732800032B03D03B681B79022B38D1BB685A0169
:10733800FB68134403F510631B68BA685101FA68C7
:107348000A4402F5106243F08053136027E0BB68DB
:107358005A01FB68134403F530631B68BA6851018E
:10736800FA680A4402F5306223F4001313603B689C
:107378001B79032B03D03B681B79022B0FD1BB6809
:107388005A01FB68134403F530631B68BA6851015E
:10739800FA680A4402F5306243F080531360002310
:1073A80018461437BD465DF8047B704780B485B035
:1073B80000AF78600B46FB707B68FB60FB6803F5E9
:1073C80000631B68FA6802F5006223F4FE63136029
:1073D800FB6803F500631A68FB781B0103F4FE637E
:1073E800F96801F5006113430B6000231846143750
:1073F800BD465DF8047B704780B485B000AF786007
:107408007B68FB60FB6803F560631B68FA6802F53C
:10741800606223F003031360FB6803F500635B6895
:10742800FA6802F5006223F002035360002318464D
:107438001437BD465DF8047B704780B485B000AF53
:1074480078607B68FB60FB6803F560631B68FA681B
:1074580002F5606223F003031360FB6803F5006321
:107468005B68FA6802F5006243F002035360002388
:1074780018461437BD465DF8047B704780B485B064
:1074880000AF78607B685B69FB607B689B69FA6822
:107498001340FB60FB6818461437BD465DF8047B53
:1074A800704780B485B000AF78607B68FB60FB688C
:1074B80003F500639B69BB60FB6803F50063DB6948
:1074C800BA681340BB60BB681B0C18461437BD462E
:1074D8005DF8047B704780B485B000AF78607B6846
:1074E800FB60FB6803F500639B69BB60FB6803F501
:1074F8000063DB69BA681340BB60BB689BB218467F
:107508001437BD465DF8047B704780B485B000AF82
:1075180078600B46FB707B68FB60FB785A01FB6860
:10752800134403F530639B68BB60FB6803F5006395
:107538005B69BA681340BB60BB6818461437BD4620
:107548005DF8047B704780B487B000AF78600B4665
:10755800FB707B687B617B6903F500631B693B619A
:107568007B6903F500635B6BFB60FB7803F00F033B
:10757800FA6822FA03F3DB01DBB23A6913433B6191
:10758800FB785A017B69134403F510639B683A69D9
:107598001340BB60BB6818461C37BD465DF8047BCA
:1075A800704780B483B000AF78607B685B6903F094
:1075B800010318460C37BD465DF8047B7047000090
:1075C80080B485B000AF78607B68FB60FB6803F52A
:1075D80010631A68FB6803F510631946094B1340DA
:1075E8000B60FB6803F500635B68FA6802F50062EC
:1075F80043F480735360002318461437BD465DF882
:10760800047B704700F8FFFF80B487B000AFF860D4
:107618000B467A60FB72FB687B61FB683C33043382
:107628001B683B613B69264A93420AD97B6903F58B
:1076380030631B6803F00043B3F1004F01D100230E
:1076480037E07B6903F530631A46002313617B69D1
:1076580003F530631B697A6902F5306243F400234D
:1076680013617B6903F530631B697A6902F530623F
:1076780043F0180313617B6903F530631B697A696A
:1076880002F5306243F0C0431361FB7A012B0FD13E
:107698007B6903F530631A467B6853617B6903F5A0
:1076A80030631B687A6902F5306243F08023136007
:1076B800002318461C37BD465DF8047B704700BFA1
:1076C8000A30544F80B485B000AF78600023FB6067
:1076D800FB680133FB60FB68B3F1706F01D90323CA
:1076E8001BE07B681B69002BF2DA0023FB607B68D8
:1076F8001B6943F001027B681A61FB680133FB6078
:10770800FB68B3F1706F01D9032306E07B681B693E
:1077180003F00103012BF0D0002318461437BD46AF
:107728005DF8047B7047000080B584B000AF7860D6
:107738000B46FB70542002F017FC0346FB60FB6805
:10774800002B09D17B68D3F8D4227B68B0320021A2
:1077580043F8221002238BE07B68D3F8D4227B689D
:10776800B032F96843F822107B68D3F8D4227B68DA
:10777800B03253F822207B68C3F8BC227B681B7C9C
:10778800002B1BD13C4B1B7803F00F027968134682
:107798009B0013449B000B44263305221A80374B69
:1077A8001B7803F00F02796813469B0013449B0073
:1077B8000B4403F5B37305221A801AE02E4B1B788D
:1077C80003F00F02796813469B0013449B000B4497
:1077D800263305221A80294B1B7803F00F0279689B
:1077E80013469B0013449B000B4403F5B373052217
:1077F8001A80214B197840230322786802F0F9F99E
:107808001D4B1B7803F00F02796813469B00134445
:107818009B000B44243301221A80184B197840230B
:107828000322786802F0E5F9144B1B7803F00F0285
:10783800796813469B0013449B000B4403F5B2730D
:1078480001221A80FB68002283F850207B68D3F855
:10785800D4327A68B0339B0013445B685B689847FE
:10786800064B1978FA684023786802F0B1FA0023C9
:1078780018461037BD4680BD8A0000208B000020C6
:1078880080B582B000AF78600B46FB70374B1B7831
:107898001946786802F0D3F9344B1B7803F00F02CD
:1078A800796813469B0013449B000B442433002241
:1078B8001A802E4B1B7803F00F02796813469B0041
:1078C80013449B000B44263300221A80284B1B7854
:1078D8001946786802F0B3F9254B1B7803F00F02BC
:1078E800796813469B0013449B000B4403F5B2735D
:1078F80000221A801E4B1B7803F00F02796813468A
:107908009B0013449B000B4403F5B37300221A80B9
:107918007B68D3F8D4227B68B03253F82230002B2E
:107928001FD07B68D3F8D4327A68B0339B001344F5
:107938005B689B6898477B68D3F8D4227B68B03231
:1079480053F82230184602F017FB7B68D3F8D4228C
:107958007B68B032002143F822107B680022C3F80C
:10796800BC22002318460837BD4680BD8A00002087
:107978008B00002080B588B000AF786039607B68E4
:10798800D3F8D4227B68B03253F822303B6100230D
:10799800FB830023BB610023FB810023FB753B694C
:1079A800002B01D1032302E13B681B7803F060033D
:1079B800002B56D0202B40F0F2803B685B78023BCE
:1079C800092B46D801A252F823F000BF2D7A0008EF
:1079D8000B7A00085B7A00085B7A00085B7A00087B
:1079E8005B7A00085B7A00083D7A00081B7A000879
:1079F800FD7900083B685B88DBB21A463B691A646C
:107A08002EE03B69403301221946786801F00EFDEB
:107A180026E03B685B881B0A9BB2DBB21A463B69CF
:107A28005A641DE03B69443301221946786801F025
:107A3800FDFC15E03B690122DA6439693B68DB88A3
:107A4800402B28BF40239BB21A46786801F01AFDE4
:107A580006E03968786801F06CFC0323FB7500BF09
:107A6800A4E03B685B780B2B00F2908001A252F8EF
:107A780023F000BFAD7A0008A37B0008957B0008BF
:107A8800957B0008957B0008957B0008D77A00084D
:107A9800957B0008957B0008957B0008437B0008D0
:107AA8006D7B00087B6893F89C32DBB2032B07D10F
:107AB80007F10E0302221946786801F0B7FC6DE061
:107AC8003968786801F035FC0323FB7566E03B688C
:107AD8005B881B0A9BB2222B10D13B68DB88212BC9
:107AE80028BF2123FB837B68D3F8D4327A68B0336C
:107AF8009B0013445B681B68BB610DE03B685B88B7
:107B08001B0A9BB2212B07D12B4BBB613B68DB883F
:107B1800092B28BF0923FB83BB69002B06D0FB8BED
:107B28001A46B969786801F081FC37E039687868E5
:107B380001F0FFFB0323FB7530E07B6893F89C3270
:107B4800DBB2032B07D13B69483301221946786819
:107B580001F06CFC22E03968786801F0EAFB032345
:107B6800FB751BE07B6893F89C32DBB2032B06D1D4
:107B78003B685B88DBB21A463B699A640EE0396859
:107B8800786801F0D6FB0323FB7507E0396878684D
:107B980001F0CFFB0323FB7500E000BF06E0396866
:107BA800786801F0C6FB0323FB7500BFFB7D184610
:107BB8002037BD4680BD00BF7400002080B586B068
:107BC80000AFF860B9601346FB80FB68D3F8D42295
:107BD800FB68B03253F822307B617B69002B01D1FE
:107BE800032319E0FB6893F89C32DBB2032B12D114
:107BF8007B6993F85030002B0BD17B69012283F805
:107C08005020074B1978FB88BA68F86802F0BFF86B
:107C180001E0012300E0002318461837BD4680BD67
:107C28008A00002080B584B000AF786081211548B3
:107C380000F01DFDF8600121124800F018FDB86041
:107C4800FB68002B09D0FB68002242F040021A7141
:107C580000225A71FB6805229A71BB68002B09D073
:107C6800BB68002242F040021A7100225A71BB68B8
:107C780005229A717B6829221A80024B1846103710
:107C8800BD4680BD4800002080B584B000AF786054
:107C98008121154800F0EBFCF8600121124800F042
:107CA800E6FCB860FB68002B09D0FB68002242F0B4
:107CB80040021A7100225A71FB6805229A71BB684A
:107CC800002B09D0BB68002242F040021A71002242
:107CD8005A71BB6805229A717B6829221A80024B67
:107CE80018461037BD4680BD4800002080B584B0D6
:107CF80000AF78608121154800F0B9FCF8600121D7
:107D0800124800F0B4FCB860FB68002B09D0FB688F
:107D1800002242F040021A7100225A71FB680522C3
:107D28009A71BB68002B09D0BB68002242F0400260
:107D38001A7100225A71BB6805229A717B68292240
:107D48001A80024B18461037BD4680BD48000020F7
:107D580080B483B000AF78600B46FB707B68D3F8C3
:107D6800D4227B68B03253F82230002283F85020A6
:107D7800002318460C37BD465DF8047B704780B574
:107D880084B000AF78600B46FB707B68D3F8D422D0
:107D98007B68B03253F82230002B01D1032317E05F
:107DA8007B68D3F8D4227B68B03253F82230FB606A
:107DB8007B68D3F8D4327A68B0339B0013445B688D
:107DC800DB68FA681078FA685278114698470023F9
:107DD80018461037BD4680BD80B584B000AF7860C6
:107DE8007B68D3F8D4227B68B03253F82230002B5A
:107DF80001D103230FE07B68D3F8D4227B68B0322B
:107E080053F82230FB60064B1978FA6840237868EB
:107E180001F0DEFF002318461037BD4680BD00BFC5
:107E28008B00002080B584B000AF78607B68D3F801
:107E3800D4227B68B03253F82230FB60FB68002BF9
:107E480001D1032316E0FB68DB6C012B11D17B68A1
:107E5800D3F8D4327A68B0339B0013445B68DB688C
:107E6800FA681078FA68527811469847FB68002239
:107E7800DA64002318461037BD4680BD80B483B04D
:107E880000AF78607B680A221A80034B18460C37CB
:107E9800BD465DF8047B70478000002080B483B045
:107EA80000AF786039603B68002B01D1032309E0FB
:107EB8007B68D3F8D4327A68B0339B0013443A68AD
:107EC8005A60002318460C37BD465DF8047B70479E
:107ED80080B586B000AFF860B9601346FB71FB68E7
:107EE800002B01D103231FE0FB680022C3F8B8224E
:107EF800FB680022C3F8C422FB680022C3F8D02222
:107F0800BB68002B03D0FB68BA68C3F8B422FB68CF
:107F1800012283F89C22FB68FA791A70F86801F04C
:107F280001FE0346FB75FB7D18461837BD4680BD2C
:107F380080B584B000AF786039600023FB813B686E
:107F4800002B01D1032325E07B683A68C3F8B822E7
:107F58007B68D3F8D4227B68AE3253F82230DB6AD0
:107F6800002B0FD07B68D3F8D4227B68AE3253F84D
:107F78002230DB6A07F10E021046984702467B68FA
:107F8800C3F8D0227B68D3F8D8325A1C7B68C3F870
:107F9800D822002318461037BD4680BD80B582B070
:107FA80000AF7860786801F009FE03461846083784
:107FB800BD4680BD80B483B000AF7860002318460A
:107FC8000C37BD465DF8047B704780B584B000AFC0
:107FD80078600B46FB700023FB737B68D3F8B832DC
:107FE800002B09D07B68D3F8B8321B68FA781146A1
:107FF800786898470346FB73FB7B18461037BD46E5
:1080080080BD80B584B000AF78600B46FB7000235C
:10801800FB737B68D3F8B8325B68FA7811467868E6
:1080280098470346002B01D00323FB73FB7B1846BC
:108038001037BD4680BD80B584B000AF7860396028
:108048007B6803F2AA233968184601F038F97B687F
:108058000122C3F894227B68B3F8B0321A467B68D1
:10806800C3F898227B6893F8AA3203F01F03022B07
:108078001AD0022B22D8002B02D0012B0AD01DE0E7
:108088007B6803F2AA231946786800F065FB03466B
:10809800FB7320E07B6803F2AA231946786800F096
:1080A800CDFB0346FB7316E07B6803F2AA2319464F
:1080B800786800F02FFC0346FB730CE07B6893F8AC
:1080C800AA3223F07F03DBB21946786801F0D6FDA7
:1080D8000346FB7300BFFB7B18461037BD4680BDC7
:1080E80080B586B000AFF8600B467A60FB7200235B
:1080F800FB75FB7A002B6ED1FB6803F5AA733B6115
:10810800FB68D3F89432032B40F098803B699A6857
:108118003B69DB689A4213D93B699A683B69DB681B
:10812800D21A3B699A603B69DA683B699B6893425B
:1081380028BF13461A467968F86801F0C0F97DE04F
:10814800FB6893F8AA3203F01F03022B14D0022B0A
:108158001DD8002B02D0012B03D018E00023BB75DB
:1081680018E0FB68B3F8AE32DBB21946F86800F0E5
:1081780064FA0346BB750DE0FB68B3F8AE32DBB2B8
:108188001946F86800F066FA0346BB7502E000235A
:10819800BB7500BFBB7D002B19D1FB6893F89C32DF
:1081A800DBB2032B13D1BA7DFB68AE3253F8223011
:1081B8001B69002B0BD0BA7DFB68C3F8D422BA7DAB
:1081C800FB68AE3253F822301B69F8689847F868A4
:1081D80001F086F932E0FB7A03F07F03DBB219463F
:1081E800F86800F037FA0346BB75BB7DFF2B25D036
:1081F800BB7D002B22D1FB6893F89C32DBB2032BAA
:1082080017D1BA7DFB68AE3253F822309B69002B38
:108218000FD0BA7DFB68C3F8D422BA7DFB68AE32B2
:1082280053F822309B69FA7A1146F8689847034652
:10823800FB75FB7D002B01D0FB7D00E00023184679
:108248001837BD4680BD80B586B000AFF8600B46D4
:108258007A60FB72FB7A002B6FD1FB6814333B61A9
:10826800FB68D3F89432022B5AD13B699A683B6970
:10827800DB689A4214D93B699A683B69DB68D21A71
:108288003B699A603B699B681A467968F86801F00F
:10829800E8F8002300220021F86801F099FD3FE08A
:1082A8003B69DA683B699B689A421CD13B695A680A
:1082B8003B69DB689A4216D33B695A68FB68D3F876
:1082C80098329A420FD200220021F86801F0C9F8CA
:1082D800FB680022C3F89822002300220021F868D6
:1082E80001F076FD1CE0FB6893F89C32DBB2032BAF
:1082F8000FD1FB68D3F8B832DB68002B09D0FB68D4
:108308000022C3F8D422FB68D3F8B832DB68F868D7
:1083180098478021F86801F0B1FCF86801F0F3F89B
:10832800FB6893F8A032002B3AD0F868FFF742FEBA
:10833800FB68002283F8A02232E0FB7A63F07F0317
:10834800DBB21946F86800F085F90346FB75FB7D3A
:10835800FF2B25D0FB7D002B22D1FB6893F89C32A4
:10836800DBB2032B1CD1FA7DFB68AE3253F8223006
:108378005B69002B14D0FA7DFB68C3F8D422FA7D20
:10838800FB68AE3253F822305B69FA7A1146F86816
:1083980098470346BB75BB7D002B01D0BB7D00E031
:1083A800002318461837BD4680BD80B584B000AF9D
:1083B80078600023FB737B68012283F89C227B682A
:1083C8000022C3F894227B6800225A607B6800224E
:1083D800C3F8A4227B68002283F8A0227B68D3F824
:1083E800B832002B14D07B68D3F8B8325B68002B06
:1083F8000ED07B68D3F8B8325B687A685268D2B21C
:108408001146786898470346002B01D00323FB7375
:10841800402300220021786801F0EBFB7B680122F1
:10842800A3F864217B684022C3F86021402300221E
:108438008021786801F0DDFB7B6801229A847B68E3
:1084480040221A62FB7B18461037BD4680BD80B4B7
:1084580083B000AF78600B46FB707B68FA781A74BB
:10846800002318460C37BD465DF8047B704780B47E
:1084780083B000AF78607B6893F89C32DBB2042B42
:1084880006D07B6893F89C32DAB27B6883F89D2229
:108498007B68042283F89C22002318460C37BD46CB
:1084A8005DF8047B704780B483B000AF78607B6868
:1084B80093F89C32DBB2042B06D17B6893F89D328B
:1084C800DAB27B6883F89C22002318460C37BD4635
:1084D8005DF8047B704780B582B000AF78607B6838
:1084E80093F89C32DBB2032B10D17B68D3F8B832F7
:1084F800002B0BD07B68D3F8B832DB69002B05D092
:108508007B68D3F8B832DB69786898470023184647
:108518000837BD4680BD80B582B000AF78600B4695
:10852800FB707B68D3F8D4227B68AE3253F82230D4
:10853800002B01D103231CE07B6893F89C32DBB24B
:10854800032B15D17B68D3F8D4227B68AE3253F85D
:1085580022301B6A002B0BD07B68D3F8D4227B68AF
:10856800AE3253F822301B6AFA7811467868984779
:10857800002318460837BD4680BD80B582B000AFDD
:1085880078600B46FB707B68D3F8D4227B68AE32E8
:1085980053F82230002B01D103231CE07B6893F8A9
:1085A8009C32DBB2032B15D17B68D3F8D4227B68CD
:1085B800AE3253F822305B6A002B0BD07B68D3F8BD
:1085C800D4227B68AE3253F822305B6AFA781146BF
:1085D80078689847002318460837BD4680BD80B4A0
:1085E80083B000AF7860002318460C37BD465DF8AD
:1085F800047B704780B584B000AF78600023FB73BC
:108608007B68012283F89C227B68D3F8B832002B60
:108618000ED07B68D3F8B8325B687A685268D2B2F9
:108628001146786898470346002B01D00323FB7353
:10863800FB7B18461037BD4680BD80B483B000AFC1
:1086480078600B46FB70002318460C37BD465DF872
:10865800047B704780B483B000AF78600B46FB7032
:10866800002318460C37BD465DF8047B704780B57B
:1086780086B000AF78600B46FB707B687B617B68D7
:10868800FB6000233B61FB685B889AB2FB681B7840
:108698009BB29A4220D9FB681B789BB27B8113E07E
:1086A80007F10A031946786900F01BF878617B69BD
:1086B8005B78052B08D17B693B613B699B78FA782D
:1086C8009A4208D000233B61FB685B889AB27B8999
:1086D8009A42E5D800E000BF3B6918461837BD4606
:1086E80080BD80B485B000AF786039607B68FB607E
:1086F8003B681A88FB681B789BB213449AB23B68A4
:108708001A80FB681B781A467B681344FB60FB6879
:1087180018461437BD465DF8047B704780B487B0AF
:1087280000AF78607B687B617B691B787B827B69A3
:1087380001337B617B691B783B823B8A1B021AB23F
:10874800B7F9123013431BB2FB81FB8918461C375B
:10875800BD465DF8047B704780B584B000AF786093
:1087680039600023FB733B681B7803F06003402BE0
:1087780005D0402B57D8002B0FD0202B53D17B6826
:10878800D3F8D4227B68AE3253F822309B6839681C
:10879800786898470346FB734AE03B685B78092B87
:1087A8003BD801A252F823F0058800081988000870
:1087B800238800080F88000823880008E38700083A
:1087C800D987000823880008FB870008ED87000880
:1087D8003968786800F03CFA24E03968786800F075
:1087E800CBFB1FE03968786800F00AFC0346FB738E
:1087F80018E03968786800F0ADFC13E039687868EB
:1088080000F0DEFC0EE03968786800F00DFD09E044
:108818003968786800F031FD04E03968786800F05C
:1088280088FD00BF04E03968786800F082FD00BF69
:10883800FB7B18461037BD4680BD00BF80B584B0AD
:1088480000AF786039600023FB733B681B7803F046
:108858006003402B05D0402B52D8002B01D0202B91
:108868004ED17B6893F89C32DBB2013B022B40D897
:108878003B689B88DBB2012B36D83B689B88DBB210
:1088880019467868FFF7D9FE0346BB73BB7BFF2BFD
:108898001DD0BB7B002B1AD1BA7B7B68AE3253F854
:1088A80022309B68002B0FD0BA7B7B68C3F8D42298
:1088B800BA7B7B68AE3253F822309B683968786897
:1088C80098470346FB7304E00323FB7301E003238B
:1088D800FB733B68DB88002B10D1FB7B002B0DD191
:1088E800786800F0FDFD09E03968786800F021FD3E
:1088F80004E03968786800F01CFD00E000BF04E07F
:108908003968786800F015FD00BFFB7B1846103702
:10891800BD4680BD80B584B000AF78603960002363
:10892800FB733B689B88BB733B681B7803F0600351
:10893800402B07D0402B00F27F81002B2AD0202B20
:1089480040F07A81BB7B19467868FFF783FE0346BF
:108958007B737B7BFF2B00F074817B7B002B40F0CB
:1089680070817A7B7B68C3F8D4227A7B7B68AE32CD
:1089780053F822309B68002B00F063817A7B7B6878
:10898800AE3253F822309B683968786898470346B6
:10899800FB7356E13B685B78032B08D0032B00F38D
:1089A8004581002B00F09B80012B3CD03EE17B6889
:1089B80093F89C32DBB2022B02D0032B16D02CE0AA
:1089C800BB7B002B0DD0BB7B802B0AD0BB7B194611
:1089D800786801F053F98021786801F04FF900BFF9
:1089E80020E03968786800F0A4FC1BE03B685B88ED
:1089F800002B0ED1BB7B002B0BD0BB7B802B08D070
:108A08003B68DB88002B04D1BB7B1946786801F0F2
:108A180035F9786800F064FD04E03968786800F09A
:108A280088FC00BF07E17B6893F89C32DBB2022B1D
:108A380002D0032B16D04BE0BB7B002B0DD0BB7BA9
:108A4800802B0AD0BB7B1946786801F017F9802182
:108A5800786801F013F900BF40E03968786800F0E1
:108A680068FC3BE03B685B88002B36D1BB7B03F09E
:108A78007F03002B04D0BB7B1946786801F01DF9F1
:108A8800786800F02DFDBB7B19467868FFF7E2FD9A
:108A980003467B737B7BFF2B1FD07B7B002B1CD17A
:108AA8007A7B7B68C3F8D4227A7B7B68AE3253F832
:108AB80022309B68002B10D07A7B7B68AE3253F84B
:108AC80022309B683968786898470346FB7304E04E
:108AD8003968786800F02DFC00E000BFABE07B68E7
:108AE80093F89C32DBB2022B02D0032B32D097E0F2
:108AF800BB7B002B07D0BB7B802B04D03968786800
:108B080000F017FC91E097F90E30002B0BDABB7BD5
:108B180003F07F0213469B0013449B0010337A68CE
:108B2800134404330BE0BB7B03F07F0213469B0026
:108B380013449B0003F5A8737A6813440433BB609D
:108B4800BB6800221A60BB6802221946786800F0E8
:108B58006DFC6AE097F90E30002B11DABB7B03F04D
:108B68000F02796813469B0013449B000B4424337F
:108B78001B88002B17D13968786800F0DAFB54E0BD
:108B8800BB7B03F00F02796813469B0013449B00DC
:108B98000B4403F5B2731B88002B04D1396878683D
:108BA80000F0C7FB41E097F90E30002B0BDABB7BD6
:108BB80003F07F0213469B0013449B0010337A682E
:108BC800134404330BE0BB7B03F07F0213469B0086
:108BD80013449B0003F5A8737A6813440433BB60FD
:108BE800BB7B002B02D0BB7B802B03D1BB68002250
:108BF8001A600EE0BB7B1946786801F07DF80346E1
:108C0800002B03D0BB6801221A6002E0BB68002277
:108C18001A60BB6802221946786800F007FC04E075
:108C28003968786800F085FB00BF04E03968786827
:108C380000F07FFB00BF05E03968786800F079FB39
:108C480000E000BFFB7B18461037BD4680BD000022
:108C580080B584B000AF7860396000233B81002381
:108C6800FB600023FB723B685B881B0A9BB2013BDD
:108C78000E2B00F2528101A252F823F0F58C000865
:108C88000D8D00084D8D0008238F0008238F0008E4
:108C9800C38E0008EF8E0008238F0008238F00087A
:108CA800238F0008238F0008238F0008238F0008D4
:108CB800238F0008C18C00087B68D3F8B432DB69C5
:108CC800002B0BD07B68D3F8B432DB697A68127C4E
:108CD80007F1080110469847F86026E13968786876
:108CE80000F027FBFB7A0133FB721EE17B68D3F8A7
:108CF800B4321B687A68127C07F10801104698475D
:108D0800F86012E17B681B7C002B0DD17B68D3F8DF
:108D1800B8329B6A07F1080210469847F860FB686A
:108D2800013302221A7000E17B68D3F8B832DB6A9B
:108D380007F1080210469847F860FB6801330222E1
:108D48001A70F2E03B685B88DBB2052B00F2AC805E
:108D580001A252F823F000BF798D0008AD8D0008FC
:108D6800E18D0008158E0008498E00087D8E0008E8
:108D78007B68D3F8B4325B68002B0BD07B68D3F8E0
:108D8800B4325B687A68127C07F10801104698478C
:108D9800F86091E03968786800F0CBFAFB7A013323
:108DA800FB7289E07B68D3F8B4329B68002B0BD048
:108DB8007B68D3F8B4329B687A68127C07F10801A3
:108DC80010469847F86077E03968786800F0B1FA9B
:108DD800FB7A0133FB726FE07B68D3F8B432DB684F
:108DE800002B0BD07B68D3F8B432DB687A68127C2E
:108DF80007F1080110469847F8605DE0396878681F
:108E080000F097FAFB7A0133FB7255E07B68D3F8E0
:108E1800B4321B69002B0BD07B68D3F8B4321B69C2
:108E28007A68127C07F1080110469847F86043E019
:108E38003968786800F07DFAFB7A0133FB723BE011
:108E48007B68D3F8B4325B69002B0BD07B68D3F80E
:108E5800B4325B697A68127C07F1080110469847BA
:108E6800F86029E03968786800F063FAFB7A013322
:108E7800FB7221E07B68D3F8B4329B69002B0BD0DE
:108E88007B68D3F8B4329B697A68127C07F10801D1
:108E980010469847F8600FE03968786800F049FA9A
:108EA800FB7A0133FB7207E03968786800F041FA11
:108EB800FB7A0133FB7200BF37E07B681B7C002B19
:108EC80009D17B68D3F8B8325B6B07F1080210460A
:108ED8009847F86029E03968786800F02AFAFB7A40
:108EE8000133FB7221E07B681B7C002B0DD17B6872
:108EF800D3F8B8321B6B07F1080210469847F860A0
:108F0800FB68013307221A700FE03968786800F0AF
:108F180010FAFB7A0133FB7207E03968786800F0D1
:108F280008FAFB7A0133FB7200BFFB7A002B1ED1D3
:108F38003B68DB88002B16D03B89002B0ED03B68A2
:108F4800DA883B89934228BF13469BB23B813B8911
:108F58001A46F968786800F069FA09E039687868AB
:108F680000F0E7F904E0786800F0BAFA00E000BF22
:108F78001037BD4680BD00BF80B584B000AF7860B3
:108F880039603B689B88002B31D13B68DB88002B1C
:108F98002DD13B685B887F2B29D83B685B88DBB287
:108FA80003F07F03FB737B6893F89C32DBB2032BDF
:108FB80004D13968786800F0BCF91DE07B68FA7B59
:108FC80083F89E22FB7B1946786800F0C1FE78681A
:108FD80000F086FAFB7B002B04D07B68022283F822
:108FE8009C2209E07B68012283F89C2204E039680E
:108FF800786800F09EF900BF00BF1037BD4680BDFD
:1090080080B584B000AF786039600023FB733B689B
:109018005B88DAB24E4B1A704D4B1B78012B05D981
:109028003968786800F085F903238CE07B6893F849
:109038009C32DBB2022B02D0032B29D075E0444BC3
:109048001B78002B20D0424B1B781A467B685A604D
:109058003F4B1B7819467868FEF7B7FF0346FB734A
:10906800FB7B002B08D03968786800F062F97B68D0
:10907800022283F89C2265E0786800F031FA7B6868
:10908800032283F89C225DE0786800F029FA59E011
:109098002F4B1B78002B12D17B68022283F89C226D
:1090A8002B4B1B781A467B685A60294B1B7819464C
:1090B8007868FEF7A6FF786800F012FA42E0244BC1
:1090C8001B781A467B685B689A422AD07B685B6883
:1090D800DBB219467868FEF794FF1D4B1B781A46D9
:1090E8007B685A601A4B1B7819467868FEF76DFF43
:1090F8000346FB73FB7B002B0FD03968786800F0C0
:1091080018F97B685B68DBB219467868FEF779FF67
:109118007B68022283F89C2214E0786800F0E0F96A
:1091280010E0786800F0DCF90CE03968786800F045
:1091380000F9074B1B7819467868FEF762FF03238E
:10914800FB7300BFFB7B18461037BD4680BD00BFD0
:10915800E802002080B582B000AF786039603B68D3
:10916800DB88012B04D03968786800F0E2F823E046
:109178007B6893F89C32DBB2022B02DC002B03DC09
:1091880015E0032B0BD012E07B6800229A607B6805
:10919800083301221946786800F048F90CE07B682A
:1091A800043301221946786800F040F904E0396870
:1091B800786800F0BEF800BF00BF0837BD4680BD24
:1091C80080B582B000AF786039607B6893F89C32D4
:1091D800DBB2013B022B1ED83B68DB88022B04D094
:1091E8003968786800F0A5F81AE07B680122DA602F
:1091F8007B68D3F8A432002B05D07B68DB6843F08A
:1092080002027B68DA607B680C33022219467868B0
:1092180000F00CF904E03968786800F08AF800BFBB
:1092280000BF0837BD4680BD80B582B000AF78600A
:1092380039603B685B88012B07D17B680122C3F842
:10924800A422786800F04CF913E03B685B88022B95
:109258000BD13B689B881B0A9BB2DAB27B6883F808
:10926800A022786800F03CF903E03968786800F0DB
:1092780060F800BF0837BD4680BD80B582B000AF3A
:10928800786039607B6893F89C32DBB2013B022B33
:109298000BD83B685B88012B0CD17B680022C3F894
:1092A800A422786800F01CF904E03968786800F0B6
:1092B80040F800E000BF00BF0837BD4680BD80B55C
:1092C80084B000AF786039603B68FB60FB681A784F
:1092D8007B681A70FB680133FB60FB681A787B684F
:1092E8005A70FB680133FB60F868FFF717FA03460A
:1092F8001A467B685A80FB680133FB60FB680133C0
:10930800FB60F868FFF70AFA03461A467B689A80FA
:10931800FB680133FB60FB680133FB60F868FFF70B
:10932800FDF903461A467B68DA8000BF1037BD4650
:1093380080BD80B582B000AF7860396080217868E0
:1093480000F09CFC0021786800F098FC00BF08370A
:10935800BD4680BD80B586B000AFF860B9607A6060
:109368000023FB75FB68002B42D0FB683B61386922
:1093780000F042F8034601335B00B3F5007F08D8DC
:10938800386900F039F8034601339BB25B009AB2A2
:1093980001E04FF400727B681A80FB7DBA681344C1
:1093A8007A6812781A70FB7D0133FB75FB7DBA6809
:1093B800134403221A70FB7D0133FB7513E0FB7D18
:1093C800BA6813443A6912781A703B6901333B61F1
:1093D800FB7D0133FB75FB7DBA68134400221A70CC
:1093E800FB7D0133FB753B691B78002BE7D100E05F
:1093F80000BF1837BD4680BD80B485B000AF786027
:109408000023FB737B68BB6005E0FB7B0133FB73C8
:10941800BB680133BB60BB681B78002BF5D1FB7BB5
:1094280018461437BD465DF8047B704780B584B094
:1094380000AFF860B9607A60FB680222C3F8942232
:10944800FB687A689A61FB687A68DA617B68BA684F
:109458000021F86800F09BFC002318461037BD4631
:1094680080BD80B584B000AFF860B9607A607B6871
:10947800BA680021F86800F08AFC00231846103703
:10948800BD4680BD80B584B000AFF860B9607A6031
:10949800FB680322C3F89422FB687A68C3F8582152
:1094A800FB687A68C3F85C217B68BA680021F868B1
:1094B80000F08EFC002318461037BD4680BD80B5ED
:1094C80084B000AFF860B9607A607B68BA68002140
:1094D800F86800F07DFC002318461037BD4680BDB3
:1094E80080B582B000AF78607B680422C3F894220C
:1094F800002300220021786800F049FC0023184668
:109508000837BD4680BD80B582B000AF78607B6803
:109518000522C3F89422002300220021786800F075
:1095280057FC002318460837BD4680BD80B500AFFC
:10953800002212491248FEF7CBFC0346002B01D04B
:10954800F7F70CFA0F490E48FEF7F2FC0346002B1A
:1095580001D0F7F703FA0C490948FEF79FFC0346C8
:10956800002B01D0F7F7FAF90548FEF717FD034677
:10957800002B01D0F7F7F2F900BF80BDC000002032
:10958800EC02002010000020B000002080B400AFE2
:1095980000231846BD465DF8047B704780B400AFD1
:1095A80000231846BD465DF8047B704780B584B03B
:1095B80000AF03460A46FB711346BB71144BD3F840
:1095C800BC32BB600023FB600BE0BA68FB68134445
:1095D8001978104AFB6813440A461A70FB6801336D
:1095E800FB60FB683F2BF0DD40220A490848FEF784
:1095F800E5FA0748FEF7F0FB0346002B02D04FF0D0
:10960800FF3300E0002318461037BD4680BD00BF79
:10961800EC020020C805002080B483B000AF0346E8
:109628003960FB713B6812221A80034B18460C37CD
:10963800BD465DF8047B7047E000002080B483B02D
:1096480000AF03463960FB713B6804221A80034B64
:1096580018460C37BD465DF8047B704700010020B2
:1096680080B582B000AF03463960FB71FB79002BEF
:1096780005D13A6807490848FFF76CFE04E03A68E4
:1096880004490548FFF766FE024B18460837BD46F1
:1096980080BD00BF08060020A8AD000880B582B0D4
:1096A80000AF03463960FB713A6804490448FFF784
:1096B80051FE024B18460837BD4680BD08060020FB
:1096C800C4AD000880B582B000AF03463960FB71B5
:1096D8003B681A221A8000F055F8024B18460837E2
:1096E800BD4680BD0401002080B582B000AF0346AE
:1096F8003960FB71FB79002B05D13A6807490848A6
:10970800FFF728FE04E03A6804490548FFF722FEFF
:10971800024B18460837BD4680BD00BF080600202A
:10972800CCAD000880B582B000AF03463960FB714C
:10973800FB79002B05D13A6807490848FFF70AFE6C
:1097480004E03A6804490548FFF704FE024B18464E
:109758000837BD4680BD00BF08060020E0AD000800
:1097680080B483B000AF03463960FB713B680C22BC
:109778001A80034B18460C37BD465DF8047B7047CA
:10978800F400002080B584B000AF0F4B1B68FB606D
:109798000E4B1B68BB600E4B1B687B60FA687B68CE
:1097A8001344FB60FB68002B09D008220949F868BC
:1097B80000F014F804220849B86800F00FF800BF58
:1097C8001037BD4680BD00BF20F4F01F24F4F01F01
:1097D80028F4F01F060100201601002080B487B08D
:1097E80000AFF860B9601346FB710023FB750023D6
:1097F800FB7527E0FB681B0F092B0BD8FB681B0FB9
:10980800DAB2FB7D5B001946BB680B443032D2B23A
:109818001A700AE0FB681B0FDAB2FB7D5B00194681
:10982800BB680B443732D2B21A70FB681B01FB606D
:10983800FB7D5B000133BA68134400221A70FB7D7C
:109848000133FB75FA7DFB799A42D3D300BF00BF81
:109858001C37BD465DF8047B7047000080B5AEB08C
:1098680000AF786007F1A40300221A605A609A607A
:10987800DA601A6107F1140390220021184600F0FB
:1098880083FB7B681B68B3F1A04F51D14FF40013E1
:109898007B610023C7F8903007F114031846FAF7E4
:1098A800D3F90346002B01D0F7F758F8224B1B6B6E
:1098B800214A43F0010313631F4B1B6B03F00103A1
:1098C8003B613B694FF4C053C7F8A4300223C7F883
:1098D800A8300023C7F8AC300323C7F8B0300A23F8
:1098E800C7F8B43007F1A40319461448F8F778F814
:1098F800114B5B6B104A43F0800353630E4B5B6B59
:1099080003F08003FB60FB680B4B5B6C0A4A43F473
:1099180080435364084B5B6C03F48043BB60BB68B3
:10992800002200214320F7F71AFC4320F7F733FC05
:1099380000BFB837BD4680BD003802400000024075
:1099480080B582B000AF78607B68D3F8DC247B6890
:1099580003F29C4319461046FEF76DFB00BF08371B
:10996800BD4680BD80B582B000AF78600B46FB7005
:109978007B68D3F8DC04FA7879681346DB00134473
:109988009B000B4403F518731A68FB781946FEF719
:10999800A7FB00BF0837BD4680BD80B582B000AFC9
:1099A80078600B46FB707B68D3F8DC04FA7879683A
:1099B8001346DB0013449B000B4420331A68FB78E2
:1099C8001946FEF740FC00BF0837BD4680BD80B58C
:1099D80082B000AF78607B68D3F8DC341846FEF7B5
:1099E8007AFD00BF0837BD4680BD80B584B000AFA2
:1099F80078600123FB737B68DB79002B02D100239D
:109A0800FB7308E07B68DB79022B02D10123FB732F
:109A180001E0F6F7A3FF7B68D3F8DC34FA7B114644
:109A28001846FEF714FD7B68D3F8DC341846FEF7B9
:109A3800BCFC00BF1037BD4680BD000080B582B0B9
:109A480000AF78607B68D3F8DC341846FEF70FFD6A
:109A58007B681B6803F560631B687A68126802F507
:109A6800606243F0010313607B68DB7A002B05D04A
:109A7800044B1B69034A43F00603136100BF083710
:109A8800BD4680BD00ED00E080B582B000AF7860D3
:109A98007B68D3F8DC341846FEF705FD00BF0837AD
:109AA800BD4680BD80B582B000AF78600B46FB70C4
:109AB8007B68D3F8DC34FA7811461846FEF75DFD6A
:109AC80000BF0837BD4680BD80B582B000AF786062
:109AD8000B46FB707B68D3F8DC34FA7811461846DD
:109AE800FEF719FD00BF0837BD4680BD80B582B0BE
:109AF80000AF78607B68D3F8DC341846FEF76FFD5A
:109B080000BF0837BD4680BD80B582B000AF786021
:109B18007B68D3F8DC341846FEF76CFD00BF0837C5
:109B2800BD4680BD80B582B000AF78607B681B7889
:109B3800002B3CD1204A7B68C2F8DC347B681E4A83
:109B4800C3F8C8221C4B4FF0A0421A601A4B0622D9
:109B58001A71194B0222DA71174B00229A71164BAF
:109B680002225A72144B01229A72134B0022DA72A3
:109B7800114B00221A73104B00229A730E4B0022CD
:109B8800DA730D48F8F70BF90346002B01D0F6F706
:109B9800E5FE80210848F9F73EFB402200210648EF
:109BA800F9F7F2FA802201210348F9F7EDFA0023C8
:109BB80018460837BD4680BD0808002080B584B027
:109BC80000AF78600023FB730023BB737B68D3F876
:109BD800C8321846F8F7F9F90346FB73FB7B1846B9
:109BE80000F06CF90346BB73BB7B18461037BD46C3
:109BF80080BD80B584B000AF7860084611461A462B
:109C08000346FB700B46BB7013463B800023FB7377
:109C18000023BB737B68D3F8C802BB783A88F9780D
:109C2800F8F7E7FE0346FB73FB7B184600F046F99E
:109C38000346BB73BB7B18461037BD4680BD80B555
:109C480084B000AF78600B46FB700023FB730023E1
:109C5800BB737B68D3F8C832FA7811461846F8F710
:109C680030FF0346FB73FB7B184600F027F90346D9
:109C7800BB73BB7B18461037BD4680BD80B584B02A
:109C880000AF78600B46FB700023FB730023BB73A7
:109C98007B68D3F8C832FA7811461846F8F7D0FF2F
:109CA8000346FB73FB7B184600F008F90346BB73B9
:109CB800BB7B18461037BD4680BD80B584B000AF69
:109CC80078600B46FB700023FB730023BB737B6833
:109CD800D3F8C832FA7811461846F9F714F803464B
:109CE800FB73FB7B184600F0E9F80346BB73BB7BAC
:109CF80018461037BD4680BD80B485B000AF786087
:109D08000B46FB707B68D3F8C832FB6097F90330C9
:109D1800002B0BDAFB7803F07F02F9681346DB00AF
:109D280013449B000B4416331B780BE0FB7803F0BD
:109D38007F02F9681346DB0013449B000B4403F2CF
:109D480056231B7818461437BD465DF8047B7047C8
:109D580080B584B000AF78600B46FB700023FB73BE
:109D68000023BB737B68D3F8C832FA7811461846CB
:109D7800F8F71BFE0346FB73FB7B184600F09EF8C2
:109D88000346BB73BB7B18461037BD4680BD80B504
:109D980086B000AFF8607A603B600B46FB72002328
:109DA800FB750023BB75FB68D3F8C802F97A3B68DA
:109DB8007A68F8F70BFF0346FB75FB7D184600F041
:109DC8007DF80346BB75BB7D18461837BD4680BD78
:109DD80080B586B000AFF8607A603B600B46FB72D6
:109DE8000023FB750023BB75FB68D3F8C802F97A1A
:109DF8003B687A68F8F7AFFE0346FB75FB7D1846AB
:109E080000F05CF80346BB75BB7D18461837BD46A5
:109E180080BD000080B582B000AF78600B46FB7053
:109E2800FB78002B02D0012B1FD03BE07B68DB7A4C
:109E3800002B07D000F03CF81C4B1B691B4A23F091
:109E4800060313617B681B6803F560631B687A6807
:109E5800126802F5606223F0010313607B68D3F88F
:109E6800DC341846FEF71FFB1CE07B681B6803F513
:109E780060631B687A68126802F5606243F0010348
:109E880013607B68D3F8DC341846FEF7F0FA7B6879
:109E9800DB7A002B05D0054B1B69044A43F0060307
:109EA800136100BF00BF0837BD4680BD00ED00E06C
:109EB80080B500AFF6F7E4FC00BF80BD80B485B084
:109EC80000AF0346FB710023FB73FB79032B17D804
:109ED80001A252F823F000BFF19E0008F79E000887
:109EE800FD9E0008039F00080023FB730BE003237B
:109EF800FB7308E00123FB7305E00323FB7302E017
:109F08000323FB7300BFFB7B18461437BD465DF87F
:109F1800047B7047014B1868704700BF2001002080
:109F280070B50D4D0D4C641BA4100026A64209D136
:109F38000B4D0C4C00F026FF641BA4100026A64213
:109F480005D170BD55F8043B98470136EEE755F842
:109F5800043B98470136F2E7F8AF0008F8AF00086D
:109F6800F8AF0008FCAF0008024B0146186800F083
:109F78007FB800BF20010020024B0146186800F09E
:109F88000BB800BF2001002002440346934200D1D1
:109F9800704703F8011BF9E737B5002944D051F899
:109FA800043C0190002BA1F10404B8BFE41800F0B0
:109FB800E3F81E4A0198136833B96360146003B06C
:109FC800BDE8304000F0DEB8A34208D92568611921
:109FD8008B4201BF19685B6849192160EDE71A4691
:109FE8005B680BB1A342FAD911685518A5420BD189
:109FF800246821445418A3421160E0D11C685B68AE
:10A00800536021441160DAE702D90C230360D6E7D4
:10A01800256861198B4204BF19685B68636004BFD7
:10A02800491921605460CAE703B030BDE80C00202C
:10A0380070B50E4E0C463168054611B900F08CF823
:10A0480030602146284600F087F8431C0AD0C41C1B
:10A0580024F00304A04207D0211A284600F07CF817
:10A06800013001D14FF0FF34204670BDEC0C0020C8
:10A078002DE9F041CD1C25F0030508350C2D38BF1E
:10A088000C25002D074601DBA94205D90C233B60AE
:10A0980000263046BDE8F0812E4E00F06DF833689A
:10A0A8001C4634BB29463846FFF7C2FF431C04460A
:10A0B8004DD134682646002E40D1236831463846B3
:10A0C80004EB030800F048F880453AD121680335CD
:10A0D8006D1A25F0030508350C2D38BF0C252946C7
:10A0E8003846FFF7A5FF01302BD023682B442360A7
:10A0F8000EE02268521B1ED40B2A16D96119A342FE
:10A10800256018BF5960636808BF316062514B60B1
:10A11800384604F10B0600F035F826F00706231D33
:10A12800F21AB6D09B1BA350B3E76268A3420CBFD8
:10A1380032605A60ECE723466468B2E734467668D2
:10A14800B9E70C233B60384600F01CF8A1E725600E
:10A15800DEE700BFE80C002038B5064D00230446B2
:10A1680008462B60F6F76CFC431C02D12B6803B140
:10A17800236038BDF00C0020014800F009B800BF8A
:10A18800F40C0020014800F004B800BFF40C0020D3
:10A1980070477047000000001FB5B0EE407B17EE17
:10A1A800903A214A23F00043934207DC9FED1C1BA1
:10A1B800002005B05DF804EB00F082BC1B4A934216
:10A1C80004DD30EE400B05B05DF804FB684600F096
:10A1D8002FF800F0030001280AD002280FD0C0B9D8
:10A1E8009DED021B9DED000B012000F069FCEAE7E4
:10A1F8009DED021B9DED000B00F05EF9E3E79DED80
:10A20800021B9DED000B012000F05AFCB1EE400B43
:10A21800D9E79DED021B9DED000B00F04DF9F5E728
:10A228000000000000000000FB21E93FFFFFEF7F76
:10A2380070B5B0EE407B17EE905A994B25F000466A
:10A248009E4288B0044607DC0022002384ED000B00
:10A25800C0E9022300201BE0924B9E423BDCA3F5A1
:10A268001B23002D9FED7E6BA3F5F06319DD30EE07
:10A27800467B9E420ED09FED7C6B37EE465B37EEF9
:10A28800457B84ED005B37EE467B84ED027B012045
:10A2980008B070BD9FED766B37EE467B9FED766B11
:10A2A800EBE79E4230EE067B0ED09FED6F6B37EEEC
:10A2B800065B37EE457B84ED005B37EE067B4FF09F
:10A2C800FF3084ED027BE3E79FED696B37EE067B99
:10A2D8009FED696BEBE7744B9E4270DC00F048FC25
:10A2E800B6EE007B9FED666BA0EE067BFDEEC77BAE
:10A2F800B8EEE75B17EE900AB1EE454B9FED587B41
:10A30800A5EE470B9FED587B1F2825EE077B30EE07
:10A31800476B08DC654B421E53F82230B34202D02B
:10A3280084ED006B26E016EE903AC3F30A53C3EBB4
:10A338001653102B4FEA2652F2DDB0EE406B9FED1C
:10A348004C7B9FED4D3BA4EE076B30EE460BA4EE25
:10A35800070BB0EE407B95EE037B36EE473B13EEE2
:10A36800903AC3F30A53D31A312B17DCB0EE460BDD
:10A3780084ED003B94ED006B002D30EE460B30EE83
:10A38800470B84ED020B83DAB1EE466BB1EE400B5E
:10A3980084ED006B84ED020B404279E79FED3A3B78
:10A3A800B0EE460BA4EE030B36EE407B9FED386B08
:10A3B800A4EE037B95EE067B30EE476BB0E73C4B93
:10A3C8009E4206DD30EE407B80ED027B80ED007B17
:10A3D80040E7321510EE100AA2F21642A6EB02511F
:10A3E80041EC170BBDEEC76B9FED2B5BB8EEC66B50
:10A3F80037EE467B8DED026B27EE057BBDEEC76B16
:10A4080002A9B8EEC66B37EE467B8DED046B27EEDE
:10A41800057B8DED067B0326084691ED047BB5EEA2
:10A42800407BF1EE10FA3346A1F1080106F1FF3640
:10A43800F3D02049019102210091214600F0A8F8AB
:10A44800002DBFF625AF94ED007BB1EE477B84ED80
:10A45800007B94ED027BB1EE477B84ED027B9BE7AA
:10A4680000004054FB21F93F3163621A61B4D03DCA
:10A478000000601A61B4D03D7370032E8A19A33BA3
:10A4880083C8C96D305FE43F0000002E8A19A33BE2
:10A49800C14920259A837B390000000000007041E3
:10A4A800FB21E93F7BD90240FB21394118AE000866
:10A4B800FFFFEF7F98AE000810EE901AB7EE004B42
:10A4C80021F00041B1F1795F05DAFDEEC07B17EEAE
:10A4D800903A002B3DD020EE003B9FED1F7B9FED77
:10A4E800206BA3EE076B9FED207BA6EE037B9FED11
:10A4F800206BA7EE036B9FED207B234BA6EE037B1F
:10A508009FED1F6B9942A7EE036BB6EE007B26EE1C
:10A51800035B23EE077B21EE406BA3EE056B04DCA7
:10A5280037EE466B34EE460B7047184B99420DDCFC
:10A538000022A1F5001343EC152B34EE450B37EE42
:10A54800457B37EE467B30EE470B7047B5EE025B36
:10A55800F3E7B0EE440B7047D43888BEE9FAA8BDDB
:10A56800C4B1B4BD9EEE213EAD529C804F7E92BEDA
:10A578009015CB19A001FA3E7751C1166CC156BF90
:10A588004C5555555555A53F3233D33F0000E93F4B
:10A598002DE9F04F2DED068BADF5137D0F4602909A
:10A5A800C549A298DDF88CE251F82090019312F188
:10A5B800140FA8BF182003F1FF31B8BF00206FF0B7
:10A5C80017049FEDB76BA4BFA2F1030A9AFBF0F042
:10A5D80000FB0444461A144409EB010C1AAD0EEBB7
:10A5E80086080022624510DD019A1AAB03EBC2020D
:10A5F8000DF5D47A4FF0000CCC4526DC9FEDA87BF6
:10A60800DDF808801646002515E0D64209D458F82A
:10A61800223007EE903AB8EEE77BA5EC027B0132D8
:10A62800E0E7B0EE467BF8E7B8EC025B96ED006B2E
:10A638000135A5EE067B8D42A6F10806F4DDAAECED
:10A64800027B0CF1010C0832D6E706AB9FED969B16
:10A658009FED97AB03EB890303930EEB800A4D46FE
:10A66800EB00049392AB03EBC5020DF1180B6AAB38
:10A6780012ED280B5E4603EBC50228460028A2F11E
:10A6880008024CDC2046059100F0F2FAB0EE408B4F
:10A69800B4EE000B28EE000B00F076FAB2EE007B69
:10A6A800A0EE478BFDEEC87B002CB8EEE70B17EE4B
:10A6B800908A38EE408B059943DD681E06ABC4F1DD
:10A6C800180C53F8206046FA0CF2904402FA0CF287
:10A6D800B61AC4F1170243F820601641002E3FDD78
:10A6E8004FF0000C08F1010860466FF07F4E654599
:10A6F8006EDC002C04DD012C7FD0022C00F087805A
:10A70800022E2DD1B7EE000B30EE488B40B3204619
:10A71800059100F0ADFA059938EE408B20E020EE67
:10A72800097BBDEEC77B0138B8EEC77BA7EE4A0BA5
:10A73800BDEEC00BA6EC010A92ED000B37EE000B44
:10A748009CE705D16A1E06AB53F82260F615C5E7EB
:10A75800B6EE007BB4EEC78BF1EE10FA36DA0026BF
:10A76800B5EE408BF1EE10FA40F0AA8005F1FF3B00
:10A7780058460022484552DA002A00F0818006AB8C
:10A78800183C53F82B30002B00F08780B7EE000BF5
:10A79800204600F06DFA4FEACB039FED436B6AA9A0
:10A7A80003F1080288185946002980F2B7805946F3
:10A7B8000029C0F2D5806AA800EBC1059FED387B5F
:10A7C800DFF8F8C00024ABEB0100BEE0022687E703
:10A7D800DBF8002058B922B1C2F18072CBF8002012
:10A7E80001220CF1010C0BF1040B10467FE7AEEBD4
:10A7F8000202CBF800200246F3E705F1FF3C06AB66
:10A8080053F82C20C2F3160243F82C2078E705F100
:10A81800FF3C06AB53F82C20C2F31502F4E706AB55
:10A8280053F8203001381A43A4E70CF1010C52F810
:10A83800040D0028F9D0049B03F512730DEB0302F5
:10A84800019BE8181AAB6E1C983A03EBC0006544EC
:10A85800B542FFF605AF5AF82630DDF808E007EEF6
:10A86800903AB8EEE77B4FF0000CA0EC027B9FED2E
:10A878000C7B80468C4507DDA2EC027B0136E7E7BE
:10A88800039A4FF0010CD2E7BEEC025B38ED026B85
:10A898000CF1010CA5EE067BECE70BF1FF3B6EE734
:10A8A8000000000000000000000000000000703EF2
:10A8B8000000000000007041E0AF0008A0AF0008F1
:10A8C8006042B0EE480B00F0D3F99FED776BB4EE21
:10A8D800C60BF1EE10FA18DB9FED757B20EE077BB7
:10A8E800BDEEC77B06AAB8EEC75BA5EE460BBDEE6C
:10A8F800C00B05F1010B10EE103A42F8253017EEA7
:10A90800103A183442F82B3040E7BDEEC00B06AAC7
:10A9180010EE103AAB4642F8253037E706AC54F84B
:10A928002140019407EE904A0139B8EEE77B27EE03
:10A93800007B20EE060B20ED027B35E7BCEC025BCA
:10A94800B5EC026B0134A5EE067B4C4501DC844274
:10A95800F4DD42AC04EBC00080ED007B013927E751
:10A96800A29902290ADC00292CDC45D008F007004E
:10A978000DF5137DBDEC068BBDE8F08FA29A032A76
:10A98800F4D142AA13441A46194658460028A1F1A0
:10A99800080154DC59460129A2F108025FDC9FED49
:10A9A800467B0833BBF1010F69DC9DED425B9DEDF1
:10A9B800446B002E6AD187ED005B87ED026B87ED53
:10A9C800047BD3E79FED3C6B42AB1A445B46002BFC
:10A9D80026DA5EB3B1EE467B87ED007B9DED427BC8
:10A9E80044AA012337EE467B9B4522DA0EB1B1EE2D
:10A9F800477B87ED027BB9E79FED2F7B42AB1A447B
:10AA0800BBF1000F05DA0EB1B1EE477B87ED007B95
:10AA1800ACE732ED026B0BF1FF3B37EE067BEFE75D
:10AA280032ED027B013B36EE076BD0E7B0EE467B9A
:10AA3800D2E7B2EC026B013337EE067BD4E791ED37
:10AA4800007B91ED025B013837EE056B37EE467BF4
:10AA580081ED006B37EE057B81ED027B96E792ED89
:10AA6800007B92ED025B013937EE056B37EE467BD2
:10AA780082ED006B37EE057B82ED027B8BE733EDD1
:10AA8800026B0BF1FF3B37EE067B8BE7B1EE455BC4
:10AA9800B1EE466B87ED005BB1EE477B87ED026B4D
:10AAA8008DE700BFAFF30080000000000000704198
:10AAB800000000000000703E0000000000000000E0
:10AAC80010EE903A23F00043B3F1795F04DAFDEE1B
:10AAD800C07B17EE903A5BB320EE006B20EE065B6E
:10AAE8009FED157B9FED164BA6EE074B9FED167B52
:10AAF800A4EE067B9FED164BA7EE064B9FED167B4B
:10AB0800A4EE067B30B99FED164BA6EE074BA4EEDC
:10AB1800050B704727EE457BB6EE004BA1EE047B94
:10AB280097EE061B9FED107BA5EE071B30EE410B41
:10AB3800704700BFAFF300807CD5CF5A3AD9E53DC6
:10AB4800EB9C2B8AE6E55ABE7DFEB157E31DC73E56
:10AB5800D561C119A0012ABFA6F810111111813FB2
:10AB6800495555555555C5BF495555555555C53F71
:10AB780051EC100B10EE102A21F0004343EC102B7F
:10AB8800704700000000000010EE901AC1F30A524E
:10AB9800A2F2FF33132B30B510EE100A10EE105A44
:10ABA80031DC002B15DA9FED2E7B30EE070BB5EE6E
:10ABB800C00BF1EE10FA07DD00294EDA21F0004350
:10ABC800184301D0284900200B46024643EC102BBD
:10ABD80020E0264A1A4101EA020404431AD09FEDF4
:10ABE800207B30EE070BB5EEC00BF1EE10FAEBDD73
:10ABF8000029BEBF4FF4801040FA03F3C91821EAB8
:10AC080002010020E0E7332B05DDB3F5806F01D1A9
:10AC180030EE000B30BDA2F213444FF0FF32E24099
:10AC28000242F7D09FED0E7B30EE070BB5EEC00B5E
:10AC3800F1EE10FAC8DD002902DA142B03D1013134
:10AC480020EA0200C0E70124C3F1340304FA03F345
:10AC58001844A84238BF0919F2E700200146B3E7B3
:10AC68009C7500883CE4377E0000F0BFFFFF0F00B2
:10AC780010EE901A10B5C1F30A548CB910EE103AC0
:10AC880021F000410B4311D09FED317B3C4B20EE6E
:10AC9800070B98420BDA9FED307B20EE070B05E09F
:10ACA80040F2FF739C4207D130EE000B10BD10EE4E
:10ACB800901AC1F30A54363C044440F2FE739C4295
:10ACC8000DDD9FED277B9FED285BB0EE476B10EE07
:10ACD800903A002B27FE057B27EE060BE6E7002CB3
:10ACE8000ADD21F0FF4153EC102B21F4E00141EA89
:10ACF800045343EC102BD9E714F1350F19DA4CF251
:10AD08005033984210EE903A03F0004309DD9FED6E
:10AD1800140B9FED156BB0EE407B002B00FE060B6D
:10AD2800BBE79FED0D0B9FED126BB0EE407B002B48
:10AD3800F4E721F0FF4153EC102B363421F4E00105
:10AD480041EA04539FED0C7B43EC102BA5E700BFB1
:10AD5800000000000000504359F3F8C21F6EA5011F
:10AD68009C7500883CE4377E9C7500883CE437FE7F
:10AD780059F3F8C21F6EA581000000000000903C46
:10AD8800B03CFFFFF8B500BFF8BC08BC9E46704752
:0CAD9800F8B500BFF8BC08BC9E46704730
:10ADA800436D7920437573746F6D2048756D616EBE
:10ADB80020696E746572666163650000436D794849
:10ADC80069640000437573746F6D204849442043DB
:10ADD8006F6E666967000000437573746F6D204875
:10ADE800494420496E74657266616365000000001D
:10ADF8000000000000000000010203040607080923
:10AE080000000000010203040006101600061016D8
:10AE1800FB21F93FFB2109407CD91240FB21194055
:10AE28007A6A1F407CD92240BBFD2540FB2129407E
:10AE38003A462C407A6A2F405C4731407CD93240F0
:10AE48009C6B3440BBFD3540DB8F3740FB213940DC
:10AE58001BB43A403A463C405AD83D407A6A3F4093
:10AE68004C7E40405C4741406C1042407CD9424097
:10AE78008CA243409C6B4440AC344540BBFD4540EC
:10AE8800CBC64640DB8F4740EB584840FB21494042
:10AE980083F9A200444E6E00FC291500D157270003
:10AEA800DD34F50062DBC0003C9995004190430019
:10AEB8006351FE00BBDEAB00B761C5003A6E2400EB
:10AEC800D24D42004906E00009EA2E001C92D1004A
:10AED800EB1DFE0029B11C00E83EA700F5358200F5
:10AEE80044BB2E009CE98400B4267000417E5F00BC
:10AEF800D6913900538339009CF439008B5F840064
:10AF080028F9BD00F81F3B00DEFF97000F980500E9
:10AF1800112FEF000A5A8B006D1F6D00CF7E36008F
:10AF280009CB2700464FB7009E663F002DEA5F0019
:10AF3800BA277500E5EBC7003D7BF100F73907003C
:10AF480092528A00FB6BEA001FB15F00085D8D001A
:10AF5800300356007BFC4600F0AB6B0020BCCF00F2
:10AF680036F49A00E3A91D005E619100081BE60013
:10AF780085996500A0145F008D40680080D8FF00A7
:10AF880027734D0006063100CA561500C9A873007C
:10AF98007BE260006B8CC00000000040FB21F93FA1
:10AFA800000000002D44743E000000809846F83CE4
:10AFB8000000006051CC783B00000080831BF03912
:10AFC8000000004020257A38000000802282E33605
:10AFD800000000001DF369350200000003000000B6
:08AFE800040000000600000057
:08AFF0007852FF7F0100000010
:04AFF8001D0200082E
:04AFFC00F90100084F
:10B000000024F400FF000000100000000100000018
:10B0100031770008897800087D7900080000000079
:10B020002D7E0008597D0008877D00080000000083
:10B030000000000000000000917C00082D7C00084A
:10B04000F57C0008857E000809022900010100C086
:10B05000320904000002030000000921110100016F
:10B060002221000705810340000507050103400078
:10B07000050000000921110100012221000000004B
:10B080000A0600020000004001008101059309004A
:10B09000A180090115002600FF750895408102096D
:10B0A0000215002600FF750895409102C0000000BF
:10B0B0008C00002095950008A5950008B59500081E
:10B0C0002196000845960008A59600086996000894
:10B0D000CD960008F19600082D97000869970008A2
:10B0E00012010102000000408304505700020102D7
:10B0F00003010000050F0C00010710020200000010
:10B10000040309041A03000000000000000000000E
:10B11000000000000000000000000000000000002F
:10B1200024010020000000000000000000000000DA
:10B13000000000000000000000000000000000000F
:10B1400000000000000000000000000000000000FF
:10B1500000000000000000000000000000000000EF
:10B1600000000000000000000000000000000000DF
:10B1700000000000000000000000000000000000CF
:04B1800000000000CB
:0400000508000E5D84
:00000001FF
