:020000040800F2
:1000000000000820710E00088D0A0008930A0008FD
:10001000990A00089F0A0008A50A000800000000CD
:10002000000000000000000000000000AB0A000813
:10003000B90A000800000000C70A0008D50A000835
:10004000C10E0008C10E0008C10E0008C10E000854
:10005000C10E0008C10E0008C10E0008C10E000844
:10006000C10E0008C10E0008C10E0008C10E000834
:10007000E10A0008C10E0008C10E0008C10E000808
:10008000C10E0008C10E0008C10E0008C10E000814
:10009000C10E0008C10E0008C10E0008C10E000804
:1000A000C10E0008C10E0008C10E0008C10E0008F4
:1000B000C10E0008C10E0008C10E0008C10E0008E4
:1000C000C10E0008C10E0008C10E0008C10E0008D4
:1000D000C10E0008C10E0008C10E0008F50A000894
:1000E000C10E0008C10E0008C10E0008C10E0008B4
:1000F000C10E0008C10E0008C10E0008C10E0008A4
:10010000C10E0008C10E0008C10E0008C10E000893
:10011000C10E0008C10E0008C10E0008C10E000883
:10012000C10E0008C10E0008C10E0008C10E000873
:10013000C10E0008C10E0008C10E0008C10E000863
:10014000C10E0008C10E0008C10E0008C10E000853
:10015000C10E0008C10E0008C10E0008C10E000843
:10016000C10E0008C10E0008C10E0008C10E000833
:10017000C10E0008C10E0008C10E000800000000FA
:10018000C10E0008C10E0008C10E0008C10E000813
:10019000C10E0008C10E0008C10E0008C10E000803
:1001A000C10E0008C10E0008C10E0008C10E0008F3
:1001B000C10E0008C10E0008C10E0008C10E0008E3
:1001C000C10E0008C10E000800000000C10E0008AA
:1001D000C10E0008C10E0008C10E0008C10E0008C3
:1001E000C10E0008C10E0008C10E0008C10E0008B3
:0801F000C10E0008C10E000859
:1001F80010B5054C237833B9044B13B10448AFF359
:1002080000800123237010BDF000002000000000D2
:100218008899040808B5034B1BB103490348AFF399
:10022800008008BD00000000F40000208899040840
:1002380010F8012B11F8013B012A28BF9A42F7D088
:10024800D01A7047034613F8012B002AFBD1181A5D
:100258000138704753B94AB9002908BF00281CBFA4
:100268004FF0FF314FF0FF3000F074B9ADF1080CDA
:100278006DE904CE00F006F8DDF804E0DDE90223BC
:1002880004B070472DE9F047089D04468E46002BC0
:100298004DD18A42944669D9B2FA82F252B101FA32
:1002A80002F3C2F1200120FA01F10CFA02FC41EA42
:1002B800030E94404FEA1C48210CBEFBF8F61FFAC7
:1002C8008CF708FB16E341EA034306FB07F1994262
:1002D8000AD91CEB030306F1FF3080F01F81994215
:1002E80040F21C81023E63445B1AA4B2B3FBF8F0EF
:1002F80008FB103344EA034400FB07F7A7420AD976
:100308001CEB040400F1FF3380F00A81A74240F29D
:1003180007816444023840EA0640E41B00261DB108
:10032800D4400023C5E900433146BDE8F0878B423D
:1003380009D9002D00F0EF800026C5E900013046FC
:100348003146BDE8F087B3FA83F6002E4AD18B42D6
:1003580002D3824200F2F980841A61EB0303012080
:100368009E46002DE0D0C5E9004EDDE702B9FFDE6C
:10037800B2FA82F2002A40F09280A1EB0C014FEA17
:100388001C471FFA8CFE0126200CB1FBF7F307FB74
:10039800131140EA01410EFB03F0884208D91CEB17
:1003A800010103F1FF3802D2884200F2CB804346B4
:1003B800091AA4B2B1FBF7F007FB101144EA014493
:1003C8000EFB00FEA64508D91CEB040400F1FF3122
:1003D80002D2A64500F2BB800846A4EB0E0440EA10
:1003E80003409CE7C6F12007B34022FA07FC4CEA19
:1003F800030C20FA07F401FA06F31C43F9404FEA0C
:100408001C4900FA06F3B1FBF9F8200C1FFA8CFE20
:1004180009FB181140EA014108FB0EF0884202FA74
:1004280006F20BD91CEB010108F1FF3A80F0888035
:10043800884240F28580A8F102086144091AA4B2F2
:10044800B1FBF9F009FB101144EA014100FB0EFE73
:100458008E4508D91CEB010100F1FF346CD28E45A2
:100468006AD90238614440EA0840A0FB0294A1EB33
:100478000E01A142C846A64656D353D05DB1B3EB90
:10048800080261EB0E0101FA07F722FA06F3F140C0
:100498001F43C5E9007100263146BDE8F087C2F167
:1004A8002003D8400CFA02FC21FA03F391400143DF
:1004B8004FEA1C471FFA8CFEB3FBF7F007FB103618
:1004C8000B0C43EA064300FB0EF69E4204FA02F4C4
:1004D80008D91CEB030300F1FF382FD29E422DD917
:1004E800023863449B1B89B2B3FBF7F607FB16334C
:1004F80041EA034106FB0EF38B4208D91CEB0101CC
:1005080006F1FF3816D28B4214D9023E6144C91A4B
:1005180046EA004638E72E46284605E70646E3E65B
:100528001846F8E64B45A9D2B9EB020864EB0C0E65
:100538000138A3E74646EAE7204694E74046D1E774
:10054800D0467BE7023B614432E7304609E7644422
:10055800023842E7704700BF80B582B000AF0C4B4D
:100568001B6B0B4A43F400131363094B1B6B03F417
:1005780000137B607B68002200210C2000F0D5FD71
:100588000C2000F0EEFD00BF0837BD4680BD00BF5F
:100598000038024080B58EB000AF07F12403002276
:1005A8001A605A609A60DA601A616F4B1B6B6E4A68
:1005B80043F0100313636C4B1B6B03F010033B6297
:1005C8003B6A694B1B6B684A43F004031363664B31
:1005D8001B6B03F00403FB61FB69634B1B6B624AF3
:1005E80043F020031363604B1B6B03F02003BB61D4
:1005F800BB695D4B1B6B5C4A43F0800313635A4B2A
:100608001B6B03F080037B617B69574B1B6B564A5E
:1006180043F001031363544B1B6B03F001033B616D
:100628003B69514B1B6B504A43F0020313634E4B1B
:100638001B6B03F00203FB60FB684B4B1B6B4A4AC6
:1006480043F040031363484B1B6B03F04003BB604C
:10065800BB68454B1B6B444A43F008031363424B8A
:100668001B6B03F008037B607B68002280213F48F6
:1006780001F048FB4FF6FF737B620323BB62002344
:10068800FB6207F124031946394801F08FF94FF648
:10069800FF737B620323BB620023FB6207F1240321
:1006A8001946344801F082F94FF6FF737B62032341
:1006B800BB620023FB6207F1240319462E4801F0B0
:1006C80075F903237B620323BB620023FB6207F1F6
:1006D80024031946294801F069F949F6FF737B623A
:1006E8000323BB620023FB6207F124031946244855
:1006F80001F05CF94FF67F737B620323BB62002332
:10070800FB6207F124031946184801F04FF94FF628
:10071800FF737B620323BB620023FB6207F12403A0
:100728001946184801F042F94FF6FF437B6203234C
:10073800BB620023FB6207F124031946124801F04B
:1007480035F980237B620123BB620023FB6200230F
:100758003B6307F124031946044801F027F900BF59
:100768003837BD4680BD00BF003802400004024053
:10077800001002400008024000140240001C024021
:100788000000024000180240000C024080B500AF93
:1007980000F093FB00F032F8FFF7FCFEFFF7DCFEF9
:1007A80000F058FA00F0BEF900F028FA00F01EFB3D
:1007B80008F058FA00F09AF80C490D4800F028FAA9
:1007C8000346002B03D180210A4801F0B4FA41F214
:1007D8008831094800F01CFA0346002BECD137F0A9
:1007E800CDF9052032F004FDE6E700BFA086010040
:1007F8000C010020000402401001002080B594B0D4
:1008080000AF07F11C0334220021184649F0A8F86C
:1008180007F1080300221A605A609A60DA601A61C8
:100828002B4B1B6C2A4A43F080531364284B1B6CD8
:1008380003F080537B607B68264B1B68254A43F492
:1008480040431360234B1B6803F440433B603B6801
:100858000223FB610123BB621023FB6202237B633B
:100868000023BB630823FB63D8233B6402237B6418
:100878000223BB640223FB6407F11C03184601F042
:10088800C5FA0346002B01D000F0D3F801F06EFA48
:100898000346002B01D000F0CCF80F23BB600223E5
:1008A800FB6000233B614FF4A0537B614FF48053FE
:1008B800BB6107F108030721184601F055FD0346FF
:1008C800002B01D000F0B5F800BF5037BD4680BD01
:1008D800003802400070004080B483B000AF7860F8
:1008E80000BF0C37BD465DF8047B704790B585B0F6
:1008F80002AF00220A21214837F00AFA4FF4FA33EE
:1009080000221F491F4832F011FA1F4832F0CCF973
:100918001D4B1C4ADA601C4B1C4A5A611A4B4FF497
:10092800A0621A80184B4FF434725A80164832F07D
:1009380019FA7860052033F0FDFD0446002033F0F5
:10094800F9FD0246124B009300232146786827F0F0
:10095800F5FF38603968786804F0EAF80D4832F035
:1009680092FB0C4B01221A700A4B0B4A5A60094839
:1009780032F0ACFB00BF0C37BD4690BDE108000863
:10098800300100201401002030E90320A5090008E7
:10099800C0DC04087CE90320250A000880B586B07D
:1009A80000AFF860B9607A60BB68B3F902303B61A8
:1009B8001AE0BB68B3F900307B610BE07B681A88EA
:1009C8003969786900F01EF87B6802337B607B69BF
:1009D80001337B61BB68B3F904301A467B699342E3
:1009E800ECDD3B6901333B61BB68B3F906301A465D
:1009F8003B699342DDDDF86832F00EFB00BF183723
:100A0800BD4680BD80B485B000AFF860B960BA80DB
:100A180000BF1437BD465DF8047B704780B483B0CF
:100A280000AF7860396000BF0C37BD465DF8047BC5
:100A3800704780B400AF72B600BFFEE780B483B0E1
:100A480000AF0F4B1B6C0E4A43F0805313640C4BE2
:100A58001B6C03F080537B607B68094B5B6C084A16
:100A680043F480435364064B5B6C03F480433B6060
:100A78003B6800BF0C37BD465DF8047B704700BF7C
:100A88000038024080B400AFFEE780B400AFFEE754
:100A980080B400AFFEE780B400AFFEE780B400AFDB
:100AA800FEE780B400AF00BFBD465DF8047B704729
:100AB80080B400AF00BFBD465DF8047B704780B4CA
:100AC80000AF00BFBD465DF8047B704780B500AF3E
:100AD80000F030FA00BF80BD80B500AF024800F0DA
:100AE800FBFC00BF80BD00BF74EA032080B500AFE7
:100AF800024802F03FFE00BF80BD00BFECE90320C2
:100B080080B400AF064BD3F88830054A43F470032D
:100B1800C2F8883000BFBD465DF8047B704700BF4F
:100B280000ED00E080B588B000AF07F110030022A7
:100B38001A605A609A60DA603B1D00221A605A6097
:100B48009A601E4B4FF080421A601C4B6B225A6011
:100B58001A4B00229A60194B4FF0FF32DA60174B9C
:100B680000221A61154B80229A61144802F00AFA91
:100B78000346002B01D0FFF75CFF4FF480533B6125
:100B880007F1100319460D4802F0C4FA0346002B7A
:100B980001D0FFF74EFF00237B600023FB603B1D65
:100BA8001946064802F0C6FC0346002B01D0FFF7A1
:100BB80040FF00BF2037BD4680BD00BF9CE9032031
:100BC80080B485B000AF78607B681B68B3F1804F54
:100BD8000BD1094B1B6C084A43F001031364064B05
:100BE8001B6C03F00103FB60FB6800BF1437BD46B4
:100BF8005DF8047B704700BF0038024080B500AF45
:100C0800024802F017FA00BF80BD00BF9CE903202C
:100C180080B485B000AF786039600D4B1B685B6AA3
:100C2800FB607B681B68FA68D31ABB60BA683B68CC
:100C38009A4204D37B68FA681A60002301E04FF0F7
:100C4800FF3318461437BD465DF8047B704700BF74
:100C58009CE9032080B500AF144B154A1A60134B6A
:100C68004FF4E1325A60114B00229A600F4B002278
:100C7800DA600E4B00221A610C4B0C225A610B4BA6
:100C880000229A61094B0022DA61084B00221A629D
:100C9800064B00225A62054802F0DAFC0346002B94
:100CA80001D0FFF7C6FE00BF80BD00BFECE90320FE
:100CB8000048004080B5AEB000AF786007F1A403EB
:100CC80000221A605A609A60DA601A6107F1140308
:100CD80090220021184648F043FE7B681B683E4A74
:100CE800934274D14FF480737B6100233B6607F114
:100CF8001403184601F01EFD0346002B01D0FFF730
:100D080098FE364B1B6C354A43F480231364334BEF
:100D18001B6C03F480233B613B69304B1B6B2F4AF0
:100D280043F0080313632D4B1B6B03F00803FB60B0
:100D3800FB684FF44073C7F8A4300223C7F8A83003
:100D48000023C7F8AC300323C7F8B0300723C7F82F
:100D5800B43007F1A4031946214800F027FE214BBF
:100D6800214A1A601F4B4FF000625A601D4B002247
:100D78009A601C4B0022DA601A4B4FF480621A61A9
:100D8800184B00225A61174B00229A61154B4FF4F9
:100D98008072DA61134B4FF440321A62114B002211
:100DA8005A62104800F0F8F90346002B01D0FFF70B
:100DB80040FE7B680B4A5A670A4A7B6893630022A5
:100DC8000021272000F0B1F9272000F0CAF900BF60
:100DD800B837BD4680BD00BF00480040003802401B
:100DE800000C024074EA03202860024080B500AF7E
:100DF80001220349034802F079FC00BF80BD00BF0F
:100E0800E8E90320ECE9032080B483B000AF786000
:100E18007B68074A934204D1064B1B785AB2064BAB
:100E28001A7000BF0C37BD465DF8047B704700BFE1
:100E3800ECE90320E8E903200400002080B582B033
:100E480000AF78607B68064A934204D101220549C5
:100E5800034802F04BFC00BF0837BD4680BD00BF09
:100E6800ECE90320E8E90320DFF834D0FFF748FE77
:100E78000C480D490D4A002302E0D458C4500433ED
:100E8800C4188C42F9D30A4A0A4C002301E01360C3
:100E98000432A242FBD348F031FDFFF777FC7047DC
:100EA8000000082000000020F0000020E4E0040812
:100EB800F000002018AF0420FEE780B500AF032043
:100EC80000F028F90F2000F005F8FFF7B7FD002320
:100ED800184680BD80B582B000AF7860124B1A68A2
:100EE800124B1B7819464FF47A73B3FBF1F3B2FB3C
:100EF800F3F3184600F043F90346002B01D0012311
:100F08000EE07B680F2B0AD8002279684FF0FF307B
:100F180000F00BF9064A7B681360002300E0012308
:100F280018460837BD4680BD000000200C00002090
:100F38000800002080B400AF064B1B781A46064B09
:100F48001B681344044A136000BFBD465DF8047B68
:100F5800704700BF0C000020D4EA032080B400AF23
:100F6800034B1B681846BD465DF8047B704700BFFD
:100F7800D4EA032080B485B000AF78607B6803F0C2
:100F88000703FB600B4BDB68BB60BA684FF6FF03D7
:100F98001340BB60FB681A02BB681A43064B134335
:100FA800BB60044ABB68D36000BF1437BD465DF818
:100FB800047B704700ED00E00000FA0580B400AF44
:100FC800044BDB681B0A03F007031846BD465DF8AF
:100FD800047B704700ED00E080B483B000AF0346A7
:100FE800FB7197F90730002B0BDBFB7903F01F022D
:100FF800074997F907305B09012000FA02F241F826
:10100800232000BF0C37BD465DF8047B704700BF46
:1010180000E100E080B483B000AF03463960FB71A3
:1010280097F90730002B0ADB3B68DAB20C4997F9CD
:1010380007301201D2B20B4483F800230AE03B6860
:10104800DAB20849FB7903F00F03043B1201D2B26C
:101058000B441A7600BF0C37BD465DF8047B704719
:1010680000E100E000ED00E080B489B000AFF86076
:10107800B9607A60FB6803F00703FB61FB69C3F1A1
:101088000703042B28BF0423BB61FB690433062B29
:1010980002D9FB69033B00E000237B614FF0FF327C
:1010A800BB6902FA03F3DA43BB681A407B699A40CA
:1010B8004FF0FF317B6901FA03F3D9437B680B409A
:1010C800134318462437BD465DF8047B704700007B
:1010D80080B582B000AF78607B68013BB3F1807F58
:1010E80001D301230FE00A4A7B68013B53600F21BB
:1010F8004FF0FF30FFF78EFF054B00229A60044B3C
:1011080007221A60002318460837BD4680BD00BF75
:1011180010E000E080B582B000AF78607868FFF733
:1011280029FF00BF0837BD4680BD80B586B000AF37
:101138000346B9607A60FB7300237B61FFF73EFFCB
:1011480078617A68B9687869FFF78EFF024697F97F
:101158000F3011461846FFF75DFF00BF1837BD4630
:1011680080BD80B582B000AF0346FB7197F90730A8
:101178001846FFF731FF00BF0837BD4680BD80B570
:1011880082B000AF78607868FFF7A2FF0346184680
:101198000837BD4680BD000080B586B000AF7860D6
:1011A80000237B61FFF7DAFE38617B68002B01D1F1
:1011B800012399E07B68022283F835207B680022AE
:1011C80083F834207B681B681A687B681B6822F0E8
:1011D80001021A600FE0FFF7C1FE02463B69D31A0D
:1011E800052B08D97B6820225A657B68032283F87F
:1011F8003520032378E07B681B681B6803F0010334
:10120800002BE8D17B681B681B687B617A69384BC7
:1012180013407B617B685A687B689B681A437B68CC
:10122800DB681A437B681B691A437B685B691A434E
:101238007B689B691A437B68DB691A437B681B6A76
:1012480013437A6913437B617B685B6A042B07D17C
:101258007B68DA6A7B681B6B13437A6913437B618B
:101268007B681B687A691A607B681B685B697B61AD
:101278007B6923F007037B617B685B6A7A691343A8
:101288007B617B685B6A042B17D17B689B6A7A69F0
:1012980013437B617B68DB6A002B0ED0786800F013
:1012A80009FB0346002B08D07B6840225A657B68FF
:1012B800002283F83520012316E07B681B687A69D1
:1012C8005A61786800F0C0FA0346FB607B68DB6D02
:1012D8003F229A40FB689A607B6800225A657B68C7
:1012E800012283F83520002318461837BD4680BDF3
:1012F8003F8010E080B586B000AFF860B9607A60D2
:101308003B600023FB75FB689B6D3B61FB6893F8B2
:101318003430012B01D1022348E0FB68012283F815
:101328003420FB6893F83530DBB2012B37D1FB68EA
:10133800022283F83520FB6800225A653B687A68E8
:10134800B968F86800F052FAFB68DB6D3F229A40F2
:101358003B699A60FB681B681A68FB681B6842F067
:1013680016021A60FB681B685A69FB681B6842F022
:1013780080025A61FB681B6C002B07D0FB681B6856
:101388001A68FB681B6842F008021A60FB681B6851
:101398001A68FB681B6842F001021A6005E0FB68E6
:1013A800002283F834200223FB75FB7D184618378A
:1013B800BD4680BD80B584B000AF78607B689B6D0A
:1013C800FB60FFF7CBFDB8607B6893F83530DBB284
:1013D800022B08D07B6880225A657B68002283F83C
:1013E8003420012352E07B681B681A687B681B68FD
:1013F80022F016021A607B681B685A697B681B68B2
:1014080022F080025A617B681B6C002B03D17B6839
:101418009B6C002B07D07B681B681A687B681B686D
:1014280022F008021A607B681B681A687B681B68D0
:1014380022F001021A6013E0FFF790FD0246BB6834
:10144800D31A052B0CD97B6820225A657B680322A6
:1014580083F835207B68002283F83420032315E0C5
:101468007B681B681B6803F00103002BE4D17B68D1
:10147800DB6D3F229A40FB689A607B68012283F803
:1014880035207B68002283F8342000231846103763
:10149800BD4680BD80B483B000AF78607B6893F8A8
:1014A8003530DBB2022B04D07B6880225A650123D9
:1014B8000CE07B68052283F835207B681B681A6876
:1014C8007B681B6822F001021A60002318460C375B
:1014D800BD465DF8047B704780B586B000AF786084
:1014E8000023BB608E4B1B688E4AA2FB03239B0A1A
:1014F8007B617B689B6D3B613B691B68FB607B681C
:10150800DB6D08229A40FB681340002B1AD07B68D9
:101518001B681B6803F00403002B13D07B681B684F
:101528001A687B681B6822F004021A607B68DB6D0E
:1015380008229A403B699A607B685B6D43F0010220
:101548007B685A657B68DB6D01229A40FB68134013
:10155800002B12D07B681B685B6903F08003002BAB
:101568000BD07B68DB6D01229A403B699A607B68EF
:101578005B6D43F002027B685A657B68DB6D042271
:101588009A40FB681340002B12D07B681B681B68CD
:1015980003F00203002B0BD07B68DB6D04229A401A
:1015A8003B699A607B685B6D43F004027B685A650F
:1015B8007B68DB6D10229A40FB681340002B43D0F8
:1015C8007B681B681B6803F00803002B3CD07B6812
:1015D800DB6D10229A403B699A607B681B681B6828
:1015E80003F48023002B18D07B681B681B6803F466
:1015F8000023002B08D17B681B6C002B24D07B6850
:101608001B6C786898471FE07B689B6C002B1BD08D
:101618007B689B6C7868984716E07B681B681B683A
:1016280003F48073002B07D17B681B681A687B68FA
:101638001B6822F008021A607B681B6C002B03D021
:101648007B681B6C786898477B68DB6D20229A4022
:10165800FB681340002B00F08F807B681B681B68B9
:1016680003F01003002B00F087807B68DB6D2022DD
:101678009A403B699A607B6893F83530DBB2052B5A
:1016880036D17B681B681A687B681B6822F01602D3
:101698001A607B681B685A697B681B6822F08002A5
:1016A8005A617B681B6C002B03D17B689B6C002BF9
:1016B80007D07B681B681A687B681B6822F00802E1
:1016C8001A607B68DB6D3F229A403B699A607B68B1
:1016D800012283F835207B68002283F834207B6858
:1016E8001B6D002B7ED07B681B6D7868984779E06E
:1016F8007B681B681B6803F48023002B1DD07B6864
:101708001B681B6803F40023002B0DD17B685B6CFE
:10171800002B31D07B685B6C786898472CE000BF61
:1017280000000020B5814E1B7B68DB6B002B23D0AB
:101738007B68DB6B786898471EE07B681B681B68D2
:1017480003F48073002B0FD17B681B681A687B68D1
:101758001B6822F010021A607B68012283F835208A
:101768007B68002283F834207B68DB6B002B03D076
:101778007B68DB6B786898477B685B6D002B32D0A1
:101788007B685B6D03F00103002B22D07B68052288
:1017980083F835207B681B681A687B681B6822F011
:1017A80001021A60BB680133BB607A699A4207D3A9
:1017B8007B681B681B6803F00103002BF2D100E073
:1017C80000BF7B68012283F835207B68002283F8FC
:1017D80034207B68DB6C002B05D07B68DB6C786879
:1017E800984700E000BF1837BD4680BD80B485B07B
:1017F80000AFF860B9607A603B60FB681B681A68E4
:10180800FB681B6822F480221A60FB681B683A6830
:101818005A60FB689B68402B08D1FB681B687A6894
:101828009A60FB681B68BA68DA6007E0FB681B68A7
:10183800BA689A60FB681B687A68DA6000BF143778
:10184800BD465DF8047B704780B485B000AF786012
:101858007B681B68DBB2103B134AA2FB03231B09FE
:10186800FB60124AFB6813441B781A467B68DA65EA
:10187800FB68032B08D97B681B681A460C4B13407E
:101888001A1D7B689A6506E07B681B681A46084B38
:1018980013407A6893657B689B6D18461437BD467C
:1018A8005DF8047B704700BFABAAAAAA949F0408FE
:1018B80000FCFFFF80B485B000AF78600023FB73A5
:1018C8007B689B6ABB607B689B69002B1FD1BB68E8
:1018D800032B56D801A252F823F000BFF5180008D0
:1018E80007190008F51800088B1900087B68DB6ADF
:1018F80003F08073002B46D00123FB7343E07B6821
:10190800DB6AB3F1C07F40D10123FB733DE07B6804
:101918009B69B3F5005F21D1BB68032B37D801A2BF
:1019280052F823F03D190008431900083D19000832
:10193800551900080123FB7330E07B68DB6A03F06C
:101948008073002B25D00123FB7322E07B68DB6AC0
:10195800B3F1C07F1FD10123FB731CE0BB68022BCE
:1019680003D9BB68032B03D018E00123FB7315E0F0
:101978007B68DB6A03F08073002B0ED00123FB73B6
:101988000BE000BF0AE000BF08E000BF06E000BFB0
:1019980004E000BF02E000BF00E000BFFB7B184688
:1019A8001437BD465DF8047B704700BF80B489B02A
:1019B80000AF786039600023FB6100237B6100235E
:1019C8003B610023BB610023FB6175E10122FB69D8
:1019D80002FA03F37B613B681B687A6913403B6139
:1019E8003A697B699A4240F064813B685B6803F01E
:1019F8000303012B05D03B685B6803F00303022B4C
:101A080030D17B689B68BB61FB695B00032202FAEB
:101A180003F3DB43BA691340BB613B68DA68FB69CF
:101A28005B0002FA03F3BA691343BB617B68BA69C6
:101A38009A607B685B68BB610122FB6902FA03F369
:101A4800DB43BA691340BB613B685B681B0903F061
:101A58000102FB6902FA03F3BA691343BB617B68AD
:101A6800BA695A603B685B6803F00303032B17D01D
:101A78007B68DB68BB61FB695B00032202FA03F346
:101A8800DB43BA691340BB613B689A68FB695B003A
:101A980002FA03F3BA691343BB617B68BA69DA6077
:101AA8003B685B6803F00303022B23D1FB69DA0868
:101AB8007B68083253F82230BB61FB6903F00703E7
:101AC8009B000F2202FA03F3DB43BA691340BB61A0
:101AD8003B681A69FB6903F007039B0002FA03F3EA
:101AE800BA691343BB61FB69DA087B680832B969D4
:101AF80043F822107B681B68BB61FB695B0003220B
:101B080002FA03F3DB43BA691340BB613B685B68C5
:101B180003F00302FB695B0002FA03F3BA6913439B
:101B2800BB617B68BA691A603B685B6803F4403341
:101B3800002B00F0BE80664B5B6C654A43F4804323
:101B48005364634B5B6C03F48043FB60FB68614A3E
:101B5800FB699B08023352F82330BB61FB6903F031
:101B680003039B000F2202FA03F3DB43BA69134015
:101B7800BB617B68584A934237D07B68574A934287
:101B880031D07B68564A93422BD07B68554A9342A2
:101B980025D07B68544A93421FD07B68534A9342AE
:101BA80019D07B68524A934213D07B68514A9342BA
:101BB8000DD07B68504A934207D07B684F4A9342C6
:101BC80001D1092312E00A2310E008230EE00723BD
:101BD8000CE006230AE0052308E0042306E00323BB
:101BE80004E0022302E0012300E00023FA6902F086
:101BF800030292009340BA691343BB613549FB69FC
:101C08009B080233BA6941F823203D4B9B68BB61AE
:101C18003B69DB43BA691340BB613B685B6803F40B
:101C28008013002B03D0BA693B691343BB61344A64
:101C3800BB699360324BDB68BB613B69DB43BA69C4
:101C48001340BB613B685B6803F40013002B03D0AF
:101C5800BA693B691343BB61294ABB69D360284B06
:101C68005B68BB613B69DB43BA691340BB613B6896
:101C78005B6803F40033002B03D0BA693B69134354
:101C8800BB611F4ABB6953601D4B1B68BB613B6945
:101C9800DB43BA691340BB613B685B6803F480337C
:101CA800002B03D0BA693B691343BB61144ABB6973
:101CB8001360FB690133FB61FB690F2B7FF686AE6E
:101CC80000BF00BF2437BD465DF8047B704700BFE6
:101CD8000038024000380140000002400004024081
:101CE80000080240000C02400010024000140240AC
:101CF80000180240001C024000200240002402405C
:101D0800003C014080B483B000AF78600B467B8014
:101D180013467B707B78002B03D07A887B689A61A6
:101D280003E07B881A047B689A6100BF0C37BD46C4
:101D38005DF8047B704780B485B000AF78600B46CF
:101D48007B807B685B69FB607A88FB6813401A04B8
:101D5800FB68D9437B880B401A437B689A6100BFB4
:101D68001437BD465DF8047B7047000080B582B02B
:101D780000AF00237B60234B1B6C224A43F0805347
:101D88001364204B1B6C03F080533B603B681E4B75
:101D98001B681D4A43F480331360FFF7DFF878604F
:101DA80009E0FFF7DBF802467B68D31AB3F57A7FC0
:101DB80001D9032322E0144B5B6803F48033B3F5A5
:101DC800803FEED1104B1B680F4A43F40033136079
:101DD800FFF7C4F8786009E0FFF7C0F802467B68AF
:101DE800D31AB3F57A7F01D9032307E0064B5B6862
:101DF80003F40033B3F5003FEED10023184608374B
:101E0800BD4680BD003802400070004080B586B0F5
:101E180000AF78600023FB757B68002B01D101239C
:101E28009BE27B681B6803F00103002B00F08780AE
:101E3800964B9B6803F00C03042B0CD0934B9B68C8
:101E480003F00C03082B12D1904B5B6803F480035A
:101E5800B3F5800F0BD18D4B1B6803F40033002BB7
:101E68006CD07B685B68002B68D1012375E27B68C6
:101E78005B68B3F5803F06D1844B1B68834A43F403
:101E8800803313602EE07B685B68002B0CD17F4B9E
:101E98001B687E4A23F4803313607C4B1B687B4AA3
:101EA80023F4802313601DE07B685B68B3F5A02FE3
:101EB8000CD1764B1B68754A43F480231360734B2F
:101EC8001B68724A43F4803313600BE06F4B1B6846
:101ED8006E4A23F4803313606C4B1B686B4A23F4FF
:101EE800802313607B685B68002B13D0FFF736F8FC
:101EF800386108E0FFF732F802463B69D31A642BD1
:101F080001D9032329E2614B1B6803F40033002B3A
:101F1800F0D014E0FFF722F8386108E0FFF71EF868
:101F280002463B69D31A642B01D9032315E2574BA8
:101F38001B6803F40033002BF0D100E000BF7B687E
:101F48001B6803F00203002B69D0504B9B6803F019
:101F58000C03002B0BD04D4B9B6803F00C03082B94
:101F68001CD14A4B5B6803F48003002B16D1474B06
:101F78001B6803F00203002B05D07B68DB68012B8C
:101F880001D00123E9E1414B1B6823F0F8027B688B
:101F98001B69DB003D4913430B6040E07B68DB684D
:101FA800002B23D0394B1B68384A43F001031360D8
:101FB800FEF7D4FF386108E0FEF7D0FF02463B6920
:101FC800D31A022B01D90323C7E1304B1B6803F056
:101FD8000203002BF0D02D4B1B6823F0F8027B681E
:101FE8001B69DB00294913430B6018E0274B1B686A
:101FF800264A23F001031360FEF7B0FF386108E0BA
:10200800FEF7ACFF02463B69D31A022B01D9032322
:10201800A3E11E4B1B6803F00203002BF0D17B6881
:102028001B6803F00803002B38D07B685B69002B22
:1020380019D0164B5B6F154A43F001035367FEF73F
:102048008DFF386108E0FEF789FF02463B69D31A25
:10205800022B01D9032380E10C4B5B6F03F00203D1
:10206800002BF0D01AE0094B5B6F084A23F00103FC
:102078005367FEF773FF38610AE0FEF76FFF024609
:102088003B69D31A022B03D9032366E100380240C7
:10209800924B5B6F03F00203002BEED17B681B6849
:1020A80003F00403002B00F0A4808C4B1B6C03F09E
:1020B8008053002B0DD1894B1B6C884A43F0805309
:1020C8001364864B1B6C03F08053BB60BB68012311
:1020D800FB75834B1B6803F48073002B18D1804B6E
:1020E8001B687F4A43F480731360FEF737FF38613B
:1020F80008E0FEF733FF02463B69D31A642B01D987
:1021080003232AE1764B1B6803F48073002BF0D07D
:102118007B689B68012B06D1704B1B6F6F4A43F09D
:10212800010313672DE07B689B68002B0CD16B4B78
:102138001B6F6A4A23F001031367684B1B6F674ADA
:1021480023F0040313671CE07B689B68052B0CD104
:10215800624B1B6F614A43F0040313675F4B1B6FAD
:102168005E4A43F0010313670BE05C4B1B6F5B4A4D
:1021780023F001031367594B1B6F584A23F00403DC
:1021880013677B689B68002B15D0FEF7E7FE386164
:102198000AE0FEF7E3FE02463B69D31A41F28832B1
:1021A800934201D90323D8E04C4B1B6F03F0020381
:1021B800002BEED014E0FEF7D1FE38610AE0FEF7FE
:1021C800CDFE02463B69D31A41F28832934201D9C7
:1021D8000323C2E0414B1B6F03F00203002BEED137
:1021E800FB7D012B05D13D4B1B6C3C4A23F08053F2
:1021F80013647B689B69002B00F0AE80374B9B68AB
:1022080003F00C03082B6DD07B689B69022B4BD124
:10221800324B1B68314A23F080731360FEF79EFE31
:10222800386108E0FEF79AFE02463B69D31A022B92
:1022380001D9032391E0294B1B6803F00073002B9D
:10224800F0D17B68DA697B681B6A1A437B685B6A32
:102258009B011A437B689B6A5B08013B1B041A437A
:102268007B68DB6A1B061A437B681B6B1B071B49D1
:1022780013434B60194B1B68184A43F08073136073
:10228800FEF76CFE386108E0FEF768FE02463B691F
:10229800D31A022B01D903235FE0104B1B6803F00C
:1022A8000073002BF0D057E00C4B1B680B4A23F04F
:1022B80080731360FEF752FE386108E0FEF74EFEA9
:1022C80002463B69D31A022B01D9032345E0034B8D
:1022D8001B6803F00073002BF0D13DE0003802408A
:1022E800007000401F4B5B68FB607B689B69012B9B
:1022F80030D0FB6803F480027B68DB699A4229D1FD
:10230800FB6803F03F027B681B6A9A4222D1FA6895
:1023180047F6C07313407A68526A9201934219D102
:10232800FB6803F440327B689B6A5B08013B1B0433
:102338009A420FD1FB6803F070627B68DB6A1B0668
:102348009A4207D1FB6803F0E0427B681B6B1B07CE
:102358009A4201D0012300E0002318461837BD46F1
:1023680080BD00BF0038024080B584B000AF7860FF
:1023780039600023FB607B68002B01D10123D0E08A
:102388006A4B1B6803F00F033A689A4210D9674BEF
:102398001B6823F00F0265493B6813430B60634BCE
:1023A8001B6803F00F033A689A4201D00123B8E092
:1023B8007B681B6803F00203002B20D07B681B6836
:1023C80003F00403002B05D0594B9B68584A43F48B
:1023D800E05393607B681B6803F00803002B05D06B
:1023E800534B9B68524A43F460439360504B9B683D
:1023F80023F0F0027B689B684D4913438B607B6830
:102408001B6803F00103002B40D07B685B68012B3D
:1024180007D1474B1B6803F40033002B15D1012368
:102428007FE07B685B68022B07D1414B1B6803F098
:102438000073002B09D1012373E03D4B1B6803F0A7
:102448000203002B01D101236BE0394B9B6823F079
:1024580003027B685B68364913438B60FEF77EFD99
:10246800F8600AE0FEF77AFD0246FB68D31A41F2EB
:102478008832934201D9032353E02D4B9B6803F024
:102488000C027B685B689B009A42EBD1274B1B6868
:1024980003F00F033A689A4210D2244B1B6823F0CA
:1024A8000F0222493B6813430B60204B1B6803F063
:1024B8000F033A689A4201D0012332E07B681B6817
:1024C80003F00403002B08D0194B9B6823F4E05257
:1024D8007B68DB68164913438B607B681B6803F0D5
:1024E8000803002B09D0124B9B6823F460427B68D9
:1024F8001B69DB000E4913438B6000F021F802468C
:102508000B4B9B681B0903F00F030A49CB5C22FAAB
:1025180003F3094A1360094B1B681846FEF7DAFCF7
:10252800002318461037BD4680BD00BF003C02405E
:10253800003802407C9F04080000002008000020AA
:102548002DE9B04F90B000AF00237B630023FB63FD
:1025580000233B630023BB63594B9B6803F00C03C8
:10256800082B0DD0082B00F2A180002B02D0042BE1
:1025780003D09BE0534BBB639BE0534BBB6398E09A
:102588004F4B5B6803F03F037B634D4B5B6803F481
:102598008003002B28D04A4B5B689B0900223B62D2
:1025A8007A623B6AC3F308000021474B03FB01F240
:1025B800002300FB03F31344434AA0FB0212FA6210
:1025C8000A46BA62FA6A1344FB627B6B0022BB615B
:1025D800FA61D7E90623D7E90A01FDF73BFE02466F
:1025E8000B461346FB6353E0354B5B689B0900229F
:1025F8003B617A613B69C3F3080A4FF0000B52460E
:102608005B464FF000004FF00001590141EAD261EA
:10261800500102460B46B2EB0A0863EB0B094FF078
:1026280000024FF000034FEA891343EA98634FEA28
:102638008812B2EB080463EB09054FF000024FF073
:102648000003EB0043EA5473E20014461D4614EB02
:102658000A033B6045EB0B037B604FF000024FF031
:102668000003D7E9004529468B02214643EA9153E6
:1026780021468A02104619467B6B0022BB60FA602D
:10268800D7E90223FDF7E6FD02460B461346FB6336
:102698000B4B5B681B0C03F0030301335B003B63CC
:1026A800FA6B3B6BB2FBF3F3BB6302E0054BBB6316
:1026B80000BFBB6B18464037BD46BDE8B08F00BFB2
:1026C800003802400024F40040787D0180B400AF57
:1026D800034B1B681846BD465DF8047B704700BF76
:1026E8000000002080B500AFFFF7F0FF0246054B61
:1026F8009B689B0A03F007030349CB5C22FA03F3A8
:10270800184680BD003802408C9F040880B500AF91
:10271800FFF7DCFF0246054B9B685B0B03F00703E2
:102728000349CB5C22FA03F3184680BD0038024007
:102738008C9F040880B588B000AF786000237B6167
:1027480000233B610023FB600023FB610023BB6186
:102758007B681B6803F00103002B12D0694B9B6850
:10276800684A23F400039360664B9A687B685B6B46
:10277800644913438B607B685B6B002B01D1012399
:10278800FB617B681B6803F40023002B17D05D4BAB
:10279800D3F88C3023F440127B68DB6B5949134320
:1027A800C1F88C307B68DB6BB3F5801F01D1012346
:1027B800FB617B68DB6B002B01D10123BB617B686C
:1027C8001B6803F48013002B17D04E4BD3F88C30C2
:1027D80023F440027B681B6C4A491343C1F88C30D0
:1027E8007B681B6CB3F5800F01D10123FB617B680B
:1027F8001B6C002B01D10123BB617B681B6803F0B4
:102808008073002B01D00123FB617B681B6803F0F8
:102818002003002B00F08B803A4B1B6C394A43F0A5
:1028280080531364374B1B6C03F08053BB60BB6849
:10283800354B1B68344A43F480731360FEF78EFBF4
:10284800786108E0FEF78AFB02467B69D31A642B9D
:1028580001D903238FE32C4B1B6803F48073002BEF
:10286800F0D0284B1B6F03F440733B613B69002B8E
:1028780035D07B681B6B03F440733A699A422ED0BB
:10288800204B1B6F23F440733B611E4B1B6F1D4A8B
:1028980043F4803313671B4B1B6F1A4A23F48033AE
:1028A8001367184A3B691367164B1B6F03F0010344
:1028B800012B14D1FEF752FB78610AE0FEF74EFBBC
:1028C80002467B69D31A41F28832934201D9032325
:1028D80051E30C4B1B6F03F00203002BEED07B6817
:1028E8001B6B03F44073B3F5407F11D1054B9B6814
:1028F80023F4F8127B68196B044B0B40014913430E
:102908008B600BE00038024000700040FFFCFF0FB6
:10291800AC4B9B68AB4A23F4F8139360A94B1A6F2E
:102928007B681B6BC3F30B03A64913430B677B68D8
:102938001B6803F01003002B10D0A24BD3F88C3087
:10294800A04A23F08073C2F88C309E4BD3F88C20B9
:102958007B689B6B9B491343C1F88C307B681B6871
:1029680003F48043002B0AD0964BD3F8903023F41D
:1029780040327B685B6E93491343C1F890307B68A3
:102988001B6803F40043002B0AD08E4BD3F8903019
:1029980023F440227B689B6E8A491343C1F8903028
:1029A8007B681B6803F48033002B0AD0854BD3F86F
:1029B800903023F440127B68DB6E82491343C1F8E0
:1029C80090307B681B6803F40033002B0AD07D4BE2
:1029D800D3F8903023F440027B681B6F7949134386
:1029E800C1F890307B681B6803F04003002B0AD0C5
:1029F800744BD3F8903023F003027B685B6C714909
:102A08001343C1F890307B681B6803F08003002BE8
:102A18000AD06C4BD3F8903023F00C027B689B6C87
:102A280068491343C1F890307B681B6803F48073CE
:102A3800002B0AD0634BD3F8903023F030027B6828
:102A4800DB6C60491343C1F890307B681B6803F462
:102A58000073002B0AD05B4BD3F8903023F0C002F0
:102A68007B681B6D57491343C1F890307B681B681E
:102A780003F48063002B0AD0524BD3F8903023F430
:102A880040727B685B6D4F491343C1F890307B6897
:102A98001B6803F40063002B0AD04A4BD3F890302C
:102AA80023F440627B689B6D46491343C1F890301C
:102AB8007B681B6803F48053002B0AD0414BD3F882
:102AC800903023F440527B68DB6D3E491343C1F8D4
:102AD80090307B681B6803F40053002B0AD0394BF5
:102AE800D3F8903023F440427B681B6E354913437A
:102AF800C1F890307B681B6803F48003002B0AD070
:102B0800304BD3F8903023F080627B689B6F2D495F
:102B18001343C1F890307B681B6803F40013002B43
:102B280011D0284BD3F8903023F000627B68DB6F1C
:102B380024491343C1F890307B68DB6FB3F1006F11
:102B480001D10123BB617B681B6803F00803002BDC
:102B580001D00123BB617B681B6803F48023002B31
:102B68000AD0184BD3F8903023F040727B685B6F23
:102B780014491343C1F890307B681B6803F40003C1
:102B8800002B0BD00F4BD3F8903023F080527B688A
:102B9800D3F880300B491343C1F890307B681B6829
:102BA80003F08063002B0FD0064BD3F8903023F04E
:102BB80000527B68D3F8843002491343C1F890303F
:102BC80002E000BF003802407B681B6803F0006326
:102BD800002B0BD08A4BD3F88C3023F000727B6823
:102BE800D3F8883086491343C1F88C307B681B685A
:102BF80003F08053002B0BD0814BD3F88C3023F09B
:102C080080627B68D3F88C307D491343C1F88C30DF
:102C1800FB69012B06D07B681B6803F00073002B4F
:102C280000F0D680764B1B68754A23F080631360EA
:102C3800FEF794F9786108E0FEF790F902467B699F
:102C4800D31A642B01D9032395E16D4B1B6803F05C
:102C58000063002BF0D17B681B6803F00103002B95
:102C680021D07B685B6B002B1DD1654BD3F884307A
:102C78001B0C03F003033B61614BD3F884301B0E3C
:102C880003F00F03FB607B685B689A013B691B04D8
:102C98001A43FB681B061A437B689B681B07584945
:102CA8001343C1F884307B681B6803F40023002BAE
:102CB80004D07B68DB6BB3F5801F0AD07B681B6888
:102CC80003F48013002B2ED07B681B6CB3F5800FA8
:102CD80029D14B4BD3F884301B0C03F003033B6121
:102CE800474BD3F884301B0F03F00703FB607B6866
:102CF8005B689A013B691B041A437B68DB681B0607
:102D08001A43FB681B073E491343C1F884303C4B08
:102D1800D3F88C3023F01F027B685B6A013B38498B
:102D28001343C1F88C307B681B6803F08073002B59
:102D38001DD0334BD3F884301B0E03F00F033B61D7
:102D48002F4BD3F884301B0F03F00703FB607B681D
:102D58005B689A017B681B691B041A433B691B0665
:102D68001A43FB681B0726491343C1F884307B6864
:102D78001B6803F00073002B11D07B685B689A0115
:102D88007B681B691B041A437B68DB681B061A43B4
:102D98007B689B681B071A491343C1F88430184B9A
:102DA8001B68174A43F080631360FEF7D7F8786111
:102DB80008E0FEF7D3F802467B69D31A642B01D9E1
:102DC8000323D8E00E4B1B6803F00063002BF0D000
:102DD800BB69012B40F0CE80094B1B68084A23F0E1
:102DE80080531360FEF7BAF878610BE0FEF7B6F887
:102DF80002467B69D31A642B04D90323BBE000BFC6
:102E0800003802405E4B1B6803F00053B3F1005FCB
:102E1800ECD07B681B6803F40023002B03D07B688D
:102E2800DB6B002B09D07B681B6803F48013002B35
:102E38002ED07B681B6C002B2AD1514BD3F88830DD
:102E48001B0C03F003033B614D4BD3F888301B0F79
:102E580003F00703FB607B685B699A013B691B040D
:102E68001A437B689B691B061A43FB681B07444986
:102E78001343C1F88830424BD3F88C3023F4F8520E
:102E88007B689B6A013B1B023D491343C1F88C30A8
:102E98007B681B6803F40013002B22D07B68DB6F70
:102EA800B3F1006F1DD1364BD3F888301B0E03F0F9
:102EB8000F033B61324BD3F888301B0F03F0070335
:102EC800FB607B685B699A017B681B6A1B041A4379
:102ED8003B691B061A43FB681B0729491343C1F8C2
:102EE80088307B681B6803F00803002B28D0244B2C
:102EF800D3F888301B0E03F00F033B61204BD3F847
:102F080088301B0C03F00303FB607B685B699A0144
:102F1800FB681B041A433B691B061A437B68DB6981
:102F28001B0717491343C1F88830154BD3F88C3069
:102F380023F440327B68DB6A11491343C1F88C30B3
:102F48000F4B1B680E4A43F080531360FEF706F8D8
:102F5800786108E0FEF702F802467B69D31A642B11
:102F680001D9032307E0064B1B6803F00053B3F1B4
:102F7800005FEFD1002318462037BD4680BD00BF53
:102F88000038024080B582B000AF78607B68002BC3
:102F980001D1012349E07B6893F83D30DBB2002B77
:102FA80006D17B68002283F83C207868FDF708FE8C
:102FB8007B68022283F83D207B681A687B680433AB
:102FC8001946104600F070F97B68012283F8482002
:102FD8007B68012283F83E207B68012283F83F202A
:102FE8007B68012283F840207B68012283F8412016
:102FF8007B68012283F842207B68012283F8432002
:103008007B68012283F844207B68012283F84520ED
:103018007B68012283F846207B68012283F84720D9
:103028007B68012283F83D20002318460837BD46F7
:1030380080BD000080B485B000AF78607B6893F8ED
:103048003D30DBB2012B01D001234CE07B6802222A
:1030580083F83D207B681B68264A934222D07B6810
:103068001B68B3F1804F1DD07B681B68224A9342CE
:1030780018D07B681B68214A934213D07B681B6871
:103088001F4A93420ED07B681B681E4A934209D0A0
:103098007B681B681C4A934204D07B681B681B4AE8
:1030A800934215D17B681B689A68194B1340FB60E3
:1030B800FB68062B15D0FB68B3F5803F11D07B6801
:1030C8001B681A687B681B6842F001021A6008E0F6
:1030D8007B681B681A687B681B6842F001021A60EB
:1030E80000E000BF002318461437BD465DF8047B96
:1030F800704700BF00000140000400400008004085
:10310800000C00400004014000400140001800404D
:103118000700010080B584B000AF786039600023F3
:10312800FB737B6893F83C30012B01D10223B4E098
:103138007B68012283F83C207B68022283F83D20CB
:103148007B681B689B68BB60BA68564B1340BB60C2
:10315800BB6823F47F43BB607B681B68BA689A60CE
:103168003B681B68B3F5005F3ED0B3F5005F00F223
:103178008780B3F5805F00F08680B3F5805F7FD8E5
:10318800702B1AD0702B7BD8602B50D0602B77D83F
:10319800502B3CD0502B73D8402B58D0402B6FD895
:1031A800302B64D0302B6BD8202B60D0202B67D8E5
:1031B800002B5CD0102B5AD062E07B6818683B6803
:1031C80099683B685A683B68DB6800F093F97B684C
:1031D8001B689B68BB60BB6843F07703BB607B6878
:1031E8001B68BA689A604FE07B6818683B68996802
:1031F8003B685A683B68DB6800F07CF97B681B68B1
:103208009A687B681B6842F480429A603CE07B685D
:1032180018683B6859683B68DB681A4600F0F0F8A4
:103228007B681B685021184600F049F92CE07B6840
:1032380018683B6859683B68DB681A4600F00FF964
:103248007B681B686021184600F039F91CE07B6830
:1032580018683B6859683B68DB681A4600F0D0F884
:103268007B681B684021184600F029F90CE07B6850
:103278001A683B681B681946104600F020F903E0FD
:103288000123FB7300E000BF7B68012283F83D2027
:103298007B68002283F83C20FB7B18461037BD462C
:1032A80080BD00BF88FFFEFF80B485B000AF7860A6
:1032B80039607B681B68FB607B68464A934213D081
:1032C8007B68B3F1804F0FD07B68434A93420BD0A1
:1032D8007B68424A934207D07B68414A934203D0B5
:1032E8007B68404A934208D1FB6823F07003FB6077
:1032F8003B685B68FA681343FB607B68354A934216
:103308002BD07B68B3F1804F27D07B68324A934239
:1033180023D07B68314A93421FD07B68304A93425E
:103328001BD07B682F4A934217D07B682E4A934262
:1033380013D07B682D4A93420FD07B682C4A934266
:103348000BD07B682B4A934207D07B682A4A93426A
:1033580003D07B68294A934208D1FB6823F4407361
:10336800FB603B68DB68FA681343FB60FB6823F08B
:1033780080023B685B691343FB607B68FA681A60EC
:103388003B689A687B68DA623B681A687B689A626D
:103398007B68104A934203D07B68124A934203D158
:1033A8003B681A697B681A637B6801225A617B68EB
:1033B8001B6903F00103012B05D17B681B6923F00E
:1033C80001027B681A6100BF1437BD465DF8047BB3
:1033D800704700BF000001400004004000080040A2
:1033E800000C00400004014000400140004401403E
:1033F8000048014000180040001C00400020004028
:1034080080B487B000AFF860B9607A60FB681B6A67
:103418007B61FB681B6A23F00102FB681A62FB6888
:103428009B693B613B6923F0F0033B617B681B01AF
:103438003A6913433B617B6923F00A037B617A692C
:10344800BB6813437B61FB683A699A61FB687A69D8
:103458001A6200BF1C37BD465DF8047B704780B414
:1034680087B000AFF860B9607A60FB681B6A7B615F
:10347800FB681B6A23F01002FB681A62FB689B69F1
:103488003B613B6923F470433B617B681B033A69EA
:1034980013433B617B6923F0A0037B61BB681B017D
:1034A8007A6913437B61FB683A699A61FB687A69B8
:1034B8001A6200BF1C37BD465DF8047B704780B4B4
:1034C80085B000AF786039607B689B68FB60FB68FB
:1034D80023F07003FB603A68FB68134343F007036B
:1034E800FB607B68FA689A6000BF1437BD465DF8D8
:1034F800047B704780B487B000AFF860B9607A6029
:103508003B60FB689B687B617B6923F47F437B613D
:103518003B681A027B681A43BB6813437A691343F2
:103528007B61FB687A699A6000BF1C37BD465DF80D
:10353800047B704780B485B000AF786039607B68E1
:1035480093F83C30012B01D102236DE07B68012206
:1035580083F83C207B68022283F83D207B681B6847
:103568005B68FB607B681B689B68BB607B681B684B
:10357800304A934204D07B681B682F4A934208D193
:10358800FB6823F47003FB603B685B68FA681343CD
:10359800FB60FB6823F07003FB603B681B68FA68FC
:1035A8001343FB607B681B68FA685A607B681B687A
:1035B800204A934222D07B681B68B3F1804F1DD00C
:1035C8007B681B681D4A934218D07B681B681C4A9D
:1035D800934213D07B681B681A4A93420ED07B68CB
:1035E8001B68154A934209D07B681B68164A9342A8
:1035F80004D07B681B68154A93420CD1BB6823F042
:103608008003BB603B689B68BA681343BB607B68F8
:103618001B68BA689A607B68012283F83D207B6842
:10362800002283F83C20002318461437BD465DF875
:10363800047B704700000140000401400004004082
:1036480000080040000C0040004001400018004005
:1036580080B582B000AF78607B68002B01D1012370
:1036680040E07B68DB6F002B06D17B68002283F883
:1036780078207868FDF71EFB7B682422DA677B6870
:103688001B681A687B681B6822F001021A607B6855
:103698005B6A002B02D0786800F0E2FD786800F0E1
:1036A8007BFB0346012B01D101231BE07B681B68D0
:1036B8005A687B681B6822F490425A607B681B68D2
:1036C8009A687B681B6822F02A029A607B681B68EC
:1036D8001A687B681B6842F001021A60786800F07B
:1036E80061FE034618460837BD4680BD80B58AB0DE
:1036F80000AFF860B9601346FB80FB68D3F88030F0
:10370800202B32D1BB68002B02D0FB88002B01D1C3
:1037180001232BE0FB6800221A66FB681B685B68C4
:1037280003F40003002B18D0FB681B687B617B69DE
:1037380053E8003F3B613B6943F080637B62FB6871
:103748001B681A467B6A3B62FA61F9693A6A41E882
:103758000023BB61BB69002BE6D1FB881A46B96818
:10376800F86800F035FF034600E0022318462837C2
:10377800BD4680BD80B5BAB000AF78607B681B6875
:10378800DB69C7F8E4307B681B681B68C7F8E03062
:103798007B681B689B68C7F8DC30D7F8E42040F6E4
:1037A8000F031340C7F8D830D7F8D830002B15D1FD
:1037B800D7F8E43003F02003002B0FD0D7F8E0301F
:1037C80003F02003002B09D07B689B6E002B00F0D0
:1037D800AC827B689B6E78689847A6E2D7F8D830A9
:1037E800002B00F01781D7F8DC3003F00103002B21
:1037F80006D1D7F8E020854B1340002B00F00A8152
:10380800D7F8E43003F00103002B11D0D7F8E030EB
:1038180003F48073002B0BD07B681B6801221A62AB
:103828007B68D3F8843043F001027B68C3F88420B6
:10383800D7F8E43003F00203002B11D0D7F8DC30BE
:1038480003F00103002B0BD07B681B6802221A626D
:103858007B68D3F8843043F004027B68C3F8842083
:10386800D7F8E43003F00403002B11D0D7F8DC308C
:1038780003F00103002B0BD07B681B6804221A623B
:103888007B68D3F8843043F002027B68C3F8842055
:10389800D7F8E43003F00803002B17D0D7F8E0304E
:1038A80003F02003002B05D1D7F8DC3003F0010327
:1038B800002B0BD07B681B6808221A627B68D3F840
:1038C800843043F008027B68C3F88420D7F8E430DA
:1038D80003F40063002B12D0D7F8E03003F08063C4
:1038E800002B0CD07B681B684FF400621A627B685F
:1038F800D3F8843043F020027B68C3F884207B68C7
:10390800D3F88430002B00F01282D7F8E43003F0AB
:103918002003002B0DD0D7F8E03003F02003002B54
:1039280007D07B689B6E002B03D07B689B6E786802
:1039380098477B68D3F88430C7F8D4307B681B6815
:103948009B6803F04003402B05D0D7F8D43003F030
:103958002803002B4FD0786800F000FF7B681B68B5
:103968009B6803F04003402B41D17B681B680833F8
:10397800C7F89C30D7F89C3053E8003FC7F8983018
:10398800D7F8983023F04003C7F8D0307B681B681D
:103998000833D7F8D020C7F8A820C7F8A430D7F83C
:1039A800A410D7F8A82041E80023C7F8A030D7F81A
:1039B800A030002BD9D17B685B6F002B13D07B68BC
:1039C8005B6F134A1A657B685B6F1846FDF762FDEB
:1039D8000346002B17D07B685B6F1B6D7A68526FAC
:1039E800104698470FE07868FDF728FA0BE07868EA
:1039F800FDF724FA07E07868FDF720FA7B680022D3
:103A0800C3F8842093E100BF91E100BF20010004C6
:103A1800114A00087B681B6E012B40F04C81D7F8D7
:103A2800E43003F01003002B00F04581D7F8E030B4
:103A380003F01003002B00F03E817B681B68102206
:103A48001A627B681B689B6803F04003402B40F0B8
:103A5800B6807B685B6F1B685B68A7F8BE30B7F8F9
:103A6800BE30002B00F065817B68B3F85830B7F89A
:103A7800BE209A4280F05D817B68B7F8BE20A3F82B
:103A88005A207B685B6FDB69B3F5807F00F0868026
:103A98007B681B68C7F88830D7F8883053E8003F40
:103AA800C7F88430D7F8843023F48073C7F8B83067
:103AB8007B681B681A46D7F8B830C7F89430C7F83F
:103AC8009020D7F89010D7F8942041E80023C7F841
:103AD8008C30D7F88C30002BDAD17B681B68083320
:103AE8007B677B6F53E8003F3B673B6F23F0010325
:103AF800C7F8B4307B681B680833D7F8B420C7F818
:103B08008020FB67F96FD7F8802041E80023BB6766
:103B1800BB6F002BE1D17B681B6808333B663B6EAB
:103B280053E8003FFB65FB6D23F04003C7F8B03056
:103B38007B681B680833D7F8B020FA66BB66B96E95
:103B4800FA6E41E800237B667B6E002BE3D17B682D
:103B58002022C3F880207B6800221A667B681B68D5
:103B6800FB64FB6C53E8003FBB64BB6C23F01003A1
:103B7800C7F8AC307B681B681A46D7F8AC30BB6511
:103B88007A65796DBA6D41E800233B653B6D002B82
:103B9800E4D17B685B6F1846FDF70CFC7B6802225A
:103BA8005A667B68B3F858207B68B3F85A309BB2E2
:103BB800D31A9BB21946786800F0D8F8B9E07B6848
:103BC800B3F858207B68B3F85A309BB2D31AA7F8D9
:103BD800CE307B68B3F85A309BB2002B00F0AB8034
:103BE800B7F8CE30002B00F0A6807B681B68BB635B
:103BF800BB6B53E8003F7B637B6B23F49073C7F880
:103C0800C8307B681B681A46D7F8C8307B643A64AA
:103C1800396C7A6C41E80023FB63FB6B002BE4D121
:103C28007B681B6808337B627B6A53E8003F3B6212
:103C38003B6A23F00103C7F8C4307B681B6808336C
:103C4800D7F8C4203A63FB62F96A3A6B41E800236B
:103C5800BB62BB6A002BE3D17B682022C3F88020BB
:103C68007B6800221A667B6800229A667B681B685C
:103C78003B613B6953E8003FFB60FB6823F010039E
:103C8800C7F8C0307B681B681A46D7F8C030FB619C
:103C9800BA61B969FA6941E800237B617B69002B45
:103CA800E4D17B6802225A66B7F8CE3019467868A4
:103CB80000F05CF83FE0D7F8E43003F48013002B01
:103CC8000ED0D7F8DC3003F48003002B08D07B68D3
:103CD8001B684FF480121A62786800F053F82DE0E0
:103CE800D7F8E43003F08003002B0ED0D7F8E0308B
:103CF80003F08003002B08D07B68DB6E002B1CD000
:103D08007B68DB6E7868984717E0D7F8E43003F0F3
:103D18004003002B12D0D7F8E03003F04003002B0B
:103D28000CD0786800F086FE08E000BF06E000BF0F
:103D380004E000BF02E000BF00E000BFE837BD4676
:103D480080BD00BF80B483B000AF786000BF0C377F
:103D5800BD465DF8047B704780B483B000AF7860DF
:103D680000BF0C37BD465DF8047B704780B483B054
:103D780000AF78600B467B8000BF0C37BD465DF80E
:103D8800047B704780B483B000AF786000BF0C3705
:103D9800BD465DF8047B704780B588B000AF786099
:103DA8000023BB777B689A687B681B691A437B682A
:103DB8005B691A437B68DB6913437B617B681B681B
:103DC8001A68A64B13407A68126879690B43136026
:103DD8007B681B685B6823F440517B68DA687B6802
:103DE8001B680A435A607B689B697B617B681B6A16
:103DF8007A6913437B617B681B689B6823F4306195
:103E08007B681B687A690A439A607B681B68944AD6
:103E1800934220D1934BD3F8903003F00303032B44
:103E280016D801A252F823F0413E00084D3E000882
:103E3800473E0008533E00080123FB7750E1022368
:103E4800FB774DE10423FB774AE10823FB7747E141
:103E58001023FB7744E17B681B68834A934232D185
:103E6800804BD3F8903003F00C030C2B28D801A218
:103E780052F823F0B13E0008C93E0008C93E0008C8
:103E8800C93E0008BD3E0008C93E0008C93E0008FA
:103E9800C93E0008B73E0008C93E0008C93E0008F0
:103EA800C93E0008C33E00080023FB7718E102233F
:103EB800FB7715E10423FB7712E10823FB770FE179
:103EC8001023FB770CE17B681B68684A934220D17A
:103ED800644BD3F8903003F03003302B13D0302BE1
:103EE80014D8202B09D0202B10D8002B02D0102B4F
:103EF80006D00BE00023FB77F2E00223FB77EFE02C
:103F08000423FB77ECE00823FB77E9E01023FB7739
:103F1800E6E07B681B68564A934220D1514BD3F8A0
:103F2800903003F0C003C02B13D0C02B14D8802BC3
:103F380009D0802B10D8002B02D0402B06D00BE0E4
:103F48000023FB77CCE00223FB77C9E00423FB774F
:103F5800C6E00823FB77C3E01023FB77C0E07B684B
:103F68001B68444A934225D13E4BD3F8903003F462
:103F78004073B3F5407F17D0B3F5407F17D8B3F53A
:103F8800007F0BD0B3F5007F11D8002B03D0B3F519
:103F9800807F06D00BE00023FB77A1E00223FB77AC
:103FA8009EE00423FB779BE00823FB7798E010232F
:103FB800FB7795E07B681B682F4A934225D1294BF4
:103FC800D3F8903003F44063B3F5406F17D0B3F5DE
:103FD800406F17D8B3F5006F0BD0B3F5006F11D849
:103FE800002B03D0B3F5806F06D00BE00123FB77DD
:103FF80076E00223FB7773E00423FB7770E0082365
:10400800FB776DE01023FB776AE07B681B681B4A2F
:10401800934238D1134BD3F8903003F44053B3F59F
:10402800405F17D0B3F5405F2AD8B3F5005F0BD0D7
:10403800B3F5005F24D8002B03D0B3F5805F06D01A
:104048001EE00023FB774BE00223FB7748E00423C4
:10405800FB7745E00823FB7742E000BFF369FFEFF9
:104068000010014000380240004400400048004071
:10407800004C00400050004000140140007800400F
:104088001023FB772CE07B681B68724A934225D18A
:10409800714BD3F8903003F44043B3F5404F17D039
:1040A800B3F5404F17D8B3F5004F0BD0B3F5004F19
:1040B80011D8002B03D0B3F5804F06D00BE00023B6
:1040C800FB770DE00223FB770AE00423FB7707E088
:1040D8000823FB7704E01023FB7701E01023FB772C
:1040E8007B68DB69B3F5004F5BD1FB7F082B28D8D1
:1040F80001A252F823F000BF254100082D41000815
:10410800354100084B4100083B4100084B4100087D
:104118004B4100084B41000843410008FEF7E2FA12
:10412800B86113E0FEF7F2FAB8610FE04B4BBB61E0
:104138000CE0FEF705FAB86108E04FF40043BB61F4
:1041480004E00023BB610123BB7700BFBB69002BE0
:1041580074D0BB695A007B685B685B081A447B684B
:104168005B68B2FBF3F33B613B690F2B16D93B69E4
:10417800B3F5803F12D23B699BB223F00F03FB815A
:104188003B695B089BB203F007039AB2FB891343B0
:10419800FB817B681B68FA89DA604FE00123BB77F3
:1041A8004CE0FB7F082B28D801A252F823F000BF6F
:1041B800DD410008E5410008ED4100080342000820
:1041C800F3410008034200080342000803420008C4
:1041D800FB410008FEF786FAB86113E0FEF796FA8D
:1041E800B8610FE01D4BBB610CE0FEF7A9F9B8619F
:1041F80008E04FF40043BB6104E00023BB610123E6
:10420800BB7700BFBB69002B18D07B685B685A0876
:10421800BB691A447B685B68B2FBF3F33B613B699B
:104228000F2B09D93B69B3F5803F05D23B699AB298
:104238007B681B68DA6001E00123BB777B6800229A
:104248009A667B680022DA66BB7F18462037BD462F
:1042580080BD00BF007C0040003802400024F4000C
:1042680080B483B000AF78607B685B6A03F00803B2
:10427800002B0AD07B681B685B6823F400417B68CD
:104288005A6B7B681B680A435A607B685B6A03F059
:104298000103002B0AD07B681B685B6823F400319C
:1042A8007B689A6A7B681B680A435A607B685B6A0A
:1042B80003F00203002B0AD07B681B685B6823F4B9
:1042C80080317B68DA6A7B681B680A435A607B68BE
:1042D8005B6A03F00403002B0AD07B681B685B68E9
:1042E80023F480217B681A6B7B681B680A435A6039
:1042F8007B685B6A03F01003002B0AD07B681B689D
:104308009B6823F480517B689A6B7B681B680A431F
:104318009A607B685B6A03F02003002B0AD07B68F5
:104328001B689B6823F400517B68DA6B7B681B6809
:104338000A439A607B685B6A03F04003002B1AD03B
:104348007B681B685B6823F480117B681A6C7B6848
:104358001B680A435A607B681B6CB3F5801F0AD13F
:104368007B681B685B6823F4C0017B685A6C7B68B8
:104378001B680A435A607B685B6A03F08003002B62
:104388000AD07B681B685B6823F400217B689A6C01
:104398007B681B680A435A6000BF0C37BD465DF84E
:1043A800047B704780B598B002AF78607B680022C4
:1043B800C3F88420FCF7D2FD78657B681B681B680E
:1043C80003F00803082B2ED16FF07E4300937B6D1A
:1043D80000224FF40011786800F08CF80346002B97
:1043E80021D07B681B68BB63BB6B53E8003F7B63D2
:1043F8007B6B23F080033B657B681B681A463B6D2B
:104408007B643A64396C7A6C41E80023FB63FB6B8C
:10441800002BE6D17B682022DA677B68002283F8CC
:104428007820032362E07B681B681B6803F00403A1
:10443800042B49D16FF07E4300937B6D00224FF42B
:104448008001786800F056F80346002B3CD07B6862
:104458001B687B627B6A53E8003F3B623B6A23F43C
:104468009073FB647B681B681A46FB6C3B63FA62BB
:10447800F96A3A6B41E80023BB62BB6A002BE6D1BC
:104488007B681B6808333B613B6953E8003FFB606E
:10449800FB6823F00103BB647B681B680833BA6CB4
:1044A800FA61BB61B969FA6941E800237B617B69FC
:1044B800002BE5D17B682022C3F880207B6800228E
:1044C80083F87820032311E07B682022DA677B6871
:1044D8002022C3F880207B6800221A667B680022AD
:1044E8005A667B68002283F87820002318465837DC
:1044F800BD4680BD80B584B000AFF860B9603B6050
:104508001346FB714FE0BB69B3F1FF3F4BD0FCF79B
:1045180025FD02463B68D31ABA699A4202D3BB69A1
:10452800002B01D103234EE0FB681B681B6803F0D6
:104538000403002B37D0BB68802B34D0BB68402BDA
:1045480031D0FB681B68DB6903F00803082B10D126
:10455800FB681B6808221A62F86800F0FFF8FB681D
:104568000822C3F88420FB68002283F878200123FE
:1045780029E0FB681B68DB6903F40063B3F5006F8F
:1045880011D1FB681B684FF400621A62F86800F0EA
:10459800E5F8FB682022C3F88420FB68002283F832
:1045A800782003230FE0FB681B68DA69BB681340B7
:1045B800BA689A420CBF01230023DBB21A46FB7982
:1045C8009A42A0D0002318461037BD4680BD00008F
:1045D80080B596B000AFF860B9601346FB80FB6801
:1045E800BA685A65FB68FA88A3F85820FB68002265
:1045F800C3F88420FB682222C3F88020FB685B6F25
:10460800002B28D0FB685B6F3E4ADA63FB685B6F60
:104618003D4A1A64FB685B6F3C4ADA64FB685B6F6F
:1046280000221A65FB68586FFB681B68243319461B
:10463800FB685B6D1A46FB88FCF75CFE0346002BA3
:1046480009D0FB681022C3F88420FB682022C3F835
:104658008020012351E0FB681B69002B18D0FB6800
:104668001B68FB63FB6B53E8003FBB63BB6B43F406
:1046780080737B65FB681B681A467B6DBB647A6434
:10468800796CBA6C41E800233B643B6C002BE6D1A3
:10469800FB681B680833BB62BB6A53E8003F7B6258
:1046A8007B6A43F001033B65FB681B6808333A6D7E
:1046B8007A633B63396B7A6B41E80023FB62FB6AE0
:1046C800002BE5D1FB681B6808337B617B6953E8E5
:1046D800003F3B613B6943F04003FB64FB681B6898
:1046E8000833FA6C3A62FB61F9693A6A41E80023D7
:1046F800BB61BB69002BE5D1002318465837BD467E
:1047080080BD00BF2D48000855490008934900089E
:1047180080B489B000AF78607B681B68FB60FB6879
:1047280053E8003FBB60BB6823F0C003FB617B68B4
:104738001B681A46FB69BB617A617969BA6941E805
:1047480000233B613B69002BE6D17B682022DA67B6
:1047580000BF2437BD465DF8047B704780B495B030
:1047680000AF78607B681B687B637B6B53E8003F16
:104778003B633B6B23F49073FB647B681B681A46AE
:10478800FB6C3B64FA63F96B3A6C41E80023BB634A
:10479800BB6B002BE6D17B681B6808333B623B6A26
:1047A80053E8003FFB61FB6923F00103BB647B68AE
:1047B8001B680833BA6CFA62BB62B96AFA6A41E8E4
:1047C80000237B627B6A002BE5D17B681B6E012B83
:1047D80018D17B681B68FB60FB6853E8003FBB602F
:1047E800BB6823F010037B647B681B681A467B6CEC
:1047F800BB617A617969BA6941E800233B613B6929
:10480800002BE6D17B682022C3F880207B68002239
:104818001A667B6800229A6600BF5437BD465DF869
:10482800047B704780B59CB000AF78607B689B6B59
:10483800FB667B68DB69B3F5807F71D0FB6E002275
:10484800A3F85A20FB6E1B68FB64FB6C53E8003F1F
:10485800BB64BB6C23F48073BB66FB6E1B681A4693
:10486800BB6EBB657A65796DBA6D41E800233B651F
:104878003B6D002BE6D1FB6E1B680833BB63BB6B3B
:1048880053E8003F7B637B6B23F001037B66FB6E81
:104898001B6808337A6E7A643B64396C7A6C41E839
:1048A8000023FB63FB6B002BE5D1FB6E1B68083311
:1048B8007B627B6A53E8003F3B623B6A23F040031C
:1048C8003B66FB6E1B6808333A6E3A63FB62F96A13
:1048D8003A6B41E80023BB62BB6A002BE5D1FB6E53
:1048E8002022C3F88020FB6E1B6E012B18D1FB6EB3
:1048F8001B683B613B6953E8003FFB60FB6823F0A2
:104908001003FB65FB6E1B681A46FB6DFB61BA6101
:10491800B969FA6941E800237B617B69002BE6D11C
:10492800FB6E00225A66FB6E1B6E012B07D1FB6ED5
:10493800B3F858301946F86EFFF718FA02E0F86E27
:10494800FCF762FA00BF7037BD4680BD80B584B001
:1049580000AF78607B689B6BFB60FB6801225A663E
:10496800FB681B6E012B09D1FB68B3F858305B0854
:104978009BB21946F868FFF7F9F902E0F868FFF703
:10498800EBF900BF1037BD4680BD80B586B000AFDB
:1049980078607B689B6B7B617B69DB6F3B617B69C4
:1049A800D3F88030FB607B691B689B6803F0800349
:1049B800802B09D13B69212B06D17B690022A3F802
:1049C80052207869FFF7A4FE7B691B689B6803F097
:1049D8004003402B09D1FB68222B06D17B690022BA
:1049E800A3F85A207869FFF7B9FE7B69D3F88430B9
:1049F80043F010027B69C3F884207869FCF71EFA3B
:104A080000BF1837BD4680BD80B584B000AF786060
:104A18007B689B6BFB60FB680022A3F85A20FB684D
:104A28000022A3F85220F868FCF708FA00BF1037F4
:104A3800BD4680BD80B588B000AF78607B681B68D4
:104A4800FB60FB6853E8003FBB60BB6823F0400392
:104A5800FB617B681B681A46FB69BB617A617969EF
:104A6800BA6941E800233B613B69002BE6D17B68CA
:104A78002022DA677B680022DA667868FFF762F935
:104A880000BF2037BD4680BD80B582B000AF7860DA
:104A98007B68002B02D12EF04DFA78607B68002BE2
:104AA80001D1002301E07B681B6918460837BD4621
:104AB80080BD80B582B000AF78607B68002B02D1E2
:104AC8002EF038FA78607B68002B01D1002301E0D2
:104AD8007B685B6918460837BD4680BD80B582B0E3
:104AE80000AF78607B68002B02D12EF023FA786043
:104AF8007B68002B01D1002301E07B68DB69184645
:104B08000837BD4680BD80B582B000AF78607B684D
:104B1800002B02D12EF00EFA78607B68002B01D1B1
:104B2800002301E07B681B6A18460837BD4680BD34
:104B380080B582B000AF786039607B68002B02D105
:104B48002EF0F8F978607B683A689A607B685B6A4F
:104B5800032B22D17B68DB681B6818460DF08EFAA0
:104B68000346002B19D17B68DB6804331B681846A1
:104B78000DF084FA0346002B0FD17B68DB680833FD
:104B88001B6818460DF07AFA0346002B05D17B689E
:104B9800DB681B6818460EF0CFFE00BF0837BD461D
:104BA80080BD80B582B000AF78607B68002B02D1F1
:104BB8002EF0C0F978607B689B6818460837BD46B8
:104BC80080BD000080B58CB000AFF8600B467A60FD
:104BD800FB72FB68002B01D101232FE0FB683B61CE
:104BE800FB687B61FB7A3B760023FB617B683B6259
:104BF80097F828306FF3000387F8283097F82830A3
:104C08006FF3820387F8283097F828306FF3410351
:104C180087F828300B4B1B687B620A4A07F11003A0
:104C2800136007F11003184600F0CEF9034687F821
:104C38002F307B6A034A136097F82F3018463037B5
:104C4800BD4680BDD8EA032080B584B000AF786047
:104C580039607B68002B04D13B685B681B68FB608C
:104C680006E07B681B68FB6002E0FB681B68FB6072
:104C7800FB68002B03D0FB681B69002BF5D0FB6891
:104C8800002B01D1012319E0FB681B69002B01D11E
:104C9800012313E03B680022DA60FB681B6939686E
:104CA800F86898470123FB723B681B7E03F00103F9
:104CB800DBB2002B01D00023FB72FB7A18461037B9
:104CC800BD4680BD80B483B000AF78607B681B6848
:104CD80018460C37BD465DF8047B704780B483B036
:104CE80000AF78607B685B6818460C37BD465DF896
:104CF800047B704780B483B000AF78607B681B7A10
:104D080003F07F03DBB218460C37BD465DF8047B21
:104D1800704780B483B000AF78607B681B69184621
:104D28000C37BD465DF8047B704780B483B000AF94
:104D380078607B68DB6818460C37BD465DF8047BF5
:104D48007047000080B485B000AF78600F4B1B68D7
:104D5800FB6011E0FB685B687A689A4204D0FB68E4
:104D68001B687A689A4204D1FA68137E43F00103FB
:104D78001376FB685B69FB60FB68002BEAD100BF18
:104D880000BF1437BD465DF8047B7047D8EA03209E
:104D980090B585B000AFF860B9603B601346FB7111
:104DA800F86804F009F9FB689B689A7E0132D2B270
:104DB8009A76FB689B68DA68FB689B689B7E194655
:104DC8000B465B000B449B001946FB689C68104629
:104DD80030F0FCFA0346E360FB689B68DB68002B55
:104DE80000D1FEE7FB689B68DA68FB689B689B7EDE
:104DF80019460B465B000B449B000C3B1344BA68F6
:104E08001A60FB689B68DA68FB689B689B7E19469A
:104E18000B465B000B449B000C3B1344FA791A7257
:104E2800FB689B68DA68FB689B689B7E19460B46A3
:104E38005B000B449B000C3B13443A685A60FB68C8
:104E48009B68DA68FB689B689B7E19460B465B008B
:104E58000B449B000C3B134418461437BD4690BDC9
:104E680080B582B000AF78607B681B7A012B3BD09D
:104E78007B681B7A022B37D07B681B7A032B33D0D5
:104E88007B681B7A042B2FD07B681B7A052B2BD0D1
:104E98007B681B7A062B27D07B681B7A072B23D0CD
:104EA8007B681B7A082B1FD07B681B7A092B1BD0C9
:104EB8007B681B7A0A2B17D07B681B7A0B2B13D0C5
:104EC8007B681B7A0C2B0FD07B681B7A0D2B0BD0C1
:104ED8007B681B7A0E2B07D07B681B7A0F2B03D0BD
:104EE8007B681B7A102B04D17868FFF712FF034602
:104EF80000E0002318460837BD4680BD80B582B063
:104F080000AF78607B681B7A152B13D07B681B7AFF
:104F1800142B0FD07B681B7A162B0BD07B681B7A5F
:104F2800182B07D07B681B7A172B03D07B681B7A5A
:104F3800192B04D17868FFF7ECFE034600E0002344
:104F480018460837BD4680BD80B584B000AF78608C
:104F58000B467B807B681B7A132B0ED17868FFF792
:104F6800D8FEF860FB68B3F90030B7F90220934225
:104F7800B8BF13461AB2FB681A8000BF1037BD4687
:104F880080BD80B483B000AF786039607B689B686F
:104F9800002B01D1002311E07B689B689B7E1A4699
:104FA8003B68934201D3002308E07B689B68D9687B
:104FB8003A6813465B0013449B000B4418460C37B1
:104FC800BD465DF8047B704780B586B000AF786059
:104FD80000F076FDB860BB68002B1FD0BB681B686B
:104FE8009B68002B08D0BB681B689B68BA68106870
:104FF8007A68127A114698477B681B7E03F0020391
:10500800DBB2002B01D00123CAE07B681B7E03F0D2
:105018000103DBB2002B01D00023C1E00123FB75A3
:10502800FB7D002B07D07B685B6800211846FFF7E3
:10503800A8FF034600E000233B610023FB6038E043
:105048003B691B68002B2AD03B691B7A5BB2002B9B
:1050580025DA3B691B7A802B07D03B691B7A23F042
:1050680080037A68127A934219D13B695A687B683F
:10507800DA603B691B68786898477B681B7E03F099
:105088000203DBB2002B01D0012389E07B681B7E81
:1050980003F00103DBB2002B01D0002380E0FB68A2
:1050A8000133FB607B685B68F9681846FFF769FFA6
:1050B80038613B69002B02D0FB7D012BC0D0796899
:1050C8000020FFF7C1FD0346FB75FB7D002B07D0D1
:1050D8007B685B6800211846FFF753FF034600E032
:1050E80000233B610023FB6036E03B691B68002B13
:1050F80028D03B691B7A5BB2002B23DB3B691B7A08
:10510800002B05D03B691A7A7B681B7A9A4219D121
:105118003B695A687B68DA603B691B68786898471E
:105128007B681B7E03F00203DBB2002B01D0012356
:1051380036E07B681B7E03F00103DBB2002B01D055
:1051480000232DE0FB680133FB607B685B68F9682E
:105158001846FFF716FF38613B69002B02D0FB7D2C
:10516800012BC2D0FB7D012B19D17B685B685B6882
:10517800002B14D0786800F017F80346002B0ED0E7
:105188007B685B685A687B685A607868FFF71CFF21
:105198000346FB75FB7D012B01D0002300E0FB7D5E
:1051A80018461837BD4680BD80B582B000AF78601C
:1051B8007B681B7E03F00403DBB2002B01D00023C5
:1051C80059E07B681B7A233B012B01D8012352E06D
:1051D80000BF7B685B684FF48041184603F08DFE82
:1051E800034683F00103DBB2002B01D0002342E029
:1051F8007B681B7A113B1B2B3CD801A252F823F089
:10520800795200087952000879520008795200084A
:10521800795200087952000879520008795200083A
:105228007952000879520008795200087D52000826
:105238007D520008795200087D5200087D5200080E
:10524800795200087952000879520008795200080A
:105258007D5200087D5200087D5200087D520008EA
:1052680079520008795200087D52000879520008E6
:10527800002300E0012318460837BD4680BD00BF63
:1052880080B500AF1C2102482FF0B7FC00BF80BDDD
:105298002CED032080B400AF034B1B681846BD46B5
:1052A8005DF8047B704700BFDCEA032080B586B058
:1052B80000AF786039607B68002B50D07B68184657
:1052C8002FF09AFD78610AE07B691B683A689A4278
:1052D80047D07B68796918462FF0B0FD78617B6903
:1052E800002BF1D1386803F053FE38613B69002B7D
:1052F8000FD03B689B689B68002B0AD03B689B6873
:105308009B68DB681B683A689A4202D1386900F0EA
:10531800ECF93B689B68002B02D1386803F04CFE1F
:105328003B689B687A689A607B6818462FF0B2FCE5
:10533800F860FB68002B00D1FEE7FB68002B12D059
:10534800FB683A681A607B6818462FF055FD0246DC
:10535800FB68934208D1786800F0C7F904E000BF01
:1053680002E000BF00E000BF1837BD4680BD90B521
:1053780085B000AF7860786803F00AFEB860BB6853
:10538800002B6AD0BB68DB68002B33D0BB68DB68B6
:105398001B687A689A422DD1BB681B7E03F0010313
:1053A800DBB2002B04D0BA68137E6FF300031376C8
:1053B800BB6818462FF020FD0246BB68DB689A429E
:1053C80015D1BB6818462FF028FD0246BB68DB687C
:1053D8009A420CD1BB68DB681C68B86800F089FA8F
:1053E80003461A460F212046FFF7ECFB02E0B86897
:1053F80000F07BF9BB68DB68002B08D0BB68DB6872
:105408001B687A689A4202D1BB680022DA60BB68DE
:1054180018462FF0F1FCF8601BE0FB681B687A68FF
:105428009A4210D1BB68F96818462FF067FCF868F3
:105438002FF0B0FF7B689B68002B10D07B689B68BF
:1054480000229A600BE0BB68F96818462FF0F6FC5A
:10545800F860FB68002BE0D102E000BF00E000BF6D
:105468001437BD4690BD90B587B000AF78607B68B3
:10547800002B6ED0786803F08BFD38613B69002BF8
:1054880069D03B691B7E03F00103DBB2002B64D1BA
:105498000021386900F0A9F83B6918462FF0ACFCE8
:1054A800786152E07B691B687A689A4247D13B6908
:1054B800DB68002B1CD03B69DB681B687A689A4262
:1054C80016D03B69DB681C68386900F012FA03469D
:1054D8001A460F212046FFF775FB0346FB73FB7B3B
:1054E800012B3CD13B69DB681B68184607F0D1FEED
:1054F8003B697A69DA603B69DB68002B31D03B692C
:105508001B69002B03D03B691B69386998473B69C5
:10551800DB681C68386900F0ECF903461A460E216E
:105528002046FFF74FFB0346BB73BB7B012B1AD109
:105538003B69DB681B68184607F0ABFE11E03B6966
:10554800796918462FF07AFC78617B69002BA9D11C
:105558000AE000BF08E000BF06E000BF04E000BFAB
:1055680002E000BF00E000BF1C37BD4690BD000050
:1055780080B582B000AF7860044A0549786800F0C9
:10558800E5F800BF0837BD4680BD00BF454E03089B
:10559800014E030880B582B000AF7860044A05491F
:1055A800786800F0D3F800BF0837BD4680BD00BF5B
:1055B8006F4E0308234E030880B584B000AF7860AF
:1055C8003960786800F052F8F860FB68002B01D168
:1055D800012306E03B461A460D21F868FFF7F2FA68
:1055E800034618461037BD4680BD90B587B000AF5A
:1055F80078600B46FB707B68002B2FD0FB78FB751F
:105608007B681B7EC3F34003DBB21A46FB7D9342E3
:1056180026D0FB7D03F00103D9B27A68137E61F3CB
:1056280041031376786800F021F838613B69002B54
:1056380019D07B68DB681C68786800F05AF9034663
:105648001A460E212046FFF7BDFA0346FB73FB7B83
:10565800012B07D1386907F01CFE04E000BF02E007
:1056680000BF00E000BF1C37BD4690BD80B483B0CA
:1056780000AF78607B68002B01D1002308E07B68CD
:10568800DB68002B01D1002302E07B68DB681B6824
:1056980018460C37BD465DF8047B704780B483B06C
:1056A80000AF78607B68002B01D100230AE07B689B
:1056B8001B7E5B08DBB203F00103002B14BF012340
:1056C8000023DBB218460C37BD465DF8047B7047F3
:1056D80080B582B000AF78607B6818462FF0D7FBA2
:1056E800034618460837BD4680BD80B584B000AF74
:1056F80078607B681B7EC3F3C003DBB2FB737A68F8
:10570800137E43F0080313767B681B7E03F00403C3
:10571800DBB2002B03D17868FFF72AFF09E07B682A
:105728001B7E03F00403DBB2002B02D07868FFF77E
:1057380031FFFB7B03F00103D9B27A68137E61F372
:10574800C303137600BF1037BD4680BD90B58BB03C
:1057580000AFF860B9607A60FB681B7E03F0010354
:10576800DBB2002B40F0B380FB68DB687B62002370
:105778003B620123FB770123BB777B6A002B1AD19D
:10578800FB681B7E03F00803DBB2002B03D13B6AE6
:10579800002B40F09E80BB7F83F00103DBB2002B1F
:1057A80040F09980FA68BB681046984778620023F1
:1057B800FB770023BB773B6A002B05D17B6A3B62F2
:1057C8003B6A002B00F08980FB7F002B09D0FA6828
:1057D8007B68796A1046984778627A6A3B6A9A4287
:1057E8007DD00123FB777B6A002B28D07B6A1B685E
:1057F800184603F0ABFB034603F08003002B20D1CF
:105808007B6A1B68BB610AE00121B86903F075FB7C
:105818000346002B07D1B8690CF0ECFBB861BB69F3
:10582800002BF1D100E000BFBB69002B0BD0012198
:10583800B86903F062FB0346002B04D002E000BF06
:105848009BE700BF99E700BFFB68DB687A6A9A426A
:1058580047D0FB68DB68002B16D0FB68DB681C6848
:10586800F86800F046F803461A460F212046FFF76D
:10587800A9F90346FB75FB7D012B34D1FB68DB6876
:105888001B68184607F005FDFB687A6ADA60FB6852
:10589800DB681C68F86800F02CF803461A460E21ED
:1058A8002046FFF78FF90346BB75BB7D012B1CD142
:1058B800FB68DB681B68184607F0EBFCFB681B6994
:1058C800002B13D0FB681B69F86898470EE000BFEF
:1058D8000CE000BF0AE000BF08E000BF06E000BF20
:1058E80004E000BF02E000BF00E000BF2C37BD4667
:1058F80090BD80B586B000AF786000237B6100233F
:105908003B6100202DF020FCF86019E0F86800F0F9
:10591800E3F80346FB72FB681B6D7A689A420BD169
:10592800FB7A022B01D1FB681BE0FB7A042B01D127
:10593800FB687B61FB683B61F8682DF005FCF8604B
:10594800FB68002BE2D17B69002B01D07B6908E062
:105958003B69002B01D03B6903E000202DF0F4FBEC
:10596800034618461837BD4680BD000090B589B07B
:1059780000AF78607B68DB684F4A13604E4B1B684A
:105988001B681B69002B00F090804B4B1B68184666
:1059980001F00EFB484B1B685B7903F00403DBB294
:1059A800002B40F08480444B1B6807F10C02114621
:1059B80018462DF0E1FBFB7EFB773F4B1B68184632
:1059C80001F0F6FA3D4B00221A603B4B1B68BA7E89
:1059D8001A71394B1B681B79012B09D1364B1B688F
:1059E8001B681C692DF01CFC0346C4F8543112E0F6
:1059F800314B1B681B681B78042B0CD1B7F9183086
:105A0800002B08D02C4B1B681B681C692DF008FC68
:105A18000346C4F85431284B1B681B681B78012BBC
:105A280008D1254B1B6807F10C021146184600F0F7
:105A38000DFA2BE0204B1B681B681B78022B08D142
:105A48001D4B1B6807F10C021146184600F0B8FA06
:105A58001CE0194B1B681B681B78042B08D1164BDC
:105A68001B6807F10C021146184600F087FC0DE090
:105A7800114B1B681B681B78032B07D10E4B1B6847
:105A880007F10C021146184600F07AFF0A4B1B6812
:105A9800184601F08DFAFB7F002B84D1064B0022BB
:105AA8001A60064B00221A6002E000BF00E000BF47
:105AB8002437BD4690BD00BFE0EA0320E4EA032096
:105AC80080B400AF034B1B681846BD465DF8047BE5
:105AD800704700BFE0EA032080B483B000AF78606D
:105AE8007B68002B01D1002302E07B681B681B78D0
:105AF80018460C37BD465DF8047B704780B584B006
:105B080000AF786039607B68002B38D07A685379A9
:105B180043F0020353713B4B1B687A689A4202D1E7
:105B2800394B00221A607B681B681B78012B04D054
:105B38007B681B681B78022B60D13B68002B04D064
:105B48007B681B6B3A689A4202D17B6800221A6311
:105B58003B68002B04D07B685B6A3A689A4202D1A2
:105B68007B6800225A623B68002B04D07B689B6AE2
:105B78003A689A4242D17B6800229A623EE000204D
:105B88002DF0E2FAF86033E0FA68537943F0020343
:105B98005371FB681B681B78012B04D0FB681B68DA
:105BA8001B78022B20D13B68002B04D0FB681B6BB1
:105BB8003A689A4202D1FB6800221A633B68002BBC
:105BC80004D0FB685B6A3A689A4202D1FB680022FB
:105BD8005A623B68002B04D0FB689B6A3A689A4279
:105BE80002D1FB6800229A62F8682DF0ADFAF860DD
:105BF800FB68002BC8D1044B00221A6000BF103785
:105C0800BD4680BDE0EA0320E4EA032080B582B007
:105C180000AF78607A6853796FF3000353712DF001
:105C2800FFFA02467B689A642DF0FAFA02467B680E
:105C38005A6400BF0837BD4680BD80B483B000AF4A
:105C4800786039607B68002B06D13B6800221A8097
:105C58003B6800225A801CE07B681B681B78012B7C
:105C68000DD07B681B681B78032B08D03B684FF668
:105C7800FF721A803B684FF6FF725A8009E07B6812
:105C8800B3F908203B681A807B68B3F90A203B689F
:105C98005A800C37BD465DF8047B704780B483B0EA
:105CA80000AF78607B68002B01D1002311E07B688E
:105CB8001B681B78012B06D07B681B681B78032B9D
:105CC80001D0002305E07B6893F84030C3F3030359
:105CD800DBB218460C37BD465DF8047B704780B4CC
:105CE80083B000AF78607B68002B01D100230DE002
:105CF8007B681B681B78012B06D07B681B681B78A8
:105D0800032B01D0002301E07B68DB6A18460C37BF
:105D1800BD465DF8047B704780B483B000AF7860FF
:105D280039603B6800221A803B6800225A807B68F1
:105D3800002B14D07B681B681B78012B04D07B6870
:105D48001B681B78032B0BD17B68B3F914203B68C5
:105D58001A807B68B3F916203B685A8000E000BFC0
:105D68000C37BD465DF8047B704780B483B000AF44
:105D780078607B68002B05D07A68537943F0080374
:105D8800537100E000BF0C37BD465DF8047B7047D7
:105D980080B400AF034B1B681846BD465DF8047B12
:105DA800704700BFE4EA032080B588B000AF786090
:105DB80039600023BB610121786803F09EF803462F
:105DC800002B01D000233DE03968786807F0F9FB23
:105DD8000346FB757B6814330022396818462DF09A
:105DE80036FF0346002B07D14FF40021786803F0F3
:105DF80084F80346002B1FD078680CF03FF938610F
:105E08003B69013BFB6114E07B689B681A68FB698E
:105E18009B0013441B68FB603968F868FFF7C4FFF0
:105E2800B861BB69002B01D0BB690BE0FB69013B82
:105E3800FB61FB69002BE7DAFB7D002B01D07B6857
:105E480000E0002318462037BD4680BD80B584B0E9
:105E580000AF786039607B681B681B69FB603B6832
:105E6800B3F900207B681A823B68B3F902207B688B
:105E78005A82FB681B681B7C03F03003DBB2202BC3
:105E880007D0FB681B681B7C03F03003DBB2302BA8
:105E98001FD1FB681B68B3F900309AB23B68B3F9AD
:105EA80000309BB2D31A9BB2013B9BB21AB23B683B
:105EB8001A80FB681B68B3F902309AB23B68B3F9E1
:105EC80002309BB2D31A9BB2013B9BB21AB23B6819
:105ED8005A80FB681B681B7C03F03003DBB2102B75
:105EE80007D0FB681B681B7C03F03003DBB2302B48
:105EF80014D13B685B887B813B68B3F900203B6821
:105F08005A80FB681B68B3F902309AB27B89D31AAE
:105F18009BB2013B9BB21AB23B681A807B681B6834
:105F28001B6918462DF012F87B681B681B69184618
:105F38002DF032F87B68DB6C002B1AD07B68B3F944
:105F48000C203B68B3F900309A4207D17B68B3F95B
:105F58000E203B68B3F902309A420AD07B68D86CAD
:105F68003B68B3F900103B68B3F902301A4605F0F4
:105F78004EFD3B68B3F900207B681A813B68B3F992
:105F880002207B685A817B681B79012B05D17B68CD
:105F98000433184600F064FD04E07B6804331846B7
:105FA80000F08AFF7B68B3F908207B689A817B68D8
:105FB800B3F90A207B68DA8100BF1037BD4680BD7F
:105FC80080B586B000AF786039603B689B7B012B59
:105FD80007D17B685B7903F00803DBB2002B40F044
:105FE800B8817B685B7903F00803DBB2002B0FD024
:105FF8007A6853796FF3C30353717B6800225A643C
:106008007A6853796FF3000353717B6800221A7220
:106018007B681B6D7B617B69002B00F09C81786934
:10602800FFF724FB03469E4A13609D4B1B68002B19
:1060380000F093817B68DB683B613B685A687B684A
:10604800DA607B681B7AFB603B689A7B7B681A7214
:106058003B689B7B012B6CD1FB68002B69D12DF031
:10606800DFF802467B685A643B685B680A2B15D1E7
:106078000A217869FFF7A0FA894B1B68894A1268D8
:1060880001211846FEF79EFD7B680433184601F08F
:106098007DF90346002B00F0558167E13B685B689A
:1060A8001B2B15D11B217869FFF786FA7C4B1B68DF
:1060B8007C4A126820211846FEF784FD7B68043369
:1060C800184601F063F90346002B00F03B814DE1CF
:1060D8003B685B68092B10D100217869FFF785FAC6
:1060E8007869FFF745FA7B680433184601F04EF9E2
:1060F8000346002B00F0268138E13B685B680B2BD8
:1061080010D100217869FFF770FA7869FFF742FA31
:106118007B680433184601F039F90346002B00F078
:10612800118123E13B685B6819467869FFF744FAF7
:1061380008E13B689B7B012B40F0B680FB68012B94
:1061480040F0B2803B685B680A2B10D1544B1B6847
:10615800544A126802211846FEF734FD7B6804335E
:10616800184601F013F90346002B40F0F8807B68CD
:106178005B7903F00103DBB2002B29D17B685B6CF0
:1061880018462DF067F802467B681B689B8B9A427D
:106198001ED97A68537943F0010353713B685B68F1
:1061A8000A2B7BD12DF03CF802467B689A643C4B65
:1061B8001B683C4A126805211846FEF703FD7B68F8
:1061C8000433184601F0E2F80346002B66D0CDE010
:1061D8007B685B7903F00103DBB2002B00F0B4802D
:1061E8007B689B6C18462DF035F802467B681B6867
:1061F800DB8B9A4240F2A8802DF012F802467B68A9
:106208009A643B685B680A2B11D1254B1B68254AA9
:10621800126806211846FEF7D5FC7B680433184639
:1062280001F0B4F80346002B00F08E809EE03B6836
:106238005B68092B0FD100217869FFF7D6F97869D7
:10624800FFF796F97B680433184601F09FF8034678
:10625800002B79D08AE03B685B680B2B0FD10021BB
:106268007869FFF7C2F97869FFF794F97B68043316
:10627800184601F08BF80346002B65D076E03B68A2
:106288005B6819467869FFF797F97B680433184605
:1062980001F07CF80346002B56D067E000BF53E0BE
:1062A800E4EA0320E0EA03203B689B7B002B4CD107
:1062B800FB68012B49D13B683A695A603B685B68C7
:1062C8000A2B36D12B4B1B682B4A1268082118461B
:1062D800FEF778FC7B680433184601F057F803464C
:1062E800002B3ED17B685B7903F00103DBB2002B06
:1062F8000FD1204B1B68204A126804211846FEF76C
:1063080061FC7B680433184601F040F80346002B13
:1063180029D1184B1B68184A126807211846FEF73E
:1063280051FC7B680433184601F030F80346002B13
:106338001BD17B6800225A647A6853796FF3000393
:10634800537102E000BF00E000BF0A4B00221A6050
:106358000CE000BF0AE000BF08E000BF06E000BF95
:1063680004E000BF02E000BF00E000BF1837BD46F0
:1063780080BD00BFE4EA0320E0EA032080B588B0CE
:1063880000AF786039603B689B7B012B07D17B6845
:106398005B7903F00803DBB2002B40F0D7827B68FF
:1063A8005B7903F00803DBB2002B0FD07A685379CE
:1063B8006FF3C30353717B6800225A647A68537978
:1063C8006FF3000353717B6800221A727B681B7A93
:1063D800FB753B689A7B7B681A723B685A687B68D6
:1063E800DA607B681B6D3B613B69002B00F0B08273
:1063F8003869FFF73BF90346A04A13609F4B1B68B7
:10640800002B00F0A7823B689B7B002B02D03B68E7
:1064180000229A813869FFF729F90346974A1360E1
:10642800964B1B68002B00F097823B689B7B012BE7
:1064380040F08180FB7D002B7DD12CF0F1FE0246DF
:106448007B685A643B685B680A2B37D18B4B1B68A7
:10645800184603F0D9FF0346002B08D1874B1B6869
:106468001021184602F049FD0346002B01D00123F4
:1064780000E00023FB73FB7B03F00103FB73386927
:10648800FFF70CF90346002B06D1FB7B83F00103D1
:10649800DBB2002B00F0EF81784B1B68784A12685A
:1064A80001211846FEF78EFB7B680433184600F07E
:1064B8006DFF0346002B00F0DE815AE23B685B6803
:1064C800142B09D13B68B3F90C309BB2013B9BB24A
:1064D8001AB23B689A81CEE13B685B68132B09D1FD
:1064E8003B68B3F90C309BB201339BB21AB23B68DC
:1064F8009A81C0E13B685B681B2B15D11B21386969
:10650800FFF75AF85D4B1B685D4A12682021184650
:10651800FEF758FB7B680433184600F037FF034644
:10652800002B00F0A88124E23B685B6819463869B3
:10653800FFF742F89FE13B689B7B012B40F0CE8040
:10654800FB7D012B40F0CA807B685B7903F0010377
:10655800DBB2002B63D17B685B6C18462CF07AFEAB
:1065680002467B681B689B8B9A4258D97A68537994
:1065780043F0010353712CF053FE02467B689A6482
:106588003B685B680A2B44D13C4B1B68184603F0F8
:106598003BFF0346002B08D1384B1B6810211846D7
:1065A80002F0ABFC0346002B01D0012300E00023DE
:1065B800BB73BB7B03F00103BB73BB7B002B17D002
:1065C8003869FFF785F80346012B22D93869FFF7A8
:1065D80065F8034683F00103DBB219463869FFF713
:1065E80004F8264B1B682021184602F068FC10E0CE
:1065F800224B1B68224A126805211846FEF7E2FA68
:106608007B680433184600F0C1FE0346002B40F0B7
:10661800A5817A68537943F0010353712DE17B68B2
:106628005B7903F00103DBB2002B00F026817B6865
:106638009B6C18462CF00EFE02467B681B68DB8BB1
:106648009A4240F21A812CF0EBFD02467B689A646C
:106658003B685B680A2B15D1084B1B68084A12680F
:1066680006211846FEF7AEFA7B680433184600F098
:106678008DFE0346002B00F000817AE1E4EA032056
:10668800E0EA03203B685B68142B09D13B68B3F947
:106698000C309BB2013B9BB21AB23B689A81ECE08A
:1066A8003B685B68132B09D13B68B3F90C309BB28C
:1066B80001339BB21AB23B689A81DEE03B685B68A3
:1066C80019463869FEF778FF7B680433184600F0EE
:1066D8005DFE0346002B00F0D0804AE13B689B7BBF
:1066E800002B40F0CB80FB7D012B40F0C7803B683E
:1066F8005B680A2B40F0B6809F4B1B68184603F076
:1067080083FE0346002B08D19B4B1B6810211846BB
:1067180002F0F3FB0346002B01D0012300E0002325
:106728007B737B7B03F001037B737B7B83F001032B
:10673800DBB2002B39D0904B1B68904A12680821B5
:106748001846FEF73FFA7B680433184600F01EFE31
:106758000346002B40F004817B685B7903F001035A
:10676800DBB2002B07D1844B1B68844A12680421D2
:106778001846FEF727FA7B680433184600F006FE31
:106788000346002B40F0EE807B4B1B687B4A126867
:1067980007211846FEF716FA7B680433184600F0FE
:1067A800F5FD0346002B5DD0E3E03869FEF776FF80
:1067B8000346002B4BD07B685B7903F00103DBB207
:1067C800002B05D03869FEF783FF0346012B37D825
:1067D800694B1B68694A126808211846FEF7F2F9E6
:1067E8007B680433184600F0D1FD0346002B40F0C7
:1067F800BB80614B1B68614A126804211846FEF78A
:10680800E1F97B680433184600F0C0FD0346002B0D
:1068180040F0AC80584B1B68584A1268072118464C
:10682800FEF7D0F97B680433184600F0AFFD034645
:10683800002B40F09D800A213869FEF7BDFE11E06B
:106848004D4B1B682021184602F039FB0AE07B6893
:106858005B7903F00103DBB2002B03D10121386916
:10686800FEF7C3FE7B6800225A647A6853796FF397
:106878000003537102E000BF00E000BF3E4B00225E
:106888001A603B68B3F90C30002B72D03869FEF7F8
:1068980005FF0346002B2DD03B68B3F90C30002BC5
:1068A80011DA0023FB6106E014213869FEF784FE43
:1068B800FB690133FB613B68B3F90C305B42FA6951
:1068C8009A42F1DB55E03B68B3F90C30002B50DD00
:1068D8000023FB6106E013213869FEF76DFEFB69B2
:1068E8000133FB613B68B3F90C301A46FB699342EC
:1068F800F1DB3EE03B68B3F90C30002B10DA0023E3
:10690800BB6105E03869FEF745FEBB690133BB6131
:106918003B68B3F90C305B42BA699A42F2DB28E073
:106928003B68B3F90C30002B23DD0023BB6105E085
:106938003869FEF71DFEBB690133BB613B68B3F9DB
:106948000C301A46BB699342F2DB12E000BF10E03C
:1069580000BF0EE000BF0CE000BF0AE000BF08E087
:1069680000BF06E000BF04E000BF02E000BF00E097
:1069780000BF2037BD4680BDE4EA0320E0EA0320DB
:1069880080B584B000AF786039607B685B6D002BA0
:106998005BD07B685A6D3B689B689B0013441B88DF
:1069A800FB817B685A6D3B689B689B0013445B883E
:1069B800BB813B689A7B294B1B789A423B689B7B3F
:1069C800012B12D17B68B3F90C30B7F90E209A422B
:1069D80006D17B68B3F90E30B7F90C209A4204D07F
:1069E8007B680433184600F067FA7B68043318465E
:1069F80000F0CCFC0346002B29D17B68FA891A8168
:106A08007B68BA895A813B689B7B012B05D17B68DF
:106A18000433184600F024F804E07B680433184671
:106A280000F04AFA7B680433184600F0AFFC0346CE
:106A3800002B0ED17B68B3F908207B689A817B68AC
:106A4800B3F90A207B68DA8104E000BF02E000BFE6
:106A580000E000BF1037BD4680BD00BFE8EA032054
:106A680080B586B000AF78607B681B6A234A1360E4
:106A78007B685B7803F00803DBB2002B40F0FD81F4
:106A88001F4B1B681B681B693B610023FB751B4B75
:106A98001B68002B36D13869FEF735F802467B684B
:106AA800043319461046FFF77FF90346134A13606B
:106AB800124B1B68002B0CD13869FEF70FF8024601
:106AC8007B68043319461046FFF76EF903460B4AF4
:106AD80013600A4B1B68002B0CD13869FDF7D4FFF3
:106AE80002467B68043319461046FFF75DF90346F2
:106AF800024A13600123FB7546E000BFE4EA032065
:106B0800E0EA03207B689B6A002B3DD1A74B1B68FA
:106B18004FF40051184602F0F0F9034683F00103E0
:106B2800DBB2002B30D03869FDF7EDFF02467B68F9
:106B3800043319461046FFF737F903469B4A13609A
:106B48009A4B1B68002B0CD13869FDF7C7FF02462A
:106B58007B68043319461046FFF726F90346934A23
:106B68001360924B1B68002B0CD13869FDF78CFF22
:106B780002467B68043319461046FFF715F90346A9
:106B88008A4A13600123FB75FB7D002B13D07B68B9
:106B98005B6A002B0FD07B6800221A837B68002277
:106BA8005A83786800F072FD786800F0EFFB0346BE
:106BB800002B40F064817B681A6A7C4B1B689A4200
:106BC80000F081807B68B3F904207B681A817B68B8
:106BD800B3F906207B685A817B681B6A002B10D0AA
:106BE8007B681B6AFB60724B1B681A460321F868B6
:106BF800FDF7E8FF786800F0C9FB0346002B40F07A
:106C080040816A4B1A687B681A62684B1A687B680D
:106C18005A62664B1B68002B55D02CF001FB0246CC
:106C28007B681A647A6853786FF3000353707B6843
:106C380000229A827B680022DA827A6892F83C30D5
:106C48006FF3030382F83C307A6892F83C306FF3B4
:106C5800071382F83C307A6892F83D306FF30003EE
:106C680082F83D307B6800221A877B6800225A87A9
:106C78007B6800221A827B6800225A824B4B1B6871
:106C88004B4A126801211846FDF79CFF786800F00E
:106C98007DFB0346002B40F0F680454B1B685B7973
:106CA80003F00803DBB2002B40F0EF80404B1B6879
:106CB8000433184600F0C4F9786800F067FB03460F
:106CC800002B40F0E4807B68B3F904309AB27B680B
:106CD800B3F908309BB2D31A9BB21AB27B681A82F6
:106CE8007B68B3F906309AB27B68B3F90A309BB275
:106CF800D31A9BB21AB27B685A827B68B3F91830F0
:106D08009B00DB101AB27B681A837B68B3F91A30D0
:106D18009B00DB101AB27B685A837B68B3F9183082
:106D28009AB27B68B3F910309B00DB109BB2134416
:106D38009BB21AB27B681A837B68B3F91A309AB28D
:106D48007B68B3F912309B00DB109BB213449BB2F3
:106D58001AB27B685A837B687A689269DA61134B46
:106D68001B68002B00F0A080104B1B68104A1268AB
:106D780002211846FDF726FF786800F007FB034656
:106D8800002B40F086800A4B1B685B7903F00803F0
:106D9800DBB2002B7FD1786800F094FB786800F0B4
:106DA800F5FA0346002B78D104E000BFE4EA03209B
:106DB800E0EA0320786800F00DFA786800F0E6FA57
:106DC8000346002B6BD17B689B6A002B2AD17B681A
:106DD8005B7803F00103DBB2002B23D17B681B6CCB
:106DE80018462CF037FA0246314B1B681B689B8B00
:106DF8009A4217D92F4B1B682D4A1268052118464D
:106E0800FDF7E0FE786800F0C1FA0346002B48D190
:106E18007A68537843F0010353702CF001FA024664
:106E28007B685A647B689B6A002B3DD17B685B78E2
:106E380003F00103DBB2002B36D07B685B6C18468D
:106E48002CF008FA02461A4B1B681B68DB8B9A4227
:106E58002AD9184B1B68164A126806211846FDF7EE
:106E6800B1FE786800F092FA0346002B1BD12CF093
:106E7800D7F902467B685A6416E000BF14E000BFE9
:106E880012E000BF10E000BF0EE000BF0CE000BF42
:106E98000AE000BF08E000BF06E000BF04E000BF52
:106EA80002E000BF00E000BF1837BD4680BD00BF4C
:106EB800E0EA0320E4EA032080B584B000AF7860FC
:106EC8007B685B7803F00803DBB2002B10D07B688B
:106ED80000221A627B6800225A627B6800221A64C8
:106EE8007B6800225A647A6853786FF3C30353703F
:106EF8007B681B6A2C4A13607B689B6AFB602A4B81
:106F08001B68002B3CD0284B1B68284A12680821B4
:106F18001846FDF757FE786800F038FA0346002B4C
:106F28003AD1FB68002B22D17B685B7803F0010320
:106F3800DBB2002B0DD11C4B1B681C4A12680421C4
:106F48001846FDF73FFE786800F020FA0346002B4C
:106F580024D1154B1B68154A126807211846FDF7FE
:106F680031FE786800F012FA0346002B18D17B68CE
:106F780000221A627B6800221A647B6800225A6425
:106F8800FB68002B0DD0786800F080FB786800F073
:106F9800FDF90346002B04E000BF02E000BF00E05B
:106FA80000BF1037BD4680BDE4EA0320E0EA0320B5
:106FB80080B483B000AF78607B685B7903F002032C
:106FC800DBB2002B34D07B6800225A627B68002237
:106FD8009A627B680022DA627A6853796FF3000359
:106FE80053717B6800225A647B6800229A647B682C
:106FF80000221A837B6800225A837A6892F840300C
:107008006FF3030382F840307B6800229A837B6821
:107018000022DA837B6800229A877B680022DA875D
:107028007A6853796FF341035371044B00221A6055
:1070380000BF0C37BD465DF8047B7047E4EA0320C7
:1070480080B584B000AF7860604B1B680421184697
:1070580001F053FF034683F00103DBB2002B40F03D
:10706800AA807B68DA6A594B1B689A4200F0A380B1
:10707800564B1B68184601F08BFFF8607B68DB6A8B
:10708800002B06D07B68DB6A184601F081FF0346B7
:1070980000E00023BB60FA68BB689A422FD1FB6806
:1070A800002B0BD0494B1B681846FEF7DCF97868B3
:1070B80000F06CF90346002B78D083E07B68DB6A2C
:1070C800002B0DD07B68DB6A414A12680F211846F5
:1070D800FDF778FD786800F059F90346002B6CD16C
:1070E8003A4B1B683A4A12680E211846FDF76AFDAA
:1070F800786800F04BF90346002B57D062E0BB6874
:10710800002B12D17B68DB6A002B0ED07B68DB6A10
:107118002F4A12680F211846FDF754FD786800F0D1
:1071280035F90346002B24D04CE07B68DB6A002B42
:107138001FD0BB68002B0ED17B68DB6A244A12681B
:107148000F211846FDF73EFD786800F01FF9034649
:10715800002B0ED036E07B68DB6A1D4A12681021CE
:107168001846FDF72FFD786800F010F90346002B4C
:1071780025D1FB68002B0BD0144B1B681846FEF773
:1071880072F9786800F002F90346002B0ED019E076
:107198000E4B1B680E4A12680E211846FDF712FDA9
:1071A800786800F0F3F80346002B0AD1074B1A68F9
:1071B8007B68DA6206E000BF04E000BF02E000BFBF
:1071C80000E000BF1037BD4680BD00BFE4EA0320E1
:1071D800E0EA032080B584B000AF78607B689B6AE2
:1071E800002B40F0C9807B6893F83D3003F0010321
:1071F800DBB2002B40F0C2807B681B6AFB6003E0B7
:10720800F8680AF0F7FEF860FB68002B07D04FF427
:107218000041F86801F071FE0346002BF0D1FB68CD
:10722800002B00F0AD807B68B3F91030002BB8BF9D
:107238005B429AB2544B1B681B689B7E9BB29A4276
:1072480013D27B68B3F91230002BB8BF5B429AB2F5
:107258004D4B1B681B689B7E9BB29A4205D27B688C
:1072680000221A877B6800225A877B68B3F9383076
:107278009AB27B68B3F910309BB213449BB21AB22E
:107288007B681A877B68B3F93A309AB27B68B3F99E
:1072980012309BB213449BB21AB27B685A877B6840
:1072A800B3F93830002BB8BF5B429AB2364B1B6833
:1072B8001B68DB7E9BB29A420DD87B68B3F93A30E3
:1072C800002BB8BF5B429AB22F4B1B681B68DB7E52
:1072D8009BB29A4255D97A6892F83D3043F001033F
:1072E80082F83D307B68B3F93830002BB8BF5B4279
:1072F8009AB27B68B3F93A30002BB8BF5B429BB2B5
:107308009A4216D97B68B3F93830002B08DD7A68C1
:1073180092F83C30022161F3071382F83C301EE0FA
:107328007A6892F83C30012161F3071382F83C3007
:1073380015E07B68B3F93A30002B08DD7A6892F8DB
:107348003C30082161F3071382F83C3007E07A6883
:1073580092F83C30042161F3071382F83C300A4B61
:107368001B681A460C21F868FDF72CFC786800F0B9
:107378000DF80346002B04E000BF02E000BF00E068
:1073880000BF1037BD4680BDE0EA032080B483B05B
:1073980000AF78607B685B7803F00203DBB2002BF8
:1073A80002D00A4B00221A607B685B785B08DBB26C
:1073B80003F00103002B14BF01230023DBB218469E
:1073C8000C37BD465DF8047B704700BFE4EA032034
:1073D80080B483B000AF78607B68B3F904309AB2A8
:1073E8007B68B3F900309BB2D31A9BB201339BB2CE
:1073F8001BB218460C37BD465DF8047B704780B455
:1074080083B000AF78607B68B3F906309AB27B68C6
:10741800B3F902309BB2D31A9BB201339BB21BB2B1
:1074280018460C37BD465DF8047B704780B584B0BC
:1074380000AF7860396041F610023968786809F061
:10744800C7F80346FB60FB681BB218461037BD46F9
:1074580080BD80B584B000AF7860396041F6110214
:107468003968786809F0B4F80346FB60FB681BB21A
:1074780018461037BD4680BD80B584B000AF78602F
:10748800396041F612023968786809F0A1F80346B4
:10749800FB60FB681BB218461037BD4680BD80B53F
:1074A80084B000AF7860396041F6130239687868B3
:1074B80009F08EF80346FB60FB681BB218461037CC
:1074C800BD4680BD80B58AB002AF78607B689B6A94
:1074D800FB61FB69002B31D17B68B3F914309AB298
:1074E8007B68B3F910309BB213449BB21AB27B6825
:1074F8009A827B68B3F916309AB27B68B3F9123076
:107508009BB213449BB21AB27B68DA82786800F0A7
:1075180099FAF861FB69002B00F0B280786800F0F6
:1075280021FC00220921F869FDF74CFB7B685B7898
:1075380003F00203DBB2002B40F0A4807B68B3F9B0
:107548001030002B05D17B68B3F91230002B00F006
:107558009A8000233B820023FB817B6893F83C30B0
:1075680003F00F03DBB2032B18D1F86906F072FFA2
:107578000346FB82F86906F0C9FE0346BB827B68B6
:10758800B3F91010B7F91630B7F91420032000909A
:10759800F86900F0CFFF03463B8217E0F86906F070
:1075A80017FE03467B83F86906F02AFE03463B83F1
:1075B8007B68B3F91210B7F91830B7F91A200C2004
:1075C8000090F86900F0B6FF0346FB81F86906F001
:1075D8008DFD0346FB74FB7C03F00103002B05D1F2
:1075E800B7F91030002B01DD00233B82FB7C03F050
:1075F8000203002B05D1B7F91030002B01DA002364
:107608003B82FB7C03F00403002B05D1B7F90E3055
:10761800002B01DD0023FB81FB7C03F00803002B1A
:1076280005D1B7F90E30002B01DA0023FB8107F1F1
:107638000E0207F110031946786800F09DFEB7F9AD
:107648001010B7F90E200023F86907F0A5F87B6839
:10765800B3F914309AB2B7F910309BB213449BB205
:107668001AB27B689A827B68B3F916309AB2B7F976
:107678000E309BB213449BB21AB27B68DA8202E0E6
:1076880000BF00E000BF2037BD4680BD80B58EB08A
:1076980002AF78607B689B6AFB62FB6A002B00F094
:1076A80080817B6893F83C3003F00F03DBB2002B3A
:1076B80000F07981FEF704FAB862BB6A1B685B7E4A
:1076C800FB844021F86A01F018FC034683F00103AB
:1076D800DBB2002B05D07B6800225A837B6800222E
:1076E8001A83F86A06F018FD034687F82530F86A09
:1076F80006F028FD034687F824307B6893F83C3071
:1077080003F00F03DBB20C2B62D17B6800221A83D3
:1077180097F82430002B35D17B68B3F91A301A4614
:10772800B7F92630C3F1640302FB03F3A14A82FBD5
:1077380003125211DB17D31A1AB27B685A83F86AFC
:1077480006F05EFD03467B83F86A06F041FD0346BA
:107758003B837B68B3F91A10B7F91A30B7F91820C8
:107768000C200090F86A00F0E5FE03461A467B6894
:107778005A837B68B3F91A2000230021F86A07F0BE
:107788000BF88FE0786800F071FE0346FB817B6898
:1077980000225A8307F10E031A460021786800F088
:1077A800EBFDB7F90E3041F6FF728349F86A00F035
:1077B800FFFC0346BB83B7F90E309AB2BB8B134468
:1077C8009BB21AB201230021F86A06F0E5FF69E0CE
:1077D8007B6893F83C3003F00F03DBB2032B61D1D5
:1077E8007B6800225A8397F82530002B35D17B68B7
:1077F800B3F918301A46B7F92630C3F1640302FB0F
:1078080003F36C4A82FB03125211DB17D31A1AB224
:107818007B681A83F86A06F079FD03463B84F86AA8
:1078280006F018FE0346FB837B68B3F91810B7F916
:107838001E30B7F9202003200090F86A00F07AFE85
:1078480003461A467B681A837B68B3F9181000232D
:107858000022F86A06F0A0FF24E0786800F038FEFD
:107868000346BB817B6800221A8307F10C030022C0
:107878001946786800F080FDB7F90C3041F6FF72C0
:107888004D49F86A00F0B0FB03467B847A8CB7F95F
:107898000C309BB213449BB219B201230022F86A40
:1078A80006F07AFF7B68B3F91830002B7ED17B682D
:1078B800B3F91A30002B79D197F82430002B2AD14C
:1078C800F86A06F085FC0346FB82F86A06F098FC25
:1078D8000346BB82B7F91630002B03DCB7F9143026
:1078E800002B18DDB7F91630002B07DAB7F9162088
:1078F80001230021F86A06F04FFF0CE0B7F91430B5
:10790800002B08DABB8A5B429BB21AB20123002122
:10791800F86A06F041FF97F82530002B2AD1F86A5B
:1079280006F0F4FC03467B82F86A06F093FD0346F2
:107938003B82B7F91230002B03DCB7F91030002B6B
:1079480018DDB7F91230002B07DAB7F91210012346
:107958000022F86A06F020FF0CE0B7F91030002B7F
:1079680008DA3B8A5B429BB219B201230022F86A0B
:1079780006F012FFBA6A0A21F86AFDF723F97B6854
:107988005B7803F00203DBB2002B0ED17A6892F821
:107998003C306FF3030382F83C307B6800229A6224
:1079A80004E000BF02E000BF00E000BF3037BD4682
:1079B80080BD00BF1F85EB5101E0FFFF80B485B09B
:1079C80000AF78600B46FB707B68002B01D1002369
:1079D8002FE0FB78032B05D00C2B07D17B685B8C41
:1079E800FB8105E07B681B8CFB8101E0002320E024
:1079F8007B681B685B7E7B810023BB8113E0BA89AF
:107A0800FB8913449BB2BB81B7F90E30B7F90A2042
:107A1800C2F1640202FB03F3094A82FB031252110A
:107A2800DB17D31AFB81B7F90E30002BE7D1B7F972
:107A38000C3018461437BD465DF8047B704700BF0C
:107A48001F85EB5180B58CB000AF78600023FB62D6
:107A5800002387F82B30FEF733F8B861BB691B6841
:107A68001B7EFB827B681B6A7B62002387F82330BE
:107A7800002387F822307B68B3F91430002BB8BF95
:107A88005B429AB27B68B3F91630002BB8BF5B42F1
:107A98009BB29A4203D9012387F8233038E10123A6
:107AA80087F8223034E11021786A01F026FA03467B
:107AB80083F00103DBB2002B24D04FF48071786A85
:107AC80001F01BFA034683F00103DBB2002B04D05C
:107AD80097F82330002B40F020814FF40071786A2A
:107AE80001F00BFA034683F00103DBB2002B04D04C
:107AF80097F82230002B40F01281786A0AF07AFA5F
:107B0800786205E197F8223087F8213097F822301B
:107B180087F8203097F82330FB7797F82330BB7726
:107B2800786A06F0E3FA03467B757B7D03F0010370
:107B3800002B01D10023FB777B7D03F00203002B90
:107B480001D10023BB777B7D03F00403002B02D116
:107B5800002387F821307B7D03F00803002B02D136
:107B6800002387F82030786A06F032FB03467B82D0
:107B7800786A06F045FB03463B82786A06F0C6FB46
:107B88000346FB81786A06F065FC0346BB81B7F9BA
:107B98001230002B03DCB7F91030002B1CDD97F8EE
:107BA8002130002B06D07B68B3F91630B7F91620C0
:107BB8009A420CDD97F82030002B0DD07B68B3F982
:107BC80016301A46B7F916305B429A4204DC7B6AD3
:107BD800FB620C2387F82B30B7F90E30002B03DC3F
:107BE800B7F90C30002B1ADDFB7F002B06D07B6821
:107BF800B3F91430B7F916209A420BDDBB7F002B7E
:107C08000DD07B68B3F914301A46B7F916305B42C9
:107C18009A4204DC7B6AFB62032387F82B30B7F9AE
:107C28001230002B02DC002387F82130B7F910301E
:107C3800002B02DC002387F82030B7F90E30002B28
:107C480001DC0023FB77B7F90C30002B01DC0023A3
:107C5800BB77FB7F002B06D07B68B3F91430B7F9EC
:107C680016209A4223DDBB7F002B08D07B68B3F92E
:107C780014301A46B7F916305B429A4217DD97F866
:107C88002130002B06D07B68B3F91630B7F91620DF
:107C98009A420CDD97F82030002B17D07B68B3F997
:107CA80016301A46B7F916305B429A420EDC97F83E
:107CB8002330002B01D0032100E00C217A6892F8D0
:107CC8003C3061F3030382F83C302DE04FF48071BF
:107CD800786A01F012F9034683F00103DBB2002B46
:107CE80003D097F82330002B1BD14FF40071786A2A
:107CF80001F003F9034683F00103DBB2002B03D044
:107D080097F82230002B0ED1786A0AF073F978625E
:107D18007B6A002B7FF4C7AE06E000BF04E000BF1B
:107D280002E000BF00E000BFFB6A002B14D097F808
:107D38002B3003F00F03D9B27A6892F83C3061F324
:107D4800030382F83C307B68FA6A9A627B680022F7
:107D58009A827B680022DA82FB6A18463037BD4671
:107D680080BD000090B587B002AF78607B689B6AE1
:107D7800FB608021F86801F0C0F8034683F0010336
:107D8800DBB2002B0CD07B6803F1300041F6FF73A7
:107D9800009341F6FF73934A92492BF0EFFDF9E007
:107DA800F86806F0CFF90346032B42D0032B6FDCAB
:107DB800012B02D0022B22D06AE0FB68B3F91630FF
:107DC8009BB201339BB219B2002341F6FF72F868E7
:107DD80000F0EEF903461A467B685A86FB68B3F949
:107DE80016309BB2013B9BB21AB200237D49F8685A
:107DF80000F0DEF903461A467B68DA8651E0FB6834
:107E0800B3F91A10002341F6FF72F86800F0D0F9B0
:107E180003461A467B685A86FB68B3F91A20002382
:107E28007049F86800F0C4F903461A467B68DA8698
:107E380037E0FB68B3F916309CB2FB681433184678
:107E4800FFF7DDFA0346002B00DA01335B101BB2A3
:107E58009BB223449BB27B817B8901339BB219B2CD
:107E6800002341F6FF72F86800F0A2F903461A46AB
:107E78007B685A867B89013B9BB21AB20023594919
:107E8800F86800F095F903461A467B68DA8608E038
:107E98007B684EF201025A867B6841F6FF72DA86E9
:107EA80000BFF86806F038F90346032B3AD0032BD5
:107EB80067DC012B02D0022B1AD062E0FB68B3F911
:107EC8001410002341F6FF72F86800F08DF803469D
:107ED8001A467B681A86FB68B3F9142000234149C7
:107EE800F86800F081F803461A467B689A8651E0E4
:107EF800FB68B3F91810002341F6FF72F86800F028
:107F080073F803461A467B681A86FB68B3F918208B
:107F180000233449F86800F067F803461A467B687E
:107F28009A8637E0FB68B3F914309CB2FB681433C7
:107F38001846FFF74DFA0346002B00DA01335B10B1
:107F48001BB29BB223449BB23B813B8901339BB25A
:107F580019B2002341F6FF72F86800F045F80346AD
:107F68001A467B681A863B89013B9BB21AB20023EA
:107F78001C49F86800F038F803461A467B689A8668
:107F880008E07B684EF201021A867B6841F6FF72B0
:107F98009A8600BF7B68B3F93030002B03D17B6829
:107FA8004EF201021A867B68B3F93430002B03D1F4
:107FB8007B6841F6FF729A867B68B3F93230002BF2
:107FC80003D17B684EF201025A867B68B3F93630DA
:107FD800002B03D17B6841F6FF72DA8600BF1437A5
:107FE800BD4690BD01E0FFFF90B58DB000AFF860D1
:107FF800084611461A4603467B810B463B811346C9
:10800800FB80F86806F088F8034687F8233097F86D
:108018002330002B01D10023C3E041F6FF73FB8519
:108028000021F868FFF728FA03463B840021F86826
:10803800FFF735FA0346FB83F8680AF01FF8B861C2
:108048000023BB629CE0FB689B681A68BB6A9B00C4
:1080580013441B687B615549786900F063FF034648
:10806800002B40F087804FF48051786900F045FF7D
:108078000346002B00F081800023FB840023BB848F
:1080880097F82330032B1ED0032B75DC012B02D06D
:10809800022B0CD070E07B699B8AFB84FB68B3F9E8
:1080A80014309AB23B8C13449BB2BB843BE07B698F
:1080B8001B8BFB84FB68B3F918309AB2FB8BD31A7D
:1080C8009BB2BB842FE07B69B3F914309CB27B6907
:1080D80014331846FFF77CF90346002B00DA013306
:1080E8005B101BB29BB223449BB2FB84FB68B3F9C1
:1080F80014309AB23B8C13449CB2FB681433184674
:10810800FFF766F903461A46B7F92030D21AB7F9CD
:108118001E30D31A002B00DA01335B109BB22344C4
:108128009BB2BB8400BFFA8CFB8813449BB2FB84D0
:10813800B7F92620B7F90A309A421EDBB7F926208C
:10814800B7F908309A4218DCFA8CBB8CD31A9BB268
:108158007B82B7F91230002BB8BF5B429AB2B7F9ED
:108168002E30002BB8BF5B429BB29A4205D27B8A65
:10817800FB8502E000BF00E000BFBB6A0133BB62C1
:10818800BA6ABB699A42FFF45EAFB7F92E3041F67E
:10819800FF72934204D0FB8D5B429BB21BB200E09E
:1081A800002318463437BD4690BD00BF01000400C7
:1081B80090B58DB000AFF860084611461A460346E0
:1081C8007B810B463B811346FB80F86805F0BAFFBC
:1081D800034687F8233097F82330002B01D100237A
:1081E800C3E041F6FF73FB850021F868FFF71EF92D
:1081F80003463B840021F868FFF72BF90346FB830D
:10820800F86809F03BFFB8610023BB629CE0FB689B
:108218009B681A68BB6A9B0013441B687B615549BD
:10822800786900F07FFE0346002B40F087804FF40A
:108238008051786900F061FE0346002B00F08180D0
:108248000023FB840023BB8497F82330032B1ED024
:10825800032B75DC012B02D0022B0CD070E07B695C
:10826800DB8AFB84FB68B3F916309AB23B8C134463
:108278009BB2BB843BE07B695B8BFB84FB68B3F9F7
:108288001A309AB2FB8BD31A9BB2BB842FE07B695E
:10829800B3F916309CB27B6914331846FFF7AFF870
:1082A8000346002B00DA01335B101BB29BB2234458
:1082B8009BB2FB84FB68B3F916309AB23B8C13442B
:1082C8009CB2FB6814331846FFF799F803461A4620
:1082D800B7F92030D21AB7F91E30D31A002B00DABA
:1082E80001335B109BB223449BB2BB8400BFFA8C62
:1082F800FB8813449BB2FB84B7F92620B7F90A30F0
:108308009A421EDBB7F92620B7F908309A4218DCE2
:10831800FA8CBB8CD31A9BB27B82B7F91230002B34
:10832800B8BF5B429AB2B7F92E30002BB8BF5B4298
:108338009BB29A4205D27B8AFB8502E000BF00E02F
:1083480000BFBB6A0133BB62BA6ABB699A42FFF4D9
:108358005EAFB7F92E3041F6FF72934204D0FB8D21
:108368005B429BB21BB200E0002318463437BD467F
:1083780090BD00BF0100040080B485B000AFF86074
:10838800B9607A607B68002B33D0FB68B3F916308C
:108398001A467B68B3F900301344FA68B2F9322000
:1083A80093420CDAFB68B3F932309AB2FB68B3F93E
:1083B80016309BB2D31A9BB21AB27B681A80FB683C
:1083C800B3F916301A467B68B3F900301344FA68DB
:1083D800B2F9362093420CDDFB68B3F936309AB215
:1083E800FB68B3F916309BB2D31A9BB21AB27B68FA
:1083F8001A80BB68002B33D0FB68B3F914301A46D7
:10840800BB68B3F900301344FA68B2F930209342DC
:108418000CDAFB68B3F930309AB2FB68B3F9143060
:108428009BB2D31A9BB21AB2BB681A80FB68B3F925
:1084380014301A46BB68B3F900301344FA68B2F92D
:10844800342093420CDDFB68B3F934309AB2FB68F0
:10845800B3F914309BB2D31A9BB21AB2BB681A8014
:1084680000BF1437BD465DF8047B704780B586B001
:1084780000AF78607B685B8BFB820023BB82FDF7D3
:108488001FFB38613B691B685B7EFB8113E0BA8A7E
:10849800FB8A13449BB2BB82B7F91630B7F90E209A
:1084A800C2F1640202FB03F3084A82FB0312521171
:1084B800DB17D31AFB82B7F91630002BE7D1B7F9CF
:1084C800143018461837BD4680BD00BF1F85EB51D4
:1084D80080B586B000AF78607B681B8BFB82002379
:1084E800BB82FDF7EDFA38613B691B685B7EFB8157
:1084F80013E0BA8AFB8A13449BB2BB82B7F91630E1
:10850800B7F90E20C2F1640202FB03F3084A82FBAA
:1085180003125211DB17D31AFB82B7F91630002B5E
:10852800E7D1B7F9143018461837BD4680BD00BFEB
:108538001F85EB5180B58AB000AFF8600846114638
:108548001A4603467B810B463B811346FB8020215C
:10855800F86800F0D2FC0346002B00F02B8197F856
:108568003030032B04D1F86805F0D6FD034603E04C
:10857800F86805F0E7FD034687F82330FDF708FCA7
:10858800F8610023FB840023BB8497F83030032B69
:108598005FD10021F868FEF76FFF0346FB820021D8
:1085A800F868FEF77CFF0346BB8297F82330032B5D
:1085B80007D0032B00F3AC80012B32D0022B3CD028
:1085C800A6E0FB6814331846FEF702FF03461A4676
:1085D800B7F91630D21AB7F91430D31A002B00DACB
:1085E80001335B109AB2FB8A13449AB2FB68B3F961
:1085F80014309BB213449BB2FB84FB6914331846B6
:10860800FEF7E6FE0346002B00DA01335B101BB2CF
:108618009AB2FB69B3F914309BB213449BB2BB8482
:1086280076E0FB68B3F914309AB2FB8A13449BB224
:10863800FB84FB699B8ABB846AE0FB68B3F918304A
:108648009AB2BB8AD31A9BB2FB84FB691B8BBB848F
:108658005EE00021F868FEF7E9FE03467B8300210F
:10866800F868FEF7F6FE03463B8397F82330032BA2
:1086780006D0032B4CDC012B32D0022B3CD047E038
:10868800FB6814331846FEF7BAFE03461A46B7F9D4
:108698001A30D21AB7F91830D31A002B00DA01337E
:1086A8005B109AB27B8B13449AB2FB68B3F916300D
:1086B8009BB213449BB2FB84FB6914331846FEF744
:1086C8009EFE0346002B00DA01335B101BB29AB200
:1086D800FB69B3F916309BB213449BB2BB8417E015
:1086E800FB68B3F916309AB27B8B13449BB2FB84B8
:1086F800FB69DB8ABB840BE0FB68B3F91A309AB2DA
:108708003B8BD31A9BB2FB84FB695B8BBB8400BF9A
:10871800B7F90630002B24DA97F82330002B08D05D
:10872800B7F92420B7F926309A4202DDB7F90A30A2
:1087380056E0B7F90A30002B03DA7B89023B9BB27B
:108748007B81B7F90A30002B03DD7B8902339BB2AA
:108758007B81B7F90A30002B00DA03339B101BB278
:108768003EE0B7F90830002B38DA97F82330002BB1
:1087780008D0B7F92420B7F926309A4202DAB7F9B7
:108788000A302DE0B7F90A30002B03DA7B89023B67
:108798009BB27B81B7F90A30002B03DD7B8902335A
:1087A8009BB27B81B7F90A30002B00DA03339B10A8
:1087B8001BB215E0B7F90620B7F90A301344002BAD
:1087C80003DAFB885B429BB27B81B7F90820B7F9D3
:1087D8000A30D31A002B01DA3B897B81B7F90A30BA
:1087E80018462837BD4680BD80B483B000AF786096
:1087F80039603B68B3F900207B681A803B68B3F99D
:1088080002207B685A803B68B3F904207B689A8011
:108818003B68B3F906207B68DA8000BF0C37BD4699
:108828005DF8047B704780B48BB000AFF8600B46EE
:108838007A607B81FB685B7923F07F03DBB2002BD6
:1088480017D0FB681B687B620DE07B6A1B887A89FE
:108858009A4205D17B687A6A52681A6001234CE013
:108868007B6A08337B627B6A1B88002BEDD100236F
:1088780043E0FB68DB79002B01D100233DE0FB6876
:10888800DB79012B29D9FB681A68FB68DB799B0027
:108898001344FB61FB69BB6100233B6216E03B6A42
:1088A8005B00BA6913441B887A899A420BD1FB682A
:1088B8001B687B613B6A9B007A691A447B68126873
:1088C8001A60012319E03B6A01333B62FB68DB79DC
:1088D8001A463B6A9342E2D30EE0FB689B88C3F3D7
:1088E8000E039BB21A467B899A4205D17B68FA68C7
:1088F80012681A60012300E0002318462C37BD4691
:108908005DF8047B7047000080B582B000AF7860E6
:10891800044A0021786807F097FC00BF0837BD4675
:1089280080BD00BFFFFF0F0080B584B000AF786046
:10893800396041F201023968786807F049FE034658
:10894800FB60FB681BB218461037BD4680BD80B57A
:1089580084B000AF7860396041F204023968786801
:1089680007F036FE0346FB60FB681BB2184610375B
:10897800BD4680BD80B584B000AF7860396041F2F3
:1089880009023968786807F023FE0346FB60FB6834
:10899800DBB218461037BD4680BD80B584B000AF45
:1089A8007860396040F60A023968786807F010FE86
:1089B8000346FB60FB681BB218461037BD4680BDF6
:1089C80080B584B000AF7860396040F60B02396832
:1089D800786807F0FDFD0346FB60FB681BB218468C
:1089E8001037BD4680BD80B584B000AF786039606F
:1089F80041F610023968786807F0EAFD0346FB6023
:108A0800FB681BB218461037BD4680BD80B584B0E0
:108A180000AF7860396041F612023968786807F06B
:108A2800D7FD0346FB60FB681BB218461037BD46EE
:108A380080BD80B584B000AF786039602022396885
:108A4800786807F0C5FD0346FB60BB8918461037F8
:108A5800BD4680BD80B584B000AF78603960212202
:108A68003968786807F0B4FD0346FB60FB68DBB241
:108A780018461037BD4680BD80B584B000AF786019
:108A8800396030223968786807F0A2FD0346FB6038
:108A9800BB8918461037BD4680BD80B584B000AF8D
:108AA8007860396031223968786807F091FD0346AB
:108AB800FB60FB68DBB218461037BD4680BD80B549
:108AC80084B000AF7860396041F232023968786862
:108AD80007F07EFD0346FB60FB681BB218461037A3
:108AE800BD4680BD80B584B000AF7860396034225F
:108AF8003968786807F06CFD0346FB60FB68002B5B
:108B080014BF01230023DBB218461037BD4680BDD1
:108B180080B584B000AF786039604FF4046239687A
:108B2800786807F055FD0346FB60FB681BB21846E2
:108B38001037BD4680BD80B584B000AF786039601D
:108B480040F643023968786807F042FD0346FB6047
:108B5800FB681BB218461037BD4680BD80B584B08F
:108B680000AF7860396044223968786807F030FDD2
:108B78000346FB60BB8918461037BD4680BD80B5EB
:108B880084B000AF7860396040F64502396878688B
:108B980007F01EFD0346FB60FB68DBB21846103782
:108BA800BD4680BD80B584B000AF78603960602272
:108BB8003968786807F00CFD0346FB60FB681BB258
:108BC80018461037BD4680BD80B584B000AF7860C8
:108BD800396061223968786807F0FAFC0346FB605F
:108BE800FB68002B14BF01230023DBB218461037A3
:108BF800BD4680BD80B584B000AF7860396040F272
:108C080062423968786807F0E3FC0346FB60FB685A
:108C1800DBB218461037BD4680BD80B584B000AFC2
:108C28007860396068223968786807F0D1FC0346B3
:108C3800FB60FB68DBB218461037BD4680BD80B5C7
:108C480084B000AF7860396041F2690239687868A9
:108C580007F0BEFC0346FB60FB689BB21846103762
:108C6800BD4680BD80B586B000AF224B1B78002B77
:108C78003BD12CF05DFB2EF073FF2BF0C7FC2AF0E4
:108C880005FBFCF7FDFA0AF0A0FE07F039FA4FF4ED
:108C9800AC7119482BF0B1FF582118482BF0ADFFE3
:108CA80009F05EFB10F05CFD154B7B617B693B6155
:108CB8003B691B78C32B03D13B6901331B78812B9C
:108CC800104B7B603B1DFB60FB681B78112B0CBFB6
:108CD80001230023FB72FB7A002B00D0FEE71DF076
:108CE80034FC044B01221A7000E000BF1837BD465F
:108CF80080BD00BFE9EA0320FCEC032008ED032057
:108D0800A09904084433221180B584B000AF78607C
:108D18007968064801F05FFAF860F86801F00DFB21
:108D2800FB6818461037BD4680BD00BF9C9F0408ED
:108D380080B588B000AF78603960786803F07EF954
:108D48000346FB773B6803F00103002B02D07868E9
:108D580004F09FFA7B68DA693B681A437B68DA613A
:108D68003B6803F00103002B02D0786804F091FA05
:108D7800786803F063F903461A46FB7F934204D1EF
:108D88003B6803F0C073002B09D0786809F032F90A
:108D98000346184603F07AF9786803F077F93B68D8
:108DA80003F01003002B13D007F10C0207F1140392
:108DB8001946786805F09CFE07F11403194678688F
:108DC80004F043FA07F10C031946786804F03DFAF9
:108DD80000BF2037BD4680BD80B588B000AF786041
:108DE8003960786803F02AF90346FB773B6803F09B
:108DF8001003002B13D007F10C0207F114031946D6
:108E0800786805F075FE07F114031946786804F0D0
:108E18001CFA07F10C031946786804F016FA7B6807
:108E2800DA693B68DB431A407B68DA613B6803F028
:108E38000103002B12D0786804F02BFA786803F04D
:108E4800FDF80346002B09D0786809F0D3F80346EB
:108E5800184603F01BF9786803F018F9786803F0EE
:108E6800EDF803461A46FB7F934204D13B6803F0B2
:108E7800C073002B06D0786809F0BCF80346184682
:108E880003F004F900BF2037BD4680BD80B584B02B
:108E980000AF78600B467B807B681A8C7B88134315
:108EA800FB817B681B8CFA899A4204D0FB8919469E
:108EB800786801F024F800BF1037BD4680BD80B542
:108EC80084B000AF78600B467B807B681B8C1AB23D
:108ED800B7F90230DB431BB213401BB2FB817B683E
:108EE8001B8CFA899A4204D0FB891946786801F0EC
:108EF80006F800BF1037BD4680BD80B483B000AF10
:108F0800786039607B68DA693B6813403A689A424E
:108F18000CBF01230023DBB218460C37BD465DF8B1
:108F2800047B704780B483B000AF786039607B6899
:108F3800DA693B681340002B14BF01230023DBB21E
:108F480018460C37BD465DF8047B704780B483B083
:108F580000AF78607B681B8C18460C37BD465DF8FF
:108F6800047B704780B483B000AF78600B467B8089
:108F78007B681A8C7B8813409BB2002B14BF01239B
:108F88000023DBB218460C37BD465DF8047B7047FA
:108F980080B483B000AF78607B689B68002B03D0F7
:108FA8007B689B689B6800E0002318460C37BD4629
:108FB8005DF8047B7047000080B582B000AF786030
:108FC8007B689B68002B27D1154B1B680133144A1B
:108FD80013601C202CF0BCF902467B689A607B6801
:108FE8009B68002B00D1FEE77B689B68002B12D0A2
:108FF8007B689B681C2118462CF008FE7B689A68E1
:10900800537E43F00F0353767B689A68137E43F0D0
:109018000303137600E000BF0837BD4680BD00BFDC
:10902800ECEA032080B483B000AF786039607B68D5
:10903800002B01D1002307E07B681B683A689A423D
:109048000CBF01230023DBB218460C37BD465DF880
:10905800047B704790B585B000AF786039603B6895
:109068005B68FB60FB68002B3FD0F86805F04EF9A1
:1090780003467B81F86805F0ABF803463B81FB6843
:10908800B3F916309CB20021F868FFF7ACFC034630
:109098009BB223449AB23B89D31A9BB21AB23B685B
:1090A800DA823B68B3F916309BB2013B9BB21AB225
:1090B8003B685A83FB68B3F914309CB20021F86806
:1090C800FFF7A4FC03469BB223449AB27B89D31AC8
:1090D8009BB21AB23B689A823B68B3F914309BB2D0
:1090E800013B9BB21AB23B681A833B680222DA61E1
:1090F8003B68DB6943F480523B68DA61FB68002B0C
:1091080005D03B68DB6943F400523B68DA61FB68D1
:10911800002B05D03B68DB6943F440723B68DA6199
:109128003B68DB6943F004023B68DA613B68DB6952
:1091380043F010023B68DA613B68DB6943F02002C8
:109148003B68DA613B68DB6943F040023B68DA61FF
:109158003B68DB6943F400623B68DA61FB68002B1B
:1091680005D03B68DB6943F400423B68DA6100BF25
:109178001437BD4690BD80B584B000AF78603960C3
:109188003868FBF7DFFD002007F012FA3868FFF7B0
:10919800BBFB012007F00CFA002138682AF032F9ED
:1091A8003868FFF7F5FEF860FB68002B02D03868D6
:1091B800FCF7DDF83B689B68002B25D03B689B6873
:1091C8001B68002B09D03B689B681B6818462CF06D
:1091D800E1F83B689B6800221A603B689B68DB6883
:1091E800002B09D03B689B68DB6818462CF0D2F846
:1091F8003B689B680022DA603B689B6818462CF045
:10920800C9F83B6800229A6000BF1037BD4680BD90
:1092180080B5B6B000AF78607868FBF76BFD0346A1
:1092280087F8D7307868FBF74DFDC7F8D00097F876
:10923800D730122B40F0A3807868FBF76AFDC7F897
:10924800AC00D7F8AC301B78022B00F0418200212B
:10925800D7F8D000FFF7B8FC0346002B04D0D7F8A6
:10926800AC3002221A7034E20021D7F8D000FFF7A0
:1092780099FC0346A7F8AA300021D7F8D000FFF7D9
:109288008CFB0346A7F8A8300021D7F8D000FFF7D9
:1092980097FB0346A7F8A630D7F8D03003F114029D
:1092A80007F19C0311461846FFF79EFAB7F99C3060
:1092B8009AB2B7F8A830D31A9BB21BB2A7F89C3061
:1092C800B7F9A0309AB2B7F8A83013449BB21BB2D2
:1092D800A7F8A030B7F99E309AB2B7F8A630D31ADB
:1092E8009BB21BB2A7F89E30B7F9A2309AB2B7F872
:1092F800A63013449BB21BB2A7F8A230D7F8AC3003
:109308005B68B7F9AA2007F19C0118462AF0F6FD18
:10931800034683F00103DBB2002B04D0D7F8AC304E
:1093280001221A70D5E10021D7F8D000FFF792FB8F
:109338000346FC2B04D8D7F8AC3001221A70C8E1D8
:109348000021D7F8D000FFF768FC0346002B04D0B3
:10935800D7F8AC3001221A70BBE10021D7F8D00051
:10936800FFF748FC0346FC2B04D8D7F8AC300122A1
:109378001A70AEE1D7F8AC3000221A70A9E197F85C
:10938800D730152B40F0E7807868FBF7B7FDC7F8B2
:10939800C00007F10C0318460EF0C8FE0021D7F8EC
:1093A800D000FFF79FFB0346002B05D097F82F301E
:1093B80043F0010387F82F3007F10C031A46002108
:1093C800D7F8D00001F0C7FC0021D7F8D000FFF78C
:1093D800E4FA0346A7F8BE300021D7F8D000FFF71B
:1093E800EFFA0346A7F8BC30D7F8D03003F11402DF
:1093F80007F1940311461846FFF7F6F9B7F99430C8
:109408009AB2B7F8BE30D31A9BB21BB2A7F8943001
:10941800B7F998309AB2B7F8BE3013449BB21BB272
:10942800A7F89830B7F996309AB2B7F8BC30D31A83
:109438009BB21BB2A7F89630B7F99A309AB2B7F830
:10944800BC3013449BB21BB2A7F89A3007F144030F
:10945800D7F8C010184602F0D5F89F4BBB6400231C
:10946800FB6407F10C037B6507F194033B6500235C
:10947800BB6707F144031A461A21D7F8D000FBF757
:10948800A1FB0021D7F8D000FFF79EFB0346002B75
:1094980005D0B7F90C30002B01D0012300E00023E0
:1094A80087F8BB3097F8BB3003F0010387F8BB306F
:1094B800FB69C7F8B43097F8BB30002B01D0002304
:1094C800FB6107F1940207F10C031946D7F8C000B5
:1094D8000EF06EFE97F8BB30002B33D018202BF01F
:1094E800EBFFC7F8B000D7F8D03003F11401B7F993
:1094F8000C200023D7F8B0000CF00EFED7F8D030BF
:1095080003F590731946D7F8B0000CF02DFAD7F888
:10951800B430002B16D00023FB73002387F82E30BD
:10952800002387F83630002387F84230D7F8B43064
:10953800FB6107F1940207F10C031946D7F8C00044
:109548000EF036FE07F144031A461B21D7F8D00067
:10955800FBF738FBBDE097F8D730182B40F0B980FF
:109568007868FBF7CBFCC7F8CC00D7F8CC10D7F855
:10957800D00000F0B3F80021D7F8D000FFF724FBA3
:109588000346002B14D0D7F8D03003F59073184653
:109598000CF088FAC7F8C800D7F8C830002B07D0F5
:1095A800D7F8C8000CF0A6FAD7F8C8002CF030F8A5
:1095B8000021D7F8D000FFF795FA0346002B00F0FA
:1095C800888007F10C0318460EF0B0FD0023FB73EA
:1095D800002387F82630002387F83630002387F8E1
:1095E800423007F10C031A460021D7F8D00001F0E9
:1095F800B2FB0021D7F8D000FFF7CFF90346A7F850
:10960800C6300021D7F8D000FFF7DAF90346A7F8EB
:10961800C430D7F8D03003F1140207F18C03114697
:109628001846FFF7E1F8B7F98C309AB2B7F8C630A8
:10963800D31A9BB21BB2A7F88C30B7F990309AB204
:10964800B7F8C63013449BB21BB2A7F89030B7F9ED
:109658008E309AB2B7F8C430D31A9BB21BB2A7F8AF
:109668008E30B7F992309AB2B7F8C43013449BB22F
:109678001BB2A7F8923007F14403D7F8CC1018466C
:1096880001F0C0FF144BBB640123FB6407F10C031A
:109698007B6507F18C033B650023BB6707F1440337
:1096A8001A461A21D7F8D000FBF78CFA07F18C027A
:1096B80007F10C031946D7F8CC000EF079FD07F135
:1096C80044031A461B21D7F8D000FBF77BFA00E0C9
:1096D80000BFD837BD4680BD9C9F040880B5A8B0A0
:1096E80000AF7860396007F18C0207F194031946DE
:1096F800786805F0FDF907F1940318462AF08DF90A
:109708000346002B07D107F18C0318462AF085F988
:109718000346002B62D007F154031946786800F01D
:1097280065F8034687F89F3097F89F30012B57D18B
:1097380007F10C033968184601F064FF2A4B3B61B6
:1097480002237B6107F15403FB614FF480333B64D0
:1097580007F1940318462AF060F90346002B18D045
:1097680007F19403BB6107F10C031A461A217868C4
:10977800FBF728FA07F1940207F1540319463868F1
:109788000EF016FD07F10C031A461B217868FBF74B
:1097980019FA07F18C0318462AF03FF90346002B03
:1097A8001FD007F18C03BB6107F10C031A461A217D
:1097B8007868FBF707FA07F18C03BB6107F18C02A5
:1097C80007F15403194638680EF0F2FC07F10C0350
:1097D8001A461B217868FBF7F5F902E000BF00E0A4
:1097E80000BFA037BD4680BD9C9F040890B585B0DA
:1097F80000AF7860396038680EF098FC4FF480311B
:109808007868FFF727F903461A463B68DA703B6821
:10981800DB78022B06D93C684FF480317868FFF773
:1098280008F9A0804FF480317868FFF736F90346CD
:109838001A463B6883F822203B6893F82230022BB3
:1098480019D94FF480317868FFF739F903461A4679
:109858003B681A843B68B3F92030002B07DD3C686D
:109868004FF480317868FFF707F9E08303E03B683D
:10987800002283F822204FF480317868FFF77FF9BF
:1098880003461A463B6883F836203B6893F836301F
:10989800022B22D94FF480317868FFF739F9034653
:1098A8001A463B68DA853B68B3F92E30002B10DD89
:1098B8004FF480317868FFF73EF903461A463B6853
:1098C8009A863C684FF480317868FFF747F9A0859D
:1098D80003E03B68002283F836204FF48031786833
:1098E800FFF788F90346FB73FB7BFC2B1FD83B680B
:1098F800DB781A46FB7B02FB03F31B12DAB23B68E8
:10990800DA703B68DB781A46FB7B02FB03F31B1219
:10991800DAB23B6883F822203B68DB781A46FB7B87
:1099280002FB03F31B12DAB23B6883F836203B686C
:10993800DB78002B09D13B6893F82230002B04D147
:109948003B6893F83630002B0AD04FF480317868A2
:10995800FFF728F903461A463B681A80012300E0FE
:10996800002318461437BD4690BD90B59BB000AF94
:10997800786039603868FBF7BDF9034687F85730D7
:109988003868FBF7ABF9386597F85730012B04D1E5
:109998002021386DFFF77AFAAEE297F85730082B96
:1099A80031D12021386DFFF78AFA3868FBF7B1F911
:1099B800F861F869FCF793F90346002B40F09C82A4
:1099C8000821386DFFF799FA0346002B00F09482BE
:1099D800386DFFF7BBFA034603F00103002B04D1EF
:1099E8000121386DFFF752FA03E00121386DFFF7C6
:1099F80066FA00221C21386DFBF7E4F80346FB7673
:109A0800FB7E012B78E297F85730032B04D12021F5
:109A1800386DFFF754FA6FE297F857302A2B19D1AF
:109A2800386D08F02BFB786200237B660DE03B6DF8
:109A38009B681A687B6E9B0013441B683B62386AFC
:109A480002F024FB7B6E01337B667A6E7B6A9A4256
:109A5800EDD351E297F857300D2B40F026810821BD
:109A6800386DFFF74AFA0346002B30D03868FBF709
:109A780050F903461B7887F82A3097F82A30132BB9
:109A880003D097F82A30112B04D10121386DFFF744
:109A9800FDF90BE097F82A30142B03D097F82A30F9
:109AA800122B03D10121386DFFF709FA97F82A30F4
:109AB8000A2B00F0218200221C21386DFBF782F866
:109AC800034687F8293097F82930012B14E24FF420
:109AD8000161386DFFF711FA0346002B00F00C8284
:109AE800386D00F091FC034683F00103DBB2002BD4
:109AF80000F00282002387F83130386D04F006FC4C
:109B08000346FB85386D04F0A5FC0346BB85386821
:109B1800FBF7FFF803461B7887F82B3097F82B30B4
:109B2800122B18D1386D04F03BFB03469CB2386DFC
:109B380002F0FCFE0346002B00DA03339B101BB235
:109B48009BB223449BB21BB297F831201946386D5B
:109B580004F07EFFD0E197F82B30112B18D1386D27
:109B680004F01EFB03469CB2386D02F0DFFE03468C
:109B7800002B00DA03339B101BB29BB2E31A9BB293
:109B88001BB297F831201946386D04F061FFB3E134
:109B980097F82B30132B41D1386D04F0A7FA034600
:109BA80003F00303002B07D0B7F92E30002B1CDC81
:109BB800B7F92C30002B18DC386D04F0F1FA0346A5
:109BC8009CB2386D02F0B2FE0346002B00DA033374
:109BD8009B101BB29BB223449BB21BB297F8312057
:109BE8001946386D04F034FF86E1386D04F0C0FA88
:109BF80003469CB2386D02F08BFE0346002B00DA58
:109C080003339B101BB29BB223449BB21BB297F841
:109C180031201946386D04F0F7FE6DE197F82B30C6
:109C2800142B40F06981386D04F060FA034603F0A4
:109C38000303002B07D0B7F92E30002B1CDCB7F933
:109C48002C30002B18DC386D04F0AAFA03469CB2BD
:109C5800386D02F06BFE0346002B00DA03339B10CD
:109C68001BB29BB2E31A9BB21BB297F8312019467C
:109C7800386D04F0EDFE3FE1386D04F079FA0346E3
:109C88009CB2386D02F044FE0346002B00DA033321
:109C98009B101BB29BB2E31A9BB21BB297F8312000
:109CA8001946386D04F0B0FE26E197F857300E2BB0
:109CB80055D14FF48061386DFFF71FF90346002B2B
:109CC80003D00121386D04F0E7FE002387F8333014
:109CD800386DFFF75DF903461846FBF7DFFC0346CE
:109CE80087F833300223A7F86230FBF7E9FEF865FE
:109CF800FB6D002B03D13868FBF7B2F8F865F86DF7
:109D0800FBF7EAFE034687F8323097F83230022B29
:109D180003D097F83230042B05D1B7F8623043F0FE
:109D28000403A7F8623097F83330002B0CD0B7F84B
:109D3800623043F00803A7F86230B7F8623019467A
:109D4800386DFFF7A3F8D7E0B7F862301946386DD9
:109D5800FFF79CF80821386DFFF7B1F8CCE097F8C9
:109D68005730092B04D14021386DFFF78FF8C3E035
:109D780097F857300A2B1FD14021386DFFF79FF80D
:109D8800386D04F09DF90346022B40F0B58007F1C9
:109D9800080207F110031946386D04F0A9FE07F10F
:109DA80010031946386D03F050FA07F108031946F5
:109DB800386D03F04AFA9FE097F857300F2B04D11B
:109DC8000E21386DFFF77BF896E097F85730292B6E
:109DD80030D10021386DFEF7CDFD0346A7F840309D
:109DE8000021386DFEF72BFF0346FB87FB8F002B06
:109DF80003D1B7F94030002B02D0386D02F046F994
:109E0800386D08F03BF9B8630023BB650DE03B6D86
:109E18009B681A68BB6D9B0013441B687B63786B57
:109E280002F034F9BB6D0133BB65BA6DBB6B9A4266
:109E3800EDD361E097F85730222B33D10021386DEC
:109E4800FEF772FD0346A7F848300021386DFEF78B
:109E58007EFD0346A7F846300021386DFEF78AFDDF
:109E68000346A7F844300021386DFEF7E8FE0346A4
:109E7800A7F84230B7F84230002B0FD1B7F9443079
:109E8800002B0BD1B7F9483042F2D172934205D07A
:109E9800B7F9463042F2D17293422DD1386D02F0B3
:109EA800F5F829E097F85730132B16D13868FAF7E8
:109EB80030FFF8640021386D01F006FB0346A7F86F
:109EC8004A30FB6CB3F90030B7F94A209342B8BF67
:109ED80013461AB2FB6C1A800EE097F85730152B10
:109EE80007D097F85730182B03D097F85730122B14
:109EF80002D13868FFF78CF96C37BD4690BD80B544
:109F080094B002AF78600B467B807B681B8C7A88A4
:109F18009A4200F05A817B681B8CFB867B687A88A2
:109F28001A847A88FB8E1946786806F0AFFD0346D6
:109F380087F8353097F83530002B00F048814FF41A
:109F480020702BF0B9FA38634FF42071386B2BF07E
:109F58005DFE00237B6400233B64E0E07B68DA68F5
:109F68003B6CDB001344FB627B68DA683B6CDB000C
:109F780013445B68C3F31703184606F09CFF0346B7
:109F88007B857B68DA683B6CDB0013445B68C3F352
:109F98001703184606F09BFF78627A8D7B88DB43AF
:109FA8001340002B40F0B380FB6ADB7903F0020317
:109FB800DBB2002B40F0AD80FB6A1B6807F10C0296
:109FC80067211846FEF72FFC0346002B00F0A380FC
:109FD800FB683B620023FB638CE00023BB632EE03D
:109FE800BA6B13469B0013449B001A463B6B134401
:109FF8005B68FB61F86906F05EFF03467B83F869DE
:10A0080006F065FF7861BA6B13469B0013449B000A
:10A018001A463B6B13441A893B6A1968FB6B5B0051
:10A028000B441B889A4207D17A697B6A9A4203D10A
:10A038007A8B7B8D9A4207D2BB6B0133BB63BA6BB9
:10A048007B6C9A42CCD300E000BFBA6B7B6C9A421F
:10A058004DD13B6AD9687A6C13469B0013449B0028
:10A068001A463B6B13448AB21A803B6A19697A6CA8
:10A0780013469B0013449B001A463B6B13448AB259
:10A088005A807A6C13469B0013449B001A463B6B1C
:10A0980013443A6A9268DA603B6A1A68FB6B5B00A1
:10A0A800D1187A6C13469B0013449B001A463B6BED
:10A0B80013440A881A817A6C13469B0013449B0048
:10A0C8001A463B6B13443A6A52681A61FB6A5B682A
:10A0D800C3F317017A6C13469B0013449B001A467E
:10A0E8003B6B13440A465A607B6C01337B64FB6B01
:10A0F8000133FB633B6A1A68FB6B5B0013441B88E4
:10A10800002B09D07B6C1F2B7FF667AF04E000BFE4
:10A1180002E000BF00E000BF3B6C01333B647B689A
:10A128005B8CC3F3C503DBB21A463B6C934203D284
:10A138007B6C1F2B7FF612AF00233B641FE03A6C49
:10A1480013469B0013449B001A463B6B13445B6801
:10A15800184606F0BCFE38613A6C13469B0013445F
:10A168009B001A463B6B13447988FA8E00930B4682
:10A178003969786806F06CFB3B6C01333B643A6CD8
:10A188007B6C9A42DBD3386B2BF042FA97F8353068
:10A19800012B03D1786803F07CF819E097F8353083
:10A1A800032B07D14FF6FF724FF47021786806F041
:10A1B80075F90DE097F83530022B09D1786803F06E
:10A1C80068F8786801F02EFA02E000BF00E000BFEE
:10A1D8004837BD4680BD90B587B000AF786039601C
:10A1E800786800F08DF9786178692BF0B1F83861FA
:10A1F8003B69002B01D100239BE0796938692BF07A
:10A2080005FD3B697A681A603B693A685A603B68A1
:10A21800002B50D128F08EFEF860FB68002B01D18E
:10A22800002386E0FB68DB68002B0DD104202BF0AF
:10A238008FF80246FB68DA60FB68DB683A691A60E7
:10A24800FB6801225A621BE0FB685B6A5A1CFB68C8
:10A258005A62FB68DA68FB685B6A9B00194610461D
:10A268002BF0B4F80246FB68DA60FB68DA68FB6832
:10A27800596A6FF040430B449B0013443A691A60D3
:10A288003B6900229A823B690022DA82002028F08A
:10A298005DFE03469BB2013B9BB21AB23B691A832F
:10A2A800002028F079FE03469BB2013B9BB21AB20C
:10A2B8003B695A833CE03B689B68002B02D13868B5
:10A2C800FEF77AFE3B689B681B68002B10D13B6841
:10A2D8009C6804202BF03CF8034623603B689B688D
:10A2E8001B683A691A603B689B6801225A601FE044
:10A2F8003B689B685A6801325A603B689B681A68D9
:10A308003B689B685B6899003B689C6810462BF02B
:10A318005DF8034623603B689B681A683B689B6846
:10A3280059686FF040430B449B0013443A691A6024
:10A338003B6918461C37BD4690BD80B584B000AF58
:10A348007860786801F0A2FE002006F031F978689C
:10A3580009F0F2FA786800F0ABF8012006F028F965
:10A368004FF6FF724FF47021786806F097F8786816
:10A3780002F0CBFBFAF78EFFF860FB68002B09D0E0
:10A38800786800F06BF80346002B03D07968F8680A
:10A39800FAF78CFF786807F02DFEB860BB68002BD1
:10A3A8000CD07A682221B868FAF70CFC7A68232165
:10A3B800B868FAF707FC786802F06BFF00BF10373F
:10A3C800BD4680BD80B582B000AF78607B681B68F1
:10A3D8009B68002B07D07B681B689B687A681268AB
:10A3E8007968104698477B681B681B68002B07D064
:10A3F8007B681B681A687B681A607868FFF7E2FF59
:10A4080000BF0837BD4680BD80B485B000AF786016
:10A418007B681B68FB6002E0FB681B68FB60FB68ED
:10A42800002B06D0FB681B7E03F00303DBB2002B76
:10A43800F2D0FB68002B01D1002309E0FB681B7EEA
:10A4480003F00303DBB2012B0CBF01230023DBB2B3
:10A4580018461437BD465DF8047B704780B485B054
:10A4680000AF78607B681B68FB6002E0FB681B68D4
:10A47800FB60FB68002B06D0FB681B7E03F00C0317
:10A48800DBB2002BF2D0FB68002B01D1002309E0DE
:10A49800FB681B7E03F00C03DBB2042B0CBF01230B
:10A4A8000023DBB218461437BD465DF8047B7047BD
:10A4B80080B584B000AF78607B681B68FB607B6800
:10A4C8001B681B68002B07D07B681B681A687B68B1
:10A4D8001A607868FFF7ECFF7B68FA681A607B6897
:10A4E8001B685B68002B07D07B681B685B687A6811
:10A4F800126879681046984700BF1037BD4680BD7E
:10A5080080B485B000AF78607B68FB6002E0FB68D0
:10A518001B68FB60FB68002B05D0FB689A690A4B37
:10A528001340002BF3D0FB68002B01D1002304E07B
:10A53800FB689B69C3F30F139BB218461437BD46DB
:10A548005DF8047B704700BFF0FF0F0080B483B054
:10A5580000AF78607B68B3F904309AB27B68B3F9CE
:10A5680000309BB2D31A9BB201339BB21BB2184680
:10A578000C37BD465DF8047B704780B483B000AFEC
:10A5880078607B68B3F906309AB27B68B3F9023019
:10A598009BB2D31A9BB201339BB21BB218460C373D
:10A5A800BD465DF8047B704780B584B000AF786025
:10A5B800396040F60A023968786806F009F80346F7
:10A5C800FB60FB681BB218461037BD4680BD80B5DE
:10A5D80084B000AF7860396040F60B02396878685B
:10A5E80005F0F6FF0346FB60FB681BB21846103700
:10A5F800BD4680BD80B584B000AF7860396044F254
:10A6080020023968786805F0E3FF0346FB60BB89E0
:10A6180018461037BD4680BD80B584B000AF78605D
:10A62800396021223968786805F0D2FF0346FB605B
:10A63800FB68DBB218461037BD4680BD80B584B0D4
:10A6480000AF7860396044F222023968786805F012
:10A65800BFFF0346FB60BB8918461037BD4680BD67
:10A6680080B584B000AF7860396023223968786893
:10A6780005F0AEFF0346FB60FB68DBB218461037F7
:10A68800BD4680BD80B584B000AF786039602422B3
:10A698003968786805F09CFF0346FB60FB681BB2CD
:10A6A80018461037BD4680BD80B584B000AF7860CD
:10A6B800396025223968786805F08AFF0346FB600F
:10A6C800FB681BB218461037BD4680BD80B584B004
:10A6D80000AF7860396026223968786805F078FF1D
:10A6E8000346FB60FB6818461037BD4680BD80B541
:10A6F80084B000AF7860396027223968786805F03F
:10A7080067FF0346FB60FB68DBB218461037BD469F
:10A7180080BD80B584B000AF7860396040F628020B
:10A728003968786805F054FF0346FB60FB681846F3
:10A738001037BD4680BD80B584B000AF7860396001
:10A7480029223968786805F043FF0346FB60FB68F7
:10A75800DBB218461037BD4680BD80B584B000AF67
:10A768007860396044F22A023968786805F030FF69
:10A778000346FB60BB8918461037BD4680BD80B5CF
:10A7880084B000AF786039602B223968786805F0AA
:10A798001FFF0346FB60FB68DBB218461037BD4657
:10A7A80080BD80B584B000AF786039602C223968EC
:10A7B800786805F00DFF0346FB60FB68002B14BFAB
:10A7C80001230023DBB218461037BD4680BD80B593
:10A7D80084B000AF7860396044F230023968786834
:10A7E80005F0F6FE0346FB60BB8918461037BD46E8
:10A7F80080BD80B584B000AF786039603122396897
:10A80800786805F0E5FE0346FB60FB68DBB2184696
:10A818001037BD4680BD80B584B000AF7860396020
:10A8280041F232023968786805F0D2FE0346FB60CF
:10A83800FB681BB218461037BD4680BD80B584B092
:10A8480000AF7860396033223968786805F0C0FE57
:10A858000346FB60FB68DBB218461037BD4680BD77
:10A8680080B584B000AF7860396040F63A02396844
:10A87800786805F0ADFE0346FB60FB681BB218461E
:10A888001037BD4680BD80B584B000AF78603960B0
:10A8980044F23B023968786805F09AFE0346FB608B
:10A8A800BB8918461037BD4680BD80B584B000AF5F
:10A8B8007860396040F63C023968786805F088FEAF
:10A8C8000346FB60FB68DBB218461037BD4680BD07
:10A8D80080B584B000AF7860396040F63D023968D1
:10A8E800786805F075FE0346FB60FB681BB21846E6
:10A8F8001037BD4680BD80B584B000AF7860396040
:10A908004FF404623968786805F062FE0346FB601C
:10A91800FB681BB218461037BD4680BD80B584B0B1
:10A9280000AF7860396040F641023968786805F010
:10A938004FFE0346FB60FB681BB218461037BD4646
:10A9480080BD80B584B000AF7860396040F64202BF
:10A958003968786805F03CFE0346FB60FB681BB26B
:10A9680018461037BD4680BD80B584B000AF78600A
:10A97800396040F643023968786805F029FE0346D5
:10A98800FB60FB681BB218461037BD4680BD80B51A
:10A9980084B000AF7860396044F24402396878685E
:10A9A80005F016FE0346FB60BB8918461037BD4606
:10A9B80080BD80B584B000AF7860396040F645024C
:10A9C8003968786805F004FE0346FB60FB68DBB273
:10A9D80018461037BD4680BD80B584B000AF78609A
:10A9E800396046223968786805F0F2FD0346FB6055
:10A9F800FB68DBB218461037BD4680BD80B584B011
:10AA080000AF7860396044F247023968786805F029
:10AA1800DFFD0346FB60BB8918461037BD4680BD85
:10AA280080B584B000AF78603960482239687868AA
:10AA380005F0CEFD0346FB60FB68DBB21846103715
:10AA4800BD4680BD80B584B000AF7860396040F6FF
:10AA580049023968786805F0BBFD0346FB60FB686E
:10AA68001BB218461037BD4680BD80B584B000AF14
:10AA7800786039604A223968786805F0A9FD03468C
:10AA8800FB60FB681BB218461037BD4680BD80B519
:10AA980084B000AF786039604B223968786805F077
:10AAA80097FD0346FB60FB681BB218461037BD468E
:10AAB80080BD80B584B000AF786039604C223968B9
:10AAC800786805F085FD0346FB60FB68002B14BF22
:10AAD80001230023DBB218461037BD4680BD80B580
:10AAE80084B000AF7860396044F24D023968786804
:10AAF80005F06EFD0346FB60BB8918461037BD465E
:10AB080080BD80B584B000AF786039604E22396866
:10AB1800786805F05DFD0346FB60FB68DBB218460C
:10AB28001037BD4680BD80B584B000AF786039600D
:10AB38004FF405623968786805F04AFD0346FB6002
:10AB4800FB681BB218461037BD4680BD80B584B07F
:10AB580000AF7860396051223968786805F038FDAF
:10AB68000346FB60FB68002B14BF01230023DBB204
:10AB780018461037BD4680BD80B584B000AF7860F8
:10AB8800396044F252023968786805F021FD0346BD
:10AB9800FB60BB8918461037BD4680BD80B584B0C0
:10ABA80000AF7860396053223968786805F010FD85
:10ABB8000346FB60FB68DBB218461037BD4680BD14
:10ABC80080B584B000AF78603960542239687868FD
:10ABD80005F0FEFC0346FB60FB6818461037BD46CF
:10ABE80080BD80B584B000AF7860396044F25742C8
:10ABF8003968786805F0ECFC0346FB60BB891846A9
:10AC08001037BD4680BD80B584B000AF786039602C
:10AC18004FF48B623968786805F0DAFC0346FB600C
:10AC2800FB68DBB218461037BD4680BD80B584B0DE
:10AC380000AF7860396041F259423968786805F0A8
:10AC4800C7FC0346FB60FB6818461037BD4680BD4D
:10AC580080B584B000AF7860396041F25A423968F3
:10AC6800786805F0B5FC0346FB60FB681BB2184624
:10AC78001037BD4680BD80B584B000AF78603960BC
:10AC880041F25B423968786805F0A2FC0346FB6034
:10AC9800FB681BB218461037BD4680BD80B584B02E
:10ACA80000AF7860396040F25C423968786805F036
:10ACB8008FFC0346FB60FB68DBB218461037BD46C5
:10ACC80080BD80B584B000AF7860396041F25D42E4
:10ACD8003968786805F07CFC0346FB60FB68DBB2EA
:10ACE80018461037BD4680BD80B584B000AF786087
:10ACF800396060223968786805F06AFC0346FB60B1
:10AD0800FB681BB218461037BD4680BD80B584B0BD
:10AD180000AF7860396040F262423968786805F0BF
:10AD280057FC0346FB60FB68DBB218461037BD468C
:10AD380080BD80B584B000AF78603960682239681A
:10AD4800786805F045FC0346FB60FB68DBB21846F3
:10AD58001037BD4680BD90B587B000AFF860B960C8
:10AD68007A60B968F868FFF7BFFF03461A467B6840
:10AD78001A80BB68002B05D0B968F868FFF7C6FFD2
:10AD8800034600E0FF23BB75B968F868FFF7BEFF0C
:10AD98000346FB75FB7D022B02D9BB7D022B0FD826
:10ADA8007B680022DA707B68002283F822207B68A7
:10ADB800002283F836207B68002283F82A20B5E138
:10ADC800B968F868FFF7B5FF03461A467B689A70BA
:10ADD8007B68DB78002B65D0B968F868FFF71CFC46
:10ADE80003461A467B68DA707B68DB78022B59D9F0
:10ADF8007C68B968F868FFF7FDFBA080B968F86857
:10AE0800FFF764FC38613B69002B0ED03B695B7A25
:10AE180003F00703DBB2002B07D07B6804330A2258
:10AE2800396918462AF04CFC3CE0B968F868FFF725
:10AE380017FC034603F00703D9B27A68537B61F322
:10AE4800020353737B685B7B03F00703DBB2002BC1
:10AE58001BD07C68B968F868FFF7CCFBA0807C68D9
:10AE6800B968F868FFF7EAFB2081B968F868FFF766
:10AE780009FC0346DAB27B689A71B968F868FFF78B
:10AE880013FC0346DAB27B689A72B968F868FFF770
:10AE98002EFC034603F00703D9B27A68537B61F3AB
:10AEA800C5035373B968F868FFF7B5FC03461A463B
:10AEB8007B681A847B68B3F92030002B27D07B6825
:10AEC80093F82230002B22D0B968F868FFF791FC7C
:10AED80003461A467B6883F822207B6893F8223061
:10AEE800022B14D9B968F868FFF7A8FC034603F0E9
:10AEF8001F03D9B27A6892F8233061F3450382F8C8
:10AF080023307C68B968F868FFF761FCE083B968AA
:10AF1800F868FFF7A5FC03461A467B68DA847B6865
:10AF2800B3F92630002B20D07B6893F82A30002B09
:10AF38001BD0B968F868FFF7B8FC03461A467B6867
:10AF480083F82A207B6893F82A30022B0DD9B96838
:10AF5800F868FFF7BDFC03461A467B681A857C68CB
:10AF6800B968F868FFF78FFCA0847B689B7E002B8C
:10AF780042D0B968F868FFF7CCFB02467B681A61D3
:10AF88007B681B69002B37D0B968F868FFF7D3FBDB
:10AF980003461A467B689A767B689B7E022B2BD9E0
:10AFA8007B681B69184609F0EAFA0346022B0DD1A3
:10AFB800B968F868FFF73AFE02467B685A617C6810
:10AFC800B968F868FFF70DFE208315E07C68B9685A
:10AFD800F868FFF7C2FB2083B968F868FFF7CFFB72
:10AFE80003461A467B68DA76B968F868FFF7D9FB32
:10AFF80003461A467B681A777B6893F83630002B2D
:10B008003DD0B968F868FFF776FC03461A467B68B6
:10B01800DA857B68B3F92E30002B30D07B6893F843
:10B028003630022B2BD9B968F868FFF7C2FC034603
:10B038001A467B6883F836207B6893F83630022BF3
:10B048001DD9B968F868FFF769FC03461A467B689A
:10B058001A86B968F868FFF774FC03461A467B68D5
:10B068005A86B968F868FFF77FFC03461A467B687A
:10B078009A867C68B968F868FFF789FCA085BB7D6B
:10B08800FC2B09D8BB7D9AB2FB7D9BB212FB03F364
:10B098009BB21B0A9BB2FB75FB7DFC2B46D87B68D9
:10B0A800DB789AB2FB7D9BB212FB03F39BB21B0ABF
:10B0B8009BB2DAB27B68DA707B689B7E9AB2FB7DC2
:10B0C8009BB212FB03F39BB21B0A9BB2DAB27B68FA
:10B0D8009A767B6893F822309AB2FB7D9BB212FB7A
:10B0E80003F39BB21B0A9BB2DAB27B6883F8222077
:10B0F8007B6893F836309AB2FB7D9BB212FB03F360
:10B108009BB21B0A9BB2DAB27B6883F836207B6855
:10B1180093F82A309AB2FB7D9BB212FB03F39BB2E1
:10B128001B0A9BB2DAB27B6883F82A201C37BD461B
:10B1380090BD90B587B000AFF860B9607A60B96823
:10B14800F868FFF760FD03461A467B689A767B68C5
:10B158009B7E022B59D9B968F868FFF7D7FD0346DB
:10B16800FB75FB7DFC2B0CD87B689B7E9AB2FB7D24
:10B178009BB212FB03F39BB21B0A9BB2DAB27B6849
:10B188009A767B689B7E022B41D97C68B968F868FF
:10B19800FFF727FDA081B968F868FFF759FD034656
:10B1A8001A467B689A82B968F868FFF764FD034617
:10B1B8001A467B685A82B968F868FFF76FFD03463C
:10B1C80003F00703D9B27A68937F61F30203937798
:10B1D800B968F868FFF7ADFD034603F00703D9B275
:10B1E8007A68937F61F3C5039377B968F868FFF7C6
:10B1F8001DFD02467B681A60B968F868FFF761FDB3
:10B2080003461A467B681A7702E000BF00E000BFD9
:10B218001C37BD4690BD90B587B000AFF860B960E7
:10B228007A60B968F868FFF7D7FB03461A467B6867
:10B23800DA727B68DB7A022B5AD9B968F868FFF7AB
:10B2480065FD0346FB75FB7DFC2B0CD87B68DB7A20
:10B258009AB2FB7D9BB212FB03F39BB21B0A9BB213
:10B26800DAB27B68DA727B68DB7A022B42D97B68B8
:10B2780000221A807B684FF480725A80FB6814336E
:10B288001846FFF763F90346002B00DA01335B1019
:10B298001AB27B689A80FB6814331846FFF76DF979
:10B2A8000346002B00DA01335B101AB27B68DA80A0
:10B2B800B968F868FFF7B4FB03461A467B689A72C8
:10B2C8007B689B7A002B05D07C68B968F868FFF723
:10B2D80095FB2081B968F868FFF72BFD034603F05A
:10B2E8000F03D9B27A68137B61F30303137302E087
:10B2F80000BF00E000BF1C37BD4690BD90B587B0C9
:10B3080000AFF860B9607A60B968F868FFF79AFB2F
:10B3180003461A467B685A807B68B3F90230002BD3
:10B3280063D0B968F868FFF7ECFB03461A467B68F8
:10B338001A727B681B7A022B59D9B968F868FFF72B
:10B34800E5FC0346FB75FB7DFC2B0CD87B681B7A60
:10B358009AB2FB7D9BB212FB03F39BB21B0A9BB212
:10B36800DAB27B681A727B681B7A022B41D97C6837
:10B37800B968F868FFF7B3FB2080B968F868FFF789
:10B3880074FB03461A467B689A807B68B3F90430DD
:10B39800002B07D0B968F868FFF779FB03461A460F
:10B3A8007B68DA80B968F868FFF783FB03461946BB
:10B3B8007A68537A61F3820353727B685B7AC3F3CA
:10B3C8008003D9B27A68537A61F3C3035372B968B8
:10B3D800F868FFF7AEFC034603F00303D9B27A68B6
:10B3E800537A61F30103537204E000BF02E000BF27
:10B3F80000E000BF1C37BD4690BD90B587B000AFD8
:10B40800F860B9607A60B968F868FFF78CFB0346A2
:10B418001A467B685A807B68B3F90230002B4BD000
:10B42800B968F868FFF7BAFB03461A467B681A73CF
:10B438007B681B7B022B41D9B968F868FFF766FC6B
:10B448000346FB75FB7DFC2B0CD87B681B7B9AB2F3
:10B45800FB7D9BB212FB03F39BB21B0A9BB2DAB2D1
:10B468007B681A737B681B7B022B29D97C68B968B7
:10B47800F868FFF781FB2080B968F868FFF7A0FB40
:10B4880002467B689A60B968F868FFF75FFB034675
:10B4980019467A68537B61F382035373B968F86875
:10B4A800FFF747FC034603F00303D9B27A68537BDE
:10B4B80061F30103537304E000BF02E000BF00E042
:10B4C80000BF1C37BD4690BD80B588B000AF78601E
:10B4D80039600023FB8339687868FFF70CFA034664
:10B4E800BB83B7F91C30002B45D039687868FFF763
:10B4F80060FA0346FB76FB7E022B3CD9B7F91C3079
:10B50800002B00DA01335B101BB29BB201339BB2F4
:10B51800BB8339687868FFF727FA03469AB2BB8B72
:10B5280013449BB2BB8339687868FFF7F7F9034681
:10B538003B8339687868FFF704FA0346FB82B7F95A
:10B548001630002BB8BF5B429AB2B7F91830002BFF
:10B55800B8BF5B429BB2934238BF13469AB2BB8BCB
:10B5680013449BB2BB83B7F91C20B7F91E30934232
:10B57800B8BF1346FB8339687868FFF771F903464B
:10B58800BB82B7F91430002B19D039687868FFF7F7
:10B598008CF90346FB74FB7C022B10D93968786858
:10B5A800FFF796F903463B82B7F91020B7F9143034
:10B5B8001A44B7F91E309342B8BF1346FB83396863
:10B5C8007868FEF7F1FF0346FB8139687868FEF773
:10B5D800FEFF0346BB81B7F90C20B7F90E30934242
:10B5E800B8BF13467B81B7F90A30002B04DDFA8B0C
:10B5F8007B8913449BB2FB83B7F91E30184620376A
:10B60800BD4680BD80B582B000AF78603960482102
:10B6180078682AF0FBFA7B683A681A6000BF083736
:10B62800BD4680BD80B584B000AF7860786800F012
:10B6380037F80346FB810023BB8107F10C031A4648
:10B6480013217868F9F7BEFAB7F90C30B7F90E206C
:10B658009A4202D0786801F01CFE7B689B68002B38
:10B6680005D07B689B68B7F90C20DA820BE0B7F944
:10B678000C30002B07D07868FDF79EFC7B689B6830
:10B68800B7F90C20DA82B7F90C30B7F90E209A42D4
:10B6980002D0786801F0FDFD00BF1037BD4680BDBF
:10B6A80080B483B000AF78607B689B68002B04D0BF
:10B6B8007B689B68B3F9163000E0002318460C3706
:10B6C800BD465DF8047B704780B483B000AF7860F6
:10B6D80039603B68B3F900207B681A803B68B3F98E
:10B6E80002207B685A803B68B3F904207B689A8003
:10B6F8003B68B3F906207B68DA8000BF0C37BD468B
:10B708005DF8047B704780B483B000AF78607B68D5
:10B71800B3F904309AB27B68B3F900309BB2D31AFC
:10B728009BB201339BB21BB218460C37BD465DF87D
:10B73800047B704780B483B000AF78607B68B3F94E
:10B7480006309AB27B68B3F902309BB2D31A9BB227
:10B7580001339BB21BB218460C37BD465DF8047B1B
:10B76800704780B584B000AF7860396041F201025B
:10B778003968786804F02CFF0346FB60FB681BB24D
:10B7880018461037BD4680BD80B584B000AF7860DC
:10B79800396041F202023968786804F019FF0346FB
:10B7A800FB60FB681BB218461037BD4680BD80B5EC
:10B7B80084B000AF7860396041F203023968786874
:10B7C80004F006FF0346FB60FB681BB218461037FF
:10B7D800BD4680BD80B584B000AF7860396041F265
:10B7E80004023968786804F0F3FE0346FB60FB68DE
:10B7F8001BB218461037BD4680BD80B584B000AF77
:10B808007860396041F205023968786804F0E0FE32
:10B818000346FB60FB681BB218461037BD4680BD67
:10B8280080B584B000AF7860396041F206023968AB
:10B83800786804F0CDFE0346FB60FB681BB218462F
:10B848001037BD4680BD80B584B000AF78603960E0
:10B8580041F207023968786804F0BAFE0346FB60D3
:10B86800FB681BB218461037BD4680BD80B584B052
:10B8780000AF7860396041F208023968786804F0EE
:10B88800A7FE0346FB60FB681BB218461037BD468F
:10B8980080BD80B584B000AF7860396041F209029C
:10B8A8003968786804F094FE0346FB60FB68DBB2F5
:10B8B80018461037BD4680BD80B584B000AF7860AB
:10B8C800396043F20C023968786804F081FE034657
:10B8D800FB60FB681BB218461037BD4680BD80B5BB
:10B8E80084B000AF7860396043F20D023968786837
:10B8F80004F06EFE0346FB60FB681BB21846103767
:10B90800BD4680BD80B584B000AF7860396041F62F
:10B9180010023968786804F05BFE0346FB60FB6838
:10B928001BB218461037BD4680BD80B584B000AF45
:10B938007860396041F611023968786804F048FE89
:10B948000346FB60FB681BB218461037BD4680BD36
:10B9580080B584B000AF7860396041F6120239686A
:10B96800786804F035FE0346FB60FB681BB2184696
:10B978001037BD4680BD80B584B000AF78603960AF
:10B9880041F613023968786804F022FE0346FB602A
:10B99800FB681BB218461037BD4680BD80B584B021
:10B9A80000AF7860396041F232023968786804F093
:10B9B8000FFE0346FB60FB681BB218461037BD46F6
:10B9C80080BD80B584B000AF7860396041F269020B
:10B9D8003968786804F0FCFD0346FB60FB689BB29D
:10B9E80018461037BD4680BD80B584B000AF78607A
:10B9F800396041F26A423968786804F0E9FD034623
:10BA0800FB60FB68DBB218461037BD4680BD80B5C9
:10BA180082B000AF78600B467B8013463B80B7F955
:10BA280002301946786800F00AF8B7F9003019466C
:10BA3800786800F02AF800BF0837BD4680BD80B599
:10BA480084B000AF78600B467B8007F108020023C2
:10BA580041F20701786804F070FE0346FB73FB7B34
:10BA6800012B04D1BA68B7F902309A4202D1FB7BA4
:10BA7800002B06D1B7F9023000221946786806F083
:10BA880076F800BF1037BD4680BD80B584B000AFE2
:10BA980078600B467B8007F10802002341F2080119
:10BAA800786804F04AFE0346FB73FB7B012B04D144
:10BAB800BA68B7F902309A4202D1FB7B002B06D153
:10BAC800B7F9023000221946786806F065F800BF19
:10BAD8001037BD4680BD000080B590B000AF7860DB
:10BAE8007B6893F8233003F00403DBB2002B09D002
:10BAF8007B6893F8233003F00203DBB2002B01D0FC
:10BB080000231EE2786806F075FA78637B6B002BD9
:10BB180001D1002315E2786802F0F8FB03467B8622
:10BB2800002387F83F30002387F831307B6893F88B
:10BB3800233003F00403DBB2002B05D0786800F053
:10BB4800E7FE0346BB87A0E000217868FFF709FEFF
:10BB58000346BB87B7F93C3042F2D17293420CBF1F
:10BB68000123002387F83F30BB8F03F4C043B3F5AC
:10BB7800005F08D1BB8F23F4C0431BB2B3F5FA6F43
:10BB880001DC012300E0002387F8313097F83130D9
:10BB980003F0010387F83130786B00F0D5FE0346D7
:10BBA800FB8597F83F30002B05D0786801F044FEFC
:10BBB8000346BB8751E097F83130002B4DD07B6BA3
:10BBC80093F8233003F00403DBB2002B28D10021C3
:10BBD800786BFFF7C6FD03461A4642F2D1739A42C4
:10BBE8001ED100217868FFF7D9FE0346BB850021E6
:10BBF8007868FFF7ADFE03469AB2BB8D13449BB23B
:10BC0800BB8700217868FFF7B6FE03461A46B7F9E6
:10BC18002C3013449AB2BB8F13449BB2BB871CE0F1
:10BC2800BB8F23F4C0431BB2B3F57A7F06DDBB8F0D
:10BC380023F4C0431BB2C3F57A7303E0BB8F23F42C
:10BC4800C0431BB2B7F92E2002FB03F39F4A82FBC5
:10BC580003125211DB17D31ABB8700217868FFF74C
:10BC680093FD03467B8500217868FFF7A0FD034616
:10BC78003B85B7F92E30B7F92820B7F92A10B7F95C
:10BC88003C0001F0E9FC0346BB87786802F0A0FAA3
:10BC98000346FB84002387F83930002387F82530D2
:10BCA8007B6893F8233003F00203DBB2002B05D046
:10BCB800786800F03BFE03467B87A0E000217868A7
:10BCC800FFF788FD03467B87B7F93A3042F2D17215
:10BCD80093420CBF0123002387F839307B8F03F48C
:10BCE800C043B3F5005F08D17B8F23F4C0431BB278
:10BCF800B3F5FA6F01DC012300E0002387F8253053
:10BD080097F8253003F0010387F82530786B00F0A9
:10BD180046FE03467B8497F83930002B05D07868B7
:10BD280001F000FF03467B8751E097F82530002B90
:10BD38004DD07B6B93F8233003F00203DBB2002B6A
:10BD480028D10021786BFFF745FD03461A4642F2D9
:10BD5800D1739A421ED100217868FFF71FFE03466F
:10BD68003B8400217868FFF7CDFD03469AB23B8CEF
:10BD780013449BB27B8700217868FFF7D6FD034602
:10BD88001A46B7F9203013449AB27B8F13449BB2FA
:10BD98007B871CE07B8F23F4C0431BB2B3F57A7F0B
:10BDA80006DD7B8F23F4C0431BB2C3F57A7303E02F
:10BDB8007B8F23F4C0431BB2B7F9222002FB03F3A5
:10BDC800424A82FB03125211DB17D31A7B870021E8
:10BDD8007868FFF712FD0346FB8300217868FFF7B8
:10BDE8001FFD0346BB83B7F92230B7F91C20B7F90A
:10BDF8001E10B7F93A0001F0A7FC03467B8797F8B5
:10BE08003F30002B03D197F83930002B07D0B7F912
:10BE18002620B7F932100023786802F0D5FD78683B
:10BE280000F076FD03461A46B7F93C3093420AD132
:10BE3800786800F07BFD03461A46B7F93A3093421A
:10BE480001D100237DE0786801F023FA07F110039F
:10BE58001946786800F0BEFC07F108031946786BAC
:10BE680000F0C8FD07F1080107F110030022184689
:10BE780028F044F80346FB76FB7E83F00103DBB22F
:10BE8800002B02D0786B03F0F7FB7B68B3F9163010
:10BE98009AB27B8F13449BB2013B9BB21AB27B6868
:10BEA8005A8300217868FFF79FFD0346012B0FD1C5
:10BEB8007B68B3F918309AB2BB8FD31A9BB201339F
:10BEC8009BB21AB27B689A820EE000BF1F85EB51C5
:10BED8007B68B3F914309AB2BB8F13449BB2013B11
:10BEE8009BB21AB27B681A8307F110031A462921FC
:10BEF8007868F8F767FE7A682221786BF8F762FEAF
:10BF0800786801F0C6F90021786803F0F2FB7B68D5
:10BF1800143307F108010022184627F0EFFF034603
:10BF2800BB76FB7E002B08D1FB7E83F00103DBB2DE
:10BF3800002B05D0BB7E002B02D0786B03F09CFB56
:10BF4800012318464037BD4680BD00BF80B582B08A
:10BF580000AF78600B467B8013463B80B7F9023010
:10BF68001946786800F00AF8B7F900301946786879
:10BF780000F02AF800BF0837BD4680BD80B584B000
:10BF880000AF78600B467B8007F10802002341F27E
:10BF98000101786804F0D1FB0346FB73FB7B012B9E
:10BFA80004D1BA68B7F902309A4202D1FB7B002B60
:10BFB80006D1B7F9023000221946786805F098FDD5
:10BFC80000BF1037BD4680BD80B584B000AF786033
:10BFD8000B467B8007F10802002341F204017868D0
:10BFE80004F0ABFB0346FB73FB7B012B04D1BA685F
:10BFF800B7F902309A4202D1FB7B002B06D1B7F980
:10C00800023000221946786805F09CFD00BF103701
:10C01800BD4680BD80B582B000AF786039603B68AE
:10C028009BB200221946786805F006FE786800F091
:10C038002DF800BF0837BD4680BD000080B584B02C
:10C0480000AF786010497868FCF76CFF0346002B56
:10C0580001D0002314E0786805F0CCFFF860FB6895
:10C06800002B01D100230BE00021F868FFF7A9FCA1
:10C078000346BB60BB68002B01D0012300E000230E
:10C0880018461037BD4680BD0100060080B584B053
:10C0980000AF78607A6892F8223043F0010382F8A2
:10C0A8002230786805F058FFF860FA6892F8223074
:10C0B80043F0020382F82230F86805F061FFB860A7
:10C0C800BB685B68002B04D0BB685B6818462BF024
:10C0D8007CFE00BF1037BD4680BD000080B584B02F
:10C0E80000AF7860124B1B78002B1DD1104B01223A
:10C0F8001A70786805F030FFF86009E0FA6892F87D
:10C1080022306FF3410382F82230F86801F0D0FD45
:10C11800FB6893F8223003F00203DBB2002BEDD169
:10C12800034B00221A7000E000BF1037BD4680BDE7
:10C13800F4EA032080B582B000AF78603960194B0B
:10C148001B680133174A1360174B1A68154B1B6895
:10C15800DB001946104629F039F90346124A1360E4
:10C16800114B1B68002B00D1FEE70F4B1A680D4BD3
:10C1780019686FF060430B44DB0013447A681A6057
:10C18800094B1A68074B19686FF060430B44DB00D2
:10C1980013443A685A60034B1B6818460837BD4673
:10C1A80080BD00BFF0EA032050ED032080B584B0C5
:10C1B80000AFF860084611461A460346FB720B4664
:10C1C8003B811346FB80FB7A00221946F86805F08C
:10C1D800F8FCB7F90620B7F908301946F868FFF7F0
:10C1E80016FC00BF1037BD4680BD000090B58BB06F
:10C1F80000AFF860B96011461A460B46FB7113464A
:10C20800BB80F868FFF76AFFBB68002B03D1F868AA
:10C2180005F0F0FEB8600023FB840023BB84F868B7
:10C2280005F0E8FE38620021386AFFF7B7FB0346DD
:10C23800FB830021386AFFF78BFB03469AB2FB8B1E
:10C2480013449BB2BB830021386AFFF75BFB0346AC
:10C258009AB2FB8B13449BB27B830021B868FFF72B
:10C268009DFB03463B830021B868FFF771FB03463B
:10C278009AB23B8B13449BB2FB820021B868FFF74C
:10C2880041FB03469AB23B8B13449BB2BB82FB79BA
:10C29800002B0BD10021B868FFF7A6FB0346012B42
:10C2A80002D10323FB7101E00123FB71FB79013B00
:10C2B800142B00F2308201A252F823F083C3000845
:10C2C8008DC30008C7C30008EDC3000813C40008E5
:10C2D80069C40008ABC40008E5C4000819C3000815
:10C2E8003BC5000851C5000891C50008BDC5000838
:10C2F800CDC5000807C600082DC6000843C60008BB
:10C3080083C60008AFC60008BFC60008F9C6000803
:10C31800B86800F019FB0346002B00DA01335B1004
:10C328001BB29CB2F86800F0F3FA0346002B00DA5F
:10C3380001335B101BB29BB2E31A9AB2FB8A134417
:10C348009BB2FB84B86800F02AFB0346002B00DA96
:10C3580001335B101BB29CB2F86800F0E7FA0346A1
:10C36800002B00DA01335B101BB29BB2E31A9AB2BE
:10C37800BB8A13449BB2BB84CDE1FB8AFB84BB8A96
:10C38800BB84C8E1B86800F0DFFA0346002B00DA86
:10C3980001335B101BB29CB2F86800F0B9FA03468F
:10C3A800002B00DA01335B101BB29BB2E31A9AB27E
:10C3B800FB8A13449BB2FB84BB8ABB84ABE1B8689D
:10C3C80000F0C2FA03469CB2F86800F0A1FA0346EE
:10C3D8009BB2E31A9AB2FB8A13449BB2FB84BB8AD2
:10C3E800BB8498E1FB8AFB84B86800F0D8FA03465E
:10C3F8009CB2F86800F09AFA03469BB2E31A9AB224
:10C40800BB8A13449BB2BB8485E1B86800F09CFAF0
:10C418000346002B00DA01335B101BB29CB2F868AC
:10C4280000F076FA0346002B00DA01335B101BB2EA
:10C438009BB2E31A9AB2FB8A13449BB2FB84B86896
:10C4480000F0ADFA03469CB2F86800F06FFA0346B4
:10C458009BB2E31A9AB2BB8A13449BB2BB845AE1DB
:10C46800B86800F071FA03469CB2F86800F050FA18
:10C4780003469BB2E31A9AB2FB8A13449BB2FB842D
:10C48800B86800F08CFA03469CB2F86800F04EFADF
:10C4980003469BB2E31A9AB2BB8A13449BB2BB848D
:10C4A80039E1FB8AFB84B86800F079FA0346002B6F
:10C4B80000DA01335B101BB29CB2F86800F036FA60
:10C4C8000346002B00DA01335B101BB29BB2E31A60
:10C4D8009AB2BB8A13449BB2BB841CE1B86800F0D3
:10C4E80033FA03469CB2F86800F012FA03469BB28E
:10C4F800E31A9AB2FB8A13449BB2FB84B86800F033
:10C508004EFA0346002B00DA01335B101BB29CB2D3
:10C51800F86800F00BFA0346002B00DA01335B10D1
:10C528001BB29BB2E31A9AB2BB8A13449BB2BB8478
:10C53800F1E00023FB84F86800F0F8F903469BB2A9
:10C548005B429BB2BB84E6E0B86800F0E1F90346C1
:10C55800002B00DA01335B101BB29CB2F86800F0C4
:10C56800D7F90346002B00DA01335B101BB29BB2EC
:10C57800E31A9BB2FB84F86800F0D8F903469BB233
:10C588005B429BB2BB84C6E0B86800F0C1F90346C1
:10C598009CB2F86800F0BCF903469BB2E31A9BB260
:10C5A800FB84F86800F0C2F903469BB25B429BB279
:10C5B800BB84B0E00023FB84B86800F0B7F90346F9
:10C5C800BB84A8E0B86800F0A3F90346002B00DAA2
:10C5D80001335B101BB29CB2F86800F099F903466E
:10C5E800002B00DA01335B101BB29BB2E31A9BB23B
:10C5F800FB84B86800F09AF90346BB848BE0B868FE
:10C6080000F086F903469CB2F86800F081F9034609
:10C618009BB2E31A9BB2FB84B86800F087F9034623
:10C62800BB8478E0F86800F073F903469BB25B427C
:10C638009BB2FB840023BB846DE0F86800F068F9C6
:10C6480003469BB25B429BB2FB84B86800F06EF96C
:10C658000346002B00DA01335B101BB29CB2F8686A
:10C6680000F064F90346002B00DA01335B101BB2BB
:10C678009BB2E31A9BB2BB844DE0F86800F048F91E
:10C6880003469BB25B429BB2FB84B86800F04EF94C
:10C6980003469CB2F86800F049F903469BB2E31AD6
:10C6A8009BB2BB8437E0B86800F032F90346FB84DC
:10C6B8000023BB842FE0B86800F02AF90346FB8406
:10C6C800B86800F033F90346002B00DA01335B1039
:10C6D8001BB29CB2F86800F029F90346002B00DA77
:10C6E80001335B101BB29BB2E31A9BB2BB8412E00E
:10C6F800B86800F00DF90346FB84B86800F016F935
:10C7080003469CB2F86800F011F903469BB2E31A9D
:10C718009BB2BB8400BF0021386AFFF765F9034666
:10C72800012B17D1B7F90430BA68B2F914201344B1
:10C738003A6AB2F914209C1A386A01F08BFE034653
:10C74800E218B7F91C30D31A9AB2FB8C13449BB287
:10C75800FB8416E0B7F90430BA68B2F91420134420
:10C768003A6AB2F914209C1A386A01F0CFFD0346E0
:10C77800E218B7F91C30D31A9AB2FB8C13449BB257
:10C78800FB84B7F93830BA68B2F9162013443A6A0C
:10C79800B2F916209C1A386A01F01AFD0346E2180D
:10C7A800B7F91A30D31A9AB2BB8C13449BB2BB8424
:10C7B80000220121F86805F004FAB7F92420B7F936
:10C7C80026301946F868FFF722F900BF2C37BD4616
:10C7D80090BD00BF80B582B000AF786039607B68DB
:10C7E800143319463868FEF76FFF00BF0837BD4697
:10C7F80080BD80B584B000AF7860786805F0FAFB3A
:10C80800B860BB68002B28D07B68B3F914309AB2A3
:10C81800BB68B3F914309BB2D31A9BB2FB81B868DA
:10C8280001F0A6FC03469AB2FB8913449BB2FB8134
:10C838000021B868FFF78CF80346FA899BB2D31A2F
:10C848009BB2FB810021B868FFF7A8F80346FA8974
:10C858009BB2D31A9BB2FB8102E07B689B8AFB8167
:10C86800B7F90E3018461037BD4680BD80B584B084
:10C8780000AF7860786805F0BDFBB860BB68002B36
:10C8880028D07B68B3F916309AB2BB68B3F9163072
:10C898009BB2D31A9BB2FB81B86801F081FC0346B6
:10C8A8009AB2FB8913449BB2FB810021B868FFF759
:10C8B80029F80346FA899BB2D31A9BB2FB8100215F
:10C8C800B868FFF76BF80346FA899BB2D31A9BB294
:10C8D800FB8102E07B68DB8AFB81B7F90E301846E2
:10C8E8001037BD4680BD90B583B000AF78607868DA
:10C8F800FFF7BCFF03469CB2786800F017F80346C0
:10C908009BB223449BB21BB218460C37BD4690BD60
:10C9180080B582B000AF78607B6814331846FEF7A4
:10C92800F2FE034618460837BD4680BD80B582B082
:10C9380000AF78607B6814331846FEF7FBFE0346A9
:10C9480018460837BD4680BD80B584B000AF786012
:10C9580000217868FEF7FCFF0346FB810021786818
:10C96800FFF709F80346BB8100217868FFF716F83E
:10C9780003467B817868FFF7CBFF03469AB2FB89B1
:10C98800D31A9AB2BB89D31A9AB27B895B009BB23D
:10C99800D31A9BB21BB218461037BD4680BD80B56E
:10C9A80084B000AF786000217868FEF7ABFF0346DB
:10C9B800FB8100217868FEF7B8FF0346BB810021A0
:10C9C8007868FEF7EBFF03467B817868FFF7AEFFD8
:10C9D80003469AB2FB89D31A9AB2BB89D31A9AB280
:10C9E8007B895B009BB2D31A9BB21BB218461037E7
:10C9F800BD4680BD80B584B000AF78603960002145
:10CA08007868FEF7CBFF0346FB8139687868FFF743
:10CA1800E1FEFB895B429BB21BB2FA89524292B299
:10CA280012B21946386827F019F800217868FEF71D
:10CA38008FFF034619463B68B3F900309AB28BB2B0
:10CA480013449BB21AB23B681A8000217868FEF73B
:10CA580092FF034619463B68B3F904309AB28BB289
:10CA6800D31A9BB21AB23B689A8000217868FEF705
:10CA780049FF034619463B68B3F902309AB28BB2B4
:10CA880013449BB21AB23B685A8000217868FEF7BB
:10CA98004CFF034619463B68B3F906309AB28BB28D
:10CAA800D31A9BB21AB23B68DA8000BF1037BD4672
:10CAB80080BD80B584B000AF78600023BB814EF2A2
:10CAC8000103FB8107F10C031A462C217868F8F75B
:10CAD80079F8B7F90C3018461037BD4680BD80B5D7
:10CAE80084B000AF78604EF20103BB810023FB8164
:10CAF80007F10C031A462C217868F8F763F8B7F9A0
:10CB08000E3018461037BD4680BD80B584B000AFE2
:10CB1800786000217868FEF724FE0346FB81002137
:10CB28007868FEF757FE0346BB81B7F90E3042F22C
:10CB3800D172934207D0B7F90C3042F2D1729342C6
:10CB480001D0002303E07868FFF7A0FA0123184614
:10CB58001037BD4680BD000080B588B000AF786052
:10CB68007868FFF76BFA0346002B40F0EF8178688E
:10CB780005F040FA386100217868FEF764FE034644
:10CB8800FB8300217868FEF771FE0346BB833B698F
:10CB9800002B08D1B7F91C20B7F91E301946786860
:10CBA80000F0D8F9D3E13869FFF7CEFE0346FB81E0
:10CBB8003869FFF7F4FE0346BB81FB8B03F4C043DF
:10CBC800B3F5005F23D1FB8B23F4C0431BB2B3F54D
:10CBD800FA6F1CDCB7F90E20FB8B23F4C0431BB2A1
:10CBE800B3F57A7F06DDFB8B23F4C0431BB2C3F594
:10CBF8007A7303E0FB8B23F4C0431BB202FB03F3FD
:10CC0800A64A82FB03125211DB17D31AFB83BB8B94
:10CC180003F4C043B3F5005F23D1BB8B23F4C043B7
:10CC28001BB2B3F5FA6F1CDCB7F90C20BB8B23F4ED
:10CC3800C0431BB2B3F57A7F06DDBB8B23F4C04338
:10CC48001BB2C3F57A7303E0BB8B23F4C0431BB25A
:10CC580002FB03F3914A82FB03125211DB17D31A2A
:10CC6800BB8300217868FEF727FE03467B830021FB
:10CC78007868FEF734FE03463B837868FFF748FE82
:10CC880003467B817868FFF751FE03463B817B8B27
:10CC980003F4C043B3F5005F23D17B8B23F4C04377
:10CCA8001BB2B3F5FA6F1CDCB7F90A207B8B23F4AF
:10CCB800C0431BB2B3F57A7F06DD7B8B23F4C043F8
:10CCC8001BB2C3F57A7303E07B8B23F4C0431BB21A
:10CCD80002FB03F3714A82FB03125211DB17D31ACA
:10CCE8007B833B8B03F4C043B3F5005F23D13B8BBD
:10CCF80023F4C0431BB2B3F5FA6F1CDCB7F9082064
:10CD08003B8B23F4C0431BB2B3F57A7F06DD3B8B24
:10CD180023F4C0431BB2C3F57A7303E03B8B23F4BF
:10CD2800C0431BB202FB03F35C4A82FB031252119D
:10CD3800DB17D31A3B83FA8B7B8B13449BB2FB83A1
:10CD4800BA8B3B8B13449BB2BB8300217868FEF7F8
:10CD5800A0FD0346FB75FB7D002B0BD10021386934
:10CD6800FEF742FE0346012B02D10323FB7501E0C7
:10CD78000123FB75FB7D012B08D1B7F91C20B7F9FE
:10CD88001E301946786800F0E5F8E0E0FB7D023BCC
:10CD9800072B00F2D18001A252F823F0C5CD00087C
:10CDA800F3CD000833CE000845CE000883CE000836
:10CDB80005CE0008A9CE0008E7CE0008B7F90E3066
:10CDC800002B00DA01335B101BB29AB2B7F90A30B4
:10CDD800002B00DA01335B101BB29BB2D31A9AB254
:10CDE800FB8B13449BB2FB83A7E0FA897B89D31A98
:10CDF8009AB2FB8B13449BB2FB839EE0B7F90C30CD
:10CE0800002B00DA01335B101BB29AB2B7F9083075
:10CE1800002B00DA01335B101BB29BB2D31A9AB213
:10CE2800BB8B13449BB2BB8387E0BA893B89D31A77
:10CE38009AB2BB8B13449BB2BB837EE0B7F90E302A
:10CE4800002B00DA01335B101BB29AB2B7F90A3033
:10CE5800002B00DA01335B101BB29BB2D31A9AB2D3
:10CE6800FB8B13449BB2FB83BA893B89D31A9AB2D2
:10CE7800BB8B13449BB2BB835FE0FA897B89D31ACF
:10CE88009AB2FB8B13449BB2FB83BA893B89D31AB2
:10CE98009AB2BB8B13449BB2BB834EE01F85EB5108
:10CEA800FA897B89D31A9AB2FB8B13449BB2FB8312
:10CEB800B7F90C30002B00DA01335B101BB29AB2C1
:10CEC800B7F90830002B00DA01335B101BB29BB2B4
:10CED800D31A9AB2BB8B13449BB2BB832DE0B7F92C
:10CEE8000E30002B00DA01335B101BB29AB2B7F98F
:10CEF8000A30002B00DA01335B101BB29BB2D31A45
:10CF08009AB2FB8B13449BB2FB83B7F90C30002B0E
:10CF180000DA01335B101BB29AB2B7F90830002B64
:10CF280000DA01335B101BB29BB2D31A9AB2BB8BE7
:10CF380013449BB2BB8300E000BFB7F91C20B7F9CC
:10CF48001E301946786800F005F800E000BF203769
:10CF5800BD4680BD90B58DB000AF78600B467B8034
:10CF680013463B807B685B68BB62BB6A002B5AD068
:10CF78000021B86AFEF7ECFC0346FB840021B86A7E
:10CF8800FEF7C0FC0346BB844FF480217868FBF7AA
:10CF9800B4FF0346002B16D0BB6AB3F914309AB21B
:10CFA800FB8C13449AB27B8813449BB27B80BB6A88
:10CFB800B3F916309AB2BB8C13449AB23B88134427
:10CFC8009BB23B801FE0B7F92630BA6AB2F9142049
:10CFD8009C18B86A01F0CCF80346E31A9AB27B8829
:10CFE80013449BB27B80B7F92430BA6AB2F9162091
:10CFF8009C18B86A01F0D4F80346E31A9AB23B8841
:10D0080013449BB23B800021B86AFEF7C7FC034675
:10D018007B847A887B8C13449BB27B803A887B8C98
:10D0280013449BB23B807A887B68B3F914309BB277
:10D03800D31A9BB21BB2BB833A887B68B3F916300C
:10D048009BB2D31A9BB21BB2FB83B7F91C30002BDF
:10D0580004D1B7F91E30002B00F08E80786800F0FC
:10D0680018F907F1140319467868FFF7B3FB002392
:10D0780087F82F30BB6A002B1AD007F10C0319462A
:10D08800B86AFFF7B7FC07F10C0107F11403002297
:10D09800184626F033FF034687F82F3097F82F30CD
:10D0A80083F00103DBB2002B02D0B86A02F0E4FA85
:10D0B8007B68B3F914309AB2B7F91C309BB21344A9
:10D0C8009BB21AB27B689A827B68B3F916309AB21F
:10D0D800B7F91E309BB213449BB21AB27B68DA824E
:10D0E8007B68B3F918309AB2B7F91C309BB2134475
:10D0F8009BB21AB27B681A837B68B3F91A309AB26A
:10D10800B7F91E309BB213449BB21AB27B685A839C
:10D11800B7F91C10B7F91E200023786800F030F822
:10D12800BB6A002B04D07A682221B86AF7F74AFD57
:10D13800786800F0AEF8BB6A002B1ED07B68143309
:10D1480007F10C010022184626F0D8FE034687F89E
:10D15800213097F82F30002B0AD197F82F3083F021
:10D168000103DBB2002B08D097F82130002B04D044
:10D17800B86A02F081FA00E000BF3437BD4690BDBE
:10D1880080B588B000AFF860084611461A460346D5
:10D198007B810B463B811346FB71F86804F06EFFF8
:10D1A800B8610023FB6147E0FB689B681A68FB696C
:10D1B8009B0013441B687B61FB79002B07D04FF45D
:10D1C80080217869FBF799FE0346002B30D17B69F3
:10D1D800B3F914309AB27B8913449BB21AB27B69B3
:10D1E8009A827B69B3F916309AB23B8913449BB291
:10D1F8001AB27B69DA827B69B3F918309AB27B89F3
:10D2080013449BB21AB27B691A837B69B3F91A304B
:10D218009AB23B8913449BB21AB27B695A83B7F915
:10D228000820B7F90A1000237869FFF7A9FF00E082
:10D2380000BFFB690133FB61FA69BB699A42B3D34A
:10D2480000BF00BF2037BD4680BD80B586B000AFA7
:10D258007860396007F10C0339681846FEF734FA2C
:10D2680007F10C031946786800F062F80346FB756D
:10D27800FB7D002B09D0786804F082FE024607F196
:10D288000C031946104605F01AF900BF1837BD46B9
:10D2980080BD80B586B000AF786003E0786804F0A0
:10D2A800A9FE7860786804F0A5FE0346002B07D035
:10D2B8004FF400217868FBF720FE0346002BEDD1E0
:10D2C8007868FEF7EDF90346FB827B6803F11402E8
:10D2D80007F10C0311461846FEF7F6F9B7F90C30BA
:10D2E8009AB2FB8AD31A9BB21BB2BB81B7F90E3034
:10D2F8009AB2FB8AD31A9BB21BB2FB81B7F91030E2
:10D308009AB2FB8A13449BB21BB23B82B7F9123024
:10D318009AB2FB8A13449BB21BB27B8207F10C03BF
:10D3280019467868FFF791FF00BF1837BD4680BDE2
:10D3380080B588B000AF7860396001217868FBF764
:10D34800DCFD0346002B01D000239DE0786804F043
:10D3580003FEB861B86904F013FE78617869F7F7DD
:10D3680093FB0246BB69934216D07869F7F7A1FB95
:10D378000246BB6993420FD07869F7F7AFFB0246C4
:10D38800BB69934208D07869F7F7BDFB0246BB69D1
:10D39800934201D0002377E04FF400217868FBF72F
:10D3A800ACFD034683F00103DBB2002B3CD0786868
:10D3B800FEF776F903467B827B6803F1140207F1D6
:10D3C800080311461846FEF77FF9B7F908309AB2F4
:10D3D8007B8AD31A9BB21BB23B81B7F90A309AB247
:10D3E8007B8AD31A9BB21BB27B81B7F90C309AB2F5
:10D3F8007B8A13449BB21BB2BB81B7F90E309AB239
:10D408007B8A13449BB21BB2FB8107F108031A46BF
:10D418003968386826F08EFB034683F00103DBB2D7
:10D42800002B01D000232FE0786804F0E3FDF861B9
:10D4380026E00121F869FBF760FD0346002B01D0C7
:10D44800002321E04FF40021F869FBF756FD03465D
:10D4580083F00103DBB2002B0ED0FB6914331A46AC
:10D468003968386826F066FB034683F00103DBB2AF
:10D47800002B01D0002307E0F86904F0BBFDF86138
:10D48800FB69002BD5D1012318462037BD4680BD46
:10D4980080B586B000AF78607868FEF701F903467A
:10D4A800FB827B6803F1140207F10C03114618464E
:10D4B800FEF70AF9B7F90C309AB2FB8AD31A9BB275
:10D4C8001BB2BB81B7F90E309AB2FB8AD31A9BB252
:10D4D8001BB2FB81B7F910309AB2FB8A13449BB296
:10D4E8001BB23B82B7F912309AB2FB8A13449BB243
:10D4F8001BB27B8207F10C0319467868FFF718FF07
:10D50800034618461837BD4680BD80B582B000AFC7
:10D5180078600B467B807868FBF74EFD7B689B68DC
:10D528007A889A8200BF0837BD4680BD80B582B030
:10D5380000AF786039607B68143319463868FEF7A5
:10D54800C3F87B689B68002B37D03B68B3F9003081
:10D558009AB27B689B68B3F914309BB2D31A9BB21A
:10D568001AB23B681A803B68B3F904309AB27B68F8
:10D578009B68B3F914309BB213449BB21AB23B6850
:10D588009A803B68B3F902309AB27B689B68B3F91A
:10D5980014309BB2D31A9BB21AB23B685A803B68CC
:10D5A800B3F906309AB27B689B68B3F914309BB222
:10D5B80013449BB21AB23B68DA8000BF0837BD46F5
:10D5C80080BD80B588B000AF786039600221786886
:10D5D800FBF793FC034683F00103DBB2002B01D079
:10D5E800002335E080217868FBF7BCFC0346002B5C
:10D5F80001D000232CE007F1140319467868FFF7DF
:10D6080095FF07F1140300223968184626F01FFB1E
:10D618000346FB77FB7F83F00103DBB2002B01D0CD
:10D62800002315E04FF480317868FBF766FC034669
:10D63800002B0CD03B68FB6001233B7407F10C0303
:10D648001A4611217868F7F7BDFA3B7C00E0FB7FAA
:10D6580018462037BD4680BD90B482B000AF04465E
:10D66800084611461A462346FB800346BB800B46F4
:10D678007B8013463B80BB8803F4C043B3F5005F4F
:10D6880023D1BB8823F4C0431BB2B3F5FA6F1CDC6B
:10D69800B7F90020BB8823F4C0431BB2B3F57A7FE7
:10D6A80006DDBB8823F4C0431BB2C3F57A7303E0DD
:10D6B800BB8823F4C0431BB202FB03F3214A82FB5D
:10D6C80003125211DB17D31ABB807B8803F4C043C3
:10D6D800B3F5005F23D17B8823F4C0431BB2B3F5B5
:10D6E800FA6F1CDCB7F900207B8823F4C0431BB217
:10D6F800B3F57A7F06DD7B8823F4C0431BB2C3F5FC
:10D708007A7303E07B8823F4C0431BB202FB03F364
:10D718000C4A82FB03125211DB17D31A7B80B7F92C
:10D728000220B7F906309342A8BF13461BB2B7F9D7
:10D7380004209342B8BF13461BB218460837BD46AB
:10D7480090BC70471F85EB5190B482B000AF04467F
:10D75800084611461A462346FB800346BB800B4603
:10D768007B8013463B80BB8803F4C043B3F5005F5E
:10D7780023D1BB8823F4C0431BB2B3F5FA6F1CDC7A
:10D78800B7F90020BB8823F4C0431BB2B3F57A7FF6
:10D7980006DDBB8823F4C0431BB2C3F57A7303E0EC
:10D7A800BB8823F4C0431BB202FB03F3214A82FB6C
:10D7B80003125211DB17D31ABB807B8803F4C043D2
:10D7C800B3F5005F23D17B8823F4C0431BB2B3F5C4
:10D7D800FA6F1CDCB7F900207B8823F4C0431BB226
:10D7E800B3F57A7F06DD7B8823F4C0431BB2C3F50B
:10D7F8007A7303E07B8823F4C0431BB202FB03F374
:10D808000C4A82FB03125211DB17D31A7B80B7F93B
:10D818000220B7F906309342A8BF13461BB2B7F9E6
:10D8280004209342B8BF13461BB218460837BD46BA
:10D8380090BC70471F85EB5190B58DB000AF7860F4
:10D8480000220021786801F0DFF800217868FEF7EF
:10D85800A5F80346FB8400217868FEF78CF8034698
:10D868009AB2FB8C13449BB2BB8400217868FEF704
:10D878006FF803469AB2FB8C13449BB27B8478689A
:10D88800FFF717F903469AB27B8C13449AB2BB8C04
:10D8980013449BB23B844EF20103FB85786804F085
:10D8A800EDFBF86100217868FEF79EF80346012B2E
:10D8B80040F094800023BB627FE07B689B681A6815
:10D8C800BB6A9B0013441B683B6194493869FBF7AA
:10D8D80029FB0346002B6CD13869FEF7AFFB0346E2
:10D8E80083F00103DBB2002B53D000213869FDF728
:10D8F800D0FF0346FB73FB7B082B25D801A252F807
:10D9080023F000BF31D9000851D9000851D90008C7
:10D9180031D9000851D9000851D9000831D9000877
:10D9280051D9000831D900087B68B3F918301A4674
:10D938003B69B3F91430D31A5A1CB7F92E30934205
:10D94800B8BF1346FB8535E000213869FDF77BFF3A
:10D958000346002B2ED1B7F92E403B6914331846E5
:10D96800FDF7D1FE03461A46B7F9243013449C420A
:10D978000BDC3B6914331846FDF7C5FE03469AB223
:10D98800BB8C13449BB21BB201E0B7F92E30FB8568
:10D9980010E07B68B3F918301A463B69B3F91430C4
:10D9A800D31A5A1CB7F92E309342B8BF1346FB85D9
:10D9B80000E000BFBB6A0133BB62BA6AFB699A42E6
:10D9C800FFF47BAFB7F92E30554A934200F09280AE
:10D9D800FA8D7B8C13449BB2FB858BE00023BB62E2
:10D9E8007AE07B689B681A68BB6A9B0013441B68D3
:10D9F800BB614A49B869FBF795FA0346002B67D122
:10DA0800B869FEF71BFB034683F00103DBB2002B6A
:10DA18004ED00021B869FDF73CFF0346FB75FB7D3E
:10DA2800072B8CBF01220022D2B2002A1BD101226F
:10DA380002FA03F303F09303002B14BF012300231E
:10DA4800DBB2002B0FD0BB69B3F918301A467B68DC
:10DA5800B3F91430D31A5A1CB7F92E309342B8BF11
:10DA68001346FB8535E00021B869FDF7FFFE034644
:10DA7800002B2ED1B7F92E40BB6914331846FDF799
:10DA880042FE03461A46B7F9223013449C420BDC87
:10DA9800BB6914331846FDF736FE03469AB27B8CF1
:10DAA80013449BB21BB201E0B7F92E30FB8510E09E
:10DAB800BB69B3F918301A467B68B3F91430D31A26
:10DAC8005A1CB7F92E309342B8BF1346FB8500E0C5
:10DAD80000BFBB6A0133BB62BA6AFB699A4280D352
:10DAE800B7F92E300E4A934204D0FA8DBB8C1344FA
:10DAF8009BB2FB85B7F92E30094A934202D1B7F998
:10DB0800203007E0B7F92020B7F92E309342B8BF8C
:10DB180013461BB218463437BD4690BD01000400B9
:10DB280001E0FFFF90B58BB000AF786000220021C4
:10DB3800786800F08DFF00217868FDF72FFF034615
:10DB4800FB8300217868FDF7DDFE03469AB2FB8B64
:10DB580013449BB2BB8300217868FDF7E6FE0346B9
:10DB68009AB2FB8B13449BB27B837868FEF7B7FFAE
:10DB780003469AB2BB8B13449AB27B8B13449BB275
:10DB88003B834EF20103FB84786804F077FA7861EE
:10DB980000233B626BE07B689B681A683B6A9B00CA
:10DBA80013441B683B6140493869FBF7BBF90346DE
:10DBB800002B56D13869FEF741FA034683F001037A
:10DBC800DBB2002B3DD000213869FDF762FE034629
:10DBD800FB73FB7B032B0FD83B69B3F91A301A464A
:10DBE8007B68B3F91630D31A5A1CB7F9263093421A
:10DBF800B8BF1346FB8437E000213869FDF736FECD
:10DC08000346002B2FD1B7F926403B691433184639
:10DC1800FDF790FD03461A46B7F91C3013449C42A1
:10DC28000BDC3B6914331846FDF784FD03469AB2B2
:10DC3800BB8B13449BB21BB201E0B7F92630FB84BF
:10DC480011E03B69B3F91A301A467B68B3F916300C
:10DC5800D31A5A1CB7F926309342B8BF1346FB842F
:10DC680002E000BF00E000BF3B6A01333B623A6A52
:10DC78007B699A428FD3B7F926300C4A93420DD06C
:10DC8800FA8C7B8B13449BB2FB84B7F91820B7F945
:10DC980026309342B8BF13461BB201E0B7F91830DB
:10DCA80018462C37BD4690BD0100040001E0FFFF77
:10DCB80080B588B000AF7860786804F0DFF9B861A3
:10DCC8000023FB610DE07B689B681A68FB699B0079
:10DCD80013441B68FB60F868FFF7EAFFFB69013330
:10DCE800FB61FA69BB699A42EDD37B6893F82230ED
:10DCF80003F00103DBB2002B34D07A6892F82230AB
:10DD08006FF3000382F822307868FDF7E5FE786843
:10DD1800FEF722FFBB69002B25D000217868FDF7AC
:10DD280050FE03467B617B69002B1CD00F4B1B68A0
:10DD38007A699A4217D80E4B1A6879696FF060436E
:10DD48000B44DB0013445B683B61094B1A68796933
:10DD58006FF060430B44DB0013441B683969786833
:10DD6800984700E000BF2037BD4680BDF0EA032099
:10DD780050ED032080B483B000AF78607B68B3F9BE
:10DD880004309AB27B68B3F900309BB2D31A9BB2C5
:10DD980001339BB21BB218460C37BD465DF8047BB5
:10DDA800704780B483B000AF78607B68B3F9063001
:10DDB8009AB27B68B3F902309BB2D31A9BB2013393
:10DDC8009BB21BB218460C37BD465DF8047B704702
:10DDD80080B483B000AF786039607B683A681A60B5
:10DDE80000BF0C37BD465DF8047B704780B483B034
:10DDF80000AF786039607B683A685A6000BF0C37BA
:10DE0800BD465DF8047B704780B483B000AF78608E
:10DE180039603A687B689A6200BF0C37BD465DF886
:10DE2800047B704780B485B000AFF860B9607A6051
:10DE3800FB68BA68DA61FB68BA681A62FB687A68D4
:10DE48005A6200BF1437BD465DF8047B704780B442
:10DE580083B000AF786039607B683A689A6100BF28
:10DE68000C37BD465DF8047B704780B483B000AFC3
:10DE7800786039607B683A68DA6000BF0C37BD4665
:10DE88005DF8047B704780B584B000AF7860396076
:10DE980041F201023968786802F09AFB0346FB6098
:10DEA800FB681BB218461037BD4680BD80B584B0EC
:10DEB80000AF7860396041F610023968786802F07E
:10DEC80087FB0346FB60FB681BB218461037BD464C
:10DED80080BD80B584B000AF7860396041F611022A
:10DEE8003968786802F074FB0346FB60FB681BB274
:10DEF80018461037BD4680BD80B584B000AF786045
:10DF0800396041F612023968786802F061FB03460D
:10DF1800FB60FB681BB218461037BD4680BD80B554
:10DF280084B000AF7860396041F6130239687868C8
:10DF380002F04EFB0346FB60FB681BB21846103725
:10DF4800BD4680BD80B584B000AF786039602122BD
:10DF58003968786802F03CFB0346FB60FB68DBB27B
:10DF680018461037BD4680BD80B584B000AF7860D4
:10DF7800396031223968786802F02AFB0346FB6071
:10DF8800FB68DBB218461037BD4680BD80B584B04B
:10DF980000AF7860396041F232023968786802F07F
:10DFA80017FB0346FB60FB681BB218461037BD46DB
:10DFB80080BD80B584B000AF7860396041F26A42B4
:10DFC8003968786802F004FB0346FB60FB68DBB243
:10DFD80018461037BD4680BD80B582B000AF786066
:10DFE8000B46FB707868FAF7E7FF7B689B681B7E37
:10DFF800C3F30103DBB21A46FB789A420DD07B6863
:10E008009A68FB7803F00303D9B2137E61F3010326
:10E0180013767868FFF73DF900E000BF0837BD4682
:10E0280080BD80B582B000AF78600B46FB70786821
:10E03800FAF7C2FF7B689B685B7EC3F30303DBB21E
:10E048001A46FB78934209D07B689A68FB7803F0FC
:10E058000F03D9B2537E61F30303537600BF083729
:10E06800BD4680BD80B582B000AF78600B46FB70BE
:10E078007868FAF7A1FF7B689A68FB7803F00303D6
:10E08800D9B2137E61F38303137600BF0837BD4608
:10E0980080BD80B582B000AF78600B46FB707868B1
:10E0A800FAF78AFF7B689A68FB7803F00303D9B212
:10E0B800137E61F30513137600BF0837BD4680BD94
:10E0C80080B483B000AF78607B689B68002B06D073
:10E0D8007B689B681B7EC3F30103DBB200E003236C
:10E0E80018460C37BD465DF8047B704780B483B092
:10E0F80000AF78607B689B68002B06D07B689B68C4
:10E108005B7EC3F30303DBB200E00F2318460C3732
:10E11800BD465DF8047B704780B483B000AF78607B
:10E128007B689B68002B06D07B689B681B7EC3F3CB
:10E138008103DBB200E0002318460C37BD465DF8CA
:10E14800047B704780B483B000AF78607B689B68BD
:10E15800002B06D07B689B681B7EC3F30113DBB2E0
:10E1680000E0002318460C37BD465DF8047B704775
:10E1780080B483B000AF78607B689B68002B01D1C6
:10E18800002307E07B689B68B3F910309BB25B42C1
:10E198009BB21BB218460C37BD465DF8047B70472E
:10E1A80080B483B000AF78607B689B68002B01D196
:10E1B800002307E07B689B68B3F912309BB25B428F
:10E1C8009BB21BB218460C37BD465DF8047B7047FE
:10E1D80080B483B000AF78607B689B68002B01D166
:10E1E800002307E07B689B68B3F912309BB25B425F
:10E1F8009BB21BB218460C37BD465DF8047B7047CE
:10E20800B0B588B000AF78604EF20103FB83786840
:10E2180003F034FF78610023BB611CE07B689B68D6
:10E228001A68BB699B0013441B68BB603549B86812
:10E23800FAF778FE0346002B09D1BB68B3F91A3008
:10E24800B7F91E209342B8BF1346FB8300E000BF16
:10E25800BB690133BB61BA697B699A42DED300218D
:10E268007868FFF723FE03467B8200217868FFF772
:10E2780030FE03463B8200217868FFF787FE03469D
:10E28800FB81B7F91E30204A93420DD03A8A7B6849
:10E29800B3F91A309BB2D31A9AB2FB8913449AB2D3
:10E2A800FB8B13449BB2FB837868FEF718FC03468C
:10E2B800BB81FB895B009CB27D8A7868FEF736FBE0
:10E2C80003469BB2EB1A9AB23B8A13449BB223448F
:10E2D8009AB2BB8913449BB2BB817868FFF760FF91
:10E2E8000346BA899BB2D31A9BB2BB81B7F90C20FB
:10E2F800B7F91E309342B8BF13461BB218462037F1
:10E30800BD46B0BD0100040001E0FFFFB0B58AB012
:10E3180000AF786000217868FFF74BFE0346012BB9
:10E328000ED07B689B68002B01D100238BE07B68B3
:10E338009B68B3F910309BB25B429BB21BB282E080
:10E3480000217868FFF7EBFD0346BB83002178685E
:10E35800FFF7D2FD03467B8300217868FFF716FE9E
:10E3680003463B830023FB8441F6FF73FB837868F5
:10E3780003F084FE786100233B621CE07B689B68A5
:10E388001A683B6A9B0013441B68FB603049F868B5
:10E39800FAF7C8FD0346002B09D1FB68B3F914301E
:10E3A800B7F91E209342A8BF1346FB8300E000BFC5
:10E3B8003B6A01333B623A6A7B699A42DED3B7F91A
:10E3C8001E3041F6FF72934210D0FB8BFB847B68B2
:10E3D800B3F914309AB27B8B13449AB23B8B134433
:10E3E8009AB2FB8CD31A9BB2FB8402E04EF2010373
:10E3F800FB847868FEF75DFB03467B823B8B5B0002
:10E408009CB2BD8B7868FEF783FA03469BB2EB1A81
:10E418009AB27B8B13449BB223449AB27B8A1344EF
:10E428009BB27B827868FFF7A3FE03469AB27B8A89
:10E4380013449BB27B82B7F91220B7F92630934276
:10E44800B8BF13461BB218462837BD46B0BD00BF3B
:10E4580001000400B0B588B000AF7860002178688A
:10E46800FFF7A7FD0346012B0AD17B689B68002BA9
:10E4780001D100237EE07B689B68B3F9103079E016
:10E488004EF20103FB83786803F0F8FD78610023FE
:10E49800BB611CE07B689B681A68BB699B001344DE
:10E4A8001B68BB603549B868FAF73CFD0346002B8A
:10E4B80009D1BB68B3F91830B7F91E209342B8BF29
:10E4C8001346FB8300E000BFBB690133BB61BA6937
:10E4D8007B699A42DED300217868FFF720FD034666
:10E4E8007B8200217868FFF707FD03463B82002105
:10E4F8007868FFF74BFD0346FB81B7F91E30204AC9
:10E5080093420DD07A8A7B68B3F918309BB2D31A3C
:10E518009AB2FB8913449AB2FB8B13449BB2FB83D8
:10E528007868FEF7C6FA0346BB81FB895B009CB29C
:10E538007D8A7868FEF7ECF903469BB2EB1A9AB22B
:10E548003B8A13449BB223449AB2BB8913449BB2BF
:10E55800BB817868FFF70CFE0346BA899BB2D31AD1
:10E568009BB2BB81B7F90C20B7F91E309342B8BFF4
:10E5780013461BB218462037BD46B0BD0100040043
:10E5880001E0FFFF80B584B000AF786039601849BA
:10E59800786824F06FFFF860FB68002B06D0FB68F2
:10E5A8005B6A9BB25B429BB21AB204E07868FFF7E1
:10E5B800DFFD03461A463B681A800E49786824F046
:10E5C80059FFF860FB68002B06D0FB685B6A9BB2BA
:10E5D8005B429BB21AB204E07868FFF7E1FD03469C
:10E5E8001A463B685A8000BF1037BD4680BD00BF41
:10E5F8007DF80008ADF8000890B589B000AFF86064
:10E60800084611461A4603467B810B463B81134652
:10E61800FB71B7F90A30002B04D1B7F90830002B89
:10E6280000F0B580F868FDF759FDF868FFF7A0FD20
:10E6380003469BB25B429BB2BB82BA8A7B89134476
:10E648009BB2FB830021F868FFF7B3FC0346012B5C
:10E6580028D0B7F91E30002B01DD0023FB83B7F962
:10E668001E30002B43DAF868FFF750FE03469CB2D1
:10E67800F868FFF7EFFE03469BB223449BB2BB83C7
:10E68800B7F91C30002B01DA0023BB83B7F91E2031
:10E69800B7F91C305B429A4229DABB8B5B429BB2CA
:10E6A800FB8324E0B7F91E30002B01DA0023FB833B
:10E6B800B7F91E30002B1ADDF868FFF727FE03466E
:10E6C8009CB2F868FFF7C6FE03469BB223449BB290
:10E6D8007B83B7F91A30002B01DA00237B83B7F963
:10E6E8001E20B7F91A309A4201DD7B8BFB83F8684C
:10E6F800FFF756FD03469BB25B429BB27B827A8A48
:10E708003B8913449BB23B83B7F91830002B01DDDA
:10E7180000233B83B7F91830002B1DDAF868FFF7A0
:10E7280057FD03469CB2F868FFF76AFD03469BB2A3
:10E7380023449BB2FB82B7F91630002B01DA002381
:10E74800FB82B7F91820B7F916305B429A4203DA10
:10E75800FB8A5B429BB23B83FA8BBB8AD31A9BB280
:10E768007B813A8B7B8AD31A9BB23B81B7F90A30FB
:10E77800002B03D1B7F90830002B09D0FB79B7F982
:10E788000820B7F90A10F86800F006F800E000BFA2
:10E798002437BD4690BD000080B59AB000AFF86040
:10E7A800084611461A4603467B810B463B811346B1
:10E7B800FB71B7F90A30002B04D1B7F90830002BE8
:10E7C80000F0F280FB79012B40F0C480F86803F078
:10E7D800D7FBB86507F11003184624F075FD07F15B
:10E7E8001003F9681846FFF7F3FA07F110037249A6
:10E7F8001846FFF73AFBB7F90A30002B52D0B86D2C
:10E8080024F0A4FB03465B009B101846B7F90A30B6
:10E818001A46002124F056FE78667B6EC72B01D875
:10E82800C8237B667B6EB3F5C87F02D94FF4C873E3
:10E838007B6607F11003796E1846FFF7E5FAF8686A
:10E84800FFF796FC0346A7F85630B7F956305942F9
:10E85800B7F90A20B7F95630D21A07F1100318464B
:10E86800FFF7E0FA07F1100354491846FFF7BEFA1C
:10E8780007F1100352491846FFF7E9FA07F11003A8
:10E888001A460921F868F6F79DF9034687F85530C6
:10E8980097F85530012B40F0898007F1100318468E
:10E8A80024F038FDB7F90830002B00F08280B86DED
:10E8B80024F072FB03465B009B101846B7F908303A
:10E8C8001A46002124F0FEFD38663B6EC72B01D89E
:10E8D800C8233B663B6EB3F5C87F02D94FF4C873B3
:10E8E8003B6607F11003396E1846FFF78DFAF86892
:10E8F800FFF756FC0346A7F85230B7F95230594291
:10E90800B7F90820B7F95230D21A07F110031846A0
:10E91800FFF788FA07F110032A491846FFF766FA45
:10E9280007F1100326491846FFF791FA07F110037B
:10E938001A460921F868F6F745F9034687F8513071
:10E9480097F85130012B33D107F11003184624F002
:10E95800E1FC2EE01B49F86824F054FD034687F8D3
:10E968005F301649F86824F04DFD034687F85E309D
:10E97800B7F90820B7F90A301946F86800F033FFEC
:10E9880097F85F30002B03D197F85E30002B10D03A
:10E9980000220A21F868F6F715F9034687F85D3072
:10E9A80097F85D30012B04E000BF02E000BF00E0F3
:10E9B80000BF6837BD4680BDDDF800087DF8000857
:10E9C8005F350308ADF8000880B584B000AFF86083
:10E9D800084611461A4603467B810B463B8113467F
:10E9E800FB71FA79B7F90A301946F86800F00CF8A3
:10E9F800FA79B7F908301946F86800F029F800BF25
:10EA08001037BD4680BD000080B584B000AF786087
:10EA18000B467B8013467B700C49786824F0F2FC27
:10EA28007868FFF7A5FB0346FB81FA897B88D31A30
:10EA38009BB2BB817B78B7F90C1000227868FFF78E
:10EA4800DBFD00BF1037BD4680BD00BF7DF8000864
:10EA580080B584B000AF78600B467B8013467B702E
:10EA68000C49786824F0CEFC7868FFF799FB0346D8
:10EA7800FB81FA897B88D31A9BB2BB817B78B7F973
:10EA88000C2000217868FFF7B7FD00BF1037BD469E
:10EA980080BD00BFADF8000880B586B000AF7860D3
:10EAA8000B46FB707868FDF719FB0023BB81002338
:10EAB800FB817B687B61786903F09CFA38610EE022
:10EAC8007B6803F11400FB7807F10C02796900F008
:10EAD80011FF3B697B61386903F08CFA38613B6947
:10EAE800002BEDD100BF00BF1837BD4680BD000028
:10EAF80090B595B002AFF860B9607A604FF0FF3317
:10EB080000934FF0FF3300220021B86824F036FF4D
:10EB18004FF0FF3300934FF0FF3300220021786855
:10EB280024F02CFF1021F868FAF7E7F9034683F080
:10EB38000103DBB2002B40F09185F868FFF7C0FABB
:10EB4800034687F8413097F84130002B00F088855C
:10EB5800002024F0F9FA786497F84130022B14D198
:10EB68000AE0786CF7F7BBF80246FB68934207D0D7
:10EB7800786C24F0E9FA78647B6C002BF1D100E022
:10EB880000BF7B6C002B00F06D85F868FFF720FB59
:10EB98000346FB87F868FFF733FB0346BB87F86833
:10EBA800FFF7B4FB03467B87F868FFF753FC03467F
:10EBB8003B87F868FFF79AFA034687F8373000234F
:10EBC80087F8433097F8373003F00C03002B1CD03C
:10EBD80097F84130012B15D097F84130032B07D116
:10EBE800B7F93E30002B0DDCB7F93C30002B09DCBF
:10EBF80097F84130022B08D1786CF7F74FF80346A5
:10EC08000C2B02D1012387F84330002387F84230C8
:10EC180097F8373003F00303002B1CD097F84130E6
:10EC2800012B15D097F84130032B07D1B7F93A30AB
:10EC3800002B0DDCB7F93830002B09DC97F8413090
:10EC4800022B08D1786CF7F729F80346032B02D179
:10EC5800012387F8423097F8423083F00103DBB292
:10EC6800002B07D097F8433083F00103DBB2002B69
:10EC780040F0FA844FF48031F868FFF79AF90346B8
:10EC8800012B0CBF0123002387F836304FF4803165
:10EC9800F868FFF70BF90346BB864FF48031F86834
:10ECA800FFF717F903467B864FF48031F868FFF7C2
:10ECB80023F903463B864FF48031F868FFF72FF9B4
:10ECC8000346FB854FF48031F868FFF7DCF803460C
:10ECD800BB85F868FDF72AFE03467B85F868FDF7D3
:10ECE80017FE03463B8597F84330002B02D0B7F94F
:10ECF8002C3000E00023FB8497F84230002B02D030
:10ED0800B7F92C3000E00023BB844FF48031F86859
:10ED1800FFF718F90346012B08D84FF48031F8683B
:10ED2800FFF722F90346012B40F2A0847A8DFB8F6E
:10ED380013449AB2BB8F13449BB27B8497F8433039
:10ED4800002B00F0C381B7F92230002B00F0BE8100
:10ED5800FB68B3F916207B685A80FB68B3F91A2060
:10ED68007B68DA8097F83630002B16D0FB68B3F949
:10ED780014309AB23B8E13449BB21AB27B681A8045
:10ED88007B68B3F900309AB2BB8D13449BB2013B48
:10ED98009BB21AB27B689A8015E0FB68B3F9183009
:10EDA8009AB2FB8DD31A9BB21AB27B689A807B68A1
:10EDB800B3F904309AB2BB8DD31A9BB201339BB21C
:10EDC8001AB27B681A80B7F92A20B7F93430D21AF8
:10EDD800B7F93230D21AB7F92430D31AB7F92A2042
:10EDE80003FB02F2B7F9223092FBF3F33B84B7F945
:10EDF8002040002024F0F6F803461A4613469B00EC
:10EE080013445B00EF2B10DD002024F0EBF80346E1
:10EE18001A4613469B0013445B005033A74A82FBF3
:10EE280003129211DB17D31A00E00123A3421EDB61
:10EE3800002024F0D7F803461A4613469B001344D3
:10EE48005B00EF2B11DD002024F0CCF803461A46B6
:10EE580013469B0013445B005033984A82FB03120D
:10EE68009211DB17D31A1BB203E0012301E0B7F9B3
:10EE780020303B847A8DBB8ED31A9AB27B8ED31AFC
:10EE88009AB2BB8CD31A9AB23B8CD31A9BB2FB832F
:10EE98007A8C7B8DD31A9BB2BB83B7F91C30002BBD
:10EEA80019DCFB68B3F916309AB2BB8E13449BB2D7
:10EEB8001AB27B685A80FB68B3F91A309AB27B8E13
:10EEC800D31A9AB2BB8CD31A9BB2013B9BB21AB22B
:10EED8007B68DA80FAE0B7F91E30B7F93C2003FB0B
:10EEE80002F2B7F91C3092FBF3F37B83FA8B7B8B2E
:10EEF800D31A9BB27B83FB68B3F916309AB27B8B2B
:10EF080013449AB2BB8E13449BB21AB27B685A80E0
:10EF18007B68B3F902309AB23B8C13449BB2013B35
:10EF28009BB21AB27B68DA807B68B3F902301A4662
:10EF3800FB68B3F916301946B7F934300B449A42D6
:10EF480057DAFB68B3F916309AB2BB8E13449BB2FA
:10EF58001AB27B685A807B68B3F902301C460020DD
:10EF680024F040F803461A4613469B0013445B00FE
:10EF7800EF2B10DD002024F035F803461A4613461F
:10EF88009B0013445B0050334C4A82FB03129211DE
:10EF9800DB17D31A00E0012323447A68B2F906206C
:10EFA800934226DD7B68B3F902309CB2002024F03E
:10EFB80019F803461A4613469B0013445B00EF2BCF
:10EFC80011DD002024F00EF803461A4613469B0074
:10EFD80013445B005033394A82FB03129211DB174A
:10EFE800D31A9BB200E0012323449BB21AB27B6878
:10EFF800DA807B68B3F906301946FB68B3F91A3032
:10F008001A46B7F92430D21AB7F93230D31A9942CE
:10F018005CDDFB68B3F91A309AB2BB8CD31A9AB28A
:10F028007B8ED31A9BB21AB27B68DA807B68B3F9FD
:10F0380006301C46002023F0D5FF03461A46134627
:10F048009B0013445B00EF2B10DD002023F0CAFF68
:10F0580003461A4613469B0013445B005033174A75
:10F0680082FB03129211DB17D31A00E00123E31A83
:10F078007A68B2F90220934228DA7B68B3F906303D
:10F088009CB2002023F0AEFF03461A4613469B00AD
:10F0980013445B00EF2B13DD002023F0A3FF03468E
:10F0A8001A4613469B0013445B005033034A82FB05
:10F0B80003129211DB17D31A9BB202E067666666E9
:10F0C8000123E31A9BB21AB27B685A803A8D7B8F70
:10F0D80013449AB23B8F13449BB23B8397F8423058
:10F0E800002B00F0C482B7F91830002B00F0BF8263
:10F0F800FB68B3F91A309AB27B8ED31A9BB21AB254
:10F10800BB68DA80BB68B3F906309AB2BB8DD31AF4
:10F118009BB201339BB21AB2BB685A80FB68B3F941
:10F128001420BB681A80FB68B3F91820BB689A8062
:10F13800B7F92820B7F93030D21AB7F92E30D21AD9
:10F14800B7F92630D31AB7F9282003FB02F2B7F92A
:10F15800183092FBF3F3FB82B7F91640002023F036
:10F1680041FF03461A4613469B0013445B00EF2BEE
:10F1780010DD002023F036FF03461A4613469B0095
:10F1880013445B005033A74A82FB03129211DB172A
:10F19800D31A00E00123A3421EDB002023F022FF44
:10F1A80003461A4613469B0013445B00EF2B11DD00
:10F1B800002023F017FF03461A4613469B0013440A
:10F1C8005B005033974A82FB03129211DB17D31A64
:10F1D8001BB203E0012301E0B7F91630FB823A8D38
:10F1E8003B8ED31A9AB2FB8DD31A9AB2FB8CD31AE0
:10F1F8009AB2FB8AD31A9BB2FB833A8B3B8DD31A04
:10F208009BB2BB82B7F91430002B37DC97F8363045
:10F21800002B19D0FB68B3F914309AB23B8E134413
:10F228009AB2FB8C13449BB2013B9BB21AB2BB68E7
:10F238001A80FB68B3F918309AB2FB8DD31A9BB2C7
:10F248001AB2BB689A8012E2FB68B3F914309AB21A
:10F258003B8E13449BB21AB2BB681A80FB68B3F9A1
:10F2680018309AB2FB8DD31A9AB2FB8CD31A9BB280
:10F27800013B9BB21AB2BB689A80F8E1B7F91E301D
:10F28800B7F9382003FB02F2B7F9143092FBF3F315
:10F298007B82FA8B7B8AD31A9BB27B8297F83630B3
:10F2A800002B00F0F180FB68B3F914309AB27B8A26
:10F2B80013449AB23B8E13449AB2FB8C13449BB20C
:10F2C8001AB2BB681A80BB68B3F900309AB2FB8ADD
:10F2D80013449BB2013B9BB21AB2BB689A80BB68CD
:10F2E800B3F900301946FB68B3F914301A46B7F978
:10F2F80030301A44B7F92630134499425ADAFB6879
:10F30800B3F914309AB23B8E13449AB2FB8C13446F
:10F318009BB21AB2BB681A80BB68B3F900301C46AE
:10F32800002023F05FFE03461A4613469B00134451
:10F338005B00EF2B10DD002023F054FE03461A4635
:10F3480013469B0013445B005033364A82FB03127A
:10F358009211DB17D31A00E001232344BA68B2F9EB
:10F368000420934226DDBB68B3F900309CB200202C
:10F3780023F038FE03461A4613469B0013445B00ED
:10F38800EF2B11DD002023F02DFE03461A4613460D
:10F398009B0013445B005033224A82FB03129211F4
:10F3A800DB17D31A9BB200E0012323449BB21AB2A5
:10F3B800BB689A80BB68B3F904301A46FB68B3F996
:10F3C80018301946B7F92E30CB1A9A4240F34F81BC
:10F3D800FB68B3F918309AB2FB8DD31A9BB21AB2F4
:10F3E800BB689A80BB68B3F904301C46002023F040
:10F3F800F9FD03461A4613469B0013445B00EF2BA6
:10F4080012DD002023F0EEFD03461A4613469B004A
:10F4180013445B005033034A82FB03129211DB173B
:10F42800D31A02E0676666660123E31ABA68B2F97E
:10F438000020934280F21B81BB68B3F904309CB270
:10F44800002023F0CFFD03461A4613469B001344C1
:10F458005B00EF2B11DD002023F0C4FD03461A46A4
:10F4680013469B0013445B005033824A82FB03120D
:10F478009211DB17D31A9BB200E00123E31A9BB267
:10F488001AB2BB681A80F2E0FB68B3F914309AB27A
:10F498007B8A13449AB23B8E13449BB21AB2BB6860
:10F4A8001A80BB68B3F900309AB2FB8A13449BB246
:10F4B800013B9BB21AB2BB689A80BB68B3F90030B3
:10F4C8001A46FB68B3F914301946B7F930300B44C3
:10F4D8009A4257DAFB68B3F914309AB23B8E134458
:10F4E8009BB21AB2BB681A80BB68B3F900301C46DD
:10F4F800002023F077FD03461A4613469B00134469
:10F508005B00EF2B10DD002023F06CFD03461A464C
:10F5180013469B0013445B005033564A82FB031288
:10F528009211DB17D31A00E001232344BA68B2F919
:10F538000420934226DDBB68B3F900309CB200205A
:10F5480023F050FD03461A4613469B0013445B0004
:10F55800EF2B11DD002023F045FD03461A46134624
:10F568009B0013445B005033424A82FB0312921102
:10F57800DB17D31A9BB200E0012323449BB21AB2D3
:10F58800BB689A80BB68B3F904301946FB68B3F9C5
:10F5980018301A46B7F92630D21AB7F92E30D31ACE
:10F5A800994264DDFB68B3F918309AB2FB8CD31A20
:10F5B8009AB2FB8DD31A9BB21AB2BB689A80BB6809
:10F5C800B3F904301C46002023F00CFD03461A460C
:10F5D80013469B0013445B00EF2B10DD002023F043
:10F5E80001FD03461A4613469B0013445B00503343
:10F5F800204A82FB03129211DB17D31A00E0012381
:10F60800E31ABA68B2F90020934230DABB68B3F95A
:10F6180004309CB2002023F0E5FC03461A4613464A
:10F628009B0013445B00EF2B11DD002023F0DAFC74
:10F6380003461A4613469B0013445B0050330D4A99
:10F6480082FB03129211DB17D31A9BB200E001234D
:10F65800E31A9BB21AB2BB681A8008E000BF06E042
:10F6680000BF04E000BF02E000BF00E000BF4C376D
:10F67800BD4690BD6766666680B586B000AF7860A7
:10F6880007F1080207F1100319467868FFF730FA06
:10F6980007F11003184624F0C0F90346002B07D1E0
:10F6A80007F10803184624F0B8F90346002B1CD0CC
:10F6B80007F11003184624F0B0F90346002B05D0D3
:10F6C80007F1100319467868FDF7BFFD07F1080335
:10F6D800184624F0A2F90346002B07D007F10803C7
:10F6E80019467868FDF7B1FD00E000BF1837BD4640
:10F6F80080BD80B584B000AF78600B46FB70786839
:10F70800FEF720FD0346002B21D17868FEF760FD47
:10F718000346FB817868FEF773FD0346BB81B7F9A2
:10F728000C30002B13DAB7F90E30002B0FDDB7F9C8
:10F738000C305A42B7F90E309342A8BF1346BB812A
:10F74800FB78B7F90C2000217868FFF725F878686E
:10F75800FEF7E2FC0346002B41D17868FEF7D6FDA0
:10F7680003467B817868FEF775FE03463B810021DE
:10F778007868FEF71EFC0346012B18D0B7F908304D
:10F78800002B2CDAB7F90A30002B28DDB7F908303E
:10F798005A42B7F90A309342A8BF13463B81FB7817
:10F7A800B7F9081000227868FEF7F6FF17E0B7F9F6
:10F7B8000A30002B13DAB7F90830002B0FDDB7F940
:10F7C8000A305A42B7F908309342A8BF13463B8122
:10F7D800FB78B7F90A1000227868FEF7DDFF00BF52
:10F7E8001037BD4680BD80B584B000AF78600B4649
:10F7F8007B8013463B80B7F90230002B03D1B7F961
:10F808000030002B30D07868F9F7D6FB7B689B680E
:10F81800B3F910309AB27B8813449AB27B689B681C
:10F8280012B21A827B689B68B3F912309AB23B888D
:10F8380013449AB27B689B6812B25A82B7F90020C7
:10F84800B7F9021001237868FDF79AFC00220B2112
:10F858007868F5F7B7F90346FB73FB7B012B05D1F5
:10F868007868FDF716FD02E000BF00E000BF103722
:10F87800BD4680BD80B582B000AF786039607868D9
:10F88800FEF776FC03469AB23B689BB213449BB2E0
:10F898001BB2002219467868FFF7A5FF00BF08379A
:10F8A800BD4680BD80B582B000AF786039607868A9
:10F8B800FEF776FC03469AB23B689BB213449BB2B0
:10F8C8001BB21A4600217868FFF78DFF00BF083782
:10F8D800BD4680BD80B582B000AF78607B681B688C
:10F8E80000220A211846F5F76DF900BF0837BD4612
:10F8F80080BD000080B592B000AFF860B9607A6052
:10F90800FB70B86802F076FBF8631021F86BF9F722
:10F91800F4FA034683F00103DBB2002B40F09F8228
:10F92800F86BFEF7E3FB034687F83B3000233B8781
:10F938000023FB860023A7F84230F86BFEF702FC91
:10F94800034687F8353097F83530002B03D0BB686D
:10F9580014337B6401E0FB687B640021F86BFEF7DD
:10F9680015FB03467B860021F86BFEF79FFA0346DA
:10F978009AB27B8E13449BB23B860021F86BFEF74C
:10F98800A8FA03469AB27B8E13449BB2FB85FB6BA5
:10F99800B3F916309AB23B8E13449AB27B6CB3F922
:10F9A80002309BB2D31A9AB27B68B3F902309BB289
:10F9B800D31A9BB2BB857B68B3F902309AB27B6CD1
:10F9C800B3F9063099B2F88DFB6BB3F91A309BB2D4
:10F9D800C31A9BB20B449BB213449BB27B85F86B52
:10F9E800FCF7A4FF03469AB23B8ED31A9AB2FB8D5A
:10F9F800D31A9BB23B85B7F92C30002B07DBB7F93C
:10FA08002A30002B03DB0023A7F842302EE0B7F999
:10FA18002C30002B12DDBB8DA7F84230F86BFEF7B7
:10FA2800D7FB0346BB84B7F92420B7F94230D31A71
:10FA3800002B1BDA0023A7F8423017E0B7F92A3069
:10FA4800002B13DD7B8D5B429BB2A7F84230F86B2D
:10FA5800FEF7D6FB0346FB84B7F92620B7F94230F8
:10FA68001344002B02DA0023A7F8423097F8353008
:10FA7800032B3ED0032B6EDC012B02D0022B1CD0B3
:10FA880069E0FB6BB3F916309AB23B8E13449BB214
:10FA98003B877B6CB3F902309AB2B7F84230134413
:10FAA8009BB2FB863A8FFB8ED31A9AB2B7F84230D4
:10FAB80013449BB2A7F842304DE0FB6BB3F91A3000
:10FAC8009AB2FB8DD31A9BB23B877B6CB3F9063095
:10FAD8009AB2B7F8423013449BB2FB863A8FFB8E3A
:10FAE800D31A9AB2B7F8423013449BB2A7F84230FF
:10FAF80031E0FB6BB3F916309AB23B8E13449AB2DD
:10FB0800B7F92830002B00DA01335B101BB29BB227
:10FB180013449BB23B87786CFEF743F90346002BEE
:10FB280000DA01335B101BB29AB27B6CB3F9023076
:10FB38009BB213449AB2B7F8423013449BB2FB8687
:10FB48003A8FFB8ED31A9AB2B7F8423013449BB25D
:10FB5800A7F8423000BF0023A7F84030F86BFEF743
:10FB6800DBFA034687F8233097F82330002B03D0BD
:10FB7800BB6814337B6401E0FB687B640021F86B8D
:10FB8800FEF7BAF903469AB27B8E13449BB23B84C4
:10FB98000021F86BFEF7C3F903469AB27B8E134433
:10FBA8009BB2FB83FB6BB3F914309AB23B8C1344C2
:10FBB8009AB27B6CB3F900309BB2D31A9AB27B68C5
:10FBC800B3F900309BB2D31A9BB2BB837B68B3F9FD
:10FBD80000309AB27B6CB3F9043099B2F88BFB6BA6
:10FBE800B3F918309BB2C31A9BB20B449BB21344AF
:10FBF8009BB27B83B7F91C30002B07DBB7F91A30AF
:10FC0800002B03DB0023A7F840302EE0B7F91C30A7
:10FC1800002B12DDBB8BA7F84030F86BFEF776FBA4
:10FC28000346FB82B7F91620B7F940301344002B7E
:10FC38001BDD0023A7F8403017E0B7F91A30002B76
:10FC480013DD7B8B5B429BB2A7F84030F86BFEF765
:10FC580001FC03463B83B7F91820B7F94030134439
:10FC6800002B02DA0023A7F84030F86BFCF750FEAF
:10FC780003469AB23B8CD31A9AB2FB8BD31A9BB227
:10FC8800BB8297F82330032B3ED0032B6EDC012B6D
:10FC980002D0022B1CD069E0FB6BB3F914309AB286
:10FCA8003B8C13449BB23B877B6CB3F900309AB210
:10FCB800B7F8403013449BB2FB863A8FFB8ED31AB9
:10FCC8009AB2B7F8403013449BB2A7F840304DE0E1
:10FCD800FB6BB3F918309AB2FB8BD31A9BB23B87F4
:10FCE8007B6CB3F904309AB2B7F8403013449BB236
:10FCF800FB863A8FFB8ED31A9AB2B7F8403013447A
:10FD08009BB2A7F8403031E0FB6BB3F914309AB2DC
:10FD18003B8C13449AB2B7F91430002B00DA013344
:10FD28005B101BB29BB213449BB23B87786CFEF707
:10FD380021F80346002B00DA01335B101BB29AB29C
:10FD48007B6CB3F900309BB213449AB2B7F84030D9
:10FD580013449BB2FB863A8FFB8ED31A9AB2B7F83C
:10FD6800403013449BB2A7F8403000BF3F49F86BBE
:10FD780023F048FB0346FB743D49F86B23F042FB34
:10FD88000346BB74FB7C002B02D1BB7C002B09D043
:10FD980000220A21F86BF4F715FF03467B747B7C7D
:10FDA800012B5ED197F83B3003F00103002B06D1FD
:10FDB800B7F94030002B02DA0023A7F8403097F853
:10FDC8003B3003F00203002B06D1B7F94030002B7B
:10FDD80002DD0023A7F8403097F83B3003F0040316
:10FDE800002B06D1B7F94230002B02DA0023A7F81E
:10FDF800423097F83B3003F00803002B06D1B7F9DF
:10FE08004230002B02DD0023A7F842307B68B3F9AB
:10FE180000309AB2FB78002B02D0B7F8403000E0EF
:10FE2800002313449BB21AB27B681A807B68B3F92B
:10FE380002309AB2FB78002B02D0B7F8423000E0CB
:10FE4800002313449BB21AB27B685A80FB78B7F937
:10FE58004220B7F94010F86BFEF79EFC02E000BFA5
:10FE680000E000BF4837BD4680BD00BFADF80008C0
:10FE78007DF8000880B487B000AFB8803980134699
:10FE8800FB70FB780433DB10FB703B881A463B8819
:10FE98001B041A43124B13407B61BB881A46BB886C
:10FEA8001B041A430E4B13403B613A697B69D31A12
:10FEB800FA7802FB03F35A097B691A44084B13408A
:10FEC800FB60FB681B0C9AB2FB689BB213439BB2A6
:10FED8003B813B8918461C37BD465DF8047B70475B
:10FEE8001FF8E00780B483B000AF786039607B68A2
:10FEF8003A681A6000BF0C37BD465DF8047B70474E
:10FF080080B483B000AF786039607B683A685A6023
:10FF180000BF0C37BD465DF8047B704780B483B0E2
:10FF280000AF786039603A687B689A6200BF0C3726
:10FF3800BD465DF8047B704780B483B000AF78603D
:10FF480039603B685A427B68DA6200BF0C37BD46AD
:10FF58005DF8047B704780B485B000AFF860B96085
:10FF68007A60FB68BA68DA61FB68BA681A62FB688B
:10FF78007A685A6200BF1437BD465DF8047B704743
:10FF880080B483B000AF786039607B683A689A6162
:10FF980000BF0C37BD465DF8047B704780B483B062
:10FFA80000AF786039607B683A689A6000BF0C37A8
:10FFB800BD465DF8047B704780B483B000AF7860BD
:10FFC80039607B683A68DA6000BF0C37BD465DF877
:10FFD800047B704780B483B000AF78600B46FB7039
:10FFE8007A6892F83E30F97861F3000382F83E307F
:08FFF80000BF0C37BD465DF8A7
:020000040801F1
:10000000047B704780B485B000AFF860B9607A6057
:10001000FB681B78002B02D1FB6801221A7000BF1D
:100020001437BD465DF8047B704780B584B000AFDF
:100030007860396041F201023968786800F0CCFAE2
:100040000346FB60FB681BB218461037BD4680BDF7
:1000500080B584B000AF7860396041F2040239683D
:10006000786800F0B9FA0346FB60FB681BB21846DB
:100070001037BD4680BD80B584B000AF7860396070
:1000800041F25D423968786800F0A6FA0346FB60E9
:10009000FB68DBB218461037BD4680BD80B584B022
:1000A00000AF7860396063223968786800F094FAAC
:1000B0000346FB60FB6818461037BD4680BD80B51F
:1000C00084B000AF7860396064223968786800F0E5
:1000D00083FA0346FB60FB68DBB218461037BD4667
:1000E00080BD80B584B000AF7860396041F26A426B
:1000F0003968786800F070FA0346FB60FB68DBB291
:1001000018461037BD4680BD80B500AF14210248A7
:1001100024F077FD00BF80BD44ED032080B586B09C
:1001200000AFF860B9607A6000234FF6FF7279681B
:10013000F86801F003FA00237B611AE0FB68DA68D3
:100140007B69DB001344DB7903F00203DBB2002B95
:100150000BD1FB68DA687B69DB001344DB7903F0C1
:100160000103DBB2002B0ED000E000BF7B6901333E
:100170007B61FB685B8CC3F3C503DBB21A467B690A
:100180009342DBD300E000BFFB685B8CC3F3C50385
:10019000DBB2013303F03F03D9B2FA68538C61F349
:1001A000C8035384FB68DA68FB685B8CC3F3C50340
:1001B000DBB2DB001946104625F00CF90246FB685D
:1001C000DA60FB685B8CC3F3C503DBB2013B3B61C8
:1001D00014E0FB68DA6839696FF060430B44DB00B8
:1001E000D118FB68DA683B69DB0013440A4692E8E1
:1001F000030083E803003B69013B3B613A697B698B
:100200009A42E6D8FB68DA687B69DB001344082170
:10021000184625F0FFFCFB68DA687B69DB001344B5
:10022000BA681A60FB68DA687B69DB001A447B688D
:1002300023F07F41536861F3170353604FF6FF7259
:100240007968F86800F02EF900BF1837BD4680BD08
:1002500080B58CB000AFF860B9607A60786800F063
:100260002EFE0346FB83786800F035FEB8614FF63A
:10027000FF73FB85BB68002B05D0BB68DB79002BC7
:1002800001D10023FB850023BB62002387F82730C0
:10029000B9E0FB68DA68BB6ADB0013445B68C3F350
:1002A0001703184600F00BFE0346FB82FB68DA6872
:1002B000BB6ADB0013445B68C3F31703184600F006
:1002C0000AFE3861FB8B4FF6FF72934203D0FA8A25
:1002D000FB8B9A4213D1BB69B3F5702F03D03A69F7
:1002E000BB699A420BD1BB68002B0CD0FB68DA6863
:1002F000BB6ADB0013441B68BA689A4203D0BB6A2E
:100300000133BB627FE0FB68DA68BB6ADB00134441
:10031000DB7903F00203DBB2002B06D000234FF69B
:10032000FF72B969F86801F009F9FB68DA68BB6A1D
:10033000DB001344DB7903F00103DBB2002B0AD1AD
:10034000FB68DA68BB6ADB001344DB7903F0020365
:10035000DBB2002B18D0FB68DA68BB6ADB00134401
:100360001B68184626F069FDFB68DA68BB6ADB008B
:1003700013441B68184625F011F8FB68DA68BB6A5D
:10038000DB00134400221A60BB6A3B6212E0FB6888
:10039000DA683B6A0133DB00D118FB68DA683B6A34
:1003A000DB0013440A4692E8030083E803003B6A3B
:1003B00001333B62FB685B8CC3F3C503DBB2013BDB
:1003C0003A6A9A42E3D3FB685B8CC3F3C503DBB2A2
:1003D0003F3303F03F03D9B2FA68538C61F3C8038B
:1003E0005384FB68DA68FB685B8CC3F3C503DBB23C
:1003F000DB001946104624F0EDFF0246FB68DA6088
:10040000012387F82730FB685B8CC3F3C503DBB29D
:100410001A46BB6A9342FFF43CAF97F82730002B93
:1004200008D0FB8D002B05D0FB8D1A46B969F86802
:1004300000F038F800BF3037BD4680BD80B584B0CD
:1004400000AF7860164B1B7883F00103DBB2002B02
:1004500021D1002022F0F6FDF86018E00023BB60F7
:100460000CE0FB68DA68BB689B0013441B68194604
:10047000786800F0F0FFBB680133BB60FB685B6A23
:10048000BA689A42EDD3F86822F0DCFDF860FB68A8
:10049000002BE3D100E000BF1037BD4680BD00BF98
:1004A0000D00002080B586B000AFF860B96013463B
:1004B000FB80404B1B7883F00103DBB2002B75D12E
:1004C000F868FCF7EAFEB86800F005FD7861FB8883
:1004D00003F48053002B22D07B69B3F5702F16D024
:1004E0007B69002B13D00021F868FFF7B1FD0346AC
:1004F0001A4642F2D1739A4209D00021F868FFF7F8
:1005000094FD03461A4642F2D1739A4207D1002263
:100510002A21F868F4F75AFBF868FBF7BBFD7B6902
:10052000B3F5702F02D07B69002B13D1FB884FF6F7
:10053000FF72934204D0FB8803F40053002B09D0D0
:10054000F86801F05BFD38613B69002B02D0386927
:10055000FBF7A0FDFB884FF6FF72934204D0FB88A7
:1005600003F40063002B02D0F868FBF75FF8F8682B
:10057000FCF793FEFB884FF6FF7293420ED0FB8888
:1005800003F48063002B12D0FB8803F40063002B7C
:1005900004D1FB8803F48053002B08D07B69B3F5AA
:1005A000803F04D0F86800F09CFF00E000BF1837DF
:1005B000BD4680BD0D00002080B483B000AF03466F
:1005C000FB71044AFB79137000BF0C37BD465DF820
:1005D000047B70470D00002080B588B000AFF86044
:1005E000B9601346FB80FB889B1203F00103002BCC
:1005F00014BF01230023FB75FB889B1303F0010349
:10060000002B14BF01230023BB75BB7D002B03D03F
:10061000FB8823F48043FB800023FB771BE007F17A
:100620001003FA88B968F86800F0EDFD0346FB771F
:10063000FB7F002B13D1FB7D83F00103DBB2002B8A
:100640000FD1BB68002B02D00023BB6003E0F86829
:1006500001F0D4FCF860FB68002BE0D102E000BFA1
:1006600000E000BFFB7F83F00103DBB2002B3CD036
:10067000BB68002B33D1FB8841F20102934204D0C6
:10068000FB8841F20402934229D1FB681B68BB61DD
:1006900012E0FB8841F20102934205D1BB69B3F934
:1006A0001430002B05D00CE0BB69B3F91630002BD9
:1006B00006D1BB691B68BB61BB69002BE9D100E0B7
:1006C00000BFFB8841F20102934203D1BB69B3F939
:1006D000143002E0BB69B3F916303B6105E0FB88DA
:1006E000184626F0F1FD03463B61BB7D002B06D08A
:1006F0003A69B968F86800F082FE03463B613B69DD
:1007000018462037BD4680BD80B586B000AFF86082
:100710007A603B600B467B813968F86800F007FC23
:1007200078617B897A681946786926F088FC7B892C
:100730001A463968F868FFF7B5FE00BF1837BD469E
:1007400080BD80B586B000AFF8607A603B600B4634
:100750007B8100237B6126E0FB68DA687B69DB0034
:100760001344DB7903F00103DBB2002B18D0FB68E4
:10077000DA687B69DB0013445B68C3F317031A462E
:100780003B6893420CD1FB68DA687B69DB00134459
:100790001B6879897A68184626F05DFD03460CE0EF
:1007A0007B6901337B61FB685B8CC3F3C503DBB200
:1007B0001A467B699342CFD3002318461837BD46AB
:1007C00080BD80B586B000AFF8600B467A607B8153
:1007D00000237B6119E0FB68DA687B69DB00134466
:1007E000DB7903F00103DBB2002B0BD0FB68DA6886
:1007F0007B69DB0013445B68C3F317031A467B680D
:1008000093420CD07B6901337B61FB685B8CC3F343
:10081000C503DBB21A467B699342DCD300E000BF1C
:10082000FB685B8CC3F3C503DBB21A467B6993425A
:1008300001D100230BE0FB68DA687B69DB0013441D
:100840001B687A891146184626F026FB034618468F
:100850001837BD4680BD000080B59AB000AFF86083
:10086000B96011461A460B46FB801346BB80FA68F6
:1008700092F8223043F0040382F82230FB68FA88B1
:100880001A843B6F1B891A46B968F868FFF7A4FE03
:100890000346BB65FB68BA881A843B6F1B891A46FE
:1008A000B968F868FFF798FE03467B65FA6892F826
:1008B00022306FF3820382F82230BA6D7B6D9A4248
:1008C0000AD1BA6D7B6D9A4206D1B7F85820B7F8B5
:1008D00054309A4200F0CF80FB68FA881A843B6F4C
:1008E0001B891A46B968F868FFF776FE0346BB65B0
:1008F000FB68BA881A84B968F86800F0E3FB786688
:100900007B6E18683B6F1B89BA6D194626F097FB02
:100910003B6F1B89602B43D1BB6D47F6FF7293423F
:1009200004D07B6D47F6FF72934239D1F868FBF72C
:10093000F3FF0346002B00DA01335B10A7F86230A7
:10094000F868FBF7E9FF0346002B00DA01335B1080
:10095000A7F86030BB6D47F6FF7293420DD1B7F92F
:100960006220B7F960309A4203DAB7F96230013396
:1009700002E0B7F960300133BB657B6D47F6FF726B
:1009800093420DD1B7F96220B7F960309A4203DA89
:10099000B7F96230013302E0B7F9603001337B65AB
:1009A000384824F047F9F865FB6D002B00D1FEE7CD
:1009B000FB6D002B61D0FB6DBA6DDA60FB6D7A6D5B
:1009C0001A61FB6D002B59D0FB6DFA681A603B6F02
:1009D0001A89FB6D9A80FB6DBA689A6007F114035F
:1009E000184622F075FC07F11403F96D1846FFF75D
:1009F0007DFA07F1140324491846FFF785FA07F139
:100A0000140322491846FFF7CDFA07F114032049D1
:100A10001846FFF7D5FA07F11403FF220021184604
:100A2000FFF79DFA3B6F1B881A4607F11403114626
:100A30001846FFF777FA3B6F5B881A4607F11403F5
:100A400011461846FFF77CFA3B6FDA6807F114038A
:100A500011461846FFF798FA07F1140300211846CB
:100A6000FFF7BCFA3B6F1B69BB6207F11403184622
:100A700022F054FC02E000BF00E000BF6837BD4632
:100A800080BD00BF44ED0320411601085119010843
:100A9000C919010880B588B000AF78600B467B802B
:100AA00013463B800023FB770023BB61F8E17B68A2
:100AB000DA68BB69DB001344DB7903F00203DBB2C5
:100AC000002B40F0E9817B68DA68BB69DB001344E6
:100AD0005B68C3F31703184600F0F1F90346BB82C5
:100AE000BA8A7B88DB431340002B0CBF0123002311
:100AF000FB74BA8A3B88DB431340002B0CBF0123F5
:100B00000023BB74FA7CBB7C9A4200F0C6817B68F0
:100B1000DA68BB69DB0013441B68FB600023FB75CC
:100B200007F108031A4641F61001F86826F093FB16
:100B30000346002B02D00123FB75ECE007F108030C
:100B40001A4641F61101F86826F085FB0346002B92
:100B500002D00123FB75DEE007F108031A4641F6D7
:100B60001201F86826F077FB0346002B02D0012320
:100B7000FB75D0E007F108031A4641F61301F86847
:100B800026F069FB0346002B02D00123FB75C2E06F
:100B900007F108031A4641F61501F86826F05BFBD9
:100BA0000346002B02D00123FB75B4E007F10803D4
:100BB0001A4641F61401F86826F04DFB0346002B57
:100BC00002D00123FB75A6E007F108031A4641F2A3
:100BD0006901F86826F03FFB0346002B02D0012391
:100BE000FB7598E007F108031A4643F20C01F86818
:100BF00026F031FB0346002B02D00123FB758AE06F
:100C000007F108031A4643F20D01F86826F023FBAA
:100C10000346002B02D00123FB757CE007F108039B
:100C20001A4641F20101F86826F015FB0346002B35
:100C300002D00123FB756EE007F108031A4641F26A
:100C40000401F86826F007FB0346002B02D00123BD
:100C5000FB7560E007F108031A4641F20201F868EB
:100C600026F0F9FA0346002B02D00123FB7552E06F
:100C700007F108031A4641F20301F86826F0EBFA7F
:100C80000346002B02D00123FB7544E007F1080363
:100C90001A4641F20501F86826F0DDFA0346002BFA
:100CA00002D00123FB7536E007F108031A4641F232
:100CB0000601F86826F0CFFA0346002B02D0012384
:100CC000FB7528E007F108031A4641F23201F86883
:100CD00026F0C1FA0346002B02D00123FB751AE06F
:100CE00007F108031A4643F60F01F86826F0B3FA35
:100CF0000346002B02D00123FB750CE007F108032B
:100D00001A4643F60E01F86826F0A5FA0346002BB2
:100D100001D00123FB75FB7D002B01D00323CAE02A
:100D200007F108031A4640F60A01F86826F093FA1C
:100D30000346002B02D00223FB77AEE007F1080345
:100D40001A4640F60B01F86826F085FA0346002B98
:100D500002D00223FB77A0E007F108031A4643F60E
:100D60000F01F86826F077FA0346002B02D0022321
:100D7000FB7792E007F108031A4643F60E01F86884
:100D800026F069FA0346002B02D00223FB7784E0A9
:100D900007F108031A4640F63C01F86826F05BFAB2
:100DA0000346002B02D00223FB7776E007F108030D
:100DB0001A4640F63D01F86826F04DFA0346002B2E
:100DC00002D00223FB7768E007F108031A4640F6D9
:100DD0003A01F86826F03FFA0346002B02D00223BE
:100DE000FB775AE007F108031A464FF40461F868EC
:100DF00026F031FA0346002B02D00223FB774CE0A9
:100E000007F108031A4640F64501F86826F023FA70
:100E10000346002B02D00223FB773EE007F10803D4
:100E20001A4640F64101F86826F015FA0346002BF1
:100E300002D00223FB7730E007F108031A4640F6A0
:100E40004201F86826F007FA0346002B02D002237D
:100E5000FB7722E007F108031A4640F64301F868E1
:100E600026F0F9F90346002B02D00223FB7714E0A9
:100E700007F108031A4640F64901F86826F0EBF935
:100E80000346002B02D00223FB7706E0FB7F002BFA
:100E900003D10123FB7700E000BFBB690133BB61D5
:100EA0007B685B8CC3F3C503DBB21A46BB69934214
:100EB000FFF4FDADFB7F18462037BD4680BD80B4F2
:100EC00083B000AF78607B689BB218460C37BD4694
:100ED0005DF8047B704780B483B000AF78607B68B6
:100EE00003F47F0318460C37BD465DF8047B70475A
:100EF00080B586B000AFF860B9607A60B968F8680C
:100F0000FFF7B9F80346FB75B968F868FFF7E9F829
:100F10000346BB7507F1160107F117037A681846F7
:100F2000FFF770F8FB7D18461837BD4680BD90B5B9
:100F300085B000AF786039600023FB6020E07B68FB
:100F4000DA68FB68DB001344DB7903F00103DBB2F2
:100F5000002B12D07B68DA68FB68DB0013445B6807
:100F6000C3F317031A463B68934206D17B68DA68DD
:100F7000FB68DB0013441B68A0E0FB680133FB60E7
:100F80007B685B8CC3F3C503DBB21A46FB689342F4
:100F9000D5D37B685B8CC3F3C503DBB2013303F0AD
:100FA0003F03D9B27A68538C61F3C80353847B68DA
:100FB000DA687B685B8CC3F3C503DBB2DB001946E0
:100FC000104624F007FA02467B68DA607B68DB682B
:100FD000002B00D1FEE77B685B8CC3F3C503DBB25B
:100FE000013BFB6030E07B68DA68F9686FF06043D2
:100FF0000B44DB001344DB7903F00103DBB2002B6D
:1010000025D17B68DA68F9686FF060430B44DB0038
:101010001344DB7903F00203DBB2002B17D17B68AA
:10102000DA68F9686FF060430B44DB00D1187B6825
:10103000DA68FB68DB0013440A4692E8030083E8A1
:101040000300FB68013BFB60FB68002BCBD17B6896
:10105000DA68FB68DB0013440821184624F0DAFD47
:101060007B68DA68FB68DB00D418082024F074F988
:10107000034623607B68DA68FB68DB0013441B6867
:10108000184625F0CEFE7B68DA68FB68DB001A4460
:10109000D37943F00103D3717B68DA68FB68DB0026
:1010A0001A443B6823F07F41536861F31703536090
:1010B0007B68DA68FB68DB0013441B68184614374A
:1010C000BD4690BD90B585B000AF78603960002313
:1010D000FB6019E07B68DA68FB68DB001344DB79AE
:1010E00003F00203DBB2002B0BD07B68DA68FB68ED
:1010F000DB0013445B68C3F317031A463B68934253
:101100000CD0FB680133FB607B685B8CC3F3C503C9
:10111000DBB21A46FB689342DCD300E000BF7B6879
:101120005B8CC3F3C503DBB21A46FB68934205D060
:101130007B68DA68FB68DB00134460E07B685B8CEB
:10114000C3F3C503DBB2013303F03F03D9B27A68BE
:10115000538C61F3C80353847B68DA687B685B8CCB
:10116000C3F3C503DBB2DB001946104624F032F9A5
:1011700002467B68DA607B685B8CC3F3C503DBB235
:10118000013BFB6014E07B68DA68F9686FF060434C
:101190000B44DB00D1187B68DA68FB68DB00134482
:1011A0000A4692E8030083E80300FB68013BFB600A
:1011B000FB68002BE7D17B68DB680821184624F028
:1011C00029FD7B68DC68082024F0C6F8034623600C
:1011D0007B68DB681B68184625F023FE7B68DA68AD
:1011E000D37943F00203D3717B68DA683B6823F05C
:1011F0007F41536861F3170353607B68DB681846CF
:101200001437BD4690BD80B590B000AFF860B960AE
:101210003B601346FB80FB88184626F05CF90346CA
:101220001A460123934087F837304FF0FF33FB63B2
:10123000FB681B8CBB86BB8EDB437B86FB6893F80D
:101240002230C3F38003DBB2002B14BF0123002341
:1012500087F831300023BB6349E0FB68DA68BB6B79
:10126000DB001344FB62FB6ADB7903F00203DBB2B1
:10127000002B46D097F83130002B30D1FB68DA686C
:10128000BB6BDB0013445B68C3F317031846FFF71F
:1012900022FEB862BA6ABB689A4222D1FB6A1B6816
:1012A0009A7997F837301340DBB2002B1BD0FB6ADA
:1012B0001B6807F11402F988184625F0CCFF034695
:1012C000002B14BF0123002387F8273097F827301D
:1012D000002B09D03B687A691A6001238BE000BFBC
:1012E00002E000BF00E000BFBB6B0133BB63FB68E3
:1012F0005B8CC3F3C503DBB21A46BB6B9342ACD322
:1013000067E000BF65E0FB68DA68BB6BDB00134495
:101310003B62FB68DA68BB6BDB0013445B68C3F3BA
:1013200017031846FFF7D7FDF861FB68DA68BB6B57
:10133000DB0013445B68C3F317031846FFF7BFFDD8
:1013400003467B83FA69BB689A4238D13B6A1B68C3
:101350009A7997F837301340DBB2002B31D07A8B73
:101360007B8E13409BB2002B2DD17B8BFA6B9A4264
:101370002BDA3B6A1B6807F11402F988184625F03E
:101380006AFF0346002B14BF0123002387F8273090
:1013900097F82730002B19D07A8BBB8E9A4204D154
:1013A0003B687A691A60012325E07B8BFA6B9A42CD
:1013B0000CDA7B8BFB633B687A691A6006E000BF3E
:1013C00004E000BF02E000BF00E000BFBB6B0133E0
:1013D000BB63FB685B8CC3F3C503DBB21A46BB6B14
:1013E000934290D3FB6B002B04DB3B687A691A6055
:1013F000012300E0002318464037BD4680BD80B57C
:1014000086B000AFF860B9607A60FB68002B01D14C
:101410007B681CE0B968F868FEF740FE78617B697C
:10142000002B13D07B691B68002B0FD0B968F868BC
:10143000FEF745FE0346FB74FB7C002B06D07B6960
:101440001B68FA7CB98878699847B8807B68184629
:101450001837BD4680BD80B584B000AF7860396074
:101460000023FB6016E07B68002B08D03B68DA683D
:10147000FB68DB0013441B687A689A4207D14FF679
:10148000FF724FF470213868FFF70CF80BE0FB682F
:101490000133FB603B685B8CC3F3C503DBB21A46C8
:1014A000FB689342DFD3386800F0ECFDB86000239E
:1014B000FB600DE03B689B681A68FB689B00134467
:1014C0001B6819467868FFF7C6FFFB680133FB60AD
:1014D000FA68BB689A42EDD300BF00BF1037BD4623
:1014E00080BD80B586B000AF7860786800F0CAFD36
:1014F000386100237B6118E07B689B681A687B6910
:101500009B0013441B68FB60F868FBF7C6FE0022D3
:101510002A21F868F3F75AFBF868FBF7BEFEF86873
:10152000FFF7DFFF7B6901337B617A693B699A4290
:10153000E2D300BF00BF1837BD4680BD80B588B07C
:1015400000AFF860B9603B601346FB800023FB7678
:101550003A4823F066FCF86165E0FA693B689A4214
:1015600065D0F969354823F082FC3861FB691B6856
:10157000FA689A4255D1FB699B68BA689A4203D0CF
:10158000BB68B3F5702F4CD1FB699B88FA889A42EF
:1015900004D0FB884FF6FF72934242D100237B6157
:1015A00036E0FB68DA687B69DB001344DB7903F023
:1015B0000203DBB2002B28D0BB68B3F5702F0BD031
:1015C000FB68DA687B69DB0013445B68C3F31703CD
:1015D0001A46BB68934218D1FB68DA687B69DB0066
:1015E00013441A68FB699B881946104625F054FC81
:1015F0000021F86921F00AFFF969104823F082FB05
:10160000F86923F0CBFE0123FB767B6901337B6114
:10161000FB685B8CC3F3C503DBB21A467B6993425C
:10162000BFD33B69FB61FB69002B96D100E000BF93
:10163000FB7E18462037BD4680BD00BF44ED032029
:1016400080B588B000AF786039607B687B617B696A
:101650001B683B610023FB6169E13B69DA68FB6958
:10166000DB001344DB7903F00203DBB2002B0CD068
:101670003B69DA68FB69DB0013445B68C3F317035B
:101680001A467B699B689A4203D0FB690133FB6170
:101690004DE17B699B8841F25942934200F0B4804E
:1016A00041F25942934200F3ED80682B00F39C8095
:1016B000202BC0F2E780203B482B00F2E38001A200
:1016C00052F823F0551801088518010885180108FB
:1016D0008518010885180108851801088518010872
:1016E0008518010885180108851801088518010862
:1016F0008518010885180108851801088518010852
:101700008518010855180108851801088518010871
:10171000F3170108F3170108851801088518010857
:101720008518010885180108851801088518010821
:101730005518010885180108851801088518010841
:101740008518010885180108851801088518010801
:101750008518010855180108851801088518010821
:101760005518010885180108851801088518010811
:1017700085180108851801088518010885180108D1
:1017800085180108851801088518010885180108C1
:1017900085180108851801088518010885180108B1
:1017A00085180108851801088518010885180108A1
:1017B0008518010885180108851801088518010891
:1017C0008518010885180108851801088518010881
:1017D0001F180108851801088518010885180108D7
:1017E00009180108F317010840F25742934231D01B
:1017F00048E03B68FE2B03DC7B69DB68FB605DE057
:101800007B691B69FB6059E03B68FE2B03DC7B694D
:10181000DB68FB6052E07B691B69FB604EE07B6923
:10182000DB68002B03D17B691B69FB6046E07B69A9
:101830001B69002B03D17B69DB68FB603EE03B68E2
:101840007F2B03DC7B69DB68FB6037E07B691B690E
:10185000FB6033E03B68002B03DC7B699B89BB8129
:101860002CE03B68FE2B03DD7B691B8ABB8125E0F6
:101870003B68DAB279697B698989188AFEF7FEFAD2
:10188000B8811BE03B68002B03D17B69DB68FB6000
:1018900013E03B68FF2B03D17B691B69FB600CE005
:1018A0007B69DA687B6919697B69DB68CB1A3968FF
:1018B00001FB03F31B121344FB6000BF0123FB7603
:1018C0003B69DA68FB69DB00134418687B699B8815
:1018D00007F10802194625F0BEFC0346002B0DD087
:1018E000FA68BB689A4209D1BA893B899A4205D104
:1018F000FA68BB689A4201D10023FB763B69DA683B
:10190000FB69DB00134418687B699B88FA681946F9
:1019100025F095FBFB7E002B14D07B6918687B6952
:1019200099687B699B881A46FEF7BCFD0BE03B6912
:101930005B8CC3F3C503DBB21A46FB699342FFF429
:101940008CAE00E000BF00BF2037BD4680BD00BFA9
:1019500090B587B000AF78607B681B687B617B695E
:101960009B681846FFF7B7FA38617B6918687B698E
:101970009B887C691A463969FEF72EFEE0607B6918
:101980009B88FB817B6900229A807B691868FA89B1
:101990007B693969FFF7D2FD7B69FA899A807B6997
:1019A0001A687B699B6819461046FFF78BFBB86085
:1019B000BB6818687B6999887B69DA6825F03FFB0A
:1019C00000BF1C37BD4690BD80B58AB000AF7860BF
:1019D0007B681B68BB61BB691B687B61BB699B88BB
:1019E0007B82002387F82730424823F009FA3862C7
:1019F0001EE03A6ABB699A4215D03B6A1A68BB6915
:101A00001B689A420FD13B6A9A68BB699B689A42ED
:101A100009D13B6A9A88BB699B889A4203D101230A
:101A200087F8273007E0396A324823F00BFA38622A
:101A30003B6A002BDDD197F8273083F00103DBB23E
:101A4000002B53D00023FB6145E07B69DA68FB691A
:101A5000DB001344DB7903F00203DBB2002B37D049
:101A60007B69DA68FB69DB0013445B68C3F3170327
:101A70001A46BB699B689A422AD1B9691D4823F06E
:101A800041F9B86923F08AFC7B69DA68FB69DB00FD
:101A90001344FB60FB681B687A8A1146184625F0E0
:101AA000FBF97B69DA68FB69DB0013441B681846A5
:101AB00025F000FD0346002B17D0FB681968FB6872
:101AC0005B68C3F317031A467869FEF7C1FB0CE0A5
:101AD000FB690133FB617B695B8CC3F3C503DBB23C
:101AE0001A46FB699342B0D300E000BF00BF28371D
:101AF000BD4680BD44ED032080B586B000AFF860E0
:101B00000B467A607B81B7F90A307B617B687A6922
:101B100041F20101F868FEF7F7FD00BF1837BD4636
:101B200080BD80B586B000AFF8600B467A607B81DF
:101B3000B7F90A307B617B687A6941F20201F86883
:101B4000FEF7E2FD00BF1837BD4680BD80B586B008
:101B500000AFF8600B467A607B81B7F90A307B6191
:101B60007B687A6941F20401F868FEF7CDFD00BF99
:101B70001837BD4680BD80B586B000AFF8600B4613
:101B80007A607B81B7F90A307B617B687A6941F2C0
:101B90000701F868FEF7B8FD00BF1837BD4680BDE5
:101BA00080B586B000AFF8600B467A607B81B7F9EC
:101BB0000A307B617B687A6941F20801F868FEF7B8
:101BC000A3FD00BF1837BD4680BD80B586B000AF0D
:101BD000F8600B467A60FB72FB7A7B617B687A69FE
:101BE00041F20901F868FEF78FFD00BF1837BD46C6
:101BF00080BD80B586B000AFF860B9607A60BB6820
